.open --hexdb
| size 8192 pagesize 4096 filename altertable006.txt.db
| page 1 offset 0
|      0: 53 51 4c 69 74 65 20 66 6f 72 6d 61 74 20 33 00   SQLite format 3.
|     16: 10 00 01 01 00 40 20 20 00 00 00 00 00 00 00 02   .....@  ........
|     32: 00 00 00 00 00 00 00 00 00 00 00 02 00 00 00 04   ................
|     48: 00 00 00 00 00 00 00 00 00 00 00 01 00 00 00 00   ................
|     96: 00 00 00 00 0d 00 00 00 02 0f 85 00 0f dc 0f 85   ................
|   3968: 00 00 00 00 00 55 02 07 1b 0f 11 08 81 15 74 72   .....U........tr
|   3984: 69 67 67 65 72 62 74 31 43 52 45 41 54 45 20 54   iggerbt1CREATE T
|   4000: 52 49 47 47 45 52 20 62 20 49 4e 53 45 52 54 20   RIGGER b INSERT 
|   4016: 4f 4e 20 74 31 0a 20 42 45 47 49 4e 20 55 50 44   ON t1. BEGIN UPD
|   4032: 41 54 45 20 62 20 53 45 54 20 62 3d 28 62 29 20   ATE b SET b=(b) 
|   4048: 46 52 4f 4d 20 74 31 3b 0a 45 4e 44 22 01 06 17   FROM t1;.END....
|   4064: 11 11 01 31 74 61 62 6c 65 74 31 74 31 02 43 52   ...1tablet1t1.CR
|   4080: 45 41 54 45 20 54 41 42 4c 45 20 74 31 28 61 29   EATE TABLE t1(a)
| page 2 offset 4096
|      0: 0d 00 00 00 00 10 00 00 00 00 00 00 00 00 00 00   ................
| end altertable006.txt.db
.testctrl prng_seed 1 db
.testctrl internal_functions
ALTER TABLE t1 RENAME a TO b;

