.open --hexdb
| size 16384 pagesize 4096 filename altertable005.txt.db
| page 1 offset 0
|      0: 53 51 4c 69 74 65 20 66 6f 72 6d 61 74 20 33 00   SQLite format 3.
|     16: 10 00 01 01 00 40 20 20 00 00 00 00 00 00 00 04   .....@  ........
|     32: 00 00 00 00 00 00 00 00 00 00 00 04 00 00 00 04   ................
|     48: 00 00 00 00 00 00 00 00 00 00 00 01 00 00 00 00   ................
|     96: 00 00 00 00 0d 00 00 00 04 0f 07 00 0f d6 0f aa   ................
|    112: 0f 86 0f 07 00 00 00 00 00 00 00 00 00 00 00 00   ................
|   3840: 00 00 00 00 00 00 00 7d 04 07 1b 11 11 08 81 63   ...............c
|   3856: 74 72 69 67 67 65 72 72 31 74 31 43 52 45 41 54   triggerr1t1CREAT
|   3872: 45 20 54 52 49 47 47 45 52 20 72 31 20 41 46 54   E TRIGGER r1 AFT
|   3888: 45 52 20 49 4e 53 45 52 54 20 4f 4e 20 74 31 20   ER INSERT ON t1 
|   3904: 42 45 47 49 4e 0a 20 20 55 50 44 41 54 45 20 74   BEGIN.  UPDATE t
|   3920: 31 20 53 45 54 20 28 63 2c 64 29 3d 28 28 53 45   1 SET (c,d)=((SE
|   3936: 4c 45 43 54 20 31 20 46 52 4f 4d 20 74 31 20 4a   LECT 1 FROM t1 J
|   3952: 4f 49 4e 20 74 33 20 4f 4e 20 62 3d 79 29 2c 31   OIN t3 ON b=y),1
|   3968: 29 3b 0a 45 4e 44 22 03 06 17 11 11 01 31 74 61   );.END.......1ta
|   3984: 62 6c 65 74 33 74 33 04 43 52 45 41 54 45 20 54   blet3t3.CREATE T
|   4000: 41 42 4c 45 20 74 33 28 79 29 2a 02 06 17 11 11   ABLE t3(y)*.....
|   4016: 01 41 74 61 62 6c 65 74 32 74 32 03 43 52 45 41   .Atablet2t2.CREA
|   4032: 54 45 20 54 41 42 4c 45 20 74 32 28 61 2c 62 2c   TE TABLE t2(a,b,
|   4048: 63 2c 64 2c 78 29 28 01 06 17 11 11 01 3d 74 61   c,d,x)(......=ta
|   4064: 62 6c 65 74 31 74 31 02 43 52 45 41 54 45 20 54   blet1t1.CREATE T
|   4080: 41 42 4c 45 20 74 31 28 61 2c 62 2c 63 2c 64 29   ABLE t1(a,b,c,d)
| page 2 offset 4096
|      0: 0d 00 00 00 00 10 00 00 00 00 00 00 00 00 00 00   ................
| page 3 offset 8192
|      0: 0d 00 00 00 00 10 00 00 00 00 00 00 00 00 00 00   ................
| page 4 offset 12288
|      0: 0d 00 00 00 00 10 00 00 00 00 00 00 00 00 00 00   ................
| end altertable005.txt.db
.testctrl prng_seed 1 db
.testctrl internal_functions
ALTER TABLE t1 RENAME TO t1x;
CREATE TRIGGER r2 AFTER INSERT ON t2 BEGIN
  UPDATE t2 SET (c,d)=((SELECT 1 FROM t1 JOIN t2 
  ON b=(WITH cte1(a) AS (SELECT 1 FROM t3 ORDER BY -1)SELECT y FROM t3,cte1)
                         +(SELECT y+10 FROM t3)),1);
END;
ALTER TABLE t2 RENAME TO t2x;

