.open --hexdb
| size 8192 pagesize 4096 filename altertable004.txt.db
| page 1 offset 0
|      0: 53 51 4c 69 74 65 20 66 6f 72 6d 61 74 20 33 00   SQLite format 3.
|     16: 10 00 01 01 00 40 20 20 00 00 00 00 00 00 00 02   .....@  ........
|     32: 00 00 00 00 00 00 00 00 00 00 00 02 00 00 00 04   ................
|     48: 00 00 00 00 00 00 00 00 00 00 00 01 00 00 00 00   ................
|     96: 00 00 00 00 0d 00 00 00 02 0f 8f 00 0f dc 0f 8f   ................
|   3968: 00 00 00 00 00 00 00 00 00 00 00 00 00 00 00 4b   ...............K
|   3984: 02 07 15 11 11 08 81 05 76 69 65 77 76 32 76 32   ........viewv2v2
|   4000: 43 52 45 41 54 45 20 56 49 45 57 20 76 32 28 62   CREATE VIEW v2(b
|   4016: 29 20 41 53 20 57 49 54 48 20 74 33 20 41 53 20   ) AS WITH t3 AS 
|   4032: 28 53 45 4c 45 43 54 20 62 20 46 52 4f 4d 20 76   (SELECT b FROM v
|   4048: 32 29 20 56 41 4c 55 45 53 28 31 29 22 01 06 17   2) VALUES(1)....
|   4064: 11 11 01 31 74 61 62 6c 65 74 31 74 31 02 43 52   ...1tablet1t1.CR
|   4080: 45 41 54 45 20 54 41 42 4c 45 20 74 31 28 61 29   EATE TABLE t1(a)
| page 2 offset 4096
|      0: 0d 00 00 00 00 10 00 00 00 00 00 00 00 00 00 00   ................
| end altertable004.txt.db
.testctrl prng_seed 1 db
.testctrl internal_functions
CREATE VIEW v3(b) AS WITH t3 AS (SELECT b FROM v3) VALUES(1);
ALTER TABLE t1 RENAME TO t4;
SELECT name FROM sqlite_master ORDER BY name;

