.open --hexdb
| size 12288 pagesize 4096 filename bug001.txt.db
| page 1 offset 0
|      0: 53 51 4c 69 74 65 20 66 6f 72 6d 61 74 20 33 00   SQLite format 3.
|     16: 10 00 01 01 00 40 20 20 00 00 00 00 00 00 00 03   .....@  ........
|     32: 00 00 00 00 00 00 00 00 00 00 00 02 00 00 00 04   ................
|     48: 00 00 00 00 00 00 00 00 00 00 00 01 00 00 00 00   ................
|     96: 00 00 00 00 0d 0f f8 00 03 0f 4b 00 0f a2 0f d3   ..........K.....
|    112: 0f 4b 00 00 00 00 00 00 00 00 00 00 00 00 00 00   .K..............
|   3904: 00 00 00 00 00 00 00 00 00 00 00 55 03 07 15 11   ...........U....
|   3920: 11 08 81 19 76 69 65 77 76 31 76 31 43 52 45 41   ....viewv1v1CREA
|   3936: 54 45 20 56 49 45 57 20 76 31 20 41 53 20 53 45   TE VIEW v1 AS SE
|   3952: 4c 45 43 54 20 6d 61 78 28 61 29 20 41 53 20 6d   LECT max(a) AS m
|   3968: 78 2c 20 6d 69 6e 28 62 29 20 41 53 20 6d 6e 20   x, min(b) AS mn 
|   3984: 46 52 4f 4d 20 74 31 20 47 52 4f 55 50 20 42 59   FROM t1 GROUP BY
|   4000: 20 63 2f 01 06 17 11 11 01 4b 74 61 62 6c 65 74    c/......Ktablet
|   4016: 31 74 31 02 43 52 45 41 54 45 20 54 41 42 4c 45   1t1.CREATE TABLE
|   4032: 20 74 31 28 61 2c 20 62 2c 20 63 20 55 4e 49 51    t1(a, b, c UNIQ
|   4048: 55 45 29 23 02 06 17 37 11 01 00 69 6e 64 65 78   UE)#...7...index
|   4064: 73 71 6c 69 74 65 5f 61 75 74 6f 69 6e 64 65 78   sqlite_autoindex
|   4080: 5f 74 31 5f 31 74 31 03 00 00 00 08 00 00 00 00   _t1_1t1.........
| page 2 offset 4096
|      0: 0d 00 00 00 03 0f e8 00 0f fa 0f f1 0f e8 00 00   ................
|   4064: 00 00 00 00 00 00 00 00 07 03 04 01 01 01 03 03   ................
|   4080: 03 07 02 04 01 01 01 02 02 02 04 01 04 09 09 09   ................
| page 3 offset 8192
|      0: 0a 00 00 00 03 0f f0 00 0f fc 0f f6 0f f0 00 00   ................
|   4080: 05 03 01 01 03 03 05 03 01 01 02 02 03 03 09 09   ................
| end bug001.txt.db
.testctrl prng_seed 1 db
.testctrl internal_functions
SELECT *,'|' FROM v1 AS one, v1 AS two WHERE one.mx=1;
SELECT -char(0) AS x WHERE -x & (x||x) * x;

