.open --hexdb
| size 4096 pagesize 512 filename corrupt051.txt.db
| page 1 offset 0
|      0: 53 51 4c 69 74 65 20 66 6f 72 6d 61 74 20 33 00   SQLite format 3.
|     16: 02 00 01 01 00 40 20 20 00 ff ff ff ff 00 00 07   .....@  ........
|     32: 00 00 00 00 00 00 00 00 00 00 00 08 00 00 00 04   ................
|     48: 00 00 00 00 00 00 00 05 00 eb 00 01 00 00 00 00   ................
|     80: 00 00 00 00 00 00 00 00 00 00 00 00 00 00 00 0c   ................
|     96: 00 2e 2c 50 0d 00 00 00 06 01 06 00 01 da 01 b0   ..,P............
|    112: 05 56 01 86 01 2a 01 06 00 00 00 00 00 00 00 00   .V...*..........
|    128: 00 ff 00 00 ff ff ff e1 00 00 00 00 00 00 00 00   ................
|    144: 00 00 00 00 00 00 00 00 00 01 00 00 00 00 00 00   ................
|    160: 00 00 00 00 00 00 00 00 f2 00 00 00 00 00 00 00   ................
|    176: 00 00 f9 ff ff ff ff ff ff ff 00 00 00 00 00 fb   ................
|    208: 00 00 00 00 00 00 00 00 1e 00 00 00 fe 00 00 00   ................
|    224: 00 00 00 00 00 00 00 00 00 00 00 00 00 00 ca 00   ................
|    256: 00 00 00 00 ef ff 22 07 06 17 11 11 01 31 74 61   .............1ta
|    272: 62 6c 65 74 38 38 74 04 43 52 45 41 54 45 20 54   blet88t.CREATE T
|    288: 41 42 4c 45 20 74 34 28 87 29 2a 06 06 17 13 11   ABLE t4(.)*.....
|    304: 01 3f 69 4f 64 65 78 74 33 78 74 33 05 43 52 45   .?iOdext3xt3.CRE
|    320: 41 54 45 20 49 6e 44 45 58 20 74 33 78 20 4f 4e   ATE InDEX t3x ON
|    336: 20 74 33 28 78 29 2e 04 06 17 15 11 01 45 69 6e    t3(x).......Ein
|    352: 64 65 2e 74 32 63 64 74 3d 05 43 52 45 41 54 45   de.t2cdt=.CREATE
|    368: 20 49 4e 44 45 58 20 74 32 63 64 20 4f 4e 20 74    INDEX t2cd ON t
|    384: 32 28 0a 0c 44 29 28 05 06 17 11 11 01 3d 74 61   2(..D)(......=ta
|    400: 62 6c 65 d4 33 74 33 04 43 52 45 41 54 45 20 54   ble.3t3.CREATE T
|    416: 41 42 4c 45 20 74 33 28 63 2c 78 2c 65 2c 66 29   ABLE t3(c,x,e,f)
|    432: 28 02 06 17 11 11 01 3d 74 61 62 6c 65 74 32 74   (......=tablet2t
|    448: 32 03 43 52 45 41 54 45 20 54 41 42 4c 45 20 74   2.CREATE TABLE t
|    464: 32 28 63 2c 64 2c 65 2c 66 29 24 01 06 17 11 11   2(c,d,e,f)$.....
|    480: 01 35 74 60 62 6c 65 74 31 74 31 02 43 52 45 41   .5t`blet1t1.CREA
|    496: 54 45 20 54 41 42 4c 45 20 74 30 28 61 2c 62 29   TE TABLE t0(a,b)
| page 2 offset 512
|      0: 0d 00 ff 11 04 01 cf 00 01 fa 01 f3 01 de 01 cf   ................
|     32: 00 00 08 00 00 00 00 00 00 00 00 00 00 00 00 13   ................
|     48: 00 00 00 00 00 00 00 00 00 00 00 01 00 20 00 00   ............. ..
|     64: 00 00 00 00 00 00 f8 ff ff ff 00 00 00 00 00 00   ................
|    160: 01 64 00 00 00 00 00 80 ff ff ff 00 00 00 00 00   .d..............
|    176: 00 00 00 00 00 00 00 00 1f 00 00 00 00 00 00 03   ................
|    192: 00 00 40 00 00 00 00 00 00 00 00 00 00 00 00 00   ..@.............
|    288: 00 00 00 00 00 00 ff ff ff e9 00 00 00 00 00 00   ................
|    336: 01 00 00 ff ff 00 00 00 00 00 00 00 00 00 00 00   ................
|    368: 20 00 00 00 00 00 00 00 00 00 00 00 00 00 00 00    ...............
|    384: 00 de ff 00 00 00 00 00 00 00 00 00 00 00 00 00   ................
|    464: 00 00 00 00 00 13 76 65 6e 65 69 67 68 74 13 03   ......veneight..
|    480: 03 40 07 07 14 00 54 45 20 49 4e 44 45 58 20 74   .@....TE INDEX t
|    496: 32 63 64 20 4f 4e 20 74 32 28 0a 0c 44 09 01 02   2cd ON t2(..D...
| page 3 offset 1024
|      0: 0d 00 00 00 48 01 54 00 01 f7 01 ec 01 c5 01 aa   ....H.T.........
|     16: 30 34 28 87 29 2a 06 06 17 13 11 01 3f 69 4f 64   04(.)*......?iOd
|     32: 65 79 74 33 78 74 33 6d 6d 6d 6d 6d 6d 7d 6d 6d   eyt3xt3mmmmmm.mm
|     48: 6d 41 6d 6d 6d 6d 6d 6d 6d 6d 6d 6d 6d 6d 6d 6d   mAmmmmmmmmmmmmmm
|     64: 6d 6d 6d 6d 6d 6d 6d 6d 6d 6d 6d 66 6d 6d 6d 6d   mmmmmmmmmmmfmmmm
|     80: 6d 4e 6d 6d 6d 6d 6d 6d 6d 6d 6d 6d 6d 6d 6d 6d   mNmmmmmmmmmmmmmm
|     96: 6d 6d 6d 6d 6d 6d 6d 6d 6d 6d 6d 6d 6d 6d 6d 6d   mmmmmmmmmmmmmmmm
|    112: 6d 6d 6d 6d 6d 6d 6d 6d 6d 6d 6d 6d 6d 6d 6d 6d   mmmmmmmmmmmmmmmm
|    128: 6d 6d 6d 6d 6d 00 00 00 00 00 00 00 00 00 00 00   mmmmm...........
|    160: 80 00 00 00 00 00 00 03 00 00 00 ff e4 00 00 00   ................
|    208: 00 00 00 00 00 00 00 00 00 00 00 00 00 c5 00 00   ................
|    240: 14 00 00 00 00 00 00 00 00 00 00 00 08 00 00 00   ................
|    256: 00 00 00 00 00 00 00 00 00 00 00 00 00 00 0f ec   ................
|    304: 00 00 00 00 19 08 05 17 17 17 17 65 69 67 68 74   ...........eight
|    320: 65 69 67 68 74 73 65 00 00 00 00 00 00 00 00 00   eightse.........
|    336: 00 00 00 00 19 08 05 17 17 17 17 65 69 67 68 74   ...........eight
|    352: 65 69 67 68 74 73 65 01 65 6e 00 00 00 10 25 07   eightse.en....%.
|    368: 07 6e 25 07 07 07 40 18 00 00 00 00 00 00 40 18   .n%...@.......@.
|    384: 00 00 00 00 00 00 40 14 00 00 00 00 00 00 40 14   ......@.......@.
|    400: 00 00 00 00 00 00 09 06 05 01 01 01 01 04 04 03   ................
|    416: 03 07 05 05 01 01 09 09 02 02 19 04 05 17 17 17   ................
|    432: 17 10 65 76 65 6e 65 69 67 68 74 65 69 67 68 74   ..eveneighteight
|    448: 73 65 76 65 6e 25 03 05 07 07 07 07 40 14 00 00   seven%......@...
|    464: 00 00 00 00 40 18 00 00 00 00 00 00 40 18 00 00   ....@.......@...
|    480: 00 00 00 00 40 14 00 00 00 00 e8 f6 09 02 00 00   ....@...........
|    496: 00 00 00 00 00 00 00 00 00 00 64 00 00 00 00 02   ..........d.....
| page 4 offset 1536
|      0: 0d 00 00 00 00 02 00 00 00 00 00 00 00 00 00 fa   ................
|     16: 1f a1 07 00 00 00 00 00 01 00 00 00 00 00 00 00   ................
|     32: 00 00 00 00 00 00 00 00 00 00 00 00 00 73 69 6d   .............sim
|     48: 70 6c 65 00 00 00 00 00 00 00 00 00 00 00 00 00   ple.............
|     80: 00 00 00 00 00 10 00 00 00 00 00 00 01 00 00 00   ................
|     96: 00 00 00 00 00 00 00 00 00 00 00 00 00 fe ff ff   ................
|    112: ff 00 00 00 00 00 00 00 00 00 00 00 4a 00 00 00   ............J...
|    144: 00 00 00 00 00 00 00 00 00 00 00 01 00 00 00 00   ................
|    176: e5 ff ff ff 00 00 00 00 00 00 00 00 00 00 00 00   ................
|    208: 00 00 00 00 00 00 00 00 00 00 36 36 00 00 00 00   ..........66....
|    240: 00 00 00 6c 00 00 00 00 00 00 00 00 00 00 00 00   ...l............
|    256: 00 80 00 00 00 00 00 00 00 00 00 00 00 00 00 00   ................
|    320: 00 00 00 00 00 00 00 00 01 00 00 02 00 80 00 00   ................
|    336: 00 00 00 00 00 19 08 05 17 17 17 17 65 69 67 68   ............eigh
|    352: 74 65 69 67 68 74 73 65 76 65 6e 73 65 76 65 6e   teightsevenseven
|    368: 25 07 05 07 07 07 07 40 18 00 00 00 00 00 00 40   %......@.......@
|    384: 18 00 20 00 00 00 40 00 14 00 00 00 00 00 00 40   .. ...@........@
|    400: 14 00 00 00 00 00 1c 09 06 05 01 01 01 01 04 04   ................
|    416: 03 03 07 05 05 01 01 00 00 00 00 00 00 00 00 00   ................
|    448: 74 73 65 76 65 6e 00 80 ff ff 00 00 00 00 00 aa   tseven..........
|    464: 00 9e 00 00 00 00 00 00 00 00 00 00 00 70 6f 72   .............por
|    480: 74 65 72 00 00 00 00 00 00 00 00 00 00 00 00 00   ter.............
|    496: 00 00 00 00 00 00 29 00 00 00 00 00 00 00 00 00   ......).........
| page 5 offset 2048
|      0: 0a 00 00 00 08 01 96 00 01 fa 01 c5 01 f2 01 bc   ................
|     16: 01 dc 01 a6 01 96 01 cc 00 00 00 00 00 00 00 00   ................
|    112: 00 00 00 09 00 00 00 00 01 00 00 00 00 00 00 00   ................
|    160: 74 72 69 67 62 ff ff ff ff fc 00 00 00 00 00 00   trigb...........
|    240: 00 00 00 00 00 00 00 00 00 00 ff 00 00 00 00 00   ................
|    256: e5 ff ff ff 00 00 54 00 00 00 00 00 00 00 00 00   ......T.........
|    304: 00 00 00 00 00 00 09 00 00 00 00 00 00 00 00 00   ................
|    400: 00 00 00 00 00 09 00 00 00 00 01 00 00 00 00 00   ................
|    448: 00 00 74 72 69 67 62 ff ff ff ff fc 00 00 07 05   ..trigb.........
|    464: 05 01 01 09 09 02 02 19 04 05 17 17 17 17 10 65   ...............e
|    480: 76 65 6e 65 69 67 68 74 65 40 18 00 00 00 00 01   veneighte@......
|    496: 02 03 07 04 01 01 01 03 04 02 05 04 09 01 ff fd   ................
| end corrupt051.txt.db
.testctrl prng_seed 1 db
.testctrl internal_functions
INSERT INTO t3 SELECT * FROM t2;

