.open --hexdb
| size 8192 pagesize 512 filename corrupt007.txt.db
| page 1 offset 0
|      0: 53 51 4c 69 74 65 20 66 6f 72 6d 61 74 20 33 00   SQLite format 3.
|     16: 02 00 01 01 00 40 20 20 00 00 00 1e 00 00 00 0c   .....@  ........
|     32: 00 00 00 0c 00 00 00 07 00 00 00 08 00 00 00 04   ................
|     48: 00 00 00 00 00 00 00 00 00 00 00 01 00 00 00 00   ................
|     80: 00 00 00 00 00 00 00 00 00 00 00 00 00 00 00 1e   ................
|     96: 00 2d e6 0a 0d 01 99 00 02 01 73 00 01 bf 01 73   .-........s....s
|    112: 01 73 01 6f 00 00 00 00 00 00 00 00 00 00 00 00   .s.o............
|    368: 04 01 04 24 05 06 17 11 11 01 35 74 61 62 6c 65   ...$......5table
|    384: 74 78 74 78 02 43 52 45 41 54 45 20 54 41 42 4c   txtx.CREATE TABL
|    400: 45 20 74 78 28 78 2c 79 29 00 00 00 26 00 00 00   E tx(x,y)...&...
|    432: 00 00 00 00 00 00 00 00 00 00 00 00 00 00 00 3f   ...............?
|    448: 02 06 17 11 11 01 6b 74 61 62 6c 65 74 32 74 32   ......ktablet2t2
|    464: 03 43 52 45 41 54 45 20 54 41 42 4c 45 20 74 32   .CREATE TABLE t2
|    480: 28 61 2c 20 62 20 50 52 49 4d 41 52 59 20 4b 45   (a, b PRIMARY KE
|    496: 59 29 20 57 49 54 48 4f 55 54 20 52 4f 57 49 44   Y) WITHOUT ROWID
| page 2 offset 512
|      0: 0d 00 00 00 01 01 f3 00 01 f3 00 00 00 00 00 00   ................
|    496: 00 00 00 0b 01 03 09 06 80 00 00 00 00 00 00 00   ................
| page 3 offset 1024
|      0: 02 00 00 00 01 01 f3 00 00 00 00 08 01 f3 01 d8   ................
|     16: 01 d1 01 cb 01 c6 01 44 01 c1 01 bb 01 b3 01 ab   .......D........
|     32: 01 a2 01 97 01 8a 01 85 01 3b 01 32 01 29 01 20   .........;.2.). 
|     48: 01 17 01 0e 01 05 00 fc 00 f3 00 ea 00 e1 00 d8   ................
|     64: 00 cf 00 c6 00 bd 00 b4 00 ab 00 a2 00 99 00 90   ................
|     80: 00 87 00 7e 00 75 00 6c 00 63 01 66 01 80 01 51   ...~.u.l.c.f...Q
|     96: 00 00 00 08 03 15 01 30 78 32 63 2c 08 03 15 01   .......0x2c,....
|    112: 30 78 32 62 2b 08 03 15 01 30 78 32 61 2a 08 03   0x2b+....0x2a*..
|    128: 15 01 30 78 32 39 29 08 03 15 01 30 78 32 38 28   ..0x29)....0x28(
|    144: 08 03 15 01 30 78 32 37 27 08 03 15 01 30 78 32   ....0x27'....0x2
|    160: 36 26 08 03 15 01 30 78 32 35 25 08 03 15 01 30   6&....0x25%....0
|    176: 78 32 34 24 08 03 15 01 30 78 32 33 23 08 03 15   x24$....0x23#...
|    192: 01 30 78 32 32 22 08 03 15 01 30 78 32 31 21 08   .0x22.....0x21!.
|    208: 03 15 01 30 78 32 30 20 08 03 15 01 30 78 31 66   ...0x20 ....0x1f
|    224: 1f 08 03 15 01 30 78 31 65 1e 08 03 15 01 30 78   .....0x1e.....0x
|    240: 31 64 1d 08 03 15 01 30 78 31 63 1c 08 03 15 01   1d.....0x1c.....
|    256: 30 78 31 62 1b 08 03 15 01 30 78 31 61 1a 08 03   0x1b.....0x1a...
|    272: 15 01 30 78 31 39 19 08 03 15 01 30 78 31 38 18   ..0x19.....0x18.
|    288: 08 03 15 01 30 78 31 37 17 08 03 15 01 30 78 31   ....0x17.....0x1
|    304: 36 16 08 03 15 01 30 78 31 35 15 08 03 15 01 30   6.....0x15.....0
|    320: 78 31 34 14 0c 03 07 01 3f d0 00 00 00 00 00 00   x14.....?.......
|    336: 13 14 03 2c 01 25 ff e3 c1 f5 d4 a2 0f 0d fc be   ...,.%..........
|    352: 95 1e be 4a 16 12 19 03 37 01 6f 6c 79 6d 70 69   ...J....7.olympi
|    368: 63 2d 62 61 6e 61 6e 61 2d 76 69 73 69 6f 6e 11   c-banana-vision.
|    384: 04 03 0c 01 10 04 03 0d 01 0f 0c 03 06 01 7f ff   ................
|    400: ff ff ff ff ff ff 0e 0a 03 05 01 7f ff ff ff ff   ................
|    416: ff 0d 08 03 04 01 7f ff ff ff 0c 07 03 03 01 7f   ................
|    432: ff ff 0b 07 03 03 01 00 93 2d 0a 05 03 01 01 7f   .........-......
|    448: 09 04 03 09 01 08 04 03 08 01 07 05 03 01 01 80   ................
|    464: 06 06 03 02 01 80 00 05 07 03 03 01 80 00 00 04   ................
|    480: 08 03 04 01 80 00 00 00 03 0a 03 05 01 80 00 00   ................
|    496: 00 00 00 00 00 00 07 08 03 15 01 30 78 31 63 1c   ...........0x1c.
| page 7 offset 3072
|      0: 0a 01 51 00 18 00 fc 00 01 f4 01 e0 01 e0 01 d8   ..Q.............
|     16: 01 d1 01 cb 01 c6 01 44 01 c1 01 bb 01 b3 01 ab   .......D........
|     32: 01 a2 01 97 01 8a 01 85 01 3b 01 32 01 29 01 20   .........;.2.). 
|     48: 01 17 01 0e 01 05 00 fc 00 f3 00 ea 00 e1 00 d8   ................
|     64: 00 cf 00 c6 00 bd 00 b4 00 ab 00 a2 00 99 00 90   ................
|     80: 00 87 00 7e 00 75 00 6c 00 63 01 66 01 80 01 51   ...~.u.l.c.f...Q
|     96: 00 00 00 08 03 15 01 30 78 32 63 2c 08 03 15 01   .......0x2c,....
|    112: 30 78 32 62 2b 08 03 15 01 30 78 32 61 2a 08 03   0x2b+....0x2a*..
|    128: 15 01 30 78 32 39 29 08 03 15 01 30 78 32 38 28   ..0x29)....0x28(
|    144: 08 03 05 01 30 78 32 37 27 08 03 15 01 30 78 32   ....0x27'....0x2
|    160: 36 26 08 03 15 01 30 78 32 35 25 08 03 15 01 30   6&....0x25%....0
|    176: 78 32 34 24 08 03 15 01 30 78 32 33 23 08 03 15   x24$....0x23#...
|    192: 01 30 78 32 32 22 08 03 15 01 30 78 32 31 21 08   .0x22.....0x21!.
|    208: 03 15 01 30 78 32 30 20 08 03 15 01 30 78 31 66   ...0x20 ....0x1f
|    224: 1f 08 03 15 01 30 78 31 65 1e 08 03 15 01 30 78   .....0x1e.....0x
|    240: 31 64 1d 08 03 15 01 30 78 31 63 1c 08 03 15 01   1d.....0x1c.....
|    256: 30 78 31 62 1b 08 03 15 01 30 78 31 61 1a 08 03   0x1b.....0x1a...
|    272: 15 01 30 78 31 39 19 08 03 15 01 30 78 31 38 18   ..0x19.....0x18.
|    288: 08 03 15 01 30 78 31 37 17 08 03 15 01 30 78 31   ....0x17.....0x1
|    304: 36 16 08 03 15 01 30 78 31 35 15 08 03 15 01 30   6.....0x15.....0
|    320: 78 31 34 14 0c 03 07 01 3f d0 00 00 00 00 00 00   x14.....?.......
|    336: 13 00 00 00 34 25 ff e3 c1 f5 d4 a2 0f 0d fc be   ....4%..........
|    352: 95 1e be 4a 16 12 00 00 00 1f 6f 6c 79 6d 70 69   ...J......olympi
|    368: 63 2d 62 61 6e 61 6e 61 2d 76 69 73 69 6f 6e 11   c-banana-vision.
|    384: 04 03 0c 01 10 04 03 0d 01 0f 0c 03 06 01 7f ff   ................
|    400: ff ff ff ff ff ff 0e 0a 03 05 01 7f ff ff ff ff   ................
|    416: ff 0d 08 03 04 01 7f ff ff ff 0c 07 03 03 01 7f   ................
|    432: ff ff 0b 07 03 03 01 00 93 2d 0a 05 03 01 01 7f   .........-......
|    448: 09 04 03 09 01 08 04 03 08 01 07 05 03 01 01 80   ................
|    464: 06 06 03 02 01 80 00 05 07 03 03 01 f0 f0 f0 f0   ................
|    480: f0 f0 f0 f0 f0 f0 f0 f0 03 0a 03 05 01 80 00 00   ................
|    496: 00 00 00 02 0b 03 06 09 80 00 00 00 00 00 00 00   ................
| page 8 offset 3584
|      0: 0a 00 00 00 19 01 06 00 01 f7 01 ee 01 e5 01 dc   ................
|     16: 01 d3 01 ca 01 c1 01 b8 01 af 01 a6 01 9d 01 94   ................
|     32: 01 8b 01 82 01 79 01 70 01 67 01 2a 01 21 01 18   .....y.p.g.*.!..
|     48: 01 0f 01 06 01 4d 01 48 01 33 00 00 00 00 00 00   .....M.H.3......
|    256: 00 00 00 00 00 00 08 03 15 01 30 78 33 32 32 08   ..........0x322.
|    272: 03 15 01 30 78 33 31 31 08 03 15 01 30 78 33 30   ...0x311....0x30
|    288: 30 08 03 15 01 30 78 32 66 2f 08 03 15 01 30 78   0....0x2f/....0x
|    304: 32 65 2e 14 03 2c 01 25 ff e3 c1 f5 d4 a2 0f 0d   2e...,.%........
|    320: fc be 95 1e be 4a 16 12 04 03 0c 01 10 19 03 37   .....J.........7
|    336: 01 6f 6c 79 6d 70 69 63 2d 62 61 6e 61 6e 61 2d   .olympic-banana-
|    352: 76 69 73 69 6f 6e 11 08 03 15 01 30 78 32 64 2d   vision.....0x2d-
|    368: 08 03 15 01 30 78 32 63 2c 08 03 15 01 30 78 32   ....0x2c,....0x2
|    384: 62 2b 08 03 15 01 30 78 32 61 2a 08 03 15 01 30   b+....0x2a*....0
|    400: 78 32 39 29 08 03 15 01 30 78 32 38 28 08 03 15   x29)....0x28(...
|    416: 01 30 78 32 37 27 08 03 15 01 30 78 32 36 26 08   .0x27'....0x26&.
|    432: 03 15 01 30 78 32 35 25 08 03 15 01 30 78 32 34   ...0x25%....0x24
|    448: 24 08 03 15 01 30 78 32 33 23 08 03 15 01 30 78   $....0x23#....0x
|    464: 32 32 22 08 03 15 01 30 78 32 31 21 08 03 15 01   22.....0x21!....
|    480: 30 78 32 30 20 08 03 15 01 30 78 31 66 1f 08 03   0x20 ....0x1f...
|    496: 15 01 30 78 31 65 1e 08 03 15 01 30 78 31 64 1d   ..0x1e.....0x1d.
| page 12 offset 5632
|      0: 00 00 00 00 00 00 00 06 00 00 00 04 00 00 00 05   ................
|     16: 00 00 00 0b 00 00 00 0a 00 00 00 09 00 00 00 06   ................
| end corrupt007.txt.db
.testctrl prng_seed 1 db
.testctrl internal_functions
INSERT INTO t2 SELECT * FROM tx;
PRAGMA integrity_check;

