.open --hexdb
| size 12288 pagesize 4096 filename corrupt073.txt.db
| page 1 offset 0
|      0: 53 51 4c 69 74 65 20 66 6f 72 6d 61 74 20 33 00   SQLite format 3.
|     16: 10 00 01 01 00 40 20 20 00 00 00 03 00 00 00 03   .....@  ........
|     32: 00 00 00 00 00 00 00 00 00 00 00 02 00 00 00 04   ................
|     48: 00 00 00 00 00 00 00 00 00 00 00 01 00 00 00 00   ................
|     80: 00 00 00 00 00 00 00 00 00 00 00 00 00 00 00 03   ................
|     96: 00 2e 3f d8 0d 00 00 00 02 0f 4f 00 0f 86 0f 4f   ..?.......O....O
|   3904: 00 00 00 00 00 00 00 00 00 00 00 00 00 00 00 35   ...............5
|   3920: 02 06 17 15 11 01 53 69 6e 64 65 78 74 31 62 63   ......Sindext1bc
|   3936: 74 31 03 43 52 45 41 54 45 20 55 4e 49 51 55 45   t1.CREATE UNIQUE
|   3952: 20 49 4e 44 45 58 20 74 31 62 63 20 4f 4e 20 74    INDEX t1bc ON t
|   3968: 31 28 62 2c 63 29 78 01 07 17 11 11 01 81 5b 74   1(b,c)x.......[t
|   3984: 61 62 6c 65 74 31 74 31 02 43 52 45 41 54 45 20   ablet1t1.CREATE 
|   4000: 54 41 42 4c 45 20 74 31 28 0a 20 20 61 20 49 4e   TABLE t1(.  a IN
|   4016: 54 45 47 45 52 20 50 52 49 4d 41 52 59 20 4b 45   TEGER PRIMARY KE
|   4032: 59 2c 0a 20 20 62 20 49 4e 54 45 47 45 52 2c 0a   Y,.  b INTEGER,.
|   4048: 20 20 63 20 54 45 58 54 2c 0a 20 20 43 48 45 43     c TEXT,.  CHEC
|   4064: 4b 28 20 41 31 2e 62 3e 3d 30 20 41 4e 44 20 6d   K( A1.b>=0 AND m
|   4080: 61 69 6e 2e 74 31 2e 62 3c 3d 39 39 20 29 0a 29   ain.t1.b<=99 ).)
| page 2 offset 4096
|      0: 0d 00 00 00 00 10 00 00 00 00 00 00 00 00 00 00   ................
| page 3 offset 8192
|      0: 0a 00 00 00 00 10 00 00 00 00 00 00 00 00 00 00   ................
| end corrupt073.txt.db
.testctrl prng_seed 1 db
.testctrl internal_functions
PRAGMA writable_schema=on;
INSERT INTO t1(b) VALUES(1),(2),('xyzzy'-2);
SELECT b FROM t1;

