.open --hexdb
| size 4096 pagesize 512 filename corrupt039.txt.db
| page 1 offset 0
|      0: 53 51 4c 69 74 65 20 66 6f 72 6d 61 74 20 33 00   SQLite format 3.
|     16: 02 00 01 01 00 40 20 20 00 00 00 1b 00 00 00 07   .....@  ........
|     32: 00 00 00 00 00 00 00 00 00 00 00 04 00 00 00 04   ................
|     48: 00 00 00 00 00 00 00 04 00 00 00 02 00 00 00 00   ................
|     80: 00 00 00 00 00 00 00 00 00 00 00 00 00 00 00 1b   ................
|     96: 00 2d e6 0a 0d 00 00 00 02 01 43 00 01 43 01 bd   .-........C..C..
|    112: 01 00 00 00 00 00 00 00 00 00 00 00 00 00 00 00   ................
|    256: 41 03 06 21 15 15 01 5d 74 00 61 00 62 00 6c 00   A..!...]t.a.b.l.
|    272: 65 00 74 00 33 00 74 00 33 00 05 43 00 52 00 45   e.t.3.t.3..C.R.E
|    288: 00 41 00 54 00 45 00 20 00 54 00 41 00 42 00 4c   .A.T.E. .T.A.B.L
|    304: 00 45 00 20 00 74 00 33 00 28 00 61 00 2c 00 62   .E. .t.3.(.a.,.b
|    320: 00 29 00 78 02 07 21 15 15 01 81 49 74 00 61 00   .).x..!....It.a.
|    336: 62 00 6c 00 65 00 74 00 32 00 74 00 32 00 04 43   b.l.e.t.2.t.2..C
|    352: 00 52 00 45 00 41 00 54 00 45 00 20 00 54 00 41   .R.E.A.T.E. .T.A
|    368: 00 42 00 4c 00 45 00 20 00 74 00 32 00 28 00 61   .B.L.E. .t.2.(.a
|    384: 00 2c 00 20 00 62 00 20 00 50 00 52 00 49 00 4d   .,. .b. .P.R.I.M
|    400: 00 41 00 52 00 59 00 20 00 4b 00 45 00 59 00 29   .A.R.Y. .K.E.Y.)
|    416: 00 20 00 57 00 49 00 54 00 48 00 4f 00 55 00 54   . .W.I.T.H.O.U.T
|    432: 00 20 00 52 00 4f 00 57 00 49 00 44 00 41 03 06   . .R.O.W.I.D.A..
|    448: 21 15 15 01 5d 74 00 61 00 62 00 6c 00 65 00 74   !...]t.a.b.l.e.t
|    464: 00 33 00 74 00 33 00 03 43 00 52 00 45 00 41 00   .3.t.3..C.R.E.A.
|    480: 54 00 45 00 20 00 54 00 41 00 42 00 4c 00 45 00   T.E. .T.A.B.L.E.
|    496: 20 00 74 00 33 00 28 00 61 00 2c 00 62 00 29 00    .t.3.(.a.,.b.).
| page 2 offset 512
|      0: 01 00 00 00 00 01 00 00 00 00 05 00 00 00 04 03   ................
|     16: 00 00 00 03 05 00 00 00 04 05 00 00 00 04 05 00   ................
|     32: 00 00 04 03 00 00 00 03 00 00 00 00 00 00 00 00   ................
| page 5 offset 2048
|      0: 0a 00 00 00 30 00 7f 00 01 f3 01 e6 01 d9 01 cc   ....0...........
|     16: 01 bf 01 b2 01 a5 01 98 01 8b 01 7e 01 71 01 1b   ...........~.q..
|     32: 01 0e 01 01 00 f4 00 e7 00 da 00 cd 00 c0 00 b3   ................
|     48: 00 a6 00 99 00 8c 00 7f 01 42 01 3d 01 28 00 00   .........B.=.(..
|    112: 00 00 00 00 00 00 00 00 00 00 00 00 00 00 00 0c   ................
|    128: 03 1d 01 30 00 78 00 33 00 32 00 32 0c 03 1d 01   ...0.x.3.2.2....
|    144: 30 00 78 00 33 00 31 00 31 0c 03 1d 01 30 00 78   0.x.3.1.1....0.x
|    160: 00 33 00 30 00 30 0c 03 1d 01 30 00 78 00 32 00   .3.0.0....0.x.2.
|    176: 66 00 2f 0c 03 1d 01 30 00 78 00 32 00 65 00 2e   f./....0.x.2.e..
|    192: 0c 03 1d 01 30 00 78 00 32 00 64 00 2d 0c 03 1d   ....0.x.2.d.-...
|    208: 01 30 00 78 00 32 00 63 00 2c 0c 03 1d 01 30 00   .0.x.2.c.,....0.
|    224: 78 00 32 00 62 00 2b 0c 03 1d 01 30 00 78 00 32   x.2.b.+....0.x.2
|    240: 00 61 00 2a 0c 03 1d 01 30 00 78 00 32 00 39 00   .a.*....0.x.2.9.
|    256: 29 0c 03 1d 01 30 00 78 00 32 00 38 00 28 0c 03   )....0.x.2.8.(..
|    272: 1d 01 30 00 78 00 32 00 37 00 27 0c 03 1d 01 30   ..0.x.2.7.'....0
|    288: 00 78 00 32 00 36 00 26 14 03 2c 01 25 ff e3 c1   .x.2.6.&..,.%...
|    304: f5 d4 a2 0f 0d fc be 95 1e be 4a 16 12 04 03 0c   ..........J.....
|    320: 01 10 2e 03 61 01 6f 00 6c 00 79 00 6d 00 70 00   ....a.o.l.y.m.p.
|    336: 69 00 63 00 2d 00 62 00 61 00 6e 00 61 00 6e 00   i.c.-.b.a.n.a.n.
|    352: 61 00 2d 00 76 00 69 00 73 00 69 00 6f 00 6e 00   a.-.v.i.s.i.o.n.
|    368: 11 0c 03 1d 01 30 00 78 00 32 00 35 00 25 0c 03   .....0.x.2.5.%..
|    384: 1d 01 30 00 78 00 32 00 34 00 24 0c 03 1d 01 30   ..0.x.2.4.$....0
|    400: 00 78 00 32 00 33 00 23 0c 03 1d 01 30 00 78 00   .x.2.3.#....0.x.
|    416: 32 00 32 00 22 0c 03 1d 01 30 00 78 00 32 00 31   2.2......0.x.2.1
|    432: 00 21 0c 03 1d 01 30 00 78 00 32 00 30 00 20 0c   .!....0.x.2.0. .
|    448: 03 1d 01 30 00 78 00 31 00 66 00 1f 0c 03 1d 01   ...0.x.1.f......
|    464: 30 00 78 00 31 00 65 00 1e 0c 03 1d 01 30 00 78   0.x.1.e......0.x
|    480: 00 31 00 64 00 1d 0c 03 1d 01 30 00 78 00 31 00   .1.d......0.x.1.
|    496: 63 00 1c 7f 00 1d 01 30 00 78 00 31 00 62 00 1b   c......0.x.1.b..
| end corrupt039.txt.db
.testctrl prng_seed 1 db
.testctrl internal_functions
CREATE TABLE tx(x,y);

