.open --hexdb
| size 4096 pagesize 512 filename corrupt038.txt.db
| page 1 offset 0
|      0: 53 51 4c 69 74 65 20 66 6f 72 6d 61 74 20 33 00   SQLite format 3.
|     16: 02 00 01 01 00 40 20 20 00 ff ff ff ff 00 00 07   .....@  ........
|     32: 00 00 00 00 00 00 00 00 00 00 00 16 00 00 00 04   ................
|     48: 00 00 00 00 00 00 00 02 a2 00 00 01 00 00 00 00   ................
|     80: 00 00 00 60 00 00 00 00 00 00 00 00 00 00 00 0c   ...`............
|     96: 00 2e 2c 50 0d 00 00 00 06 01 06 00 01 da 01 b0   ..,P............
|    112: 01 56 01 86 01 2a 01 06 d6 00 00 00 00 00 00 00   .V...*..........
|    128: 00 ff 00 00 ff ff ff e1 00 00 00 00 00 00 00 00   ................
|    144: 00 00 00 00 00 00 00 00 00 01 00 00 00 00 00 00   ................
|    176: 00 00 00 00 00 00 00 00 e9 00 00 00 00 00 00 fb   ................
|    208: 00 00 00 00 00 00 00 00 00 00 00 00 58 00 00 00   ............X...
|    240: 00 00 00 00 00 00 00 00 0b 00 00 00 00 00 00 00   ................
|    256: 00 00 00 00 00 00 22 07 06 17 11 11 01 31 74 00   .............1t.
|    272: 00 00 10 ff ff ff 34 07 43 52 45 41 54 45 20 54   ......4.CREATE T
|    288: 41 42 4c 45 20 74 34 28 78 29 2a 06 06 17 13 11   ABLE t4(x)*.....
|    304: 01 3f 69 33 74 6e 65 78 78 74 64 33 06 43 52 45   .?i3tnexxtd3.CRE
|    320: 41 54 45 20 49 4e 44 45 58 20 74 33 78 20 4f 4e   ATE INDEX t3x ON
|    336: 20 74 33 28 38 29 2e 04 06 17 15 11 01 45 69 6e    t3(8).......Ein
|    352: 64 65 78 74 32 63 64 74 32 05 43 52 45 41 54 45   dext2cdt2.CREATE
|    368: 20 49 4e 44 45 58 20 74 32 63 64 20 4f 4e 20 74    INDEX t2cd ON t
|    384: 32 28 63 2c 64 29 28 05 06 17 01 11 11 3d 74 61   2(c,d)(......=ta
|    400: 3f 6c 65 74 33 74 32 f1 43 52 45 41 54 45 20 54   ?let3t2.CREATE T
|    416: 41 42 4c 45 20 74 33 28 63 2c 78 2c 65 2c 66 29   ABLE t3(c,x,e,f)
|    432: 28 03 06 17 11 11 01 3d 74 61 62 6c 65 74 32 74   (......=tablet2t
|    448: 31 03 43 52 45 41 54 45 20 54 41 42 4c 45 20 74   1.CREATE TABLE t
|    464: 32 28 63 2c 64 2c 65 2c 66 29 24 01 06 17 11 11   2(c,d,e,f)$.....
|    480: 01 35 74 61 62 6c 65 74 31 74 31 02 43 52 45 41   .5tablet1t1.CREA
|    496: 54 45 20 54 41 42 4c 45 20 74 31 28 61 2c 62 29   TE TABLE t1(a,b)
| page 2 offset 512
|      0: 0d 00 00 00 04 01 cf 00 20 fa 01 f3 01 de 01 cf   ........ .......
|     16: 00 00 00 00 00 00 00 00 00 00 00 00 00 e8 03 ff   ................
|     32: f4 00 00 00 00 00 00 00 00 00 00 00 00 00 00 00   ................
|     80: ef 00 00 00 00 00 00 00 00 00 00 00 00 00 00 00   ................
|    112: 00 00 00 00 00 00 00 00 00 00 00 00 00 00 00 5b   ...............[
|    128: 00 00 00 00 00 00 00 00 01 00 00 00 00 00 00 00   ................
|    144: 00 00 10 00 00 00 00 00 00 00 00 00 00 00 00 00   ................
|    160: 00 00 00 00 00 00 00 00 00 c7 00 00 00 00 33 33   ..............33
|    176: 33 33 33 33 33 33 33 33 33 33 33 33 33 00 00 00   3333333333333...
|    240: 00 00 00 00 00 00 00 00 00 00 00 00 00 00 09 00   ................
|    256: 00 00 00 00 00 00 ff ff ff ec 00 00 00 00 00 00   ................
|    304: 00 00 00 00 00 40 00 00 00 00 00 00 00 00 00 f4   .....@..........
|    320: ff ef ff 00 00 00 00 00 00 00 00 00 00 00 00 00   ................
|    336: 00 00 00 00 00 00 01 00 00 00 00 00 00 00 00 00   ................
|    352: 00 00 00 00 00 00 00 00 00 00 00 ff fe 00 00 00   ................
|    400: 00 00 00 00 00 00 00 00 20 00 00 00 00 00 00 00   ........ .......
|    416: 00 00 00 00 00 00 00 00 00 00 00 e7 00 00 00 00   ................
|    432: 00 00 00 00 00 00 00 00 00 00 00 00 00 11 00 00   ................
|    448: 00 00 00 00 00 00 00 00 00 00 00 00 00 00 00 0d   ................
|    464: 04 03 17 17 73 00 00 02 00 65 69 67 68 74 13 03   ....s....eight..
|    480: 03 07 07 40 14 00 00 00 00 00 00 40 18 00 00 00   ...@.......@....
|    496: 00 00 00 00 00 00 00 00 00 00 00 01 03 09 01 02   ................
| page 3 offset 1024
|      0: 0d 00 00 00 2e 01 49 00 00 00 00 00 00 00 00 00   ......I.........
|     16: 00 00 00 00 00 00 00 00 00 22 05 ff ff 05 00 00   ................
|     48: e7 00 00 00 00 00 00 71 71 71 71 71 71 71 71 ff   .......qqqqqqqq.
|     64: e1 00 00 00 00 00 80 00 00 00 00 00 00 00 00 00   ................
|     96: 2a 00 00 00 00 00 00 00 00 00 00 00 00 00 00 00   *...............
|    112: 00 00 16 00 00 00 00 00 00 00 00 02 00 00 00 00   ................
|    144: 00 00 01 00 00 00 00 00 00 00 00 00 00 00 00 00   ................
|    240: 00 0d 00 00 00 00 00 00 00 00 00 00 00 00 00 00   ................
|    256: 00 f8 ff ff ff 00 00 00 00 00 00 00 00 00 00 00   ................
|    304: 00 00 00 00 00 00 00 10 00 00 00 00 00 00 00 00   ................
|    320: 00 00 00 04 03 17 17 73 00 00 02 00 65 69 67 68   .......s....eigh
|    336: 74 13 03 03 07 07 40 14 00 00 00 00 00 00 00 00   t.....@.........
|    432: d8 00 00 00 00 00 00 00 00 00 00 00 00 00 00 00   ................
|    464: 00 00 05 ff ff 05 00 00 00 00 00 00 1c 00 00 00   ................
|    480: 00 00 00 00 00 00 00 00 00 00 00 00 00 00 00 0d   ................
| end corrupt038.txt.db
.testctrl prng_seed 1 db
.testctrl internal_functions
UPDATE t1 SET b=a, a=b WHERE a<b;
ALTER TABLE t1 RENAME TO alkjalkjdfiiiwuer987lkjwer82mx97sf98788s9789s;
INSERT INTO t3 SELECT * FROM t2;

