.open --hexdb
| size 4096 pagesize 1024 filename corrupt006.txt.db
| page 1 offset 0
|      0: 53 51 4c 69 74 65 20 66 6f 72 6d 61 74 20 33 00   SQLite format 3.
|     16: 04 00 01 01 00 40 20 20 00 00 00 02 00 00 00 04   .....@  ........
|     32: 00 00 00 00 00 00 00 00 00 00 00 01 00 00 00 04   ................
|     48: 00 00 00 00 00 00 00 00 00 00 00 01 00 00 00 00   ................
|     80: 00 00 00 00 00 00 00 00 00 00 00 00 00 00 00 02   ................
|     96: 00 2d e6 0b 0d 00 00 00 01 03 dc 00 03 dc 00 00   .-..............
|    976: 00 00 00 00 00 00 00 00 00 00 00 00 22 01 06 17   ................
|    992: 11 11 01 31 74 61 62 6c 65 74 31 74 31 02 43 52   ...1tablet1t1.CR
|   1008: 45 41 54 45 20 54 41 42 4c 45 20 74 31 28 61 29   EATE TABLE t1(a)
| page 2 offset 1024
|      0: 05 00 00 00 01 03 fb 00 00 00 00 01 03 fb 00 00   ................
|    416: 00 00 84 5b 01 03 89 3c 00 00 00 00 00 00 00 00   ...[...<........
|   1008: 00 00 00 00 00 00 00 00 00 00 00 00 00 00 03 01   ................
| page 3 offset 2048
|      0: 0d 00 00 00 01 01 a2 00 01 a2 00 00 00 00 00 00   ................
|    416: 00 00 84 5b 01 03 89 3c 00 00 00 00 00 00 00 00   ...[...<........
| page 4 offset 3072
|      0: 0d 00 00 00 01 01 a2 00 01 a2 00 00 00 00 00 00   ................
|    416: 00 00 84 5b 02 03 89 3c 00 00 00 00 00 00 00 00   ...[...<........
| end corrupt006.txt.db
.testctrl prng_seed 1 db
.testctrl internal_functions
DELETE FROM t1;
PRAGMA integrity_check;

