.open --hexdb
| size 8192 pagesize 1024 filename corrupt020.txt.db
| page 1 offset 0
|      0: 53 51 4c 69 74 65 20 66 6f 72 6d 61 74 20 33 00   SQLite format 3.
|     16: 04 00 01 01 00 40 20 20 00 00 00 07 00 00 00 08   .....@  ........
|     32: 00 00 00 08 00 00 00 04 00 00 00 02 00 00 00 04   ................
|     48: 00 00 00 00 00 00 00 04 00 00 00 01 00 00 00 00   ................
|     64: 00 00 00 01 00 00 00 00 00 00 00 00 00 00 00 00   ................
|     80: 00 00 00 00 00 00 00 00 00 00 00 00 00 00 00 07   ................
|     96: 00 2d e6 0b 0d 00 00 00 02 03 b8 00 03 dc 03 b8   .-..............
|    944: 00 00 00 00 00 00 00 00 22 02 06 17 11 11 01 31   ...............1
|    960: 74 61 62 6c 65 74 31 74 31 04 43 52 45 41 54 45   tablet1t1.CREATE
|    976: 20 54 41 42 4c 45 20 74 31 28 78 29 22 01 06 17    TABLE t1(x)....
|    992: 11 11 01 31 74 61 62 6c 65 74 30 74 30 03 43 52   ...1tablet0t0.CR
|   1008: 45 41 54 45 20 54 41 42 4c 45 20 74 30 28 78 29   EATE TABLE t0(x)
| page 2 offset 1024
|      0: 01 00 00 00 00 01 00 00 00 00 02 00 00 00 00 02   ................
|     16: 00 00 00 00 02 00 00 00 00 02 00 00 00 00 00 00   ................
| page 3 offset 2048
|      0: 0d 00 00 00 00 04 00 00 00 00 00 00 00 00 00 00   ................
| page 4 offset 3072
|      0: 0d 00 00 00 00 04 00 00 00 00 00 00 00 00 00 00   ................
| page 7 offset 6144
|      0: 00 00 00 08 00 00 00 00 00 00 00 00 00 00 00 00   ................
| page 8 offset 7168
|      0: 00 00 00 07 00 00 00 01 00 00 00 06 00 00 00 00   ................
| end corrupt020.txt.db
.testctrl prng_seed 1 db
.testctrl internal_functions
CREATE TABLE t2(y);

