.open --hexdb
| size 4096 pagesize 512 filename corrupt048.txt.db
| page 1 offset 0
|      0: 53 51 4c 69 74 65 20 66 6f 72 6d 61 74 20 33 00   SQLite format 3.
|     16: 02 00 01 01 00 40 20 20 00 00 00 a1 29 a6 97 01   .....@  ....)...
|     32: 00 00 00 00 00 00 00 00 00 00 00 08 00 00 00 04   ................
|     48: 00 00 00 00 00 00 00 04 00 00 00 01 00 00 00 00   ................
|     80: 00 00 00 00 00 00 00 00 00 1d 00 00 00 00 ff 80   ................
|     96: 00 2e 2c 70 0d 00 00 00 06 00 80 00 01 da 01 b0   ..,p............
|    112: 01 56 0d 86 01 2a 11 06 00 00 00 00 00 00 00 00   .V...*..........
|    144: 17 00 00 00 00 00 00 00 00 00 00 00 00 00 00 00   ................
|    160: 00 00 00 00 00 00 00 00 00 00 00 00 00 00 fc ff   ................
|    176: ff ff ff ff 4e ff 00 5d 00 00 00 00 00 00 00 00   ....N..]........
|    192: 00 00 00 00 00 00 00 00 ff ff ff 00 00 00 00 00   ................
|    240: 00 00 00 00 f1 00 00 00 00 00 00 00 00 00 00 00   ................
|    256: 00 00 00 00 00 00 22 07 06 17 11 11 01 30 74 61   .............0ta
|    272: 62 6c 65 74 34 74 34 07 43 52 45 41 54 45 20 54   blet4t4.CREATE T
|    288: 41 42 4c 45 20 74 34 28 78 29 2a 06 06 17 13 11   ABLE t4(x)*.....
|    304: 01 3f 69 6c 64 ff fe 00 ff 00 04 00 80 43 52 45   .?ild........CRE
|    320: 41 54 45 20 49 4e 44 45 58 20 74 33 78 20 4f 4e   ATE INDEX t3x ON
|    336: 20 74 33 28 78 29 2e 04 06 17 15 11 01 45 69 6e    t3(x).......Ein
|    352: 64 65 78 74 32 63 64 74 31 fc 43 52 45 41 54 45   dext2cdt1.CREATE
|    368: 20 49 4e 44 45 58 20 74 d2 63 64 20 4f 4e 20 74    INDEX t.cd ON t
|    384: 32 28 63 2c 64 29 28 05 06 17 11 11 01 3d 74 61   2(c,d)(......=ta
|    400: 49 6c 65 74 33 74 33 04 43 52 45 41 54 45 20 54   Ilet3t3.CREATE T
|    416: 41 42 4c 45 20 74 33 28 63 2c 78 2c 65 2c 66 29   ABLE t3(c,x,e,f)
|    432: 28 02 06 17 11 11 01 3d 74 61 52 00 00 00 00 00   (......=taR.....
|    448: 00 00 43 52 45 41 54 45 20 54 41 42 4c 45 20 74   ..CREATE TABLE t
|    464: 32 28 63 2c 64 2c 65 2c 66 29 24 01 06 17 11 11   2(c,d,e,f)$.....
|    480: 01 35 74 61 62 6c 65 74 31 74 31 02 43 52 45 41   .5tablet1t1.CREA
| end corrupt048.txt.db
.testctrl prng_seed 1 db
.testctrl internal_functions
ALTER TABLE t1 RENAME TO alkjalkjdfiiiwuer987lkjwer82mx97sf98788s9789s;
INSERT INTO t3 SELECT * FROM t2;
DELETE FROM t3 WHERE x IN (SELECT x FROM t4);
REINDEX;
DROP TABLE t3;
VACUUM;

