.open --hexdb
| size 12288 pagesize 4096 filename corrupt055.txt.db
| page 1 offset 0
|      0: 53 51 4c 69 74 65 20 66 6f 72 6d 61 74 20 33 00   SQLite format 3.
|     16: 10 00 01 01 00 40 20 20 00 00 00 02 00 00 00 03   .....@  ........
|     32: 00 00 00 00 00 00 00 00 00 00 00 01 00 00 00 04   ................
|     48: 00 00 00 00 00 00 00 00 00 00 00 01 00 00 00 00   ................
|     80: 00 00 00 00 00 00 00 00 00 00 00 00 00 00 00 02   ................
|     96: 00 2e 30 38 0d 00 00 00 01 0f c3 00 0f c3 00 00   ..08............
|   4032: 00 00 00 3b 01 06 17 11 11 01 63 74 61 62 6c 65   ...;......ctable
|   4048: 74 31 74 31 02 43 52 45 41 54 45 20 54 41 42 4c   t1t1.CREATE TABL
|   4064: 45 20 74 31 28 61 20 49 4e 54 45 47 45 52 20 50   E t1(a INTEGER P
|   4080: 52 49 4d 41 52 59 20 4b 45 59 2c 20 62 2c 63 29   RIMARY KEY, b,c)
| page 2 offset 4096
|      0: 0d 00 00 00 01 0e 0f 00 0e 0f 00 00 00 00 00 00   ................
|   3584: 00 00 00 00 00 00 00 00 00 00 00 00 00 00 00 85   ................
|   3600: bf 17 01 06 00 8a fe 2c 01 00 00 00 00 00 00 00   .......,........
|   4080: 00 00 00 00 00 00 00 00 00 00 00 00 00 00 00 03   ................
| page 3 offset 8192
|      0: 00 00 00 04 00 00 00 00 00 00 00 00 00 00 00 00   ................
| end corrupt055.txt.db
.testctrl prng_seed 1 db
.testctrl internal_functions
SELECT c FROM t1;

