.open --hexdb
| size 20480 pagesize 4096 filename corrupt046.txt.db
| page 1 offset 0
|      0: 53 51 4c 69 74 65 20 66 6f 72 6d 61 74 20 33 00   SQLite format 3.
|     16: 10 00 01 01 00 40 20 20 00 00 00 02 00 00 00 05   .....@  ........
|     32: 00 00 00 00 00 00 00 00 00 00 00 02 00 00 00 04   ................
|     48: 00 00 00 00 00 00 00 00 00 00 00 01 00 00 00 00   ................
|     80: 00 00 00 00 00 00 00 00 00 00 00 00 00 00 00 02   ................
|     96: 00 2e 30 38 0d 0f f8 00 04 0f 48 00 0f a8 0f d3   ..08......H.....
|    112: 0f 48 0f 84 00 00 00 00 00 00 00 00 00 00 00 00   .H..............
|   3904: 00 00 00 00 00 00 00 00 3a 03 06 17 11 11 01 61   ........:......a
|   3920: 74 61 62 6c 65 74 35 74 35 04 43 52 45 41 54 45   tablet5t5.CREATE
|   3936: 20 54 41 42 4c 45 20 74 35 28 61 2c 20 62 2c 20    TABLE t5(a, b, 
|   3952: 63 2c 20 50 52 49 4d 41 52 59 20 4b 45 59 28 61   c, PRIMARY KEY(a
|   3968: 2c 62 29 29 22 04 05 17 37 11 01 69 6e 64 65 78   ,b))....7..index
|   3984: 73 71 6c 6a 74 65 5f 61 75 74 6f 69 6e 64 65 78   sqljte_autoindex
|   4000: 5f 74 35 5f 31 74 35 05 29 01 06 17 11 11 01 3f   _t5_1t5.)......?
|   4016: 74 61 62 6c 65 74 34 74 34 02 43 52 45 41 54 45   tablet4t4.CREATE
|   4032: 20 54 41 42 4c 45 20 74 34 28 78 20 55 4e 49 51    TABLE t4(x UNIQ
|   4048: 55 45 29 23 02 06 17 37 11 01 00 69 6e 64 65 78   UE)#...7...index
|   4064: 73 71 6c 69 74 65 5f 61 75 74 6f 69 6e 64 65 78   sqlite_autoindex
|   4080: 5f 74 34 5f 31 74 34 03 00 00 00 08 00 00 00 00   _t4_1t4.........
| page 2 offset 4096
|      0: 0d 00 00 00 00 10 00 00 00 00 00 00 00 00 00 00   ................
| page 3 offset 8192
|      0: 0a 00 00 00 00 10 00 00 00 00 00 00 00 00 00 00   ................
| page 4 offset 12288
|      0: 0d 00 00 00 00 10 00 00 00 00 00 00 00 00 00 00   ................
| page 5 offset 16384
|      0: 0a 00 00 00 00 10 00 00 00 00 00 00 00 00 00 00   ................
| end corrupt046.txt.db
.testctrl prng_seed 1 db
.testctrl internal_functions
PRAGMA writable_schema=ON; -- disable schema corruption reporting
SELECT t4a.x, t4b.x, t5.c, t6.v
FROM t4 AS t4a
INNER JOIN t4 AS t4b
LEFT JOIN t5 ON t5.a=t4a.x AND t5.b=t4b.x
LEFT JOIN (SELECT 1 AS v) AS t6;

