.open --hexdb
| size 24576 pagesize 4096 filename corrupt034.txt.db
| page 1 offset 0
|      0: 53 51 4c 69 74 65 20 66 6f 72 6d 61 74 20 33 00   SQLite format 3.
|     16: 10 00 01 01 00 40 20 20 00 00 00 00 00 00 00 06   .....@  ........
|     32: 00 00 00 00 00 00 00 00 00 00 00 04 00 00 00 04   ................
|     48: 00 00 00 00 00 00 00 00 00 00 00 01 00 00 00 00   ................
|     96: 00 00 00 00 0d 0f d4 00 05 0f 26 00 0f dc 0f 7e   ..........&....~
|    112: 0f af 0f 52 0f 26 00 00 00 00 00 00 00 00 00 00   ...R.&..........
|   3872: 00 00 00 00 00 00 2a 05 06 17 13 11 01 3f 69 6e   ......*......?in
|   3888: 64 65 78 74 32 63 74 32 06 43 52 45 41 54 45 20   dext2ct2.CREATE 
|   3904: 49 4e 44 45 58 20 74 32 63 20 4f 4e 20 74 32 28   INDEX t2c ON t2(
|   3920: 63 29 2a 04 06 17 13 11 01 3f 69 6e 64 65 78 74   c)*......?indext
|   3936: 32 64 74 32 05 43 52 45 41 54 45 20 49 4e 44 45   2dt2.CREATE INDE
|   3952: 58 20 74 32 64 20 4f 4e 20 74 32 28 64 29 2f 02   X t2d ON t2(d)/.
|   3968: 06 17 11 11 01 4b 74 61 62 6c 65 74 32 74 32 fb   .....Ktablet2t2.
|   3984: 43 52 45 41 54 45 20 54 41 42 4c 45 20 74 32 28   CREATE TABLE t2(
|   4000: 62 2c 63 2c 64 2c 65 20 55 4e 49 51 55 45 29 23   b,c,d,e UNIQUE)#
|   4016: 03 06 17 37 11 01 00 69 6e 64 65 78 73 71 6c 69   ...7...indexsqli
|   4032: 74 65 5f 61 75 74 6f 69 6e 64 65 78 5f 74 32 5f   te_autoindex_t2_
|   4048: 31 74 32 04 00 00 00 08 00 00 00 00 22 01 06 17   1t2.............
|   4064: 11 11 01 31 74 61 62 6c 65 74 31 74 31 02 43 52   ...1tablet1t1.CR
|   4080: 45 41 54 45 20 54 41 42 4c 45 20 74 31 28 61 29   EATE TABLE t1(a)
| page 2 offset 4096
|      0: 0d 00 00 00 00 10 00 00 00 00 00 00 00 00 00 00   ................
| page 3 offset 8192
|      0: 0d 00 00 00 00 10 00 00 00 00 00 00 00 00 00 00   ................
| page 4 offset 12288
|      0: 0a 00 00 00 00 10 00 00 00 00 00 00 00 00 00 00   ................
| page 5 offset 16384
|      0: 0a 00 00 00 00 10 00 00 00 00 00 00 00 00 00 00   ................
| page 6 offset 20480
|      0: 0a 00 00 00 00 10 00 00 00 00 00 00 00 00 00 00   ................
| end corrupt034.txt.db
.testctrl prng_seed 1 db
.testctrl internal_functions
DROP TABLE t2;

