.open --hexdb
| size 8192 pagesize 4096 filename corrupt045.txt.db
| page 1 offset 0
|      0: 53 51 4c 69 74 65 20 66 6f 72 6d 61 74 20 33 00   SQLite format 3.
|     16: 10 00 01 01 00 40 20 20 00 00 00 00 00 00 00 00   .....@  ........
|     32: 00 00 00 01 00 00 00 00 00 00 00 00 00 00 00 00   ................
|     96: 00 00 00 00 0d 00 00 00 04 0e 9c 00 0f ad 0f 4f   ...............O
|    112: 0e fc 0e 9c 00 00 00 00 00 00 00 00 00 00 00 00   ................
|   3728: 00 00 00 00 00 00 00 00 00 00 00 00 5e 04 07 17   ............^...
|   3744: 1f 1f 01 81 0b 74 61 62 6c 65 74 31 5f 70 61 72   .....tablet1_par
|   3760: 65 6e 74 74 31 5f 70 61 72 65 6e 74 04 43 52 45   entt1_parent.CRE
|   3776: 41 54 45 20 54 41 42 4c 45 20 22 74 31 5f 70 61   ATE TABLE .t1_pa
|   3792: 72 65 6e 75 35 14 c6 97 46 52 06 66 f7 26 d6 17   renu5...FR.f.&..
|   3808: 42 03 30 01 00 00 10 10 04 02 02 00 00 00 00 00   B.0.............
|   3824: 00 00 00 50 05 24 94 d4 15 25 92 04 b4 55 92 c7   ...P.$...%...U..
|   3840: 06 17 26 56 e7 46 e6 f6 46 52 95 10 40 61 71 b1   ..&V.F..FR..@aq.
|   3856: b0 17 b7 46 16 26 c6 57 43 15 f6 e6 f6 46 57 43   ...F.&.WC....FWC
|   3872: 15 f6 e6 f6 46 50 44 35 24 54 15 44 52 05 44 14   ....FPD5$T.DR.D.
|   3888: 24 c4 52 02 27 43 15 f6 e6 f6 46 52 22 86 e6 f6   $.R.'C....FR....
|   3904: 46 56 e6 f2 04 94 e6 44 54 74 55 22 05 05 24 94   FV.....DTtU...$.
|   3920: d4 15 26 40 d0 00 00 00 10 fc 70 00 fc 00 00 00   ..&@......p.....
|   4032: 00 00 00 00 00 00 00 37 01 06 17 15 15 01 53 74   .......7......St
|   4048: 61 62 6c 65 64 75 61 6c 64 65 61 6c 02 43 52 45   abledualdeal.CRE
|   4064: 41 54 45 20 54 41 42 4c 45 20 64 75 61 6c 28 64   ATE TABLE dual(d
|   4080: 75 6d 6d 79 20 76 61 72 63 68 61 72 28 31 29 29   ummy varchar(1))
| page 2 offset 4096
|      0: 0d 00 00 00 01 0f fb 00 0f fb 00 00 00 00 00 00   ................
|   4080: 00 00 00 00 00 00 00 00 00 00 00 03 01 02 0f 58   ...............X
| end corrupt045.txt.db
.testctrl prng_seed 1 db
.testctrl internal_functions
CREATE VIRTUAL TABLE nums USING wholenumber;

