.open --hexdb
| size 8192 pagesize 4096 filename corrupt036.txt.db
| page 1 offset 0
|      0: 53 51 4c 69 74 65 20 66 6f 72 6d 61 74 20 33 00   SQLite format 3.
|     16: 10 00 01 01 00 40 20 20 00 00 00 02 00 00 00 02   .....@  ........
|     32: 00 00 00 00 00 00 00 00 00 00 00 01 00 00 00 04   ................
|     48: 00 00 00 00 00 00 00 00 00 00 00 01 00 00 00 00   ................
|     80: 00 00 00 00 00 00 00 00 00 00 00 00 00 00 00 02   ................
|     96: 00 2e 30 38 0d 00 00 00 01 0f b5 00 0f b5 00 00   ..08............
|   4016: 00 00 00 00 00 49 01 06 17 11 11 01 7f 74 61 62   .....I.......tab
|   4032: 6c 65 74 31 74 31 02 43 52 45 41 54 45 20 54 41   let1t1.CREATE TA
|   4048: 42 4c 45 20 74 31 28 61 2c 62 2c 63 2c 64 2c 50   BLE t1(a,b,c,d,P
|   4064: 52 49 4d 41 52 59 20 4b 45 59 28 61 2c 62 2c 63   RIMARY KEY(a,b,c
|   4080: 29 29 20 57 49 54 48 4f 55 54 20 52 4f 57 49 44   )) WITHOUT ROWID
| page 2 offset 4096
|      0: 0a 00 00 00 03 0f e2 00 0f e2 0f f6 0f ec 00 00   ................
|   4064: 00 00 09 05 0f 0f 0f 01 61 62 62 07 09 05 0f 0f   ........abb.....
|   4080: 0f 01 61 62 64 06 09 03 0f 0f 61 62 63 05 00 00   ..abd.....abc...
| end corrupt036.txt.db
.testctrl prng_seed 1 db
.testctrl internal_functions
SELECT d FROM t1 WHERE a='a' AND b='b' AND c='c';

