.open --hexdb
| size 12288 pagesize 4096 filename corrupt033.txt.db
| page 1 offset 0
|      0: 53 51 4c 69 74 65 20 66 6f 72 6d 61 74 20 33 00   SQLite format 3.
|     16: 10 00 01 01 00 40 20 20 00 00 00 02 00 00 00 03   .....@  ........
|     32: 00 00 00 00 00 00 00 00 00 00 00 01 00 00 00 04   ................
|     48: 00 00 00 00 00 00 00 00 00 00 00 01 00 00 00 00   ................
|     80: 00 00 00 00 00 00 00 00 00 00 00 00 00 00 00 02   ................
|     96: 00 2e 2c 50 0d 0f f8 00 02 0f 84 00 0f 84 0f d3   ..,P............
|   3968: 00 00 00 00 4d 01 07 17 11 11 01 81 05 74 61 62   ....M........tab
|   3984: 6c 65 74 31 74 31 02 43 52 45 41 54 45 20 54 41   let1t1.CREATE TA
|   4000: 42 4c 45 20 74 31 28 61 20 49 4e 54 45 47 45 52   BLE t1(a INTEGER
|   4016: 20 50 52 49 4d 41 52 59 20 4b 45 59 2c 20 62 2c    PRIMARY KEY, b,
|   4032: 20 63 2c 20 64 2c 20 55 4e 49 51 55 45 28 62 2c    c, d, UNIQUE(b,
|   4048: 63 29 29 23 02 06 17 37 11 01 00 69 6e 64 65 78   c))#...7...index
|   4064: 73 71 6c 69 74 65 5f 61 75 74 6f 69 6e 64 65 78   sqlite_autoindex
|   4080: 5f 74 31 5f 31 74 31 03 00 00 00 08 00 00 00 00   _t1_1t1.........
| page 2 offset 4096
|      0: 0d 00 00 00 01 0f e3 00 0f e3 00 00 00 00 00 00   ................
|   4064: 00 00 00 1b 01 05 00 0f 34 0f 42 00 00 00 00 00   ........4.B.....
|   4080: 00 00 00 00 00 00 00 00 00 00 00 00 00 00 00 44   ...............D
| page 3 offset 8192
|      0: 0a 00 00 00 01 0f e6 00 0f e6 00 00 00 00 00 00   ................
|   4064: 00 00 00 00 00 00 19 8f ff ff ff 7f 00 00 00 00   ................
| end corrupt033.txt.db
.testctrl prng_seed 1 db
.testctrl internal_functions
SELECT d FROM t1 ORDER BY b;

