.open --hexdb
| size 8192 pagesize 1024 filename corrupt057b.txt.db
| page 1 offset 0
|      0: 53 51 4c 69 74 65 20 66 6f 72 6d 61 74 20 33 00   SQLite format 3.
|     16: 04 00 01 01 00 40 20 20 00 00 00 03 00 00 00 05   .....@  ........
|     32: 00 00 00 00 00 00 00 00 00 00 00 01 00 00 00 04   ................
|     48: 00 00 00 00 00 00 00 00 00 00 00 01 00 00 00 00   ................
|     80: 00 00 00 00 00 00 00 00 00 00 00 00 00 00 00 03   ................
|     96: 00 2e 30 38 0d 00 00 00 01 03 c1 00 03 c1 00 00   ..08............
|    960: 00 3d 01 06 17 11 11 01 67 74 61 62 6c 65 74 31   .=......gtablet1
|    976: 74 31 02 43 52 45 41 54 45 20 54 41 42 4c 45 20   t1.CREATE TABLE 
|    992: 74 31 28 61 20 49 4e 54 45 47 45 52 20 50 52 49   t1(a INTEGER PRI
|   1008: 4d 41 52 59 20 4b 45 59 2c 62 20 42 4c 4f 42 29   MARY KEY,b BLOB)
| page 2 offset 1024
|      0: 05 00 00 00 02 03 f6 00 00 00 00 05 03 fb 03 f6   ................
|    192: 00 00 00 00 00 00 00 00 00 00 00 00 83 14 14 04   ................
|    208: 00 86 2c 00 00 00 00 00 00 00 00 00 00 00 00 00   ..,.............
|    608: 00 00 00 04 0b 03 00 01 63 83 14 0a 04 00 86 2c   ........c......,
|   1008: 00 00 00 00 00 00 00 00 00 04 28 00 00 00 03 14   ..........(.....
| page 3 offset 2048
|      0: 0d 02 63 00 02 00 cc 00 02 69 00 cc 00 cc 00 00   ..c......i......
|    192: 00 00 00 00 00 00 00 00 00 00 00 00 83 14 14 04   ................
|    208: 00 86 2c 00 00 00 00 00 00 00 00 00 00 00 00 00   ..,.............
|    608: 00 00 00 00 00 00 06 00 00 83 14 0a 04 00 86 2c   ...............,
| page 4 offset 3072
|      0: 0d 02 63 00 02 00 cc 00 02 69 00 cc 00 cc 00 00   ..c......i......
|    192: 00 00 00 00 00 00 00 00 00 00 00 00 83 14 28 04   ..............(.
|    208: 00 86 2c 00 00 00 00 00 00 00 00 00 00 00 00 00   ..,.............
|    608: 00 00 00 04 00 00 06 00 00 83 14 1e 04 00 86 2c   ...............,
| page 5 offset 4096
|      0: 0d 02 63 00 02 00 cc 00 02 69 00 cc 00 cc 00 00   ..c......i......
|    192: 00 00 00 00 00 00 00 00 00 00 00 00 83 14 3c 04   ..............<.
|    208: 00 86 2c 00 00 00 00 00 00 00 00 00 00 00 00 00   ..,.............
|    608: 00 00 00 00 00 00 06 00 00 83 14 32 04 00 86 2c   ...........2...,
| end corrupt057b.txt.db
.testctrl prng_seed 1 db
.testctrl internal_functions
INSERT INTO t1(a,b) VALUES(35,zeroblob(400));

