.open --hexdb
| size 4096 pagesize 1024 filename corrupt032.txt.db
| page 1 offset 0
|      0: 53 51 4c 69 74 65 20 66 6f 72 6d 61 74 20 33 00   SQLite format 3.
|     16: 04 00 01 01 08 40 20 20 00 00 00 02 00 00 00 03   .....@  ........
|     32: 00 00 00 00 00 00 00 00 00 00 00 01 00 00 00 04   ................
|     48: 00 00 00 00 00 00 00 00 00 00 00 01 00 00 00 00   ................
|     80: 00 00 00 00 00 00 00 00 00 00 00 00 00 00 00 02   ................
|     96: 00 2e 24 80 0d 00 00 00 01 03 d4 00 03 d4 00 00   ..$.............
|    976: 00 00 00 00 22 01 06 17 11 11 01 31 74 61 62 6c   ...........1tabl
|    992: 65 74 31 74 31 02 43 52 45 41 54 45 20 54 41 42   et1t1.CREATE TAB
|   1008: 4c 45 20 74 31 28 78 29 00 00 00 00 00 00 00 00   LE t1(x)........
| page 2 offset 1024
|      0: 0d 00 00 00 01 02 06 00 02 06 00 00 00 00 00 00   ................
|    512: 00 00 00 00 00 00 8b 60 01 03 97 46 00 00 00 00   .......`...F....
|   1008: 00 00 00 00 00 00 00 03 00 00 00 00 00 00 00 00   ................
| end corrupt032.txt.db
.testctrl prng_seed 1 db
.testctrl internal_functions
UPDATE t1 SET x=25 WHERE rowid=1;

