.open --hexdb
| size 4096 pagesize 1024 filename corrupt025.txt.db
| page 1 offset 0
|      0: 53 51 4c 69 74 65 20 66 6f 72 6d 61 74 20 33 00   SQLite format 3.
|     16: 04 00 01 01 10 40 20 20 00 00 00 05 00 00 00 06   .....@  ........
|     32: 00 00 00 00 00 00 00 00 00 00 00 02 00 00 00 04   ................
|     48: 00 00 00 00 00 00 00 04 00 00 00 01 00 00 00 00   ................
|     80: 00 00 00 00 00 00 00 00 00 00 00 00 00 00 00 05   ................
|     96: 00 2e 09 28 0d 00 00 00 02 03 a6 00 03 cc 03 a6   ...(............
|    928: 00 00 00 00 00 00 24 02 06 17 11 11 01 35 74 61   ......$......5ta
|    944: 62 6c 65 74 31 74 31 04 43 52 45 41 54 45 20 54   blet1t1.CREATE T
|    960: 41 42 4c 45 20 74 31 28 61 2c 62 29 22 01 06 17   ABLE t1(a,b)....
|    976: 11 11 01 31 74 61 62 6c 65 74 30 74 30 03 43 52   ...1tablet0t0.CR
|    992: 45 41 54 45 20 54 41 42 4c 45 20 74 30 28 78 29   EATE TABLE t0(x)
| page 2 offset 1024
|      0: 01 00 00 00 00 01 00 00 00 00 03 00 00 00 03 03   ................
|     16: 00 00 00 04 00 00 00 00 00 00 00 00 00 00 00 00   ................
| page 3 offset 2048
|      0: 0d 00 00 00 01 03 22 00 03 22 00 00 00 00 00 00   ................
|    800: 00 00 89 33 01 03 92 6c 00 00 00 00 00 00 00 00   ...3...l........
|    992: 00 00 00 00 00 00 00 00 00 00 00 00 00 00 00 05   ................
| page 4 offset 3072
|      0: 0d 00 00 00 01 03 21 00 03 21 00 00 00 00 00 00   ......!..!......
|    800: 00 89 35 01 04 92 6c 09 00 00 00 00 00 00 00 00   ..5...l.........
|    992: 00 00 00 00 00 00 00 00 00 00 00 00 00 00 00 06   ................
| end corrupt025.txt.db
.testctrl prng_seed 1 db
.testctrl internal_functions
DELETE FROM t0;

