.open --hexdb
| size 12288 pagesize 4096 filename corrupt050.txt.db
| page 1 offset 0
|      0: 53 51 4c 69 74 65 20 66 6f 72 6d 61 74 20 33 00   SQLite format 3.
|     16: 10 00 01 01 00 40 20 20 00 00 00 00 00 00 00 03   .....@  ........
|     32: 00 00 00 00 00 00 00 00 00 00 00 02 00 00 00 04   ................
|     48: 00 00 00 00 00 00 00 00 00 00 00 01 00 00 00 00   ................
|     96: 00 00 00 00 0d 00 00 00 02 0f b4 00 0f da 0f b4   ................
|   4016: 00 00 00 00 24 02 06 17 11 11 01 35 74 61 62 6c   ....$......5tabl
|   4032: 65 74 32 74 32 02 43 52 45 41 54 45 20 54 41 42   et2t2.CREATE TAB
|   4048: 4c 45 20 74 32 28 78 2c 79 29 24 01 06 17 11 11   LE t2(x,y)$.....
|   4064: 01 35 74 61 62 6c 65 74 31 74 31 02 43 52 45 41   .5tablet1t1.CREA
|   4080: 54 45 20 54 41 42 4c 45 20 74 31 28 61 2c 62 29   TE TABLE t1(a,b)
| page 2 offset 4096
|      0: 0d 00 00 00 03 0f ec 00 0f fa 0f f3 0f ec 00 00   ................
|   4064: 00 00 00 00 00 00 00 00 00 00 00 00 05 03 03 01   ................
|   4080: 01 05 06 05 02 03 01 01 03 04 04 01 03 09 01 02   ................
| page 3 offset 8192
|      0: 0d 00 00 00 00 10 00 00 00 00 00 00 00 00 00 00   ................
| end corrupt050.txt.db
.testctrl prng_seed 1 db
.testctrl internal_functions
INSERT INTO t2 SELECT * FROM t1;
SELECT * FROM t2;

