.open --hexdb
| size 8192 pagesize 512 filename corrupt027.txt.db
| page 1 offset 0
|      0: 53 51 4c 69 74 65 20 66 6f 72 6d 61 74 20 33 00   SQLite format 3.
|     16: 02 00 01 01 00 40 20 20 00 00 00 02 00 00 00 09   .....@  ........
|     32: 00 00 00 00 00 00 00 00 00 00 00 03 00 00 00 04   ................
|     48: 00 00 00 00 00 00 00 05 00 00 00 01 00 00 00 00   ................
|     80: 00 00 00 00 00 00 00 00 00 00 00 00 00 00 00 02   ................
|     96: 00 2e 18 c8 0d 00 00 00 03 01 86 00 01 da 01 ac   ................
|    112: 01 86 00 00 00 00 00 00 00 00 00 00 00 00 00 00   ................
|    384: 00 00 00 00 00 00 24 03 06 17 11 11 01 35 74 61   ......$......5ta
|    400: 62 6c 65 74 32 74 32 05 43 52 45 41 54 45 20 54   blet2t2.CREATE T
|    416: 41 42 4c 45 20 74 32 28 78 2c 79 29 2c 02 06 17   ABLE t2(x,y),...
|    432: 15 11 01 41 69 6e 64 65 78 74 31 69 31 74 31 04   ...Aindext1i1t1.
|    448: 43 52 45 41 54 45 20 49 4e 44 45 58 20 74 31 69   CREATE INDEX t1i
|    464: 31 20 4f 4e 20 74 31 28 78 29 24 01 06 17 11 11   1 ON t1(x)$.....
|    480: 01 35 74 61 62 6c 65 74 31 74 31 03 43 52 45 41   .5tablet1t1.CREA
|    496: 54 45 20 54 41 42 4c 45 20 74 31 28 78 2c 79 29   TE TABLE t1(x,y)
| page 2 offset 512
|      0: 01 00 00 00 00 01 00 00 00 00 01 00 00 00 00 05   ................
|     16: 00 00 00 03 05 00 00 00 04 05 00 00 00 04 05 00   ................
|     32: 00 00 03 00 00 00 00 00 00 00 00 00 00 00 00 00   ................
| page 3 offset 1024
|      0: 05 00 00 00 01 01 fb 00 00 00 00 09 01 fb 01 e9   ................
|     16: 01 e3 01 dd 01 d7 01 d1 01 cb 01 c5 01 bf 01 b9   ................
|     32: 01 b3 01 ad 01 a7 01 a0 01 9a 01 94 01 8e 01 88   ................
|     48: 01 82 01 7c 01 75 01 6e 01 68 01 61 01 5a 01 53   ...|.u.n.h.a.Z.S
|     64: 01 4c 01 45 01 3e 01 37 01 31 01 2b 01 25 01 1f   .L.E.>.7.1.+.%..
|     80: 01 19 01 12 01 0b 01 04 00 fe 00 f7 00 f0 00 e9   ................
|     96: 00 e2 00 db 00 d4 00 cd 00 c6 00 bf 00 b8 00 b1   ................
|    112: 00 aa 00 a3 00 9c 00 95 00 8e 00 87 00 80 00 00   ................
|    128: 05 3b 03 02 09 0b bb 05 3a 03 02 09 07 d2 05 39   .;......:......9
|    144: 03 02 09 03 e9 05 38 03 02 09 10 c2 05 37 03 02   ......8......7..
|    160: 09 08 61 05 36 03 02 09 05 96 05 35 03 02 09 02   ..a.6......5....
|    176: cb 05 34 03 02 09 03 5a 05 33 03 02 09 01 ad 05   ..4....Z.3......
|    192: 32 03 02 09 01 1e 05 31 03 02 09 00 8f 05 30 03   2......1......0.
|    208: 02 09 0a aa 05 2f 03 02 09 05 55 05 2e 03 02 09   ...../....U.....
|    224: 03 8e 05 2d 03 02 09 01 c7 05 2c 03 02 09 02 22   ...-......,.....
|    240: 05 2b 03 02 09 01 11 05 2a 03 02 09 00 b6 04 29   .+......*......)
|    256: 03 01 09 5b 05 28 03 02 09 01 86 05 27 03 02 09   ...[.(......'...
|    272: 00 c3 05 26 03 02 09 00 82 04 25 03 01 09 41 04   ...&......%...A.
|    288: 24 03 01 09 4e 04 23 03 01 09 27 04 22 03 01 09   $...N.#...'.....
|    304: 1a 04 21 03 01 09 0d 05 20 03 02 09 09 06 05 1f   ..!..... .......
|    320: 03 02 09 04 83 05 1e 03 02 09 03 02 05 1d 03 02   ................
|    336: 09 01 81 05 1c 03 02 09 01 ce 05 1b 03 02 09 00   ................
|    352: e7 05 1a 03 02 09 00 9a 04 19 03 01 09 4d 05 18   .............M..
|    368: 03 02 09 01 4a 05 17 03 02 09 00 a5 04 16 03 01   ....J...........
|    384: 09 6e 04 15 03 01 09 37 04 14 03 01 09 42 04 13   .n.....7.....B..
|    400: 03 01 09 21 04 12 03 01 09 16 04 11 03 01 09 0b   ...!............
|    416: 05 10 03 02 09 00 d2 04 0f 03 01 09 69 04 0e 03   ............i...
|    432: 01 09 46 04 0d 03 01 09 23 04 0c 03 01 09 2a 04   ..F.....#.....*.
|    448: 0b 03 01 09 15 04 0a 03 01 09 0e 04 09 03 01 09   ................
|    464: 07 04 08 03 01 09 1e 04 07 03 01 09 0f 04 06 03   ................
|    480: 01 09 0a 04 05 03 01 09 05 04 04 03 01 09 06 04   ................
|    496: 03 03 01 09 03 04 02 03 01 09 02 00 00 00 06 3b   ...............;
| page 4 offset 1536
|      0: 02 00 00 00 01 01 f5 00 00 00 00 08 01 f5 01 ea   ................
|     16: 01 e4 01 de 01 d8 01 d2 01 cc 01 c6 01 c0 01 ba   ................
|     32: 01 b4 01 ae 01 a8 01 a2 01 9c 01 96 01 90 01 8a   ................
|     48: 01 84 01 7e 01 78 01 72 01 6c 01 66 01 60 01 5a   ...~.x.r.l.f.`.Z
|     64: 01 53 01 4c 01 45 01 3e 01 37 01 30 01 29 01 22   .S.L.E.>.7.0.)..
|     80: 01 1b 01 14 01 0d 01 06 00 ff 00 f8 00 f1 00 ea   ................
|     96: 00 e3 00 dc 00 d5 00 ce 00 c7 00 c0 00 b9 00 b2   ................
|    112: 00 ab 00 a4 00 9d 00 96 00 8f 00 88 00 81 00 00   ................
|    128: 00 06 03 02 01 10 c2 38 06 03 02 01 0b bb 3b 06   .......8......;.
|    144: 03 02 01 0a aa 30 06 03 02 01 09 06 20 06 03 02   .....0...... ...
|    160: 01 08 61 37 06 03 02 01 07 d2 3a 06 03 02 01 05   ..a7......:.....
|    176: 96 36 06 03 02 01 05 55 2f 06 03 02 01 04 83 1f   .6.....U/.......
|    192: 06 03 02 01 03 e9 39 06 03 02 01 03 8e 2e 06 03   ......9.........
|    208: 02 01 03 5a 34 06 03 02 01 03 02 1e 06 03 02 01   ...Z4...........
|    224: 02 cb 35 06 03 02 01 02 22 2c 06 03 02 01 01 ce   ..5......,......
|    240: 1c 06 03 02 01 01 c7 2d 06 03 02 01 01 ad 33 06   .......-......3.
|    256: 03 02 01 01 86 28 06 03 02 01 01 81 1d 06 03 02   .....(..........
|    272: 01 01 4a 18 06 03 02 01 01 1e 32 06 03 02 01 01   ..J.......2.....
|    288: 11 2b 06 03 02 01 00 e7 1b 06 03 02 01 00 d2 10   .+..............
|    304: 06 03 02 01 00 c3 27 06 03 02 01 00 b6 2a 06 03   ......'......*..
|    320: 02 01 00 a5 17 06 03 02 01 00 9a 1a 06 03 02 01   ................
|    336: 00 8f 31 06 03 02 01 00 82 26 05 03 01 01 6e 16   ..1......&....n.
|    352: 05 03 01 01 69 0f 05 03 01 01 5b 29 05 03 01 01   ....i.....[)....
|    368: 4e 24 05 03 01 01 4d 19 05 03 01 01 46 0e 05 03   N$....M.....F...
|    384: 01 01 42 14 05 03 01 01 41 25 05 03 01 01 37 15   ..B.....A%....7.
|    400: 05 03 01 01 2a 0c 05 03 01 01 27 23 05 03 01 01   ....*.....'#....
|    416: 23 0d 05 03 01 01 21 13 05 03 01 01 1e 08 05 03   #.....!.........
|    432: 01 01 1a 22 05 03 01 01 16 12 05 03 01 01 15 0b   ................
|    448: 05 03 01 01 0f 07 05 03 01 01 0e 0a 05 03 01 01   ................
|    464: 0d 21 05 03 01 01 0b 11 05 03 01 01 0a 06 05 03   .!..............
|    480: 01 01 07 09 05 03 01 01 06 04 05 03 01 01 05 05   ................
|    496: 05 03 01 01 03 00 00 00 07 06 03 02 01 10 c2 38   ...............8
| page 5 offset 2048
|      0: 0d 00 74 00 34 00 77 00 01 fa 01 f3 01 ec 01 e5   ..t.4.w.........
|     16: 01 de 01 d7 01 d0 01 c9 01 c2 01 bb 01 b4 01 ad   ................
|     32: 01 a6 01 9f 01 98 01 91 01 8a 01 83 01 7c 01 75   .............|.u
|     48: 01 6e 01 67 01 5f 01 57 01 4f 01 47 01 3f 01 37   .n.g._.W.O.G.?.7
|     64: 01 2f 01 27 01 1f 01 17 01 0f 01 07 00 ff 00 f7   ./.'............
|     80: 00 ef 00 e7 00 df 00 d7 00 cf 00 c7 00 bf 00 b7   ................
|     96: 00 af 00 a7 00 9f 00 97 00 8f 00 87 00 7f 00 77   ...............w
|    112: 00 00 00 00 00 00 00 06 34 03 02 01 75 4e 02 06   ........4...uN..
|    128: 33 03 02 01 3a a7 02 06 32 03 02 01 27 1a 02 06   3...:...2...'...
|    144: 31 03 02 01 13 8d 02 06 30 03 02 01 10 c2 02 06   1.......0.......
|    160: 2f 03 02 01 0b bb 02 06 2e 03 02 01 0a aa 02 06   /...............
|    176: 2d 03 02 01 09 06 02 06 2c 03 02 01 07 d2 02 06   -.......,.......
|    192: 2b 03 02 01 05 96 02 06 2a 03 02 01 05 55 02 06   +.......*....U..
|    208: 29 03 02 01 04 83 02 06 28 03 02 01 03 e9 02 06   ).......(.......
|    224: 27 03 02 01 03 8e 02 06 26 03 02 01 03 5a 02 06   '.......&....Z..
|    240: 25 03 02 01 02 cb 02 06 24 03 02 01 02 22 02 06   %.......$.......
|    256: 23 03 02 01 01 ce 02 06 22 03 02 01 01 ad 02 06   #...............
|    272: 21 03 02 01 01 81 02 06 20 03 02 01 01 4a 02 06   !....... ....J..
|    288: 1f 03 02 01 01 11 02 06 1e 03 02 01 00 e7 02 06   ................
|    304: 1d 03 02 01 00 d2 02 06 1c 03 02 01 00 c3 02 06   ................
|    320: 1b 03 02 01 00 b6 02 06 1a 03 02 01 00 a5 02 06   ................
|    336: 19 03 02 01 00 9a 02 06 18 03 02 01 00 8f 02 06   ................
|    352: 17 03 02 01 00 82 02 05 16 03 01 01 6e 02 05 15   ............n...
|    368: 03 01 01 5b 02 05 14 03 01 01 4e 02 05 13 03 01   ...[......N.....
|    384: 01 46 02 05 12 03 01 01 41 02 05 11 03 01 01 37   .F......A......7
|    400: 02 05 10 03 01 01 2a 02 05 0f 03 01 01 23 02 05   ......*......#..
|    416: 0e 03 01 01 21 02 05 0d 03 01 01 1e 02 05 0c 03   ....!...........
|    432: 01 01 1a 02 05 0b 03 01 01 16 02 05 0a 03 01 01   ................
|    448: 15 02 05 09 03 01 01 0f 02 05 08 03 01 01 0d 02   ................
|    464: 05 07 03 01 01 0b 02 05 06 03 01 01 0a 02 05 05   ................
|    480: 03 01 01 07 02 05 04 03 01 01 06 02 05 03 03 01   ................
|    496: 01 03 02 05 02 03 01 01 02 02 04 01 03 09 01 02   ................
| page 6 offset 2560
|      0: 0d 00 00 00 3b 00 80 00 01 fb 01 f5 01 ef 01 e9   ....;...........
|     16: 01 e3 01 dd 01 d7 01 d1 01 cb 01 c5 01 bf 01 b9   ................
|     32: 01 b3 01 ad 01 a7 01 a0 01 9a 01 94 01 8e 01 88   ................
|     48: 01 82 01 7c 01 75 01 6e 01 68 01 61 01 5a 01 53   ...|.u.n.h.a.Z.S
|     64: 01 4c 01 45 01 3e 01 37 01 31 01 2b 01 25 01 1f   .L.E.>.7.1.+.%..
|     80: 01 19 01 12 01 0b 01 04 00 fe 00 f7 00 f0 00 e9   ................
|     96: 00 e2 00 db 00 d4 00 cd 00 c6 00 bf 00 b8 00 b1   ................
|    112: 00 aa 00 a3 00 9c 00 95 00 8e 00 87 00 80 00 00   ................
|    128: 05 3b 03 02 09 0b bb 05 3a 03 02 09 07 d2 05 39   .;......:......9
|    144: 03 02 09 03 e9 05 38 03 02 09 10 c2 05 37 03 02   ......8......7..
|    160: 09 08 61 05 36 03 02 09 05 96 05 35 03 02 09 02   ..a.6......5....
|    176: cb 05 34 03 02 09 03 5a 05 33 03 02 09 01 ad 05   ..4....Z.3......
|    192: 32 03 02 09 01 1e 05 31 03 02 09 00 8f 05 30 03   2......1......0.
|    208: 02 09 0a aa 05 2f 03 02 09 05 55 05 2e 03 02 09   ...../....U.....
|    224: 03 8e 05 2d 03 02 09 01 c7 05 2c 03 02 09 02 22   ...-......,.....
|    240: 05 2b 03 02 09 01 11 05 2a 03 02 09 00 b6 04 29   .+......*......)
|    256: 03 01 09 5b 05 28 03 02 09 01 86 05 27 03 02 09   ...[.(......'...
|    272: 00 c3 05 26 03 02 09 00 82 04 25 03 01 09 41 04   ...&......%...A.
|    288: 24 03 01 09 4e 04 23 03 01 09 27 04 22 03 01 09   $...N.#...'.....
|    304: 1a 04 21 03 01 09 0d 05 20 03 02 09 09 06 05 1f   ..!..... .......
|    320: 03 02 09 04 83 05 1e 03 02 09 03 02 05 1d 03 02   ................
|    336: 09 01 81 05 1c 03 02 09 01 ce 05 1b 03 02 09 00   ................
|    352: e7 05 1a 03 02 09 00 9a 04 19 03 01 09 4d 05 18   .............M..
|    368: 03 02 09 01 4a 05 17 03 02 09 00 a5 04 16 03 01   ....J...........
|    384: 09 6e 04 15 03 01 09 37 04 14 03 01 09 42 04 13   .n.....7.....B..
|    400: 03 01 09 21 04 12 03 01 09 16 04 11 03 01 09 0b   ...!............
|    416: 05 10 03 02 09 00 d2 04 0f 03 01 09 69 04 0e 03   ............i...
|    432: 01 09 46 04 0d 03 01 09 23 04 0c 03 01 09 2a 04   ..F.....#.....*.
|    448: 0b 03 01 09 15 04 0a 03 01 09 0e 04 09 03 01 09   ................
|    464: 07 04 08 03 01 09 1e 04 07 03 01 09 0f 04 06 03   ................
|    480: 01 09 0a 04 05 03 01 09 05 04 04 03 01 09 06 04   ................
|    496: 03 03 01 09 03 04 02 03 01 09 02 03 01 03 09 09   ................
| page 7 offset 3072
|      0: 0a 00 00 00 3a 00 88 00 01 fc 01 f6 01 f0 01 ea   ....:...........
|     16: 01 e4 01 de 01 d8 01 d2 01 cc 01 c6 01 c0 01 ba   ................
|     32: 01 b4 01 ae 01 a8 01 a2 01 9c 01 96 01 90 01 8a   ................
|     48: 01 84 01 7e 01 78 01 72 01 6c 01 66 01 60 01 5a   ...~.x.r.l.f.`.Z
|     64: 01 53 01 4c 01 45 01 3e 01 37 01 30 01 29 01 22   .S.L.E.>.7.0.)..
|     80: 01 1b 01 14 01 0d 01 06 00 ff 00 f8 00 f1 00 ea   ................
|     96: 00 e3 00 dc 00 d5 00 ce 00 c7 00 c0 00 b9 00 b2   ................
|    112: 00 ab 00 a4 00 9d 00 96 00 8f 00 88 00 81 00 00   ................
|    128: 00 00 00 00 07 10 c2 38 06 03 02 01 0b bb 3b 06   .......8......;.
|    144: 03 02 01 0a aa 30 06 03 02 01 09 06 20 06 03 02   .....0...... ...
|    160: 01 08 61 37 06 03 02 01 07 d2 3a 06 03 02 01 05   ..a7......:.....
|    176: 96 36 06 03 02 01 05 55 2f 06 03 02 01 04 83 1f   .6.....U/.......
|    192: 06 03 02 01 03 e9 39 06 03 02 01 03 8e 2e 06 03   ......9.........
|    208: 02 01 03 5a 34 06 03 02 01 03 02 1e 06 03 02 01   ...Z4...........
|    224: 02 cb 35 06 03 02 01 02 22 2c 06 03 02 01 01 ce   ..5......,......
|    240: 1c 06 03 02 01 01 c7 2d 06 03 02 01 01 ad 33 06   .......-......3.
|    256: 03 02 01 01 86 28 06 03 02 01 01 81 1d 06 03 02   .....(..........
|    272: 01 01 4a 18 06 03 02 01 01 1e 32 06 03 02 01 01   ..J.......2.....
|    288: 11 2b 06 03 02 01 00 e7 1b 06 03 02 01 00 d2 10   .+..............
|    304: 06 03 02 01 00 c3 27 06 03 02 01 00 b6 2a 06 03   ......'......*..
|    320: 02 01 00 a5 17 06 03 02 01 00 9a 1a 06 03 02 01   ................
|    336: 00 8f 31 06 03 02 01 00 82 26 05 03 01 01 6e 16   ..1......&....n.
|    352: 05 03 01 01 69 0f 05 03 01 01 5b 29 05 03 01 01   ....i.....[)....
|    368: 4e 24 05 03 01 01 4d 19 05 03 01 01 46 0e 05 03   N$....M.....F...
|    384: 01 01 42 14 05 03 01 01 41 25 05 03 01 01 37 15   ..B.....A%....7.
|    400: 05 03 01 01 2a 0c 05 03 01 01 27 23 05 03 01 01   ....*.....'#....
|    416: 23 0d 05 03 01 01 21 13 05 03 01 01 1e 08 05 03   #.....!.........
|    432: 01 01 1a 22 05 03 01 01 16 12 05 03 01 01 15 0b   ................
|    448: 05 03 01 01 0f 07 05 03 01 01 0e 0a 05 03 01 01   ................
|    464: 0d 21 05 03 01 01 0b 11 05 03 01 01 0a 06 05 03   .!..............
|    480: 01 01 07 09 05 03 01 01 06 04 05 03 01 01 05 05   ................
|    496: 05 03 01 01 03 03 05 03 01 01 02 02 03 03 09 09   ................
| page 8 offset 3584
|      0: 0a 00 00 00 05 01 dd 00 01 f9 01 f2 01 eb 01 e4   ................
|     16: 01 dd 00 00 00 00 00 00 00 00 00 00 00 00 00 00   ................
|    464: 00 00 00 00 00 00 00 00 00 00 00 00 00 06 03 02   ................
|    480: 01 75 4e 40 06 03 02 01 3a a7 3f 06 03 02 01 27   .uN@....:.?....'
|    496: 1a 3e 06 03 02 01 17 76 3c 06 03 02 01 13 8d 3d   .>.....v<......=
| page 9 offset 4096
|      0: 0d 00 00 00 05 01 dd 00 01 f9 01 f2 01 eb 01 e4   ................
|     16: 01 dd 00 00 00 00 00 00 00 00 00 00 00 00 00 00   ................
|    464: 00 00 00 00 00 00 00 00 00 00 00 00 00 05 40 03   ..............@.
|    480: 02 09 75 4e 05 3f 03 02 09 3a a7 05 3e 03 02 09   ..uN.?...:..>...
|    496: 27 1a 05 3d 03 02 09 13 8d 05 3c 03 02 09 17 76   '..=......<....v
| end corrupt027.txt.db
.testctrl prng_seed 1 db
.testctrl internal_functions
UPDATE t1 SET y=1;
UPDATE t2 SET y='abcdef-uvwxyz';

