.open --hexdb
| size 8192 pagesize 4096 filename corrupt028a.txt.db
| page 1 offset 0
|      0: 53 51 4c 69 74 65 20 66 6f 72 6d 61 74 20 33 00   SQLite format 3.
|     16: 10 00 01 01 00 40 20 20 00 00 00 00 00 00 00 02   .....@  ........
|     32: 00 00 00 00 00 00 00 00 00 00 00 01 00 00 00 04   ................
|     48: 00 00 00 00 00 00 00 00 00 00 00 01 00 00 00 00   ................
|     96: 00 00 00 00 0d 00 00 00 01 0f c6 00 0f c6 00 00   ................
|   4032: 00 00 00 00 00 00 38 01 06 17 11 11 01 5d 74 61   ......8......]ta
|   4048: 62 6c 65 74 31 74 31 02 43 52 45 41 54 45 20 54   blet1t1.CREATE T
|   4064: 41 42 4c 45 20 74 31 20 41 53 20 53 45 4c 45 43   ABLE t1 AS SELEC
|   4080: 54 20 31 20 41 53 20 61 2c 20 32 20 41 53 20 62   T 1 AS a, 2 AS b
| page 2 offset 4096
|      0: 0d 00 00 00 00 10 00 00 00 00 00 00 00 00 00 00   ................
| end corrupt028a.txt.db
.testctrl prng_seed 1 db
.testctrl internal_functions
SELECT * FROM t1;

