.open --hexdb
| size 4096 pagesize 512 filename corrupt031.txt.db
| page 1 offset 0
|      0: 53 51 4c 69 74 65 20 66 6f 72 6d 61 74 20 33 00   SQLite format 3.
|     16: 02 00 01 01 00 40 20 20 00 00 00 02 00 00 00 06   .....@  ........
|     32: 00 00 00 00 00 00 00 00 00 00 00 01 00 00 00 04   ................
|     48: 00 00 00 00 00 00 00 00 00 00 00 01 00 00 00 00   ................
|     80: 00 00 00 00 00 00 00 00 00 00 00 00 00 00 00 02   ................
|     96: 00 2e 24 80 0d 00 00 00 01 01 c2 00 01 c2 00 00   ..$.............
|    448: 00 00 3c 01 06 17 11 11 01 65 74 61 62 6c 65 74   ..<......etablet
|    464: 31 74 31 02 43 52 45 41 54 45 20 54 41 42 4c 45   1t1.CREATE TABLE
|    480: 20 74 31 28 61 20 49 4e 54 45 47 45 52 20 50 52    t1(a INTEGER PR
|    496: 49 4d 41 52 59 20 4b 45 59 2c 20 62 2c 20 63 29   IMARY KEY, b, c)
| page 2 offset 512
|      0: 0d 00 00 00 01 01 d2 00 01 d2 00 00 00 00 00 00   ................
|    464: 00 00 8f 57 08 05 00 02 9f 2c 07 d0 00 00 00 00   ...W.....,......
|    496: 00 00 00 00 00 00 00 00 00 00 00 00 00 00 00 03   ................
| page 3 offset 1024
|      0: 00 00 00 04 00 00 00 00 00 00 00 00 00 00 00 00   ................
| page 4 offset 1536
|      0: 00 00 00 05 00 00 00 00 00 00 00 00 00 00 00 00   ................
| page 5 offset 2048
|      0: 00 00 00 02 00 00 00 00 00 00 00 00 00 00 00 00   ................
| end corrupt031.txt.db
.testctrl prng_seed 1 db
.testctrl internal_functions
UPDATE t1 SET c=b, b=c WHERE a=8;

