.open --hexdb
| size 4096 pagesize 1024 filename corrupt002.txt.db
| page 1 offset 0
|      0: 53 51 4c 69 74 65 20 66 6f 72 6d 61 74 20 33 00   SQLite format 3.
|     16: 04 00 01 01 00 40 20 20 00 00 00 02 00 00 00 02   .....@  ........
|     32: 00 00 00 00 00 00 00 00 00 00 00 01 00 00 00 04   ................
|     48: 00 00 00 00 00 00 00 00 00 00 00 01 00 00 00 00   ................
|     80: 00 00 00 00 00 00 00 00 00 00 00 00 00 00 00 02   ................
|     96: 00 2d e6 0b 0d 00 00 00 01 03 dc 00 03 dc 00 00   .-..............
|    976: 00 00 00 00 00 00 00 00 00 00 00 00 22 01 06 17   ................
|    992: 11 11 01 31 74 61 62 6c 65 74 31 74 31 02 43 52   ...1tablet1t1.CR
|   1008: 45 41 54 45 20 54 41 42 4c 45 20 74 31 28 61 29   EATE TABLE t1(a)
| page 2 offset 1024
|      0: 0a 00 00 00 01 03 fc 00 03 fc 00 00 00 00 00 00   ................
|   1008: 00 00 00 00 00 00 00 00 00 00 00 00 02 01 02 09   ................
| end corrupt002.txt.db
.testctrl prng_seed 1 db
.testctrl internal_functions
DELETE FROM t1;

