.open --hexdb
| size 8192 pagesize 512 filename corrupt022.txt.db
| page 1 offset 0
|      0: 53 51 4c 69 74 65 20 66 6f 72 6d 61 74 20 33 00   SQLite format 3.
|     16: 02 00 01 01 00 40 20 20 00 00 00 08 00 00 00 0b   .....@  ........
|     32: 00 00 00 04 00 00 00 03 00 00 00 05 00 00 00 04   ................
|     48: 00 00 00 00 00 00 00 03 00 00 00 01 00 00 00 00   ................
|     80: 00 00 00 00 00 00 00 00 00 00 00 00 00 00 00 08   ................
|     96: 00 2d e6 0a 05 00 00 00 00 00 78 00 00 00 00 0b   .-........x.....
|    112: 01 8e 01 8a 00 00 00 00 00 00 00 00 00 00 00 00   ................
|    384: 00 00 00 00 00 00 00 00 00 00 00 04 01 04 24 03   ..............$.
|    400: 06 17 11 11 01 35 74 61 62 6c 65 74 33 74 33 06   .....5tablet3t3.
|    416: 43 52 45 41 54 45 20 54 41 42 4c 45 20 74 33 28   CREATE TABLE t3(
|    432: 61 2c 62 29 24 02 06 17 11 11 01 35 74 61 62 6c   a,b)$......5tabl
|    448: 65 74 32 74 32 03 43 52 45 41 54 45 20 54 41 42   et2t2.CREATE TAB
|    464: 4c 45 20 74 32 28 61 2c 62 29 24 01 06 17 11 11   LE t2(a,b)$.....
|    480: 01 35 74 61 62 6c 65 74 31 74 31 02 43 52 45 41   .5tablet1t1.CREA
|    496: 54 45 20 54 41 42 4c 45 20 74 31 28 61 2c 62 29   TE TABLE t1(a,b)
| page 2 offset 512
|      0: 05 00 00 00 01 02 fb 00 00 00 00 05 01 fb 01 e1   ................
|     16: 01 d9 01 d1 01 c9 01 c1 01 b9 01 b1 01 a9 01 a1   ................
|     32: 01 99 01 91 01 89 01 81 01 79 01 71 01 69 01 61   .........y.q.i.a
|     48: 01 59 01 51 01 49 01 41 01 39 01 31 01 29 01 21   .Y.Q.I.A.9.1.).!
|     64: 01 19 01 11 01 09 01 01 00 f9 00 f1 00 e9 00 e1   ................
|     80: 00 d9 00 d1 00 c9 00 c1 00 b9 00 b1 00 a9 00 a1   ................
|     96: 00 99 00 91 00 89 00 81 00 79 00 71 00 00 00 00   .........y.q....
|    112: 00 06 32 03 01 02 32 04 1a 06 31 03 01 02 31 04   ..2...2...1...1.
|    128: 19 06 30 03 01 02 30 04 18 06 2f 03 01 02 2f 04   ..0...0.../.../.
|    144: 17 06 2e 03 01 02 2e 04 16 06 2d 03 01 02 2d 04   ..........-...-.
|    160: 15 06 2c 03 01 02 2c 04 14 06 2b 03 01 02 2b 04   ..,...,...+...+.
|    176: 13 06 2a 03 01 02 2a 04 12 06 29 03 01 02 29 04   ..*...*...)...).
|    192: 11 06 28 03 01 02 28 04 10 06 27 03 01 02 27 04   ..(...(...'...'.
|    208: 0f 06 26 03 01 02 26 04 0e 06 25 03 01 02 25 04   ..&...&...%...%.
|    224: 0d 06 24 03 01 02 24 04 0c 06 23 03 01 02 23 04   ..$...$...#...#.
|    240: 0b 06 22 03 01 02 22 04 0a 06 21 03 01 02 21 04   ..........!...!.
|    256: 09 06 20 03 01 02 20 04 08 06 1f 03 01 02 1f 04   .. ... .........
|    272: 07 06 1e 03 01 02 1e 04 06 06 1d 03 01 02 1d 04   ................
|    288: 05 06 1c 03 01 02 1c 04 04 06 1b 03 01 02 1b 04   ................
|    304: 03 06 1a 03 01 02 1a 04 02 06 19 03 01 02 19 04   ................
|    320: 01 06 18 03 01 02 18 04 00 06 17 03 01 02 17 03   ................
|    336: ff 06 16 03 01 02 16 03 fe 06 15 03 01 02 15 03   ................
|    352: fd 06 14 03 01 02 14 03 fc 06 13 03 01 02 13 03   ................
|    368: fb 06 12 03 01 02 12 03 fa 06 11 03 01 02 11 03   ................
|    384: f9 06 10 03 01 02 10 03 f8 06 0f 03 01 02 0f 03   ................
|    400: f7 06 0e 03 01 02 0e 03 f6 06 0d 03 01 02 0d 03   ................
|    416: f5 06 0c 03 01 02 0c 03 f4 06 0b 03 01 02 0b 03   ................
|    432: f3 06 0a 03 01 02 0a 03 f2 06 09 03 01 02 09 03   ................
|    448: f1 06 08 03 01 02 08 03 f0 06 07 03 01 02 07 03   ................
|    464: ef 06 06 03 01 02 06 03 ee 06 05 03 01 02 05 03   ................
|    480: ed 06 04 03 01 02 04 03 ec 06 03 03 01 02 03 03   ................
|    496: eb 06 02 03 01 02 02 03 ea 05 01 00 00 00 04 32   ...............2
| page 3 offset 1024
|      0: 05 00 00 00 01 01 fb 00 00 00 00 08 01 fb 01 e1   ................
|     16: 01 d9 01 d1 01 c9 01 c1 01 b9 01 b1 01 a9 01 a1   ................
|     32: 01 99 01 91 01 89 01 81 01 79 01 71 01 69 01 61   .........y.q.i.a
|     48: 01 59 01 51 01 49 01 41 01 39 01 31 01 29 01 21   .Y.Q.I.A.9.1.).!
|     64: 01 19 01 11 01 09 01 01 00 f9 00 f1 00 e9 00 e1   ................
|     80: 00 d9 00 d1 00 c9 00 c1 00 b9 00 b1 00 a9 00 a1   ................
|     96: 00 99 00 91 00 89 00 81 00 79 00 71 00 00 00 00   .........y.q....
|    112: 00 06 32 03 01 02 32 04 1a 06 31 03 01 02 31 04   ..2...2...1...1.
|    128: 19 06 30 03 01 02 30 04 18 06 2f 03 01 02 2f 04   ..0...0.../.../.
|    144: 17 06 2e 03 01 02 2e 04 16 06 2d 03 01 02 2d 04   ..........-...-.
|    160: 15 06 2c 03 01 02 2c 04 14 06 2b 03 01 02 2b 04   ..,...,...+...+.
|    176: 13 06 2a 03 01 02 2a 04 12 06 29 03 01 02 29 04   ..*...*...)...).
|    192: 11 06 28 03 01 02 28 04 10 06 27 03 01 02 27 04   ..(...(...'...'.
|    208: 0f 06 26 03 01 02 26 04 0e 06 25 03 01 02 25 04   ..&...&...%...%.
|    224: 0d 06 24 03 01 02 24 04 0c 06 23 03 01 02 23 04   ..$...$...#...#.
|    240: 0b 06 22 03 01 02 22 04 0a 06 21 03 01 02 21 04   ..........!...!.
|    256: 09 06 20 03 01 02 20 04 08 06 1f 03 01 02 1f 04   .. ... .........
|    272: 07 06 1e 03 01 02 1e 04 06 06 1d 03 01 02 1d 04   ................
|    288: 05 06 1c 03 01 02 1c 04 04 06 1b 03 01 02 1b 04   ................
|    304: 03 06 1a 03 01 02 1a 04 02 06 19 03 01 02 19 04   ................
|    320: 01 06 18 03 01 02 18 04 00 06 17 03 01 02 17 03   ................
|    336: ff 06 16 03 01 02 16 03 fe 06 15 03 01 02 15 03   ................
|    352: fd 06 14 03 01 02 14 03 fc 06 13 03 01 02 13 03   ................
|    368: fb 06 12 03 01 02 12 03 fa 06 11 03 01 02 11 03   ................
|    384: f9 06 10 03 01 02 10 03 f8 06 0f 03 01 02 0f 03   ................
|    400: f7 06 0e 03 01 02 0e 03 f6 06 0d 03 01 02 0d 03   ................
|    416: f5 06 0c 03 01 02 0c 03 f4 06 0b 03 01 02 0b 03   ................
|    432: f3 06 0a 03 01 02 0a 03 f2 06 09 03 01 02 09 03   ................
|    448: f1 06 08 03 01 02 08 03 f0 06 07 03 01 02 07 03   ................
|    464: ef 06 06 03 01 02 06 03 ee 06 05 03 01 02 05 03   ................
|    480: ed 06 04 03 01 02 04 03 ec 06 03 03 01 02 03 03   ................
|    496: eb 06 02 03 01 02 02 03 ea 05 01 00 00 00 07 32   ...............2
| page 4 offset 1536
|      0: 00 00 00 00 00 00 00 02 00 00 00 05 00 00 00 04   ................
|     16: 01 d9 01 d1 01 c9 01 c1 01 b9 01 b1 01 a9 01 a1   ................
|     32: 01 99 01 91 01 89 01 81 01 79 01 71 01 69 01 61   .........y.q.i.a
|     48: 01 59 01 51 01 49 01 41 01 39 01 31 01 29 01 21   .Y.Q.I.A.9.1.).!
|     64: 01 19 01 11 01 09 01 01 00 f9 00 f1 00 e9 00 e1   ................
|     80: 00 d9 00 d1 00 c9 00 c1 00 b9 00 b1 00 a9 00 a1   ................
|     96: 00 99 00 91 00 89 00 81 00 79 00 71 00 00 00 00   .........y.q....
|    112: 00 06 32 03 01 02 32 04 1a 06 31 03 01 02 31 04   ..2...2...1...1.
|    128: 19 06 30 03 01 02 30 04 18 06 2f 03 01 02 2f 04   ..0...0.../.../.
|    144: 17 06 2e 03 01 02 2e 04 16 06 2d 03 01 02 2d 04   ..........-...-.
|    160: 15 06 2c 03 01 02 2c 04 14 06 2b 03 01 02 2b 04   ..,...,...+...+.
|    176: 13 06 2a 03 01 02 2a 04 12 06 29 03 01 02 29 04   ..*...*...)...).
|    192: 11 06 28 03 01 02 28 04 10 06 27 03 01 02 27 04   ..(...(...'...'.
|    208: 0f 06 26 03 01 02 26 04 0e 06 25 03 01 02 25 04   ..&...&...%...%.
|    224: 0d 06 24 03 01 02 24 04 0c 06 23 03 01 02 23 04   ..$...$...#...#.
|    240: 0b 06 22 03 01 02 22 04 0a 06 21 03 01 02 21 04   ..........!...!.
|    256: 09 06 20 03 01 02 20 04 08 06 1f 03 01 02 1f 04   .. ... .........
|    272: 07 06 1e 03 01 02 1e 04 06 06 1d 03 01 02 1d 04   ................
|    288: 05 06 1c 03 01 02 1c 04 04 06 1b 03 01 02 1b 04   ................
|    304: 03 06 1a 03 01 02 1a 04 02 06 19 03 01 02 19 04   ................
|    320: 01 06 18 03 01 02 18 04 00 06 17 03 01 02 17 03   ................
|    336: ff 06 16 03 01 02 16 03 fe 06 15 03 01 02 15 03   ................
|    352: fd 06 14 03 01 02 14 03 fc 06 13 03 01 02 13 03   ................
|    368: fb 06 12 03 01 02 12 03 fa 06 11 03 01 02 11 03   ................
|    384: f9 06 10 03 01 02 10 03 f8 06 0f 03 01 02 0f 03   ................
|    400: f7 06 0e 03 01 02 0e 03 f6 06 0d 03 01 02 0d 03   ................
|    416: f5 06 0c 03 01 02 0c 03 f4 06 0b 03 01 02 0b 03   ................
|    432: f3 06 0a 03 01 02 0a 03 f2 06 09 03 01 02 09 03   ................
|    448: f1 06 08 03 01 02 08 03 f0 06 07 03 01 02 07 03   ................
|    464: ef 06 06 03 01 02 06 03 ee 06 05 03 01 02 05 03   ................
|    480: ed 06 04 03 01 02 04 03 ec 06 03 03 01 02 03 03   ................
|    496: eb 06 02 03 01 02 02 03 ea 05 01 03 09 02 03 e9   ................
| page 5 offset 2048
|      0: 0d 00 00 00 32 00 70 00 01 f8 01 f0 01 e8 01 e0   ....2.p.........
|     16: 01 d8 01 d0 01 c8 01 c0 01 b8 01 b0 01 a8 01 a0   ................
|     32: 01 98 01 90 01 88 01 80 01 78 01 70 01 68 01 60   .........x.p.h.`
|     48: 01 58 01 50 01 48 01 40 01 38 01 30 01 28 01 20   .X.P.H.@.8.0.(. 
|     64: 01 18 01 10 01 08 01 00 00 f8 00 f0 00 e8 00 e0   ................
|     80: 00 d8 00 d0 00 c8 00 c0 00 b8 00 b0 00 a8 00 a0   ................
|     96: 00 98 00 90 00 88 00 80 00 78 00 70 00 00 00 00   .........x.p....
|    112: 06 64 03 01 02 64 04 4c 06 63 03 01 02 63 04 4b   .d...d.L.c...c.K
|    128: 06 62 03 01 02 62 04 4a 06 61 03 01 02 61 04 49   .b...b.J.a...a.I
|    144: 06 60 03 01 02 60 04 48 06 5f 03 01 02 5f 04 47   .`...`.H._..._.G
|    160: 06 5e 03 01 02 5e 04 46 06 5d 03 01 02 5d 04 45   .^...^.F.]...].E
|    176: 06 5c 03 01 02 5c 04 44 06 5b 03 01 02 5b 04 43   .......D.[...[.C
|    192: 06 5a 03 01 02 5a 04 42 06 59 03 01 02 59 04 41   .Z...Z.B.Y...Y.A
|    208: 06 58 03 01 02 58 04 40 06 57 03 01 02 57 04 3f   .X...X.@.W...W.?
|    224: 06 56 03 01 02 56 04 3e 06 55 03 01 02 55 04 3d   .V...V.>.U...U.=
|    240: 06 54 03 01 02 54 04 3c 06 53 03 01 02 53 04 3b   .T...T.<.S...S.;
|    256: 06 52 03 01 02 52 04 3a 06 51 03 01 02 51 04 39   .R...R.:.Q...Q.9
|    272: 06 50 03 01 02 50 04 38 06 4f 03 01 02 4f 04 37   .P...P.8.O...O.7
|    288: 06 4e 03 01 02 4e 04 36 06 4d 03 01 02 4d 04 35   .N...N.6.M...M.5
|    304: 06 4c 03 01 02 4c 04 34 06 4b 03 01 02 4b 04 33   .L...L.4.K...K.3
|    320: 06 4a 03 01 02 4a 04 32 06 49 03 01 02 49 04 31   .J...J.2.I...I.1
|    336: 06 48 03 01 02 48 04 30 06 47 03 01 02 47 04 2f   .H...H.0.G...G./
|    352: 06 46 03 01 02 46 04 2e 06 45 03 01 02 45 04 2d   .F...F...E...E.-
|    368: 06 44 03 01 02 44 04 2c 06 43 03 01 02 43 04 2b   .D...D.,.C...C.+
|    384: 06 42 03 01 02 42 04 2a 06 41 03 01 02 41 04 29   .B...B.*.A...A.)
|    400: 06 40 03 01 02 40 04 28 06 3f 03 01 02 3f 04 27   .@...@.(.?...?.'
|    416: 06 3e 03 01 02 3e 04 26 06 3d 03 01 02 3d 04 25   .>...>.&.=...=.%
|    432: 06 3c 03 01 02 3c 04 24 06 3b 03 01 02 3b 04 23   .<...<.$.;...;.#
|    448: 06 3a 03 01 02 3a 04 22 06 39 03 01 02 39 04 21   .:...:...9...9.!
|    464: 06 38 03 01 02 38 04 20 06 37 03 01 02 37 04 1f   .8...8. .7...7..
|    480: 06 36 03 01 02 36 04 1e 06 35 03 01 02 35 04 1d   .6...6...5...5..
|    496: 06 34 03 01 02 34 04 1c 06 33 03 01 02 33 04 1b   .4...4...3...3..
| page 6 offset 2560
|      0: 0d 00 00 00 01 01 98 00 01 98 00 00 00 00 00 00   ................
|    400: 00 00 00 00 00 00 00 00 84 5d 01 04 01 89 3c 7b   .........]....<.
|    496: 00 00 00 00 00 00 00 00 00 00 00 00 00 00 00 09   ................
| page 7 offset 3072
|      0: 0d 00 00 00 32 00 71 00 01 f9 01 f1 01 e9 01 e1   ....2.q.........
|     16: 01 d9 01 d1 01 c9 01 c1 01 b9 01 b1 01 a9 01 a1   ................
|     32: 01 99 01 91 01 89 01 81 01 79 01 71 01 69 01 61   .........y.q.i.a
|     48: 01 59 01 51 01 49 01 41 01 39 01 31 01 29 01 21   .Y.Q.I.A.9.1.).!
|     64: 01 19 01 11 01 09 01 01 00 f9 00 f1 00 e9 00 e1   ................
|     80: 00 d9 00 d1 00 c9 00 c1 00 b9 00 b1 00 a9 00 a1   ................
|     96: 00 99 00 91 00 89 00 81 00 79 00 71 00 00 00 00   .........y.q....
|    112: 00 06 32 03 01 02 32 04 1a 06 31 03 01 02 31 04   ..2...2...1...1.
|    128: 19 06 30 03 01 02 30 04 18 06 2f 03 01 02 2f 04   ..0...0.../.../.
|    144: 17 06 2e 03 01 02 2e 04 16 06 2d 03 01 02 2d 04   ..........-...-.
|    160: 15 06 2c 03 01 02 2c 04 14 06 2b 03 01 02 2b 04   ..,...,...+...+.
|    176: 13 06 2a 03 01 02 2a 04 12 06 29 03 01 02 29 04   ..*...*...)...).
|    192: 11 06 28 03 01 02 28 04 10 06 27 03 01 02 27 04   ..(...(...'...'.
|    208: 0f 06 26 03 01 02 26 04 0e 06 25 03 01 02 25 04   ..&...&...%...%.
|    224: 0d 06 24 03 01 02 24 04 0c 06 23 03 01 02 23 04   ..$...$...#...#.
|    240: 0b 06 22 03 01 02 22 04 0a 06 21 03 01 02 21 04   ..........!...!.
|    256: 09 06 20 03 01 02 20 04 08 06 1f 03 01 02 1f 04   .. ... .........
|    272: 07 06 1e 03 01 02 1e 04 06 06 1d 03 01 02 1d 04   ................
|    288: 05 06 1c 03 01 02 1c 04 04 06 1b 03 01 02 1b 04   ................
|    304: 03 06 1a 03 01 02 1a 04 02 06 19 03 01 02 19 04   ................
|    320: 01 06 18 03 01 02 18 04 00 06 17 03 01 02 17 03   ................
|    336: ff 06 16 03 01 02 16 03 fe 06 15 03 01 02 15 03   ................
|    352: fd 06 14 03 01 02 14 03 fc 06 13 03 01 02 13 03   ................
|    368: fb 06 12 03 01 02 12 03 fa 06 11 03 01 02 11 03   ................
|    384: f9 06 10 03 01 02 10 03 f8 06 0f 03 01 02 0f 03   ................
|    400: f7 06 0e 03 01 02 0e 03 f6 06 0d 03 01 02 0d 03   ................
|    416: f5 06 0c 03 01 02 0c 03 f4 06 0b 03 01 02 0b 03   ................
|    432: f3 06 0a 03 01 02 0a 03 f2 06 09 03 01 02 09 03   ................
|    448: f1 06 08 03 01 02 08 03 f0 06 07 03 01 02 07 03   ................
|    464: ef 06 06 03 01 02 06 03 ee 06 05 03 01 02 05 03   ................
|    480: ed 06 04 03 01 02 04 03 ec 06 03 03 01 02 03 03   ................
|    496: eb 06 02 03 01 02 02 03 ea 05 01 03 09 02 03 e9   ................
| page 8 offset 3584
|      0: 0d 00 00 00 32 00 70 00 01 f8 01 f0 01 e8 01 e0   ....2.p.........
|     16: 01 d8 01 d0 01 c8 01 c0 01 b8 01 b0 01 a8 01 a0   ................
|     32: 01 98 01 90 01 88 01 80 01 78 01 70 01 68 01 60   .........x.p.h.`
|     48: 01 58 01 50 01 48 01 40 01 38 01 30 01 28 01 20   .X.P.H.@.8.0.(. 
|     64: 01 18 01 10 01 08 01 00 00 f8 00 f0 00 e8 00 e0   ................
|     80: 00 d8 00 d0 00 c8 00 c0 00 b8 00 b0 00 a8 00 a0   ................
|     96: 00 98 00 90 00 88 00 80 00 78 00 70 00 00 00 00   .........x.p....
|    112: 06 64 03 01 02 64 04 4c 06 63 03 01 02 63 04 4b   .d...d.L.c...c.K
|    128: 06 62 03 01 02 62 04 4a 06 61 03 01 02 61 04 49   .b...b.J.a...a.I
|    144: 06 60 03 01 02 60 04 48 06 5f 03 01 02 5f 04 47   .`...`.H._..._.G
|    160: 06 5e 03 01 02 5e 04 46 06 5d 03 01 02 5d 04 45   .^...^.F.]...].E
|    176: 06 5c 03 01 02 5c 04 44 06 5b 03 01 02 5b 04 43   .......D.[...[.C
|    192: 06 5a 03 01 02 5a 04 42 06 59 03 01 02 59 04 41   .Z...Z.B.Y...Y.A
|    208: 06 58 03 01 02 58 04 40 06 57 03 01 02 57 04 3f   .X...X.@.W...W.?
|    224: 06 56 03 01 02 56 04 3e 06 55 03 01 02 55 04 3d   .V...V.>.U...U.=
|    240: 06 54 03 01 02 54 04 3c 06 53 03 01 02 53 04 3b   .T...T.<.S...S.;
|    256: 06 52 03 01 02 52 04 3a 06 51 03 01 02 51 04 39   .R...R.:.Q...Q.9
|    272: 06 50 03 01 02 50 04 38 06 4f 03 01 02 4f 04 37   .P...P.8.O...O.7
|    288: 06 4e 03 01 02 4e 04 36 06 4d 03 01 02 4d 04 35   .N...N.6.M...M.5
|    304: 06 4c 03 01 02 4c 04 34 06 4b 03 01 02 4b 04 33   .L...L.4.K...K.3
|    320: 06 4a 03 01 02 4a 04 32 06 49 03 01 02 49 04 31   .J...J.2.I...I.1
|    336: 06 48 03 01 02 48 04 30 06 47 03 01 02 47 04 2f   .H...H.0.G...G./
|    352: 06 46 03 01 02 46 04 2e 06 45 03 01 02 45 04 2d   .F...F...E...E.-
|    368: 06 44 03 01 02 44 04 2c 06 43 03 01 02 43 04 2b   .D...D.,.C...C.+
|    384: 06 42 03 01 02 42 04 2a 06 41 03 01 02 41 04 29   .B...B.*.A...A.)
|    400: 06 40 03 01 02 40 04 28 06 3f 03 01 02 3f 04 27   .@...@.(.?...?.'
|    416: 06 3e 03 01 02 3e 04 26 06 3d 03 01 02 3d 04 25   .>...>.&.=...=.%
|    432: 06 3c 03 01 02 3c 04 24 06 3b 03 01 02 3b 04 23   .<...<.$.;...;.#
|    448: 06 3a 03 01 02 3a 04 22 06 39 03 01 02 39 04 21   .:...:...9...9.!
|    464: 06 38 03 01 02 38 04 20 06 37 03 01 02 37 04 1f   .8...8. .7...7..
|    480: 06 36 03 01 02 36 04 1e 06 35 03 01 02 35 04 1d   .6...6...5...5..
|    496: 06 34 03 01 02 34 04 1c 06 33 03 01 02 33 04 1b   .4...4...3...3..
| page 10 offset 4608
|      0: 0d 00 00 00 00 02 00 00 00 00 00 00 00 00 00 00   ................
| page 11 offset 5120
|      0: 0d 00 00 00 04 00 24 00 01 b4 01 8e 00 24 00 24   ......$......$.$
|     32: 00 00 00 00 ff 7f ff ff 20 11 11 01 85 39 74 61   ........ ....9ta
|     48: 62 6c 65 74 34 74 34 0a 43 52 45 41 54 45 20 54   blet4t4.CREATE T
|     64: 41 42 4c 45 20 74 34 28 0a 20 20 61 20 54 45 58   ABLE t4(.  a TEX
|     80: 54 20 44 45 46 41 55 4c 54 20 27 30 31 32 33 34   T DEFAULT '01234
|     96: 35 36 37 38 39 20 30 31 32 33 34 35 36 37 38 39   56789 0123456789
|    112: 20 30 31 32 33 34 35 36 37 38 39 20 30 31 32 33    0123456789 0123
|    128: 34 35 36 37 38 39 20 27 2c 0a 20 20 62 20 54 45   456789 ',.  b TE
|    144: 58 54 20 44 45 46 41 55 4c 54 20 27 30 31 32 33   XT DEFAULT '0123
|    160: 34 35 36 37 38 39 20 30 31 32 33 34 35 36 37 38   456789 012345678
|    176: 39 20 30 31 32 33 34 35 36 37 38 39 20 30 31 32   9 0123456789 012
|    192: 33 34 35 36 37 38 39 20 27 2c 0a 20 20 63 20 54   3456789 ',.  c T
|    208: 45 58 54 20 44 45 46 41 55 4c 54 20 27 30 31 32   EXT DEFAULT '012
|    224: 33 34 35 36 37 38 39 20 30 31 32 33 34 35 36 37   3456789 01234567
|    240: 38 39 20 30 31 32 33 34 35 36 37 38 39 20 30 31   89 0123456789 01
|    256: 32 33 34 35 36 37 38 39 20 27 2c 0a 20 20 64 20   23456789 ',.  d 
|    272: 54 45 58 54 20 44 45 46 41 55 4c 54 20 27 30 31   TEXT DEFAULT '01
|    288: 32 33 34 35 36 37 38 39 20 30 31 32 33 34 35 36   23456789 0123456
|    304: 37 38 39 20 30 31 32 33 34 35 36 37 38 39 20 30   789 0123456789 0
|    320: 31 32 33 34 35 36 37 38 39 20 27 2c 0a 20 20 65   123456789 ',.  e
|    336: 20 54 45 58 54 20 44 45 46 41 55 4c 54 20 27 30    TEXT DEFAULT '0
|    352: 31 32 33 34 35 36 37 38 39 20 30 31 32 33 34 35   123456789 012345
|    368: 36 37 38 39 20 30 31 32 33 34 35 36 37 38 39 20   6789 0123456789 
|    384: 30 31 32 33 34 35 36 37 38 39 20 27 0a 29 24 03   0123456789 '.)$.
|    400: 06 17 11 11 01 35 74 61 62 6c 65 74 33 74 33 06   .....5tablet3t3.
|    416: 43 52 45 41 54 45 20 54 41 42 4c 45 20 74 33 28   CREATE TABLE t3(
|    432: 61 2c 62 29 24 02 06 17 11 11 01 35 74 61 62 6c   a,b)$......5tabl
|    448: 65 74 32 74 32 03 43 52 45 41 54 45 20 54 41 42   et2t2.CREATE TAB
|    464: 4c 45 20 74 32 28 61 2c 62 29 00 00 00 26 11 11   LE t2(a,b)...&..
|    480: 01 35 74 61 62 6c 65 74 31 74 31 02 43 52 45 41   .5tablet1t1.CREA
|    496: 54 45 20 54 41 42 4c 45 20 74 31 28 61 2c 62 29   TE TABLE t1(a,b)
| end corrupt022.txt.db
.testctrl prng_seed 1 db
.testctrl internal_functions
PRAGMA writable_schema=ON; -- disable corrupt schema reporting
CREATE TABLE tx(x,y);

