.open --hexdb
| size 4096 pagesize 1024 filename corrupt017.txt.db
| page 1 offset 0
|      0: 53 51 4c 69 74 65 20 66 6f 72 6d 61 74 20 33 00   SQLite format 3.
|     16: 04 00 01 01 00 40 20 20 00 00 00 02 00 00 00 02   .....@  ........
|     32: 00 00 00 00 00 00 00 00 00 00 00 01 00 00 00 04   ................
|     48: 00 00 00 00 00 00 00 00 00 00 00 01 00 00 00 00   ................
|     80: 00 00 00 00 00 00 00 00 00 00 00 00 00 00 00 02   ................
|     96: 00 2d e6 0b 0d 00 00 00 01 03 ba 00 03 ba 00 00   .-..............
|    944: 00 00 00 00 00 00 00 00 00 00 44 01 06 17 11 11   ..........D.....
|    960: 01 75 74 61 62 6c 65 74 31 74 31 02 43 52 45 41   .utablet1t1.CREA
|    976: 54 45 20 54 41 42 4c 45 20 74 31 28 61 20 54 45   TE TABLE t1(a TE
|    992: 58 54 20 50 52 49 4d 41 52 59 20 4b 45 59 2c 20   XT PRIMARY KEY, 
|   1008: 62 29 20 57 49 54 48 4f 55 54 20 52 4f 57 49 44   b) WITHOUT ROWID
| page 2 offset 1024
|      0: 0a 00 00 00 03 03 e7 00 03 f9 03 e7 03 f1 00 00   ................
|    992: 00 00 00 00 00 00 00 09 03 17 01 74 68 72 65 65   ...........three
|   1008: 03 00 03 13 01 74 77 6f 02 06 03 13 09 6f 6e 65   .....two.....one
| end corrupt017.txt.db
.testctrl prng_seed 1 db
.testctrl internal_functions
VACUUM;

