.open --hexdb
| size 28672 pagesize 4096 filename corrupt054b.txt.db
| page 1 offset 0
|      0: 53 51 4c 69 74 65 20 66 6f 72 6d 61 74 20 33 00   SQLite format 3.
|     16: 10 00 01 01 00 40 20 20 00 00 00 00 00 00 00 07   .....@  ........
|     32: 00 00 00 00 00 00 00 00 00 00 00 04 00 00 00 04   ................
|     48: 00 00 00 00 00 00 00 00 00 00 00 01 00 00 00 00   ................
|     96: 00 00 00 00 0d 0f f8 00 06 0e f0 00 0f 74 0f d3   .............t..
|    112: 0f ae 0f 48 0f 1c 0e f0 00 00 00 00 00 00 00 00   ...H............
|   3824: 2a 06 06 17 13 11 01 3f 69 6e 64 65 78 74 31 63   *......?indext1c
|   3840: 74 31 07 43 52 45 41 54 45 20 49 4e 44 45 58 20   t1.CREATE INDEX 
|   3856: 74 31 63 20 4f 4e 20 74 31 28 63 29 2a 05 06 17   t1c ON t1(c)*...
|   3872: 13 11 01 3f 69 6e 64 65 78 74 31 62 74 31 06 43   ...?indext1bt1.C
|   3888: 52 45 41 54 45 20 49 4e 44 45 58 20 74 31 62 20   REATE INDEX t1b 
|   3904: 4f 4e 20 74 31 28 62 29 2a 04 06 17 13 11 01 3f   ON t1(b)*......?
|   3920: 69 6e 64 65 78 74 31 61 74 31 05 43 52 45 41 54   indext1at1.CREAT
|   3936: 45 20 49 4e 44 45 58 20 74 31 61 20 4f 4e 20 74   E INDEX t1a ON t
|   3952: 31 28 61 29 38 01 06 17 11 11 01 5d 74 61 62 6c   1(a)8......]tabl
|   3968: 65 74 31 74 31 02 43 52 45 41 54 45 20 54 41 42   et1t1.CREATE TAB
|   3984: 4c 45 20 74 31 28 61 2c 62 2c 63 2c 64 20 55 4e   LE t1(a,b,c,d UN
|   4000: 49 51 55 45 2c 65 20 55 4e 49 51 55 45 29 23 03   IQUE,e UNIQUE)#.
|   4016: 06 17 37 11 01 00 69 6e 64 65 78 73 71 6c 69 74   ..7...indexsqlit
|   4032: 65 5f 61 75 74 6f 69 6e 64 65 78 5f 74 31 5f 32   e_autoindex_t1_2
|   4048: 74 31 05 23 02 06 17 37 11 01 00 69 6e 64 65 78   t1.#...7...index
|   4064: 73 71 6c 69 74 65 5f 61 75 74 6f 69 6e 64 65 78   sqlite_autoindex
|   4080: 5f 74 31 5f 31 74 31 03 00 00 00 08 00 00 00 00   _t1_1t1.........
| page 2 offset 4096
|      0: 0d 00 00 00 02 0f d4 00 0f f4 0f d4 00 00 00 00   ................
|   4048: 00 00 00 00 1e 02 06 13 19 19 17 15 72 65 64 6f   ............redo
|   4064: 72 61 6e 67 65 79 65 6c 6c 6f 77 67 72 65 65 6e   rangeyellowgreen
|   4080: 62 6c 75 65 0a 01 06 09 01 01 01 01 02 03 04 05   blue............
| page 3 offset 8192
|      0: 0a 00 00 00 02 0f f1 00 0f fb 0f f1 00 00 00 00   ................
|   4080: 00 09 03 17 01 67 72 65 65 6e 02 04 03 01 09 04   .....green......
| page 4 offset 12288
|      0: 0a 00 00 00 02 0f f2 00 0f fb 0f f2 00 00 00 00   ................
|   4080: 00 00 08 03 15 01 62 6c 75 65 02 04 03 01 09 05   ......blue......
| page 5 offset 16384
|      0: 0a 00 00 00 02 0f f4 00 0f fc 0f f4 00 00 00 00   ................
|   4080: 00 00 00 00 07 03 13 01 72 65 64 02 03 03 09 09   ........red.....
| page 6 offset 20480
|      0: 0a 00 00 00 02 0f f0 00 0f fb 0f f0 00 00 00 00   ................
|   4080: 0a 03 19 01 6f 72 61 6e 67 65 02 04 03 01 09 02   ....orange......
| page 7 offset 24576
|      0: 0a 00 00 00 02 0f f0 00 0f fb 0f f0 00 00 00 00   ................
|   4080: 0a 03 19 01 79 65 6c 6c 6f 77 02 04 03 01 09 03   ....yellow......
| end corrupt054b.txt.db
.testctrl prng_seed 1 db
.testctrl internal_functions
INSERT INTO t1 VALUES(6,7,8,9,10);

