.open --hexdb
| size 8192 pagesize 512 filename corrupt016.txt.db
| page 1 offset 0
|      0: 53 51 4c 69 74 65 20 66 6f 72 6d 61 74 20 33 00   SQLite format 3.
|     16: 02 00 01 01 00 40 20 20 00 00 00 1b 00 00 00 0c   .....@  ........
|     32: 00 00 00 0c 00 00 00 04 00 00 00 05 00 00 00 04   ................
|     48: 00 00 00 00 00 00 00 00 00 00 00 01 00 00 00 00   ................
|     80: 00 00 00 00 00 00 00 00 00 00 00 00 00 00 00 1b   ................
|     96: 00 2d e6 0a 05 00 00 00 00 02 00 00 00 00 00 0b   .-..............
|    112: 01 fb 01 6f 00 00 00 00 00 00 00 00 00 00 00 00   ...o............
|    368: 04 01 04 24 03 06 17 11 11 01 35 74 61 62 6c 65   ...$......5table
|    384: 74 33 74 33 06 43 52 45 41 54 45 20 54 41 42 4c   t3t3.CREATE TABL
|    400: 45 20 74 33 28 61 2c 62 29 3f 02 06 17 11 11 01   E t3(a,b)?......
|    416: 6b 74 61 62 6c 65 74 32 74 32 03 43 52 45 41 54   ktablet2t2.CREAT
|    432: 45 20 54 41 42 4c 45 20 74 32 28 61 2c 20 62 20   E TABLE t2(a, b 
|    448: 50 52 49 4d 41 52 59 20 4b 45 59 29 20 57 49 54   PRIMARY KEY) WIT
|    464: 48 4f 55 54 20 52 4f 57 49 44 24 01 06 17 11 11   HOUT ROWID$.....
|    480: 01 35 74 61 62 6c 65 74 31 74 31 02 43 52 45 41   .5tablet1t1.CREA
|    496: 54 45 20 54 41 42 4c 45 20 74 31 00 00 00 0b 03   TE TABLE t1.....
| page 2 offset 512
|      0: 05 00 00 00 01 01 fb 00 00 00 00 05 01 fb 01 d4   ................
|     16: 01 cc 01 c5 01 bf 01 b9 01 b2 01 a9 01 a0 01 96   ................
|     32: 01 8a 01 7c 01 76 01 70 01 55 01 3f 01 31 01 27   ...|.v.p.U.?.1.'
|     48: 01 1d 01 13 01 09 00 ff 00 f5 00 eb 00 e1 00 d7   ................
|     64: 00 cd 00 c3 00 b9 00 af 00 a5 00 9b 00 91 00 87   ................
|     80: 00 7d 00 73 00 69 00 5f 00 00 00 00 00 00 00 08   ...s.i._........
|     96: 28 03 01 15 28 30 78 32 38 08 27 03 01 15 27 30   (...(0x28.'...'0
|    112: 78 32 37 08 26 03 01 15 26 30 78 32 36 08 25 03   x27.&...&0x26.%.
|    128: 01 15 25 30 78 32 35 08 24 03 01 15 24 30 78 32   ..%0x25.$...$0x2
|    144: 34 08 23 03 01 15 23 30 78 32 33 08 22 03 01 15   4.#...#0x23.....
|    160: 22 30 78 32 32 08 21 03 01 15 21 30 78 32 31 08   .0x22.!...!0x21.
|    176: 20 03 01 15 20 30 78 32 30 08 1f 03 01 15 1f 30    ... 0x20......0
|    192: 78 31 66 08 1e 03 01 15 1e 30 78 31 65 08 1d 03   x1f......0x1e...
|    208: 01 15 1d 30 78 31 64 08 1c 03 01 15 1c 30 78 31   ...0x1d......0x1
|    224: 63 08 1b 03 01 15 1b 30 78 31 62 08 1a 03 01 15   c......0x1b.....
|    240: 1a 30 78 31 61 08 19 03 01 15 19 30 78 31 39 08   .0x1a......0x19.
|    256: 18 03 01 15 18 30 78 31 38 08 17 03 01 15 17 30   .....0x18......0
|    272: 78 31 37 08 16 03 01 15 16 30 78 31 36 08 15 03   x17......0x16...
|    288: 01 15 15 30 78 31 35 08 14 03 01 15 14 30 78 31   ...0x15......0x1
|    304: 34 0c 13 03 01 07 13 3f d0 00 00 00 00 00 00 14   4......?........
|    320: 12 03 01 2c 12 25 ff e3 c1 f5 d4 a2 0f 0d fc be   ...,.%..........
|    336: 95 1e be 4a 16 19 11 03 01 37 11 6f 6c 79 6d 70   ...J.....7.olymp
|    352: 69 63 2d 62 61 6e 61 6e 61 2d 76 69 73 69 6f 6e   ic-banana-vision
|    368: 04 10 03 01 0c 10 04 0f 03 01 0d 0f 0c 0e 03 01   ................
|    384: 06 0e 7f ff ff ff ff ff ff ff 0a 0d 03 01 05 0d   ................
|    400: 7f ff ff ff ff ff 08 0c 03 01 04 0c 7f ff ff ff   ................
|    416: 07 0b 03 01 03 0b 7f ff ff 07 0a 03 01 03 0a 00   ................
|    432: 93 2d 05 09 03 01 01 09 7f 04 08 03 01 09 08 04   .-..............
|    448: 07 03 01 08 07 05 06 03 01 01 06 80 06 05 03 01   ................
|    464: 02 05 80 00 07 04 03 01 03 04 80 00 00 08 03 03   ................
|    480: 01 04 03 80 00 00 00 0a 02 03 01 05 02 80 00 00   ................
|    496: 00 00 00 0b 01 03 09 06 80 00 00 00 00 00 04 28   ...............(
| page 3 offset 1024
|      0: 02 00 00 00 01 01 f3 00 00 00 00 08 01 f3 01 d8   ................
|     16: 01 d1 01 cb 01 c6 01 44 01 c1 01 bb 01 b3 01 ab   .......D........
|     32: 01 a2 01 97 01 8a 01 85 01 3b 01 32 01 29 01 20   .........;.2.). 
|     48: 01 17 01 0e 01 05 00 fc 00 f3 00 ea 00 e1 00 d8   ................
|     64: 00 cf 00 c6 00 bd 00 b4 00 ab 00 a2 00 99 00 90   ................
|     80: 00 87 00 7e 00 75 00 6c 00 63 01 66 01 80 01 51   ...~.u.l.c.f...Q
|     96: 00 00 00 08 03 15 01 30 78 32 63 2c 08 03 15 01   .......0x2c,....
|    112: 30 78 32 62 2b 08 03 15 01 30 78 32 61 2a 08 03   0x2b+....0x2a*..
|    128: 15 01 30 78 32 39 29 08 03 15 01 30 78 32 38 28   ..0x29)....0x28(
|    144: 08 03 15 01 30 78 32 37 27 08 03 15 01 30 78 32   ....0x27'....0x2
|    160: 36 26 08 03 15 01 30 78 32 35 25 08 03 15 01 30   6&....0x25%....0
|    176: 78 32 34 24 08 03 15 01 30 78 32 33 23 08 03 15   x24$....0x23#...
|    192: 01 30 78 32 32 22 08 03 15 01 30 78 32 31 21 08   .0x22.....0x21!.
|    208: 03 15 01 30 78 32 30 20 08 03 15 01 30 78 31 66   ...0x20 ....0x1f
|    224: 1f 08 03 15 01 30 78 31 65 1e 08 03 15 01 30 78   .....0x1e.....0x
|    240: 31 64 1d 08 03 15 01 30 78 31 63 1c 08 03 15 01   1d.....0x1c.....
|    256: 30 78 31 62 1b 08 03 15 01 30 78 31 61 1a 08 03   0x1b.....0x1a...
|    272: 15 01 30 78 31 39 19 08 03 15 01 30 78 31 38 18   ..0x19.....0x18.
|    288: 08 03 15 01 30 78 31 37 17 08 03 15 01 30 78 31   ....0x17.....0x1
|    304: 36 16 08 03 15 01 30 78 31 35 15 08 03 15 01 30   6.....0x15.....0
|    320: 78 31 34 14 0c 03 07 01 3f d0 00 00 00 00 00 00   x14.....?.......
|    336: 13 14 03 2c 01 25 ff e3 c1 f5 d4 a2 0f 0d fc be   ...,.%..........
|    352: 95 1e be 4a 16 12 19 03 37 01 6f 6c 79 6d 70 69   ...J....7.olympi
|    368: 63 2d 62 61 6e 61 6e 61 2d 76 69 73 69 6f 6e 11   c-banana-vision.
|    384: 04 03 0c 01 10 04 03 0d 01 0f 0c 03 06 01 7f ff   ................
|    400: ff ff ff ff ff ff 0e 0a 03 05 01 7f ff ff ff ff   ................
|    416: ff 0d 08 03 04 01 7f ff ff ff 0c 07 03 03 01 7f   ................
|    432: ff ff 0b 07 03 03 01 00 93 2d 0a 05 03 01 01 7f   .........-......
|    448: 09 04 03 09 01 08 04 03 08 01 07 05 03 01 01 80   ................
|    464: 06 06 03 02 01 80 00 05 07 03 03 01 80 00 00 04   ................
|    480: 08 03 04 01 80 00 00 00 03 0a 03 05 01 80 00 00   ................
|    496: 00 00 00 00 00 00 07 08 03 15 01 30 78 31 63 1c   ...........0x1c.
| page 4 offset 1536
|      0: 0d 00 00 00 28 00 5f 00 01 f3 01 e7 01 dd 01 d4   ....(._.........
|     16: 01 cc 01 c5 01 bf 01 b9 01 b2 01 a9 01 a0 01 96   ................
|     32: 01 8a 01 7c 01 76 01 70 01 55 01 3f 01 31 01 27   ...|.v.p.U.?.1.'
|     48: 01 1d 01 13 01 09 00 ff 00 f5 00 eb 00 e1 00 d7   ................
|     64: 00 cd 00 c3 00 b9 00 af 00 a5 00 9b 00 91 00 87   ................
|     80: 00 7d 00 73 00 69 00 5f 00 00 00 00 00 00 00 08   ...s.i._........
|     96: 28 03 01 15 28 30 78 32 38 08 27 03 01 15 27 30   (...(0x28.'...'0
|    112: 78 32 37 08 26 03 01 15 26 30 78 32 36 08 25 03   x27.&...&0x26.%.
|    128: 01 15 25 30 78 32 35 08 24 03 01 15 24 30 78 32   ..%0x25.$...$0x2
|    144: 34 08 23 03 01 15 23 30 78 32 33 08 22 03 01 15   4.#...#0x23.....
|    160: 22 30 78 32 32 08 21 03 01 15 21 30 78 32 31 08   .0x22.!...!0x21.
|    176: 20 03 01 15 20 30 78 32 30 08 1f 03 01 15 1f 30    ... 0x20......0
|    192: 78 31 66 08 1e 03 01 15 1e 30 78 31 65 08 1d 03   x1f......0x1e...
|    208: 01 15 1d 30 78 31 64 08 1c 03 01 15 1c 30 78 31   ...0x1d......0x1
|    224: 63 08 1b 03 01 15 1b 30 78 31 62 08 1a 03 01 15   c......0x1b.....
|    240: 1a 30 78 31 61 08 19 03 01 15 19 30 78 31 39 08   .0x1a......0x19.
|    256: 18 03 01 15 18 30 78 31 38 08 17 03 01 15 17 30   .....0x18......0
|    272: 78 31 37 08 16 03 01 15 16 30 78 31 36 08 15 03   x17......0x16...
|    288: 01 15 15 30 78 31 35 08 14 03 01 15 14 30 78 31   ...0x15......0x1
|    304: 34 0c 13 03 01 07 13 3f d0 00 00 00 00 00 00 14   4......?........
|    320: 12 03 01 2c 12 25 ff e3 c1 f5 d4 a2 0f 0d fc be   ...,.%..........
|    336: 95 1e be 4a 16 19 11 03 01 37 11 6f 6c 79 6d 70   ...J.....7.olymp
|    352: 69 63 2d 62 61 6e 61 6e 61 2d 76 69 73 69 6f 6e   ic-banana-vision
|    368: 04 10 03 01 0c 10 04 0f 03 01 0d 0f 0c 0e 03 01   ................
|    384: 06 0e 7f ff ff ff ff ff ff ff 0a 0d 03 01 05 0d   ................
|    400: 7f ff ff ff ff ff 08 0c 03 01 04 0c 7f ff ff ff   ................
|    416: 07 0b 03 01 03 0b 7f ff ff 07 0a 03 01 03 0a 00   ................
|    432: 93 2d 05 09 03 01 01 09 7f 04 08 03 01 09 08 04   .-..............
|    448: 07 03 01 08 07 05 06 03 01 01 06 80 06 05 03 01   ................
|    464: 02 05 80 00 07 04 03 01 03 04 80 00 00 08 03 03   ................
|    480: 01 04 03 80 00 00 00 0a 02 03 01 05 02 80 00 00   ................
|    496: 00 00 00 0b 01 03 09 06 80 00 00 00 00 00 00 00   ................
| page 5 offset 2048
|      0: 0d 00 00 00 0a 01 9c 00 01 f6 01 ec 01 e2 01 d8   ................
|     16: 01 ce 01 c4 01 ba 01 b0 01 a6 01 9c 00 00 00 00   ................
|    400: 00 00 00 00 00 00 00 00 00 00 00 00 08 32 03 01   .............2..
|    416: 15 32 30 78 33 32 08 31 03 01 15 31 30 78 33 31   .20x32.1...10x31
|    432: 08 30 03 01 15 30 30 78 33 30 08 2f 03 01 15 2f   .0...00x30./.../
|    448: 30 78 32 66 08 2e 03 01 15 2e 30 78 32 65 08 2d   0x2f......0x2e.-
|    464: 03 01 15 2d 30 78 32 64 08 2c 03 01 15 2c 30 78   ...-0x2d.,...,0x
|    480: 32 63 08 2b 03 01 15 2b 30 78 32 62 08 2a 03 01   2c.+...+0x2b.*..
|    496: 15 2a 30 78 32 61 08 29 03 01 15 29 30 78 32 39   .*0x2a.)...)0x29
| page 6 offset 2560
|      0: 0d 00 00 00 01 01 98 00 01 98 00 00 00 00 00 00   ................
|    400: 00 00 00 00 00 00 00 00 84 5d 01 04 01 89 3c 7b   .........]....<.
|    496: 00 00 00 00 00 00 00 00 00 00 00 00 00 00 00 09   ................
| page 7 offset 3072
|      0: 0a 01 51 00 18 00 03 00 01 f4 01 e9 01 e0 01 d8   ..Q.............
|     16: 00 02 01 cb 01 c6 01 44 01 c1 01 bb 01 b3 01 ab   .......D........
|     32: 01 a2 01 97 01 8a 01 85 01 3b 01 32 01 29 01 20   .........;.2.). 
|     48: 01 17 01 0e 01 05 00 fc 00 f3 00 ea 00 e1 00 d8   ................
|     64: 00 cf 00 c6 00 bd 00 b4 00 ab 00 a2 00 99 00 90   ................
|     80: 00 87 00 7e 00 75 00 6c 00 63 01 66 01 80 01 51   ...~.u.l.c.f...Q
|     96: 00 00 00 08 03 15 01 30 78 32 63 2c 08 03 15 01   .......0x2c,....
|    112: 30 78 32 62 2b 08 03 15 01 30 78 32 61 2a 08 03   0x2b+....0x2a*..
|    128: 15 01 30 78 32 39 29 08 03 15 01 30 78 32 38 28   ..0x29)....0x28(
|    144: 08 03 15 01 30 78 32 37 27 08 03 15 01 30 78 32   ....0x27'....0x2
|    160: 36 26 08 03 15 01 30 78 32 35 25 08 03 15 01 30   6&....0x25%....0
|    176: 78 32 34 24 08 03 15 01 30 78 32 33 23 08 03 15   x24$....0x23#...
|    192: 01 30 78 32 32 22 08 03 15 01 30 78 32 31 21 08   .0x22.....0x21!.
|    208: 03 15 01 30 78 32 30 20 08 03 15 01 30 78 31 66   ...0x20 ....0x1f
|    224: 1f 08 03 15 01 30 78 31 65 1e 08 03 15 01 30 78   .....0x1e.....0x
|    240: 31 64 1d 08 03 15 01 30 78 31 63 1c 08 03 15 01   1d.....0x1c.....
|    256: 30 78 31 62 1b 08 03 15 01 30 78 31 61 1a 08 03   0x1b.....0x1a...
|    272: 15 01 30 78 31 39 19 08 03 15 01 30 78 31 38 18   ..0x19.....0x18.
|    288: 08 03 15 01 30 78 31 37 17 08 03 15 01 30 78 31   ....0x17.....0x1
|    304: 36 16 08 03 15 01 30 78 31 35 15 08 03 15 01 30   6.....0x15.....0
|    320: 78 31 34 14 0c 03 07 01 3f d0 00 00 00 00 00 00   x14.....?.......
|    336: 13 00 00 00 34 25 ff e3 c1 f5 d4 a2 0f 0d fc be   ....4%..........
|    352: 95 1e be 4a 16 12 00 00 00 1f 6f 6c 79 6d 70 69   ...J......olympi
|    368: 63 2d 62 61 6e 61 6e 61 2d 76 69 73 69 6f 6e 11   c-banana-vision.
|    384: 04 03 0c 01 10 04 03 0d 01 0f 0c 03 06 01 7f ff   ................
|    400: ff ff ff ff ff ff 0e 0a 03 05 01 7f ff ff ff ff   ................
|    416: ff 0d 08 03 04 01 7f ff ff ff 0c 07 03 03 01 7f   ................
|    432: ff ff 0b 07 03 03 01 00 93 2d 0a 05 03 01 01 7f   .........-......
|    448: 09 04 03 09 01 08 04 03 08 01 07 05 03 01 01 80   ................
|    464: 06 06 03 02 01 80 00 05 07 03 03 01 80 00 00 04   ................
|    480: 08 03 04 01 80 00 00 00 03 0a 03 05 01 80 00 00   ................
|    496: 00 00 00 02 0b 03 06 09 80 00 00 00 00 00 00 00   ................
| page 8 offset 3584
|      0: 0a 00 00 00 19 01 06 00 01 f7 01 ee 01 e5 01 dc   ................
|     16: 01 d3 01 ca 01 c1 01 b8 01 af 01 a6 01 9d 01 94   ................
|     32: 01 8b 01 82 01 79 01 70 01 67 01 2a 01 21 01 18   .....y.p.g.*.!..
|     48: 01 0f 01 06 01 4d 01 48 01 33 00 00 00 00 00 00   .....M.H.3......
|    256: 00 00 00 00 00 00 08 03 15 01 30 78 33 32 32 08   ..........0x322.
|    272: 03 15 01 30 78 33 31 31 08 03 15 01 30 78 33 30   ...0x311....0x30
|    288: 30 08 03 15 01 30 78 32 66 2f 08 03 15 01 30 78   0....0x2f/....0x
|    304: 32 65 2e 14 03 2c 01 25 ff e3 c1 f5 d4 a2 0f 0d   2e...,.%........
|    320: fc be 95 1e be 4a 16 12 04 03 0c 01 10 19 03 37   .....J.........7
|    336: 01 6f 6c 79 6d 70 69 63 2d 62 61 6e 61 6e 61 2d   .olympic-banana-
|    352: 76 69 73 69 6f 6e 11 08 03 15 01 30 78 32 64 2d   vision.....0x2d-
|    368: 08 03 15 01 30 78 32 63 2c 08 03 15 01 30 78 32   ....0x2c,....0x2
|    384: 62 2b 08 03 15 01 30 78 32 61 2a 08 03 15 01 30   b+....0x2a*....0
|    400: 78 32 39 29 08 03 15 01 30 78 32 38 28 08 03 15   x29)....0x28(...
|    416: 01 30 78 32 37 27 08 03 15 01 30 78 32 36 26 08   .0x27'....0x26&.
|    432: 03 15 01 30 78 32 35 25 08 03 15 01 30 78 32 34   ...0x25%....0x24
|    448: 24 08 03 15 01 30 78 32 33 23 08 03 15 01 30 78   $....0x23#....0x
|    464: 32 32 22 08 03 15 01 30 78 32 31 21 08 03 15 01   22.....0x21!....
|    480: 30 78 32 30 20 08 03 15 01 30 78 31 66 1f 08 03   0x20 ....0x1f...
|    496: 15 01 30 78 31 65 1e 08 03 15 01 30 78 31 64 1d   ..0x1e.....0x1d.
| page 10 offset 4608
|      0: 0d 00 00 00 00 02 00 00 00 00 00 00 00 00 00 00   ................
| page 11 offset 5120
|      0: 0d 00 00 00 03 00 2f 00 01 bf 01 99 00 2f 01 6f   ....../....../.o
|     32: 00 00 00 00 00 00 00 00 00 00 00 00 00 00 00 82   ................
|     48: 67 04 07 17 11 11 01 85 39 74 61 62 6c 65 74 34   g.......9tablet4
|     64: 74 34 0a 43 52 45 41 54 45 20 54 41 42 4c 45 20   t4.CREATE TABLE 
|     80: 74 34 28 0a 20 20 61 20 54 45 58 54 20 44 45 46   t4(.  a TEXT DEF
|     96: 41 55 4c 54 20 27 30 31 32 33 34 35 36 37 38 39   AULT '0123456789
|    112: 20 30 31 32 33 34 35 36 37 38 39 20 30 31 32 33    0123456789 0123
|    128: 34 35 36 37 38 39 20 30 31 32 33 34 35 36 37 38   456789 012345678
|    144: 39 20 27 2c 0a 20 20 62 20 54 45 58 54 20 44 45   9 ',.  b TEXT DE
|    160: 46 41 55 4c 54 20 27 30 31 32 33 34 35 36 37 38   FAULT '012345678
|    176: 39 20 30 31 32 33 34 35 36 37 38 39 20 30 31 32   9 0123456789 012
|    192: 33 34 35 36 37 38 39 20 30 31 32 33 34 35 36 37   3456789 01234567
|    208: 38 39 20 27 2c 0a 20 20 63 20 54 45 58 54 20 44   89 ',.  c TEXT D
|    224: 45 46 41 55 4c 54 20 27 30 31 32 33 34 35 36 37   EFAULT '01234567
|    240: 38 39 20 30 31 32 33 34 35 36 37 38 39 20 30 31   89 0123456789 01
|    256: 32 33 34 35 36 37 38 39 20 30 31 32 33 34 35 36   23456789 0123456
|    272: 37 38 39 20 27 2c 0a 20 20 64 20 54 45 58 54 20   789 ',.  d TEXT 
|    288: 44 45 46 41 55 4c 54 20 27 30 31 32 33 34 35 36   DEFAULT '0123456
|    304: 37 38 39 20 30 31 32 33 34 35 36 37 38 39 20 30   789 0123456789 0
|    320: 31 32 33 34 35 36 37 38 39 20 30 31 32 33 34 35   123456789 012345
|    336: 36 37 38 39 20 27 2c 0a 20 20 65 20 54 45 58 54   6789 ',.  e TEXT
|    352: 20 44 45 46 41 55 4c 54 20 27 30 31 32 33 34 35    DEFAULT '012345
|    368: 36 37 38 39 20 30 31 32 33 34 35 36 37 38 39 20   6789 0123456789 
|    384: 30 31 32 33 34 35 36 37 38 39 20 30 31 32 33 34   0123456789 01234
|    400: 35 36 37 38 39 20 27 0a 29 24 03 06 17 11 11 01   56789 '.)$......
|    416: 35 74 61 62 6c 65 74 33 74 33 06 43 52 45 41 54   5tablet3t3.CREAT
|    432: 45 20 54 41 42 4c 45 20 74 33 28 61 2c 62 29 3f   E TABLE t3(a,b)?
|    448: 02 06 17 11 11 01 6b 74 61 62 6c 65 74 32 74 32   ......ktablet2t2
|    464: 03 43 52 45 41 54 45 20 54 41 42 4c 45 20 74 32   .CREATE TABLE t2
|    480: 28 61 2c 20 62 20 50 52 49 4d 41 52 59 20 4b 45   (a, b PRIMARY KE
|    496: 59 29 20 57 49 54 48 4f 55 54 20 52 4f 57 49 44   Y) WITHOUT ROWID
| page 12 offset 5632
|      0: 00 00 00 00 00 00 00 03 00 00 00 04 00 00 00 05   ................
|     16: 00 00 00 02 00 00 00 00 00 00 00 00 00 00 00 00   ................
|    144: 00 00 00 00 00 00 82 67 04 07 17 11 11 01 85 39   .......g.......9
|    160: 74 61 62 6c 65 74 34 74 34 0a 43 52 45 41 54 45   tablet4t4.CREATE
|    176: 20 54 41 42 4c 45 20 74 34 28 0a 20 20 61 20 54    TABLE t4(.  a T
|    192: 45 58 54 20 44 45 46 41 55 4c 54 20 27 30 31 32   EXT DEFAULT '012
|    208: 33 34 35 36 37 38 39 20 30 31 32 33 34 35 36 37   3456789 01234567
|    224: 38 39 20 30 31 32 33 34 35 36 37 38 39 20 30 31   89 0123456789 01
|    240: 32 33 34 35 36 37 38 39 20 27 2c 0a 20 20 62 20   23456789 ',.  b 
|    256: 54 45 58 54 20 44 45 46 41 55 4c 54 20 27 30 31   TEXT DEFAULT '01
|    272: 32 33 34 35 36 37 38 39 20 30 31 32 33 34 35 36   23456789 0123456
|    288: 37 38 39 20 30 31 32 33 34 35 36 37 38 39 20 30   789 0123456789 0
|    304: 31 32 33 34 35 36 37 38 39 20 27 2c 0a 20 20 63   123456789 ',.  c
|    320: 20 54 45 58 54 20 44 45 46 41 55 4c 54 20 27 30    TEXT DEFAULT '0
|    336: 31 32 33 34 35 36 37 38 39 20 30 31 32 33 34 35   123456789 012345
|    352: 36 37 38 39 20 30 31 32 33 34 35 36 37 38 39 20   6789 0123456789 
|    368: 30 31 32 33 34 35 36 37 38 39 20 27 2c 0a 20 20   0123456789 ',.  
|    384: 64 20 54 45 58 54 20 44 45 46 41 55 4c 54 20 27   d TEXT DEFAULT '
|    400: 30 31 32 33 34 35 36 37 38 39 20 30 31 32 33 34   0123456789 01234
|    416: 35 36 37 38 39 20 30 31 32 33 34 35 36 37 38 39   56789 0123456789
|    432: 20 30 31 32 33 34 35 36 37 38 39 20 27 2c 0a 20    0123456789 ',. 
|    448: 20 65 20 54 45 58 54 20 44 45 46 41 55 4c 54 20    e TEXT DEFAULT 
|    464: 27 30 31 32 33 34 35 36 37 38 39 20 30 31 32 33   '0123456789 0123
|    480: 34 35 36 37 38 39 20 30 31 32 33 34 35 36 37 38   456789 012345678
|    496: 39 20 30 31 32 33 34 35 36 37 38 39 20 27 0a 29   9 0123456789 '.)
| end corrupt016.txt.db
.testctrl prng_seed 1 db
.testctrl internal_functions
UPDATE t2 SET b=b+1;

