.open --hexdb
| size 4096 pagesize 65536 filename corrupt026.txt.db
| page 1 offset 0
|      0: d9 d5 05 f9 20 a1 63 d7 00 00 00 02 33 18 9e a6   .... .c.....3...
|     16: 00 00 02 e4 00 00 02 00 00 00 02 00 00 00 00 00   ................
|    512: 00 00 04 e4 0d 00 00 00 15 00 88 00 03 d5 03 aa   ................
|    528: 03 7f 03 54 03 29 02 fe 02 d4 02 aa 02 80 02 56   ...T.).........V
|    544: 02 2c 02 02 01 d8 01 ae 01 84 01 5a 01 30 01 06   .,.........Z.0..
|    560: 00 dc 00 b2 00 88 00 00 00 00 00 00 00 00 00 00   ................
|    640: 00 00 00 00 00 00 00 00 00 00 00 00 27 fd 58 04   ............'.X.
|    656: 1f 08 41 6d 6f 69 73 74 75 72 65 31 32 30 31 37   ..Amoisture12017
|    672: 2d 30 33 2d 30 33 20 32 33 3a 35 30 3a 32 39 2e   -03-03 23:50:29.
|    688: 36 38 32 33 34 37 27 fd 57 04 1f 08 41 6d 6f 69   682347'.W...Amoi
|    704: 73 74 75 72 65 31 32 30 31 37 2d 30 33 2d 30 33   sture12017-03-03
|    720: 20 32 33 3a 35 30 3a 32 39 2e 36 36 33 36 33 34    23:50:29.663634
|    736: 27 fd 56 04 1f 09 41 6d 6f 69 73 74 75 72 65 31   '.V...Amoisture1
|    752: 32 30 31 37 2d 30 33 2d 30 33 20 32 33 3a 35 30   2017-03-03 23:50
|    768: 3a 32 39 2e 36 34 34 33 35 32 27 fd 55 04 1f 08   :29.644352'.U...
|    784: 41 6d 6f 69 73 74 75 72 65 31 32 30 31 37 2d 30   Amoisture12017-0
|    800: 33 2d 30 33 20 32 33 3a 35 30 3a 32 39 2e 36 32   3-03 23:50:29.62
|    816: 34 33 36 33 27 fd 54 04 1f 08 41 6d 6f 69 73 74   4363'.T...Amoist
|    832: 75 72 65 31 32 30 31 37 2d 30 33 2d 30 33 20 32   ure12017-03-03 2
|    848: 33 3a 35 30 3a 32 39 2e 36 30 33 35 33 31 27 fd   3:50:29.603531'.
|    864: 53 04 1f 08 41 6d 6f 69 73 74 75 72 65 31 32 30   S...Amoisture120
|    880: 31 37 2d 30 33 2d 30 33 20 32 33 3a 35 30 3a 32   17-03-03 23:50:2
|    896: 39 2e 35 38 37 34 39 35 27 fd 52 04 1f 08 41 6d   9.587495'.R...Am
|    912: 6f 69 73 74 75 72 65 31 32 30 31 37 2d 30 33 2d   oisture12017-03-
|    928: 30 33 20 32 33 3a 35 30 3a 32 39 2e 35 36 36 39   03 23:50:29.5669
|    944: 39 31 27 fd 51 04 1f 08 41 6d 6f 69 73 74 75 72   91'.Q...Amoistur
|    960: 65 31 32 30 31 37 2d 30 33 2d 30 33 20 32 33 3a   e12017-03-03 23:
|    976: 35 30 3a 32 35 2e 35 35 32 36 36 39 27 fd 50 04   50:25.552669'.P.
|    992: 1f 08 41 6d 6f 69 73 74 75 72 65 31 32 30 31 37   ..Amoisture12017
|   1008: 2d 30 33 2d 30 33 20 32 33 3a 35 30 3a 32 35 2e   -03-03 23:50:25.
|   1024: 35 33 35 38 39 33 27 fd 4f 04 1f 08 41 6d 6f 69   535893'.O...Amoi
|   1040: 73 74 75 72 65 31 32 30 31 37 2d 30 33 2d 30 33   sture12017-03-03
|   1056: 20 32 33 3a 35 30 3a 32 35 2e 35 32 31 35 32 33    23:50:25.521523
|   1072: 27 fd 4e 04 1f 08 41 6d 6f 69 73 74 75 72 65 31   '.N...Amoisture1
|   1088: 32 30 31 37 2d 30 33 2d 30 33 20 32 33 3a 35 30   2017-03-03 23:50
|   1104: 3a 32 35 2e 35 30 33 36 35 37 27 fd 4d 04 1f 08   :25.503657'.M...
|   1120: 41 6d 6f 69 73 74 75 72 65 31 32 30 31 37 2d 30   Amoisture12017-0
|   1136: 33 2d 30 33 20 32 33 3a 35 30 3a 32 35 2e 34 38   3-03 23:50:25.48
|   1152: 35 35 35 38 27 fd 4c 04 1f 08 41 6d 6f 69 73 74   5558'.L...Amoist
|   1168: 75 72 65 31 32 30 31 37 2d 30 33 2d 30 33 20 32   ure12017-03-03 2
|   1184: 33 3a 35 30 3a 32 35 2e 34 36 35 38 31 35 27 fd   3:50:25.465815'.
|   1200: 4b 04 1f 08 41 6d 6f 69 73 74 75 72 65 31 32 30   K...Amoisture120
|   1216: 31 37 2d 30 33 2d 30 33 20 32 33 3a 35 30 3a 32   17-03-03 23:50:2
|   1232: 35 2e 34 35 32 30 36 39 27 fd 4a 04 1f 08 41 6d   5.452069'.J...Am
|   1248: 6f 69 73 74 75 72 65 31 32 30 31 37 2d 30 33 2d   oisture12017-03-
|   1264: 30 33 20 32 33 3a 35 30 3a 32 35 2e 34 33 31 38   03 23:50:25.4318
|   1280: 39 39 28 fd 49 04 1f 01 41 6d 6f 69 73 74 75 72   99(.I...Amoistur
|   1296: 65 31 44 32 30 31 37 2d 30 33 2d 30 33 20 32 33   e1D2017-03-03 23
|   1312: 3a 35 30 3a 32 31 2e 33 39 30 30 37 35 28 fd 48   :50:21.390075(.H
|   1328: 04 1f 01 41 6d 6f 69 73 74 75 72 65 31 3d 32 30   ...Amoisture1=20
|   1344: 31 37 2d 30 33 2d 30 33 20 32 33 3a 35 30 3a 32   17-03-03 23:50:2
|   1360: 31 2e 33 37 32 35 39 39 28 fd 47 04 1f 01 41 6d   1.372599(.G...Am
|   1376: 6f 69 73 74 75 72 65 31 3d 32 30 31 37 2d 30 33   oisture1=2017-03
|   1392: 2d 30 33 20 32 33 3a 35 30 3a 32 31 2e 33 35 35   -03 23:50:21.355
|   1408: 32 34 38 28 fd 46 04 1f 01 41 6d 6f 69 73 74 75   248(.F...Amoistu
|   1424: 72 65 31 4b 32 30 31 37 2d 30 33 2d 30 33 20 32   re1K2017-03-03 2
|   1440: 33 3a 35 30 3a 32 31 2e 33 34 30 36 33 36 28 fd   3:50:21.340636(.
|   1456: 45 04 1f 01 41 6d 6f 69 73 74 75 72 65 31 4c 32   E...Amoisture1L2
|   1472: 30 31 37 2d 30 33 2d 30 33 20 32 33 3a 35 30 3a   017-03-03 23:50:
|   1488: 32 31 2e 33 32 34 31 31 39 28 fd 44 04 1f 01 41   21.324119(.D...A
|   1504: 6d 6f 69 73 74 75 72 65 31 3e 32 30 31 37 2d 30   moisture1>2017-0
|   1520: 33 2d 30 33 20 32 33 3a 35 30 3a 32 31 2e 33 30   3-03 23:50:21.30
|   1536: 36 30 39 37 33 18 9f 4d 00 00 00 01 53 51 4c 69   60973..M....SQLi
|   1552: 74 65 20 66 6f 72 6d 61 74 20 33 00 04 00 01 01   te format 3.....
|   1568: 00 40 20 20 00 00 3e d9 00 00 02 e4 00 00 00 00   .@  ..>.........
|   1584: 00 00 00 00 00 00 00 01 00 00 00 04 00 00 00 00   ................
|   1600: 00 00 00 00 00 00 00 01 00 00 00 00 00 00 00 00   ................
|   1632: 00 00 00 00 00 00 00 00 00 00 3e d9 00 2d e6 07   ..........>..-..
|   1648: 0d 00 00 00 01 03 a0 00 03 a0 00 00 00 00 00 00   ................
|   2464: 00 00 00 00 00 00 00 00 00 00 00 00 5e 01 07 17   ............^...
|   2480: 1b 1b 01 81 13 74 61 62 6c 65 73 65 6e 73 6f 72   .....tablesensor
|   2496: 73 73 65 6e 73 6f 72 73 02 43 52 45 41 54 45 20   ssensors.CREATE 
|   2512: 54 41 42 4c 45 20 73 65 6e 73 6f 72 73 20 0a 20   TABLE sensors . 
|   2528: 20 20 20 20 20 20 20 20 20 20 20 20 28 6e 61 6d               (nam
|   2544: 65 20 74 65 78 74 2c 20 76 61 6c 20 72 65 61 6c   e text, val real
|   2560: 2c 20 74 69 6d 65 20 74 65 78 74 29 33 18 9e a6   , time text)3...
| end corrupt026.txt.db
.testctrl prng_seed 1 db
.testctrl internal_functions
PRAGMA integrity_check;

