.open --hexdb
| size 4096 pagesize 512 filename corrupt005.txt.db
| page 1 offset 0
|      0: 53 51 4c 69 74 65 20 66 6f 72 6d 61 74 20 33 00   SQLite format 3.
|     16: 02 00 01 01 00 40 20 20 00 00 00 1b 00 00 00 07   .....@  ........
|     32: 00 00 00 00 00 00 00 00 00 00 00 04 00 00 00 04   ................
|     48: 00 00 00 00 00 00 00 04 00 00 00 02 00 00 00 00   ................
|     80: 00 00 00 00 00 00 00 00 00 00 00 00 00 00 00 1b   ................
|     96: 00 2d e6 0a 0d 00 00 00 02 01 43 00 01 43 01 bd   .-........C..C..
|    112: 01 00 00 00 00 00 00 00 00 00 00 00 00 00 00 00   ................
|    256: 41 03 06 21 15 15 01 5d 74 00 61 00 62 00 6c 00   A..!...]t.a.b.l.
|    272: 65 00 74 00 33 00 74 00 33 00 05 43 00 52 00 45   e.t.3.t.3..C.R.E
|    288: 00 41 00 54 00 45 00 20 00 54 00 41 00 42 00 4c   .A.T.E. .T.A.B.L
|    304: 00 45 00 20 00 74 00 33 00 28 00 61 00 2c 00 62   .E. .t.3.(.a.,.b
|    320: 00 29 00 78 02 07 21 15 15 01 81 49 74 00 61 00   .).x..!....It.a.
|    336: 62 00 6c 00 65 00 74 00 32 00 74 00 32 00 05 43   b.l.e.t.2.t.2..C
|    352: 00 52 00 45 00 41 00 54 00 45 00 20 00 54 00 41   .R.E.A.T.E. .T.A
|    368: 00 42 00 4c 00 45 00 20 00 74 00 32 00 28 00 61   .B.L.E. .t.2.(.a
|    384: 00 2c 00 20 00 62 00 20 00 50 00 52 00 49 00 4d   .,. .b. .P.R.I.M
|    400: 00 41 00 52 00 59 00 20 00 4b 00 45 00 59 00 29   .A.R.Y. .K.E.Y.)
|    416: 00 20 00 57 00 49 00 54 00 48 00 4f 00 55 00 54   . .W.I.T.H.O.U.T
|    432: 00 20 00 52 00 4f 00 57 00 49 00 44 00 41 03 06   . .R.O.W.I.D.A..
|    448: 21 15 15 01 5d 74 00 61 00 62 00 6c 00 65 00 74   !...]t.a.b.l.e.t
|    464: 00 33 00 74 00 33 00 03 43 00 52 00 45 00 41 00   .3.t.3..C.R.E.A.
|    480: 54 00 45 00 20 00 54 00 41 00 42 00 4c 00 45 00   T.E. .T.A.B.L.E.
|    496: 20 00 74 00 33 00 28 00 61 00 2c 00 62 00 29 00    .t.3.(.a.,.b.).
| page 2 offset 512
|      0: 01 00 00 00 00 01 00 00 00 00 05 00 00 00 04 03   ................
|     16: 00 00 00 03 05 00 00 00 04 05 00 00 00 04 05 00   ................
|     32: 00 00 04 03 00 00 00 03 00 00 00 00 00 00 00 00   ................
| page 3 offset 1024
|      0: 0d 00 00 00 01 01 98 00 01 98 01 e7 01 dd 01 d4   ................
|     16: 01 cc 01 c5 01 bf 01 b9 01 b2 01 a9 01 a0 01 96   ................
|     32: 01 8a 01 7c 01 76 01 70 01 40 01 2a 01 1c 01 0e   ...|.v.p.@.*....
|     48: 01 00 00 f2 00 e4 00 d6 00 c8 00 ba 00 ac 00 9e   ................
|     64: 00 90 00 82 00 74 00 66 00 58 00 00 00 00 00 00   .....t.f.X......
|     80: 00 00 00 00 00 00 00 00 0c 21 03 01 1d 21 30 00   .........!...!0.
|     96: 78 00 32 00 31 00 0c 20 03 01 1d 20 30 00 78 00   x.2.1.. ... 0.x.
|    112: 32 00 30 00 0c 1f 03 01 1d 1f 30 00 78 00 31 00   2.0.......0.x.1.
|    128: 66 00 0c 1e 03 01 1d 1e 30 00 78 00 31 00 65 00   f.......0.x.1.e.
|    144: 0c 1d 03 01 1d 1d 30 00 78 00 31 00 64 00 0c 1c   ......0.x.1.d...
|    160: 03 01 1d 1c 30 00 78 00 31 00 63 00 0c 1b 03 01   ....0.x.1.c.....
|    176: 1d 1b 30 00 78 00 31 00 62 00 0c 1a 03 01 1d 1a   ..0.x.1.b.......
|    192: 30 00 78 00 31 00 61 00 0c 19 03 01 1d 19 30 00   0.x.1.a.......0.
|    208: 78 00 31 00 39 00 0c 18 03 01 1d 18 30 00 78 00   x.1.9.......0.x.
|    224: 31 00 38 00 0c 17 03 01 1d 17 30 00 78 00 31 00   1.8.......0.x.1.
|    240: 37 00 0c 16 03 01 1d 16 30 00 78 00 31 00 36 00   7.......0.x.1.6.
|    256: 0c 15 03 01 1d 15 30 00 78 00 31 00 35 00 0c 14   ......0.x.1.5...
|    272: 03 01 1d 14 30 00 78 00 31 00 34 00 0c 13 03 01   ....0.x.1.4.....
|    288: 07 13 3f d0 00 00 00 00 00 00 14 12 03 01 2c 12   ..?...........,.
|    304: 25 ff e3 c1 f5 d4 a2 0f 0d fc be 95 1e be 4a 16   %.............J.
|    320: 2e 11 03 01 61 11 6f 00 6c 00 79 00 6d 00 70 00   ....a.o.l.y.m.p.
|    336: 69 00 63 00 2d 00 62 00 61 00 6e 00 61 00 6e 00   i.c.-.b.a.n.a.n.
|    352: 61 00 2d 00 76 00 69 00 73 00 69 00 6f 00 6e 00   a.-.v.i.s.i.o.n.
|    368: 04 10 03 01 0c 10 04 0f 03 01 0d 0f 0c 0e 03 01   ................
|    384: 06 0e 7f ff ff ff ff ff ff ff 0a 0d 03 01 05 0d   ................
|    400: 7f ff ff ff ff ff 08 0c 84 5d 01 04 01 89 3c 7b   .........]....<.
|    496: 00 00 00 00 00 00 00 00 00 00 00 00 00 00 00 06   ................
| page 5 offset 2048
|      0: 0a 00 00 00 1b 00 7f 00 01 f3 01 e6 01 d9 01 cc   ................
|     16: 01 bf 01 b2 01 a5 01 98 01 8b 01 7e 01 71 01 1b   ...........~.q..
|     32: 01 0e 01 01 00 f4 00 e7 00 da 00 cd 00 c0 00 b3   ................
|     48: 00 a6 00 99 00 8c 00 7f 01 42 01 3d 01 28 00 00   .........B.=.(..
|    112: 00 00 00 00 00 00 00 00 00 00 00 00 00 00 00 0c   ................
| end corrupt005.txt.db
.testctrl prng_seed 1 db
.testctrl internal_functions
CREATE TABLE t5(y);

