.open --hexdb
| size 4096 pagesize 512 filename corrupt023.txt.db
| page 1 offset 0
|      0: 53 51 4c 69 74 65 20 66 6f 72 6d 61 74 20 33 00   SQLite format 3.
|     16: 02 00 01 01 00 40 20 20 00 00 00 02 00 00 00 02   .....@  ........
|     32: 00 00 00 00 00 00 00 00 00 00 00 01 00 00 00 04   ................
|     48: 00 00 00 00 00 00 00 00 00 00 00 01 00 00 00 00   ................
|     80: 00 00 00 00 00 00 00 00 00 00 00 00 00 00 00 02   ................
|     96: 00 2e 05 40 0d 00 00 00 01 01 dc 00 01 dc 00 00   ...@............
|    464: 00 00 00 00 00 00 00 00 00 00 00 00 22 01 06 17   ................
|    480: 11 11 01 31 74 61 62 6c 65 74 31 74 31 02 43 52   ...1tablet1t1.CR
|    496: 45 41 54 45 20 54 41 42 4c 45 20 74 31 28 79 29   EATE TABLE t1(y)
| page 2 offset 512
|      0: 0d 00 00 00 01 01 f8 00 01 f8 00 00 00 00 00 00   ................
|    496: 00 00 00 00 00 00 00 00 07 01 02 17 61 62 63 64   ............abcd
| end corrupt023.txt.db
.testctrl prng_seed 1 db
.testctrl internal_functions
UPDATE t1 SET y='xyzzy' WHERE rowid=1;
REPLACE INTO t1(rowid,y) VALUES(1,'xyzzy');

