.open --hexdb
| size 49152 pagesize 4096 filename createtable002.txt.db
| page 1 offset 0
|      0: 53 51 4c 69 74 65 20 66 6f 72 6d 61 74 20 33 00   SQLite format 3.
|     16: 10 00 01 01 00 40 20 20 00 00 00 00 00 00 00 0c   .....@  ........
|     32: 00 00 00 00 00 00 00 00 00 00 00 05 00 00 00 04   ................
|     48: 00 00 00 00 00 00 00 00 00 00 00 01 00 00 00 00   ................
|     96: 00 00 00 00 0d 0f f8 00 0b 0d b5 00 0f 8c 0f d3   ................
|    112: 0f 27 0f 67 0e c2 0f 02 0e 58 0e 9d 0d b5 0e 33   .'.g.....X.....3
|    128: 0e 0e 00 00 00 00 00 00 00 00 00 00 00 00 00 00   ................
|   3504: 00 00 00 00 00 57 09 07 17 11 11 01 81 19 74 61   .....W........ta
|   3520: 62 6c 65 74 35 74 35 0a 43 52 45 41 54 45 20 54   blet5t5.CREATE T
|   3536: 41 42 4c 45 20 74 35 28 61 2c 62 2c 20 55 4e 49   ABLE t5(a,b, UNI
|   3552: 51 55 45 28 27 62 27 20 43 4f 4c 4c 41 54 45 20   QUE('b' COLLATE 
|   3568: 4e 4f 43 41 53 45 2c 61 29 2c 20 50 52 49 4d 41   NOCASE,a), PRIMA
|   3584: 52 59 20 4b 45 59 28 62 2c 27 61 27 29 29 23 0b   RY KEY(b,'a'))#.
|   3600: 06 17 37 11 01 00 69 6e 64 65 78 73 71 6c 69 74   ..7...indexsqlit
|   3616: 65 5f 61 75 74 6f 69 6e 64 65 78 5f 74 35 5f 32   e_autoindex_t5_2
|   3632: 74 35 0c 23 0a 06 17 37 11 01 00 69 6e 64 65 78   t5.#...7...index
|   3648: 73 71 6c 69 74 65 5f 61 75 74 6f 69 6e 64 65 78   sqlite_autoindex
|   3664: 5f 74 35 5f 31 74 35 0b 43 07 06 17 11 11 01 73   _t5_1t5.C......s
|   3680: 74 61 62 6c 65 74 34 74 34 08 43 52 45 41 54 45   tablet4t4.CREATE
|   3696: 20 54 41 42 4c 45 20 74 34 28 61 2c 62 2c 20 55    TABLE t4(a,b, U
|   3712: 4e 49 51 55 45 28 62 2c 61 29 2c 20 50 52 49 4d   NIQUE(b,a), PRIM
|   3728: 41 52 59 20 4b 45 59 28 62 2c 61 29 29 23 08 06   ARY KEY(b,a))#..
|   3744: 17 37 11 01 00 69 6e 64 65 78 73 71 6c 69 74 65   .7...indexsqlite
|   3760: 5f 61 75 74 6f 69 6e 64 65 78 5f 74 34 5f 31 74   _autoindex_t4_1t
|   3776: 34 09 3e 05 06 17 11 11 01 69 74 61 62 6c 65 74   4.>......itablet
|   3792: 33 74 33 06 43 52 45 41 54 45 20 54 41 42 4c 45   3t3.CREATE TABLE
|   3808: 20 74 33 28 61 20 54 45 58 54 20 50 52 49 4d 41    t3(a TEXT PRIMA
|   3824: 52 59 20 4b 45 59 2c 20 55 4e 49 51 55 45 28 61   RY KEY, UNIQUE(a
|   3840: 29 29 23 06 06 17 37 11 01 00 69 6e 64 65 78 73   ))#...7...indexs
|   3856: 71 6c 69 74 65 5f 61 75 74 6f 69 6e 64 65 78 5f   qlite_autoindex_
|   3872: 74 33 5f 31 74 33 07 3e 03 06 17 11 11 01 69 74   t3_1t3.>......it
|   3888: 61 62 6c 65 74 32 74 32 04 43 52 45 41 54 45 20   ablet2t2.CREATE 
|   3904: 54 41 42 4c 45 20 74 32 28 61 20 54 45 58 54 20   TABLE t2(a TEXT 
|   3920: 55 4e 49 51 55 45 2c 20 50 52 49 4d 41 52 59 20   UNIQUE, PRIMARY 
|   3936: 4b 45 59 28 61 29 29 23 04 06 17 37 11 01 00 69   KEY(a))#...7...i
|   3952: 6e 64 65 78 73 71 6c 69 74 65 5f 61 75 74 6f 69   ndexsqlite_autoi
|   3968: 6e 64 65 78 5f 74 32 5f 31 74 32 05 45 01 06 17   ndex_t2_1t2.E...
|   3984: 11 11 01 77 74 61 62 6c 65 74 31 74 31 02 43 52   ...wtablet1t1.CR
|   4000: 45 41 54 45 20 54 41 42 4c 45 20 74 31 28 61 20   EATE TABLE t1(a 
|   4016: 54 45 58 54 20 55 4e 49 51 55 45 20 50 52 49 4d   TEXT UNIQUE PRIM
|   4032: 41 52 59 20 4b 45 59 2c 20 55 4e 49 51 55 45 28   ARY KEY, UNIQUE(
|   4048: 61 29 29 23 02 06 17 37 11 01 00 69 6e 64 65 78   a))#...7...index
|   4064: 73 71 6c 69 74 65 5f 61 75 74 6f 69 6e 64 65 78   sqlite_autoindex
|   4080: 5f 74 31 5f 31 74 31 03 00 00 00 08 00 00 00 00   _t1_1t1.........
| page 2 offset 4096
|      0: 0d 00 00 00 04 0f e5 00 0f fb 0f f4 0f ed 0f e5   ................
|   4064: 00 00 00 00 00 06 04 02 15 34 2e 32 35 05 03 02   .........4.25...
|   4080: 12 ab cd ef 05 02 02 13 74 77 6f 03 01 02 0f 31   ........two....1
| page 3 offset 8192
|      0: 0a 00 00 00 04 0f e2 00 0f fb 0f e2 0f f3 0f eb   ................
|   4064: 00 00 08 03 15 01 34 2e 32 35 04 07 03 12 01 ab   ......4.25......
|   4080: cd ef 03 07 03 13 01 74 77 6f 02 04 03 0f 09 31   .......two.....1
| page 4 offset 12288
|      0: 0d 00 00 00 04 0f e5 00 0f fb 0f f4 0f ed 0f e5   ................
|   4064: 00 00 00 00 00 06 04 02 15 34 2e 32 35 05 03 02   .........4.25...
|   4080: 12 ab cd ef 05 02 02 13 74 77 6f 03 01 02 0f 31   ........two....1
| page 5 offset 16384
|      0: 0a 00 00 00 04 0f e2 00 0f fb 0f e2 0f f3 0f eb   ................
|   4064: 00 00 08 03 15 01 34 2e 32 35 04 07 03 12 01 ab   ......4.25......
|   4080: cd ef 03 07 03 13 01 74 77 6f 02 04 03 0f 09 31   .......two.....1
| page 6 offset 20480
|      0: 0d 00 00 00 04 0f e5 00 0f fb 0f f4 0f ed 0f e5   ................
|   4064: 00 00 00 00 00 06 04 02 15 34 2e 32 35 05 03 02   .........4.25...
|   4080: 12 ab cd ef 05 02 02 13 74 77 6f 03 01 02 0f 31   ........two....1
| page 7 offset 24576
|      0: 0a 00 00 00 04 0f e2 00 0f fb 0f e2 0f f3 0f eb   ................
|   4064: 00 00 08 03 15 01 34 2e 32 35 04 07 03 12 01 ab   ......4.25......
|   4080: cd ef 03 07 03 13 01 74 77 6f 02 04 03 0f 09 31   .......two.....1
| page 8 offset 28672
|      0: 0d 00 00 00 04 0f d6 00 0f f9 0f ee 0f e3 0f d6   ................
|   4048: 00 00 00 00 00 00 0b 04 03 15 15 34 2e 32 35 34   ...........4.254
|   4064: 2e 32 35 09 03 03 12 12 ab cd ef ab cd ef 09 02   .25.............
|   4080: 03 13 13 74 77 6f 74 77 6f 05 01 03 0f 0f 31 31   ...twotwo.....11
| page 9 offset 32768
|      0: 0a 00 00 00 04 0f d3 00 0f f9 0f d3 0f ed 0f e1   ................
|   4048: 00 00 00 0d 04 15 15 01 34 2e 32 35 34 2e 32 35   ........4.254.25
|   4064: 04 0b 04 12 12 01 ab cd ef ab cd ef 03 0b 04 13   ................
|   4080: 13 01 74 77 6f 74 77 6f 02 06 04 0f 0f 09 31 31   ..twotwo......11
| page 10 offset 36864
|      0: 0d 00 00 00 00 10 00 00 00 00 00 00 00 00 00 00   ................
| page 11 offset 40960
|      0: 0a 00 00 00 00 10 00 00 00 00 00 00 00 00 00 00   ................
| page 12 offset 45056
|      0: 0a 00 00 00 00 10 00 00 00 00 00 00 00 00 00 00   ................
| end createtable002.txt.db
.testctrl prng_seed 1 db
.testctrl internal_functions
SELECT * FROM pragma_table_xinfo(sqlite_master.name), sqlite_master;
SELECT * FROM pragma_index_xinfo(sqlite_master.name), sqlite_master;

