.open --hexdb
| size 16384 pagesize 4096 filename date001.txt.db
| page 1 offset 0
|      0: 53 51 4c 69 74 65 20 66 6f 72 6d 61 74 20 33 00   SQLite format 3.
|     16: 10 00 01 01 00 40 20 20 00 00 00 00 00 00 00 04   .....@  ........
|     32: 00 00 00 00 00 00 00 00 00 00 00 03 00 00 00 04   ................
|     48: 00 00 00 00 00 00 00 00 00 00 00 01 00 00 00 00   ................
|     96: 00 00 00 00 0d 00 00 00 03 0f 60 00 0f a8 0f 84   ..........`.....
|    112: 0f 60 00 00 00 00 00 00 00 00 00 00 00 00 00 00   .`..............
|   3936: 22 03 06 17 11 11 01 31 74 61 62 6c 65 74 33 74   .......1tablet3t
|   3952: 33 04 43 52 45 41 54 45 20 54 41 42 4c 45 20 74   3.CREATE TABLE t
|   3968: 33 28 79 29 22 02 06 17 11 11 01 31 74 61 62 6c   3(y).......1tabl
|   3984: 65 74 32 74 32 03 43 52 45 41 54 45 20 54 41 42   et2t2.CREATE TAB
|   4000: 4c 45 20 74 32 28 78 29 56 01 07 17 11 11 01 81   LE t2(x)V.......
|   4016: 17 74 61 62 6c 65 74 31 74 31 02 43 52 45 41 54   .tablet1t1.CREAT
|   4032: 45 20 54 41 42 4c 45 20 74 31 28 78 2c 79 2c 43   E TABLE t1(x,y,C
|   4048: 48 45 43 4b 28 64 61 74 65 28 78 29 42 45 54 57   HECK(date(x)BETW
|   4064: 45 45 4e 27 32 30 31 37 2d 30 37 2d 30 31 27 41   EEN'2017-07-01'A
|   4080: 4e 44 27 32 30 32 30 2d 30 37 2d 33 31 27 29 29   ND'2020-07-31'))
| page 2 offset 4096
|      0: 0d 00 00 00 00 10 00 00 00 00 00 00 00 00 00 00   ................
| page 3 offset 8192
|      0: 0d 00 00 00 08 0f 71 00 0f e9 0f d5 0f b4 0f 9c   ......q.........
|     16: 0f 90 0f 84 0f 78 0f 71 00 00 00 00 00 00 00 00   .....x.q........
|   3952: 00 05 08 02 13 6e 6f 77 0a 07 02 07 41 54 7f 2f   .....now....AT./
|   3968: e0 00 00 00 0a 06 02 07 41 3a 42 e3 80 00 00 00   ........A:B.....
|   3984: 0a 05 02 07 41 42 c1 bc 40 00 00 00 16 04 02 35   ....AB..@......5
|   4000: 32 30 31 39 2d 30 31 2d 30 36 20 30 30 3a 30 30   2019-01-06 00:00
|   4016: 3a 30 30 5a 1f 03 02 47 32 30 31 39 2d 30 31 2d   :00Z...G2019-01-
|   4032: 30 35 20 31 32 3a 33 34 3a 35 36 2e 32 35 38 2b   05 12:34:56.258+
|   4048: 30 34 3a 33 30 12 02 02 2d 32 30 31 39 2d 30 31   04:30...-2019-01
|   4064: 2d 30 34 20 31 34 3a 34 35 15 01 02 33 32 30 31   -04 14:45...3201
|   4080: 39 2d 30 31 2d 30 33 20 31 32 3a 30 30 3a 30 30   9-01-03 12:00:00
| page 4 offset 12288
|      0: 0d 00 00 00 0d 0f 2f 00 0f f3 0f ec 0f df 0f ce   ....../.........
|     16: 0f bc 0f a8 0f 94 0f 81 0f 6f 0f 5d 0f 4c 0f 3c   .........o.].L.<
|     32: 0f 2f 00 00 00 00 00 00 00 00 00 00 00 00 00 00   ./..............
|   3872: 00 00 00 00 00 00 00 00 00 00 00 00 00 00 00 0b   ................
|   3888: 0d 02 1f 6c 6f 63 61 6c 74 69 6d 65 0e 0c 02 25   ...localtime...%
|   3904: 73 74 61 72 74 20 6f 66 20 64 61 79 0f 0b 02 27   start of day...'
|   3920: 73 74 61 72 74 20 6f 66 20 79 65 61 72 10 0a 02   start of year...
|   3936: 29 73 74 61 72 74 20 6f 66 20 6d 6f 6e 74 68 10   )start of month.
|   3952: 09 02 29 2b 31 2e 30 30 30 30 30 20 79 65 61 72   ..)+1.00000 year
|   3968: 73 11 08 02 2b 2b 31 2e 30 30 30 30 30 20 6d 6f   s...++1.00000 mo
|   3984: 6e 74 68 73 12 07 02 2d 2b 31 2e 30 30 30 30 30   nths...-+1.00000
|   4000: 20 73 65 63 6f 6e 64 73 12 06 02 2d 2b 31 2e 30    seconds...-+1.0
|   4016: 30 30 30 30 20 6d 69 6e 75 74 65 73 10 05 02 29   0000 minutes...)
|   4032: 2b 31 2e 30 30 30 30 30 20 68 6f 75 72 73 0f 04   +1.00000 hours..
|   4048: 02 27 2b 31 2e 30 30 30 30 30 20 64 61 79 73 0b   .'+1.00000 days.
|   4064: 03 02 1f 77 65 65 6b 64 61 79 20 31 05 02 02 13   ...weekday 1....
|   4080: 75 74 63 0b 01 02 1f 75 6e 69 78 65 70 6f 63 68   utc....unixepoch
| end date001.txt.db
.testctrl prng_seed 1 db
.testctrl internal_functions
CREATE VIEW t4(x) AS VALUES
('unixepoch'),
('utc'),
('weekday 1'),
('+1.00000 days'),
('+1.00000 hours'),
('+1.00000 minutes'),
('+1.00000 seconds'),
('+1.00000 months'),
('+1.00000 years'),
('start of month'),
('start of year'),
('start of day'),
('localtime');
CREATE VIEW t5(x) AS VALUES
('2019-01-03 12:00:00'),
('2019-01-04 14:45'),
('2019-01-05 12:34:56.258+04:30'),
('2019-01-06 00:00:00Z'),
(2458488.5),
(1721059.5),
(5373119.5),
('now');
INSERT INTO t1(x,y) VALUES('2017-07-20','one');
SELECT x,a.y,b.y,strftime('%Y-%m-%d %H:%M:%f(%j,%J,%s,%w,%W)',x,a.y,b.y),
datetime(x,b.y,a.y),current_time,current_timestamp,current_date,
julianday(x,a.y,b.y)-julianday(x,b.y,a.y),
time(x,'+01:42:58.721','-1 hour','-42 minutes',b.y,a.y)
FROM t2, t3 AS a, t3 AS b;
INSERT OR IGNORE INTO t1(x, y) SELECT x, x FROM t2 WHERE x IS NOT 'now';
SELECT x,y,date(x) FROM t1;

