.open --hexdb
| size 20480 pagesize 4096 filename delete002.txt.db
| page 1 offset 0
|      0: 53 51 4c 69 74 65 20 66 6f 72 6d 61 74 20 33 00   SQLite format 3.
|     16: 10 00 01 01 00 40 20 20 00 00 00 00 00 00 00 05   .....@  ........
|     32: 00 00 00 00 00 00 00 00 00 00 00 04 00 00 00 04   ................
|     48: 00 00 00 00 00 00 00 00 00 00 00 01 00 00 00 00   ................
|     96: 00 00 00 00 0d 00 00 00 04 0f 33 00 0f d8 0f ac   ..........3.....
|    112: 0f 80 0f 33 00 00 00 00 00 00 00 00 00 00 00 00   ...3............
|   3888: 00 00 00 4b 04 06 17 25 25 01 5b 74 61 62 6c 65   ...K...%%.[table
|   3904: 73 71 6c 69 74 65 5f 73 74 61 74 31 73 71 6c 69   sqlite_stat1sqli
|   3920: 74 65 5f 73 74 61 74 31 05 43 52 45 41 54 45 20   te_stat1.CREATE 
|   3936: 54 41 42 4c 45 20 73 71 6c 69 74 65 5f 73 74 61   TABLE sqlite_sta
|   3952: 74 31 28 74 62 6c 2c 69 64 78 2c 73 74 61 74 29   t1(tbl,idx,stat)
|   3968: 2a 03 06 17 13 11 01 3f 69 6e 64 65 78 74 31 62   *......?indext1b
|   3984: 74 31 04 43 52 45 41 54 45 20 49 4e 44 45 58 20   t1.CREATE INDEX 
|   4000: 74 31 62 20 4f 4e 20 74 31 28 62 29 2a 02 06 17   t1b ON t1(b)*...
|   4016: 13 11 01 3f 69 6e 64 65 78 74 31 61 74 31 03 43   ...?indext1at1.C
|   4032: 52 45 41 54 45 20 49 4e 44 45 58 20 74 31 61 20   REATE INDEX t1a 
|   4048: 4f 4e 20 74 31 28 61 29 26 01 06 17 11 11 01 39   ON t1(a)&......9
|   4064: 74 61 62 6c 65 74 31 74 31 02 43 52 45 41 54 45   tablet1t1.CREATE
|   4080: 20 54 41 42 4c 45 20 74 31 28 61 2c 62 2c 63 29    TABLE t1(a,b,c)
| page 2 offset 4096
|      0: 0d 00 00 00 04 0f dd 00 0f f8 0f ef 0f e6 0f dd   ................
|   4048: 00 00 00 00 00 00 00 00 00 00 00 00 00 07 04 04   ................
|   4064: 01 01 01 09 0a 0b 07 03 04 01 01 01 06 08 09 07   ................
|   4080: 02 04 01 01 01 04 05 06 06 01 04 09 01 01 02 03   ................
| page 3 offset 8192
|      0: 0a 00 00 00 04 0f ea 00 0f fc 0f f6 0f f0 0f ea   ................
|   4064: 00 00 00 00 00 00 00 00 00 00 05 03 01 01 09 04   ................
|   4080: 05 03 01 01 06 03 05 03 01 01 04 02 03 03 09 09   ................
| page 4 offset 12288
|      0: 0a 00 00 00 04 0f e9 00 0f fb 0f f5 0f ef 0f e9   ................
|   4064: 00 00 00 00 00 00 00 00 00 05 03 01 01 0a 04 05   ................
|   4080: 03 01 01 08 03 05 03 01 01 05 02 04 03 01 09 02   ................
| page 5 offset 16384
|      0: 0d 00 00 00 02 0f e4 00 0f f2 0f e4 00 00 00 00   ................
|   4064: 00 00 00 00 0c 02 04 11 13 13 74 31 74 31 61 34   ..........t1t1a4
|   4080: 20 31 0c 01 04 11 13 13 74 31 74 31 62 34 20 31    1......t1t1b4 1
| end delete002.txt.db
.testctrl prng_seed 1 db
.testctrl internal_functions
SELECT * FROM t1 INDEXED BY t1a WHERE a=9 AND b=10;
SELECT * FROM t1 INDEXED BY t1b WHERE a=9 AND b=10;
SELECT * FROM t1 NOT INDEXED WHERE a=9 AND b=10;

