.open --hexdb
| size 20480 pagesize 4096 filename delete001.txt.db
| page 1 offset 0
|      0: 53 51 4c 69 74 65 20 66 6f 72 6d 61 74 20 33 00   SQLite format 3.
|     16: 10 00 01 01 00 40 20 20 00 00 00 00 00 00 00 05   .....@  ........
|     32: 00 00 00 00 00 00 00 00 00 00 00 04 00 00 00 04   ................
|     48: 00 00 00 00 00 00 00 00 00 00 00 01 00 00 00 00   ................
|     96: 00 00 00 00 0d 00 00 00 04 0f 42 00 0f c2 0f 96   ..........B.....
|    112: 0f 6a 0f 42 00 00 00 00 00 00 00 00 00 00 00 00   .j.B............
|   3904: 00 00 26 04 06 17 11 11 01 39 74 61 62 6c 65 74   ..&......9tablet
|   3920: 32 74 32 05 43 52 45 41 54 45 20 54 41 42 4c 45   2t2.CREATE TABLE
|   3936: 20 74 32 28 78 20 49 4e 54 29 2a 03 06 17 13 11    t2(x INT)*.....
|   3952: 01 3f 69 6e 64 65 78 69 31 62 74 31 04 43 52 45   .?indexi1bt1.CRE
|   3968: 41 54 45 20 49 4e 44 45 58 20 69 31 62 20 4f 4e   ATE INDEX i1b ON
|   3984: 20 74 31 28 62 29 2a 02 06 17 13 11 01 3f 69 6e    t1(b)*......?in
|   4000: 64 65 78 69 31 61 74 31 03 43 52 45 41 54 45 20   dexi1at1.CREATE 
|   4016: 49 4e 44 45 58 20 69 31 61 20 4f 4e 20 74 31 28   INDEX i1a ON t1(
|   4032: 61 29 3c 01 06 17 11 11 01 65 74 61 62 6c 65 74   a)<......etablet
|   4048: 31 74 31 02 43 52 45 41 54 45 20 54 41 42 4c 45   1t1.CREATE TABLE
|   4064: 20 74 31 28 69 20 49 4e 54 45 47 45 52 20 50 52    t1(i INTEGER PR
|   4080: 49 4d 41 52 59 20 4b 45 59 2c 20 61 2c 20 62 29   IMARY KEY, a, b)
| page 2 offset 4096
|      0: 0d 00 00 00 08 0f a2 00 0f f6 0f eb 0f dd 0f d1   ................
|     16: 0f c7 0f bc 0f ae 0f a2 00 00 00 00 00 00 00 00   ................
|   4000: 00 00 0a 08 04 00 15 11 66 6f 75 72 69 76 0c 07   ........fouriv..
|   4016: 04 00 17 13 74 68 72 65 65 69 69 69 09 06 04 00   ....threeiii....
|   4032: 13 11 74 77 6f 69 69 08 05 04 00 13 0f 6f 6e 65   ..twoii......one
|   4048: 69 0a 04 04 00 15 11 66 6f 75 72 69 76 0c 03 04   i......fouriv...
|   4064: 00 17 13 74 68 72 65 65 69 69 69 09 02 04 00 13   ...threeiii.....
|   4080: 11 74 77 6f 69 69 08 01 04 00 13 0f 6f 6e 65 69   .twoii......onei
| page 3 offset 8192
|      0: 0a 00 00 00 08 0f bb 00 0f de 0f bb 0f f9 0f d6   ................
|     16: 0f e7 0f c4 0f f1 0f ce 00 00 00 00 00 00 00 00   ................
|   4016: 00 00 00 00 00 00 00 00 00 00 00 08 03 15 01 66   ...............f
|   4032: 6f 75 72 08 09 03 17 01 74 68 72 65 65 07 07 03   our.....three...
|   4048: 13 01 74 77 6f 06 07 03 13 01 6f 6e 65 05 08 03   ..two.....one...
|   4064: 15 01 66 6f 75 72 04 09 03 17 01 74 68 72 65 65   ..four.....three
|   4080: 03 07 03 13 01 74 77 6f 02 06 03 13 09 6f 6e 65   .....two.....one
| page 4 offset 12288
|      0: 0a 00 00 00 08 0f c9 00 0f fb 0f df 0f f4 0f d8   ................
|     16: 0f ec 0f d0 0f e5 0f c9 00 00 00 00 00 00 00 00   ................
|   4032: 00 00 00 00 00 00 00 00 00 06 03 11 01 69 76 08   .............iv.
|   4048: 07 03 13 01 69 69 69 07 06 03 11 01 69 69 06 05   ....iii.....ii..
|   4064: 03 0f 01 69 05 06 03 11 01 69 76 04 07 03 13 01   ...i.....iv.....
|   4080: 69 69 69 03 06 03 11 01 69 69 02 04 03 0f 09 69   iii.....ii.....i
| page 5 offset 16384
|      0: 0d 00 00 00 05 0f e8 00 0f fc 0f f7 0f f2 0f ed   ................
|     16: 0f e8 00 00 00 00 00 00 00 00 00 00 00 00 00 00   ................
|   4064: 00 00 00 00 00 00 00 00 03 05 02 01 05 03 04 02   ................
|   4080: 01 04 03 03 02 01 03 03 02 02 01 02 02 01 02 09   ................
| end delete001.txt.db
.testctrl prng_seed 1 db
.testctrl internal_functions
DELETE FROM t1 WHERE a='two' OR b='iv';
DELETE FROM t2 WHERE EXISTS(SELECT 1 FROM t2 AS v WHERE v.x=t2.x-1);
PRAGMA count_changes(1);
WITH RECURSIVE c(x) AS (VALUES(1) UNION ALL SELECT x+1 FROM c WHERE x<10 LIMIT 5) INSERT INTO t2(x) SELECT x*100 FROM c;
DELETE FROM t2 WHERE rowid>3;
DELETE FROM t2;

