.open --hexdb
| size 20480 pagesize 4096 filename detach001.txt.db
| page 1 offset 0
|      0: 53 51 4c 69 74 65 20 66 6f 72 6d 61 74 20 33 00   SQLite format 3.
|     16: 10 00 01 01 00 40 20 20 00 00 00 00 00 00 00 05   .....@  ........
|     32: 00 00 00 00 00 00 00 00 00 00 00 04 00 00 00 04   ................
|     48: 00 00 00 00 00 00 00 00 00 00 00 01 00 00 00 00   ................
|     96: 00 00 00 00 0d 00 00 00 04 0f 23 00 0f 9f 0f 71   ..........#....q
|    112: 0f 4b 0f 23 00 00 00 00 00 00 00 00 00 00 00 00   .K.#............
|   3872: 00 00 00 26 04 06 17 11 11 01 39 74 61 62 6c 65   ...&......9table
|   3888: 74 34 74 34 05 43 52 45 41 54 45 20 54 41 42 4c   t4t4.CREATE TABL
|   3904: 45 20 74 34 28 64 2c 65 2c 66 29 24 03 06 17 11   E t4(d,e,f)$....
|   3920: 11 01 35 74 61 62 6c 65 74 33 74 33 04 43 52 45   ..5tablet3t3.CRE
|   3936: 41 54 45 20 54 41 42 4c 45 20 74 33 28 77 2c 7a   ATE TABLE t3(w,z
|   3952: 29 2c 02 06 17 11 11 01 45 74 61 62 6c 65 74 32   ),......Etablet2
|   3968: 74 32 03 43 52 45 41 54 45 20 54 41 42 4c 45 20   t2.CREATE TABLE 
|   3984: 74 32 28 78 30 2c 78 31 2c 79 30 2c 79 31 29 5f   t2(x0,x1,y0,y1)_
|   4000: 01 07 17 11 11 01 81 29 74 61 62 6c 65 74 31 74   .......)tablet1t
|   4016: 31 02 43 52 45 41 54 45 20 54 41 42 4c 45 20 74   1.CREATE TABLE t
|   4032: 31 28 0a 20 20 61 20 49 4e 54 45 47 45 52 20 50   1(.  a INTEGER P
|   4048: 52 49 4d 41 52 59 20 4b 45 59 2c 0a 20 20 62 20   RIMARY KEY,.  b 
|   4064: 49 4e 54 45 47 45 52 2c 0a 20 20 63 20 54 45 58   INTEGER,.  c TEX
|   4080: 54 0a 29 57 49 54 48 4f 55 54 20 52 4f 57 49 44   T.)WITHOUT ROWID
| page 2 offset 4096
|      0: 0a 00 00 00 00 10 00 00 00 00 00 00 00 00 00 00   ................
| page 3 offset 8192
|      0: 0d 00 00 00 00 10 00 00 00 00 00 00 00 00 00 00   ................
| page 4 offset 12288
|      0: 0d 00 00 00 00 10 00 00 00 00 00 00 00 00 00 00   ................
| page 5 offset 16384
|      0: 0d 00 00 00 00 10 00 00 00 00 00 00 00 00 00 00   ................
| end detach001.txt.db
.testctrl prng_seed 1 db
.testctrl internal_functions
ATTACH ':memory:' AS aux1;
ATTACH NULL AS aux2;
CREATE TABLE aux1.t5(x,y,z);
INSERT INTO t5 SELECT * FROM t1;
DETACH aux1;
DETACH aux2;
DETACH main;
CREATE TEMP TABLE t6(p,q,r);
DETACH temp;

