.open --hexdb
| size 24576 pagesize 4096 filename exists001.txt.db
| page 1 offset 0
|      0: 53 51 4c 69 74 65 20 66 6f 72 6d 61 74 20 33 00   SQLite format 3.
|     16: 10 00 01 01 00 40 20 20 00 00 00 00 00 00 00 06   .....@  ........
|     32: 00 00 00 00 00 00 00 00 00 00 00 04 00 00 00 04   ................
|     48: 00 00 00 00 00 00 00 00 00 00 00 01 00 00 00 00   ................
|     96: 00 00 00 00 0d 0f f8 00 05 0e e2 00 0f 8f 0f d3   ................
|    112: 0f 50 0f 10 0e e2 00 00 00 00 00 00 00 00 00 00   .P..............
|   3808: 00 00 2c 05 06 17 15 15 01 3d 74 61 62 6c 65 64   ..,......=tabled
|   3824: 75 61 6c 64 75 61 6c 06 43 52 45 41 54 45 20 54   ualdual.CREATE T
|   3840: 41 42 4c 45 20 64 75 61 6c 28 64 75 6d 6d 79 29   ABLE dual(dummy)
|   3856: 3e 04 06 17 15 11 01 65 69 6e 64 65 78 74 31 78   >......eindext1x
|   3872: 31 74 31 05 43 52 45 41 54 45 20 49 4e 44 45 58   1t1.CREATE INDEX
|   3888: 20 74 31 78 31 20 4f 4e 20 74 31 28 61 20 43 4f    t1x1 ON t1(a CO
|   3904: 4c 4c 41 54 45 20 6e 6f 63 61 73 65 2c 20 78 29   LLATE nocase, x)
|   3920: 3d 03 06 17 11 11 01 67 74 61 62 6c 65 74 32 74   =......gtablet2t
|   3936: 32 04 43 52 45 41 54 45 20 54 41 42 4c 45 20 74   2.CREATE TABLE t
|   3952: 32 28 63 20 54 45 58 54 20 43 4f 4c 4c 41 54 45   2(c TEXT COLLATE
|   3968: 20 6e 6f 63 61 73 65 2c 20 79 20 49 4e 54 29 42    nocase, y INT)B
|   3984: 01 06 17 11 11 01 71 74 61 62 6c 65 74 31 74 31   ......qtablet1t1
|   4000: 02 43 52 45 41 54 45 20 54 41 42 4c 45 20 74 31   .CREATE TABLE t1
|   4016: 28 61 20 54 45 58 54 20 50 52 49 4d 41 52 59 20   (a TEXT PRIMARY 
|   4032: 4b 45 59 2c 20 62 20 54 45 58 54 2c 20 78 20 49   KEY, b TEXT, x I
|   4048: 4e 54 29 23 02 06 17 37 11 01 00 69 6e 64 65 78   NT)#...7...index
|   4064: 73 71 6c 69 74 65 5f 61 75 74 6f 69 6e 64 65 78   sqlite_autoindex
|   4080: 5f 74 31 5f 31 74 31 03 00 00 00 08 00 00 00 00   _t1_1t1.........
| page 2 offset 4096
|      0: 0d 00 00 00 05 0f c2 00 0f f6 0f ea 0f db 0f ce   ................
|     16: 0f c2 00 00 00 00 00 00 00 00 00 00 00 00 00 00   ................
|   4032: 00 00 0a 05 04 15 0f 01 66 69 76 65 76 05 0b 04   ........fivev...
|   4048: 04 15 11 01 66 6f 75 72 69 76 04 0d 03 04 17 13   ....fouriv......
|   4064: 01 74 68 72 65 65 69 69 69 03 0a 02 04 13 11 01   .threeiii.......
|   4080: 74 77 6f 69 69 02 08 01 04 13 0f 09 6f 6e 65 69   twoii.......onei
| page 3 offset 8192
|      0: 0a 00 00 00 05 0f d5 00 0f d5 0f de 0f f9 0f e7   ................
|     16: 0f f1 00 00 00 00 00 00 00 00 00 00 00 00 00 00   ................
|   4048: 00 00 00 00 00 08 03 15 01 66 69 76 65 05 08 03   .........five...
|   4064: 15 01 66 6f 75 72 04 09 03 17 01 74 68 72 65 65   ..four.....three
|   4080: 03 07 03 13 01 74 77 6f 02 06 03 13 09 6f 6e 65   .....two.....one
| page 4 offset 12288
|      0: 0d 00 00 00 04 0f db 00 0f f6 0f ec 0f e3 0f db   ................
|   4048: 00 00 00 00 00 00 00 00 00 00 00 06 04 03 13 09   ................
|   4064: 6f 6e 65 07 03 03 13 01 54 57 4f 02 08 02 03 15   one.....TWO.....
|   4080: 01 66 6f 75 72 04 08 01 03 15 01 46 49 56 45 05   .four......FIVE.
| page 5 offset 16384
|      0: 0a 00 00 00 05 0f cc 00 0f f5 0f ea 0f e2 0f d6   ................
|     16: 0f cc 00 00 00 00 00 00 00 00 00 00 00 00 00 00   ................
|   4032: 00 00 00 00 00 00 00 00 00 00 00 00 09 04 13 01   ................
|   4048: 01 74 77 6f 02 02 0b 04 17 01 01 74 68 72 65 65   .two.......three
|   4064: 03 03 07 04 13 09 09 6f 6e 65 0a 04 15 01 01 66   .......one.....f
|   4080: 6f 75 72 04 04 0a 04 15 01 01 66 69 76 65 05 05   our.......five..
| page 6 offset 20480
|      0: 0d 00 00 00 01 0f fb 00 0f fb 00 00 00 00 00 00   ................
|   4080: 00 00 00 00 00 00 00 00 00 00 00 03 01 02 0f 58   ...............X
| end exists001.txt.db
.testctrl prng_seed 1 db
.testctrl internal_functions
SELECT a FROM t1 WHERE EXISTS (SELECT 1 FROM t2 WHERE c=a);
SELECT a FROM t1 WHERE EXISTS (SELECT 1 FROM t2 WHERE (c,y)=(a,x));
SELECT a FROM t1 WHERE EXISTS (SELECT 1 FROM t2 WHERE c=a AND x=y);
SELECT a FROM t1 WHERE EXISTS (SELECT 1 FROM t2 WHERE (a,x)=(c,y));
SELECT a FROM t1 WHERE EXISTS (SELECT 1 FROM t2 WHERE a=c AND x=y);

