.open --hexdb
| size 16384 pagesize 4096 filename explain001.txt.db
| page 1 offset 0
|      0: 53 51 4c 69 74 65 20 66 6f 72 6d 61 74 20 33 00   SQLite format 3.
|     16: 10 00 01 01 00 40 20 20 00 00 00 00 00 00 00 04   .....@  ........
|     32: 00 00 00 00 00 00 00 00 00 00 00 02 00 00 00 04   ................
|     48: 00 00 00 00 00 00 00 00 00 00 00 01 00 00 00 00   ................
|     96: 00 00 00 00 0d 0f f8 00 04 0e 79 00 0f 2c 0f d3   ..........y..,..
|    112: 0e da 0e 79 00 00 00 00 00 00 00 00 00 00 00 00   ...y............
|   3696: 00 00 00 00 00 00 00 00 00 5f 04 07 1b 11 11 08   ........._......
|   3712: 81 27 74 72 69 67 67 65 72 72 31 74 31 43 52 45   .'triggerr1t1CRE
|   3728: 41 54 45 20 54 52 49 47 47 45 52 20 72 31 20 41   ATE TRIGGER r1 A
|   3744: 46 54 45 52 20 49 4e 53 45 52 54 20 4f 4e 20 74   FTER INSERT ON t
|   3760: 31 20 57 48 45 4e 20 6e 65 77 2e 61 3e 30 20 42   1 WHEN new.a>0 B
|   3776: 45 47 49 4e 20 53 45 4c 45 43 54 20 2a 20 46 52   EGIN SELECT * FR
|   3792: 4f 4d 20 74 31 3b 20 45 4e 44 50 03 06 17 2b 2b   OM t1; ENDP...++
|   3808: 01 59 74 61 62 6c 65 73 71 6c 69 74 65 5f 73 65   .Ytablesqlite_se
|   3824: 71 75 65 6e 63 65 73 71 6c 69 74 65 5f 73 65 71   quencesqlite_seq
|   3840: 75 65 6e 63 65 04 43 52 45 41 54 45 20 54 41 42   uence.CREATE TAB
|   3856: 4c 45 20 73 71 6c 69 74 65 5f 73 65 71 75 65 6e   LE sqlite_sequen
|   3872: 63 65 28 6e 61 6d 65 2c 73 65 71 29 81 24 01 07   ce(name,seq).$..
|   3888: 17 11 11 01 82 33 74 61 62 6c 65 74 31 74 31 02   .....3tablet1t1.
|   3904: 43 52 45 41 54 45 20 54 41 42 4c 45 20 74 31 28   CREATE TABLE t1(
|   3920: 61 20 49 4e 54 45 47 45 52 20 50 52 49 4d 41 52   a INTEGER PRIMAR
|   3936: 59 20 4b 45 59 20 41 55 54 4f 49 4e 43 52 45 4d   Y KEY AUTOINCREM
|   3952: 45 4e 54 2c 20 62 20 54 45 58 54 20 55 4e 49 51   ENT, b TEXT UNIQ
|   3968: 55 45 20 4e 4f 54 20 4e 55 4c 4c 0a 44 45 46 41   UE NOT NULL.DEFA
|   3984: 55 4c 54 20 27 63 68 61 72 6c 6f 74 74 65 27 2c   ULT 'charlotte',
|   4000: 0a 63 20 52 45 41 4c 20 44 45 46 41 55 4c 54 20   .c REAL DEFAULT 
|   4016: 2d 33 2e 31 34 31 35 39 2c 20 64 20 42 4c 4f 42   -3.14159, d BLOB
|   4032: 20 44 45 46 41 55 4c 54 20 78 27 30 31 32 33 34    DEFAULT x'01234
|   4048: 35 27 29 23 02 06 17 37 11 01 00 69 6e 64 65 78   5')#...7...index
|   4064: 73 71 6c 69 74 65 5f 61 75 74 6f 69 6e 64 65 78   sqlite_autoindex
|   4080: 5f 74 31 5f 31 74 31 03 00 00 00 08 00 00 00 00   _t1_1t1.........
| page 2 offset 4096
|      0: 0d 00 00 00 01 0f e5 00 0f e5 00 00 00 00 00 00   ................
|   4064: 00 00 00 00 00 19 01 05 00 1f 07 12 63 68 61 72   ............char
|   4080: 6c 6f 74 74 65 c0 09 21 f9 f0 1b 86 6e 01 23 45   lotte..!....n.#E
| page 3 offset 8192
|      0: 0a 00 00 00 01 0f f3 00 0f f3 00 00 00 00 00 00   ................
|   4080: 00 00 00 0c 03 1f 09 63 68 61 72 6c 6f 74 74 65   .......charlotte
| page 4 offset 12288
|      0: 0d 00 00 00 01 0f f9 00 0f f9 00 00 00 00 00 00   ................
|   4080: 00 00 00 00 00 00 00 00 00 05 01 03 11 09 74 31   ..............t1
| end explain001.txt.db
.testctrl prng_seed 1 db
.testctrl internal_functions
EXPLAIN SELECT a,b,c,d FROM t1;
EXPLAIN INSERT INTO t1 VALUES(17,?1,'density',4.777153);
EXPLAIN QUERY PLAN
WITH RECURSIVE c(x) AS (VALUES(1) UNION ALL SELECT x+1 FROM c WHERE x<100)
SELECT a,x FROM c,t1;

