.open --hexdb
| size 24576 pagesize 4096 filename expr004.txt.db
| page 1 offset 0
|      0: 53 51 4c 69 74 65 20 66 6f 72 6d 61 74 20 33 00   SQLite format 3.
|     16: 10 00 01 01 00 40 20 20 00 00 00 00 00 00 00 06   .....@  ........
|     32: 00 00 00 00 00 00 00 00 00 00 00 03 00 00 00 04   ................
|     48: 00 00 00 00 00 00 00 00 00 00 00 01 00 00 00 00   ................
|     96: 00 00 00 00 0d 0f cb 00 05 0f 12 00 0f d3 0f 71   ...............q
|    112: 0f a6 0f 12 0f 4c 00 00 00 00 00 00 00 00 00 00   .....L..........
|   3856: 00 00 38 04 06 17 11 11 01 5d 74 61 62 6c 65 74   ..8......]tablet
|   3872: 33 74 33 05 43 52 45 41 54 45 20 54 41 42 4c 45   3t3.CREATE TABLE
|   3888: 20 74 33 28 61 20 54 45 58 54 20 50 52 49 4d 41    t3(a TEXT PRIMA
|   3904: 52 59 20 4b 45 59 20 44 45 53 43 29 23 05 06 17   RY KEY DESC)#...
|   3920: 37 11 01 00 69 6e 64 65 78 73 71 6c 69 74 65 5f   7...indexsqlite_
|   3936: 61 75 74 6f 69 6e 64 65 78 5f 74 33 5f 31 74 33   autoindex_t3_1t3
|   3952: 06 33 02 06 17 11 11 01 53 74 61 62 6c 65 74 32   .3......Stablet2
|   3968: 74 32 03 43 52 45 41 54 45 20 54 41 42 4c 45 20   t2.CREATE TABLE 
|   3984: 74 32 28 61 20 54 45 58 54 20 50 52 49 4d 41 52   t2(a TEXT PRIMAR
|   4000: 59 20 4b 45 59 29 23 03 06 17 37 11 01 00 69 6e   Y KEY)#...7...in
|   4016: 64 65 78 73 71 6c 69 74 65 5f 61 75 74 6f 69 6e   dexsqlite_autoin
|   4032: 64 65 78 5f 74 32 5f 31 74 32 04 00 00 00 08 00   dex_t2_1t2......
|   4048: 00 00 00 2b 01 06 17 11 11 01 43 74 61 62 6c 65   ...+......Ctable
|   4064: 74 31 74 31 02 43 52 45 41 54 45 20 54 41 42 4c   t1t1.CREATE TABL
|   4080: 45 20 74 31 28 61 20 54 45 58 54 2c 62 2c 63 29   E t1(a TEXT,b,c)
| page 2 offset 4096
|      0: 0d 00 00 00 03 0f e3 00 0f f7 0f ed 0f e3 00 00   ................
|   4064: 00 00 00 08 03 04 0f 01 02 33 21 01 4d 08 02 04   .........3!.M...
|   4080: 0f 01 02 32 16 00 de 07 01 04 0f 01 01 31 0b 6f   ...2.........1.o
| page 3 offset 8192
|      0: 0d 00 00 00 02 0f f5 00 0f fb 0f f5 00 00 00 00   ................
|   4080: 00 00 00 00 00 04 02 02 11 31 31 03 01 02 0f 33   .........11....3
| page 4 offset 12288
|      0: 0a 00 00 00 02 0f f4 00 0f f4 0f fb 00 00 00 00   ................
|   4080: 00 00 00 00 06 03 11 01 31 31 02 04 03 0f 09 33   ........11.....3
| page 5 offset 16384
|      0: 0d 00 00 00 02 0f f5 00 0f fb 0f f5 00 00 00 00   ................
|   4080: 00 00 00 00 00 04 02 02 11 31 31 03 01 02 0f 33   .........11....3
| page 6 offset 20480
|      0: 0a 00 00 00 02 0f f4 00 0f fb 0f f4 00 00 00 00   ................
|   4080: 00 00 00 00 06 03 11 01 31 31 02 04 03 0f 09 33   ........11.....3
| end expr004.txt.db
.testctrl prng_seed 1 db
.testctrl internal_functions
SELECT b FROM t1 WHERE a IN t2;
SELECT b FROM t1 WHERE a IN (SELECT * FROM t2) ORDER BY b;
SELECT b FROM t1 WHERE a NOT IN (SELECT a FROM t2) ORDER BY b;
SELECT b FROM t1 WHERE a IN t3;
SELECT b FROM t1 WHERE a IN (SELECT * FROM t3) ORDER BY b;
SELECT b FROM t1 WHERE a NOT IN (SELECT a FROM t3) ORDER BY b;

