.open --hexdb
| size 16384 pagesize 4096 filename expr006.txt.db
| page 1 offset 0
|      0: 53 51 4c 69 74 65 20 66 6f 72 6d 61 74 20 33 00   SQLite format 3.
|     16: 10 00 01 01 00 40 20 20 00 00 00 00 00 00 00 04   .....@  ........
|     32: 00 00 00 00 00 00 00 00 00 00 00 03 00 00 00 04   ................
|     48: 00 00 00 00 00 00 00 00 00 00 00 01 00 00 00 00   ................
|     96: 00 00 00 00 0d 00 00 00 03 0f 60 00 0f d6 0f 9b   ..........`.....
|    112: 0f 60 00 00 00 00 00 00 00 00 00 00 00 00 00 00   .`..............
|   3936: 39 03 06 17 11 11 01 5f 74 61 62 6c 65 74 33 74   9......_tablet3t
|   3952: 33 04 43 52 45 41 54 45 20 54 41 42 4c 45 20 74   3.CREATE TABLE t
|   3968: 33 28 78 20 49 4e 54 45 47 45 52 20 50 52 49 4d   3(x INTEGER PRIM
|   3984: 41 52 59 20 4b 45 59 2c 20 79 29 39 02 06 17 11   ARY KEY, y)9....
|   4000: 11 01 5f 74 61 62 6c 65 74 32 74 32 03 43 52 45   .._tablet2t2.CRE
|   4016: 41 54 45 20 54 41 42 4c 45 20 74 32 28 78 20 49   ATE TABLE t2(x I
|   4032: 4e 54 45 47 45 52 20 50 52 49 4d 41 52 59 20 4b   NTEGER PRIMARY K
|   4048: 45 59 2c 20 79 29 28 01 06 17 11 11 01 3d 74 61   EY, y)(......=ta
|   4064: 62 6c 65 74 31 74 31 02 43 52 45 41 54 45 20 54   blet1t1.CREATE T
|   4080: 41 42 4c 45 20 74 31 28 61 2c 62 2c 63 2c 64 29   ABLE t1(a,b,c,d)
| page 2 offset 4096
|      0: 0d 00 00 00 3c 0c 05 00 0f f0 0f df 0f ce 0f bd   ....<...........
|     16: 0f ac 0f 9b 0f 8a 0f 79 0f 68 0f 57 0f 46 0f 35   .......y.h.W.F.5
|     32: 0f 24 0f 13 0f 02 0e f1 0e e0 0e cf 0e be 0e ad   .$..............
|     48: 0e 9c 0e 8b 0e 7a 0e 69 0e 58 0e 47 0e 36 0e 25   .....z.i.X.G.6.%
|     64: 0e 14 0e 03 0d f2 0d e1 0d d0 0d bf 0d ae 0d 9d   ................
|     80: 0d 8c 0d 7b 0d 6a 0d 59 0d 48 0d 37 0d 26 0d 15   .....j.Y.H.7.&..
|     96: 0d 04 0c f3 0c e2 0c d1 0c c0 0c af 0c 9e 0c 8d   ................
|    112: 0c 7c 0c 6b 0c 5a 0c 49 0c 38 0c 27 0c 16 0c 05   .|.k.Z.I.8.'....
|   3072: 00 00 00 00 00 0f 3c 05 01 1b 01 01 3c 61 2d 30   ......<.....<a-0
|   3088: 36 30 2d 62 3d 3e 0f 3b 05 01 1b 01 01 3b 61 2d   60-b=>.;.....;a-
|   3104: 30 35 39 2d 62 3c 3d 0f 3a 05 01 1b 01 01 3a 61   059-b<=.:.....:a
|   3120: 2d 30 35 38 2d 62 3b 3c 0f 39 05 01 1b 01 01 39   -058-b;<.9.....9
|   3136: 61 2d 30 35 37 2d 62 3a 3b 0f 38 05 01 1b 01 01   a-057-b:;.8.....
|   3152: 38 61 2d 30 35 36 2d 62 39 3a 0f 37 05 01 1b 01   8a-056-b9:.7....
|   3168: 01 37 61 2d 30 35 35 2d 62 38 39 0f 36 05 01 1b   .7a-055-b89.6...
|   3184: 01 01 36 61 2d 30 35 34 2d 62 37 38 0f 35 05 01   ..6a-054-b78.5..
|   3200: 1b 01 01 35 61 2d 30 35 33 2d 62 36 37 0f 34 05   ...5a-053-b67.4.
|   3216: 01 1b 01 01 34 61 2d 30 35 32 2d 62 35 36 0f 33   ....4a-052-b56.3
|   3232: 05 01 1b 01 01 33 61 2d 30 35 31 2d 62 34 35 0f   .....3a-051-b45.
|   3248: 32 05 01 1b 01 01 32 61 2d 30 35 30 2d 62 33 34   2.....2a-050-b34
|   3264: 0f 31 05 01 1b 01 01 31 61 2d 30 34 39 2d 62 32   .1.....1a-049-b2
|   3280: 33 0f 30 05 01 1b 01 01 30 61 2d 30 34 38 2d 62   3.0.....0a-048-b
|   3296: 31 32 0f 2f 05 01 1b 01 01 2f 61 2d 30 34 37 2d   12./...../a-047-
|   3312: 62 30 31 0f 2e 05 01 1b 01 01 2e 61 2d 30 34 36   b01........a-046
|   3328: 2d 62 2f 30 0f 2d 05 01 1b 01 01 2d 61 2d 30 34   -b/0.-.....-a-04
|   3344: 35 2d 62 2e 2f 0f 2c 05 01 1b 01 01 2c 61 2d 30   5-b./.,.....,a-0
|   3360: 34 34 2d 62 2d 2e 0f 2b 05 01 1b 01 01 2b 61 2d   44-b-..+.....+a-
|   3376: 30 34 33 2d 62 2c 2d 0f 2a 05 01 1b 01 01 2a 61   043-b,-.*.....*a
|   3392: 2d 30 34 32 2d 62 2b 2c 0f 29 05 01 1b 01 01 29   -042-b+,.).....)
|   3408: 61 2d 30 34 31 2d 62 2a 2b 0f 28 05 01 1b 01 01   a-041-b*+.(.....
|   3424: 28 61 2d 30 34 30 2d 62 29 2a 0f 27 05 01 1b 01   (a-040-b)*.'....
|   3440: 01 27 61 2d 30 33 39 2d 62 28 29 0f 26 05 01 1b   .'a-039-b().&...
|   3456: 01 01 26 61 2d 30 33 38 2d 62 27 28 0f 25 05 01   ..&a-038-b'(.%..
|   3472: 1b 01 01 25 61 2d 30 33 37 2d 62 26 27 0f 24 05   ...%a-037-b&'.$.
|   3488: 01 1b 01 01 24 61 2d 30 33 36 2d 62 25 26 0f 23   ....$a-036-b%&.#
|   3504: 05 01 1b 01 01 23 61 2d 30 33 35 2d 62 24 25 0f   .....#a-035-b$%.
|   3520: 22 05 01 1b 01 01 22 61 2d 30 33 34 2d 62 23 24   .......a-034-b#$
|   3536: 0f 21 05 01 1b 01 01 21 61 2d 30 33 33 2d 62 22   .!.....!a-033-b.
|   3552: 23 0f 20 05 01 1b 01 01 20 61 2d 30 33 32 2d 62   #. ..... a-032-b
|   3568: 21 22 0f 1f 05 01 1b 01 01 1f 61 2d 30 33 31 2d   !.........a-031-
|   3584: 62 20 21 0f 1e 05 01 1b 01 01 1e 61 2d 30 33 30   b !........a-030
|   3600: 2d 62 1f 20 0f 1d 05 01 1b 01 01 1d 61 2d 30 32   -b. ........a-02
|   3616: 39 2d 62 1e 1f 0f 1c 05 01 1b 01 01 1c 61 2d 30   9-b..........a-0
|   3632: 32 38 2d 62 1d 1e 0f 1b 05 01 1b 01 01 1b 61 2d   28-b..........a-
|   3648: 30 32 37 2d 62 1c 1d 0f 1a 05 01 1b 01 01 1a 61   027-b..........a
|   3664: 2d 30 32 36 2d 62 1b 1c 0f 19 05 01 1b 01 01 19   -026-b..........
|   3680: 61 2d 30 32 35 2d 62 1a 1b 0f 18 05 01 1b 01 01   a-025-b.........
|   3696: 18 61 2d 30 32 34 2d 62 19 1a 0f 17 05 01 1b 01   .a-024-b........
|   3712: 01 17 61 2d 30 32 33 2d 62 18 19 0f 16 05 01 1b   ..a-023-b.......
|   3728: 01 01 16 61 2d 30 32 32 2d 62 17 18 0f 15 05 01   ...a-022-b......
|   3744: 1b 01 01 15 61 2d 30 32 31 2d 62 16 17 0f 14 05   ....a-021-b.....
|   3760: 01 1b 01 01 14 61 2d 30 32 30 2d 62 15 16 0f 13   .....a-020-b....
|   3776: 05 01 1b 01 01 13 61 2d 30 31 39 2d 62 14 15 0f   ......a-019-b...
|   3792: 12 05 01 1b 01 01 12 61 2d 30 31 38 2d 62 13 14   .......a-018-b..
|   3808: 0f 11 05 01 1b 01 01 11 61 2d 30 31 37 2d 62 12   ........a-017-b.
|   3824: 13 0f 10 05 01 1b 01 01 10 61 2d 30 31 36 2d 62   .........a-016-b
|   3840: 11 12 0f 0f 05 01 1b 01 01 0f 61 2d 30 31 35 2d   ..........a-015-
|   3856: 62 10 11 0f 0e 05 01 1b 01 01 0e 61 2d 30 31 34   b..........a-014
|   3872: 2d 62 0f 10 0f 0d 05 01 1b 01 01 0d 61 2d 30 31   -b..........a-01
|   3888: 33 2d 62 0e 0f 0f 0c 05 01 1b 01 01 0c 61 2d 30   3-b..........a-0
|   3904: 31 32 2d 62 0d 0e 0f 0b 05 01 1b 01 01 0b 61 2d   12-b..........a-
|   3920: 30 31 31 2d 62 0c 0d 0f 0a 05 01 1b 01 01 0a 61   011-b..........a
|   3936: 2d 30 31 30 2d 62 0b 0c 0f 09 05 01 1b 01 01 09   -010-b..........
|   3952: 61 2d 30 30 39 2d 62 0a 0b 0f 08 05 01 1b 01 01   a-009-b.........
|   3968: 08 61 2d 30 30 38 2d 62 09 0a 0f 07 05 01 1b 01   .a-008-b........
|   3984: 01 07 61 2d 30 30 37 2d 62 08 09 0f 06 05 01 1b   ..a-007-b.......
|   4000: 01 01 06 61 2d 30 30 36 2d 62 07 08 0f 05 05 01   ...a-006-b......
|   4016: 1b 01 01 05 61 2d 30 30 35 2d 62 06 07 0f 04 05   ....a-005-b.....
|   4032: 01 1b 01 01 04 61 2d 30 30 34 2d 62 05 06 0f 03   .....a-004-b....
|   4048: 05 01 1b 01 01 03 61 2d 30 30 33 2d 62 04 05 0f   ......a-003-b...
|   4064: 02 05 01 1b 01 01 02 61 2d 30 30 32 2d 62 03 04   .......a-002-b..
|   4080: 0e 01 05 09 1b 01 01 61 2d 30 30 31 2d 62 02 03   .......a-001-b..
| page 3 offset 8192
|      0: 0d 00 00 00 3c 0d 30 00 0f f4 0f e8 0f dc 0f d0   ....<.0.........
|     16: 0f c4 0f b8 0f ac 0f a0 0f 94 0f 88 0f 7c 0f 70   .............|.p
|     32: 0f 64 0f 58 0f 4c 0f 40 0f 34 0f 28 0f 1c 0f 10   .d.X.L.@.4.(....
|     48: 0f 04 0e f8 0e ec 0e e0 0e d4 0e c8 0e bc 0e b0   ................
|     64: 0e a4 0e 98 0e 8c 0e 80 0e 74 0e 68 0e 5c 0e 50   .........t.h...P
|     80: 0e 44 0e 38 0e 2c 0e 20 0e 14 0e 08 0d fc 0d f0   .D.8.,. ........
|     96: 0d e4 0d d8 0d cc 0d c0 0d b4 0d a8 0d 9c 0d 90   ................
|    112: 0d 84 0d 78 0d 6c 0d 60 0d 54 0d 48 0d 3c 0d 30   ...x.l.`.T.H.<.0
|   3376: 0a 3c 03 00 1b 78 2d 30 36 30 2d 79 0a 3b 03 00   .<...x-060-y.;..
|   3392: 1b 78 2d 30 35 39 2d 79 0a 3a 03 00 1b 78 2d 30   .x-059-y.:...x-0
|   3408: 35 38 2d 79 0a 39 03 00 1b 78 2d 30 35 37 2d 79   58-y.9...x-057-y
|   3424: 0a 38 03 00 1b 78 2d 30 35 36 2d 79 0a 37 03 00   .8...x-056-y.7..
|   3440: 1b 78 2d 30 35 35 2d 79 0a 36 03 00 1b 78 2d 30   .x-055-y.6...x-0
|   3456: 35 34 2d 79 0a 35 03 00 1b 78 2d 30 35 33 2d 79   54-y.5...x-053-y
|   3472: 0a 34 03 00 1b 78 2d 30 35 32 2d 79 0a 33 03 00   .4...x-052-y.3..
|   3488: 1b 78 2d 30 35 31 2d 79 0a 32 03 00 1b 78 2d 30   .x-051-y.2...x-0
|   3504: 35 30 2d 79 0a 31 03 00 1b 78 2d 30 34 39 2d 79   50-y.1...x-049-y
|   3520: 0a 30 03 00 1b 78 2d 30 34 38 2d 79 0a 2f 03 00   .0...x-048-y./..
|   3536: 1b 78 2d 30 34 37 2d 79 0a 2e 03 00 1b 78 2d 30   .x-047-y.....x-0
|   3552: 34 36 2d 79 0a 2d 03 00 1b 78 2d 30 34 35 2d 79   46-y.-...x-045-y
|   3568: 0a 2c 03 00 1b 78 2d 30 34 34 2d 79 0a 2b 03 00   .,...x-044-y.+..
|   3584: 1b 78 2d 30 34 33 2d 79 0a 2a 03 00 1b 78 2d 30   .x-043-y.*...x-0
|   3600: 34 32 2d 79 0a 29 03 00 1b 78 2d 30 34 31 2d 79   42-y.)...x-041-y
|   3616: 0a 28 03 00 1b 78 2d 30 34 30 2d 79 0a 27 03 00   .(...x-040-y.'..
|   3632: 1b 78 2d 30 33 39 2d 79 0a 26 03 00 1b 78 2d 30   .x-039-y.&...x-0
|   3648: 33 38 2d 79 0a 25 03 00 1b 78 2d 30 33 37 2d 79   38-y.%...x-037-y
|   3664: 0a 24 03 00 1b 78 2d 30 33 36 2d 79 0a 23 03 00   .$...x-036-y.#..
|   3680: 1b 78 2d 30 33 35 2d 79 0a 22 03 00 1b 78 2d 30   .x-035-y.....x-0
|   3696: 33 34 2d 79 0a 21 03 00 1b 78 2d 30 33 33 2d 79   34-y.!...x-033-y
|   3712: 0a 20 03 00 1b 78 2d 30 33 32 2d 79 0a 1f 03 00   . ...x-032-y....
|   3728: 1b 78 2d 30 33 31 2d 79 0a 1e 03 00 1b 78 2d 30   .x-031-y.....x-0
|   3744: 33 30 2d 79 0a 1d 03 00 1b 78 2d 30 32 39 2d 79   30-y.....x-029-y
|   3760: 0a 1c 03 00 1b 78 2d 30 32 38 2d 79 0a 1b 03 00   .....x-028-y....
|   3776: 1b 78 2d 30 32 37 2d 79 0a 1a 03 00 1b 78 2d 30   .x-027-y.....x-0
|   3792: 32 36 2d 79 0a 19 03 00 1b 78 2d 30 32 35 2d 79   26-y.....x-025-y
|   3808: 0a 18 03 00 1b 78 2d 30 32 34 2d 79 0a 17 03 00   .....x-024-y....
|   3824: 1b 78 2d 30 32 33 2d 79 0a 16 03 00 1b 78 2d 30   .x-023-y.....x-0
|   3840: 32 32 2d 79 0a 15 03 00 1b 78 2d 30 32 31 2d 79   22-y.....x-021-y
|   3856: 0a 14 03 00 1b 78 2d 30 32 30 2d 79 0a 13 03 00   .....x-020-y....
|   3872: 1b 78 2d 30 31 39 2d 79 0a 12 03 00 1b 78 2d 30   .x-019-y.....x-0
|   3888: 31 38 2d 79 0a 11 03 00 1b 78 2d 30 31 37 2d 79   18-y.....x-017-y
|   3904: 0a 10 03 00 1b 78 2d 30 31 36 2d 79 0a 0f 03 00   .....x-016-y....
|   3920: 1b 78 2d 30 31 35 2d 79 0a 0e 03 00 1b 78 2d 30   .x-015-y.....x-0
|   3936: 31 34 2d 79 0a 0d 03 00 1b 78 2d 30 31 33 2d 79   14-y.....x-013-y
|   3952: 0a 0c 03 00 1b 78 2d 30 31 32 2d 79 0a 0b 03 00   .....x-012-y....
|   3968: 1b 78 2d 30 31 31 2d 79 0a 0a 03 00 1b 78 2d 30   .x-011-y.....x-0
|   3984: 31 30 2d 79 0a 09 03 00 1b 78 2d 30 30 39 2d 79   10-y.....x-009-y
|   4000: 0a 08 03 00 1b 78 2d 30 30 38 2d 79 0a 07 03 00   .....x-008-y....
|   4016: 1b 78 2d 30 30 37 2d 79 0a 06 03 00 1b 78 2d 30   .x-007-y.....x-0
|   4032: 30 36 2d 79 0a 05 03 00 1b 78 2d 30 30 35 2d 79   06-y.....x-005-y
|   4048: 0a 04 03 00 1b 78 2d 30 30 34 2d 79 0a 03 03 00   .....x-004-y....
|   4064: 1b 78 2d 30 30 33 2d 79 0a 02 03 00 1b 78 2d 30   .x-003-y.....x-0
|   4080: 30 32 2d 79 0a 01 03 00 1b 78 2d 30 30 31 2d 79   02-y.....x-001-y
| page 4 offset 12288
|      0: 0d 00 00 00 3c 0e 98 00 0f fa 0f f4 0f ee 0f e8   ....<...........
|     16: 0f e2 0f dc 0f d6 0f d0 0f ca 0f c4 0f be 0f b8   ................
|     32: 0f b2 0f ac 0f a6 0f a0 0f 9a 0f 94 0f 8e 0f 88   ................
|     48: 0f 82 0f 7c 0f 76 0f 70 0f 6a 0f 64 0f 5e 0f 58   ...|.v.p.j.d.^.X
|     64: 0f 52 0f 4c 0f 46 0f 40 0f 3a 0f 34 0f 2e 0f 28   .R.L.F.@.:.4...(
|     80: 0f 22 0f 1c 0f 16 0f 10 0f 0a 0f 04 0e fe 0e f8   ................
|     96: 0e f2 0e ec 0e e6 0e e0 0e da 0e d4 0e ce 0e c8   ................
|    112: 0e c2 0e bc 0e b6 0e b0 0e aa 0e a4 0e 9e 0e 98   ................
|   3728: 00 00 00 00 00 00 00 00 04 3c 03 00 01 41 04 3b   .........<...A.;
|   3744: 03 00 01 40 04 3a 03 00 01 3f 04 39 03 00 01 3e   ...@.:...?.9...>
|   3760: 04 38 03 00 01 3d 04 37 03 00 01 3c 04 36 03 00   .8...=.7...<.6..
|   3776: 01 3b 04 35 03 00 01 3a 04 34 03 00 01 39 04 33   .;.5...:.4...9.3
|   3792: 03 00 01 38 04 32 03 00 01 37 04 31 03 00 01 36   ...8.2...7.1...6
|   3808: 04 30 03 00 01 35 04 2f 03 00 01 34 04 2e 03 00   .0...5./...4....
|   3824: 01 33 04 2d 03 00 01 32 04 2c 03 00 01 31 04 2b   .3.-...2.,...1.+
|   3840: 03 00 01 30 04 2a 03 00 01 2f 04 29 03 00 01 2e   ...0.*.../.)....
|   3856: 04 28 03 00 01 2d 04 27 03 00 01 2c 04 26 03 00   .(...-.'...,.&..
|   3872: 01 2b 04 25 03 00 01 2a 04 24 03 00 01 29 04 23   .+.%...*.$...).#
|   3888: 03 00 01 28 04 22 03 00 01 27 04 21 03 00 01 26   ...(.....'.!...&
|   3904: 04 20 03 00 01 25 04 1f 03 00 01 24 04 1e 03 00   . ...%.....$....
|   3920: 01 23 04 1d 03 00 01 22 04 1c 03 00 01 21 04 1b   .#...........!..
|   3936: 03 00 01 20 04 1a 03 00 01 1f 04 19 03 00 01 1e   ... ............
|   3952: 04 18 03 00 01 1d 04 17 03 00 01 1c 04 16 03 00   ................
|   3968: 01 1b 04 15 03 00 01 1a 04 14 03 00 01 19 04 13   ................
|   3984: 03 00 01 18 04 12 03 00 01 17 04 11 03 00 01 16   ................
|   4000: 04 10 03 00 01 15 04 0f 03 00 01 14 04 0e 03 00   ................
|   4016: 01 13 04 0d 03 00 01 12 04 0c 03 00 01 11 04 0b   ................
|   4032: 03 00 01 10 04 0a 03 00 01 0f 04 09 03 00 01 0e   ................
|   4048: 04 08 03 00 01 0d 04 07 03 00 01 0c 04 06 03 00   ................
|   4064: 01 0b 04 05 03 00 01 0a 04 04 03 00 01 09 04 03   ................
|   4080: 03 00 01 08 04 02 03 00 01 07 04 01 03 00 01 06   ................
| end expr006.txt.db
.testctrl prng_seed 1 db
.testctrl internal_functions
SELECT t1.b, t2.y FROM t1, t2 WHERE t2.x IN (50,25,t1.c,t1.d) AND t1.a=11;
SELECT t1.b, t2.y FROM t1, t2 WHERE t2.x IN (50,25,8) AND t1.a=11;
SELECT t1.b, t2.y FROM t1, t2 WHERE t1.a BETWEEN 11 AND 12
AND t2.x IN (SELECT t3.y FROM t3 WHERE t3.x=t1.c)
ORDER BY 1, 2;

