.open --hexdb
| size 12288 pagesize 4096 filename expr008.txt.db
| page 1 offset 0
|      0: 53 51 4c 69 74 65 20 66 6f 72 6d 61 74 20 33 00   SQLite format 3.
|     16: 10 00 01 01 00 40 20 20 00 00 00 00 00 00 00 03   .....@  ........
|     32: 00 00 00 00 00 00 00 00 00 00 00 02 00 00 00 04   ................
|     48: 00 00 00 00 00 00 00 00 00 00 00 01 00 00 00 00   ................
|     96: 00 00 00 00 0d 00 00 00 02 0f b3 00 0f da 0f b3   ................
|   4016: 00 00 00 25 02 06 17 11 11 01 37 74 61 62 6c 65   ...%......7table
|   4032: 74 32 74 32 03 43 52 45 41 54 45 20 54 41 42 4c   t2t2.CREATE TABL
|   4048: 45 20 74 32 28 78 2c 20 79 29 24 01 06 17 11 11   E t2(x, y)$.....
|   4064: 01 35 74 61 62 6c 65 74 31 74 31 02 43 52 45 41   .5tablet1t1.CREA
|   4080: 54 45 20 54 41 42 4c 45 20 74 31 28 61 2c 62 29   TE TABLE t1(a,b)
| page 2 offset 4096
|      0: 0d 00 00 00 0c 0f 7e 00 0f fb 0f f5 0f ee 0f e0   ......~.........
|     16: 0f d2 0f c5 0f bf 0f b1 0f a3 0f 94 0f 89 0f 7e   ...............~
|   3952: 00 00 00 00 00 00 00 00 00 00 00 00 00 00 09 0c   ................
|   3968: 03 01 17 0c 79 7a 7a 79 78 09 0b 03 01 17 0b 78   ....yzzyx......x
|   3984: 79 7a 7a 79 0d 0a 03 01 1f 0a 2d 34 2e 35 78 79   yzzy......-4.5xy
|   4000: 7a 7a 79 0c 09 03 01 07 09 d2 64 1b 8e be 2e f1   zzy.......d.....
|   4016: c7 0c 08 03 01 07 08 40 00 00 00 00 00 00 00 04   .......@........
|   4032: 07 03 01 00 07 0b 06 03 01 1b 06 34 35 78 79 7a   ...........45xyz
|   4048: 7a 79 0c 05 03 01 06 05 80 00 00 00 00 00 00 00   zy..............
|   4064: 0c 04 03 01 06 04 7f ff ff ff ff ff ff ff 05 03   ................
|   4080: 03 01 01 03 ff 04 02 03 01 09 02 03 01 03 09 08   ................
| page 3 offset 8192
|      0: 0d 00 00 00 18 0e fb 00 0f fb 0f f5 0f ee 0f e0   ................
|     16: 0f d2 0f c5 0f bf 0f b1 0f a3 0f 94 0f 89 0f 7e   ...............~
|     32: 0f 78 0f 72 0f 6b 0f 5d 0f 4f 0f 42 0f 3c 0f 2e   .x.r.k.].O.B.<..
|     48: 0f 20 0f 11 0f 06 0e fb 00 00 00 00 00 00 00 00   . ..............
|   3824: 00 00 00 00 00 00 00 00 00 00 00 09 18 03 01 17   ................
|   3840: 70 79 7a 7a 79 78 09 17 03 01 17 6f 78 79 7a 7a   pyzzyx.....oxyzz
|   3856: 79 0d 16 03 01 1f 6e 2d 34 2e 35 78 79 7a 7a 79   y.....n-4.5xyzzy
|   3872: 0c 15 03 01 07 6d d2 64 1b 8e be 2e f1 c7 0c 14   .....m.d........
|   3888: 03 01 07 6c 40 00 00 00 00 00 00 00 04 13 03 01   ...l@...........
|   3904: 00 6b 0b 12 03 01 1b 6a 34 35 78 79 7a 7a 79 0c   .k.....j45xyzzy.
|   3920: 11 03 01 06 69 80 00 00 00 00 00 00 00 0c 10 03   ....i...........
|   3936: 01 06 68 7f ff ff ff ff ff ff ff 05 0f 03 01 01   ..h.............
|   3952: 67 ff 04 0e 03 01 09 66 04 0d 03 01 08 65 09 0c   g......f.....e..
|   3968: 03 01 17 0c 79 7a 7a 79 78 09 0b 03 01 17 0b 78   ....yzzyx......x
|   3984: 79 7a 7a 79 0d 0a 03 01 1f 0a 2d 34 2e 35 78 79   yzzy......-4.5xy
|   4000: 7a 7a 79 0c 09 03 01 07 09 d2 64 1b 8e be 2e f1   zzy.......d.....
|   4016: c7 0c 08 03 01 07 08 40 00 00 00 00 00 00 00 04   .......@........
|   4032: 07 03 01 00 07 0b 06 03 01 1b 06 34 35 78 79 7a   ...........45xyz
|   4048: 7a 79 0c 05 03 01 06 05 80 00 00 00 00 00 00 00   zy..............
|   4064: 0c 04 03 01 06 04 7f ff ff ff ff ff ff ff 05 03   ................
|   4080: 03 01 01 03 ff 04 02 03 01 09 02 03 01 03 09 08   ................
| end expr008.txt.db
.testctrl prng_seed 1 db
.testctrl internal_functions
SELECT avg(b) FROM t1 WHERE a=4 OR a=5;
SELECT avg(DISTINCT y) FROM t2 WHERE x IN (1,2,3,8,101);
SELECT avg(DISTINCT b) FROM t1 WHERE a IN (1,2,3,8,101);
SELECT avg(DISTINCT b)*avg(DISTINCT y) FROM t1, t2
WHERE a IN (1,2,3,8,101) AND x IN (1,2,3,8,101);

