.open --hexdb
| size 20480 pagesize 4096 filename expr001.txt.db
| page 1 offset 0
|      0: 53 51 4c 69 74 65 20 66 6f 72 6d 61 74 20 33 00   SQLite format 3.
|     16: 10 00 01 01 00 40 20 20 00 00 00 00 00 00 00 05   .....@  ........
|     32: 00 00 00 00 00 00 00 00 00 00 00 04 00 00 00 04   ................
|     48: 00 00 00 00 00 00 00 00 00 00 00 01 00 00 00 00   ................
|     96: 00 00 00 00 0d 00 00 00 04 0f 54 00 0f d6 0f a7   ..........T.....
|    112: 0f 78 0f 54 00 00 00 00 00 00 00 00 00 00 00 00   .x.T............
|   3920: 00 00 00 00 22 04 06 17 11 11 01 31 74 61 62 6c   ...........1tabl
|   3936: 65 74 32 74 32 05 43 52 45 41 54 45 20 54 41 42   et2t2.CREATE TAB
|   3952: 4c 45 20 74 32 28 64 29 2d 03 06 17 13 11 01 45   LE t2(d)-......E
|   3968: 69 6e 64 65 78 74 31 63 74 31 04 43 52 45 41 54   indext1ct1.CREAT
|   3984: 45 20 49 4e 44 45 58 20 74 31 63 20 4f 4e 20 74   E INDEX t1c ON t
|   4000: 31 28 63 2c 20 61 29 2d 02 06 17 13 11 01 45 69   1(c, a)-......Ei
|   4016: 6e 64 65 78 74 31 62 74 31 03 43 52 45 41 54 45   ndext1bt1.CREATE
|   4032: 20 49 4e 44 45 58 20 74 31 62 20 4f 4e 20 74 31    INDEX t1b ON t1
|   4048: 28 62 2c 20 61 29 28 01 06 17 11 11 01 3d 74 61   (b, a)(......=ta
|   4064: 62 6c 65 74 31 74 31 02 43 52 45 41 54 45 20 54   blet1t1.CREATE T
|   4080: 41 42 4c 45 20 74 31 28 61 2c 20 62 2c 20 63 29   ABLE t1(a, b, c)
| page 2 offset 4096
|      0: 0d 00 00 00 03 0f e8 00 0f f9 0f f0 0f e8 00 00   ................
|   4064: 00 00 00 00 00 00 00 00 06 03 04 01 09 01 16 02   ................
|   4080: 07 02 04 01 01 01 16 02 02 05 01 04 01 09 09 16   ................
| page 3 offset 8192
|      0: 0a 00 00 00 03 0f eb 00 0f fa 0f eb 0f f2 00 00   ................
|   4064: 00 00 00 00 00 00 00 00 00 00 00 06 04 09 01 01   ................
|   4080: 16 03 07 04 01 01 01 02 16 02 05 04 09 01 09 16   ................
| page 4 offset 12288
|      0: 0a 00 00 00 03 0f ea 00 0f fa 0f f2 0f ea 00 00   ................
|   4064: 00 00 00 00 00 00 00 00 00 00 07 04 01 01 01 02   ................
|   4080: 16 03 07 04 01 01 01 02 16 02 05 04 09 01 09 16   ................
| page 5 offset 16384
|      0: 0d 00 00 00 01 0f fb 00 0f fb 00 00 00 00 00 00   ................
|   4080: 00 00 00 00 00 00 00 00 00 00 00 03 01 02 01 16   ................
| end expr001.txt.db
.testctrl prng_seed 1 db
.testctrl internal_functions
SELECT rowid, * FROM t1 WHERE (b=1 OR c=2) AND a = (
SELECT d FROM (SELECT DISTINCT d FROM t2) WHERE d=22
);
SELECT * FROM t1 WHERE unlikely(a=22) AND likely(b=2)
AND likelihood(c=2,0.5);

