.open --hexdb
| size 16384 pagesize 4096 filename expr007.txt.db
| page 1 offset 0
|      0: 53 51 4c 69 74 65 20 66 6f 72 6d 61 74 20 33 00   SQLite format 3.
|     16: 10 00 01 01 00 40 20 20 00 00 00 00 00 00 00 04   .....@  ........
|     32: 00 00 00 00 00 00 00 00 00 00 00 03 00 00 00 04   ................
|     48: 00 00 00 00 00 00 00 00 00 00 00 01 00 00 00 00   ................
|     96: 00 00 00 00 0d 00 00 00 03 0f 4c 00 0f c2 0f 8a   ..........L.....
|    112: 0f 4c 00 00 00 00 00 00 00 00 00 00 00 00 00 00   .L..............
|   3904: 00 00 00 00 00 00 00 00 00 00 00 00 3c 03 06 17   ............<...
|   3920: 15 11 01 61 69 6e 64 65 78 74 31 78 32 74 31 04   ...aindext1x2t1.
|   3936: 43 52 45 41 54 45 20 49 4e 44 45 58 20 74 31 78   CREATE INDEX t1x
|   3952: 32 20 4f 4e 20 74 31 28 62 29 20 57 48 45 52 45   2 ON t1(b) WHERE
|   3968: 20 63 3d 27 78 79 7a 7a 79 27 36 02 06 17 15 11    c='xyzzy'6.....
|   3984: 01 55 69 6e 64 65 78 74 31 78 31 74 31 03 43 52   .Uindext1x1t1.CR
|   4000: 45 41 54 45 20 49 4e 44 45 58 20 74 31 78 31 20   EATE INDEX t1x1 
|   4016: 4f 4e 20 74 31 28 62 29 20 57 48 45 52 45 20 63   ON t1(b) WHERE c
|   4032: 3d 35 3c 01 06 17 11 11 01 65 74 61 62 6c 65 74   =5<......etablet
|   4048: 31 74 31 02 43 52 45 41 54 45 20 54 41 42 4c 45   1t1.CREATE TABLE
|   4064: 20 74 31 28 61 20 49 4e 54 45 47 45 52 20 50 52    t1(a INTEGER PR
|   4080: 49 4d 41 52 59 20 4b 45 59 2c 20 62 2c 20 63 29   IMARY KEY, b, c)
| page 2 offset 4096
|      0: 0d 00 00 00 07 0f c5 00 0f fa 0f f2 0f ea 0f de   ................
|     16: 0f d6 0f cf 0f c5 00 00 00 00 00 00 00 00 00 00   ................
|   4032: 00 00 00 00 00 08 07 04 00 01 12 07 b0 b1 b2 05   ................
|   4048: 06 04 00 01 00 06 06 05 04 00 01 01 05 05 0a 04   ................
|   4064: 04 00 01 17 04 78 79 7a 7a 79 06 03 04 00 01 01   .....xyzzy......
|   4080: 03 05 06 02 04 00 01 01 02 05 04 01 04 00 09 09   ................
| page 3 offset 8192
|      0: 0a 00 00 00 03 0f ee 00 0f fa 0f f4 0f ee 00 00   ................
|   4064: 00 00 00 00 00 00 00 00 00 00 00 00 00 00 05 03   ................
|   4080: 01 01 05 05 05 03 01 01 03 03 05 03 01 01 02 02   ................
| page 4 offset 12288
|      0: 0a 00 00 00 01 0f fa 00 0f fa 00 00 00 00 00 00   ................
|   4080: 00 00 00 00 00 00 00 00 00 00 05 03 01 01 04 04   ................
| end expr007.txt.db
.testctrl prng_seed 1 db
.testctrl internal_functions
EXPLAIN QUERY PLAN SELECT b FROM t1 WHERE c=?1;
CREATE INDEX ex1 ON t1(b,c) WHERE b=4 OR c=5;
SELECT * FROM t1 WHERE b=4 AND c='xyzzy';

