.open --hexdb
| size 20480 pagesize 4096 filename fkey001.txt.db
| page 1 offset 0
|      0: 53 51 4c 69 74 65 20 66 6f 72 6d 61 74 20 33 00   SQLite format 3.
|     16: 10 00 01 01 00 40 20 20 00 00 00 00 00 00 00 05   .....@  ........
|     32: 00 00 00 00 00 00 00 00 00 00 00 04 00 00 00 04   ................
|     48: 00 00 00 00 00 00 00 00 00 00 00 01 00 00 00 00   ................
|     96: 00 00 00 00 0d 00 00 00 04 0e e4 00 0f c8 0f 8a   ................
|    112: 0f 1a 0e e4 00 00 00 00 00 00 00 00 00 00 00 00   ................
|   3808: 00 00 00 00 34 04 06 17 13 11 01 53 69 6e 64 65   ....4......Sinde
|   3824: 78 74 36 69 74 36 05 43 52 45 41 54 45 20 55 4e   xt6it6.CREATE UN
|   3840: 49 51 55 45 20 49 4e 44 45 58 20 74 36 69 20 4f   IQUE INDEX t6i O
|   3856: 4e 20 74 36 28 62 2c 20 61 29 6e 03 07 17 11 11   N t6(b, a)n.....
|   3872: 01 81 47 74 61 62 6c 65 74 36 74 36 04 43 52 45   ..Gtablet6t6.CRE
|   3888: 41 54 45 20 54 41 42 4c 45 20 74 36 28 61 20 49   ATE TABLE t6(a I
|   3904: 4e 54 45 47 45 52 20 50 52 49 4d 41 52 59 20 4b   NTEGER PRIMARY K
|   3920: 45 59 2c 20 62 2c 20 63 2c 20 64 2c 0a 20 20 20   EY, b, c, d,.   
|   3936: 20 46 4f 52 45 49 47 4e 20 4b 45 59 28 63 2c 20    FOREIGN KEY(c, 
|   3952: 64 29 20 52 45 46 45 52 45 4e 43 45 53 20 74 36   d) REFERENCES t6
|   3968: 28 61 2c 20 62 29 0a 20 20 29 3c 02 06 17 11 11   (a, b).  )<.....
|   3984: 01 65 74 61 62 6c 65 74 32 74 32 03 43 52 45 41   .etablet2t2.CREA
|   4000: 54 45 20 54 41 42 4c 45 20 74 32 28 79 20 49 4e   TE TABLE t2(y IN
|   4016: 54 45 47 45 52 20 52 45 46 45 52 45 4e 43 45 53   TEGER REFERENCES
|   4032: 20 74 31 20 28 78 29 29 36 01 06 17 11 11 01 59    t1 (x))6......Y
|   4048: 74 61 62 6c 65 74 31 74 31 02 43 52 45 41 54 45   tablet1t1.CREATE
|   4064: 20 54 41 42 4c 45 20 74 31 28 78 20 49 4e 54 45    TABLE t1(x INTE
|   4080: 47 45 52 20 50 52 49 4d 41 52 59 20 4b 45 59 29   GER PRIMARY KEY)
| page 2 offset 4096
|      0: 0d 00 00 00 02 0f f8 00 0f fc 0f f8 00 00 00 00   ................
|   4080: 00 00 00 00 00 00 00 00 02 65 02 00 02 64 02 00   .........e...d..
| page 3 offset 8192
|      0: 0d 00 00 00 02 0f f6 00 0f fb 0f f6 00 00 00 00   ................
|   4080: 00 00 00 00 00 00 03 02 02 01 65 03 01 02 01 64   ..........e....d
| page 4 offset 12288
|      0: 0d 00 00 00 00 10 00 00 00 00 00 00 00 00 00 00   ................
| page 5 offset 16384
|      0: 0a 00 00 00 00 10 00 00 00 00 00 00 00 00 00 00   ................
| end fkey001.txt.db
.testctrl prng_seed 1 db
.testctrl internal_functions
PRAGMA foreign_keys=ON;
DELETE FROM t1 WHERE x=100;
DROP TABLE t1;
INSERT INTO t6 VALUES(NULL, 'a', 1, 'a');
INSERT INTO t6 VALUES(2, 'a', 2, 'a');
INSERT INTO t6 VALUES(NULL, 'a', 1, 'a');
INSERT INTO t6 VALUES(5, 'a', 2, 'a');
INSERT INTO t6 VALUES(100, 'one', 100, 'one');
DELETE FROM t6 WHERE a = 100;
INSERT INTO t6 VALUES(100, 'one', 100, 'one');
UPDATE t6 SET c = 1, d = 'a' WHERE a = 100;
DELETE FROM t6 WHERE a = 100;

