.open --hexdb
| size 16384 pagesize 4096 filename fkey005.txt.db
| page 1 offset 0
|      0: 53 51 4c 69 74 65 20 66 6f 72 6d 61 74 20 33 00   SQLite format 3.
|     16: 10 00 01 01 00 40 20 20 00 00 00 00 00 00 00 04   .....@  ........
|     32: 00 00 00 00 00 00 00 00 00 00 00 02 00 00 00 04   ................
|     48: 00 00 00 00 00 00 00 00 00 00 00 01 00 00 00 00   ................
|     96: 00 00 00 00 0d 0f bd 00 03 0f 53 00 0f c5 0f 53   ..........S....S
|    112: 0f 98 00 00 00 00 00 00 00 00 00 00 00 00 00 00   ................
|   3920: 00 00 00 43 02 06 17 11 11 01 73 74 61 62 6c 65   ...C......stable
|   3936: 74 32 74 32 03 43 52 45 41 54 45 20 54 41 42 4c   t2t2.CREATE TABL
|   3952: 45 20 74 32 28 63 20 49 4e 54 20 50 52 49 4d 41   E t2(c INT PRIMA
|   3968: 52 59 20 4b 45 59 20 52 45 46 45 52 45 4e 43 45   RY KEY REFERENCE
|   3984: 53 20 74 31 28 61 29 29 23 03 06 17 37 11 01 00   S t1(a))#...7...
|   4000: 69 6e 64 65 78 73 71 6c 69 74 65 5f 61 75 74 6f   indexsqlite_auto
|   4016: 69 6e 64 65 78 5f 74 32 5f 31 74 32 04 00 00 00   index_t2_1t2....
|   4032: 08 00 00 00 00 39 01 06 17 11 11 01 5f 74 61 62   .....9......_tab
|   4048: 6c 65 74 31 74 31 02 43 52 45 41 54 45 20 54 41   let1t1.CREATE TA
|   4064: 42 4c 45 20 74 31 28 61 20 49 4e 54 45 47 45 52   BLE t1(a INTEGER
|   4080: 20 50 52 49 4d 41 52 59 20 4b 45 59 2c 20 62 29    PRIMARY KEY, b)
| page 2 offset 4096
|      0: 0d 00 00 00 03 0f ee 00 0f fa 0f f4 0f ee 00 00   ................
|   4064: 00 00 00 00 00 00 00 00 00 00 00 00 00 00 04 05   ................
|   4080: 03 00 01 06 04 03 03 00 01 04 04 01 03 00 01 02   ................
| page 3 offset 8192
|      0: 0d 00 00 00 02 0f f7 00 0f fc 0f f7 00 00 00 00   ................
|   4080: 00 00 00 00 00 00 00 03 02 02 01 05 02 01 02 09   ................
| page 4 offset 12288
|      0: 0a 00 00 00 02 0f f6 00 0f fc 0f f6 00 00 00 00   ................
|   4080: 00 00 00 00 00 00 05 03 01 01 05 02 03 03 09 09   ................
| end fkey005.txt.db
.testctrl prng_seed 1 db
.testctrl internal_functions
PRAGMA foreign_keys=on;
INSERT INTO t2(c) VALUES('xyz');
INSERT INTO t2(c) VALUES(NULL);

