.open --hexdb
| size 24576 pagesize 4096 filename fkey002.txt.db
| page 1 offset 0
|      0: 53 51 4c 69 74 65 20 66 6f 72 6d 61 74 20 33 00   SQLite format 3.
|     16: 10 00 01 01 00 40 20 20 00 00 00 00 00 00 00 06   .....@  ........
|     32: 00 00 00 00 00 00 00 00 00 00 00 06 00 00 00 04   ................
|     48: 00 00 00 00 00 00 00 00 00 00 00 01 00 00 00 00   ................
|     96: 00 00 00 00 0d 00 00 00 05 0e 9e 00 0f c8 0f 4b   ...............K
|    112: 0e f6 0e ca 0e 9e 00 00 00 00 00 00 00 00 00 00   ................
|   3728: 00 00 00 00 00 00 00 00 00 00 00 00 00 00 2a 05   ..............*.
|   3744: 06 17 13 11 01 3f 69 6e 64 65 78 74 33 76 74 33   .....?indext3vt3
|   3760: 06 43 52 45 41 54 45 20 49 4e 44 45 58 20 74 33   .CREATE INDEX t3
|   3776: 76 20 4f 4e 20 74 33 28 76 29 2a 04 06 17 13 11   v ON t3(v)*.....
|   3792: 01 3f 69 6e 64 65 78 74 32 7a 74 32 05 43 52 45   .?indext2zt2.CRE
|   3808: 41 54 45 20 49 4e 44 45 58 20 74 32 7a 20 4f 4e   ATE INDEX t2z ON
|   3824: 20 74 32 28 7a 29 53 03 07 17 11 11 01 81 11 74    t2(z)S........t
|   3840: 61 62 6c 65 74 33 74 33 04 43 52 45 41 54 45 20   ablet3t3.CREATE 
|   3856: 54 41 42 4c 45 20 74 33 28 75 20 49 4e 54 45 47   TABLE t3(u INTEG
|   3872: 45 52 20 50 52 49 4d 41 52 59 20 4b 45 59 2c 20   ER PRIMARY KEY, 
|   3888: 76 20 49 4e 54 45 47 45 52 20 52 45 46 45 52 45   v INTEGER REFERE
|   3904: 4e 43 45 53 20 74 31 28 78 29 29 7b 02 07 17 11   NCES t1(x)).....
|   3920: 11 01 81 61 74 61 62 6c 65 74 32 74 32 03 43 52   ...atablet2t2.CR
|   3936: 45 41 54 45 20 54 41 42 4c 45 20 74 32 28 79 20   EATE TABLE t2(y 
|   3952: 49 4e 54 45 47 45 52 20 50 52 49 4d 41 52 59 20   INTEGER PRIMARY 
|   3968: 4b 45 59 2c 0a 20 20 20 20 20 20 20 20 20 20 7a   KEY,.          z
|   3984: 20 49 4e 54 45 47 45 52 20 52 45 46 45 52 45 4e    INTEGER REFEREN
|   4000: 43 45 53 20 74 31 28 78 29 20 44 45 46 45 52 52   CES t1(x) DEFERR
|   4016: 41 42 4c 45 20 49 4e 49 54 49 41 4c 4c 59 20 44   ABLE INITIALLY D
|   4032: 45 46 45 52 52 45 44 29 36 01 06 17 11 11 01 59   EFERRED)6......Y
|   4048: 74 61 62 6c 65 74 31 74 31 02 43 52 45 41 54 45   tablet1t1.CREATE
|   4064: 20 54 41 42 4c 45 20 74 31 28 78 20 49 4e 54 45    TABLE t1(x INTE
|   4080: 47 45 52 20 50 52 49 4d 41 52 59 20 4b 45 59 29   GER PRIMARY KEY)
| page 2 offset 4096
|      0: 0d 00 00 00 05 0f ec 00 0f fc 0f f8 0f f4 0f f0   ................
|     16: 0f ec 00 00 00 00 00 00 00 00 00 00 00 00 00 00   ................
|   4064: 00 00 00 00 00 00 00 00 00 00 00 00 02 05 02 00   ................
|   4080: 02 04 02 00 02 03 02 00 02 02 02 00 02 01 02 00   ................
| page 3 offset 8192
|      0: 0d 00 00 00 02 0f f5 00 0f fb 0f f5 00 00 00 00   ................
|   4080: 00 00 00 00 00 04 02 03 00 01 02 03 01 03 00 09   ................
| page 4 offset 12288
|      0: 0d 00 00 00 02 0f f4 00 0f fa 0f f4 00 00 00 00   ................
|   4080: 00 00 00 00 04 04 03 00 01 04 04 03 03 00 01 03   ................
| page 5 offset 16384
|      0: 0a 00 00 00 02 0f f6 00 0f fc 0f f6 00 00 00 00   ................
|   4080: 00 00 00 00 00 00 05 03 01 01 02 02 03 03 09 09   ................
| page 6 offset 20480
|      0: 0a 00 00 00 02 0f f4 00 0f fa 0f f4 00 00 00 00   ................
|   4080: 00 00 00 00 05 03 01 01 04 04 05 03 01 01 03 03   ................
| end fkey002.txt.db
.testctrl prng_seed 1 db
.testctrl internal_functions
INSERT INTO c1 VALUES(90),(87),(88);
INSERT INTO c5 SELECT x FROM c1;
DELETE FROM c1;
INSERT INTO c7 SELECT x FROM c3;
INSERT INTO c7 VALUES('Alpha'),('alpha'),('foxtrot');
DELETE FROM c3;
INSERT OR IGNORE INTO c13 SELECT * FROM p3;
DELETE FROM c11;
PRAGMA foreign_key_check;
CREATE TABLE p30 (id INTEGER PRIMARY KEY);
CREATE TABLE IF NOT EXISTS c30 (
line INTEGER, 
master REFERENCES p30(id), 
PRIMARY KEY(master)
) WITHOUT ROWID;
INSERT INTO p30 (id) VALUES (1);
INSERT INTO c30 (master, line)  VALUES (1, 999);
PRAGMA foreign_key_check;

