.open --hexdb
| size 16384 pagesize 4096 filename fkey004.txt.db
| page 1 offset 0
|      0: 53 51 4c 69 74 65 20 66 6f 72 6d 61 74 20 33 00   SQLite format 3.
|     16: 10 00 01 01 00 40 20 20 00 00 00 00 00 00 00 04   .....@  ........
|     32: 00 00 00 00 00 00 00 00 00 00 00 03 00 00 00 04   ................
|     48: 00 00 00 00 00 00 00 00 00 00 00 01 00 00 00 00   ................
|     96: 00 00 00 00 0d 00 00 00 03 0f 44 00 0f c5 0f 8d   ..........D.....
|    112: 0f 44 00 00 00 00 00 00 00 00 00 00 00 00 00 00   .D..............
|   3904: 00 00 00 00 47 03 06 17 11 11 01 7b 74 61 62 6c   ....G.......tabl
|   3920: 65 74 32 74 32 04 43 52 45 41 54 45 20 54 41 42   et2t2.CREATE TAB
|   3936: 4c 45 20 74 32 28 63 20 49 4e 54 45 47 45 52 20   LE t2(c INTEGER 
|   3952: 50 52 49 4d 41 52 59 20 4b 45 59 2c 20 64 20 52   PRIMARY KEY, d R
|   3968: 45 46 45 52 45 4e 43 45 53 20 74 31 29 36 02 06   EFERENCES t1)6..
|   3984: 17 13 11 01 57 69 6e 64 65 78 74 31 62 74 31 03   ....Windext1bt1.
|   4000: 43 52 45 41 54 45 20 55 4e 49 51 55 45 20 49 4e   CREATE UNIQUE IN
|   4016: 44 45 58 20 74 31 62 20 4f 4e 20 74 31 28 61 62   DEX t1b ON t1(ab
|   4032: 73 28 62 29 29 39 01 06 17 11 11 01 5f 74 61 62   s(b))9......_tab
|   4048: 6c 65 74 31 74 31 02 43 52 45 41 54 45 20 54 41   let1t1.CREATE TA
|   4064: 42 4c 45 20 74 31 28 61 20 49 4e 54 45 47 45 52   BLE t1(a INTEGER
|   4080: 20 50 52 49 4d 41 52 59 20 4b 45 59 2c 20 62 29    PRIMARY KEY, b)
| page 2 offset 4096
|      0: 0d 00 00 00 01 0f fa 00 0f fa 00 00 00 00 00 00   ................
|   4080: 00 00 00 00 00 00 00 00 00 00 04 01 03 00 01 02   ................
| page 3 offset 8192
|      0: 0a 00 00 00 01 0f fb 00 0f fb 00 00 00 00 00 00   ................
|   4080: 00 00 00 00 00 00 00 00 00 00 00 04 03 01 09 02   ................
| page 4 offset 12288
|      0: 0d 00 00 00 01 0f fb 00 0f fb 00 00 00 00 00 00   ................
|   4080: 00 00 00 00 00 00 00 00 00 00 00 03 03 03 00 09   ................
| end fkey004.txt.db
.testctrl prng_seed 1 db
.testctrl internal_functions
SELECT * FROM t1, t2;
DELETE FROM t1;
UPDATE t1 SET a=a+1;
UPDATE t2 SET d=d+1;
UPDATE t2 SET d=null;
UPDATE t2 SET d=1;

