.open --hexdb
| size 24576 pagesize 4096 filename fkey003.txt.db
| page 1 offset 0
|      0: 53 51 4c 69 74 65 20 66 6f 72 6d 61 74 20 33 00   SQLite format 3.
|     16: 10 00 01 01 00 40 20 20 00 00 00 00 00 00 00 06   .....@  ........
|     32: 00 00 00 00 00 00 00 00 00 00 00 05 00 00 00 04   ................
|     48: 00 00 00 00 00 00 00 00 00 00 00 01 00 00 00 00   ................
|     96: 00 00 00 00 0d 00 00 00 05 0e 9e 00 0f c8 0f 4b   ...............K
|    112: 0f 1f 0e ca 0e 9e 00 00 00 00 00 00 00 00 00 00   ................
|   3728: 00 00 00 00 00 00 00 00 00 00 00 00 00 00 2a 05   ..............*.
|   3744: 06 17 13 11 01 3f 69 6e 64 65 78 74 33 76 74 33   .....?indext3vt3
|   3760: 06 43 52 45 41 54 45 20 49 4e 44 45 58 20 74 33   .CREATE INDEX t3
|   3776: 76 20 4f 4e 20 74 33 28 76 29 53 04 07 17 11 11   v ON t3(v)S.....
|   3792: 01 81 11 74 61 62 6c 65 74 33 74 33 05 43 52 45   ...tablet3t3.CRE
|   3808: 41 54 45 20 54 41 42 4c 45 20 74 33 28 75 20 49   ATE TABLE t3(u I
|   3824: 4e 54 45 47 45 52 20 50 52 49 4d 41 52 59 20 4b   NTEGER PRIMARY K
|   3840: 45 59 2c 20 76 20 49 4e 54 45 47 45 52 20 52 45   EY, v INTEGER RE
|   3856: 46 45 52 45 4e 43 45 53 20 74 31 28 78 29 29 2a   FERENCES t1(x))*
|   3872: 03 06 17 13 11 01 3f 69 6e 64 65 78 74 32 7a 74   ......?indext2zt
|   3888: 32 04 43 52 45 41 54 45 20 49 4e 44 45 58 20 74   2.CREATE INDEX t
|   3904: 32 7a 20 4f 4e 20 74 32 28 7a 29 7b 02 07 17 11   2z ON t2(z).....
|   3920: 11 01 81 61 74 61 62 6c 65 74 32 74 32 03 43 52   ...atablet2t2.CR
|   3936: 45 41 54 45 20 54 41 42 4c 45 20 74 32 28 79 20   EATE TABLE t2(y 
|   3952: 49 4e 54 45 47 45 52 20 50 52 49 4d 41 52 59 20   INTEGER PRIMARY 
|   3968: 4b 45 59 2c 0a 20 20 20 20 20 20 20 20 20 20 7a   KEY,.          z
|   3984: 20 49 4e 54 45 47 45 52 20 52 45 46 45 52 45 4e    INTEGER REFEREN
|   4000: 43 45 53 20 74 31 28 78 29 20 44 45 46 45 52 52   CES t1(x) DEFERR
|   4016: 41 42 4c 45 20 49 4e 49 54 49 41 4c 4c 59 20 44   ABLE INITIALLY D
|   4032: 45 46 45 52 52 45 44 29 36 01 06 17 11 11 01 59   EFERRED)6......Y
|   4048: 74 61 62 6c 65 74 31 74 31 02 43 52 45 41 54 45   tablet1t1.CREATE
|   4064: 20 54 41 42 4c 45 20 74 31 28 78 20 49 4e 54 45    TABLE t1(x INTE
|   4080: 47 45 52 20 50 52 49 4d 41 52 59 20 4b 45 59 29   GER PRIMARY KEY)
| page 2 offset 4096
|      0: 0d 00 00 00 05 0f ec 00 0f fc 0f f8 0f f4 0f f0   ................
|     16: 0f ec 00 00 00 00 00 00 00 00 00 00 00 00 00 00   ................
|   4064: 00 00 00 00 00 00 00 00 00 00 00 00 02 05 02 00   ................
|   4080: 02 04 02 00 02 03 02 00 02 02 02 00 02 01 02 00   ................
| page 3 offset 8192
|      0: 0d 00 00 00 02 0f f5 00 0f fb 0f f5 00 00 00 00   ................
|   4080: 00 00 00 00 00 04 02 03 00 01 02 03 01 03 00 09   ................
| page 4 offset 12288
|      0: 0a 00 00 00 02 0f f6 00 0f fc 0f f6 00 00 00 00   ................
|   4080: 00 00 00 00 00 00 05 03 01 01 02 02 03 03 09 09   ................
| page 5 offset 16384
|      0: 0d 00 00 00 02 0f f4 00 0f fa 0f f4 00 00 00 00   ................
|   4080: 00 00 00 00 04 04 03 00 01 04 04 03 03 00 01 03   ................
| page 6 offset 20480
|      0: 0a 00 00 00 02 0f f4 00 0f fa 0f f4 00 00 00 00   ................
|   4080: 00 00 00 00 05 03 01 01 04 04 05 03 01 01 03 03   ................
| end fkey003.txt.db
.testctrl prng_seed 1 db
.testctrl internal_functions
PRAGMA foreign_keys=ON;
PRAGMA defer_foreign_keys=ON;
BEGIN;
DELETE FROM t1 WHERE x=3;
DELETE FROM t2 WHERE y=1;
COMMIT;

