.open --hexdb
| size 24576 pagesize 4096 filename flatten001.txt.db
| page 1 offset 0
|      0: 53 51 4c 69 74 65 20 66 6f 72 6d 61 74 20 33 00   SQLite format 3.
|     16: 10 00 01 01 00 40 20 20 00 00 00 00 00 00 00 06   .....@  ........
|     32: 00 00 00 00 00 00 00 00 00 00 00 07 00 00 00 04   ................
|     48: 00 00 00 00 00 00 00 00 00 00 00 01 00 00 00 00   ................
|     96: 00 00 00 00 0d 00 00 00 07 0e 11 00 0f d7 0f 8b   ................
|    112: 0f 45 0e ff 0e b9 0e 35 0e 11 00 00 00 00 00 00   .E.....5........
|   3600: 00 22 07 06 17 11 11 01 31 74 61 62 6c 65 69 31   ........1tablei1
|   3616: 69 31 06 43 52 45 41 54 45 20 54 41 42 4c 45 20   i1.CREATE TABLE 
|   3632: 69 31 28 78 29 81 01 06 07 15 11 11 08 81 71 76   i1(x).........qv
|   3648: 69 65 77 74 31 74 31 43 52 45 41 54 45 20 56 49   iewt1t1CREATE VI
|   3664: 45 57 20 74 31 20 41 53 20 0a 20 20 53 45 4c 45   EW t1 AS .  SELE
|   3680: 43 54 20 61 2c 20 62 20 46 52 4f 4d 20 74 31 5f   CT a, b FROM t1_
|   3696: 61 20 20 20 55 4e 49 4f 4e 20 41 4c 4c 0a 20 20   a   UNION ALL.  
|   3712: 53 45 4c 45 43 54 20 63 2c 20 64 20 46 52 4f 4d   SELECT c, d FROM
|   3728: 20 74 31 5f 62 20 20 20 55 4e 49 4f 4e 20 41 4c    t1_b   UNION AL
|   3744: 4c 0a 20 20 53 45 4c 45 43 54 20 65 2c 20 66 20   L.  SELECT e, f 
|   3760: 46 52 4f 4d 20 74 31 5f 63 44 05 06 17 15 15 01   FROM t1_cD......
|   3776: 6d 74 61 62 6c 65 74 31 5f 63 74 31 5f 63 05 43   mtablet1_ct1_c.C
|   3792: 52 45 41 54 45 20 54 41 42 4c 45 20 74 31 5f 63   REATE TABLE t1_c
|   3808: 28 65 20 49 4e 54 45 47 45 52 20 50 52 49 4d 41   (e INTEGER PRIMA
|   3824: 52 59 20 4b 45 59 2c 20 66 20 54 45 58 54 29 44   RY KEY, f TEXT)D
|   3840: 04 06 17 15 15 01 6d 74 61 62 6c 65 74 31 5f 62   ......mtablet1_b
|   3856: 74 31 5f 62 04 43 52 45 41 54 45 20 54 41 42 4c   t1_b.CREATE TABL
|   3872: 45 20 74 31 5f 62 28 63 20 49 4e 54 45 47 45 52   E t1_b(c INTEGER
|   3888: 20 50 52 49 4d 41 52 59 20 4b 45 59 2c 20 64 20    PRIMARY KEY, d 
|   3904: 54 45 58 54 29 44 03 06 17 15 15 01 6d 74 61 62   TEXT)D......mtab
|   3920: 6c 65 74 31 5f 61 74 31 5f 61 03 43 52 45 41 54   let1_at1_a.CREAT
|   3936: 45 20 54 41 42 4c 45 20 74 31 5f 61 28 61 20 49   E TABLE t1_a(a I
|   3952: 4e 54 45 47 45 52 20 50 52 49 4d 41 52 59 20 4b   NTEGER PRIMARY K
|   3968: 45 59 2c 20 62 20 54 45 58 54 29 4a 02 07 15 11   EY, b TEXT)J....
|   3984: 11 08 81 03 76 69 65 77 76 30 76 30 43 52 45 41   ....viewv0v0CREA
|   4000: 54 45 20 56 49 45 57 20 76 30 28 63 30 29 20 41   TE VIEW v0(c0) A
|   4016: 53 20 53 45 4c 45 43 54 20 43 41 53 54 28 74 30   S SELECT CAST(t0
|   4032: 2e 63 30 20 41 53 20 49 4e 54 45 47 45 52 29 20   .c0 AS INTEGER) 
|   4048: 46 52 4f 4d 20 74 30 27 01 06 17 11 11 01 3b 74   FROM t0'......;t
|   4064: 61 62 6c 65 74 30 74 30 02 43 52 45 41 54 45 20   ablet0t0.CREATE 
|   4080: 54 41 42 4c 45 20 74 30 28 63 30 20 49 4e 54 29   TABLE t0(c0 INT)
| page 2 offset 4096
|      0: 0d 00 00 00 01 0f fc 00 0f fc 00 00 00 00 00 00   ................
|   4080: 00 00 00 00 00 00 00 00 00 00 00 00 02 01 02 08   ................
| page 3 offset 8192
|      0: 0d 00 00 00 02 0f ef 00 0f f8 0f ef 00 00 00 00   ................
|   4064: 00 00 00 00 00 00 00 00 00 00 00 00 00 00 00 07   ................
|   4080: 04 03 00 15 66 6f 75 72 06 01 03 00 13 6f 6e 65   ....four.....one
| page 4 offset 12288
|      0: 0d 00 00 00 02 0f ef 00 0f f8 0f ef 00 00 00 00   ................
|   4064: 00 00 00 00 00 00 00 00 00 00 00 00 00 00 00 07   ................
|   4080: 05 03 00 15 66 69 76 65 06 02 03 00 13 74 77 6f   ....five.....two
| page 5 offset 16384
|      0: 0d 00 00 00 02 0f ee 00 0f f6 0f ee 00 00 00 00   ................
|   4064: 00 00 00 00 00 00 00 00 00 00 00 00 00 00 06 06   ................
|   4080: 03 00 13 73 69 78 08 03 03 00 17 74 68 72 65 65   ...six.....three
| page 6 offset 20480
|      0: 0d 00 00 00 04 0f ed 00 0f fb 0f f6 0f f1 0f ed   ................
|   4064: 00 00 00 00 00 00 00 00 00 00 00 00 00 02 04 02   ................
|   4080: 09 03 03 02 01 06 03 02 02 01 05 03 01 02 01 02   ................
| end flatten001.txt.db
.testctrl prng_seed 1 db
.testctrl internal_functions
SELECT t1.a, t1.b, t0.c0 AS c, v0.c0 AS d FROM t0 LEFT JOIN v0 ON v0.c0>'0',t1;

