.open --hexdb
| size 86016 pagesize 4096 filename freespace001.txt.db
| page 1 offset 0
|      0: 53 51 4c 69 74 65 20 66 6f 72 6d 61 74 20 33 00   SQLite format 3.
|     16: 10 00 01 01 00 40 20 20 00 00 00 00 00 00 00 16   .....@  ........
|     32: 00 00 00 06 00 00 00 09 00 00 00 01 00 00 00 04   ................
|     48: 00 00 00 00 00 00 00 00 00 00 00 01 00 00 00 00   ................
|     96: 00 00 00 00 0d 00 00 00 02 0f 44 00 0f 96 0f 44   ..........D....D
|   3904: 00 00 00 00 50 02 06 17 2b 2b 01 59 74 61 62 6c   ....P...++.Ytabl
|   3920: 65 73 71 6c 69 74 65 5f 73 65 71 75 65 6e 63 65   esqlite_sequence
|   3936: 73 71 6c 69 74 65 5f 73 65 71 75 65 6e 63 65 03   sqlite_sequence.
|   3952: 43 52 45 41 54 45 20 54 41 42 4c 45 20 73 71 6c   CREATE TABLE sql
|   3968: 69 74 65 5f 73 65 71 75 65 6e 63 65 28 6e 61 6d   ite_sequence(nam
|   3984: 65 2c 73 65 71 29 68 01 07 17 11 11 01 81 3b 74   e,seq)h.......;t
|   4000: 61 62 6c 65 74 31 74 31 02 43 52 45 41 54 45 20   ablet1t1.CREATE 
|   4016: 54 41 42 4c 45 20 74 31 28 61 20 49 4e 54 45 47   TABLE t1(a INTEG
|   4032: 45 52 20 50 52 49 4d 41 52 59 20 4b 45 59 20 41   ER PRIMARY KEY A
|   4048: 55 54 4f 49 4e 43 52 45 4d 45 4e 54 2c 0a 62 2c   UTOINCREMENT,.b,
|   4064: 63 2c 64 2c 65 2c 66 2c 67 2c 68 2c 6a 2c 6b 2c   c,d,e,f,g,h,j,k,
|   4080: 6c 2c 6d 2c 6e 2c 6f 2c 70 2c 71 2c 72 2c 73 29   l,m,n,o,p,q,r,s)
| page 2 offset 4096
|      0: 05 00 00 00 09 0f d0 00 00 00 00 15 0f fb 0f f6   ................
|     16: 0f f1 0f ec 0f e7 0f e2 0f dc 0f d6 0f d0 0f a0   ................
|     32: 0f a0 0f a0 0f a0 0f a0 0f a0 0f a0 0f a0 0f a0   ................
|   1072: 00 97 4c 0a 14 00 ae 7c 00 00 00 00 00 00 00 00   ..L....|........
|   1088: 00 00 00 00 00 00 00 09 00 00 00 00 00 00 00 00   ................
|   4000: 0f ac 00 06 00 00 00 00 00 30 00 00 00 00 00 00   .........0......
|   4048: 00 00 00 13 81 2a 00 00 00 11 81 16 00 00 00 0f   .....*..........
|   4064: 81 02 00 00 00 0d 6e 00 00 00 0b 5a 00 00 00 09   ......n....Z....
|   4080: 46 00 00 00 07 32 00 00 00 05 1e 00 00 00 04 0a   F....2..........
| page 3 offset 8192
|      0: 0d 00 00 00 01 0f f7 00 0f f7 00 00 00 00 00 00   ................
|   4080: 00 00 00 00 00 00 00 07 01 03 11 02 74 31 00 be   ............t1..
| page 4 offset 12288
|      0: 0d 00 00 00 01 04 31 00 04 31 00 00 00 00 00 00   ......1..1......
|   1072: 00 97 4c 0a 14 00 ae 7c 00 00 00 00 00 00 00 00   ..L....|........
|   1088: 00 00 00 00 00 00 00 09 00 00 00 00 00 00 00 00   ................
| page 5 offset 16384
|      0: 0d 00 00 00 01 04 30 00 04 30 00 00 00 00 00 00   ......0..0......
|   1072: 97 4d 1e 14 00 ae 7c 00 00 00 00 00 00 00 00 00   .M....|.........
|   1088: 00 00 00 00 00 00 01 00 00 00 00 00 00 00 00 00   ................
|   4080: 00 00 00 00 00 00 00 00 00 00 00 00 00 00 00 03   ................
| page 6 offset 20480
|      0: 00 00 00 00 00 00 00 08 00 00 00 08 00 00 00 0a   ................
|     16: 00 00 00 0c 00 00 00 0e 00 00 00 10 00 00 00 12   ................
|     32: 00 00 00 14 00 00 00 16 00 00 00 00 00 00 00 00   ................
| page 7 offset 24576
|      0: 0d 00 00 00 01 04 30 00 04 30 00 00 00 00 00 00   ......0..0......
|   1072: 97 4d 32 14 00 ae 7c 00 00 00 00 00 00 00 00 00   .M2...|.........
|   1088: 00 00 00 00 00 00 01 00 00 00 00 00 00 00 00 00   ................
|   4080: 00 00 00 00 00 00 00 00 00 00 00 00 00 00 00 05   ................
| page 9 offset 32768
|      0: 0d 00 00 00 01 04 30 00 04 30 00 00 00 00 00 00   ......0..0......
|   1072: 97 4d 46 14 00 ae 7c 00 00 00 00 00 00 00 00 00   .MF...|.........
|   1088: 00 00 00 00 00 00 01 00 00 00 00 00 00 00 00 00   ................
|   4080: 00 00 00 00 00 00 00 00 00 00 00 00 00 00 00 07   ................
| page 11 offset 40960
|      0: 0d 00 00 00 01 04 30 00 04 30 00 00 00 00 00 00   ......0..0......
|   1072: 97 4d 5a 14 00 ae 7c 00 00 00 00 00 00 00 00 00   .MZ...|.........
|   1088: 00 00 00 00 00 00 01 00 00 00 00 00 00 00 00 00   ................
|   4080: 00 00 00 00 00 00 00 00 00 00 00 00 00 00 00 09   ................
| page 13 offset 49152
|      0: 0d 00 00 00 01 04 30 00 04 30 00 00 00 00 00 00   ......0..0......
|   1072: 97 4d 6e 14 00 ae 7c 00 00 00 00 00 00 00 00 00   .Mn...|.........
|   1088: 00 00 00 00 00 00 01 00 00 00 00 00 00 00 00 00   ................
|   4080: 00 00 00 00 00 00 00 00 00 00 00 00 00 00 00 0b   ................
| page 15 offset 57344
|      0: 0d 00 00 00 01 04 2f 00 04 2f 00 00 00 00 00 00   ....../../......
|   1056: 00 00 00 00 00 00 00 00 00 00 00 00 00 00 00 97   ................
|   1072: 4d 81 02 14 00 ae 7c 00 00 00 00 00 00 00 00 00   M.....|.........
|   1088: 00 00 00 00 00 00 01 00 00 00 00 00 00 00 00 00   ................
|   4080: 00 00 00 00 00 00 00 00 00 00 00 00 00 00 00 0d   ................
| page 17 offset 65536
|      0: 0d 00 00 00 01 04 2f 00 04 2f 00 00 00 00 00 00   ....../../......
|   1056: 00 00 00 00 00 00 00 00 00 00 00 00 00 00 00 97   ................
|   1072: 4d 81 16 14 00 ae 7c 00 00 00 00 00 00 00 00 00   M.....|.........
|   1088: 00 00 00 00 00 00 01 00 00 00 00 00 00 00 00 00   ................
|   4080: 00 00 00 00 00 00 00 00 00 00 00 00 00 00 00 0f   ................
| page 19 offset 73728
|      0: 0d 00 00 00 01 04 2f 00 04 2f 00 00 00 00 00 00   ....../../......
|   1056: 00 00 00 00 00 00 00 00 00 00 00 00 00 00 00 97   ................
|   1072: 4d 81 2a 14 00 ae 7c 00 00 00 00 00 00 00 00 00   M.*...|.........
|   1088: 00 00 00 00 00 00 01 00 00 00 00 00 00 00 00 00   ................
|   4080: 00 00 00 00 00 00 00 00 00 00 00 00 00 00 00 11   ................
| page 21 offset 81920
|      0: 0d 00 00 00 01 04 2f 00 04 2f 00 00 00 00 00 00   ....../../......
|   1056: 00 00 00 00 00 00 00 00 00 00 00 00 00 00 00 97   ................
|   1072: 4d 81 3e 14 00 ae 7c 00 00 00 00 00 00 00 00 00   M.>...|.........
|   1088: 00 00 00 00 00 00 01 00 00 00 00 00 00 00 00 00   ................
|   4080: 00 00 00 00 00 00 00 00 00 00 00 00 00 00 00 13   ................
| end freespace001.txt.db
.testctrl prng_seed 1 db
.testctrl internal_functions
SELECT sum(s+length(b)) FROM t1 WHERE a IN (110,10,150) AND q IS NULL;
WITH RECURSIVE c(x) AS (VALUES(1) UNION ALL SELECT x+1 FROM c WHERE x<100)
INSERT OR IGNORE INTO t1(a,c) SELECT x,null FROM c
UNION ALL SELECT 180-x,printf('[%,d]',x*781) FROM c;
INSERT INTO t1(b) VALUES(zeroblob(40000));

