.open --hexdb
| size 8192 pagesize 4096 filename freespace002.txt.db
| page 1 offset 0
|      0: 53 51 4c 69 74 65 20 66 6f 72 6d 61 74 20 33 00   SQLite format 3.
|     16: 10 00 01 01 00 40 20 20 00 00 00 00 00 00 00 02   .....@  ........
|     32: 00 00 00 00 00 00 00 00 00 00 00 01 00 00 00 04   ................
|     48: 00 00 00 00 00 00 00 00 00 00 00 01 00 00 00 00   ................
|     96: 00 00 00 00 0d 00 00 00 01 0f c6 00 0f c6 00 00   ................
|   4032: 00 00 00 00 00 00 38 01 06 17 11 11 01 5d 74 61   ......8......]ta
|   4048: 62 6c 65 74 31 74 31 02 43 52 45 41 54 45 20 54   blet1t1.CREATE T
|   4064: 41 42 4c 45 20 74 31 28 61 20 49 4e 54 45 47 45   ABLE t1(a INTEGE
|   4080: 52 20 50 52 49 4d 41 52 59 20 4b 45 59 2c 62 29   R PRIMARY KEY,b)
| page 2 offset 4096
|      0: 0d 00 87 00 1a 00 82 00 0f fb 0e e4 0d d7 0c d4   ................
|     16: 0b db 0a ec 0a 07 09 2c 08 5b 07 94 06 d7 06 24   .......,.[.....$
|     32: 05 7b 04 dc 04 47 03 bc 03 3c 02 c6 02 5a 01 f8   .....G...<...Z..
|     48: 01 a0 01 52 01 0f 00 d6 00 a7 00 82 00 82 00 82   ...R............
|     64: 00 82 00 82 00 82 00 82 00 82 00 82 00 82 00 82   ................
|     80: 00 82 00 82 00 82 00 82 00 82 00 82 00 82 00 82   ................
|     96: 00 82 00 82 00 82 00 82 00 82 00 82 00 82 00 00   ................
|    128: 00 00 03 32 03 00 00 00 ac 00 20 00 00 00 00 00   ...2...... .....
|    160: 00 00 00 00 00 00 00 03 30 03 00 00 00 db 00 2a   ........0......*
|    208: 00 00 00 00 00 00 03 2e 03 00 00 01 14 00 34 00   ..............4.
|    256: 00 00 00 00 00 00 00 00 00 00 00 00 00 00 00 03   ................
|    272: 2c 03 00 00 01 57 00 3e 00 00 00 00 00 00 00 00   ,....W.>........
|    336: 00 00 03 2a 03 00 00 01 a5 00 49 00 00 00 00 00   ...*......I.....
|    416: 03 28 03 00 00 01 fd 00 53 00 00 00 00 00 00 00   .(......S.......
|    496: 00 00 00 00 00 00 00 00 03 26 03 00 00 02 5f 00   .........&...._.
|    512: 5d 00 00 00 00 00 00 00 00 00 00 00 00 00 00 00   ]...............
|    592: 00 00 00 00 00 00 00 00 00 00 03 24 03 00 00 02   ...........$....
|    608: cb 00 67 00 00 00 00 00 00 00 00 00 00 00 00 00   ..g.............
|    704: 00 00 00 00 00 00 03 22 03 00 00 03 41 00 71 00   ............A.q.
|    816: 00 00 00 00 00 00 00 00 00 00 00 00 03 20 03 00   ............. ..
|    832: 00 03 c1 00 7b 00 00 00 00 00 00 00 00 00 00 00   ................
|    944: 00 00 00 00 00 00 00 00 00 00 00 00 03 1e 03 00   ................
|    960: 00 04 4c 00 86 00 00 00 00 00 00 00 00 00 00 00   ..L.............
|   1088: 00 00 00 00 00 00 00 03 1c 03 00 00 04 e1 00 90   ................
|   1232: 00 00 00 00 00 00 00 00 00 00 00 00 03 1a 03 00   ................
|   1248: 00 05 80 00 9a 00 00 00 00 00 00 00 00 00 00 00   ................
|   1392: 00 00 00 00 00 00 00 00 00 00 00 03 18 03 00 00   ................
|   1408: 06 29 00 a4 00 00 00 00 00 00 00 00 00 00 00 00   .)..............
|   1568: 00 00 00 00 03 16 03 00 00 06 dc 00 ae 00 00 00   ................
|   1744: 00 00 00 00 00 00 00 03 14 03 00 00 07 99 00 b8   ................
|   1936: 00 00 00 00 03 12 03 00 00 08 60 00 c2 00 00 00   ..........`.....
|   2128: 00 00 00 00 00 00 00 00 00 00 00 03 10 03 00 00   ................
|   2144: 09 31 00 cc 00 00 00 00 00 00 00 00 00 00 00 00   .1..............
|   2336: 00 00 00 00 00 00 00 00 00 00 00 00 03 0e 03 00   ................
|   2352: 00 0a 0c 00 d6 00 00 00 00 00 00 00 00 00 00 00   ................
|   2560: 00 00 00 00 00 00 00 03 0c 03 00 00 0a f1 00 e0   ................
|   2784: 00 00 00 00 00 00 00 00 00 00 00 00 03 0a 03 00   ................
|   2800: 00 0b e0 00 ea 00 00 00 00 00 00 00 00 00 00 00   ................
|   3024: 00 00 00 00 00 00 00 00 00 00 00 03 08 03 00 00   ................
|   3040: 0c d9 00 f4 00 00 00 00 00 00 00 00 00 00 00 00   ................
|   3280: 00 00 00 00 03 06 03 00 00 0d dc 00 fe 00 00 00   ................
|   3536: 00 00 00 00 00 00 00 03 04 03 00 00 0e e9 01 08   ................
|   3808: 00 00 00 00 03 02 03 00 00 00 00 01 12 00 00 00   ................
|   4080: 00 00 00 00 00 00 00 00 00 00 00 03 00 03 00 00   ................
| end freespace002.txt.db
.testctrl prng_seed 1 db
.testctrl internal_functions
INSERT INTO t1(b) VALUES(randomblob(250));

