.open --hexdb
| size 24576 pagesize 4096 filename fts3007.txt.db
| page 1 offset 0
|      0: 53 51 4c 69 74 65 20 66 6f 72 6d 61 74 20 33 00   SQLite format 3.
|     16: 10 00 01 01 00 40 20 20 00 00 00 00 00 00 00 06   .....@  ........
|     32: 00 00 00 00 00 00 00 00 00 00 00 05 00 00 00 04   ................
|     48: 00 00 00 00 00 00 00 00 00 00 00 01 00 00 00 00   ................
|     96: 00 00 00 00 0d 0e 57 00 06 0d 6e 00 0f bc 0f 46   ......W...n....F
|    112: 0e c7 0e 5f 0d 6e 0e 24 00 00 00 00 00 00 00 00   ..._.n.$........
|   3424: 00 00 00 00 00 00 00 00 00 00 00 00 00 00 81 33   ...............3
|   3440: 05 07 17 1f 1f 01 82 35 74 61 62 6c 65 74 30 5f   .......5tablet0_
|   3456: 73 65 67 64 69 72 74 30 5f 73 65 67 64 69 72 05   segdirt0_segdir.
|   3472: 43 52 45 41 54 45 20 54 41 42 4c 45 20 27 74 30   CREATE TABLE 't0
|   3488: 5f 73 65 67 64 69 72 27 28 6c 65 76 65 6c 20 49   _segdir'(level I
|   3504: 4e 54 45 47 45 52 2c 69 64 78 20 49 4e 54 45 47   NTEGER,idx INTEG
|   3520: 45 52 2c 73 74 61 72 74 5f 62 6c 6f 63 6b 20 49   ER,start_block I
|   3536: 4e 54 45 47 45 52 2c 6c 65 61 76 65 73 5f 65 6e   NTEGER,leaves_en
|   3552: 64 5f 62 6c 6f 63 6b 20 49 4e 54 45 47 45 52 2c   d_block INTEGER,
|   3568: 65 6e 64 5f 62 6c 6f 63 6b 20 49 4e 54 45 47 45   end_block INTEGE
|   3584: 52 2c 72 6f 6f 74 20 42 4c 4f 42 2c 50 52 49 4d   R,root BLOB,PRIM
|   3600: 41 52 59 20 4b 45 59 28 6c 65 76 65 6c 2c 20 69   ARY KEY(level, i
|   3616: 64 78 29 29 31 06 06 17 45 1f 01 00 69 6e 64 65   dx))1...E...inde
|   3632: 78 73 71 6c 69 74 65 5f 61 75 74 6f 69 6e 64 65   xsqlite_autoinde
|   3648: 78 5f 74 30 5f 73 65 67 64 69 72 5f 31 74 30 5f   x_t0_segdir_1t0_
|   3664: 73 65 67 64 69 72 06 00 00 00 08 00 00 00 00 66   segdir.........f
|   3680: 04 07 17 23 23 01 81 13 74 61 62 6c 65 74 30 5f   ...##...tablet0_
|   3696: 73 65 67 6d 65 6e 74 73 74 30 5f 73 65 67 6d 65   segmentst0_segme
|   3712: 6e 74 73 04 43 52 45 41 54 45 20 54 41 42 4c 45   nts.CREATE TABLE
|   3728: 20 27 74 30 5f 73 65 67 6d 65 6e 74 73 27 28 62    't0_segments'(b
|   3744: 6c 6f 63 6b 69 64 20 49 4e 54 45 47 45 52 20 50   lockid INTEGER P
|   3760: 52 49 4d 41 52 59 20 4b 45 59 2c 20 62 6c 6f 63   RIMARY KEY, bloc
|   3776: 6b 20 42 4c 4f 42 29 7d 03 07 17 21 21 01 81 45   k BLOB)....!!..E
|   3792: 74 61 62 6c 65 74 30 5f 63 6f 6e 74 65 6e 74 74   tablet0_contentt
|   3808: 30 5f 63 6f 6e 74 65 6e 74 03 43 52 45 41 54 45   0_content.CREATE
|   3824: 20 54 41 42 4c 45 20 27 74 30 5f 63 6f 6e 74 65    TABLE 't0_conte
|   3840: 6e 74 27 28 64 6f 63 69 64 20 49 4e 54 45 47 45   nt'(docid INTEGE
|   3856: 52 20 50 52 49 4d 41 52 59 20 4b 45 59 2c 20 27   R PRIMARY KEY, '
|   3872: 63 30 63 6f 6c 30 27 2c 20 27 63 31 63 6f 6c 31   c0col0', 'c1col1
|   3888: 27 2c 20 27 63 32 63 6f 6c 32 27 2c 20 27 63 33   ', 'c2col2', 'c3
|   3904: 63 6f 6c 33 27 29 74 02 07 17 11 11 08 81 55 74   col3')t.......Ut
|   3920: 61 62 6c 65 74 30 74 30 43 52 45 41 54 45 20 56   ablet0t0CREATE V
|   3936: 49 52 54 55 41 4c 20 54 41 42 4c 45 20 74 30 20   IRTUAL TABLE t0 
|   3952: 55 53 49 4e 47 20 66 74 73 33 28 63 6f 6c 30 20   USING fts3(col0 
|   3968: 49 4e 54 45 47 45 52 20 50 52 49 4d 41 52 59 20   INTEGER PRIMARY 
|   3984: 4b 45 59 2c 63 6f 6c 31 20 56 41 52 43 48 41 52   KEY,col1 VARCHAR
|   4000: 28 38 29 2c 63 6f 6c 32 20 42 49 4e 41 52 59 2c   (8),col2 BINARY,
|   4016: 63 6f 6c 33 20 42 49 4e 41 52 59 29 42 01 06 17   col3 BINARY)B...
|   4032: 1f 1f 01 55 74 61 62 6c 65 74 5f 63 6f 6e 74 65   ...Utablet_conte
|   4048: 6e 74 74 5f 63 6f 6e 74 65 6e 74 02 43 52 45 41   ntt_content.CREA
|   4064: 54 45 20 54 41 42 4c 45 20 74 5f 63 6f 6e 74 65   TE TABLE t_conte
|   4080: 6e 74 28 63 6f 6c 30 20 49 4e 54 45 47 45 52 29   nt(col0 INTEGER)
| page 2 offset 4096
|      0: 0d 00 00 00 00 10 00 00 00 00 00 00 00 00 00 00   ................
| page 3 offset 8192
|      0: 0d 00 00 00 01 0f ec 00 0f ec 00 00 00 00 00 00   ................
|   4064: 00 00 00 00 00 00 00 00 00 00 00 00 12 01 06 00   ................
|   4080: 09 15 15 15 31 32 33 34 61 61 61 61 62 62 62 62   ....1234aaaabbbb
| page 4 offset 12288
|      0: 0d 00 00 00 00 10 00 00 00 00 00 00 00 00 00 00   ................
| page 5 offset 16384
|      0: 0d 00 00 00 01 0f c9 00 0f c9 00 00 00 00 00 00   ................
|   4032: 00 00 00 00 00 00 00 00 00 35 01 07 08 08 08 08   .........5......
|   4048: 15 60 30 20 34 32 00 01 31 03 01 02 00 01 03 32   .`0 42..1......2
|   4064: 33 34 05 01 01 01 02 00 00 04 61 61 61 61 05 01   34........aaaa..
|   4080: 01 02 02 00 00 04 62 62 62 62 05 01 01 03 02 00   ......bbbb......
| page 6 offset 20480
|      0: 0a 00 00 00 01 0f fb 00 0f fb 00 00 00 00 00 00   ................
|   4080: 00 00 00 00 00 00 00 00 00 00 00 04 04 08 08 09   ................
| end fts3007.txt.db
.testctrl prng_seed 1 db
.testctrl internal_functions
SELECT matchinfo(t0,'yxy')  FROM t0 WHERE t0 MATCH  x'2b0a312b0a312a312a2a0b5d0a0b0b0a312a0a0b0b0a312a0b310a392a0b0a27312a2a0b5d0a312a0b310a31315d0b310a312a316d2a0b313b15bceaa50a312a0b0a27312a2a0b5d0a312a0b310a312b0b2a310a312a0b2a0b2a0b2e5d0a0bff313336e34a2a312a0b0a3c310b0a0b4b4b0b4b2a4bec40322b2a0b310a0a312a0a0a0a0a0a0a0a0a0b310a312a2a2a0b5d0a0b0b0a312a0b310a312a0b0a4e4541530b310a5df5ced70a0a0a0a0a4f520a0a0a0a0a0a0a312a0b0a4e4541520b310a5d616161610a0a0a0a4f520a0a0a0a0a0a312b0a312a312a0a0a0a0a0a0a004a0b0a310b220a0b0a310a4a22310a0b0a7e6fe0e0e030e0e0e0e0e01176e02000e0e0e0e0e01131320226310a0b0a310a4a22310a0b0a310a766f8b8b4ee0e0300ae0090909090909090909090909090909090909090909090909090909090909090947aaaa540b09090909090909090909090909090909090909090909090909090909090909fae0e0f2f22164e0e0f273e07fefefef7d6dfafafafa6d6d6d6d';

