.open --hexdb
| size 20480 pagesize 4096 filename fts3004.txt.db
| page 1 offset 0
|      0: 53 51 4c 69 74 65 20 66 6f 72 6d 61 74 20 33 00   SQLite format 3.
|     16: 10 00 01 01 00 40 20 20 00 00 00 00 00 00 00 05   .....@  ........
|     32: 00 00 00 00 00 00 00 00 00 00 00 04 00 00 00 04   ................
|     48: 00 00 00 00 00 00 00 00 00 00 00 01 00 00 00 00   ................
|     96: 00 00 00 00 0d 0e e4 00 05 0d fb 00 0f bf 0f 54   ...............T
|    112: 0e ec 0d fb 0e b1 00 00 00 00 00 00 00 00 00 00   ................
|   3568: 00 00 00 00 00 00 00 00 00 00 00 81 33 04 07 17   ............3...
|   3584: 1f 1f 01 82 35 74 61 62 6c 65 74 31 5f 73 65 67   ....5tablet1_seg
|   3600: 64 69 72 74 31 5f 73 65 67 64 69 72 04 43 52 45   dirt1_segdir.CRE
|   3616: 41 54 45 20 54 41 42 4c 45 20 27 74 31 5f 73 65   ATE TABLE 't1_se
|   3632: 67 64 69 72 27 28 6c 65 76 65 6c 20 49 4e 54 45   gdir'(level INTE
|   3648: 47 45 52 2c 69 64 78 20 49 4e 54 45 47 45 52 2c   GER,idx INTEGER,
|   3664: 73 74 61 72 74 5f 62 6c 6f 63 6b 20 49 4e 54 45   start_block INTE
|   3680: 47 45 52 2c 6c 65 61 76 65 73 5f 65 6e 64 5f 62   GER,leaves_end_b
|   3696: 6c 6f 63 6b 20 49 4e 54 45 47 45 52 2c 65 6e 64   lock INTEGER,end
|   3712: 5f 62 6c 6f 63 6b 20 49 4e 54 45 47 45 52 2c 72   _block INTEGER,r
|   3728: 6f 6f 74 20 42 4c 4f 42 2c 50 52 49 4d 41 52 59   oot BLOB,PRIMARY
|   3744: 20 4b 45 59 28 6c 65 76 65 6c 2c 20 69 64 78 29    KEY(level, idx)
|   3760: 29 31 05 06 17 45 1f 01 00 69 6e 64 65 78 73 71   )1...E...indexsq
|   3776: 6c 69 74 65 5f 61 75 74 6f 69 6e 64 65 78 5f 74   lite_autoindex_t
|   3792: 31 5f 73 65 67 64 69 72 5f 31 74 31 5f 73 65 67   1_segdir_1t1_seg
|   3808: 64 69 72 05 00 00 00 08 00 00 00 00 66 03 07 17   dir.........f...
|   3824: 23 23 01 81 13 74 61 62 6c 65 74 31 5f 73 65 67   ##...tablet1_seg
|   3840: 6d 65 6e 74 73 74 31 5f 73 65 67 6d 65 6e 74 73   mentst1_segments
|   3856: 03 43 52 45 41 54 45 20 54 41 42 4c 45 20 27 74   .CREATE TABLE 't
|   3872: 31 5f 73 65 67 6d 65 6e 74 73 27 28 62 6c 6f 63   1_segments'(bloc
|   3888: 6b 69 64 20 49 4e 54 45 47 45 52 20 50 52 49 4d   kid INTEGER PRIM
|   3904: 41 52 59 20 4b 45 59 2c 20 62 6c 6f 63 6b 20 42   ARY KEY, block B
|   3920: 4c 4f 42 29 69 02 07 17 21 21 01 81 1d 74 61 62   LOB)i...!!...tab
|   3936: 6c 65 74 31 5f 63 6f 6e 74 65 6e 74 74 31 5f 63   let1_contentt1_c
|   3952: 6f 6e 74 65 6e 74 02 43 52 45 41 54 45 20 54 41   ontent.CREATE TA
|   3968: 42 4c 45 20 27 74 31 5f 63 6f 6e 74 65 6e 74 27   BLE 't1_content'
|   3984: 28 64 6f 63 69 64 20 49 4e 54 45 47 45 52 20 50   (docid INTEGER P
|   4000: 52 49 4d 41 52 59 20 4b 45 59 2c 20 27 63 30 61   RIMARY KEY, 'c0a
|   4016: 27 2c 20 27 63 31 63 6f 6e 74 65 6e 74 27 29 3f   ', 'c1content')?
|   4032: 01 06 17 11 11 08 6d 74 61 62 6c 65 74 31 74 31   ......mtablet1t1
|   4048: 43 52 45 41 54 45 20 56 49 52 54 55 41 4c 20 54   CREATE VIRTUAL T
|   4064: 41 42 4c 45 20 74 31 20 55 53 49 4e 47 20 66 74   ABLE t1 USING ft
|   4080: 73 33 28 61 2c 63 6f 6e 74 65 6e 74 3d 22 22 29   s3(a,content=..)
| page 2 offset 4096
|      0: 0d 00 00 00 08 0e 17 00 0f c3 0f 7a 0f 31 0f 03   ...........z.1..
|     16: 0e be 0e 91 0e 5c 0e 17 00 00 00 00 00 00 00 00   ................
|   3600: 00 00 00 00 00 00 00 43 08 05 00 81 09 00 73 75   .......C......su
|   3616: 6e 74 20 69 6e 20 63 75 6c 70 61 20 71 75 69 20   nt in culpa qui 
|   3632: 6f 66 66 69 63 69 61 20 64 65 73 65 72 75 6e 74   officia deserunt
|   3648: 20 6d 6f 6c 6c 69 74 20 61 6e 69 6d 20 69 64 20    mollit anim id 
|   3664: 65 73 74 20 6c 61 62 6f 72 75 6d 2e 33 07 04 00   est laborum.3...
|   3680: 6b 00 45 78 63 65 70 74 65 75 72 20 73 69 6e 74   k.Excepteur sint
|   3696: 20 6f 63 63 61 65 63 61 74 20 63 75 70 69 64 61    occaecat cupida
|   3712: 74 61 74 20 6e 6f 6e 20 70 72 6f 69 64 65 6e 74   tat non proident
|   3728: 2c 2b 06 04 00 5b 00 63 69 6c 6c 75 6d 20 64 6f   ,+...[.cillum do
|   3744: 6c 6f 72 65 20 65 75 20 66 75 67 69 61 74 20 6e   lore eu fugiat n
|   3760: 75 6c 6c 61 20 70 61 72 69 61 74 75 72 2e 43 05   ulla pariatur.C.
|   3776: 05 00 81 09 00 44 75 69 73 20 61 75 74 65 20 69   .....Duis aute i
|   3792: 72 75 72 65 20 64 6f 6c 6f 72 20 69 6e 20 72 65   rure dolor in re
|   3808: 70 72 65 68 65 6e 64 65 72 69 74 20 69 6e 20 76   prehenderit in v
|   3824: 6f 6c 75 70 74 61 74 65 20 76 65 6c 69 74 20 65   oluptate velit e
|   3840: 73 73 65 2c 04 04 00 5d 00 6e 69 73 69 20 75 74   sse,...].nisi ut
|   3856: 20 61 6c 69 71 75 69 70 20 65 78 20 65 61 20 63    aliquip ex ea c
|   3872: 6f 6d 6d 6f 64 6f 20 63 6f 6e 73 65 71 75 61 74   ommodo consequat
|   3888: 2e 47 03 05 00 81 11 00 55 74 20 65 6e 69 6d 20   .G......Ut enim 
|   3904: 61 64 20 6d 69 6e 69 6d 20 76 65 6e 69 61 6d 2c   ad minim veniam,
|   3920: 20 71 75 69 73 20 6e 6f 73 74 72 75 64 20 65 78    quis nostrud ex
|   3936: 65 72 63 69 74 61 74 69 6f 6e 20 75 6c 6c 61 6d   ercitation ullam
|   3952: 63 6f 20 6c 61 62 6f 72 69 73 47 02 05 00 81 11   co laborisG.....
|   3968: 00 73 65 64 20 64 6f 20 65 69 75 73 6d 6f 64 20   .sed do eiusmod 
|   3984: 74 65 6d 70 6f 72 20 69 6e 63 69 64 69 64 75 6e   tempor incididun
|   4000: 74 20 75 74 20 6c 61 62 6f 72 65 20 65 74 20 64   t ut labore et d
|   4016: 6f 6c 6f 72 65 20 6d 61 67 6e 61 20 61 6c 69 71   olore magna aliq
|   4032: 75 61 2e 3b 01 04 00 7b 00 4c 6f 72 65 6d 20 69   ua.;.....Lorem i
|   4048: 70 73 75 6d 20 64 6f 6c 6f 72 20 73 69 74 20 61   psum dolor sit a
|   4064: 6d 65 74 2c 20 63 6f 6e 73 65 63 74 65 74 75 72   met, consectetur
|   4080: 20 61 64 69 70 69 73 63 69 6e 67 20 65 6c 69 74    adipiscing elit
| page 3 offset 8192
|      0: 0d 00 00 00 00 10 00 00 00 00 00 00 00 00 00 00   ................
| page 4 offset 12288
|      0: 0d 00 00 00 01 0d 57 00 0d 57 00 00 00 00 00 00   ......W..W......
|   3408: 00 00 00 00 00 00 00 85 26 01 08 08 08 08 08 17   ........&.......
|   3424: 8a 3e 30 20 36 36 35 00 02 61 64 03 03 04 00 02   .>0 665..ad.....
|   3440: 08 69 70 69 73 63 69 6e 67 03 01 08 00 01 05 6c   .ipiscing......l
|   3456: 69 71 75 61 03 02 0c 00 05 02 69 70 03 04 04 00   iqua......ip....
|   3472: 01 03 6d 65 74 03 01 06 00 01 03 6e 69 6d 03 08   ..met......nim..
|   3488: 09 00 01 03 75 74 65 03 05 03 00 00 06 63 69 6c   ....ute......cil
|   3504: 6c 75 6d 03 06 02 00 01 06 6f 6d 6d 6f 64 6f 03   lum......ommodo.
|   3520: 04 07 00 02 09 6e 73 65 63 74 65 74 75 72 03 01   .....nsectetur..
|   3536: 07 00 05 04 71 75 61 74 03 04 08 00 01 04 75 6c   ....quat......ul
|   3552: 70 61 03 08 04 00 02 07 70 69 64 61 74 61 74 03   pa......pidatat.
|   3568: 07 05 00 00 08 64 65 73 65 72 75 6e 74 03 08 07   .....deserunt...
|   3584: 00 01 01 6f 03 02 03 00 02 03 6c 6f 72 06 01 04   ...o......lor...
|   3600: 00 04 05 00 05 01 65 06 02 0a 00 04 03 00 01 03   ......e.........
|   3616: 75 69 73 03 05 02 00 00 02 65 61 03 04 06 00 01   uis......ea.....
|   3632: 06 69 75 73 6d 6f 64 03 02 04 00 01 03 6c 69 74   .iusmod......lit
|   3648: 03 01 09 00 01 03 6e 69 6d 03 03 03 00 01 03 73   ......nim......s
|   3664: 73 65 03 05 0b 00 02 01 74 03 08 0b 00 01 01 74   se......t......t
|   3680: 03 02 09 00 01 01 75 03 06 04 00 01 01 78 03 04   ......u......x..
|   3696: 05 00 02 07 63 65 70 74 65 75 72 03 07 02 00 02   ....cepteur.....
|   3712: 0a 65 72 63 69 74 61 74 69 6f 6e 03 03 09 00 00   .ercitation.....
|   3728: 06 66 75 67 69 61 74 03 06 05 00 00 02 69 64 03   .fugiat......id.
|   3744: 08 0a 00 01 01 6e 07 05 06 04 00 03 03 00 02 08   .....n..........
|   3760: 63 69 64 69 64 75 6e 74 03 02 06 00 01 04 70 73   cididunt......ps
|   3776: 75 6d 03 01 03 00 01 04 72 75 72 65 03 05 04 00   um......rure....
|   3792: 00 06 6c 61 62 6f 72 65 03 02 08 00 05 02 69 73   ..labore......is
|   3808: 03 03 0b 00 05 02 75 6d 03 08 0c 00 01 04 6f 72   ......um......or
|   3824: 65 6d 03 01 02 00 00 05 6d 61 67 6e 61 03 02 0b   em......magna...
|   3840: 00 01 04 69 6e 69 6d 03 03 05 00 01 05 6f 6c 6c   ...inim......oll
|   3856: 69 74 03 08 08 00 00 04 6e 69 73 69 03 04 02 00   it......nisi....
|   3872: 01 02 6f 6e 03 07 06 00 02 05 73 74 72 75 64 03   ..on......strud.
|   3888: 03 08 00 01 04 75 6c 6c 61 03 06 06 00 00 08 6f   .....ulla......o
|   3904: 63 63 61 65 63 61 74 03 07 04 00 01 06 66 66 69   ccaecat......ffi
|   3920: 63 69 61 03 08 06 00 00 08 70 61 72 69 61 74 75   cia......pariatu
|   3936: 72 03 06 07 00 01 07 72 6f 69 64 65 6e 74 03 07   r......roident..
|   3952: 07 00 00 03 71 75 69 03 08 05 00 03 01 73 03 03   ....qui......s..
|   3968: 07 00 00 0d 72 65 70 72 65 68 65 6e 64 65 72 69   ....reprehenderi
|   3984: 74 03 05 07 00 00 03 73 65 64 03 02 02 00 01 03   t......sed......
|   4000: 69 6e 74 03 07 03 00 02 01 74 03 01 05 00 01 03   int......t......
|   4016: 75 6e 74 03 08 02 00 00 06 74 65 6d 70 6f 72 03   unt......tempor.
|   4032: 02 05 00 00 07 75 6c 6c 61 6d 63 6f 03 03 0a 00   .....ullamco....
|   4048: 01 01 74 09 02 07 00 01 02 00 01 03 00 00 05 76   ..t............v
|   4064: 65 6c 69 74 03 05 0a 00 02 04 6e 69 61 6d 03 03   elit......niam..
|   4080: 06 00 01 08 6f 6c 75 70 74 61 74 65 03 05 09 00   ....oluptate....
| page 5 offset 16384
|      0: 0a 00 00 00 01 0f fb 00 0f fb 00 00 00 00 00 00   ................
|   4080: 00 00 00 00 00 00 00 00 00 00 00 04 04 08 08 09   ................
| end fts3004.txt.db
.testctrl prng_seed 1 db
.testctrl internal_functions
SELECT rowid FROM t1 WHERE t1 MATCH '"ut labore et dolore"';
SELECT rowid, quote(matchinfo(t1,'pcxybs')) FROM t1 WHERE t1 MATCH 'e*';
DELETE FROM t1 WHERE t1 MATCH 'c*';

