.open --hexdb
| size 28672 pagesize 4096 filename fts4003.txt.db
| page 1 offset 0
|      0: 53 51 4c 69 74 65 20 66 6f 72 6d 61 74 20 33 00   SQLite format 3.
|     16: 10 00 01 01 00 40 20 20 00 00 00 00 00 00 00 07   .....@  ........
|     32: 00 00 00 00 00 00 00 00 00 00 00 06 00 00 00 04   ................
|     48: 00 00 00 00 00 00 00 00 00 00 00 01 00 00 00 00   ................
|     96: 00 00 00 00 0d 0f 00 00 07 0d 6a 00 0f ce 0f 6d   ..........j....m
|    112: 0f 08 0e 1c 0e cf 0d bd 0d 6a 00 00 00 00 00 00   .........j......
|   3424: 00 00 00 00 00 00 00 00 00 00 51 07 06 17 19 19   ..........Q.....
|   3440: 01 7f 74 61 62 6c 65 66 5f 73 74 61 74 66 5f 73   ..tablef_statf_s
|   3456: 74 61 74 07 43 52 45 41 54 45 20 54 41 42 4c 45   tat.CREATE TABLE
|   3472: 20 27 66 5f 73 74 61 74 27 28 69 64 20 49 4e 54    'f_stat'(id INT
|   3488: 45 47 45 52 20 50 52 49 4d 41 52 59 20 4b 45 59   EGER PRIMARY KEY
|   3504: 2c 20 76 61 6c 75 65 20 42 4c 4f 42 29 5d 06 07   , value BLOB)]..
|   3520: 17 1f 1f 01 81 09 74 61 62 6c 65 66 5f 64 6f 63   ......tablef_doc
|   3536: 73 69 7a 65 66 5f 64 6f 63 73 69 7a 65 06 43 52   sizef_docsize.CR
|   3552: 45 41 54 45 20 54 41 42 4c 45 20 27 66 5f 64 6f   EATE TABLE 'f_do
|   3568: 63 73 69 7a 65 27 28 64 6f 63 69 64 20 49 4e 54   csize'(docid INT
|   3584: 45 47 45 52 20 50 52 49 4d 41 52 59 20 4b 45 59   EGER PRIMARY KEY
|   3600: 2c 20 73 69 7a 65 20 42 4c 4f 42 29 81 30 04 07   , size BLOB).0..
|   3616: 17 1d 1d 01 82 33 74 61 62 6c 65 66 5f 73 65 67   .....3tablef_seg
|   3632: 64 69 72 66 5f 73 65 67 64 69 72 04 43 52 45 41   dirf_segdir.CREA
|   3648: 54 45 20 54 41 42 4c 45 20 27 66 5f 73 65 67 64   TE TABLE 'f_segd
|   3664: 69 72 27 28 6c 65 76 65 6c 20 49 4e 54 45 47 45   ir'(level INTEGE
|   3680: 52 2c 69 64 78 20 49 4e 54 45 47 45 52 2c 73 74   R,idx INTEGER,st
|   3696: 61 72 74 5f 62 6c 6f 63 6b 20 49 4e 54 45 47 45   art_block INTEGE
|   3712: 52 2c 6c 65 61 76 65 73 5f 65 6e 64 5f 62 6c 6f   R,leaves_end_blo
|   3728: 63 6b 20 49 4e 54 45 47 45 52 2c 65 6e 64 5f 62   ck INTEGER,end_b
|   3744: 6c 6f 63 6b 20 49 4e 54 45 47 45 52 2c 72 6f 6f   lock INTEGER,roo
|   3760: 74 20 42 4c 4f 42 2c 50 52 49 4d 41 52 59 20 4b   t BLOB,PRIMARY K
|   3776: 45 59 28 6c 65 76 65 6c 2c 20 69 64 78 29 29 2f   EY(level, idx))/
|   3792: 05 06 17 43 1d 01 00 69 6e 64 65 78 73 71 6c 69   ...C...indexsqli
|   3808: 74 65 5f 61 75 74 6f 69 6e 64 65 78 5f 66 5f 73   te_autoindex_f_s
|   3824: 65 67 64 69 72 5f 31 66 5f 73 65 67 64 69 72 05   egdir_1f_segdir.
|   3840: 00 00 00 08 00 00 00 00 63 03 07 17 21 21 01 81   ........c...!!..
|   3856: 11 74 61 62 6c 65 66 5f 73 65 67 6d 65 6e 74 73   .tablef_segments
|   3872: 66 5f 73 65 67 6d 65 6e 74 73 03 43 52 45 41 54   f_segments.CREAT
|   3888: 45 20 54 41 42 4c 45 20 27 66 5f 73 65 67 6d 65   E TABLE 'f_segme
|   3904: 6e 74 73 27 28 62 6c 6f 63 6b 69 64 20 49 4e 54   nts'(blockid INT
|   3920: 45 47 45 52 20 50 52 49 4d 41 52 59 20 4b 45 59   EGER PRIMARY KEY
|   3936: 2c 20 62 6c 6f 63 6b 20 42 4c 4f 42 29 5f 02 07   , block BLOB)_..
|   3952: 17 1f 1f 01 81 0d 74 61 62 6c 65 66 5f 63 6f 6e   ......tablef_con
|   3968: 74 65 6e 74 66 5f 63 6f 6e 74 65 6e 74 02 43 52   tentf_content.CR
|   3984: 45 41 54 45 20 54 41 42 4c 45 20 27 66 5f 63 6f   EATE TABLE 'f_co
|   4000: 6e 74 65 6e 74 27 28 64 6f 63 69 64 20 49 4e 54   ntent'(docid INT
|   4016: 45 47 45 52 20 50 52 49 4d 41 52 59 20 4b 45 59   EGER PRIMARY KEY
|   4032: 2c 20 27 63 30 63 6f 6e 74 65 6e 74 27 29 30 01   , 'c0content')0.
|   4048: 06 17 0f 0f 08 53 74 61 62 6c 65 66 66 43 52 45   .....StableffCRE
|   4064: 41 54 45 20 56 49 52 54 55 41 4c 20 54 41 42 4c   ATE VIRTUAL TABL
|   4080: 45 20 66 20 55 53 49 4e 47 20 66 74 73 34 28 29   E f USING fts4()
| page 2 offset 4096
|      0: 0d 00 00 00 00 10 00 00 00 00 00 00 00 00 00 00   ................
| page 3 offset 8192
|      0: 0d 00 00 00 00 10 00 00 00 00 00 00 00 00 00 00   ................
| page 4 offset 12288
|      0: 0d 00 00 00 02 0e da 00 0f 6d 0e da 00 00 00 00   .........m......
|   3792: 00 00 00 00 00 00 00 00 00 00 81 10 02 08 01 01   ................
|   3808: 08 08 19 82 0c 4d 6c 32 35 35 20 37 37 00 01 31   .....Ml255 77..1
|   3824: 00 00 fa 64 00 4d 4d 4d 3c 5d 4d 65 4d 4d 4d 61   ...d.MMM<]MeMMMa
|   3840: 4d 80 00 ff 4d 05 00 00 01 20 4d 4d 2e 4d 6e 4d   M...M.... MM.MnM
|   3856: 4d 4d ff 4d 4d 4d 4d 4d 4d 00 10 4d 4d 4d 4d 00   MM.MMMMMM..MMMM.
|   3872: 00 00 00 4d 4d 4d 04 00 31 1d 4d 4d 4d 4d 4d 4d   ...MMM..1.MMMMMM
|   3888: 4d 4d 4d 68 4d 69 10 00 4d 05 ff ff 05 4d 4d 6c   MMMhMi..M....MMl
|   3904: 4d 00 4d 4d 4d 4d 4d 4d 3d 00 00 00 00 4d 4d 4d   M.MMMMMM=....MMM
|   3920: 4d 64 4d 4d 4d 4d 4d 4d 69 62 4d 4d 4d 03 ed 4d   MdMMMMMMibMMM..M
|   3936: 4d 4d 4d 4d 60 4d 4c e1 40 4d 55 00 80 81 10 01   MMMM`ML.@MU.....
|   3952: 08 01 01 08 08 19 82 0c 4d 5b 32 35 35 20 37 37   ........M[255 77
|   3968: 00 01 30 80 00 00 4d 5c 4d dd dd dd 4d 4d 7b 4d   ..0...M.M...MM.M
|   3984: 4d 4d 61 4d 80 19 ff 4d 05 00 00 01 20 4d 4d 2e   MMaM...M.... MM.
|   4000: 4d 6e 4d 4d 4d 4b 4d 6c 4d 00 4d 4d 4d 4d 4d 4d   MnMMMKMlM.MMMMMM
|   4016: 3d 00 00 00 00 4d 5d 4d 4d 64 5d 4d 00 4d 4d 4d   =....M]MMd]M.MMM
|   4032: 4d 4d 4d 4d 4d 4d 45 4d 69 10 00 4d 05 ff ff 05   MMMMMMEMi..M....
|   4048: 4d 64 6c 4d 00 4d 5d 4d 4d 4d 4d 3d 00 00 00 00   MdlM.M]MMMM=....
|   4064: 4d 4d 4d 4d 4d 4d 4d 4d 4d 4d 4d 69 62 4d 4d 4d   MMMMMMMMMMMibMMM
|   4080: 04 00 4d 4d 4d 4d 4d 60 4d 4c e1 40 4d 55 4d 45   ..MMMMM`ML.@MUME
| page 5 offset 16384
|      0: 0a 00 00 00 02 0f f1 00 0f f9 0f f1 00 00 00 00   ................
|   4080: 00 07 04 01 01 01 4d 6c 02 06 04 01 01 09 4d 5b   ......Ml......M[
| page 6 offset 20480
|      0: 0d 00 00 00 00 10 00 00 00 00 00 00 00 00 00 00   ................
| page 7 offset 24576
|      0: 0d 00 00 00 01 0f ad 00 0f ad 00 00 00 00 00 00   ................
|   4000: 00 00 00 00 00 00 00 00 00 00 00 00 00 51 00 04   .............Q..
|   4016: 00 81 26 80 80 80 80 10 00 00 00 00 64 00 4d 4d   ..&.........d.MM
|   4032: 4d 3c 4d 4d 65 4d 4d 4d 61 4d 80 00 ff 4d f6 ff   M<MMeMMMaM...M..
|   4048: 1a 00 20 4d 4d 2e 4d 6e 4d 4d 4d 10 4d 4d 4d 4d   .. MM.MnMMM.MMMM
|   4064: 4d 4d 00 10 4d 4d 4d 4d 4d 4d 69 57 4d 4d 4d 00   MM..MMMMMMiWMMM.
|   4080: 00 31 04 4d 4d 4d 3e 4d 4d 4c 4d 05 00 4d 69 10   .1.MMM>MMLM..Mi.
| end fts4003.txt.db
.testctrl prng_seed 1 db
.testctrl internal_functions
SELECT quote(matchinfo( f , 'pnax')) from f where f match '0 1';

