.open --hexdb
| size 45056 pagesize 4096 filename fts5007.txt.db
| page 1 offset 0
|      0: 53 51 4c 69 74 65 20 66 6f 72 6d 61 74 20 33 00   SQLite format 3.
|     16: 10 00 01 01 00 40 20 20 00 00 00 00 00 00 00 0b   .....@  ........
|     32: 00 00 00 00 00 00 00 00 00 00 00 0e 00 00 00 04   ................
|     48: 00 00 00 00 00 00 00 00 00 00 00 01 00 00 00 00   ................
|     96: 00 00 00 00 0d 00 00 00 0e 0b 02 00 0f af 0f 55   ...............U
|    112: 0e e7 0e 84 0e 24 0d c9 0d 7a 0d 20 0c b2 0c 4f   .....$...z. ...O
|    128: 0b ef 0b 94 0b 4e 0b 02 00 00 00 00 00 00 00 00   .....N..........
|   2816: 00 00 4a 0e 07 17 11 11 08 81 01 74 61 62 6c 65   ..J........table
|   2832: 74 34 74 34 43 52 45 41 54 45 20 56 49 52 54 55   t4t4CREATE VIRTU
|   2848: 41 4c 20 54 41 42 4c 45 20 74 34 20 55 53 49 4e   AL TABLE t4 USIN
|   2864: 47 20 66 74 73 35 76 6f 63 61 62 28 27 74 20 63   G fts5vocab('t c
|   2880: 27 2c 20 27 69 6e 73 74 61 6e 63 65 27 29 44 0d   ', 'instance')D.
|   2896: 06 17 11 11 08 77 74 61 62 6c 65 74 33 74 33 43   .....wtablet3t3C
|   2912: 52 45 41 54 45 20 56 49 52 54 55 41 4c 20 54 41   REATE VIRTUAL TA
|   2928: 42 4c 45 20 74 33 20 55 53 49 4e 47 20 66 74 73   BLE t3 USING fts
|   2944: 35 76 6f 63 61 62 28 27 74 20 63 27 2c 20 27 72   5vocab('t c', 'r
|   2960: 6f 77 27 29 59 0c 06 17 21 21 01 7f 74 61 62 6c   ow')Y...!!..tabl
|   2976: 65 74 20 66 5f 63 6f 6e 66 69 67 74 20 66 5f 63   et f_configt f_c
|   2992: 6f 6e 66 69 67 0b 43 52 45 41 54 45 20 54 41 42   onfig.CREATE TAB
|   3008: 4c 45 20 27 74 20 66 5f 63 6f 6e 66 69 67 27 28   LE 't f_config'(
|   3024: 6b 20 50 52 49 4d 41 52 59 20 4b 45 59 2c 20 76   k PRIMARY KEY, v
|   3040: 29 20 57 49 54 48 4f 55 54 20 52 4f 57 49 44 5e   ) WITHOUT ROWID^
|   3056: 0b 07 17 23 23 01 81 03 74 61 62 6c 65 74 20 66   ...##...tablet f
|   3072: 5f 64 6f 63 73 69 7a 65 74 20 66 5f 64 6f 63 73   _docsizet f_docs
|   3088: 69 7a 65 0a 43 52 45 41 54 45 20 54 41 42 4c 45   ize.CREATE TABLE
|   3104: 20 27 74 20 66 5f 64 6f 63 73 69 7a 65 27 28 69    't f_docsize'(i
|   3120: 64 20 49 4e 54 45 47 45 52 20 50 52 49 4d 41 52   d INTEGER PRIMAR
|   3136: 59 20 4b 45 59 2c 20 73 7a 20 42 4c 4f 42 29 61   Y KEY, sz BLOB)a
|   3152: 0a 07 17 23 23 01 81 09 74 61 62 6c 65 74 20 66   ...##...tablet f
|   3168: 5f 63 6f 6e 74 65 6e 74 74 20 66 5f 63 6f 6e 74   _contentt f_cont
|   3184: 65 6e 74 09 43 52 45 41 54 45 20 54 41 42 4c 45   ent.CREATE TABLE
|   3200: 20 27 74 20 66 5f 63 6f 6e 74 65 6e 74 27 28 69    't f_content'(i
|   3216: 64 20 49 4e 54 45 47 45 52 20 50 52 49 4d 41 52   d INTEGER PRIMAR
|   3232: 59 20 4b 45 59 2c 20 63 30 2c 20 63 31 2c 20 63   Y KEY, c0, c1, c
|   3248: 32 29 6c 09 07 17 1b 1b 01 81 2f 74 61 62 6c 65   2)l......./table
|   3264: 74 20 66 5f 69 64 78 74 20 66 5f 69 64 78 08 43   t f_idxt f_idx.C
|   3280: 52 45 41 54 45 20 54 41 42 4c 45 20 27 74 20 66   REATE TABLE 't f
|   3296: 5f 69 64 78 27 28 73 65 67 69 64 2c 20 74 65 72   _idx'(segid, ter
|   3312: 6d 2c 20 70 67 6e 6f 2c 20 50 52 49 4d 41 52 59   m, pgno, PRIMARY
|   3328: 20 4b 45 59 28 73 65 67 69 64 2c 20 74 65 72 6d    KEY(segid, term
|   3344: 29 29 20 57 49 54 48 4f 55 54 20 52 4f 57 49 44   )) WITHOUT ROWID
|   3360: 58 08 07 17 1d 1d 01 81 03 74 61 62 6c 65 74 20   X........tablet 
|   3376: 66 5f 64 61 74 61 74 20 66 5f 64 61 74 61 07 43   f_datat f_data.C
|   3392: 52 45 41 54 45 20 54 41 42 4c 45 20 27 74 20 66   REATE TABLE 't f
|   3408: 5f 64 61 74 61 27 28 69 64 20 49 4e 54 45 47 45   _data'(id INTEGE
|   3424: 52 20 50 52 49 4d 41 52 59 20 4b 45 59 2c 20 62   R PRIMARY KEY, b
|   3440: 6c 6f 63 6b 20 42 4c 4f 42 29 4d 07 07 17 13 13   lock BLOB)M.....
|   3456: 08 81 03 74 61 62 6c 65 74 20 66 74 20 66 43 52   ...tablet ft fCR
|   3472: 45 41 54 45 20 56 49 52 54 55 41 4c 20 54 41 42   EATE VIRTUAL TAB
|   3488: 4c 45 20 22 74 20 66 22 20 55 53 49 4e 47 20 66   LE .t f. USING f
|   3504: 74 73 35 28 61 2c 20 62 2c 20 63 2c 20 64 65 74   ts5(a, b, c, det
|   3520: 61 69 6c 3d 66 75 6c 6c 29 59 06 06 17 21 21 01   ail=full)Y...!!.
|   3536: 7f 74 61 62 6c 65 74 20 63 5f 63 6f 6e 66 69 67   .tablet c_config
|   3552: 74 20 63 5f 63 6f 6e 66 69 67 06 43 52 45 41 54   t c_config.CREAT
|   3568: 45 20 54 41 42 4c 45 20 27 74 20 63 5f 63 6f 6e   E TABLE 't c_con
|   3584: 66 69 67 27 28 6b 20 50 52 49 4d 41 52 59 20 4b   fig'(k PRIMARY K
|   3600: 45 59 2c 20 76 29 20 57 49 54 48 4f 55 54 20 52   EY, v) WITHOUT R
|   3616: 4f 57 49 44 5e 05 07 17 23 23 01 81 03 74 61 62   OWID^...##...tab
|   3632: 6c 65 74 20 63 5f 64 6f 63 73 69 7a 65 74 20 63   let c_docsizet c
|   3648: 5f 64 6f 63 73 69 7a 65 05 43 52 45 41 54 45 20   _docsize.CREATE 
|   3664: 54 41 42 4c 45 20 27 74 20 63 5f 64 6f 63 73 69   TABLE 't c_docsi
|   3680: 7a 65 27 28 69 64 20 49 4e 54 45 47 45 52 20 50   ze'(id INTEGER P
|   3696: 52 49 4d 41 52 59 20 4b 45 59 2c 20 73 7a 20 42   RIMARY KEY, sz B
|   3712: 4c 4f 42 29 61 04 07 17 23 23 01 81 09 74 61 62   LOB)a...##...tab
|   3728: 6c 65 74 20 63 5f 63 6f 6e 74 65 6e 74 74 20 63   let c_contentt c
|   3744: 5f 63 6f 6e 74 65 6e 74 04 43 52 45 41 54 45 20   _content.CREATE 
|   3760: 54 41 42 4c 45 20 27 74 20 63 5f 63 6f 6e 74 65   TABLE 't c_conte
|   3776: 6e 74 27 28 69 64 20 49 4e 54 45 47 45 52 20 50   nt'(id INTEGER P
|   3792: 52 49 4d 41 52 59 20 4b 45 59 2c 20 63 30 2c 20   RIMARY KEY, c0, 
|   3808: 63 31 2c 20 63 32 29 6c 03 07 17 1b 1b 01 81 2f   c1, c2)l......./
|   3824: 74 61 62 6c 65 74 20 63 5f 69 64 78 74 20 63 5f   tablet c_idxt c_
|   3840: 69 64 78 03 43 52 45 41 54 45 20 54 41 42 4c 45   idx.CREATE TABLE
|   3856: 20 27 74 20 63 5f 69 64 78 27 28 73 65 67 69 64    't c_idx'(segid
|   3872: 2c 20 74 65 72 6d 2c 20 70 67 6e 6f 2c 20 50 52   , term, pgno, PR
|   3888: 49 4d 41 52 59 20 4b 45 59 28 73 65 67 69 64 2c   IMARY KEY(segid,
|   3904: 20 74 65 72 6d 29 29 20 57 49 54 48 4f 55 54 20    term)) WITHOUT 
|   3920: 52 4f 57 49 44 58 02 07 17 1d 1d 01 81 03 74 61   ROWIDX........ta
|   3936: 62 6c 65 74 20 63 5f 64 61 74 61 74 20 63 5f 64   blet c_datat c_d
|   3952: 61 74 61 02 43 52 45 41 54 45 20 54 41 42 4c 45   ata.CREATE TABLE
|   3968: 20 27 74 20 63 5f 64 61 74 61 27 28 69 64 20 49    't c_data'(id I
|   3984: 4e 54 45 47 45 52 20 50 52 49 4d 41 52 59 20 4b   NTEGER PRIMARY K
|   4000: 45 59 2c 20 62 6c 6f 63 6b 20 42 4c 4f 42 29 4f   EY, block BLOB)O
|   4016: 01 07 17 13 13 08 81 07 74 61 62 6c 65 74 20 63   ........tablet c
|   4032: 74 20 63 43 52 45 41 54 45 20 56 49 52 54 55 41   t cCREATE VIRTUA
|   4048: 4c 20 54 41 42 4c 45 20 22 74 20 63 22 20 55 53   L TABLE .t c. US
|   4064: 49 4e 47 20 66 74 73 35 28 61 2c 20 62 2c 20 63   ING fts5(a, b, c
|   4080: 2c 20 64 65 74 61 69 6c 3d 63 6f 6c 75 6d 6e 29   , detail=column)
| page 2 offset 4096
|      0: 0d 00 00 00 03 0f 58 00 0f e6 0f ef 0f 58 00 00   ......X......X..
|   3920: 00 00 00 00 00 00 00 00 81 06 84 80 80 80 80 01   ................
|   3936: 04 00 82 10 00 00 00 70 02 30 31 01 02 02 02 01   .......p.01.....
|   3952: 30 03 02 02 02 01 31 03 02 02 02 01 32 03 02 02   0.....1.....2...
|   3968: 02 01 33 03 02 03 02 01 34 03 02 03 02 01 35 03   ..3.....4.....5.
|   3984: 02 03 02 01 36 03 02 04 02 01 37 03 02 04 02 01   ....6.....7.....
|   4000: 38 03 02 04 01 01 32 01 02 03 01 01 33 01 02 04   8.....2.....3...
|   4016: 01 01 34 02 02 02 01 01 35 02 02 02 01 01 36 02   ..4.....5.....6.
|   4032: 02 03 01 01 37 02 02 03 01 01 38 02 02 04 01 01   ....7.....8.....
|   4048: 39 02 02 04 04 06 06 06 06 06 06 06 06 06 06 06   9...............
|   4064: 06 06 06 06 06 06 07 01 03 00 14 03 06 06 06 0f   ................
|   4080: 0a 03 00 24 00 00 00 00 01 01 01 00 01 01 01 01   ...$............
| page 3 offset 8192
|      0: 0a 00 00 00 01 0f fa 00 0f fa 00 00 00 00 00 00   ................
|   4080: 00 00 00 00 00 00 00 00 00 00 05 04 09 0c 01 02   ................
| page 4 offset 12288
|      0: 0d 00 00 00 03 0f c7 00 0f f6 0f e6 0f c7 00 00   ................
|   4032: 00 00 00 00 00 00 00 1d 03 05 00 1d 1d 1d 31 30   ..............10
|   4048: 20 31 31 20 31 32 31 33 20 31 34 20 31 35 31 36    11 1213 14 1516
|   4064: 20 31 37 20 31 38 0e 02 05 00 13 13 13 34 20 35    17 18.......4 5
|   4080: 36 20 37 38 20 39 08 01 05 00 0f 0f 0f 31 32 33   6 78 9.......123
| page 5 offset 16384
|      0: 0d 00 00 00 03 0f e8 00 0f f8 0f f0 0f e8 00 00   ................
|   4064: 00 00 00 00 00 00 00 00 06 03 03 00 12 03 03 03   ................
|   4080: 06 02 03 00 12 02 02 02 06 01 03 00 12 01 01 01   ................
| page 6 offset 20480
|      0: 0a 00 00 00 01 0f f4 00 0f f4 00 00 00 00 00 00   ................
|   4080: 00 00 00 00 0b 03 1b 01 76 65 72 73 69 6f 6e 04   ........version.
| page 7 offset 24576
|      0: 0d 00 00 00 03 0f 40 00 0f e6 0f ef 0f 40 00 00   ......@......@..
|   3904: 81 1e 84 80 80 80 80 01 04 00 82 40 00 00 00 88   ...........@....
|   3920: 02 30 31 01 02 02 02 01 30 03 02 02 02 01 31 03   .01.....0.....1.
|   3936: 02 03 02 01 32 03 02 04 02 01 33 03 06 01 01 02   ....2.....3.....
|   3952: 02 01 34 03 06 01 01 03 02 01 35 03 06 01 01 04   ..4.......5.....
|   3968: 02 01 36 03 06 01 02 02 02 01 37 03 06 01 02 03   ..6.......7.....
|   3984: 02 01 38 03 06 01 02 04 01 01 32 01 06 01 01 02   ..8.......2.....
|   4000: 01 01 33 01 06 01 02 02 01 01 34 02 02 02 01 01   ..3.......4.....
|   4016: 35 02 02 03 01 01 36 02 06 01 01 02 01 01 37 02   5.....6.......7.
|   4032: 06 01 01 03 01 01 38 02 06 01 02 02 01 01 39 02   ......8.......9.
|   4048: 06 01 02 03 04 06 06 06 06 08 08 08 08 08 08 08   ................
|   4064: 08 06 06 08 08 08 07 01 03 00 14 03 06 06 06 0f   ................
|   4080: 0a 03 00 24 00 00 00 00 01 01 01 00 01 01 01 01   ...$............
| page 8 offset 28672
|      0: 0a 00 00 00 01 0f fa 00 0f fa 00 00 00 00 00 00   ................
|   4080: 00 00 00 00 00 00 00 00 00 00 05 04 09 0c 01 02   ................
| page 9 offset 32768
|      0: 0d 00 00 00 03 0f c7 00 0f f6 0f e6 0f c7 00 00   ................
|   4032: 00 00 00 00 00 00 00 1d 03 05 00 1d 1d 1d 31 30   ..............10
|   4048: 20 31 31 20 31 32 31 33 20 31 34 20 31 35 31 36    11 1213 14 1516
|   4064: 20 31 37 20 31 38 0e 02 05 00 13 13 13 34 20 35    17 18.......4 5
|   4080: 36 20 37 38 20 39 08 01 05 00 0f 0f 0f 31 32 33   6 78 9.......123
| page 10 offset 36864
|      0: 0d 00 00 00 03 0f e8 00 0f f8 0f f0 0f e8 00 00   ................
|   4064: 00 00 00 00 00 00 00 00 06 03 03 00 12 03 03 03   ................
|   4080: 06 02 03 00 12 02 02 02 06 01 03 00 12 01 01 01   ................
| page 11 offset 40960
|      0: 0a 00 00 00 01 0f f4 00 0f f4 00 00 00 00 00 00   ................
|   4080: 00 00 00 00 0b 03 1b 01 76 65 72 73 69 6f 6e 04   ........version.
| end fts5007.txt.db
.testctrl prng_seed 1 db
.testctrl internal_functions
SELECT snippet("t c", -1, '.', '..', '[', ']'), 
       highlight("t c", 2, '[', ']') 
FROM "t c" ('13 NEAR 15');
SELECT * FROM "t f" ('b : 1*') LEFT JOIN "t c" ON ("t c".rowid = "t f".rowid);
SELECT * FROM t3;
SELECT * FROM t4;
SELECT fts5_decode(id, block) FROM "t c_data";

