.open --hexdb
| size 8192 pagesize 4096 filename func005.txt.db
| page 1 offset 0
|      0: 53 51 4c 69 74 65 20 66 6f 72 6d 61 74 20 33 00   SQLite format 3.
|     16: 10 00 01 01 00 40 20 20 00 00 00 00 00 00 00 02   .....@  ........
|     32: 00 00 00 00 00 00 00 00 00 00 00 02 00 00 00 04   ................
|     48: 00 00 00 00 00 00 00 00 00 00 00 01 00 00 00 00   ................
|     96: 00 00 00 00 0d 00 00 00 01 0f ce 00 0f ce 00 00   ................
|   4032: 00 00 00 00 00 00 00 00 00 00 00 00 00 00 30 01   ..............0.
|   4048: 06 17 11 11 01 4d 74 61 62 6c 65 74 31 74 31 02   .....Mtablet1t1.
|   4064: 43 52 45 41 54 45 20 54 41 42 4c 45 20 74 31 28   CREATE TABLE t1(
|   4080: 61 20 64 6f 75 62 6c 65 2c 20 62 20 69 6e 74 29   a double, b int)
| page 2 offset 4096
|      0: 0d 00 00 00 3c 0c 6e 00 0f fb 0f f6 0f e1 0f cc   ....<.n.........
|     16: 0f b9 0f a8 0f 93 0f 7e 0f 75 0f 6c 0f 63 0f 5a   .......~.u.l.c.Z
|     32: 0f 45 0f 30 0f 1b 0f 16 0f 10 0e fb 0e e6 0e da   .E.0............
|     48: 0e cf 0e ba 0e a5 0e 9c 0e 93 0e 8a 0e 81 0e 6c   ...............l
|     64: 0e 57 0e 42 0e 3d 0e 30 0e 1b 0e 06 0d fa 0d ef   .W.B.=.0........
|     80: 0d da 0d c5 0d bd 0d ae 0d a6 0d 97 0d 82 0d 6d   ...............m
|     96: 0d 58 0d 53 0d 46 0d 31 0d 1c 0d 10 0d 05 0c f0   .X.S.F.1........
|    112: 0c db 0c d3 0c c4 0c bc 0c ad 0c 98 0c 83 0c 6e   ...............n
|   3168: 00 00 00 00 00 00 00 00 00 00 00 00 00 00 13 3c   ...............<
|   3184: 03 07 07 bf c4 1b 2f 76 9c f0 e0 3f f9 21 fb 54   ....../v...?.!.T
|   3200: 44 2d 18 13 3b 03 07 07 bf e4 1b 2f 76 9c f0 e0   D-..;....../v...
|   3216: 40 19 21 fb 54 44 2d 18 13 3a 03 07 07 bf d4 1b   @.!.TD-..:......
|   3232: 2f 76 9c f0 e0 40 09 21 fb 54 44 2d 18 0d 39 03   /v...@.!.TD-..9.
|   3248: 07 02 c0 31 e6 66 66 66 66 67 00 b3 06 38 03 01   ...1.ffffg...8..
|   3264: 02 ee 00 b4 0d 37 03 07 02 c0 41 f3 33 33 33 33   .....7....A.3333
|   3280: 33 01 67 06 36 03 01 02 dc 01 68 13 35 03 07 07   3.g.6.....h.5...
|   3296: 7f f0 00 00 00 00 00 00 ff f0 00 00 00 00 00 00   ................
|   3312: 13 34 03 07 07 ff f0 00 00 00 00 00 00 7f f0 00   .4..............
|   3328: 00 00 00 00 00 09 33 03 08 18 00 01 02 03 04 05   ......3.........
|   3344: 0a 32 03 08 1b 61 62 63 64 65 66 67 13 31 03 07   .2...abcdefg.1..
|   3360: 07 ca 1b 5e 7e 08 ca 3a 90 4a 51 1b 0e c5 7e 64   ...^~..:.JQ...~d
|   3376: 9a 13 30 03 07 07 b5 57 f1 fb 6f 10 93 4c 35 8d   ..0....W..o..L5.
|   3392: ee 7a 4a d4 b8 1f 0b 2f 03 07 09 bf b9 99 99 99   .zJ..../........
|   3408: 99 99 9a 03 2e 03 08 08 13 2d 03 07 07 3f c4 1b   .........-...?..
|   3424: 2f 76 9c f0 e0 3f f9 21 fb 54 44 2d 18 13 2c 03   /v...?.!.TD-..,.
|   3440: 07 07 3f e4 1b 2f 76 9c f0 e0 40 19 21 fb 54 44   ..?../v...@.!.TD
|   3456: 2d 18 13 2b 03 07 07 3f d4 1b 2f 76 9c f0 e0 40   -..+...?../v...@
|   3472: 09 21 fb 54 44 2d 18 0d 2a 03 07 02 40 31 e6 66   .!.TD-..*...@1.f
|   3488: 66 66 66 67 00 b3 06 29 03 01 02 12 00 b4 0d 28   fffg...).......(
|   3504: 03 07 02 40 41 f3 33 33 33 33 33 01 67 06 27 03   ...@A.33333.g.'.
|   3520: 01 02 24 01 68 13 26 03 07 07 ff f0 00 00 00 00   ..$.h.&.........
|   3536: 00 00 ff f0 00 00 00 00 00 00 13 25 03 07 07 7f   ...........%....
|   3552: f0 00 00 00 00 00 00 7f f0 00 00 00 00 00 00 09   ................
|   3568: 24 03 08 18 00 01 02 03 04 05 0a 23 03 08 1b 61   $..........#...a
|   3584: 62 63 64 65 66 67 13 22 03 07 07 4a 1b 5e 7e 08   bcdefg.....J.^~.
|   3600: ca 3a 90 4a 51 1b 0e c5 7e 64 9a 13 21 03 07 07   .:.JQ...~d..!...
|   3616: 35 57 f1 fb 6f 10 93 4c 35 8d ee 7a 4a d4 b8 1f   5W..o..L5..zJ...
|   3632: 0b 20 03 07 09 3f b9 99 99 99 99 99 9a 03 1f 03   . ...?..........
|   3648: 08 08 13 1e 03 07 07 bf f9 21 fb 54 44 2d 18 3f   .........!.TD-.?
|   3664: f9 21 fb 54 44 2d 18 13 1d 03 07 07 c0 19 21 fb   .!.TD-........!.
|   3680: 54 44 2d 18 40 19 21 fb 54 44 2d 18 13 1c 03 07   TD-.@.!.TD-.....
|   3696: 07 c0 09 21 fb 54 44 2d 18 40 09 21 fb 54 44 2d   ...!.TD-.@.!.TD-
|   3712: 18 07 1b 03 02 02 ff 4d 00 b3 07 1a 03 02 02 ff   .......M........
|   3728: 4c 00 b4 07 19 03 02 02 fe 99 01 67 07 18 03 02   L..........g....
|   3744: 02 fe 98 01 68 13 17 03 07 07 7f f0 00 00 00 00   ....h...........
|   3760: 00 00 ff f0 00 00 00 00 00 00 13 16 03 07 07 ff   ................
|   3776: f0 00 00 00 00 00 00 7f f0 00 00 00 00 00 00 09   ................
|   3792: 15 03 08 18 00 01 02 03 04 05 0a 14 03 08 1b 61   ...............a
|   3808: 62 63 64 65 66 67 13 13 03 07 07 ca 51 1b 0e c5   bcdefg......Q...
|   3824: 7e 64 9a 4a 51 1b 0e c5 7e 64 9a 13 12 03 07 07   ~d.JQ...~d......
|   3840: b5 8d ee 7a 4a d4 b8 1f 35 8d ee 7a 4a d4 b8 1f   ...zJ...5..zJ...
|   3856: 04 11 03 01 09 ff 03 10 03 08 08 13 0f 03 07 07   ................
|   3872: 3f f9 21 fb 54 44 2d 18 3f f9 21 fb 54 44 2d 18   ?.!.TD-.?.!.TD-.
|   3888: 13 0e 03 07 07 40 19 21 fb 54 44 2d 18 40 19 21   .....@.!.TD-.@.!
|   3904: fb 54 44 2d 18 13 0d 03 07 07 40 09 21 fb 54 44   .TD-......@.!.TD
|   3920: 2d 18 40 09 21 fb 54 44 2d 18 07 0c 03 02 02 00   -.@.!.TD-.......
|   3936: b3 00 b3 07 0b 03 02 02 00 b4 00 b4 07 0a 03 02   ................
|   3952: 02 01 67 01 67 07 09 03 02 02 01 68 01 68 13 08   ..g.g......h.h..
|   3968: 03 07 07 ff f0 00 00 00 00 00 00 ff f0 00 00 00   ................
|   3984: 00 00 00 13 07 03 07 07 7f f0 00 00 00 00 00 00   ................
|   4000: 7f f0 00 00 00 00 00 00 0f 06 03 18 18 00 01 02   ................
|   4016: 03 04 05 00 01 02 03 04 05 11 05 03 1b 1b 61 62   ..............ab
|   4032: 63 64 65 66 67 61 62 63 64 65 66 67 13 04 03 07   cdefgabcdefg....
|   4048: 07 4a 51 1b 0e c5 7e 64 9a 4a 51 1b 0e c5 7e 64   .JQ...~d.JQ...~d
|   4064: 9a 13 03 03 07 07 35 8d ee 7a 4a d4 b8 1f 35 8d   ......5..zJ...5.
|   4080: ee 7a 4a d4 b8 1f 03 02 03 09 09 03 01 03 08 08   .zJ.............
| end func005.txt.db
.testctrl prng_seed 1 db
.testctrl internal_functions
SELECT acos(a), acosh(a), asin(a), asinh(a), atan(a), atan2(b,a),
       ceil(a), ceiling(a), cos(a), cosh(a), degrees(a), exp(a),
       floor(a), ln(a), log(b,a), log(a), log10(a), log2(a),
       mod(a,b), pi(), pow(a,b), power(a,b), radians(a), sin(a),
       sinh(a), sqrt(a), tan(a), tanh(a), trunc(a) FROM t1;

