.open --hexdb
| size 16384 pagesize 4096 filename gencol003.txt.db
| page 1 offset 0
|      0: 53 51 4c 69 74 65 20 66 6f 72 6d 61 74 20 33 00   SQLite format 3.
|     16: 10 00 01 01 00 40 20 20 00 00 00 00 00 00 00 04   .....@  ........
|     32: 00 00 00 00 00 00 00 00 00 00 00 03 00 00 00 04   ................
|     48: 00 00 00 00 00 00 00 00 00 00 00 01 00 00 00 00   ................
|     96: 00 00 00 00 0d 00 00 00 03 0f 0e 00 0f b0 0f 63   ...............c
|    112: 0f 0e 00 00 00 00 00 00 00 00 00 00 00 00 00 00   ................
|   3840: 00 00 00 00 00 00 00 00 00 00 00 00 00 00 53 03   ..............S.
|   3856: 07 17 11 11 01 81 11 74 61 62 6c 65 74 33 74 33   .......tablet3t3
|   3872: 04 43 52 45 41 54 45 20 54 41 42 4c 45 20 74 33   .CREATE TABLE t3
|   3888: 28 61 2c 20 62 20 41 53 20 28 61 2a 32 29 2c 20   (a, b AS (a*2), 
|   3904: 63 20 41 53 20 28 62 2a 32 29 2c 20 64 20 41 53   c AS (b*2), d AS
|   3920: 20 28 63 2a 32 29 2c 20 65 20 41 53 20 28 64 2a    (c*2), e AS (d*
|   3936: 32 29 29 4b 02 07 17 11 11 01 81 01 74 61 62 6c   2))K........tabl
|   3952: 65 74 32 74 32 03 43 52 45 41 54 45 20 54 41 42   et2t2.CREATE TAB
|   3968: 4c 45 20 74 32 28 61 2c 20 62 20 47 45 4e 45 52   LE t2(a, b GENER
|   3984: 41 54 45 44 20 41 4c 57 41 59 53 20 41 53 20 28   ATED ALWAYS AS (
|   4000: 61 2d 63 29 20 56 49 52 54 55 41 4c 2c 20 63 29   a-c) VIRTUAL, c)
|   4016: 4e 01 07 17 11 11 01 81 07 74 61 62 6c 65 74 31   N........tablet1
|   4032: 74 31 02 43 52 45 41 54 45 20 54 41 42 4c 45 20   t1.CREATE TABLE 
|   4048: 74 31 28 61 2c 20 62 2c 20 63 20 47 45 4e 45 52   t1(a, b, c GENER
|   4064: 41 54 45 44 20 41 4c 57 41 59 53 20 41 53 20 28   ATED ALWAYS AS (
|   4080: 61 2b 31 37 2d 62 29 20 56 49 52 54 55 41 4c 29   a+17-b) VIRTUAL)
| page 2 offset 4096
|      0: 0d 00 00 00 03 0f ec 00 0f fa 0f f3 0f ec 00 00   ................
|   4064: 00 00 00 00 00 00 00 00 00 00 00 00 05 03 03 01   ................
|   4080: 01 10 20 05 02 03 01 01 04 08 04 01 03 09 01 02   .. .............
| page 3 offset 8192
|      0: 0d 00 00 00 01 0f f9 00 0f f9 00 00 00 00 00 00   ................
|   4080: 00 00 00 00 00 00 00 00 00 05 01 03 01 01 32 3c   ..............2<
| page 4 offset 12288
|      0: 0d 00 00 00 03 0f f2 00 0f fc 0f f7 0f f2 00 00   ................
|   4080: 00 00 03 03 02 01 03 03 02 02 01 02 02 01 02 09   ................
| end gencol003.txt.db
.testctrl prng_seed 1 db
.testctrl internal_functions
UPDATE t1 SET b=64 WHERE c=1;
SELECT *, '|' FROM t1 ORDER BY c;
CREATE INDEX t1c ON t1(c);
SELECT a FROM t1 WHERE c=16;
INSERT INTO t2(a,b) VALUES(5,6);
ALTER TABLE t2 ADD COLUMN d GENERATED ALWAYS AS (a*c) VIRTUAL;
SELECT * FROM t3;
SELECT * FROM t2;

