.open --hexdb
| size 8192 pagesize 4096 filename gencol005.txt.db
| page 1 offset 0
|      0: 53 51 4c 69 74 65 20 66 6f 72 6d 61 74 20 33 00   SQLite format 3.
|     16: 10 00 01 01 00 40 20 20 00 00 00 00 00 00 00 02   .....@  ........
|     32: 00 00 00 00 00 00 00 00 00 00 00 01 00 00 00 04   ................
|     48: 00 00 00 00 00 00 00 00 00 00 00 01 00 00 00 00   ................
|     96: 00 00 00 00 0d 00 00 00 01 0f 14 00 0f 14 00 00   ................
|   3856: 00 00 00 00 81 69 01 07 17 11 11 01 83 3d 74 61   .....i.......=ta
|   3872: 62 6c 65 74 31 74 31 02 43 52 45 41 54 45 20 54   blet1t1.CREATE T
|   3888: 41 42 4c 45 20 74 31 28 0a 20 20 78 2c 0a 20 20   ABLE t1(.  x,.  
|   3904: 61 20 49 4e 54 20 41 53 20 28 78 29 20 56 49 52   a INT AS (x) VIR
|   3920: 54 55 41 4c 2c 0a 20 20 62 20 49 4e 54 20 41 53   TUAL,.  b INT AS
|   3936: 20 28 78 29 20 53 54 4f 52 45 44 2c 0a 20 20 63    (x) STORED,.  c
|   3952: 20 54 45 58 54 20 41 53 20 28 78 29 20 56 49 52    TEXT AS (x) VIR
|   3968: 54 55 41 4c 2c 0a 20 20 64 20 54 45 58 54 20 41   TUAL,.  d TEXT A
|   3984: 53 20 28 78 29 20 53 54 4f 52 45 44 2c 0a 20 20   S (x) STORED,.  
|   4000: 65 20 52 45 41 4c 20 41 53 20 28 78 29 20 56 49   e REAL AS (x) VI
|   4016: 52 54 55 41 4c 2c 0a 20 20 66 20 52 45 41 4c 20   RTUAL,.  f REAL 
|   4032: 41 53 20 28 78 29 20 53 54 4f 52 45 44 2c 0a 20   AS (x) STORED,. 
|   4048: 20 67 20 42 4c 4f 42 20 41 53 20 28 78 29 20 56    g BLOB AS (x) V
|   4064: 49 52 54 55 41 4c 2c 0a 20 20 68 20 42 4c 4f 42   IRTUAL,.  h BLOB
|   4080: 20 41 53 20 28 78 29 20 53 54 4f 52 45 44 0a 29    AS (x) STORED.)
| page 2 offset 4096
|      0: 0d 00 00 00 04 0f d3 00 0f f5 0f e8 0f db 0f d3   ................
|   4048: 00 00 00 06 04 06 00 00 00 00 00 0b 03 06 0e 0e   ................
|   4064: 0e 0e 0e 33 33 33 33 33 0b 02 06 01 01 0f 01 01   ...33333........
|   4080: 02 02 32 02 02 09 01 06 0f 09 0f 09 0f 31 31 31   ..2..........111
| end gencol005.txt.db
.testctrl prng_seed 1 db
.testctrl internal_functions
SELECT quote(a), quote(b), quote(c) FROM t1 ORDER BY rowid;

