.open --hexdb
| size 16384 pagesize 4096 filename gencol022.txt.db
| page 1 offset 0
|      0: 53 51 4c 69 74 65 20 66 6f 72 6d 61 74 20 33 00   SQLite format 3.
|     16: 10 00 01 01 00 40 20 20 00 00 00 00 00 00 00 04   .....@  ........
|     32: 00 00 00 00 00 00 00 00 00 00 00 01 00 00 00 04   ................
|     48: 00 00 00 00 00 00 00 00 00 00 00 01 00 00 00 00   ................
|     96: 00 00 00 00 0d 0f f8 00 03 0f 67 00 0f 67 0f d3   ..........g..g..
|    112: 0f ae 00 00 00 00 00 00 00 00 00 00 00 00 00 00   ................
|   3936: 00 00 00 00 00 00 00 45 01 06 17 11 11 01 77 74   .......E......wt
|   3952: 61 62 6c 65 74 30 74 30 02 43 52 45 41 54 45 20   ablet0t0.CREATE 
|   3968: 54 41 42 4c 45 20 74 30 28 61 20 50 52 49 4d 41   TABLE t0(a PRIMA
|   3984: 52 59 20 4b 45 59 2c 62 20 54 45 58 54 20 41 53   RY KEY,b TEXT AS
|   4000: 20 28 27 32 27 29 20 55 4e 49 51 55 45 29 23 03    ('2') UNIQUE)#.
|   4016: 06 17 37 11 01 00 69 6e 64 65 78 73 71 6c 69 74   ..7...indexsqlit
|   4032: 65 5f 61 75 74 6f 69 6e 64 65 78 5f 74 30 5f 32   e_autoindex_t0_2
|   4048: 74 30 04 23 02 06 17 37 11 01 00 69 6e 64 65 78   t0.#...7...index
|   4064: 73 71 6c 69 74 65 5f 61 75 74 6f 69 6e 64 65 78   sqlite_autoindex
|   4080: 5f 74 30 5f 31 74 30 03 00 00 00 08 00 00 00 00   _t0_1t0.........
| page 2 offset 4096
|      0: 0d 00 00 00 01 0f fb 00 0f fb 00 00 00 00 00 00   ................
|   4080: 00 00 00 00 00 00 00 00 00 00 00 03 01 02 01 02   ................
| page 3 offset 8192
|      0: 0a 00 00 00 01 0f fb 00 0f fb 00 00 00 00 00 00   ................
|   4080: 00 00 00 00 00 00 00 00 00 00 00 04 03 01 09 02   ................
| page 4 offset 12288
|      0: 0a 00 00 00 01 0f fb 00 0f fb 00 00 00 00 00 00   ................
|   4080: 00 00 00 00 00 00 00 00 00 00 00 04 03 0f 09 32   ...............2
| end gencol022.txt.db
.testctrl prng_seed 1 db
.testctrl internal_functions
SELECT * FROM t0 AS t1 JOIN t0 AS t2 WHERE t1.b='2' AND (t2.a=2 OR (t1.b LIKE '2*' AND t2.a=t1.b));

