.open --hexdb
| size 12288 pagesize 4096 filename gencol004.txt.db
| page 1 offset 0
|      0: 53 51 4c 69 74 65 20 66 6f 72 6d 61 74 20 33 00   SQLite format 3.
|     16: 10 00 01 01 00 40 20 20 00 00 00 00 00 00 00 03   .....@  ........
|     32: 00 00 00 00 00 00 00 00 00 00 00 02 00 00 00 04   ................
|     48: 00 00 00 00 00 00 00 00 00 00 00 01 00 00 00 00   ................
|     96: 00 00 00 00 0d 00 00 00 02 0f 79 00 0f c0 0f 79   ..........y....y
|   3952: 00 00 00 00 00 00 00 00 00 45 02 06 17 11 11 01   .........E......
|   3968: 77 74 61 62 6c 65 74 32 74 32 03 43 52 45 41 54   wtablet2t2.CREAT
|   3984: 45 20 54 41 42 4c 45 20 74 32 28 61 20 41 53 20   E TABLE t2(a AS 
|   4000: 28 62 2a 32 29 20 53 54 4f 52 45 44 20 43 48 45   (b*2) STORED CHE
|   4016: 43 4b 28 61 3c 32 30 29 2c 20 62 20 49 4e 54 29   CK(a<20), b INT)
|   4032: 3e 01 06 17 11 11 01 69 74 61 62 6c 65 74 31 74   >......itablet1t
|   4048: 31 02 43 52 45 41 54 45 20 54 41 42 4c 45 20 74   1.CREATE TABLE t
|   4064: 31 28 61 20 41 53 20 28 62 2a 32 29 20 43 48 45   1(a AS (b*2) CHE
|   4080: 43 4b 28 61 3c 32 30 29 2c 20 62 20 49 4e 54 29   CK(a<20), b INT)
| page 2 offset 4096
|      0: 0d 00 00 00 02 0f f7 00 0f fc 0f f7 00 00 00 00   ................
|   4080: 00 00 00 00 00 00 00 03 02 02 01 09 02 01 02 09   ................
| page 3 offset 8192
|      0: 0d 00 00 00 02 0f f3 00 0f fa 0f f3 00 00 00 00   ................
|   4080: 00 00 00 05 02 03 01 01 12 09 04 01 03 01 09 02   ................
| end gencol004.txt.db
.testctrl prng_seed 1 db
.testctrl internal_functions
SELECT *, '|' FROM t1;
INSERT INTO t1 VALUES(10);
UPDATE t1 SET b=b+1;
SELECT *, '|' FROM t2;
INSERT INTO t2 VALUES(10);
UPDATE t2 SET b=b+1;

