.open --hexdb
| size 12288 pagesize 4096 filename gencol021.txt.db
| page 1 offset 0
|      0: 53 51 4c 69 74 65 20 66 6f 72 6d 61 74 20 33 00   SQLite format 3.
|     16: 10 00 01 01 00 40 20 20 00 00 00 00 00 00 00 03   .....@  ........
|     32: 00 00 00 00 00 00 00 00 00 00 00 01 00 00 00 04   ................
|     48: 00 00 00 00 00 00 00 00 00 00 00 01 00 00 00 00   ................
|     96: 00 00 00 00 0d 0f f8 00 02 0f 84 00 0f 84 0f d3   ................
|   3968: 00 00 00 00 4d 01 07 17 11 11 01 81 05 74 61 62   ....M........tab
|   3984: 6c 65 74 30 74 30 02 43 52 45 41 54 45 20 54 41   let0t0.CREATE TA
|   4000: 42 4c 45 20 74 30 28 63 30 20 41 53 28 31 20 3e   BLE t0(c0 AS(1 >
|   4016: 3d 20 31 29 2c 20 63 31 20 55 4e 49 51 55 45 20   = 1), c1 UNIQUE 
|   4032: 41 53 28 54 59 50 45 4f 46 28 63 30 29 29 2c 20   AS(TYPEOF(c0)), 
|   4048: 63 32 29 23 02 06 17 37 11 01 00 69 6e 64 65 78   c2)#...7...index
|   4064: 73 71 6c 69 74 65 5f 61 75 74 6f 69 6e 64 65 78   sqlite_autoindex
|   4080: 5f 74 30 5f 31 74 30 03 00 00 00 08 00 00 00 00   _t0_1t0.........
| page 2 offset 4096
|      0: 0d 00 00 00 01 0f fc 00 0f fc 00 00 00 00 00 00   ................
|   4080: 00 00 00 00 00 00 00 00 00 00 00 00 02 01 02 08   ................
| page 3 offset 8192
|      0: 0a 00 00 00 01 0f f5 00 0f f5 00 00 00 00 00 00   ................
|   4080: 00 00 00 00 00 0a 03 1b 09 69 6e 74 65 67 65 72   .........integer
| end gencol021.txt.db
.testctrl prng_seed 1 db
.testctrl internal_functions
REINDEX;
SELECT * FROM t0;

