.open --hexdb
| size 24576 pagesize 4096 filename gencol002.txt.db
| page 1 offset 0
|      0: 53 51 4c 69 74 65 20 66 6f 72 6d 61 74 20 33 00   SQLite format 3.
|     16: 10 00 01 01 00 40 20 20 00 00 00 00 00 00 00 06   .....@  ........
|     32: 00 00 00 00 00 00 00 00 00 00 00 05 00 00 00 04   ................
|     48: 00 00 00 00 00 00 00 00 00 00 00 01 00 00 00 00   ................
|     96: 00 00 00 00 0d 00 00 00 05 0e 7d 00 0f c8 0f 2a   ...............*
|    112: 0e fe 0e a9 0e 7d 00 00 00 00 00 00 00 00 00 00   ................
|   3696: 00 00 00 00 00 00 00 00 00 00 00 00 00 2a 05 06   .............*..
|   3712: 17 13 11 01 3f 69 6e 64 65 78 74 33 76 74 33 06   ....?indext3vt3.
|   3728: 43 52 45 41 54 45 20 49 4e 44 45 58 20 74 33 76   CREATE INDEX t3v
|   3744: 20 4f 4e 20 74 33 28 76 29 53 04 07 17 11 11 01    ON t3(v)S......
|   3760: 81 11 74 61 62 6c 65 74 33 74 33 05 43 52 45 41   ..tablet3t3.CREA
|   3776: 54 45 20 54 41 42 4c 45 20 74 33 28 75 20 49 4e   TE TABLE t3(u IN
|   3792: 54 45 47 45 52 20 50 52 49 4d 41 52 59 20 4b 45   TEGER PRIMARY KE
|   3808: 59 2c 20 76 20 49 4e 54 45 47 45 52 20 52 45 46   Y, v INTEGER REF
|   3824: 45 52 45 4e 43 45 53 20 74 31 28 78 29 29 2a 03   ERENCES t1(x))*.
|   3840: 06 17 13 11 01 3f 69 6e 64 65 78 74 32 7a 74 32   .....?indext2zt2
|   3856: 04 43 52 45 41 54 45 20 49 4e 44 45 58 20 74 32   .CREATE INDEX t2
|   3872: 7a 20 4f 4e 20 74 32 28 7a 29 81 1b 02 07 17 11   z ON t2(z)......
|   3888: 11 01 82 21 74 61 62 6c 65 74 32 74 32 03 43 52   ...!tablet2t2.CR
|   3904: 45 41 54 45 20 54 41 42 4c 45 20 74 32 28 79 20   EATE TABLE t2(y 
|   3920: 49 4e 54 45 47 45 52 20 50 52 49 4d 41 52 59 20   INTEGER PRIMARY 
|   3936: 4b 45 59 2c 0a 20 20 20 20 20 20 20 77 20 49 4e   KEY,.       w IN
|   3952: 54 45 47 45 52 2c 0a 20 20 20 20 20 20 20 7a 20   TEGER,.       z 
|   3968: 49 4e 54 45 47 45 52 20 41 53 20 28 77 2d 31 30   INTEGER AS (w-10
|   3984: 29 0a 20 20 20 20 20 20 20 52 45 46 45 52 45 4e   ).       REFEREN
|   4000: 43 45 53 20 74 31 28 78 29 20 44 45 46 45 52 52   CES t1(x) DEFERR
|   4016: 41 42 4c 45 20 49 4e 49 54 49 41 4c 4c 59 20 44   ABLE INITIALLY D
|   4032: 45 46 45 52 52 45 44 29 36 01 06 17 11 11 01 59   EFERRED)6......Y
|   4048: 74 61 62 6c 65 74 31 74 31 02 43 52 45 41 54 45   tablet1t1.CREATE
|   4064: 20 54 41 42 4c 45 20 74 31 28 78 20 49 4e 54 45    TABLE t1(x INTE
|   4080: 47 45 52 20 50 52 49 4d 41 52 59 20 4b 45 59 29   GER PRIMARY KEY)
| page 2 offset 4096
|      0: 0d 00 00 00 05 0f ec 00 0f fc 0f f8 0f f4 0f f0   ................
|     16: 0f ec 00 00 00 00 00 00 00 00 00 00 00 00 00 00   ................
|   4064: 00 00 00 00 00 00 00 00 00 00 00 00 02 05 02 00   ................
|   4080: 02 04 02 00 02 03 02 00 02 02 02 00 02 01 02 00   ................
| page 3 offset 8192
|      0: 0d 00 00 00 02 0f f4 00 0f fa 0f f4 00 00 00 00   ................
|   4080: 00 00 00 00 04 02 03 00 01 0c 04 01 03 00 01 0b   ................
| page 4 offset 12288
|      0: 0a 00 00 00 02 0f f6 00 0f fc 0f f6 00 00 00 00   ................
|   4080: 00 00 00 00 00 00 05 03 01 01 02 02 03 03 09 09   ................
| page 5 offset 16384
|      0: 0d 00 00 00 02 0f f4 00 0f fa 0f f4 00 00 00 00   ................
|   4080: 00 00 00 00 04 04 03 00 01 04 04 03 03 00 01 03   ................
| page 6 offset 20480
|      0: 0a 00 00 00 02 0f f4 00 0f fa 0f f4 00 00 00 00   ................
|   4080: 00 00 00 00 05 03 01 01 04 04 05 03 01 01 03 03   ................
| end gencol002.txt.db
.testctrl prng_seed 1 db
.testctrl internal_functions
PRAGMA foreign_keys=ON;
PRAGMA defer_foreign_keys=ON;
BEGIN;
DELETE FROM t1 WHERE x=3;
DELETE FROM t2 WHERE y=1;
COMMIT;

