.open --hexdb
| size 16384 pagesize 4096 filename gencol001.txt.db
| page 1 offset 0
|      0: 53 51 4c 69 74 65 20 66 6f 72 6d 61 74 20 33 00   SQLite format 3.
|     16: 10 00 01 01 00 40 20 20 00 00 00 00 00 00 00 04   .....@  ........
|     32: 00 00 00 00 00 00 00 00 00 00 00 04 00 00 00 04   ................
|     48: 00 00 00 00 00 00 00 00 00 00 00 01 00 00 00 00   ................
|     96: 00 00 00 00 0d 00 00 00 03 0f 23 00 0f 7b 0f 4f   ..........#....O
|    112: 0f 23 00 00 00 00 00 00 00 00 00 00 00 00 00 00   .#..............
|   3872: 00 00 00 2a 03 06 17 13 11 01 3f 69 6e 64 65 78   ...*......?index
|   3888: 74 31 62 74 31 04 43 52 45 41 54 45 20 49 4e 44   t1bt1.CREATE IND
|   3904: 45 58 20 74 31 62 20 4f 4e 20 74 31 28 62 29 2a   EX t1b ON t1(b)*
|   3920: 02 06 17 13 11 01 3f 69 6e 64 65 78 74 31 61 74   ......?indext1at
|   3936: 31 03 43 52 45 41 54 45 20 49 4e 44 45 58 20 74   1.CREATE INDEX t
|   3952: 31 61 20 4f 4e 20 74 31 28 61 29 81 02 01 07 17   1a ON t1(a).....
|   3968: 11 11 01 81 6f 74 61 62 6c 65 74 31 74 31 02 43   ....otablet1t1.C
|   3984: 52 45 41 54 45 20 54 41 42 4c 45 20 74 31 28 61   REATE TABLE t1(a
|   4000: 20 49 4e 54 20 41 53 20 28 63 2a 31 31 29 2c 62    INT AS (c*11),b
|   4016: 20 54 45 58 54 20 41 53 20 28 73 75 62 73 74 72    TEXT AS (substr
|   4032: 28 64 2c 31 2c 33 29 29 20 53 54 4f 52 45 44 2c   (d,1,3)) STORED,
|   4048: 0a 63 20 49 4e 54 45 47 45 52 20 50 52 49 4d 41   .c INTEGER PRIMA
|   4064: 52 59 20 4b 45 59 2c 20 64 20 54 45 58 54 2c 20   RY KEY, d TEXT, 
|   4080: 43 48 45 43 4b 28 20 63 2a 61 3e 2d 35 20 29 29   CHECK( c*a>-5 ))
| page 2 offset 4096
|      0: 0d 00 00 00 06 0f 91 00 0f e7 0f cb 0f bc 0f ad   ................
|     16: 0f 9f 0f 91 00 00 00 00 00 00 00 00 00 00 00 00   ................
|   3984: 00 0c 5b 04 13 00 17 67 61 75 67 61 75 67 65 0c   ..[....gaugauge.
|   4000: 11 04 13 00 17 63 72 61 63 72 61 66 74 0d 10 04   .....cracraft...
|   4016: 13 00 19 74 75 72 74 75 72 74 6c 65 0d 00 04 13   ...turturtle....
|   4032: 00 19 77 6f 72 77 6f 72 6b 65 72 12 ff ff ff ff   ..worworker.....
|   4048: ff ff ff ff fa 04 13 00 23 75 73 65 75 73 65 66   ........#useusef
|   4064: 75 6c 2d 74 65 78 74 0f ff ff ff ff ff ff ff d9   ul-text.........
|   4080: 34 04 13 00 1d 61 72 74 61 72 74 69 66 61 63 74   4....artartifact
| page 3 offset 8192
|      0: 0a 00 00 00 06 0f d8 00 0f f7 0f f1 0f ed 0f e6   ................
|     16: 0f df 0f d8 00 00 00 00 00 00 00 00 00 00 00 00   ................
|   4048: 00 00 00 00 00 00 00 00 06 03 02 01 03 e9 5b 06   ..............[.
|   4064: 03 02 01 00 bb 11 06 03 02 01 00 b0 10 03 03 08   ................
|   4080: 08 05 03 01 01 be fa 08 03 03 02 fe 55 3c d9 34   ............U<.4
| page 4 offset 12288
|      0: 0a 00 00 00 06 0f d0 00 0f f7 0f ef 0f e7 0f df   ................
|     16: 0f d7 0f d0 00 00 00 00 00 00 00 00 00 00 00 00   ................
|   4048: 06 03 13 08 77 6f 72 07 03 13 01 75 73 65 fa 07   ....wor....use..
|   4064: 03 13 01 74 75 72 10 07 03 13 01 67 61 75 5b 07   ...tur.....gau[.
|   4080: 03 13 01 63 72 61 11 08 03 13 02 61 72 74 d9 34   ...cra.....art.4
| end gencol001.txt.db
.testctrl prng_seed 1 db
.testctrl internal_functions
SELECT * FROM t1 WHERE b='gau';
UPDATE t1 SET b=b+100;
UPDATE t1 SET c=c+100;
CREATE TABLE t4(a INT, b AS (t4.a+1));
CREATE TABLE t5(a INT, b AS (a+?));

