.open --hexdb
| size 12288 pagesize 4096 filename henry001.txt.db
| page 1 offset 0
|      0: 53 51 4c 69 74 65 20 66 6f 72 6d 61 74 20 33 00   SQLite format 3.
|     16: 10 00 01 01 00 40 20 20 00 00 00 00 00 00 00 03   .....@  ........
|     32: 00 00 00 00 00 00 00 00 00 00 00 02 00 00 00 04   ................
|     48: 00 00 00 00 00 00 00 00 00 00 00 01 00 00 00 00   ................
|     96: 00 00 00 00 0d 00 00 00 02 0f b6 00 0f dc 0f b6   ................
|   4016: 00 00 00 00 00 00 24 02 06 17 11 11 01 35 74 61   ......$......5ta
|   4032: 62 6c 65 74 32 74 32 03 43 52 45 41 54 45 20 54   blet2t2.CREATE T
|   4048: 41 42 4c 45 20 74 32 28 61 2c 62 29 22 01 06 17   ABLE t2(a,b)....
|   4064: 11 11 01 31 74 61 62 6c 65 74 31 74 31 02 43 52   ...1tablet1t1.CR
|   4080: 45 41 54 45 20 54 41 42 4c 45 20 74 31 28 78 29   EATE TABLE t1(x)
| page 2 offset 4096
|      0: 0d 00 00 00 05 0f ad 00 0f fc 0f f3 0f e7 0f e3   ................
|     16: 0f ad 00 00 00 00 00 00 00 00 00 00 00 00 00 00   ................
|   4000: 00 00 00 00 00 00 00 00 00 00 00 00 00 34 05 02   .............4..
|   4016: 70 00 00 00 00 00 00 00 00 00 00 00 00 00 00 00   p...............
|   4064: 00 00 00 02 04 02 00 0a 03 02 07 40 09 21 fb 54   ...........@.!.T
|   4080: 2f e9 38 07 02 02 17 6c 65 6d 6f 6e 02 01 02 09   /.8....lemon....
| page 3 offset 8192
|      0: 0d 00 00 00 19 0d 0d 00 0f fb 0f f1 0f e4 0f df   ................
|     16: 0f a8 0f 9e 0f 8f 0f 7d 0f 73 0f 37 0f 2a 0f 18   .........s.7.*..
|     32: 0f 03 0e f6 0e b7 0e b2 0e a8 0e 9b 0e 96 0e 5f   ..............._
|     48: 0e 28 0d ec 0d ad 0d 76 0d 0d 00 00 00 00 00 00   .(.....v........
|   3328: 00 00 00 00 00 00 00 00 00 00 00 00 00 67 19 03   .............g..
|   3344: 70 70 00 00 00 00 00 00 00 00 00 00 00 00 00 00   pp..............
|   3440: 00 00 00 00 00 00 35 18 03 70 00 00 00 00 00 00   ......5..p......
|   3488: 00 00 00 00 00 00 00 00 00 00 00 00 00 3d 17 03   .............=..
|   3504: 70 07 00 00 00 00 00 00 00 00 00 00 00 00 00 00   p...............
|   3552: 00 00 00 00 40 09 21 fb 54 2f e9 38 3a 16 03 70   ....@.!.T/.8:..p
|   3568: 17 00 00 00 00 00 00 00 00 00 00 00 00 00 00 00   ................
|   3616: 00 00 00 6c 65 6d 6f 6e 35 15 03 70 09 00 00 00   ...lemon5..p....
|   3664: 00 00 00 00 00 00 00 00 00 00 00 00 00 00 00 35   ...............5
|   3680: 14 03 00 70 00 00 00 00 00 00 00 00 00 00 00 00   ...p............
|   3728: 00 00 00 00 00 00 03 13 03 00 00 0b 12 03 00 07   ................
|   3744: 40 09 21 fb 54 2f e9 38 08 11 03 00 17 6c 65 6d   @.!.T/.8.....lem
|   3760: 6f 6e 03 10 03 00 09 3d 0f 03 07 70 40 09 21 fb   on.....=...p@.!.
|   3776: 54 2f e9 38 00 00 00 00 00 00 00 00 00 00 00 00   T/.8............
|   3824: 00 00 00 00 00 00 0b 0e 03 07 00 40 09 21 fb 54   ...........@.!.T
|   3840: 2f e9 38 13 0d 03 07 07 40 09 21 fb 54 2f e9 38   /.8.....@.!.T/.8
|   3856: 40 09 21 fb 54 2f e9 38 10 0c 03 07 17 40 09 21   @.!.T/.8.....@.!
|   3872: fb 54 2f e9 38 6c 65 6d 6f 6e 0b 0b 03 07 09 40   .T/.8lemon.....@
|   3888: 09 21 fb 54 2f e9 38 3a 0a 03 17 70 6c 65 6d 6f   .!.T/.8:...plemo
|   3904: 6e 00 00 00 00 00 00 00 00 00 00 00 00 00 00 00   n...............
|   3952: 00 00 00 08 09 03 17 00 6c 65 6d 6f 6e 10 08 03   ........lemon...
|   3968: 17 07 6c 65 6d 6f 6e 40 09 21 fb 54 2f e9 38 0d   ..lemon@.!.T/.8.
|   3984: 07 03 17 17 6c 65 6d 6f 6e 6c 65 6d 6f 6e 08 06   ....lemonlemon..
|   4000: 03 17 09 6c 65 6d 6f 6e 35 05 03 09 70 00 00 00   ...lemon5...p...
|   4048: 00 00 00 00 00 00 00 00 00 00 00 00 00 00 00 03   ................
|   4064: 04 03 09 00 0b 03 03 09 07 40 09 21 fb 54 2f e9   .........@.!.T/.
|   4080: 38 08 02 03 09 17 6c 65 6d 6f 6e 03 01 03 09 09   8.....lemon.....
| end henry001.txt.db
.testctrl prng_seed 1 db
.testctrl internal_functions
CREATE VIEW b AS SELECT(SELECT * FROM t1 JOIN t1 USING(x, x)) IN();
ALTER TABLE t1 RENAME x TO y;
CREATE VIEW c AS SELECT NULL INTERSECT SELECT NULL ORDER BY
    likelihood(NULL, (d, (SELECT c)));
ALTER TABLE t1 RENAME TO e;
SELECT b FROM t2 GROUP BY b
    HAVING(SELECT(sum(a) OVER(ORDER BY a),
                  sum(a) OVER(PARTITION BY min(DISTINCT b), b ORDER BY a)));

