.open --hexdb
| size 16384 pagesize 4096 filename insert001.txt.db
| page 1 offset 0
|      0: 53 51 4c 69 74 65 20 66 6f 72 6d 61 74 20 33 00   SQLite format 3.
|     16: 10 00 01 01 00 40 20 20 00 00 00 00 00 00 00 04   .....@  ........
|     32: 00 00 00 00 00 00 00 00 00 00 00 02 00 00 00 04   ................
|     48: 00 00 00 00 00 00 00 00 00 00 00 01 00 00 00 00   ................
|     96: 00 00 00 00 0d 0f f8 00 03 0f 4c 00 0f 81 0f d1   ..........L.....
|    112: 0f 4c 00 00 00 00 00 00 00 00 00 00 00 00 00 00   .L..............
|   3904: 00 00 00 00 00 00 00 00 00 00 00 00 33 03 06 17   ............3...
|   3920: 17 13 01 4b 69 6e 64 65 78 74 31 33 78 31 74 31   ...Kindext13x1t1
|   3936: 33 04 43 52 45 41 54 45 20 49 4e 44 45 58 20 74   3.CREATE INDEX t
|   3952: 31 33 78 31 20 4f 4e 20 74 31 33 28 2d 62 3d 62   13x1 ON t13(-b=b
|   3968: 29 4e 01 07 17 13 13 01 81 03 74 61 62 6c 65 74   )N........tablet
|   3984: 31 33 74 31 33 02 43 52 45 41 54 45 20 54 41 42   13t13.CREATE TAB
|   4000: 4c 45 20 74 31 33 28 61 20 49 4e 54 45 47 45 52   LE t13(a INTEGER
|   4016: 20 50 52 49 4d 41 52 59 20 4b 45 59 2c 62 20 49    PRIMARY KEY,b I
|   4032: 4e 54 20 55 4e 49 51 55 45 29 20 53 54 52 49 43   NT UNIQUE) STRIC
|   4048: 54 25 02 06 17 39 13 01 00 69 6e 64 65 78 73 71   T%...9...indexsq
|   4064: 6c 69 74 65 5f 61 75 74 6f 69 6e 64 65 78 5f 74   lite_autoindex_t
|   4080: 31 33 5f 31 74 31 33 03 00 00 00 08 00 00 00 00   13_1t13.........
| page 2 offset 4096
|      0: 0d 00 00 00 00 10 00 00 00 00 00 00 00 00 00 00   ................
| page 3 offset 8192
|      0: 0a 00 00 00 00 10 00 00 00 00 00 00 00 00 00 00   ................
| page 4 offset 12288
|      0: 0a 00 00 00 00 10 00 00 00 00 00 00 00 00 00 00   ................
| end insert001.txt.db
.testctrl prng_seed 1 db
.testctrl internal_functions
PRAGMA count_changes(1);
INSERT INTO t13 VALUES(1,5),(6,2);
REPLACE INTO t13 SELECT b,0 FROM t13;
SELECT * FROM t13 ORDER BY +b;

