.open --hexdb
| size 16384 pagesize 4096 filename rowvalue005.txt.db
| page 1 offset 0
|      0: 53 51 4c 69 74 65 20 66 6f 72 6d 61 74 20 33 00   SQLite format 3.
|     16: 10 00 01 01 00 40 20 20 00 00 00 00 00 00 00 04   .....@  ........
|     32: 00 00 00 00 00 00 00 00 00 00 00 04 00 00 00 04   ................
|     48: 00 00 00 00 00 00 00 00 00 00 00 01 00 00 00 00   ................
|     96: 00 00 00 00 0d 00 00 00 03 0f 80 00 0f d8 0f b0   ................
|    112: 0f 80 00 00 00 00 00 00 00 00 00 00 00 00 00 00   ................
|   3968: 2e 03 06 17 15 11 01 45 69 6e 64 65 78 74 31 78   .......Eindext1x
|   3984: 31 74 31 04 43 52 45 41 54 45 20 49 4e 44 45 58   1t1.CREATE INDEX
|   4000: 20 74 31 78 31 20 4f 4e 20 74 31 28 61 2c 62 29    t1x1 ON t1(a,b)
|   4016: 26 02 06 17 11 11 01 39 74 61 62 6c 65 74 32 74   &......9tablet2t
|   4032: 32 03 43 52 45 41 54 45 20 54 41 42 4c 45 20 74   2.CREATE TABLE t
|   4048: 32 28 78 2c 79 2c 7a 29 26 01 06 17 11 11 01 39   2(x,y,z)&......9
|   4064: 74 61 62 6c 65 74 31 74 31 02 43 52 45 41 54 45   tablet1t1.CREATE
|   4080: 20 54 41 42 4c 45 20 74 31 28 61 2c 62 2c 63 29    TABLE t1(a,b,c)
| page 2 offset 4096
|      0: 0d 00 00 00 02 0f ee 00 0f f8 0f ee 00 00 00 00   ................
|   4064: 00 00 00 00 00 00 00 00 00 00 00 00 00 00 08 02   ................
|   4080: 04 01 01 02 02 03 01 90 06 01 04 09 00 02 00 c8   ................
| page 3 offset 8192
|      0: 0d 00 00 00 02 0f f0 00 0f f9 0f f0 00 00 00 00   ................
|   4080: 07 02 04 01 01 01 02 03 37 05 01 04 09 00 01 37   ........7......7
| page 4 offset 12288
|      0: 0a 00 00 00 02 0f f3 00 0f fb 0f f3 00 00 00 00   ................
|   4080: 00 00 00 07 04 01 01 01 02 03 02 04 04 09 00 09   ................
| end rowvalue005.txt.db
.testctrl prng_seed 1 db
.testctrl internal_functions
SELECT c FROM t1 WHERE(a,b)IN(SELECT x,y FROM t2 WHERE z==55);

