.open --hexdb
| size 12288 pagesize 4096 filename rowvalue008.txt.db
| page 1 offset 0
|      0: 53 51 4c 69 74 65 20 66 6f 72 6d 61 74 20 33 00   SQLite format 3.
|     16: 10 00 01 01 00 40 20 20 00 00 00 00 00 00 00 03   .....@  ........
|     32: 00 00 00 00 00 00 00 00 00 00 00 03 00 00 00 04   ................
|     48: 00 00 00 00 00 00 00 00 00 00 00 01 00 00 00 00   ................
|     96: 00 00 00 00 0d 00 00 00 02 0f 82 00 0f b2 0f 82   ................
|   3968: 00 00 2e 02 06 17 11 11 01 49 69 6e 64 65 78 69   .........Iindexi
|   3984: 32 74 32 03 43 52 45 41 54 45 20 49 4e 44 45 58   2t2.CREATE INDEX
|   4000: 20 69 32 20 4f 4e 20 74 32 28 61 2c 20 62 2c 20    i2 ON t2(a, b, 
|   4016: 63 29 4c 01 07 17 11 11 01 81 03 74 61 62 6c 65   c)L........table
|   4032: 74 32 74 32 02 43 52 45 41 54 45 20 54 41 42 4c   t2t2.CREATE TABL
|   4048: 45 20 74 32 28 61 20 49 4e 54 45 47 45 52 2c 20   E t2(a INTEGER, 
|   4064: 62 20 49 4e 54 45 47 45 52 2c 20 63 20 49 4e 54   b INTEGER, c INT
|   4080: 45 47 45 52 2c 20 64 20 49 4e 54 45 47 45 52 29   EGER, d INTEGER)
| page 2 offset 4096
|      0: 0d 00 00 00 40 0d a2 00 0f f9 0f f2 0f e9 0f e0   ....@...........
|     16: 0f d8 0f d0 0f c7 0f be 0f b5 0f ac 0f a2 0f 98   ................
|     32: 0f 8f 0f 86 0f 7c 0f 72 0f 6a 0f 62 0f 59 0f 50   .....|.r.j.b.Y.P
|     48: 0f 48 0f 40 0f 37 0f 2e 0f 25 0f 1c 0f 12 0f 08   .H.@.7...%......
|     64: 0e ff 0e f6 0e ec 0e e2 0e d9 0e d0 0e c6 0e bc   ................
|     80: 0e b3 0e aa 0e a0 0e 96 0e 8c 0e 82 0e 77 0e 6c   .............w.l
|     96: 0e 62 0e 58 0e 4d 0e 42 0e 39 0e 30 0e 26 0e 1c   .b.X.M.B.9.0.&..
|    112: 0e 13 0e 0a 0e 00 0d f6 0d ec 0d e2 0d d7 0d cc   ................
|    128: 0d c2 0d b8 0d ad 0d a2 00 00 00 00 00 00 00 00   ................
|   3488: 00 00 09 40 05 01 01 01 01 03 03 03 3f 09 3f 05   ...@........?.?.
|   3504: 01 01 01 01 03 03 02 3e 08 3e 05 01 01 09 01 03   .......>.>......
|   3520: 03 3d 08 3d 05 01 01 08 01 03 03 3c 09 3c 05 01   .=.=.......<.<..
|   3536: 01 01 01 03 02 03 3b 09 3b 05 01 01 01 01 03 02   ......;.;.......
|   3552: 02 3a 08 3a 05 01 01 09 01 03 02 39 08 39 05 01   .:.:.......9.9..
|   3568: 01 08 01 03 02 38 08 38 05 01 09 01 01 03 03 37   .....8.8.......7
|   3584: 08 37 05 01 09 01 01 03 02 36 07 36 05 01 09 09   .7.......6.6....
|   3600: 01 03 35 07 35 05 01 09 08 01 03 34 08 34 05 01   ..5.5......4.4..
|   3616: 08 01 01 03 03 33 08 33 05 01 08 01 01 03 02 32   .....3.3.......2
|   3632: 07 32 05 01 08 09 01 03 31 07 31 05 01 08 08 01   .2......1.1.....
|   3648: 03 30 09 30 05 01 01 01 01 02 03 03 2f 09 2f 05   .0.0.......././.
|   3664: 01 01 01 01 02 03 02 2e 08 2e 05 01 01 09 01 02   ................
|   3680: 03 2d 08 2d 05 01 01 08 01 02 03 2c 09 2c 05 01   .-.-.......,.,..
|   3696: 01 01 01 02 02 03 2b 09 2b 05 01 01 01 01 02 02   ......+.+.......
|   3712: 02 2a 08 2a 05 01 01 09 01 02 02 29 08 29 05 01   .*.*.......).)..
|   3728: 01 08 01 02 02 28 08 28 05 01 09 01 01 02 03 27   .....(.(.......'
|   3744: 08 27 05 01 09 01 01 02 02 26 07 26 05 01 09 09   .'.......&.&....
|   3760: 01 02 25 07 25 05 01 09 08 01 02 24 08 24 05 01   ..%.%......$.$..
|   3776: 08 01 01 02 03 23 08 23 05 01 08 01 01 02 02 22   .....#.#........
|   3792: 07 22 05 01 08 09 01 02 21 07 21 05 01 08 08 01   ........!.!.....
|   3808: 02 20 08 20 05 09 01 01 01 03 03 1f 08 1f 05 09   . . ............
|   3824: 01 01 01 03 02 1e 07 1e 05 09 01 09 01 03 1d 07   ................
|   3840: 1d 05 09 01 08 01 03 1c 08 1c 05 09 01 01 01 02   ................
|   3856: 03 1b 08 1b 05 09 01 01 01 02 02 1a 07 1a 05 09   ................
|   3872: 01 09 01 02 19 07 19 05 09 01 08 01 02 18 07 18   ................
|   3888: 05 09 09 01 01 03 17 07 17 05 09 09 01 01 02 16   ................
|   3904: 06 16 05 09 09 09 01 15 06 15 05 09 09 08 01 14   ................
|   3920: 07 14 05 09 08 01 01 03 13 07 13 05 09 08 01 01   ................
|   3936: 02 12 06 12 05 09 08 09 01 11 06 11 05 09 08 08   ................
|   3952: 01 10 08 10 05 08 01 01 01 03 03 0f 08 0f 05 08   ................
|   3968: 01 01 01 03 02 0e 07 0e 05 08 01 09 01 03 0d 07   ................
|   3984: 0d 05 08 01 08 01 03 0c 08 0c 05 08 01 01 01 02   ................
|   4000: 03 0b 08 0b 05 08 01 01 01 02 02 0a 07 0a 05 08   ................
|   4016: 01 09 01 02 09 07 09 05 08 01 08 01 02 08 07 08   ................
|   4032: 05 08 09 01 01 03 07 07 07 05 08 09 01 01 02 06   ................
|   4048: 06 06 05 08 09 09 01 05 06 05 05 08 09 08 01 04   ................
|   4064: 07 04 05 08 08 01 01 03 03 07 03 05 08 08 01 01   ................
|   4080: 02 02 05 02 05 08 08 09 09 05 01 05 08 08 08 08   ................
| page 3 offset 8192
|      0: 0a 00 00 00 40 0d e1 00 0f fa 0f f3 0f eb 0f e3   ....@...........
|     16: 0f dc 0f d5 0f cd 0f c5 0f bd 0f b5 0f ac 0f a3   ................
|     32: 0f 9b 0f 93 0f 8a 0f 81 0f 7a 0f 73 0f 6b 0f 63   .........z.s.k.c
|     48: 0f 5c 0f 55 0f 4d 0f 45 0f 3d 0f 35 0f 2c 0f 23   ...U.M.E.=.5.,.#
|     64: 0f 1b 0f 13 0f 0a 0f 01 0e f9 0e f1 0e e8 0e df   ................
|     80: 0e d7 0e cf 0e c6 0e bd 0e b4 0e ab 0e a1 0e 97   ................
|     96: 0e 8e 0e 85 0e 7b 0e 71 0e 69 0e 61 0e 58 0e 4f   .......q.i.a.X.O
|    112: 0e 47 0e 3f 0e 36 0e 2d 0e 24 0e 1b 0e 11 0e 07   .G.?.6.-.$......
|    128: 0d fe 0d f5 0d eb 0d e1 00 00 00 00 00 00 00 00   ................
|   3552: 00 09 05 01 01 01 01 03 03 03 40 09 05 01 01 01   ..........@.....
|   3568: 01 03 03 02 3f 08 05 01 01 09 01 03 03 3e 08 05   ....?........>..
|   3584: 01 01 08 01 03 03 3d 09 05 01 01 01 01 03 02 03   ......=.........
|   3600: 3c 09 05 01 01 01 01 03 02 02 3b 08 05 01 01 09   <.........;.....
|   3616: 01 03 02 3a 08 05 01 01 08 01 03 02 39 08 05 01   ...:........9...
|   3632: 09 01 01 03 03 38 08 05 01 09 01 01 03 02 37 07   .....8........7.
|   3648: 05 01 09 09 01 03 36 07 05 01 09 08 01 03 35 08   ......6.......5.
|   3664: 05 01 08 01 01 03 03 34 08 05 01 08 01 01 03 02   .......4........
|   3680: 33 07 05 01 08 09 01 03 32 07 05 01 08 08 01 03   3.......2.......
|   3696: 31 09 05 01 01 01 01 02 03 03 30 09 05 01 01 01   1.........0.....
|   3712: 01 02 03 02 2f 08 05 01 01 09 01 02 03 2e 08 05   ..../...........
|   3728: 01 01 08 01 02 03 2d 09 05 01 01 01 01 02 02 03   ......-.........
|   3744: 2c 09 05 01 01 01 01 02 02 02 2b 08 05 01 01 09   ,.........+.....
|   3760: 01 02 02 2a 08 05 01 01 08 01 02 02 29 08 05 01   ...*........)...
|   3776: 09 01 01 02 03 28 08 05 01 09 01 01 02 02 27 07   .....(........'.
|   3792: 05 01 09 09 01 02 26 07 05 01 09 08 01 02 25 08   ......&.......%.
|   3808: 05 01 08 01 01 02 03 24 08 05 01 08 01 01 02 02   .......$........
|   3824: 23 07 05 01 08 09 01 02 22 07 05 01 08 08 01 02   #...............
|   3840: 21 08 05 09 01 01 01 03 03 20 08 05 09 01 01 01   !........ ......
|   3856: 03 02 1f 07 05 09 01 09 01 03 1e 07 05 09 01 08   ................
|   3872: 01 03 1d 08 05 09 01 01 01 02 03 1c 08 05 09 01   ................
|   3888: 01 01 02 02 1b 07 05 09 01 09 01 02 1a 07 05 09   ................
|   3904: 01 08 01 02 19 07 05 09 09 01 01 03 18 07 05 09   ................
|   3920: 09 01 01 02 17 06 05 09 09 09 01 16 06 05 09 09   ................
|   3936: 08 01 15 07 05 09 08 01 01 03 14 07 05 09 08 01   ................
|   3952: 01 02 13 06 05 09 08 09 01 12 06 05 09 08 08 01   ................
|   3968: 11 08 05 08 01 01 01 03 03 10 08 05 08 01 01 01   ................
|   3984: 03 02 0f 07 05 08 01 09 01 03 0e 07 05 08 01 08   ................
|   4000: 01 03 0d 08 05 08 01 01 01 02 03 0c 08 05 08 01   ................
|   4016: 01 01 02 02 0b 07 05 08 01 09 01 02 0a 07 05 08   ................
|   4032: 01 08 01 02 09 07 05 08 09 01 01 03 08 07 05 08   ................
|   4048: 09 01 01 02 07 06 05 08 09 09 01 06 06 05 08 09   ................
|   4064: 08 01 05 07 05 08 08 01 01 03 04 07 05 08 08 01   ................
|   4080: 01 02 03 06 05 08 08 09 01 02 05 05 08 08 08 09   ................
| end rowvalue008.txt.db
.testctrl prng_seed 1 db
.testctrl internal_functions
SELECT d FROM t2 WHERE(a,b)>(2,2);
SELECT d FROM t2 WHERE(a,b)>=(2,2);
SELECT d FROM t2 WHERE a=1 AND(b,c)>=(1,2);

