.open --hexdb
| size 16384 pagesize 4096 filename rowvalue002.txt.db
| page 1 offset 0
|      0: 53 51 4c 69 74 65 20 66 6f 72 6d 61 74 20 33 00   SQLite format 3.
|     16: 10 00 01 01 00 40 20 20 00 00 00 00 00 00 00 04   .....@  ........
|     32: 00 00 00 00 00 00 00 00 00 00 00 02 00 00 00 04   ................
|     48: 00 00 00 00 00 00 00 00 00 00 00 01 00 00 00 00   ................
|     96: 00 00 00 00 0d 0f be 00 03 0f 62 00 0f c6 0f 62   ..........b....b
|    112: 0f 99 00 00 00 00 00 00 00 00 00 00 00 00 00 00   ................
|   3936: 00 00 35 02 06 17 11 11 01 57 74 61 62 6c 65 74   ..5......Wtablet
|   3952: 32 74 32 03 43 52 45 41 54 45 20 54 41 42 4c 45   2t2.CREATE TABLE
|   3968: 20 74 32 28 61 2c 62 2c 50 52 49 4d 41 52 59 20    t2(a,b,PRIMARY 
|   3984: 4b 45 59 28 61 2c 62 29 29 23 03 06 17 37 11 01   KEY(a,b))#...7..
|   4000: 00 69 6e 64 65 78 73 71 6c 69 74 65 5f 61 75 74   .indexsqlite_aut
|   4016: 6f 69 6e 64 65 78 5f 74 32 5f 31 74 32 04 00 00   oindex_t2_1t2...
|   4032: 00 08 00 00 00 00 38 01 06 17 11 11 01 5d 74 61   ......8......]ta
|   4048: 62 6c 65 74 31 74 31 02 43 52 45 41 54 45 20 54   blet1t1.CREATE T
|   4064: 41 42 4c 45 20 74 31 28 61 20 49 4e 54 45 47 45   ABLE t1(a INTEGE
|   4080: 52 20 50 52 49 4d 41 52 59 20 4b 45 59 2c 62 29   R PRIMARY KEY,b)
| page 2 offset 4096
|      0: 0d 00 00 00 04 0f e8 00 0f fa 0f f4 0f ee 0f e8   ................
|   4064: 00 00 00 00 00 00 00 00 04 04 03 00 01 2c 04 03   .............,..
|   4080: 03 00 01 21 04 02 03 00 01 16 04 01 03 00 01 0b   ...!............
| page 3 offset 8192
|      0: 0d 00 00 00 03 0f ec 00 0f fa 0f f3 0f ec 00 00   ................
|   4064: 00 00 00 00 00 00 00 00 00 00 00 00 05 03 03 01   ................
|   4080: 01 05 06 05 02 03 01 01 03 04 04 01 03 09 01 02   ................
| page 4 offset 12288
|      0: 0a 00 00 00 03 0f ea 00 0f fa 0f f2 0f ea 00 00   ................
|   4064: 00 00 00 00 00 00 00 00 00 00 07 04 01 01 01 05   ................
|   4080: 06 03 07 04 01 01 01 03 04 02 05 04 09 01 09 02   ................
| end rowvalue002.txt.db
.testctrl prng_seed 1 db
.testctrl internal_functions
SELECT * FROM t1 WHERE (a,b)<=(5,0) ORDER BY a DESC;
SELECT 1 WHERE (2,(2,0)) IS (2,(2,0));
SELECT*FROM t2 WHERE(a,b)IN(VALUES(1,2));

