.open --hexdb
| size 24576 pagesize 4096 filename rowvalue003.txt.db
| page 1 offset 0
|      0: 53 51 4c 69 74 65 20 66 6f 72 6d 61 74 20 33 00   SQLite format 3.
|     16: 10 00 01 01 00 40 20 20 00 00 00 00 00 00 00 06   .....@  ........
|     32: 00 00 00 00 00 00 00 00 00 00 00 03 00 00 00 04   ................
|     48: 00 00 00 00 00 00 00 00 00 00 00 01 00 00 00 00   ................
|     96: 00 00 00 00 0d 0f f8 00 05 0e ed 00 0f 96 0f d3   ................
|    112: 0f 37 0f 71 0e ed 00 00 00 00 00 00 00 00 00 00   .7.q............
|   3808: 00 00 00 00 00 00 00 00 00 00 00 00 00 48 05 06   .............H..
|   3824: 17 11 11 01 7d 74 61 62 6c 65 74 33 74 33 06 43   .....tablet3t3.C
|   3840: 52 45 41 54 45 20 54 41 42 4c 45 20 74 33 28 61   REATE TABLE t3(a
|   3856: 2c 62 2c 63 2c 64 2c 65 2c 50 52 49 4d 41 52 59   ,b,c,d,e,PRIMARY
|   3872: 20 4b 45 59 28 61 2c 62 29 29 57 49 54 48 4f 55    KEY(a,b))WITHOU
|   3888: 54 20 52 4f 57 49 44 38 03 06 17 11 11 01 5d 74   T ROWID8......]t
|   3904: 61 62 6c 65 74 32 74 32 04 43 52 45 41 54 45 20   ablet2t2.CREATE 
|   3920: 54 41 42 4c 45 20 74 32 28 78 20 49 4e 54 20 50   TABLE t2(x INT P
|   3936: 52 49 4d 41 52 59 20 4b 45 59 2c 20 79 2c 20 7a   RIMARY KEY, y, z
|   3952: 29 23 04 06 17 37 11 01 00 69 6e 64 65 78 73 71   )#...7...indexsq
|   3968: 6c 69 74 65 5f 61 75 74 6f 69 6e 64 65 78 5f 74   lite_autoindex_t
|   3984: 32 5f 31 74 32 05 3b 01 06 17 11 11 01 63 74 61   2_1t2.;......cta
|   4000: 62 6c 65 74 31 74 31 02 43 52 45 41 54 45 20 54   blet1t1.CREATE T
|   4016: 41 42 4c 45 20 74 31 28 61 2c 62 2c 63 2c 64 2c   ABLE t1(a,b,c,d,
|   4032: 65 2c 50 52 49 4d 41 52 59 20 4b 45 59 28 61 2c   e,PRIMARY KEY(a,
|   4048: 62 29 29 23 02 06 17 37 11 01 00 69 6e 64 65 78   b))#...7...index
|   4064: 73 71 6c 69 74 65 5f 61 75 74 6f 69 6e 64 65 78   sqlite_autoindex
|   4080: 5f 74 31 5f 31 74 31 03 00 00 00 08 00 00 00 00   _t1_1t1.........
| page 2 offset 4096
|      0: 0d 00 00 00 04 0f c9 00 0f f4 0f e7 0f da 0f c9   ................
|   4032: 00 00 00 00 00 00 00 00 00 0f 04 06 01 01 00 17   ................
|   4048: 02 04 05 73 65 76 65 6e 22 b8 0b 03 06 01 01 01   ...seven........
|   4064: 01 01 03 04 05 06 07 0b 02 06 01 01 01 01 01 02   ................
|   4080: 03 04 05 06 0a 01 06 09 01 01 01 01 02 03 04 05   ................
| page 3 offset 8192
|      0: 0a 00 00 00 04 0f e2 00 0f fa 0f f2 0f ea 0f e2   ................
|   4064: 00 00 07 04 01 01 01 04 05 04 07 04 01 01 01 03   ................
|   4080: 04 03 07 04 01 01 01 02 03 02 05 04 09 01 09 02   ................
| page 4 offset 12288
|      0: 0d 00 00 00 02 0f e9 00 0f f6 0f e9 00 00 00 00   ................
|   4064: 00 00 00 00 00 00 00 00 00 0b 02 04 01 13 13 02   ................
|   4080: 61 62 63 64 65 66 08 01 04 09 11 11 35 35 39 39   abcdef......5599
| page 5 offset 16384
|      0: 0a 00 00 00 02 0f f6 00 0f fc 0f f6 00 00 00 00   ................
|   4080: 00 00 00 00 00 00 05 03 01 01 02 02 03 03 09 09   ................
| page 6 offset 20480
|      0: 0a 00 00 00 04 0f cd 00 0f f5 0f e9 0f dd 0f cd   ................
|   4032: 00 00 00 00 00 00 00 00 00 00 00 00 00 0f 06 01   ................
|   4048: 01 00 17 02 04 05 73 65 76 65 6e 22 b8 0b 06 01   ......seven.....
|   4064: 01 01 01 01 03 04 05 06 07 0b 06 01 01 01 01 01   ................
|   4080: 02 03 04 05 06 0a 06 09 01 01 01 01 02 03 04 05   ................
| end rowvalue003.txt.db
.testctrl prng_seed 1 db
.testctrl internal_functions
UPDATE t1 SET (c,d)=(SELECT y,z FROM t2 WHERE x=a) WHERE b=2;
SELECT *,'|' FROM t1 ORDER BY +a;
UPDATE t1 SET (c,d)=(a,b);
UPDATE t3 SET (c,d)=(SELECT y,z FROM t2 WHERE x=a), e=77;
SELECT *,'X' FROM t3 ORDER BY +a;

