.open --hexdb
| size 4096 pagesize 512 filename rtree012.txt.db
| page 1 offset 0
|      0: 53 51 4c 69 74 65 20 66 6f 72 6d 61 74 20 33 00   SQLite format 3.
|     16: 02 00 01 01 00 40 20 20 00 00 00 00 00 00 00 05   .....@  ........
|     32: 00 00 00 00 00 00 00 00 00 00 00 05 00 00 00 04   ................
|     48: 00 00 00 00 00 00 00 00 00 00 00 01 00 00 00 00   ................
|     96: 00 00 00 00 0d 00 00 00 05 00 80 00 01 ce 01 8a   ................
|    112: 01 33 00 e0 00 80 00 00 00 00 00 00 00 00 00 00   .3..............
|    128: 5e 05 07 17 1f 1f 01 81 0b 74 61 62 6c 65 74 31   ^........tablet1
|    144: 5f 70 61 72 65 6e 74 74 31 5f 70 61 72 65 6e 74   _parentt1_parent
|    160: 05 43 52 45 41 54 45 20 54 41 42 4c 45 20 22 74   .CREATE TABLE .t
|    176: 31 5f 70 61 72 65 6e 74 22 28 6e 6f 64 65 6e 6f   1_parent.(nodeno
|    192: 20 49 4e 54 45 47 45 52 20 50 52 49 4d 41 52 59    INTEGER PRIMARY
|    208: 20 4b 45 59 2c 70 61 72 65 6e 74 6e 6f 64 65 29    KEY,parentnode)
|    224: 51 04 06 17 1b 1b 01 7b 74 61 62 6c 65 74 31 5f   Q.......tablet1_
|    240: 6e 6f 64 65 74 31 5f 6e 6f 64 65 04 43 52 45 41   nodet1_node.CREA
|    256: 54 45 20 54 41 42 4c 45 20 22 74 31 5f 6e 6f 64   TE TABLE .t1_nod
|    272: 65 22 28 6e 6f 64 65 6e 6f 20 49 4e 54 45 47 45   e.(nodeno INTEGE
|    288: 52 20 50 52 49 4d 41 52 59 20 4b 45 59 2c 64 61   R PRIMARY KEY,da
|    304: 74 61 29 55 03 06 17 1d 1d 01 7f 74 61 62 6c 65   ta)U.......table
|    320: 74 31 5f 72 6f 77 69 64 74 31 5f 72 6f 77 69 64   t1_rowidt1_rowid
|    336: 03 43 52 45 41 54 45 20 54 41 42 4c 45 20 22 74   .CREATE TABLE .t
|    352: 31 5f 72 6f 77 69 64 22 28 72 6f 77 69 64 20 49   1_rowid.(rowid I
|    368: 4e 54 45 47 45 52 20 50 52 49 4d 41 52 59 20 4b   NTEGER PRIMARY K
|    384: 45 59 2c 6e 6f 64 65 6e 6f 29 42 02 06 17 11 11   EY,nodeno)B.....
|    400: 08 73 74 61 62 6c 65 74 31 74 31 43 52 45 41 54   .stablet1t1CREAT
|    416: 45 20 56 49 52 54 55 41 4c 20 54 41 42 4c 45 20   E VIRTUAL TABLE 
|    432: 74 31 20 55 53 49 4e 47 20 72 74 72 65 65 28 69   t1 USING rtree(i
|    448: 64 2c 78 30 2c 78 31 2c 79 30 2c 79 31 29 30 01   d,x0,x1,y0,y1)0.
|    464: 06 17 15 15 01 45 74 61 62 6c 65 64 61 74 61 64   .....Etabledatad
|    480: 61 74 61 02 43 52 45 41 54 45 20 54 41 42 4c 45   ata.CREATE TABLE
|    496: 20 64 61 74 61 28 69 64 2c 78 2c 79 2c 73 7a 29    data(id,x,y,sz)
| page 2 offset 512
|      0: 0d 00 00 00 00 02 00 00 00 00 00 00 00 00 00 00   ................
| page 3 offset 1024
|      0: 0d 00 00 00 00 02 00 00 00 00 00 00 00 00 00 00   ................
| page 4 offset 1536
|      0: 0d 00 00 00 01 00 39 00 00 39 00 00 00 00 00 00   ......9..9......
|     48: 00 00 00 00 00 00 00 00 00 83 44 01 04 00 87 0c   ..........D.....
| page 5 offset 2048
|      0: 0d 00 00 00 00 02 00 00 00 00 00 00 00 00 00 00   ................
| end rtree012.txt.db
.testctrl prng_seed 1 db
.testctrl internal_functions
WITH RECURSIVE c(id) AS (VALUES(1) UNION ALL SELECT id+1 FROM c WHERE id<3400)
INSERT INTO data(id,x,y,sz)
SELECT id, (id*123457)%1009, (id*77153)%1009, 1 + (id*115223)%47 FROM c;
INSERT INTO t1(id,x0,x1,y0,y1) SELECT id, x, x+sz, y, y+sz FROM data;
UPDATE t1_node SET data=zeroblob(440) WHERE rowid=60;
DELETE FROM t1 WHERE y1>1000.0;

