.open --hexdb
| size 4096 pagesize 512 filename rtree008.txt.db
| page 1 offset 0
|      0: 53 51 4c 69 74 65 20 66 6f 72 6d 61 74 20 33 00   SQLite format 3.
|     16: 02 00 01 01 00 40 20 20 00 00 00 00 00 00 00 04   .....@  ........
|     32: 00 00 00 00 00 00 00 00 00 00 00 04 00 00 00 04   ................
|     48: 00 00 00 00 00 00 00 00 00 00 00 01 00 00 00 00   ................
|     96: 00 00 00 00 0d 00 00 00 04 00 9e 00 01 b2 01 51   ...............Q
|    112: 00 fe 00 9e 00 00 00 00 00 00 00 00 00 00 00 00   ................
|    144: 00 00 00 00 00 00 00 00 00 00 00 00 00 00 5e 04   ..............^.
|    160: 07 17 1f 1f 01 81 0b 74 61 62 6c 65 74 31 5f 70   .......tablet1_p
|    176: 61 72 65 6e 74 74 31 5f 70 61 72 65 6e 74 04 43   arentt1_parent.C
|    192: 52 45 41 54 45 20 54 41 42 4c 45 20 22 74 31 5f   REATE TABLE .t1_
|    208: 70 61 72 65 6e 74 22 28 6e 6f 64 65 6e 6f 20 49   parent.(nodeno I
|    224: 4e 54 45 47 45 52 20 50 52 49 4d 41 52 59 20 4b   NTEGER PRIMARY K
|    240: 45 59 2c 70 61 72 65 6e 74 6e 6f 64 65 29 51 03   EY,parentnode)Q.
|    256: 06 17 1b 1b 01 7b 74 61 62 6c 65 74 31 5f 6e 6f   ......tablet1_no
|    272: 64 65 74 31 5f 6e 6f 64 65 03 43 52 45 41 54 45   det1_node.CREATE
|    288: 20 54 41 42 4c 45 20 22 74 31 5f 6e 6f 64 65 22    TABLE .t1_node.
|    304: 28 6e 6f 64 65 6e 6f 20 49 4e 54 45 47 45 52 20   (nodeno INTEGER 
|    320: 50 52 49 4d 41 52 59 20 4b 45 59 2c 64 61 74 61   PRIMARY KEY,data
|    336: 29 5f 02 07 17 1d 1d 01 81 11 74 61 62 6c 65 74   )_........tablet
|    352: 31 5f 72 6f 77 69 64 74 31 5f 72 6f 77 69 64 02   1_rowidt1_rowid.
|    368: 43 52 45 41 54 45 20 54 41 42 4c 45 20 22 74 31   CREATE TABLE .t1
|    384: 5f 72 6f 77 69 64 22 28 72 6f 77 69 64 20 49 4e   _rowid.(rowid IN
|    400: 54 45 47 45 52 20 50 52 49 4d 41 52 59 20 4b 45   TEGER PRIMARY KE
|    416: 59 2c 6e 6f 64 65 6e 6f 2c 61 30 2c 61 31 2c 61   Y,nodeno,a0,a1,a
|    432: 32 29 4c 01 07 17 11 11 08 81 05 74 61 62 6c 65   2)L........table
|    448: 74 31 74 31 43 52 45 41 54 45 20 56 49 52 54 55   t1t1CREATE VIRTU
|    464: 41 4c 20 54 41 42 4c 45 20 74 31 20 55 53 49 4e   AL TABLE t1 USIN
|    480: 47 20 72 74 72 65 65 28 69 64 2c 78 30 2c 78 31   G rtree(id,x0,x1
|    496: 2c 79 30 2c 79 31 2c 2b 61 2c 2b 62 2c 2b 63 29   ,y0,y1,+a,+b,+c)
| page 2 offset 512
|      0: 0d 00 00 00 05 01 cf 00 01 f6 01 e7 01 df 01 d7   ................
|     16: 01 cf 00 00 00 00 00 00 00 00 00 00 00 00 00 00   ................
|    448: 00 00 00 00 00 00 00 00 00 00 00 00 00 00 00 06   ................
|    464: 05 06 00 09 08 08 08 06 04 06 00 09 09 09 09 06   ................
|    480: 03 06 00 09 00 00 00 0d 02 06 00 09 00 17 10 62   ...............b
|    496: 69 6e 67 6f 00 00 08 01 06 00 09 01 01 00 05 0b   ingo............
| page 3 offset 1024
|      0: 0d 00 00 00 01 00 39 00 00 39 00 00 00 00 00 00   ......9..9......
|     48: 00 00 00 00 00 00 00 00 00 83 44 01 04 00 87 0c   ..........D.....
|     64: 00 00 00 05 00 00 00 00 00 00 00 01 43 e7 80 00   ............C...
|     80: 44 08 80 00 43 21 00 00 43 5f 00 00 00 00 00 00   D...C!..C_......
|     96: 00 00 00 02 44 39 c0 00 44 4e 00 00 44 29 80 00   ....D9..DN..D)..
|    112: 44 2a 40 00 00 00 00 00 00 00 00 03 44 07 00 00   D*@.........D...
|    128: 44 13 c0 00 42 2c 00 00 42 c4 00 00 00 00 00 00   D...B,..B.......
|    144: 00 00 00 04 43 dd 00 00 44 02 00 00 42 e0 00 00   ....C...D...B...
|    160: 43 13 00 00 00 00 00 00 00 00 00 05 43 b2 80 00   C...........C...
|    176: 43 d9 80 00 43 23 00 00 43 5c 00 00 00 00 00 00   C...C#..C.......
| page 4 offset 1536
|      0: 0d 00 00 00 00 02 00 00 00 00 00 00 00 00 00 00   ................
| end rtree008.txt.db
.testctrl prng_seed 1 db
.testctrl internal_functions
SELECT count(*) FROM t1 WHERE x0>-10000 AND x1>='';
DELETE FROM t1 WHERE id=3;
UPDATE t1 SET rowid=rowid+100 WHERE x0>=400 AND x1<=500;
SELECT rtreecheck('t1');

