.open --hexdb
| size 20480 pagesize 4096 filename rtree005.txt.db
| page 1 offset 0
|      0: 53 51 4c 69 74 65 20 66 6f 72 6d 61 74 20 33 00   SQLite format 3.
|     16: 10 00 01 01 00 40 20 20 00 00 00 00 00 00 00 05   .....@  ........
|     32: 00 00 00 00 00 00 00 00 00 00 00 05 00 00 00 04   ................
|     48: 00 00 00 00 00 00 00 00 00 00 00 01 00 00 00 00   ................
|     96: 00 00 00 00 0d 00 00 00 05 0e 6d 00 0f c8 0f 7b   ..........m.....
|    112: 0f 20 0e cd 0e 6d 00 00 00 00 00 00 00 00 00 00   . ...m..........
|   3680: 00 00 00 00 00 00 00 00 00 00 00 00 00 5e 05 07   .............^..
|   3696: 17 1f 1f 01 81 0b 74 61 62 6c 65 74 31 5f 70 61   ......tablet1_pa
|   3712: 72 65 6e 74 74 31 5f 70 61 72 65 6e 74 05 43 52   rentt1_parent.CR
|   3728: 45 41 54 45 20 54 41 42 4c 45 20 22 74 31 5f 70   EATE TABLE .t1_p
|   3744: 61 72 65 6e 74 22 28 6e 6f 64 65 6e 6f 20 49 4e   arent.(nodeno IN
|   3760: 54 45 47 45 52 20 50 52 49 4d 41 52 59 20 4b 45   TEGER PRIMARY KE
|   3776: 59 2c 70 61 72 65 6e 74 6e 6f 64 65 29 51 04 06   Y,parentnode)Q..
|   3792: 17 1b 1b 01 7b 74 61 62 6c 65 74 31 5f 6e 6f 64   .....tablet1_nod
|   3808: 65 74 31 5f 6e 6f 64 65 04 43 52 45 41 54 45 20   et1_node.CREATE 
|   3824: 54 41 42 4c 45 20 22 74 31 5f 6e 6f 64 65 22 28   TABLE .t1_node.(
|   3840: 6e 6f 64 65 6e 6f 20 49 4e 54 45 47 45 52 20 50   nodeno INTEGER P
|   3856: 52 49 4d 41 52 59 20 4b 45 59 2c 64 61 74 61 29   RIMARY KEY,data)
|   3872: 59 03 07 17 1d 1d 01 81 05 74 61 62 6c 65 74 31   Y........tablet1
|   3888: 5f 72 6f 77 69 64 74 31 5f 72 6f 77 69 64 03 43   _rowidt1_rowid.C
|   3904: 52 45 41 54 45 20 54 41 42 4c 45 20 22 74 31 5f   REATE TABLE .t1_
|   3920: 72 6f 77 69 64 22 28 72 6f 77 69 64 20 49 4e 54   rowid.(rowid INT
|   3936: 45 47 45 52 20 50 52 49 4d 41 52 59 20 4b 45 59   EGER PRIMARY KEY
|   3952: 2c 6e 6f 64 65 6e 6f 2c 61 30 29 4b 02 07 17 11   ,nodeno,a0)K....
|   3968: 11 08 81 03 74 61 62 6c 65 74 31 74 31 43 52 45   ....tablet1t1CRE
|   3984: 41 54 45 20 56 49 52 54 55 41 4c 20 54 41 42 4c   ATE VIRTUAL TABL
|   4000: 45 20 74 31 20 55 53 49 4e 47 20 72 74 72 65 65   E t1 USING rtree
|   4016: 5f 69 33 32 28 69 64 2c 78 30 2c 78 31 2c 79 30   _i32(id,x0,x1,y0
|   4032: 2c 79 31 2c 2b 65 78 29 36 01 06 17 17 17 01 4d   ,y1,+ex)6......M
|   4048: 74 61 62 6c 65 63 6f 6f 72 64 63 6f 6f 72 64 02   tablecoordcoord.
|   4064: 43 52 45 41 54 45 20 54 41 42 4c 45 20 63 6f 6f   CREATE TABLE coo
|   4080: 72 64 28 76 20 49 4e 54 2c 20 77 20 49 4e 54 29   rd(v INT, w INT)
| page 2 offset 4096
|      0: 0d 00 00 00 0a 0f bb 00 0f fa 0f f3 0f ec 0f e5   ................
|     16: 0f de 0f d7 0f d0 0f c9 0f c2 0f bb 00 00 00 00   ................
|   4016: 00 00 00 00 00 00 00 00 00 00 00 05 0a 03 01 01   ................
|   4032: 0a 02 05 09 03 01 01 09 02 05 08 03 01 01 08 02   ................
|   4048: 05 07 03 01 01 07 02 05 06 03 01 01 06 02 05 05   ................
|   4064: 03 01 01 05 02 05 04 03 01 01 04 02 05 03 03 01   ................
|   4080: 01 03 02 05 02 03 01 01 02 02 04 01 03 09 01 02   ................
| page 3 offset 8192
|      0: 0d 0e 4f 00 64 0b 5a 12 0d bb 0d 84 0f eb 0d c6   ..O.d.Z.........
|     16: 0f d7 0f cc 0f c1 0f b6 0f ab 0f 9f 0f 94 0d 8f   ................
|     32: 0f 86 0d d1 0f 72 0f 67 0f 5c 0f 51 0f 46 0f 3a   .....r.g...Q.F.:
|     48: 0f 2f 0d 9a 0f 21 0d dc 0f 0d 0f 02 0e f7 0e ec   ./...!..........
|     64: 0e e1 0e d5 0e ca 0d a5 0e bc 0d e7 0e a8 0e 9d   ................
|     80: 0e 92 0e 87 0e 7c 0e 70 0e 65 0d b0 0e 57 0d f2   .....|.p.e...W..
|     96: 0e 43 0e 38 0e 2d 0e 22 0e 17 0e 0b 0e 00 0d 79   .C.8.-.........y
|    112: 0d 6e 0d 63 0d 58 0d 4d 0d 42 0d 37 0d 2c 0d 20   .n.c.X.M.B.7.,. 
|    128: 0d 15 0d 0a 0c ff 0c f4 0c e9 0c de 0c d3 0c c8   ................
|    144: 0c bd 0c b1 0c a6 0c 9b 0c 90 0c 85 0c 7a 0c 6f   .............z.o
|    160: 0c 64 0c 59 0c 4e 0c 42 0c 37 0c 2c 0c 21 0c 16   .d.Y.N.B.7.,.!..
|    176: 0c 0b 0c 00 0b f5 0b ea 0b df 0b d3 0b c7 0b bb   ................
|    192: 0b af 0b a3 0b 97 0b 8b 0b 7f 0b 73 0b 67 0b 5a   ...........s.g.Z
|   2896: 00 00 00 00 00 00 00 00 00 00 0a ce 1a 04 00 01   ................
|   2912: 17 03 31 30 78 31 30 09 ce 19 04 00 01 15 03 31   ..10x10........1
|   2928: 30 78 39 09 ce 18 04 00 01 15 03 31 30 78 38 09   0x9........10x8.
|   2944: ce 17 04 00 01 15 03 31 30 78 37 09 ce 16 04 00   .......10x7.....
|   2960: 01 15 03 31 30 78 36 09 ce 15 04 00 01 15 03 31   ...10x6........1
|   2976: 30 78 35 09 ce 14 04 00 01 15 03 31 30 78 34 09   0x5........10x4.
|   2992: ce 13 04 00 01 15 03 31 30 78 33 09 ce 12 04 00   .......10x3.....
|   3008: 01 15 03 31 30 78 32 09 ce 11 04 00 01 15 03 31   ...10x2........1
|   3024: 30 78 31 09 c6 32 04 00 01 15 03 39 78 31 30 08   0x1..2.....9x10.
|   3040: c6 31 04 00 01 13 03 39 78 39 08 c6 30 04 00 01   .1.....9x9..0...
|   3056: 13 03 39 78 38 08 c6 2f 04 00 01 13 03 39 78 37   ..9x8../.....9x7
|   3072: 08 c6 2e 04 00 01 13 03 39 78 36 08 c6 2d 04 00   ........9x6..-..
|   3088: 01 13 03 39 78 35 08 c6 2c 04 00 01 13 03 39 78   ...9x5..,.....9x
|   3104: 34 08 c6 2b 04 00 01 13 03 39 78 33 08 c6 2a 04   4..+.....9x3..*.
|   3120: 00 01 13 03 39 78 32 08 c6 29 04 00 01 13 03 39   ....9x2..).....9
|   3136: 78 31 09 be 4a 04 00 01 15 03 38 78 31 30 08 be   x1..J.....8x10..
|   3152: 49 04 00 01 13 03 38 78 39 08 be 48 04 00 01 13   I.....8x9..H....
|   3168: 03 38 78 38 08 be 47 04 00 01 13 03 38 78 37 08   .8x8..G.....8x7.
|   3184: be 46 04 00 01 13 03 38 78 36 08 be 45 04 00 01   .F.....8x6..E...
|   3200: 13 03 38 78 35 08 be 44 04 00 01 13 03 38 78 34   ..8x5..D.....8x4
|   3216: 08 be 43 04 00 01 13 03 38 78 33 08 be 42 04 00   ..C.....8x3..B..
|   3232: 01 13 03 38 78 32 08 be 41 04 00 01 13 03 38 78   ...8x2..A.....8x
|   3248: 31 09 b6 62 04 00 01 15 03 37 78 31 30 08 b6 61   1..b.....7x10..a
|   3264: 04 00 01 13 03 37 78 39 08 b6 60 04 00 01 13 03   .....7x9..`.....
|   3280: 37 78 38 08 b6 5f 04 00 01 13 03 37 78 37 08 b6   7x8.._.....7x7..
|   3296: 5e 04 00 01 13 03 37 78 36 08 b6 5d 04 00 01 13   ^.....7x6..]....
|   3312: 03 37 78 35 08 b6 5c 04 00 01 13 03 37 78 34 08   .7x5........7x4.
|   3328: b6 5b 04 00 01 13 03 37 78 33 08 b6 5a 04 00 01   .[.....7x3..Z...
|   3344: 13 03 37 78 32 08 b6 59 04 00 01 13 03 37 78 31   ..7x2..Y.....7x1
|   3360: 09 ae 7a 04 00 01 15 03 36 78 31 30 08 ae 79 04   ..z.....6x10..y.
|   3376: 00 01 13 03 36 78 39 08 ae 78 04 00 01 13 03 36   ....6x9..x.....6
|   3392: 78 38 08 ae 77 04 00 01 13 03 36 78 37 08 ae 76   x8..w.....6x7..v
|   3408: 04 00 01 13 03 36 78 36 08 ae 75 04 00 01 13 03   .....6x6..u.....
|   3424: 36 78 35 08 ae 74 04 00 01 13 03 36 78 34 08 ae   6x5..t.....6x4..
|   3440: 73 04 00 01 13 03 36 78 33 08 ae 72 04 00 01 13   s.....6x3..r....
|   3456: 03 36 78 32 08 87 6a 04 00 01 13 02 31 78 32 08   .6x2..j.....1x2.
|   3472: 8f 52 04 00 01 13 02 32 78 32 08 97 3a 04 00 01   .R.....2x2..:...
|   3488: 13 02 33 78 32 08 9f 22 04 00 01 13 02 34 78 32   ..3x2........4x2
|   3504: 08 a7 0a 04 00 01 13 02 35 78 32 08 87 69 04 00   ........5x2..i..
|   3520: 01 13 02 31 78 31 08 87 6c 04 00 01 13 02 31 78   ...1x1..l.....1x
|   3536: 34 08 8f 54 04 00 01 13 02 32 78 34 08 97 3c 04   4..T.....2x4..<.
|   3552: 00 01 13 02 33 78 34 08 9f 24 04 00 01 13 02 34   ....3x4..$.....4
|   3568: 78 34 08 a7 0c 04 00 01 13 02 35 78 34 0e 6c 00   x4........5x4.l.
|   3584: 08 ae 71 04 00 01 13 03 36 78 31 09 a7 12 04 00   ..q.....6x1.....
|   3600: 01 15 02 35 78 31 30 08 a7 11 04 00 01 13 02 35   ...5x10........5
|   3616: 78 39 08 a7 10 04 00 01 13 02 35 78 38 08 a7 0f   x9........5x8...
|   3632: 04 00 01 13 02 35 78 37 08 a7 0e 04 00 01 13 02   .....5x7........
|   3648: 35 78 36 08 a7 0d 04 00 01 13 02 35 78 35 0e 0e   5x6........5x5..
|   3664: b3 00 08 00 01 00 03 08 a7 0b 04 00 01 13 02 35   ...............5
|   3680: 78 33 0e d1 00 08 a7 09 04 00 01 13 02 35 78 31   x3...........5x1
|   3696: 09 9f 2a 04 00 01 15 02 34 78 31 30 08 9f 29 04   ..*.....4x10..).
|   3712: 00 01 13 02 34 78 39 08 9f 28 04 00 01 13 02 34   ....4x9..(.....4
|   3728: 78 38 08 9f 27 04 00 01 13 02 34 78 37 08 9f 26   x8..'.....4x7..&
|   3744: 04 00 01 13 02 34 78 36 08 9f 25 04 00 01 13 02   .....4x6..%.....
|   3760: 34 78 35 0f 18 00 09 00 09 13 34 78 08 9f 23 04   4x5.......4x..#.
|   3776: 00 01 13 02 34 78 33 0f 36 00 08 9f 21 04 00 01   ....4x3.6...!...
|   3792: 13 02 34 78 31 09 97 42 04 00 01 15 02 33 78 31   ..4x1..B.....3x1
|   3808: 30 08 97 41 04 00 01 13 02 33 78 39 08 97 40 04   0..A.....3x9..@.
|   3824: 00 01 13 02 33 78 38 08 97 3f 04 00 01 13 02 33   ....3x8..?.....3
|   3840: 78 37 08 97 3e 04 00 01 13 02 33 78 36 08 97 3d   x7..>.....3x6..=
|   3856: 04 00 01 13 02 33 78 35 0f 7d 00 09 00 09 13 33   .....3x5.......3
|   3872: 78 08 97 3b 04 00 01 13 02 33 78 33 0f 9b 00 08   x..;.....3x3....
|   3888: 97 39 04 00 01 13 02 33 78 31 09 8f 5a 04 00 01   .9.....3x1..Z...
|   3904: 15 02 32 78 31 30 08 8f 59 04 00 01 13 02 32 78   ..2x10..Y.....2x
|   3920: 39 08 8f 58 04 00 01 13 02 32 78 38 08 8f 57 04   9..X.....2x8..W.
|   3936: 00 01 13 02 32 78 37 08 8f 56 04 00 01 13 02 32   ....2x7..V.....2
|   3952: 78 36 08 8f 55 04 00 01 13 02 32 78 35 0f e2 00   x6..U.....2x5...
|   3968: 09 00 09 13 32 78 08 8f 53 04 00 01 13 02 32 78   ....2x..S.....2x
|   3984: 33 00 00 00 08 8f 51 04 00 01 13 02 32 78 31 09   3.....Q.....2x1.
|   4000: 87 72 04 00 01 15 02 31 78 31 30 08 87 71 04 00   .r.....1x10..q..
|   4016: 01 13 02 31 78 39 08 87 70 04 00 01 13 02 31 78   ...1x9..p.....1x
|   4032: 38 08 87 6f 04 00 01 13 02 31 78 37 08 87 6e 04   8..o.....1x7..n.
|   4048: 00 01 13 02 31 78 36 08 87 6d 04 00 01 13 02 31   ....1x6..m.....1
|   4064: 78 35 0f f8 00 09 00 09 13 31 78 08 87 6b 04 00   x5.......1x..k..
|   4080: 01 13 02 31 78 33 00 00 00 00 00 08 00 01 00 03   ...1x3..........
| page 4 offset 12288
|      0: 0d 00 00 00 03 01 87 00 0b 2d 06 5a 01 87 00 00   .........-.Z....
|    384: 00 00 00 00 00 00 00 89 50 03 04 00 93 24 00 00   ........P....$..
|    400: 00 32 00 00 00 00 00 00 23 2f 00 00 00 09 00 00   .2......#/......
|    416: 00 0b 00 00 00 07 00 00 00 09 00 00 00 00 00 00   ................
|    432: 23 2e 00 00 00 09 00 00 00 0b 00 00 00 06 00 00   #...............
|    448: 00 08 00 00 00 00 00 00 23 2d 00 00 00 09 00 00   ........#-......
|    464: 00 0b 00 00 00 05 00 00 00 07 00 00 00 00 00 00   ................
|    480: 23 2c 00 00 00 09 00 00 00 0b 00 00 00 04 00 00   #,..............
|    496: 00 06 00 00 00 00 00 00 23 2b 00 00 00 09 00 00   ........#+......
|    512: 00 0b 00 00 00 03 00 00 00 05 00 00 00 00 00 00   ................
|    528: 23 2a 00 00 00 09 00 00 00 0b 00 00 00 02 00 00   #*..............
|    544: 00 04 00 00 00 00 00 00 23 29 00 00 00 09 00 00   ........#)......
|    560: 00 0b 00 00 00 01 00 00 00 03 00 00 00 00 00 00   ................
|    576: 1f 4a 00 00 00 08 00 00 00 0a 00 00 00 0a 00 00   .J..............
|    592: 00 0c 00 00 00 00 00 00 1f 49 00 00 00 08 00 00   .........I......
|    608: 00 0a 00 00 00 09 00 00 00 0b 00 00 00 00 00 00   ................
|    624: 1f 48 00 00 00 08 00 00 00 0a 00 00 00 08 00 00   .H..............
|    640: 00 0a 00 00 00 00 00 00 1f 47 00 00 00 08 00 00   .........G......
|    656: 00 0a 00 00 00 07 00 00 00 09 00 00 00 00 00 00   ................
|    672: 1f 46 00 00 00 08 00 00 00 0a 00 00 00 06 00 00   .F..............
|    688: 00 08 00 00 00 00 00 00 1f 45 00 00 00 08 00 00   .........E......
|    704: 00 0a 00 00 00 05 00 00 00 07 00 00 00 00 00 00   ................
|    720: 1f 44 00 00 00 08 00 00 00 0a 00 00 00 04 00 00   .D..............
|    736: 00 06 00 00 00 00 00 00 1f 43 00 00 00 08 00 00   .........C......
|    752: 00 0a 00 00 00 03 00 00 00 05 00 00 00 00 00 00   ................
|    768: 1f 42 00 00 00 08 00 00 00 0a 00 00 00 02 00 00   .B..............
|    784: 00 04 00 00 00 00 00 00 1f 41 00 00 00 08 00 00   .........A......
|    800: 00 0a 00 00 00 01 00 00 00 03 00 00 00 00 00 00   ................
|    816: 1b 62 00 00 00 07 00 00 00 09 00 00 00 0a 00 00   .b..............
|    832: 00 0c 00 00 00 00 00 00 1b 61 00 00 00 07 00 00   .........a......
|    848: 00 09 00 00 00 09 00 00 00 0b 00 00 00 00 00 00   ................
|    864: 1b 60 00 00 00 07 00 00 00 09 00 00 00 08 00 00   .`..............
|    880: 00 0a 00 00 00 00 00 00 1b 5f 00 00 00 07 00 00   ........._......
|    896: 00 09 00 00 00 07 00 00 00 09 00 00 00 00 00 00   ................
|    912: 1b 5e 00 00 00 07 00 00 00 09 00 00 00 06 00 00   .^..............
|    928: 00 08 00 00 00 00 00 00 1b 5d 00 00 00 07 00 00   .........]......
|    944: 00 09 00 00 00 05 00 00 00 07 00 00 00 00 00 00   ................
|    960: 1b 5c 00 00 00 07 00 00 00 09 00 00 00 04 00 00   ................
|    976: 00 06 00 00 00 00 00 00 1b 5b 00 00 00 07 00 00   .........[......
|    992: 00 09 00 00 00 03 00 00 00 05 00 00 00 00 00 00   ................
|   1008: 1b 5a 00 00 00 07 00 00 00 09 00 00 00 02 00 00   .Z..............
|   1024: 00 04 00 00 00 00 00 00 1b 59 00 00 00 07 00 00   .........Y......
|   1040: 00 09 00 00 00 01 00 00 00 03 00 00 00 00 00 00   ................
|   1056: 17 7a 00 00 00 06 00 00 00 08 00 00 00 0a 00 00   .z..............
|   1072: 00 0c 00 00 00 00 00 00 17 79 00 00 00 06 00 00   .........y......
|   1088: 00 08 00 00 00 09 00 00 00 0b 00 00 00 00 00 00   ................
|   1104: 17 78 00 00 00 06 00 00 00 08 00 00 00 08 00 00   .x..............
|   1120: 00 0a 00 00 00 00 00 00 17 77 00 00 00 06 00 00   .........w......
|   1136: 00 08 00 00 00 07 00 00 00 09 00 00 00 00 00 00   ................
|   1152: 17 76 00 00 00 06 00 00 00 08 00 00 00 06 00 00   .v..............
|   1168: 00 08 00 00 00 00 00 00 17 75 00 00 00 06 00 00   .........u......
|   1184: 00 08 00 00 00 05 00 00 00 07 00 00 00 00 00 00   ................
|   1200: 17 74 00 00 00 06 00 00 00 08 00 00 00 04 00 00   .t..............
|   1216: 00 06 00 00 00 00 00 00 17 73 00 00 00 06 00 00   .........s......
|   1232: 00 08 00 00 00 03 00 00 00 05 00 00 00 00 00 00   ................
|   1248: 17 72 00 00 00 06 00 00 00 08 00 00 00 02 00 00   .r..............
|   1264: 00 04 00 00 00 00 00 00 17 71 00 00 00 06 00 00   .........q......
|   1280: 00 08 00 00 00 01 00 00 00 03 00 00 00 00 00 00   ................
|   1296: 23 30 00 00 00 09 00 00 00 0b 00 00 00 08 00 00   #0..............
|   1312: 00 0a 00 00 00 00 00 00 23 31 00 00 00 09 00 00   ........#1......
|   1328: 00 0b 00 00 00 09 00 00 00 0b 00 00 00 00 00 00   ................
|   1344: 23 32 00 00 00 09 00 00 00 0b 00 00 00 0a 00 00   #2..............
|   1360: 00 0c 00 00 00 00 00 00 27 11 00 00 00 0a 00 00   ........'.......
|   1376: 00 0c 00 00 00 01 00 00 00 03 00 00 00 00 00 00   ................
|   1392: 27 12 00 00 00 0a 00 00 00 0c 00 00 00 02 00 00   '...............
|   1408: 00 04 00 00 00 00 00 00 27 13 00 00 00 0a 00 00   ........'.......
|   1424: 00 0c 00 00 00 03 00 00 00 05 00 00 00 00 00 00   ................
|   1440: 27 14 00 00 00 0a 00 00 00 0c 00 00 00 04 00 00   '...............
|   1456: 00 06 00 00 00 00 00 00 27 15 00 00 00 0a 00 00   ........'.......
|   1472: 00 0c 00 00 00 05 00 00 00 07 00 00 00 00 00 00   ................
|   1488: 27 16 00 00 00 0a 00 00 00 0c 00 00 00 06 00 00   '...............
|   1504: 00 08 00 00 00 00 00 00 27 17 00 00 00 0a 00 00   ........'.......
|   1520: 00 0c 00 00 00 07 00 00 00 09 00 00 00 00 00 00   ................
|   1536: 27 18 00 00 00 0a 00 00 00 0c 00 00 00 08 00 00   '...............
|   1552: 00 0a 00 00 00 00 00 00 27 19 00 00 00 0a 00 00   ........'.......
|   1568: 00 0c 00 00 00 09 00 00 00 0b 00 00 00 00 00 00   ................
|   1584: 27 1a 00 00 00 0a 00 00 00 0c 00 00 00 0a 00 00   '...............
|   1600: 00 0c 00 00 00 00 00 00 00 00 00 00 00 00 00 00   ................
|   1616: 00 00 00 00 00 00 00 00 00 00 89 50 02 04 00 93   ...........P....
|   1632: 24 00 00 00 32 00 00 00 00 00 00 13 8c 00 00 00   $...2...........
|   1648: 05 00 00 00 07 00 00 00 04 00 00 00 06 00 00 00   ................
|   1664: 00 00 00 0f a4 00 00 00 04 00 00 00 06 00 00 00   ................
|   1680: 04 00 00 00 06 00 00 00 00 00 00 0b bc 00 00 00   ................
|   1696: 03 00 00 00 05 00 00 00 04 00 00 00 06 00 00 00   ................
|   1712: 00 00 00 07 d4 00 00 00 02 00 00 00 04 00 00 00   ................
|   1728: 04 00 00 00 06 00 00 00 00 00 00 03 ec 00 00 00   ................
|   1744: 01 00 00 00 03 00 00 00 04 00 00 00 06 00 00 00   ................
|   1760: 00 00 00 13 8d 00 00 00 05 00 00 00 07 00 00 00   ................
|   1776: 05 00 00 00 07 00 00 00 00 00 00 0f a5 00 00 00   ................
|   1792: 04 00 00 00 06 00 00 00 05 00 00 00 07 00 00 00   ................
|   1808: 00 00 00 0b bd 00 00 00 03 00 00 00 05 00 00 00   ................
|   1824: 05 00 00 00 07 00 00 00 00 00 00 07 d5 00 00 00   ................
|   1840: 02 00 00 00 04 00 00 00 05 00 00 00 07 00 00 00   ................
|   1856: 00 00 00 03 ed 00 00 00 01 00 00 00 03 00 00 00   ................
|   1872: 05 00 00 00 07 00 00 00 00 00 00 13 8e 00 00 00   ................
|   1888: 05 00 00 00 07 00 00 00 06 00 00 00 08 00 00 00   ................
|   1904: 00 00 00 0f a6 00 00 00 04 00 00 00 06 00 00 00   ................
|   1920: 06 00 00 00 08 00 00 00 00 00 00 0b be 00 00 00   ................
|   1936: 03 00 00 00 05 00 00 00 06 00 00 00 08 00 00 00   ................
|   1952: 00 00 00 07 d6 00 00 00 02 00 00 00 04 00 00 00   ................
|   1968: 06 00 00 00 08 00 00 00 00 00 00 03 ee 00 00 00   ................
|   1984: 01 00 00 00 03 00 00 00 06 00 00 00 08 00 00 00   ................
|   2000: 00 00 00 13 8f 00 00 00 05 00 00 00 07 00 00 00   ................
|   2016: 07 00 00 00 09 00 00 00 00 00 00 0f a7 00 00 00   ................
|   2032: 04 00 00 00 06 00 00 00 07 00 00 00 09 00 00 00   ................
|   2048: 00 00 00 0b bf 00 00 00 03 00 00 00 05 00 00 00   ................
|   2064: 07 00 00 00 09 00 00 00 00 00 00 07 d7 00 00 00   ................
|   2080: 02 00 00 00 04 00 00 00 07 00 00 00 09 00 00 00   ................
|   2096: 00 00 00 03 ef 00 00 00 01 00 00 00 03 00 00 00   ................
|   2112: 07 00 00 00 09 00 00 00 00 00 00 13 90 00 00 00   ................
|   2128: 05 00 00 00 07 00 00 00 08 00 00 00 0a 00 00 00   ................
|   2144: 00 00 00 0f a8 00 00 00 04 00 00 00 06 00 00 00   ................
|   2160: 08 00 00 00 0a 00 00 00 00 00 00 0b c0 00 00 00   ................
|   2176: 03 00 00 00 05 00 00 00 08 00 00 00 0a 00 00 00   ................
|   2192: 00 00 00 07 d8 00 00 00 02 00 00 00 04 00 00 00   ................
|   2208: 08 00 00 00 0a 00 00 00 00 00 00 03 f0 00 00 00   ................
|   2224: 01 00 00 00 03 00 00 00 08 00 00 00 0a 00 00 00   ................
|   2240: 00 00 00 13 91 00 00 00 05 00 00 00 07 00 00 00   ................
|   2256: 09 00 00 00 0b 00 00 00 00 00 00 0f a9 00 00 00   ................
|   2272: 04 00 00 00 06 00 00 00 09 00 00 00 0b 00 00 00   ................
|   2288: 00 00 00 0b c1 00 00 00 03 00 00 00 05 00 00 00   ................
|   2304: 09 00 00 00 0b 00 00 00 00 00 00 07 d9 00 00 00   ................
|   2320: 02 00 00 00 04 00 00 00 09 00 00 00 0b 00 00 00   ................
|   2336: 00 00 00 03 f1 00 00 00 01 00 00 00 03 00 00 00   ................
|   2352: 09 00 00 00 0b 00 00 00 00 00 00 13 92 00 00 00   ................
|   2368: 05 00 00 00 07 00 00 00 0a 00 00 00 0c 00 00 00   ................
|   2384: 00 00 00 0f aa 00 00 00 04 00 00 00 06 00 00 00   ................
|   2400: 0a 00 00 00 0c 00 00 00 00 00 00 0b c2 00 00 00   ................
|   2416: 03 00 00 00 05 00 00 00 0a 00 00 00 0c 00 00 00   ................
|   2432: 00 00 00 07 da 00 00 00 02 00 00 00 04 00 00 00   ................
|   2448: 0a 00 00 00 0c 00 00 00 00 00 00 03 f2 00 00 00   ................
|   2464: 01 00 00 00 03 00 00 00 0a 00 00 00 0c 00 00 00   ................
|   2480: 00 00 00 03 eb 00 00 00 01 00 00 00 03 00 00 00   ................
|   2496: 03 00 00 00 05 00 00 00 00 00 00 07 d3 00 00 00   ................
|   2512: 02 00 00 00 04 00 00 00 03 00 00 00 05 00 00 00   ................
|   2528: 00 00 00 0b bb 00 00 00 03 00 00 00 05 00 00 00   ................
|   2544: 03 00 00 00 05 00 00 00 00 00 00 0f a3 00 00 00   ................
|   2560: 04 00 00 00 06 00 00 00 03 00 00 00 05 00 00 00   ................
|   2576: 00 00 00 13 8b 00 00 00 05 00 00 00 07 00 00 00   ................
|   2592: 03 00 00 00 05 00 00 00 00 00 00 03 ea 00 00 00   ................
|   2608: 01 00 00 00 03 00 00 00 02 00 00 00 04 00 00 00   ................
|   2624: 00 00 00 07 d2 00 00 00 02 00 00 00 04 00 00 00   ................
|   2640: 02 00 00 00 04 00 00 00 00 00 00 0b ba 00 00 00   ................
|   2656: 03 00 00 00 05 00 00 00 02 00 00 00 04 00 00 00   ................
|   2672: 00 00 00 0f a2 00 00 00 04 00 00 00 06 00 00 00   ................
|   2688: 02 00 00 00 04 00 00 00 00 00 00 13 8a 00 00 00   ................
|   2704: 05 00 00 00 07 00 00 00 02 00 00 00 04 00 00 00   ................
|   2720: 00 00 00 03 e9 00 00 00 01 00 00 00 03 00 00 00   ................
|   2736: 01 00 00 00 03 00 00 00 00 00 00 07 d1 00 00 00   ................
|   2752: 02 00 00 00 04 00 00 00 01 00 00 00 03 00 00 00   ................
|   2768: 00 00 00 0b b9 00 00 00 03 00 00 00 05 00 00 00   ................
|   2784: 01 00 00 00 03 00 00 00 00 00 00 0f a1 00 00 00   ................
|   2800: 04 00 00 00 06 00 00 00 01 00 00 00 03 00 00 00   ................
|   2816: 00 00 00 13 89 00 00 00 05 00 00 00 07 00 00 00   ................
|   2832: 01 00 00 00 03 00 00 00 00 00 00 00 00 00 00 00   ................
|   2848: 00 00 00 00 00 00 00 00 00 00 00 00 00 89 50 01   ..............P.
|   2864: 04 00 93 24 00 01 00 02 00 00 00 00 00 00 00 03   ...$............
|   2880: 00 00 00 06 00 00 00 0c 00 00 00 01 00 00 00 0c   ................
|   2896: 00 00 00 00 00 00 00 02 00 00 00 01 00 00 00 07   ................
|   2912: 00 00 00 01 00 00 00 0c 00 00 00 00 00 00 00 00   ................
| page 5 offset 16384
|      0: 0d 00 00 00 02 0f f6 00 0f f6 0f fb 00 00 00 00   ................
|   4080: 00 00 00 00 00 00 03 02 03 00 09 03 03 03 00 09   ................
| end rtree005.txt.db
.testctrl prng_seed 1 db
.testctrl internal_functions
SELECT DISTINCT * FROM t1;
SELECT id FROM t1 WHERE x0>=4 AND x1<=8 AND y0>=4 AND y0<8;
UPDATE t1 SET ex=printf('fancy-%s',ex) WHERE x0>=4 AND x1<=8 AND y0>=4 AND y0<8;
DELETE FROM t1 WHERE x0>-10 AND x1<=1.0 AND y0<92;
SELECT ex FROM t1 WHERE id IN (4005,9009);
SELECT rtreecheck('t1');

