.open --hexdb
| size 12288 pagesize 4096 filename seekscan002.txt.db
| page 1 offset 0
|      0: 53 51 4c 69 74 65 20 66 6f 72 6d 61 74 20 33 00   SQLite format 3.
|     16: 10 00 01 01 00 40 20 20 00 00 00 00 00 00 00 03   .....@  ........
|     32: 00 00 00 00 00 00 00 00 00 00 00 02 00 00 00 04   ................
|     48: 00 00 00 00 00 00 00 00 00 00 00 01 00 00 00 00   ................
|     96: 00 00 00 00 0d 00 00 00 02 0f 68 00 0f b5 0f 68   ..........h....h
|   3936: 00 00 00 00 00 00 00 00 4b 02 06 17 25 25 01 5b   ........K...%%.[
|   3952: 74 61 62 6c 65 73 71 6c 69 74 65 5f 73 74 61 74   tablesqlite_stat
|   3968: 31 73 71 6c 69 74 65 5f 73 74 61 74 31 03 43 52   1sqlite_stat1.CR
|   3984: 45 41 54 45 20 54 41 42 4c 45 20 73 71 6c 69 74   EATE TABLE sqlit
|   4000: 65 5f 73 74 61 74 31 28 74 62 6c 2c 69 64 78 2c   e_stat1(tbl,idx,
|   4016: 73 74 61 74 29 49 01 06 17 11 11 01 7f 74 61 62   stat)I.......tab
|   4032: 6c 65 74 31 74 31 02 43 52 45 41 54 45 20 54 41   let1t1.CREATE TA
|   4048: 42 4c 45 20 74 31 28 61 2c 62 2c 63 2c 64 2c 50   BLE t1(a,b,c,d,P
|   4064: 52 49 4d 41 52 59 20 4b 45 59 28 61 2c 62 2c 63   RIMARY KEY(a,b,c
|   4080: 29 29 20 57 49 54 48 4f 55 54 20 52 4f 57 49 44   )) WITHOUT ROWID
| page 2 offset 4096
|      0: 0a 00 00 00 0a 0e c1 00 0f e1 0f c1 0f a1 0f 81   ................
|     16: 0f 61 0f 41 0f 21 0f 01 0e e1 0e c1 00 00 00 00   .a.A.!..........
|   3776: 00 1f 05 08 01 3c 0f 0a 00 00 00 00 00 00 00 00   .....<..........
|   3808: 4a 1f 05 08 01 3c 0f 09 00 00 00 00 00 00 00 00   J....<..........
|   3840: 49 1f 05 08 01 3c 0f 08 00 00 00 00 00 00 00 00   I....<..........
|   3872: 48 1f 05 08 01 3c 0f 07 00 00 00 00 00 00 00 00   H....<..........
|   3904: 47 1f 05 08 01 3c 0f 06 00 00 00 00 00 00 00 00   G....<..........
|   3936: 46 1f 05 08 01 3c 0f 05 00 00 00 00 00 00 00 00   F....<..........
|   3968: 45 1f 05 08 01 3c 0f 04 00 00 00 00 00 00 00 00   E....<..........
|   4000: 44 1f 05 08 01 3c 0f 03 00 00 00 00 00 00 00 00   D....<..........
|   4032: 43 1f 05 08 01 3c 0f 02 00 00 00 00 00 00 00 00   C....<..........
|   4064: 42 1e 05 08 09 3c 0f 00 00 00 00 00 00 00 00 00   B....<..........
|   4080: 00 00 00 00 00 00 00 00 00 00 00 00 00 00 00 41   ...............A
| page 3 offset 8192
|      0: 0d 00 00 00 01 0f e9 00 0f e9 00 00 00 00 00 00   ................
|   4064: 00 00 00 00 00 00 00 00 00 15 01 04 11 11 27 74   ..............'t
|   4080: 31 74 31 35 30 30 30 30 30 20 31 31 20 34 20 32   1t1500000 11 4 2
| end seekscan002.txt.db
.testctrl prng_seed 1 db
.testctrl internal_functions
SELECT d FROM t1 WHERE a=0 AND b IN (-5,-4,-3,1,5,25,77,98);

