.open --hexdb
| size 16384 pagesize 4096 filename seekscan001.txt.db
| page 1 offset 0
|      0: 53 51 4c 69 74 65 20 66 6f 72 6d 61 74 20 33 00   SQLite format 3.
|     16: 10 00 01 01 00 40 20 20 00 00 00 00 00 00 00 04   .....@  ........
|     32: 00 00 00 00 00 00 00 00 00 00 00 03 00 00 00 04   ................
|     48: 00 00 00 00 00 00 00 00 00 00 00 01 00 00 00 00   ................
|     96: 00 00 00 00 0d 00 00 00 03 0f 42 00 0f c1 0f 74   ..........B....t
|    112: 0f 42 00 00 00 00 00 00 00 00 00 00 00 00 00 00   .B..............
|   3904: 00 00 30 03 06 17 15 11 01 49 69 6e 64 65 78 74   ..0......Iindext
|   3920: 31 78 31 74 31 04 43 52 45 41 54 45 20 49 4e 44   1x1t1.CREATE IND
|   3936: 45 58 20 74 31 78 31 20 4f 4e 20 74 31 28 62 2c   EX t1x1 ON t1(b,
|   3952: 62 2c 63 29 4b 02 06 17 25 25 01 5b 74 61 62 6c   b,c)K...%%.[tabl
|   3968: 65 73 71 6c 69 74 65 5f 73 74 61 74 31 73 71 6c   esqlite_stat1sql
|   3984: 69 74 65 5f 73 74 61 74 31 03 43 52 45 41 54 45   ite_stat1.CREATE
|   4000: 20 54 41 42 4c 45 20 73 71 6c 69 74 65 5f 73 74    TABLE sqlite_st
|   4016: 61 74 31 28 74 62 6c 2c 69 64 78 2c 73 74 61 74   at1(tbl,idx,stat
|   4032: 29 3d 01 06 17 11 11 01 67 74 61 62 6c 65 74 31   )=......gtablet1
|   4048: 74 31 02 43 52 45 41 54 45 20 54 41 42 4c 45 20   t1.CREATE TABLE 
|   4064: 74 31 28 61 20 54 45 58 54 2c 20 62 20 49 4e 54   t1(a TEXT, b INT
|   4080: 2c 20 63 20 54 45 58 54 2c 20 64 20 49 4e 54 29   , c TEXT, d INT)
| page 2 offset 4096
|      0: 0d 00 00 00 02 0f db 00 0f ee 0f db 00 00 00 00   ................
|   4048: 00 00 00 00 00 00 00 00 00 00 00 11 02 05 13 02   ................
|   4064: 19 01 61 62 63 00 ea 6d 69 64 64 6c 65 05 10 01   ..abc..middle...
|   4080: 05 13 01 19 01 61 62 63 7b 6d 69 64 64 6c 65 05   .....abc.middle.
| page 3 offset 8192
|      0: 0d 00 00 00 01 0f e9 00 0f e9 00 00 00 00 00 00   ................
|   4064: 00 00 00 00 00 00 00 00 00 15 01 04 11 15 23 74   ..............#t
|   4080: 31 74 31 78 31 31 30 30 30 30 20 35 20 32 20 31   1t1x110000 5 2 1
| page 4 offset 12288
|      0: 0a 00 00 00 02 0f e1 00 0f f2 0f e1 00 00 00 00   ................
|   4064: 00 10 05 02 02 19 01 00 ea 00 ea 6d 69 64 64 6c   ...........middl
|   4080: 65 02 0d 05 01 01 19 09 7b 7b 6d 69 64 64 6c 65   e.........middle
| end seekscan001.txt.db
.testctrl prng_seed 1 db
.testctrl internal_functions
SELECT * FROM t1 WHERE b IN (234, 345) AND c BETWEEN 'lower' AND 'upper';
PRAGMA reverse_unordered_selects (1) ;
SELECT * FROM t1 WHERE b IN (234, 345) AND c BETWEEN 'lower' AND 'upper';
SELECT * FROM t1 WHERE b IN (234, 345) AND c BETWEEN -c AND 'upper';

