.open --hexdb
| size 16384 pagesize 4096 filename select001.txt.db
| page 1 offset 0
|      0: 53 51 4c 69 74 65 20 66 6f 72 6d 61 74 20 33 00   SQLite format 3.
|     16: 10 00 01 01 00 40 20 20 00 00 00 00 00 00 00 04   .....@  ........
|     32: 00 00 00 00 00 00 00 00 00 00 00 03 00 00 00 04   ................
|     48: 00 00 00 00 00 00 00 00 00 00 00 03 00 00 00 00   ................
|     96: 00 00 00 00 0d 00 00 00 03 0e ce 00 0f 9a 0f 34   ...............4
|    112: 0e ce 00 00 00 00 00 00 00 00 00 00 00 00 00 00   ................
|   3776: 00 00 00 00 00 00 00 00 00 00 00 00 00 00 64 03   ..............d.
|   3792: 07 21 15 15 01 81 21 00 74 00 61 00 62 00 6c 00   .!....!.t.a.b.l.
|   3808: 65 00 74 00 33 00 74 00 33 04 00 43 00 52 00 45   e.t.3.t.3..C.R.E
|   3824: 00 41 00 54 00 45 00 20 00 54 00 41 00 42 00 4c   .A.T.E. .T.A.B.L
|   3840: 00 45 00 20 00 74 00 33 00 28 00 61 00 2c 00 62   .E. .t.3.(.a.,.b
|   3856: 00 2c 00 63 00 20 00 43 00 4f 00 4c 00 4c 00 41   .,.c. .C.O.L.L.A
|   3872: 00 54 00 45 00 20 00 4e 00 4f 00 43 00 41 00 53   .T.E. .N.O.C.A.S
|   3888: 00 45 00 29 64 02 07 21 15 15 01 81 21 00 74 00   .E.)d..!....!.t.
|   3904: 61 00 62 00 6c 00 65 00 74 00 32 00 74 00 32 03   a.b.l.e.t.2.t.2.
|   3920: 00 43 00 52 00 45 00 41 00 54 00 45 00 20 00 54   .C.R.E.A.T.E. .T
|   3936: 00 41 00 42 00 4c 00 45 00 20 00 74 00 32 00 28   .A.B.L.E. .t.2.(
|   3952: 00 78 00 2c 00 79 00 2c 00 7a 00 20 00 43 00 4f   .x.,.y.,.z. .C.O
|   3968: 00 4c 00 4c 00 41 00 54 00 45 00 20 00 4e 00 4f   .L.L.A.T.E. .N.O
|   3984: 00 43 00 41 00 53 00 45 00 29 64 01 07 21 15 15   .C.A.S.E.)d..!..
|   4000: 01 81 21 00 74 00 61 00 62 00 6c 00 65 00 74 00   ..!.t.a.b.l.e.t.
|   4016: 31 00 74 00 31 02 00 43 00 52 00 45 00 41 00 54   1.t.1..C.R.E.A.T
|   4032: 00 45 00 20 00 54 00 41 00 42 00 4c 00 45 00 20   .E. .T.A.B.L.E. 
|   4048: 00 74 00 31 00 28 00 61 00 2c 00 62 00 2c 00 63   .t.1.(.a.,.b.,.c
|   4064: 00 20 00 43 00 4f 00 4c 00 4c 00 41 00 54 00 45   . .C.O.L.L.A.T.E
|   4080: 00 20 00 4e 00 4f 00 43 00 41 00 53 00 45 00 29   . .N.O.C.A.S.E.)
| page 2 offset 4096
|      0: 0d 00 00 00 05 0f b9 00 0f f6 0f e4 0f da 0f c6   ................
|     16: 0f b9 00 00 00 00 00 00 00 00 00 00 00 00 00 00   ................
|   4016: 00 00 00 00 00 00 00 00 00 0b 05 04 12 11 11 61   ...............a
|   4032: 62 63 00 65 00 65 12 04 04 21 11 11 00 68 00 65   bc.e.e...!...h.e
|   4048: 00 6c 00 6c 00 6f 00 64 00 44 08 03 04 00 11 11   .l.l.o.d.D......
|   4064: 00 43 00 63 10 02 04 07 11 11 40 23 cc cc cc cc   .C.c......@#....
|   4080: cc cd 00 62 00 42 08 01 04 09 11 11 00 61 00 61   ...b.B.......a.a
| page 3 offset 8192
|      0: 0d 00 00 00 05 0f bb 00 0f f6 0f e6 0f d8 0f c6   ................
|     16: 0f bb 00 00 00 00 00 00 00 00 00 00 00 00 00 00   ................
|   4016: 00 00 00 00 00 00 00 00 00 00 00 09 05 04 01 11   ................
|   4032: 11 e9 00 59 00 79 10 04 04 07 11 11 41 53 d6 20   ...Y.y......AS. 
|   4048: 00 00 00 00 00 58 00 78 0c 03 04 14 11 11 68 61   .....X.x......ha
|   4064: 72 65 00 6d 00 4d 0e 02 04 19 11 11 00 6d 00 61   re.m.M.......m.a
|   4080: 00 64 00 5a 00 7a 08 01 04 00 11 11 00 55 00 75   .d.Z.z.......U.u
| page 4 offset 12288
|      0: 0d 00 00 00 0a 0f 74 00 0f f6 0f e4 0f da 0f c6   ......t.........
|     16: 0f b9 0f af 0f 9f 0f 91 0f 7f 0f 74 00 00 00 00   ...........t....
|   3952: 00 00 00 00 09 0a 04 01 11 11 e9 00 59 00 79 10   ............Y.y.
|   3968: 09 04 07 11 11 41 53 d6 20 00 00 00 00 00 58 00   .....AS. .....X.
|   3984: 78 0c 08 04 14 11 11 68 61 72 65 00 6d 00 4d 0e   x......hare.m.M.
|   4000: 07 04 19 11 11 00 6d 00 61 00 64 00 5a 00 7a 08   ......m.a.d.Z.z.
|   4016: 06 04 00 11 11 00 55 00 75 0b 05 04 12 11 11 61   ......U.u......a
|   4032: 62 63 00 65 00 65 12 04 04 21 11 11 00 68 00 65   bc.e.e...!...h.e
|   4048: 00 6c 00 6c 00 6f 00 64 00 44 08 03 04 00 11 11   .l.l.o.d.D......
|   4064: 00 43 00 63 10 02 04 07 11 11 40 23 cc cc cc cc   .C.c......@#....
|   4080: cc cd 00 62 00 42 08 01 04 09 11 11 00 61 00 61   ...b.B.......a.a
| end select001.txt.db
.testctrl prng_seed 1 db
.testctrl internal_functions
SELECT a,b,c FROM t1 UNION ALL SELECT x,y,z FROM t2
ORDER BY a,b,c;
SELECT a,b,c FROM t1 EXCEPT SELECT a,b,c FROM t1 WHERE b>='d'
ORDER BY a DESC,b DESC,c ASC;
SELECT a,b,c FROM t1 INTERSECT SELECT a,b,c FROM t1 WHERE b>='d'
ORDER BY a,b,c;

