.open --hexdb
| size 131072 pagesize 4096 filename select008.txt.db
| page 1 offset 0
|      0: 53 51 4c 69 74 65 20 66 6f 72 6d 61 74 20 33 00   SQLite format 3.
|     16: 10 00 01 01 00 40 20 20 00 00 00 00 00 00 00 20   .....@  ....... 
|     32: 00 00 00 00 00 00 00 00 00 00 00 1c 00 00 00 04   ................
|     48: 00 00 00 00 00 00 00 00 00 00 00 01 00 00 00 00   ................
|     96: 00 00 00 00 05 00 00 00 02 0f f6 00 00 00 00 1c   ................
|    112: 0f fb 0f f6 0b 10 0a 12 09 14 07 af 06 44 04 d9   .............D..
|    128: 03 6e 02 03 00 98 00 90 00 00 00 00 00 00 00 00   .n..............
|    144: 00 00 00 08 00 00 00 00 82 68 0d 07 17 35 35 01   .........h...55.
|    160: 84 73 74 61 62 6c 65 45 3a 6e 66 6f 3a 46 69 6c   .stableE:nfo:Fil
|    176: 65 44 61 74 61 4f 62 6a 65 63 74 45 3a 6e 66 6f   eDataObjectE:nfo
|    192: 3a 46 69 6c 65 44 61 74 61 4f 62 6a 65 63 74 0e   :FileDataObject.
|    208: 43 52 45 41 54 45 20 54 41 42 4c 45 20 22 45 3a   CREATE TABLE .E:
|    224: 6e 66 6f 3a 46 69 6c 65 44 61 74 61 4f 62 6a 65   nfo:FileDataObje
|    240: 63 74 22 20 28 49 44 20 49 4e 54 45 47 45 52 20   ct. (ID INTEGER 
|    256: 4e 4f 54 20 4e 55 4c 4c 20 50 52 49 4d 41 52 59   NOT NULL PRIMARY
|    272: 20 4b 45 59 2c 20 22 6e 66 6f 3a 66 69 6c 65 4c    KEY, .nfo:fileL
|    288: 61 73 74 41 63 63 65 73 73 65 64 22 20 49 4e 54   astAccessed. INT
|    304: 45 47 45 52 2c 20 22 6e 66 6f 3a 66 69 6c 65 43   EGER, .nfo:fileC
|    320: 72 65 61 74 65 64 22 20 49 4e 54 45 47 45 52 2c   reated. INTEGER,
|    336: 20 22 6e 66 6f 3a 66 69 6c 65 53 69 7a 65 22 20    .nfo:fileSize. 
|    352: 49 4e 54 45 47 45 52 2c 20 22 6e 66 6f 3a 70 65   INTEGER, .nfo:pe
|    368: 72 6d 69 73 73 69 6f 6e 73 22 20 54 45 58 54 2c   rmissions. TEXT,
|    384: 20 22 6e 66 6f 3a 66 69 6c 65 4e 61 6d 65 22 20    .nfo:fileName. 
|    400: 54 45 58 54 2c 20 22 6e 66 6f 3a 68 61 73 48 61   TEXT, .nfo:hasHa
|    416: 73 68 22 20 49 4e 54 45 47 45 52 2c 20 22 6e 66   sh. INTEGER, .nf
|    432: 6f 3a 66 69 6c 65 4f 77 6e 65 72 22 20 49 4e 54   o:fileOwner. INT
|    448: 45 47 45 52 2c 20 22 6e 66 6f 3a 66 69 6c 65 4c   EGER, .nfo:fileL
|    464: 61 73 74 4d 6f 64 69 66 69 65 64 22 20 49 4e 54   astModified. INT
|    480: 45 47 45 52 2c 20 22 74 72 61 63 6b 65 72 3a 65   EGER, .tracker:e
|    496: 78 74 72 61 63 74 6f 72 48 61 73 68 22 20 54 45   xtractorHash. TE
|    512: 58 54 29 82 68 0c 07 17 35 35 01 84 73 74 61 62   XT).h...55..stab
|    528: 6c 65 44 3a 6e 66 6f 3a 46 69 6c 65 44 61 74 61   leD:nfo:FileData
|    544: 4f 62 6a 65 63 74 44 3a 6e 66 6f 3a 46 69 6c 65   ObjectD:nfo:File
|    560: 44 61 74 61 4f 62 6a 65 63 74 0d 43 52 45 41 54   DataObject.CREAT
|    576: 45 20 54 41 42 4c 45 20 22 44 3a 6e 66 6f 3a 46   E TABLE .D:nfo:F
|    592: 69 6c 65 44 61 74 61 4f 62 6a 65 63 74 22 20 28   ileDataObject. (
|    608: 49 44 20 49 4e 54 45 47 45 52 20 4e 4f 54 20 4e   ID INTEGER NOT N
|    624: 55 4c 4c 20 50 52 49 4d 41 52 59 20 4b 45 59 2c   ULL PRIMARY KEY,
|    640: 20 22 6e 66 6f 3a 66 69 6c 65 4c 61 73 74 41 63    .nfo:fileLastAc
|    656: 63 65 73 73 65 64 22 20 49 4e 54 45 47 45 52 2c   cessed. INTEGER,
|    672: 20 22 6e 66 6f 3a 66 69 6c 65 43 72 65 61 74 65    .nfo:fileCreate
|    688: 64 22 20 49 4e 54 45 47 45 52 2c 20 22 6e 66 6f   d. INTEGER, .nfo
|    704: 3a 66 69 6c 65 53 69 7a 65 22 20 49 4e 54 45 47   :fileSize. INTEG
|    720: 45 52 2c 20 22 6e 66 6f 3a 70 65 72 6d 69 73 73   ER, .nfo:permiss
|    736: 69 6f 6e 73 22 20 54 45 58 54 2c 20 22 6e 66 6f   ions. TEXT, .nfo
|    752: 3a 66 69 6c 65 4e 61 6d 65 22 20 54 45 58 54 2c   :fileName. TEXT,
|    768: 20 22 6e 66 6f 3a 68 61 73 48 61 73 68 22 20 49    .nfo:hasHash. I
|    784: 4e 54 45 47 45 52 2c 20 22 6e 66 6f 3a 66 69 6c   NTEGER, .nfo:fil
|    800: 65 4f 77 6e 65 72 22 20 49 4e 54 45 47 45 52 2c   eOwner. INTEGER,
|    816: 20 22 6e 66 6f 3a 66 69 6c 65 4c 61 73 74 4d 6f    .nfo:fileLastMo
|    832: 64 69 66 69 65 64 22 20 49 4e 54 45 47 45 52 2c   dified. INTEGER,
|    848: 20 22 74 72 61 63 6b 65 72 3a 65 78 74 72 61 63    .tracker:extrac
|    864: 74 6f 72 48 61 73 68 22 20 54 45 58 54 29 82 68   torHash. TEXT).h
|    880: 0b 07 17 35 35 01 84 73 74 61 62 6c 65 43 3a 6e   ...55..stableC:n
|    896: 66 6f 3a 46 69 6c 65 44 61 74 61 4f 62 6a 65 63   fo:FileDataObjec
|    912: 74 43 3a 6e 66 6f 3a 46 69 6c 65 44 61 74 61 4f   tC:nfo:FileDataO
|    928: 62 6a 65 63 74 0c 43 52 45 41 54 45 20 54 41 42   bject.CREATE TAB
|    944: 4c 45 20 22 43 3a 6e 66 6f 3a 46 69 6c 65 44 61   LE .C:nfo:FileDa
|    960: 74 61 4f 62 6a 65 63 74 22 20 28 49 44 20 49 4e   taObject. (ID IN
|    976: 54 45 47 45 52 20 4e 4f 54 20 4e 55 4c 4c 20 50   TEGER NOT NULL P
|    992: 52 49 4d 41 52 59 20 4b 45 59 2c 20 22 6e 66 6f   RIMARY KEY, .nfo
|   1008: 3a 66 69 6c 65 4c 61 73 74 41 63 63 65 73 73 65   :fileLastAccesse
|   1024: 64 22 20 49 4e 54 45 47 45 52 2c 20 22 6e 66 6f   d. INTEGER, .nfo
|   1040: 3a 66 69 6c 65 43 72 65 61 74 65 64 22 20 49 4e   :fileCreated. IN
|   1056: 54 45 47 45 52 2c 20 22 6e 66 6f 3a 66 69 6c 65   TEGER, .nfo:file
|   1072: 53 69 7a 65 22 20 49 4e 54 45 47 45 52 2c 20 22   Size. INTEGER, .
|   1088: 6e 66 6f 3a 70 65 72 6d 69 73 73 69 6f 6e 73 22   nfo:permissions.
|   1104: 20 54 45 58 54 2c 20 22 6e 66 6f 3a 66 69 6c 65    TEXT, .nfo:file
|   1120: 4e 61 6d 65 22 20 54 45 58 54 2c 20 22 6e 66 6f   Name. TEXT, .nfo
|   1136: 3a 68 61 73 48 61 73 68 22 20 49 4e 54 45 47 45   :hasHash. INTEGE
|   1152: 52 2c 20 22 6e 66 6f 3a 66 69 6c 65 4f 77 6e 65   R, .nfo:fileOwne
|   1168: 72 22 20 49 4e 54 45 47 45 52 2c 20 22 6e 66 6f   r. INTEGER, .nfo
|   1184: 3a 66 69 6c 65 4c 61 73 74 4d 6f 64 69 66 69 65   :fileLastModifie
|   1200: 64 22 20 49 4e 54 45 47 45 52 2c 20 22 74 72 61   d. INTEGER, .tra
|   1216: 63 6b 65 72 3a 65 78 74 72 61 63 74 6f 72 48 61   cker:extractorHa
|   1232: 73 68 22 20 54 45 58 54 29 82 68 0a 07 17 35 35   sh. TEXT).h...55
|   1248: 01 84 73 74 61 62 6c 65 42 3a 6e 66 6f 3a 46 69   ..stableB:nfo:Fi
|   1264: 6c 65 44 61 74 61 4f 62 6a 65 63 74 42 3a 6e 66   leDataObjectB:nf
|   1280: 6f 3a 46 69 6c 65 44 61 74 61 4f 62 6a 65 63 74   o:FileDataObject
|   1296: 0b 43 52 45 41 54 45 20 54 41 42 4c 45 20 22 42   .CREATE TABLE .B
|   1312: 3a 6e 66 6f 3a 46 69 6c 65 44 61 74 61 4f 62 6a   :nfo:FileDataObj
|   1328: 65 63 74 22 20 28 49 44 20 49 4e 54 45 47 45 52   ect. (ID INTEGER
|   1344: 20 4e 4f 54 20 4e 55 4c 4c 20 50 52 49 4d 41 52    NOT NULL PRIMAR
|   1360: 59 20 4b 45 59 2c 20 22 6e 66 6f 3a 66 69 6c 65   Y KEY, .nfo:file
|   1376: 4c 61 73 74 41 63 63 65 73 73 65 64 22 20 49 4e   LastAccessed. IN
|   1392: 54 45 47 45 52 2c 20 22 6e 66 6f 3a 66 69 6c 65   TEGER, .nfo:file
|   1408: 43 72 65 61 74 65 64 22 20 49 4e 54 45 47 45 52   Created. INTEGER
|   1424: 2c 20 22 6e 66 6f 3a 66 69 6c 65 53 69 7a 65 22   , .nfo:fileSize.
|   1440: 20 49 4e 54 45 47 45 52 2c 20 22 6e 66 6f 3a 70    INTEGER, .nfo:p
|   1456: 65 72 6d 69 73 73 69 6f 6e 73 22 20 54 45 58 54   ermissions. TEXT
|   1472: 2c 20 22 6e 66 6f 3a 66 69 6c 65 4e 61 6d 65 22   , .nfo:fileName.
|   1488: 20 54 45 58 54 2c 20 22 6e 66 6f 3a 68 61 73 48    TEXT, .nfo:hasH
|   1504: 61 73 68 22 20 49 4e 54 45 47 45 52 2c 20 22 6e   ash. INTEGER, .n
|   1520: 66 6f 3a 66 69 6c 65 4f 77 6e 65 72 22 20 49 4e   fo:fileOwner. IN
|   1536: 54 45 47 45 52 2c 20 22 6e 66 6f 3a 66 69 6c 65   TEGER, .nfo:file
|   1552: 4c 61 73 74 4d 6f 64 69 66 69 65 64 22 20 49 4e   LastModified. IN
|   1568: 54 45 47 45 52 2c 20 22 74 72 61 63 6b 65 72 3a   TEGER, .tracker:
|   1584: 65 78 74 72 61 63 74 6f 72 48 61 73 68 22 20 54   extractorHash. T
|   1600: 45 58 54 29 82 68 09 07 17 35 35 01 84 73 74 61   EXT).h...55..sta
|   1616: 62 6c 65 41 3a 6e 66 6f 3a 46 69 6c 65 44 61 74   bleA:nfo:FileDat
|   1632: 61 4f 62 6a 65 63 74 41 3a 6e 66 6f 3a 46 69 6c   aObjectA:nfo:Fil
|   1648: 65 44 61 74 61 4f 62 6a 65 63 74 0a 43 52 45 41   eDataObject.CREA
|   1664: 54 45 20 54 41 42 4c 45 20 22 41 3a 6e 66 6f 3a   TE TABLE .A:nfo:
|   1680: 46 69 6c 65 44 61 74 61 4f 62 6a 65 63 74 22 20   FileDataObject. 
|   1696: 28 49 44 20 49 4e 54 45 47 45 52 20 4e 4f 54 20   (ID INTEGER NOT 
|   1712: 4e 55 4c 4c 20 50 52 49 4d 41 52 59 20 4b 45 59   NULL PRIMARY KEY
|   1728: 2c 20 22 6e 66 6f 3a 66 69 6c 65 4c 61 73 74 41   , .nfo:fileLastA
|   1744: 63 63 65 73 73 65 64 22 20 49 4e 54 45 47 45 52   ccessed. INTEGER
|   1760: 2c 20 22 6e 66 6f 3a 66 69 6c 65 43 72 65 61 74   , .nfo:fileCreat
|   1776: 65 64 22 20 49 4e 54 45 47 45 52 2c 20 22 6e 66   ed. INTEGER, .nf
|   1792: 6f 3a 66 69 6c 65 53 69 7a 65 22 20 49 4e 54 45   o:fileSize. INTE
|   1808: 47 45 52 2c 20 22 6e 66 6f 3a 70 65 72 6d 69 73   GER, .nfo:permis
|   1824: 73 69 6f 6e 73 22 20 54 45 58 54 2c 20 22 6e 66   sions. TEXT, .nf
|   1840: 6f 3a 66 69 6c 65 4e 61 6d 65 22 20 54 45 58 54   o:fileName. TEXT
|   1856: 2c 20 22 6e 66 6f 3a 68 61 73 48 61 73 68 22 20   , .nfo:hasHash. 
|   1872: 49 4e 54 45 47 45 52 2c 20 22 6e 66 6f 3a 66 69   INTEGER, .nfo:fi
|   1888: 6c 65 4f 77 6e 65 72 22 20 49 4e 54 45 47 45 52   leOwner. INTEGER
|   1904: 2c 20 22 6e 66 6f 3a 66 69 6c 65 4c 61 73 74 4d   , .nfo:fileLastM
|   1920: 6f 64 69 66 69 65 64 22 20 49 4e 54 45 47 45 52   odified. INTEGER
|   1936: 2c 20 22 74 72 61 63 6b 65 72 3a 65 78 74 72 61   , .tracker:extra
|   1952: 63 74 6f 72 48 61 73 68 22 20 54 45 58 54 29 82   ctorHash. TEXT).
|   1968: 62 08 07 17 31 31 01 84 6f 74 61 62 6c 65 6e 66   b...11..otablenf
|   1984: 6f 3a 46 69 6c 65 44 61 74 61 4f 62 6a 65 63 74   o:FileDataObject
|   2000: 6e 66 6f 3a 46 69 6c 65 44 61 74 61 4f 62 6a 65   nfo:FileDataObje
|   2016: 63 74 09 43 52 45 41 54 45 20 54 41 42 4c 45 20   ct.CREATE TABLE 
|   2032: 22 6e 66 6f 3a 46 69 6c 65 44 61 74 61 4f 62 6a   .nfo:FileDataObj
|   2048: 65 63 74 22 20 28 49 44 20 49 4e 54 45 47 45 52   ect. (ID INTEGER
|   2064: 20 4e 4f 54 20 4e 55 4c 4c 20 50 52 49 4d 41 52    NOT NULL PRIMAR
|   2080: 59 20 4b 45 59 2c 20 22 6e 66 6f 3a 66 69 6c 65   Y KEY, .nfo:file
|   2096: 4c 61 73 74 41 63 63 65 73 73 65 64 22 20 49 4e   LastAccessed. IN
|   2112: 54 45 47 45 52 2c 20 22 6e 66 6f 3a 66 69 6c 65   TEGER, .nfo:file
|   2128: 43 72 65 61 74 65 64 22 20 49 4e 54 45 47 45 52   Created. INTEGER
|   2144: 2c 20 22 6e 66 6f 3a 66 69 6c 65 53 69 7a 65 22   , .nfo:fileSize.
|   2160: 20 49 4e 54 45 47 45 52 2c 20 22 6e 66 6f 3a 70    INTEGER, .nfo:p
|   2176: 65 72 6d 69 73 73 69 6f 6e 73 22 20 54 45 58 54   ermissions. TEXT
|   2192: 2c 20 22 6e 66 6f 3a 66 69 6c 65 4e 61 6d 65 22   , .nfo:fileName.
|   2208: 20 54 45 58 54 2c 20 22 6e 66 6f 3a 68 61 73 48    TEXT, .nfo:hasH
|   2224: 61 73 68 22 20 49 4e 54 45 47 45 52 2c 20 22 6e   ash. INTEGER, .n
|   2240: 66 6f 3a 66 69 6c 65 4f 77 6e 65 72 22 20 49 4e   fo:fileOwner. IN
|   2256: 54 45 47 45 52 2c 20 22 6e 66 6f 3a 66 69 6c 65   TEGER, .nfo:file
|   2272: 4c 61 73 74 4d 6f 64 69 66 69 65 64 22 20 49 4e   LastModified. IN
|   2288: 54 45 47 45 52 2c 20 22 74 72 61 63 6b 65 72 3a   TEGER, .tracker:
|   2304: 65 78 74 72 61 63 74 6f 72 48 61 73 68 22 20 54   extractorHash. T
|   2320: 45 58 54 29 81 7b 07 07 17 3b 3b 01 83 0d 74 61   EXT).....;;...ta
|   2336: 62 6c 65 46 3a 74 72 61 63 6b 65 72 3a 49 6e 64   bleF:tracker:Ind
|   2352: 65 78 65 64 46 6f 6c 64 65 72 46 3a 74 72 61 63   exedFolderF:trac
|   2368: 6b 65 72 3a 49 6e 64 65 78 65 64 46 6f 6c 64 65   ker:IndexedFolde
|   2384: 72 08 43 52 45 41 54 45 20 54 41 42 4c 45 20 22   r.CREATE TABLE .
|   2400: 46 3a 74 72 61 63 6b 65 72 3a 49 6e 64 65 78 65   F:tracker:Indexe
|   2416: 64 46 6f 6c 64 65 72 22 20 28 49 44 20 49 4e 54   dFolder. (ID INT
|   2432: 45 47 45 52 20 4e 4f 54 20 4e 55 4c 4c 20 50 52   EGER NOT NULL PR
|   2448: 49 4d 41 52 59 20 4b 45 59 2c 20 22 74 72 61 63   IMARY KEY, .trac
|   2464: 6b 65 72 3a 75 6e 6d 6f 75 6e 74 44 61 74 65 22   ker:unmountDate.
|   2480: 20 49 4e 54 45 47 45 52 2c 20 22 74 72 61 63 6b    INTEGER, .track
|   2496: 65 72 3a 69 73 52 65 6d 6f 76 61 62 6c 65 22 20   er:isRemovable. 
|   2512: 49 4e 54 45 47 45 52 2c 20 22 74 72 61 63 6b 65   INTEGER, .tracke
|   2528: 72 3a 69 73 4f 70 74 69 63 61 6c 22 20 49 4e 54   r:isOptical. INT
|   2544: 45 47 45 52 2c 20 22 74 72 61 63 6b 65 72 3a 61   EGER, .tracker:a
|   2560: 76 61 69 6c 61 62 6c 65 22 20 49 4e 54 45 47 45   vailable. INTEGE
|   2576: 52 29 81 7b 06 07 17 3b 3b 01 83 0d 74 61 62 6c   R).....;;...tabl
|   2592: 65 45 3a 74 72 61 63 6b 65 72 3a 49 6e 64 65 78   eE:tracker:Index
|   2608: 65 64 46 6f 6c 64 65 72 45 3a 74 72 61 63 6b 65   edFolderE:tracke
|   2624: 72 3a 49 6e 64 65 78 65 64 46 6f 6c 64 65 72 07   r:IndexedFolder.
|   2640: 43 52 45 41 54 45 20 54 41 42 4c 45 20 22 45 3a   CREATE TABLE .E:
|   2656: 74 72 61 63 6b 65 72 3a 49 6e 64 65 78 65 64 46   tracker:IndexedF
|   2672: 6f 6c 64 65 72 22 20 28 49 44 20 49 4e 54 45 47   older. (ID INTEG
|   2688: 45 52 20 4e 4f 54 20 4e 55 4c 4c 20 50 52 49 4d   ER NOT NULL PRIM
|   2704: 41 52 59 20 4b 45 59 2c 20 22 74 72 61 63 6b 65   ARY KEY, .tracke
|   2720: 72 3a 75 6e 6d 6f 75 6e 74 44 61 74 65 22 20 49   r:unmountDate. I
|   2736: 4e 54 45 47 45 52 2c 20 22 74 72 61 63 6b 65 72   NTEGER, .tracker
|   2752: 3a 69 73 52 65 6d 6f 76 61 62 6c 65 22 20 49 4e   :isRemovable. IN
|   2768: 54 45 47 45 52 2c 20 22 74 72 61 63 6b 65 72 3a   TEGER, .tracker:
|   2784: 69 73 4f 70 74 69 63 61 6c 22 20 49 4e 54 45 47   isOptical. INTEG
|   2800: 45 52 2c 20 22 74 72 61 63 6b 65 72 3a 61 76 61   ER, .tracker:ava
|   2816: 69 6c 61 62 6c 65 22 20 49 4e 54 45 47 45 52 29   ilable. INTEGER)
|   2832: 81 7b 05 07 17 3b 3b 01 83 0d 74 61 62 6c 65 44   .....;;...tableD
|   2848: 3a 74 72 61 63 6b 65 72 3a 49 6e 64 65 78 65 64   :tracker:Indexed
|   2864: 46 6f 6c 64 65 72 44 3a 74 72 61 63 6b 65 72 3a   FolderD:tracker:
|   2880: 49 6e 64 65 78 65 64 46 6f 6c 64 65 72 06 43 52   IndexedFolder.CR
|   2896: 45 41 54 45 20 54 41 42 4c 45 20 22 44 3a 74 72   EATE TABLE .D:tr
|   2912: 61 63 6b 65 72 3a 49 6e 64 65 78 65 64 46 6f 6c   acker:IndexedFol
|   2928: 64 65 72 22 20 28 49 44 20 49 4e 54 45 47 45 52   der. (ID INTEGER
|   2944: 20 4e 4f 54 20 4e 55 4c 4c 20 50 52 49 4d 41 52    NOT NULL PRIMAR
|   2960: 59 20 4b 45 59 2c 20 22 74 72 61 63 6b 65 72 3a   Y KEY, .tracker:
|   2976: 75 6e 6d 6f 75 6e 74 44 61 74 65 22 20 49 4e 54   unmountDate. INT
|   2992: 45 47 45 52 2c 20 22 74 72 61 63 6b 65 72 3a 69   EGER, .tracker:i
|   3008: 73 52 65 6d 6f 76 61 62 6c 65 22 20 49 4e 54 45   sRemovable. INTE
|   3024: 47 45 52 2c 20 22 74 72 61 63 6b 65 72 3a 69 73   GER, .tracker:is
|   3040: 4f 70 74 69 63 61 6c 22 20 49 4e 54 45 47 45 52   Optical. INTEGER
|   3056: 2c 20 22 74 72 61 63 6b 65 72 3a 61 76 61 69 6c   , .tracker:avail
|   3072: 61 62 6c 65 22 20 49 4e 54 45 47 45 52 29 81 7b   able. INTEGER)..
|   3088: 04 07 17 3b 3b 01 83 0d 74 61 62 6c 65 43 3a 74   ...;;...tableC:t
|   3104: 72 61 63 6b 65 72 3a 49 6e 64 65 78 65 64 46 6f   racker:IndexedFo
|   3120: 6c 64 65 72 43 3a 74 72 61 63 6b 65 72 3a 49 6e   lderC:tracker:In
|   3136: 64 65 78 65 64 46 6f 6c 64 65 72 05 43 52 45 41   dexedFolder.CREA
|   3152: 54 45 20 54 41 42 4c 45 20 22 43 3a 74 72 61 63   TE TABLE .C:trac
|   3168: 6b 65 72 3a 49 6e 64 65 78 65 64 46 6f 6c 64 65   ker:IndexedFolde
|   3184: 72 22 20 28 49 44 20 49 4e 54 45 47 45 52 20 4e   r. (ID INTEGER N
|   3200: 4f 54 20 4e 55 4c 4c 20 50 52 49 4d 41 52 59 20   OT NULL PRIMARY 
|   3216: 4b 45 59 2c 20 22 74 72 61 63 6b 65 72 3a 75 6e   KEY, .tracker:un
|   3232: 6d 6f 75 6e 74 44 61 74 65 22 20 49 4e 54 45 47   mountDate. INTEG
|   3248: 45 52 2c 20 22 74 72 61 63 6b 65 72 3a 69 73 52   ER, .tracker:isR
|   3264: 65 6d 6f 76 61 62 6c 65 22 20 49 4e 54 45 47 45   emovable. INTEGE
|   3280: 52 2c 20 22 74 72 61 63 6b 65 72 3a 69 73 4f 70   R, .tracker:isOp
|   3296: 74 69 63 61 6c 22 20 49 4e 54 45 47 45 52 2c 20   tical. INTEGER, 
|   3312: 22 74 72 61 63 6b 65 72 3a 61 76 61 69 6c 61 62   .tracker:availab
|   3328: 6c 65 22 20 49 4e 54 45 47 45 52 29 81 7b 03 07   le. INTEGER)....
|   3344: 17 3b 3b 01 83 0d 74 61 62 6c 65 42 3a 74 72 61   .;;...tableB:tra
|   3360: 63 6b 65 72 3a 49 6e 64 65 78 65 64 46 6f 6c 64   cker:IndexedFold
|   3376: 65 72 42 3a 74 72 61 63 6b 65 72 3a 49 6e 64 65   erB:tracker:Inde
|   3392: 78 65 64 46 6f 6c 64 65 72 04 43 52 45 41 54 45   xedFolder.CREATE
|   3408: 20 54 41 42 4c 45 20 22 42 3a 74 72 61 63 6b 65    TABLE .B:tracke
|   3424: 72 3a 49 6e 64 65 78 65 64 46 6f 6c 64 65 72 22   r:IndexedFolder.
|   3440: 20 28 49 44 20 49 4e 54 45 47 45 52 20 4e 4f 54    (ID INTEGER NOT
|   3456: 20 4e 55 4c 4c 20 50 52 49 4d 41 52 59 20 4b 45    NULL PRIMARY KE
|   3472: 59 2c 20 22 74 72 61 63 6b 65 72 3a 75 6e 6d 6f   Y, .tracker:unmo
|   3488: 75 6e 74 44 61 74 65 22 20 49 4e 54 45 47 45 52   untDate. INTEGER
|   3504: 2c 20 22 74 72 61 63 6b 65 72 3a 69 73 52 65 6d   , .tracker:isRem
|   3520: 6f 76 61 62 6c 65 22 20 49 4e 54 45 47 45 52 2c   ovable. INTEGER,
|   3536: 20 22 74 72 61 63 6b 65 72 3a 69 73 4f 70 74 69    .tracker:isOpti
|   3552: 63 61 6c 22 20 49 4e 54 45 47 45 52 2c 20 22 74   cal. INTEGER, .t
|   3568: 72 61 63 6b 65 72 3a 61 76 61 69 6c 61 62 6c 65   racker:available
|   3584: 22 20 49 4e 54 45 47 45 52 29 81 7b 02 07 17 3b   . INTEGER).....;
|   3600: 3b 01 83 0d 74 61 62 6c 65 41 3a 74 72 61 63 6b   ;...tableA:track
|   3616: 65 72 3a 49 6e 64 65 78 65 64 46 6f 6c 64 65 72   er:IndexedFolder
|   3632: 41 3a 74 72 61 63 6b 65 72 3a 49 6e 64 65 78 65   A:tracker:Indexe
|   3648: 64 46 6f 6c 64 65 72 03 43 52 45 41 54 45 20 54   dFolder.CREATE T
|   3664: 41 42 4c 45 20 22 41 3a 74 72 61 63 6b 65 72 3a   ABLE .A:tracker:
|   3680: 49 6e 64 65 78 65 64 46 6f 6c 64 65 72 22 20 28   IndexedFolder. (
|   3696: 49 44 20 49 4e 54 45 47 45 52 20 4e 4f 54 20 4e   ID INTEGER NOT N
|   3712: 55 4c 4c 20 50 52 49 4d 41 52 59 20 4b 45 59 2c   ULL PRIMARY KEY,
|   3728: 20 22 74 72 61 63 6b 65 72 3a 75 6e 6d 6f 75 6e    .tracker:unmoun
|   3744: 74 44 61 74 65 22 20 49 4e 54 45 47 45 52 2c 20   tDate. INTEGER, 
|   3760: 22 74 72 61 63 6b 65 72 3a 69 73 52 65 6d 6f 76   .tracker:isRemov
|   3776: 61 62 6c 65 22 20 49 4e 54 45 47 45 52 2c 20 22   able. INTEGER, .
|   3792: 74 72 61 63 6b 65 72 3a 69 73 4f 70 74 69 63 61   tracker:isOptica
|   3808: 6c 22 20 49 4e 54 45 47 45 52 2c 20 22 74 72 61   l. INTEGER, .tra
|   3824: 63 6b 65 72 3a 61 76 61 69 6c 61 62 6c 65 22 20   cker:available. 
|   3840: 49 4e 54 45 47 45 52 29 81 75 01 07 17 37 37 01   INTEGER).u...77.
|   3856: 83 09 74 61 62 6c 65 74 72 61 63 6b 65 72 3a 49   ..tabletracker:I
|   3872: 6e 64 65 78 65 64 46 6f 6c 64 65 72 74 72 61 63   ndexedFoldertrac
|   3888: 6b 65 72 3a 49 6e 64 65 78 65 64 46 6f 6c 64 65   ker:IndexedFolde
|   3904: 72 02 43 52 45 41 54 45 20 54 41 42 4c 45 20 22   r.CREATE TABLE .
|   3920: 74 72 61 63 6b 65 72 3a 49 6e 64 65 78 65 64 46   tracker:IndexedF
|   3936: 6f 6c 64 65 72 22 20 28 49 44 20 49 4e 54 45 47   older. (ID INTEG
|   3952: 45 52 20 4e 4f 54 20 4e 55 4c 4c 20 50 52 49 4d   ER NOT NULL PRIM
|   3968: 41 52 59 20 4b 45 59 2c 20 22 74 72 61 63 6b 65   ARY KEY, .tracke
|   3984: 72 3a 75 6e 6d 6f 75 6e 74 44 61 74 65 22 20 49   r:unmountDate. I
|   4000: 4e 54 45 47 45 52 2c 20 22 74 72 61 63 6b 65 72   NTEGER, .tracker
|   4016: 3a 69 73 52 65 6d 6f 76 61 62 6c 65 22 20 49 4e   :isRemovable. IN
|   4032: 54 45 47 45 52 2c 20 22 74 72 61 63 6b 65 72 3a   TEGER, .tracker:
|   4048: 69 73 4f 70 74 69 63 61 6c 22 20 49 4e 54 45 47   isOptical. INTEG
|   4064: 45 52 2c 20 22 74 72 61 63 6b 65 72 3a 61 76 61   ER, .tracker:ava
|   4080: 69 6c 61 62 6c 65 00 00 00 11 17 00 00 00 10 0d   ilable..........
| page 2 offset 4096
|      0: 0d 00 00 00 00 10 00 00 00 00 00 00 00 00 00 00   ................
| page 3 offset 8192
|      0: 0d 00 00 00 00 10 00 00 00 00 00 00 00 00 00 00   ................
| page 4 offset 12288
|      0: 0d 00 00 00 00 10 00 00 00 00 00 00 00 00 00 00   ................
| page 5 offset 16384
|      0: 0d 00 00 00 00 10 00 00 00 00 00 00 00 00 00 00   ................
| page 6 offset 20480
|      0: 0d 00 00 00 00 10 00 00 00 00 00 00 00 00 00 00   ................
| page 7 offset 24576
|      0: 0d 00 00 00 00 10 00 00 00 00 00 00 00 00 00 00   ................
| page 8 offset 28672
|      0: 0d 00 00 00 00 10 00 00 00 00 00 00 00 00 00 00   ................
| page 9 offset 32768
|      0: 0d 00 00 00 00 10 00 00 00 00 00 00 00 00 00 00   ................
| page 10 offset 36864
|      0: 0d 00 00 00 00 10 00 00 00 00 00 00 00 00 00 00   ................
| page 11 offset 40960
|      0: 0d 00 00 00 00 10 00 00 00 00 00 00 00 00 00 00   ................
| page 12 offset 45056
|      0: 0d 00 00 00 00 10 00 00 00 00 00 00 00 00 00 00   ................
| page 13 offset 49152
|      0: 0d 00 00 00 00 10 00 00 00 00 00 00 00 00 00 00   ................
| page 14 offset 53248
|      0: 0d 00 00 00 00 10 00 00 00 00 00 00 00 00 00 00   ................
| page 15 offset 57344
|      0: 0d 00 00 00 00 10 00 00 00 00 00 00 00 00 00 00   ................
| page 16 offset 61440
|      0: 0d 00 00 00 0d 00 98 00 0f 08 0e 0a 0d 0c 0c 0e   ................
|     16: 0b 10 0a 12 09 14 07 af 06 44 04 d9 03 6e 02 03   .........D...n..
|     32: 00 98 00 90 00 00 00 00 00 00 00 00 00 00 00 08   ................
|     48: 00 00 00 00 82 68 0d 07 17 35 35 01 84 73 74 61   .....h...55..sta
|     64: 62 6c 65 45 3a 6e 66 6f 3a 46 69 6c 65 44 61 74   bleE:nfo:FileDat
|     80: 61 4f 62 6a 65 63 74 45 3a 6e 66 6f 3a 46 69 6c   aObjectE:nfo:Fil
|     96: 65 44 61 74 61 4f 62 6a 65 63 74 0e 43 52 45 41   eDataObject.CREA
|    112: 54 45 20 54 41 42 4c 45 20 22 45 3a 6e 66 6f 3a   TE TABLE .E:nfo:
|    128: 46 69 6c 65 44 61 00 00 00 00 00 00 00 00 00 00   FileDa..........
|    144: 00 00 00 00 00 00 00 00 82 68 0d 07 17 35 35 01   .........h...55.
|    160: 84 73 74 61 62 6c 65 45 3a 6e 66 6f 3a 46 69 6c   .stableE:nfo:Fil
|    176: 65 44 61 74 61 4f 62 6a 65 63 74 45 3a 6e 66 6f   eDataObjectE:nfo
|    192: 3a 46 69 6c 65 44 61 74 61 4f 62 6a 65 63 74 0e   :FileDataObject.
|    208: 43 52 45 41 54 45 20 54 41 42 4c 45 20 22 45 3a   CREATE TABLE .E:
|    224: 6e 66 6f 3a 46 69 6c 65 44 61 74 61 4f 62 6a 65   nfo:FileDataObje
|    240: 63 74 22 20 28 49 44 20 49 4e 54 45 47 45 52 20   ct. (ID INTEGER 
|    256: 4e 4f 54 20 4e 55 4c 4c 20 50 52 49 4d 41 52 59   NOT NULL PRIMARY
|    272: 20 4b 45 59 2c 20 22 6e 66 6f 3a 66 69 6c 65 4c    KEY, .nfo:fileL
|    288: 61 73 74 41 63 63 65 73 73 65 64 22 20 49 4e 54   astAccessed. INT
|    304: 45 47 45 52 2c 20 22 6e 66 6f 3a 66 69 6c 65 43   EGER, .nfo:fileC
|    320: 72 65 61 74 65 64 22 20 49 4e 54 45 47 45 52 2c   reated. INTEGER,
|    336: 20 22 6e 66 6f 3a 66 69 6c 65 53 69 7a 65 22 20    .nfo:fileSize. 
|    352: 49 4e 54 45 47 45 52 2c 20 22 6e 66 6f 3a 70 65   INTEGER, .nfo:pe
|    368: 72 6d 69 73 73 69 6f 6e 73 22 20 54 45 58 54 2c   rmissions. TEXT,
|    384: 20 22 6e 66 6f 3a 66 69 6c 65 4e 61 6d 65 22 20    .nfo:fileName. 
|    400: 54 45 58 54 2c 20 22 6e 66 6f 3a 68 61 73 48 61   TEXT, .nfo:hasHa
|    416: 73 68 22 20 49 4e 54 45 47 45 52 2c 20 22 6e 66   sh. INTEGER, .nf
|    432: 6f 3a 66 69 6c 65 4f 77 6e 65 72 22 20 49 4e 54   o:fileOwner. INT
|    448: 45 47 45 52 2c 20 22 6e 66 6f 3a 66 69 6c 65 4c   EGER, .nfo:fileL
|    464: 61 73 74 4d 6f 64 69 66 69 65 64 22 20 49 4e 54   astModified. INT
|    480: 45 47 45 52 2c 20 22 74 72 61 63 6b 65 72 3a 65   EGER, .tracker:e
|    496: 78 74 72 61 63 74 6f 72 48 61 73 68 22 20 54 45   xtractorHash. TE
|    512: 58 54 29 82 68 0c 07 17 35 35 01 84 73 74 61 62   XT).h...55..stab
|    528: 6c 65 44 3a 6e 66 6f 3a 46 69 6c 65 44 61 74 61   leD:nfo:FileData
|    544: 4f 62 6a 65 63 74 44 3a 6e 66 6f 3a 46 69 6c 65   ObjectD:nfo:File
|    560: 44 61 74 61 4f 62 6a 65 63 74 0d 43 52 45 41 54   DataObject.CREAT
|    576: 45 20 54 41 42 4c 45 20 22 44 3a 6e 66 6f 3a 46   E TABLE .D:nfo:F
|    592: 69 6c 65 44 61 74 61 4f 62 6a 65 63 74 22 20 28   ileDataObject. (
|    608: 49 44 20 49 4e 54 45 47 45 52 20 4e 4f 54 20 4e   ID INTEGER NOT N
|    624: 55 4c 4c 20 50 52 49 4d 41 52 59 20 4b 45 59 2c   ULL PRIMARY KEY,
|    640: 20 22 6e 66 6f 3a 66 69 6c 65 4c 61 73 74 41 63    .nfo:fileLastAc
|    656: 63 65 73 73 65 64 22 20 49 4e 54 45 47 45 52 2c   cessed. INTEGER,
|    672: 20 22 6e 66 6f 3a 66 69 6c 65 43 72 65 61 74 65    .nfo:fileCreate
|    688: 64 22 20 49 4e 54 45 47 45 52 2c 20 22 6e 66 6f   d. INTEGER, .nfo
|    704: 3a 66 69 6c 65 53 69 7a 65 22 20 49 4e 54 45 47   :fileSize. INTEG
|    720: 45 52 2c 20 22 6e 66 6f 3a 70 65 72 6d 69 73 73   ER, .nfo:permiss
|    736: 69 6f 6e 73 22 20 54 45 58 54 2c 20 22 6e 66 6f   ions. TEXT, .nfo
|    752: 3a 66 69 6c 65 4e 61 6d 65 22 20 54 45 58 54 2c   :fileName. TEXT,
|    768: 20 22 6e 66 6f 3a 68 61 73 48 61 73 68 22 20 49    .nfo:hasHash. I
|    784: 4e 54 45 47 45 52 2c 20 22 6e 66 6f 3a 66 69 6c   NTEGER, .nfo:fil
|    800: 65 4f 77 6e 65 72 22 20 49 4e 54 45 47 45 52 2c   eOwner. INTEGER,
|    816: 20 22 6e 66 6f 3a 66 69 6c 65 4c 61 73 74 4d 6f    .nfo:fileLastMo
|    832: 64 69 66 69 65 64 22 20 49 4e 54 45 47 45 52 2c   dified. INTEGER,
|    848: 20 22 74 72 61 63 6b 65 72 3a 65 78 74 72 61 63    .tracker:extrac
|    864: 74 6f 72 48 61 73 68 22 20 54 45 58 54 29 82 68   torHash. TEXT).h
|    880: 0b 07 17 35 35 01 84 73 74 61 62 6c 65 43 3a 6e   ...55..stableC:n
|    896: 66 6f 3a 46 69 6c 65 44 61 74 61 4f 62 6a 65 63   fo:FileDataObjec
|    912: 74 43 3a 6e 66 6f 3a 46 69 6c 65 44 61 74 61 4f   tC:nfo:FileDataO
|    928: 62 6a 65 63 74 0c 43 52 45 41 54 45 20 54 41 42   bject.CREATE TAB
|    944: 4c 45 20 22 43 3a 6e 66 6f 3a 46 69 6c 65 44 61   LE .C:nfo:FileDa
|    960: 74 61 4f 62 6a 65 63 74 22 20 28 49 44 20 49 4e   taObject. (ID IN
|    976: 54 45 47 45 52 20 4e 4f 54 20 4e 55 4c 4c 20 50   TEGER NOT NULL P
|    992: 52 49 4d 41 52 59 20 4b 45 59 2c 20 22 6e 66 6f   RIMARY KEY, .nfo
|   1008: 3a 66 69 6c 65 4c 61 73 74 41 63 63 65 73 73 65   :fileLastAccesse
|   1024: 64 22 20 49 4e 54 45 47 45 52 2c 20 22 6e 66 6f   d. INTEGER, .nfo
|   1040: 3a 66 69 6c 65 43 72 65 61 74 65 64 22 20 49 4e   :fileCreated. IN
|   1056: 54 45 47 45 52 2c 20 22 6e 66 6f 3a 66 69 6c 65   TEGER, .nfo:file
|   1072: 53 69 7a 65 22 20 49 4e 54 45 47 45 52 2c 20 22   Size. INTEGER, .
|   1088: 6e 66 6f 3a 70 65 72 6d 69 73 73 69 6f 6e 73 22   nfo:permissions.
|   1104: 20 54 45 58 54 2c 20 22 6e 66 6f 3a 66 69 6c 65    TEXT, .nfo:file
|   1120: 4e 61 6d 65 22 20 54 45 58 54 2c 20 22 6e 66 6f   Name. TEXT, .nfo
|   1136: 3a 68 61 73 48 61 73 68 22 20 49 4e 54 45 47 45   :hasHash. INTEGE
|   1152: 52 2c 20 22 6e 66 6f 3a 66 69 6c 65 4f 77 6e 65   R, .nfo:fileOwne
|   1168: 72 22 20 49 4e 54 45 47 45 52 2c 20 22 6e 66 6f   r. INTEGER, .nfo
|   1184: 3a 66 69 6c 65 4c 61 73 74 4d 6f 64 69 66 69 65   :fileLastModifie
|   1200: 64 22 20 49 4e 54 45 47 45 52 2c 20 22 74 72 61   d. INTEGER, .tra
|   1216: 63 6b 65 72 3a 65 78 74 72 61 63 74 6f 72 48 61   cker:extractorHa
|   1232: 73 68 22 20 54 45 58 54 29 82 68 0a 07 17 35 35   sh. TEXT).h...55
|   1248: 01 84 73 74 61 62 6c 65 42 3a 6e 66 6f 3a 46 69   ..stableB:nfo:Fi
|   1264: 6c 65 44 61 74 61 4f 62 6a 65 63 74 42 3a 6e 66   leDataObjectB:nf
|   1280: 6f 3a 46 69 6c 65 44 61 74 61 4f 62 6a 65 63 74   o:FileDataObject
|   1296: 0b 43 52 45 41 54 45 20 54 41 42 4c 45 20 22 42   .CREATE TABLE .B
|   1312: 3a 6e 66 6f 3a 46 69 6c 65 44 61 74 61 4f 62 6a   :nfo:FileDataObj
|   1328: 65 63 74 22 20 28 49 44 20 49 4e 54 45 47 45 52   ect. (ID INTEGER
|   1344: 20 4e 4f 54 20 4e 55 4c 4c 20 50 52 49 4d 41 52    NOT NULL PRIMAR
|   1360: 59 20 4b 45 59 2c 20 22 6e 66 6f 3a 66 69 6c 65   Y KEY, .nfo:file
|   1376: 4c 61 73 74 41 63 63 65 73 73 65 64 22 20 49 4e   LastAccessed. IN
|   1392: 54 45 47 45 52 2c 20 22 6e 66 6f 3a 66 69 6c 65   TEGER, .nfo:file
|   1408: 43 72 65 61 74 65 64 22 20 49 4e 54 45 47 45 52   Created. INTEGER
|   1424: 2c 20 22 6e 66 6f 3a 66 69 6c 65 53 69 7a 65 22   , .nfo:fileSize.
|   1440: 20 49 4e 54 45 47 45 52 2c 20 22 6e 66 6f 3a 70    INTEGER, .nfo:p
|   1456: 65 72 6d 69 73 73 69 6f 6e 73 22 20 54 45 58 54   ermissions. TEXT
|   1472: 2c 20 22 6e 66 6f 3a 66 69 6c 65 4e 61 6d 65 22   , .nfo:fileName.
|   1488: 20 54 45 58 54 2c 20 22 6e 66 6f 3a 68 61 73 48    TEXT, .nfo:hasH
|   1504: 61 73 68 22 20 49 4e 54 45 47 45 52 2c 20 22 6e   ash. INTEGER, .n
|   1520: 66 6f 3a 66 69 6c 65 4f 77 6e 65 72 22 20 49 4e   fo:fileOwner. IN
|   1536: 54 45 47 45 52 2c 20 22 6e 66 6f 3a 66 69 6c 65   TEGER, .nfo:file
|   1552: 4c 61 73 74 4d 6f 64 69 66 69 65 64 22 20 49 4e   LastModified. IN
|   1568: 54 45 47 45 52 2c 20 22 74 72 61 63 6b 65 72 3a   TEGER, .tracker:
|   1584: 65 78 74 72 61 63 74 6f 72 48 61 73 68 22 20 54   extractorHash. T
|   1600: 45 58 54 29 82 68 09 07 17 35 35 01 84 73 74 61   EXT).h...55..sta
|   1616: 62 6c 65 41 3a 6e 66 6f 3a 46 69 6c 65 44 61 74   bleA:nfo:FileDat
|   1632: 61 4f 62 6a 65 63 74 41 3a 6e 66 6f 3a 46 69 6c   aObjectA:nfo:Fil
|   1648: 65 44 61 74 61 4f 62 6a 65 63 74 0a 43 52 45 41   eDataObject.CREA
|   1664: 54 45 20 54 41 42 4c 45 20 22 41 3a 6e 66 6f 3a   TE TABLE .A:nfo:
|   1680: 46 69 6c 65 44 61 74 61 4f 62 6a 65 63 74 22 20   FileDataObject. 
|   1696: 28 49 44 20 49 4e 54 45 47 45 52 20 4e 4f 54 20   (ID INTEGER NOT 
|   1712: 4e 55 4c 4c 20 50 52 49 4d 41 52 59 20 4b 45 59   NULL PRIMARY KEY
|   1728: 2c 20 22 6e 66 6f 3a 66 69 6c 65 4c 61 73 74 41   , .nfo:fileLastA
|   1744: 63 63 65 73 73 65 64 22 20 49 4e 54 45 47 45 52   ccessed. INTEGER
|   1760: 2c 20 22 6e 66 6f 3a 66 69 6c 65 43 72 65 61 74   , .nfo:fileCreat
|   1776: 65 64 22 20 49 4e 54 45 47 45 52 2c 20 22 6e 66   ed. INTEGER, .nf
|   1792: 6f 3a 66 69 6c 65 53 69 7a 65 22 20 49 4e 54 45   o:fileSize. INTE
|   1808: 47 45 52 2c 20 22 6e 66 6f 3a 70 65 72 6d 69 73   GER, .nfo:permis
|   1824: 73 69 6f 6e 73 22 20 54 45 58 54 2c 20 22 6e 66   sions. TEXT, .nf
|   1840: 6f 3a 66 69 6c 65 4e 61 6d 65 22 20 54 45 58 54   o:fileName. TEXT
|   1856: 2c 20 22 6e 66 6f 3a 68 61 73 48 61 73 68 22 20   , .nfo:hasHash. 
|   1872: 49 4e 54 45 47 45 52 2c 20 22 6e 66 6f 3a 66 69   INTEGER, .nfo:fi
|   1888: 6c 65 4f 77 6e 65 72 22 20 49 4e 54 45 47 45 52   leOwner. INTEGER
|   1904: 2c 20 22 6e 66 6f 3a 66 69 6c 65 4c 61 73 74 4d   , .nfo:fileLastM
|   1920: 6f 64 69 66 69 65 64 22 20 49 4e 54 45 47 45 52   odified. INTEGER
|   1936: 2c 20 22 74 72 61 63 6b 65 72 3a 65 78 74 72 61   , .tracker:extra
|   1952: 63 74 6f 72 48 61 73 68 22 20 54 45 58 54 29 82   ctorHash. TEXT).
|   1968: 62 08 07 17 31 31 01 84 6f 74 61 62 6c 65 6e 66   b...11..otablenf
|   1984: 6f 3a 46 69 6c 65 44 61 74 61 4f 62 6a 65 63 74   o:FileDataObject
|   2000: 6e 66 6f 3a 46 69 6c 65 44 61 74 61 4f 62 6a 65   nfo:FileDataObje
|   2016: 63 74 09 43 52 45 41 54 45 20 54 41 42 4c 45 20   ct.CREATE TABLE 
|   2032: 22 6e 66 6f 3a 46 69 6c 65 44 61 74 61 4f 62 6a   .nfo:FileDataObj
|   2048: 65 63 74 22 20 28 49 44 20 49 4e 54 45 47 45 52   ect. (ID INTEGER
|   2064: 20 4e 4f 54 20 4e 55 4c 4c 20 50 52 49 4d 41 52    NOT NULL PRIMAR
|   2080: 59 20 4b 45 59 2c 20 22 6e 66 6f 3a 66 69 6c 65   Y KEY, .nfo:file
|   2096: 4c 61 73 74 41 63 63 65 73 73 65 64 22 20 49 4e   LastAccessed. IN
|   2112: 54 45 47 45 52 2c 20 22 6e 66 6f 3a 66 69 6c 65   TEGER, .nfo:file
|   2128: 43 72 65 61 74 65 64 22 20 49 4e 54 45 47 45 52   Created. INTEGER
|   2144: 2c 20 22 6e 66 6f 3a 66 69 6c 65 53 69 7a 65 22   , .nfo:fileSize.
|   2160: 20 49 4e 54 45 47 45 52 2c 20 22 6e 66 6f 3a 70    INTEGER, .nfo:p
|   2176: 65 72 6d 69 73 73 69 6f 6e 73 22 20 54 45 58 54   ermissions. TEXT
|   2192: 2c 20 22 6e 66 6f 3a 66 69 6c 65 4e 61 6d 65 22   , .nfo:fileName.
|   2208: 20 54 45 58 54 2c 20 22 6e 66 6f 3a 68 61 73 48    TEXT, .nfo:hasH
|   2224: 61 73 68 22 20 49 4e 54 45 47 45 52 2c 20 22 6e   ash. INTEGER, .n
|   2240: 66 6f 3a 66 69 6c 65 4f 77 6e 65 72 22 20 49 4e   fo:fileOwner. IN
|   2256: 54 45 47 45 52 2c 20 22 6e 66 6f 3a 66 69 6c 65   TEGER, .nfo:file
|   2272: 4c 61 73 74 4d 6f 64 69 66 69 65 64 22 20 49 4e   LastModified. IN
|   2288: 54 45 47 45 52 2c 20 22 74 72 61 63 6b 65 72 3a   TEGER, .tracker:
|   2304: 65 78 74 72 61 63 74 6f 72 48 61 73 68 22 20 54   extractorHash. T
|   2320: 45 58 54 29 81 7b 07 07 17 3b 3b 01 83 0d 74 61   EXT).....;;...ta
|   2336: 62 6c 65 46 3a 74 72 61 63 6b 65 72 3a 49 6e 64   bleF:tracker:Ind
|   2352: 65 78 65 64 46 6f 6c 64 65 72 46 3a 74 72 61 63   exedFolderF:trac
|   2368: 6b 65 72 3a 49 6e 64 65 78 65 64 46 6f 6c 64 65   ker:IndexedFolde
|   2384: 72 08 43 52 45 41 54 45 20 54 41 42 4c 45 20 22   r.CREATE TABLE .
|   2400: 46 3a 74 72 61 63 6b 65 72 3a 49 6e 64 65 78 65   F:tracker:Indexe
|   2416: 64 46 6f 6c 64 65 72 22 20 28 49 44 20 49 4e 54   dFolder. (ID INT
|   2432: 45 47 45 52 20 4e 4f 54 20 4e 55 4c 4c 20 50 52   EGER NOT NULL PR
|   2448: 49 4d 41 52 59 20 4b 45 59 2c 20 22 74 72 61 63   IMARY KEY, .trac
|   2464: 6b 65 72 3a 75 6e 6d 6f 75 6e 74 44 61 74 65 22   ker:unmountDate.
|   2480: 20 49 4e 54 45 47 45 52 2c 20 22 74 72 61 63 6b    INTEGER, .track
|   2496: 65 72 3a 69 73 52 65 6d 6f 76 61 62 6c 65 22 20   er:isRemovable. 
|   2512: 49 4e 54 45 47 45 52 2c 20 22 74 72 61 63 6b 65   INTEGER, .tracke
|   2528: 72 3a 69 73 4f 70 74 69 63 61 6c 22 20 49 4e 54   r:isOptical. INT
|   2544: 45 47 45 52 2c 20 22 74 72 61 63 6b 65 72 3a 61   EGER, .tracker:a
|   2560: 76 61 69 6c 61 62 6c 65 22 20 49 4e 54 45 47 45   vailable. INTEGE
|   2576: 52 29 81 7b 06 07 17 3b 3b 01 83 0d 74 61 62 6c   R).....;;...tabl
|   2592: 65 45 3a 74 72 61 63 6b 65 72 3a 49 6e 64 65 78   eE:tracker:Index
|   2608: 65 64 46 6f 6c 64 65 72 45 3a 74 72 61 63 6b 65   edFolderE:tracke
|   2624: 72 3a 49 6e 64 65 78 65 64 46 6f 6c 64 65 72 07   r:IndexedFolder.
|   2640: 43 52 45 41 54 45 20 54 41 42 4c 45 20 22 45 3a   CREATE TABLE .E:
|   2656: 74 72 61 63 6b 65 72 3a 49 6e 64 65 78 65 64 46   tracker:IndexedF
|   2672: 6f 6c 64 65 72 22 20 28 49 44 20 49 4e 54 45 47   older. (ID INTEG
|   2688: 45 52 20 4e 4f 54 20 4e 55 4c 4c 20 50 52 49 4d   ER NOT NULL PRIM
|   2704: 41 52 59 20 4b 45 59 2c 20 22 74 72 61 63 6b 65   ARY KEY, .tracke
|   2720: 72 3a 75 6e 6d 6f 75 6e 74 44 61 74 65 22 20 49   r:unmountDate. I
|   2736: 4e 54 45 47 45 52 2c 20 22 74 72 61 63 6b 65 72   NTEGER, .tracker
|   2752: 3a 69 73 52 65 6d 6f 76 61 62 6c 65 22 20 49 4e   :isRemovable. IN
|   2768: 54 45 47 45 52 2c 20 22 74 72 61 63 6b 65 72 3a   TEGER, .tracker:
|   2784: 69 73 4f 70 74 69 63 61 6c 22 20 49 4e 54 45 47   isOptical. INTEG
|   2800: 45 52 2c 20 22 74 72 61 63 6b 65 72 3a 61 76 61   ER, .tracker:ava
|   2816: 69 6c 61 62 6c 65 22 20 49 4e 54 45 47 45 52 29   ilable. INTEGER)
|   2832: 81 7b 05 07 17 3b 3b 01 83 0d 74 61 62 6c 65 44   .....;;...tableD
|   2848: 3a 74 72 61 63 6b 65 72 3a 49 6e 64 65 78 65 64   :tracker:Indexed
|   2864: 46 6f 6c 64 65 72 44 3a 74 72 61 63 6b 65 72 3a   FolderD:tracker:
|   2880: 49 6e 64 65 78 65 64 46 6f 6c 64 65 72 06 43 52   IndexedFolder.CR
|   2896: 45 41 54 45 20 54 41 42 4c 45 20 22 44 3a 74 72   EATE TABLE .D:tr
|   2912: 61 63 6b 65 72 3a 49 6e 64 65 78 65 64 46 6f 6c   acker:IndexedFol
|   2928: 64 65 72 22 20 28 49 44 20 49 4e 54 45 47 45 52   der. (ID INTEGER
|   2944: 20 4e 4f 54 20 4e 55 4c 4c 20 50 52 49 4d 41 52    NOT NULL PRIMAR
|   2960: 59 20 4b 45 59 2c 20 22 74 72 61 63 6b 65 72 3a   Y KEY, .tracker:
|   2976: 75 6e 6d 6f 75 6e 74 44 61 74 65 22 20 49 4e 54   unmountDate. INT
|   2992: 45 47 45 52 2c 20 22 74 72 61 63 6b 65 72 3a 69   EGER, .tracker:i
|   3008: 73 52 65 6d 6f 76 61 62 6c 65 22 20 49 4e 54 45   sRemovable. INTE
|   3024: 47 45 52 2c 20 22 74 72 61 63 6b 65 72 3a 69 73   GER, .tracker:is
|   3040: 4f 70 74 69 63 61 6c 22 20 49 4e 54 45 47 45 52   Optical. INTEGER
|   3056: 2c 20 22 74 72 61 63 6b 65 72 3a 61 76 61 69 6c   , .tracker:avail
|   3072: 61 62 6c 65 22 20 49 4e 54 45 47 45 52 29 81 7b   able. INTEGER)..
|   3088: 04 07 17 3b 3b 01 83 0d 74 61 62 6c 65 43 3a 74   ...;;...tableC:t
|   3104: 72 61 63 6b 65 72 3a 49 6e 64 65 78 65 64 46 6f   racker:IndexedFo
|   3120: 6c 64 65 72 43 3a 74 72 61 63 6b 65 72 3a 49 6e   lderC:tracker:In
|   3136: 64 65 78 65 64 46 6f 6c 64 65 72 05 43 52 45 41   dexedFolder.CREA
|   3152: 54 45 20 54 41 42 4c 45 20 22 43 3a 74 72 61 63   TE TABLE .C:trac
|   3168: 6b 65 72 3a 49 6e 64 65 78 65 64 46 6f 6c 64 65   ker:IndexedFolde
|   3184: 72 22 20 28 49 44 20 49 4e 54 45 47 45 52 20 4e   r. (ID INTEGER N
|   3200: 4f 54 20 4e 55 4c 4c 20 50 52 49 4d 41 52 59 20   OT NULL PRIMARY 
|   3216: 4b 45 59 2c 20 22 74 72 61 63 6b 65 72 3a 75 6e   KEY, .tracker:un
|   3232: 6d 6f 75 6e 74 44 61 74 65 22 20 49 4e 54 45 47   mountDate. INTEG
|   3248: 45 52 2c 20 22 74 72 61 63 6b 65 72 3a 69 73 52   ER, .tracker:isR
|   3264: 65 6d 6f 76 61 62 6c 65 22 20 49 4e 54 45 47 45   emovable. INTEGE
|   3280: 52 2c 20 22 74 72 61 63 6b 65 72 3a 69 73 4f 70   R, .tracker:isOp
|   3296: 74 69 63 61 6c 22 20 49 4e 54 45 47 45 52 2c 20   tical. INTEGER, 
|   3312: 22 74 72 61 63 6b 65 72 3a 61 76 61 69 6c 61 62   .tracker:availab
|   3328: 6c 65 22 20 49 4e 54 45 47 45 52 29 81 7b 03 07   le. INTEGER)....
|   3344: 17 3b 3b 01 83 0d 74 61 62 6c 65 42 3a 74 72 61   .;;...tableB:tra
|   3360: 63 6b 65 72 3a 49 6e 64 65 78 65 64 46 6f 6c 64   cker:IndexedFold
|   3376: 65 72 42 3a 74 72 61 63 6b 65 72 3a 49 6e 64 65   erB:tracker:Inde
|   3392: 78 65 64 46 6f 6c 64 65 72 04 43 52 45 41 54 45   xedFolder.CREATE
|   3408: 20 54 41 42 4c 45 20 22 42 3a 74 72 61 63 6b 65    TABLE .B:tracke
|   3424: 72 3a 49 6e 64 65 78 65 64 46 6f 6c 64 65 72 22   r:IndexedFolder.
|   3440: 20 28 49 44 20 49 4e 54 45 47 45 52 20 4e 4f 54    (ID INTEGER NOT
|   3456: 20 4e 55 4c 4c 20 50 52 49 4d 41 52 59 20 4b 45    NULL PRIMARY KE
|   3472: 59 2c 20 22 74 72 61 63 6b 65 72 3a 75 6e 6d 6f   Y, .tracker:unmo
|   3488: 75 6e 74 44 61 74 65 22 20 49 4e 54 45 47 45 52   untDate. INTEGER
|   3504: 2c 20 22 74 72 61 63 6b 65 72 3a 69 73 52 65 6d   , .tracker:isRem
|   3520: 6f 76 61 62 6c 65 22 20 49 4e 54 45 47 45 52 2c   ovable. INTEGER,
|   3536: 20 22 74 72 61 63 6b 65 72 3a 69 73 4f 70 74 69    .tracker:isOpti
|   3552: 63 61 6c 22 20 49 4e 54 45 47 45 52 2c 20 22 74   cal. INTEGER, .t
|   3568: 72 61 63 6b 65 72 3a 61 76 61 69 6c 61 62 6c 65   racker:available
|   3584: 22 20 49 4e 54 45 47 45 52 29 81 7b 02 07 17 3b   . INTEGER).....;
|   3600: 3b 01 83 0d 74 61 62 6c 65 41 3a 74 72 61 63 6b   ;...tableA:track
|   3616: 65 72 3a 49 6e 64 65 78 65 64 46 6f 6c 64 65 72   er:IndexedFolder
|   3632: 41 3a 74 72 61 63 6b 65 72 3a 49 6e 64 65 78 65   A:tracker:Indexe
|   3648: 64 46 6f 6c 64 65 72 03 43 52 45 41 54 45 20 54   dFolder.CREATE T
|   3664: 41 42 4c 45 20 22 41 3a 74 72 61 63 6b 65 72 3a   ABLE .A:tracker:
|   3680: 49 6e 64 65 78 65 64 46 6f 6c 64 65 72 22 20 28   IndexedFolder. (
|   3696: 49 44 20 49 4e 54 45 47 45 52 20 4e 4f 54 20 4e   ID INTEGER NOT N
|   3712: 55 4c 4c 20 50 52 49 4d 41 52 59 20 4b 45 59 2c   ULL PRIMARY KEY,
|   3728: 20 22 74 72 61 63 6b 65 72 3a 75 6e 6d 6f 75 6e    .tracker:unmoun
|   3744: 74 44 61 74 65 22 20 49 4e 54 45 47 45 52 2c 20   tDate. INTEGER, 
|   3760: 22 74 72 61 63 6b 65 72 3a 69 73 52 65 6d 6f 76   .tracker:isRemov
|   3776: 61 62 6c 65 22 20 49 4e 54 45 47 45 52 2c 20 22   able. INTEGER, .
|   3792: 74 72 61 63 6b 65 72 3a 69 73 4f 70 74 69 63 61   tracker:isOptica
|   3808: 6c 22 20 49 4e 54 45 47 45 52 2c 20 22 74 72 61   l. INTEGER, .tra
|   3824: 63 6b 65 72 3a 61 76 61 69 6c 61 62 6c 65 22 20   cker:available. 
|   3840: 49 4e 54 45 47 45 52 29 81 75 01 07 17 37 37 01   INTEGER).u...77.
|   3856: 83 09 74 61 62 6c 65 74 72 61 63 6b 65 72 3a 49   ..tabletracker:I
|   3872: 6e 64 65 78 65 64 46 6f 6c 64 65 72 74 72 61 63   ndexedFoldertrac
|   3888: 6b 65 72 3a 49 6e 64 65 78 65 64 46 6f 6c 64 65   ker:IndexedFolde
|   3904: 72 02 43 52 45 41 54 45 20 54 41 42 4c 45 20 22   r.CREATE TABLE .
|   3920: 74 72 61 63 6b 65 72 3a 49 6e 64 65 78 65 64 46   tracker:IndexedF
|   3936: 6f 6c 64 65 72 22 20 28 49 44 20 49 4e 54 45 47   older. (ID INTEG
|   3952: 45 52 20 4e 4f 54 20 4e 55 4c 4c 20 50 52 49 4d   ER NOT NULL PRIM
|   3968: 41 52 59 20 4b 45 59 2c 20 22 74 72 61 63 6b 65   ARY KEY, .tracke
|   3984: 72 3a 75 6e 6d 6f 75 6e 74 44 61 74 65 22 20 49   r:unmountDate. I
|   4000: 4e 54 45 47 45 52 2c 20 22 74 72 61 63 6b 65 72   NTEGER, .tracker
|   4016: 3a 69 73 52 65 6d 6f 76 61 62 6c 65 22 20 49 4e   :isRemovable. IN
|   4032: 54 45 47 45 52 2c 20 22 74 72 61 63 6b 65 72 3a   TEGER, .tracker:
|   4048: 69 73 4f 70 74 69 63 61 6c 22 20 49 4e 54 45 47   isOptical. INTEG
|   4064: 45 52 2c 20 22 74 72 61 63 6b 65 72 3a 61 76 61   ER, .tracker:ava
|   4080: 69 6c 61 62 6c 65 22 20 49 4e 54 45 47 45 52 29   ilable. INTEGER)
| page 17 offset 65536
|      0: 0d 0a 54 00 0a 00 8d 00 08 e9 08 2e 07 6d 06 ac   ..T..........m..
|     16: 05 eb 05 2a 04 69 03 a8 00 8d 0c df 0c d7 00 00   ...*.i..........
|     32: 00 00 00 85 00 00 00 00 00 00 00 00 00 00 00 00   ................
|    128: 00 00 00 00 00 00 00 00 08 00 00 00 00 86 18 16   ................
|    144: 07 17 39 39 01 8b 4b 74 61 62 6c 65 6e 69 65 3a   ..99..Ktablenie:
|    160: 49 6e 66 6f 72 6d 61 74 69 6f 6e 45 6c 65 6d 65   InformationEleme
|    176: 6e 74 6e 69 65 3a 49 6e 66 6f 72 6d 61 74 69 6f   ntnie:Informatio
|    192: 6e 45 6c 65 6d 65 6e 74 19 43 52 45 41 54 45 20   nElement.CREATE 
|    208: 54 41 42 4c 45 20 22 6e 69 65 3a 49 6e 66 6f 72   TABLE .nie:Infor
|    224: 6d 61 74 69 6f 6e 45 6c 65 6d 65 6e 74 22 20 28   mationElement. (
|    240: 49 44 20 49 4e 54 45 47 45 52 20 4e 4f 54 20 4e   ID INTEGER NOT N
|    256: 55 4c 4c 20 50 52 49 4d 41 52 59 20 4b 45 59 2c   ULL PRIMARY KEY,
|    272: 20 22 6e 69 65 3a 74 69 74 6c 65 22 20 54 45 58    .nie:title. TEX
|    288: 54 2c 20 22 6e 69 65 3a 63 6f 6e 74 65 6e 74 4c   T, .nie:contentL
|    304: 61 73 74 4d 6f 64 69 66 69 65 64 22 20 49 4e 54   astModified. INT
|    320: 45 47 45 52 2c 20 22 6e 69 65 3a 73 75 62 6a 65   EGER, .nie:subje
|    336: 63 74 22 20 54 45 58 54 2c 20 22 6e 69 65 3a 6d   ct. TEXT, .nie:m
|    352: 69 6d 65 54 79 70 65 22 20 54 45 58 54 2c 20 22   imeType. TEXT, .
|    368: 6e 69 65 3a 6c 61 6e 67 75 61 67 65 22 20 54 45   nie:language. TE
|    384: 58 54 2c 20 22 6e 69 65 3a 70 6c 61 69 6e 54 65   XT, .nie:plainTe
|    400: 78 74 43 6f 6e 74 65 6e 74 22 20 54 45 58 54 2c   xtContent. TEXT,
|    416: 20 22 6e 69 65 3a 67 65 6e 65 72 61 74 6f 72 22    .nie:generator.
|    432: 20 54 45 58 54 2c 20 22 6e 69 65 3a 64 65 73 63    TEXT, .nie:desc
|    448: 72 69 70 74 69 6f 6e 22 20 54 45 58 54 2c 20 22   ription. TEXT, .
|    464: 6e 69 65 3a 64 69 73 63 6c 61 69 6d 65 72 22 20   nie:disclaimer. 
|    480: 54 45 58 54 2c 20 22 6e 69 65 3a 64 65 70 65 6e   TEXT, .nie:depen
|    496: 64 73 22 20 49 4e 54 45 47 45 52 2c 20 22 6e 69   ds. INTEGER, .ni
|    512: 65 3a 6c 69 6e 6b 73 22 20 49 4e 54 45 47 45 52   e:links. INTEGER
|    528: 2c 20 22 6e 69 65 3a 63 6f 6d 6d 65 6e 74 22 20   , .nie:comment. 
|    544: 54 45 58 54 2c 20 22 6e 69 65 3a 76 65 72 73 69   TEXT, .nie:versi
|    560: 6f 6e 22 20 54 45 58 54 2c 20 22 6e 69 65 3a 63   on. TEXT, .nie:c
|    576: 6f 6e 74 65 6e 74 43 72 65 61 74 65 64 22 20 49   ontentCreated. I
|    592: 4e 54 45 47 45 52 2c 20 22 6e 69 65 3a 63 6f 6e   NTEGER, .nie:con
|    608: 74 65 6e 74 41 63 63 65 73 73 65 64 22 20 49 4e   tentAccessed. IN
|    624: 54 45 47 45 52 2c 20 22 6e 69 65 3a 69 64 65 6e   TEGER, .nie:iden
|    640: 74 69 66 69 65 72 22 20 54 45 58 54 2c 20 22 6e   tifier. TEXT, .n
|    656: 69 65 3a 6c 69 63 65 6e 73 65 54 79 70 65 22 20   ie:licenseType. 
|    672: 54 45 58 54 2c 20 22 6e 69 65 3a 63 68 61 72 61   TEXT, .nie:chara
|    688: 63 74 65 72 53 65 74 22 20 54 45 58 54 2c 20 22   cterSet. TEXT, .
|    704: 6e 69 65 3a 63 6f 6e 74 65 6e 74 53 69 7a 65 22   nie:contentSize.
|    720: 20 49 4e 54 45 47 45 52 2c 20 22 6e 69 65 3a 72    INTEGER, .nie:r
|    736: 6f 6f 74 45 6c 65 6d 65 6e 74 4f 66 22 20 49 4e   ootElementOf. IN
|    752: 54 45 47 45 52 2c 20 22 6e 69 65 3a 75 73 61 67   TEGER, .nie:usag
|    768: 65 43 6f 75 6e 74 65 72 22 20 49 4e 54 45 47 45   eCounter. INTEGE
|    784: 52 2c 20 22 6e 63 6f 3a 70 75 62 6c 69 73 68 65   R, .nco:publishe
|    800: 72 22 20 49 4e 54 45 47 45 52 2c 20 22 6e 66 6f   r. INTEGER, .nfo
|    816: 3a 69 73 43 6f 6e 74 65 6e 74 45 6e 63 72 79 70   :isContentEncryp
|    832: 74 65 64 22 20 49 4e 54 45 47 45 52 2c 20 22 6e   ted. INTEGER, .n
|    848: 66 6f 3a 69 73 42 6f 6f 74 61 62 6c 65 22 20 49   fo:isBootable. I
|    864: 4e 54 45 47 45 52 2c 20 22 73 6c 6f 3a 6c 6f 63   NTEGER, .slo:loc
|    880: 61 74 69 6f 6e 22 20 49 4e 54 45 47 45 52 2c 20   ation. INTEGER, 
|    896: 22 6f 73 69 6e 66 6f 3a 69 64 22 20 54 45 58 54   .osinfo:id. TEXT
|    912: 2c 20 22 6f 73 69 6e 66 6f 3a 6d 65 64 69 61 49   , .osinfo:mediaI
|    928: 64 22 20 54 45 58 54 29 81 3e 15 07 17 51 51 01   d. TEXT).>...QQ.
|    944: 81 67 74 61 62 6c 65 46 3a 6e 69 65 3a 44 61 74   .gtableF:nie:Dat
|    960: 61 4f 62 6a 65 63 74 5f 6e 69 65 3a 69 6e 74 65   aObject_nie:inte
|    976: 72 70 72 65 74 65 64 41 73 46 3a 6e 69 65 3a 44   rpretedAsF:nie:D
|    992: 61 74 61 4f 62 6a 65 63 74 5f 6e 69 65 3a 69 6e   ataObject_nie:in
|   1008: 74 65 72 70 72 65 74 65 64 41 73 18 43 52 45 41   terpretedAs.CREA
|   1024: 54 45 20 54 41 42 4c 45 20 22 46 3a 6e 69 65 3a   TE TABLE .F:nie:
|   1040: 44 61 74 61 4f 62 6a 65 63 74 5f 6e 69 65 3a 69   DataObject_nie:i
|   1056: 6e 74 65 72 70 72 65 74 65 64 41 73 22 20 28 49   nterpretedAs. (I
|   1072: 44 20 49 4e 54 45 47 45 52 20 4e 4f 54 20 4e 55   D INTEGER NOT NU
|   1088: 4c 4c 2c 20 22 6e 69 65 3a 69 6e 74 65 72 70 72   LL, .nie:interpr
|   1104: 65 74 65 64 41 73 22 20 49 4e 54 45 47 45 52 20   etedAs. INTEGER 
|   1120: 4e 4f 54 20 4e 55 4c 4c 29 81 3e 14 07 17 51 51   NOT NULL).>...QQ
|   1136: 01 81 67 74 61 62 6c 65 45 3a 6e 69 65 3a 44 61   ..gtableE:nie:Da
|   1152: 74 61 4f 62 6a 65 63 74 5f 6e 69 65 3a 69 6e 74   taObject_nie:int
|   1168: 65 72 70 72 65 74 65 64 41 73 45 3a 6e 69 65 3a   erpretedAsE:nie:
|   1184: 44 61 74 61 4f 62 6a 65 63 74 5f 6e 69 65 3a 69   DataObject_nie:i
|   1200: 6e 74 65 72 70 72 65 74 65 64 41 73 17 43 52 45   nterpretedAs.CRE
|   1216: 41 54 45 20 54 41 42 4c 45 20 22 45 3a 6e 69 65   ATE TABLE .E:nie
|   1232: 3a 44 61 74 61 4f 62 6a 65 63 74 5f 6e 69 65 3a   :DataObject_nie:
|   1248: 69 6e 74 65 72 70 72 65 74 65 64 41 73 22 20 28   interpretedAs. (
|   1264: 49 44 20 49 4e 54 45 47 45 52 20 4e 4f 54 20 4e   ID INTEGER NOT N
|   1280: 55 4c 4c 2c 20 22 6e 69 65 3a 69 6e 74 65 72 70   ULL, .nie:interp
|   1296: 72 65 74 65 64 41 73 22 20 49 4e 54 45 47 45 52   retedAs. INTEGER
|   1312: 20 4e 4f 54 20 4e 55 4c 4c 29 81 3e 13 07 17 51    NOT NULL).>...Q
|   1328: 51 01 81 67 74 61 62 6c 65 44 3a 6e 69 65 3a 44   Q..gtableD:nie:D
|   1344: 61 74 61 4f 62 6a 65 63 74 5f 6e 69 65 3a 69 6e   ataObject_nie:in
|   1360: 74 65 72 70 72 65 74 65 64 41 73 44 3a 6e 69 65   terpretedAsD:nie
|   1376: 3a 44 61 74 61 4f 62 6a 65 63 74 5f 6e 69 65 3a   :DataObject_nie:
|   1392: 69 6e 74 65 72 70 72 65 74 65 64 41 73 16 43 52   interpretedAs.CR
|   1408: 45 41 54 45 20 54 41 42 4c 45 20 22 44 3a 6e 69   EATE TABLE .D:ni
|   1424: 65 3a 44 61 74 61 4f 62 6a 65 63 74 5f 6e 69 65   e:DataObject_nie
|   1440: 3a 69 6e 74 65 72 70 72 65 74 65 64 41 73 22 20   :interpretedAs. 
|   1456: 28 49 44 20 49 4e 54 45 47 45 52 20 4e 4f 54 20   (ID INTEGER NOT 
|   1472: 4e 55 4c 4c 2c 20 22 6e 69 65 3a 69 6e 74 65 72   NULL, .nie:inter
|   1488: 70 72 65 74 65 64 41 73 22 20 49 4e 54 45 47 45   pretedAs. INTEGE
|   1504: 52 20 4e 4f 54 20 4e 55 4c 4c 29 81 3e 12 07 17   R NOT NULL).>...
|   1520: 51 51 01 81 67 74 61 62 6c 65 43 3a 6e 69 65 3a   QQ..gtableC:nie:
|   1536: 44 61 74 61 4f 62 6a 65 63 74 5f 6e 69 65 3a 69   DataObject_nie:i
|   1552: 6e 74 65 72 70 72 65 74 65 64 41 73 43 3a 6e 69   nterpretedAsC:ni
|   1568: 65 3a 44 61 74 61 4f 62 6a 65 63 74 5f 6e 69 65   e:DataObject_nie
|   1584: 3a 69 6e 74 65 72 70 72 65 74 65 64 41 73 15 43   :interpretedAs.C
|   1600: 52 45 41 54 45 20 54 41 42 4c 45 20 22 43 3a 6e   REATE TABLE .C:n
|   1616: 69 65 3a 44 61 74 61 4f 62 6a 65 63 74 5f 6e 69   ie:DataObject_ni
|   1632: 65 3a 69 6e 74 65 72 70 72 65 74 65 64 41 73 22   e:interpretedAs.
|   1648: 20 28 49 44 20 49 4e 54 45 47 45 52 20 4e 4f 54    (ID INTEGER NOT
|   1664: 20 4e 55 4c 4c 2c 20 22 6e 69 65 3a 69 6e 74 65    NULL, .nie:inte
|   1680: 72 70 72 65 74 65 64 41 73 22 20 49 4e 54 45 47   rpretedAs. INTEG
|   1696: 45 52 20 4e 4f 54 20 4e 55 4c 4c 29 81 3e 11 07   ER NOT NULL).>..
|   1712: 17 51 51 01 81 67 74 61 62 6c 65 42 3a 6e 69 65   .QQ..gtableB:nie
|   1728: 3a 44 61 74 61 4f 62 6a 65 63 74 5f 6e 69 65 3a   :DataObject_nie:
|   1744: 69 6e 74 65 72 70 72 65 74 65 64 41 73 42 3a 6e   interpretedAsB:n
|   1760: 69 65 3a 44 61 74 61 4f 62 6a 65 63 74 5f 6e 69   ie:DataObject_ni
|   1776: 65 3a 69 6e 74 65 72 70 72 65 74 65 64 41 73 14   e:interpretedAs.
|   1792: 43 52 45 41 54 45 20 54 41 42 4c 45 20 22 42 3a   CREATE TABLE .B:
|   1808: 6e 69 65 3a 44 61 74 61 4f 62 6a 65 63 74 5f 6e   nie:DataObject_n
|   1824: 69 65 3a 69 6e 74 65 72 70 72 65 74 65 64 41 73   ie:interpretedAs
|   1840: 22 20 28 49 44 20 49 4e 54 45 47 45 52 20 4e 4f   . (ID INTEGER NO
|   1856: 54 20 4e 55 4c 4c 2c 20 22 6e 69 65 3a 69 6e 74   T NULL, .nie:int
|   1872: 65 72 70 72 65 74 65 64 41 73 22 20 49 4e 54 45   erpretedAs. INTE
|   1888: 47 45 52 20 4e 4f 54 20 4e 55 4c 4c 29 81 3e 10   GER NOT NULL).>.
|   1904: 07 17 51 51 01 81 67 74 61 62 6c 65 41 3a 6e 69   ..QQ..gtableA:ni
|   1920: 65 3a 44 61 74 61 4f 62 6a 65 63 74 5f 6e 69 65   e:DataObject_nie
|   1936: 3a 69 6e 74 65 72 70 72 65 74 65 64 41 73 41 3a   :interpretedAsA:
|   1952: 6e 69 65 3a 44 61 74 61 4f 62 6a 65 63 74 5f 6e   nie:DataObject_n
|   1968: 69 65 3a 69 6e 74 65 72 70 72 65 74 65 64 41 73   ie:interpretedAs
|   1984: 13 43 52 45 41 54 45 20 54 41 42 4c 45 20 22 41   .CREATE TABLE .A
|   2000: 3a 6e 69 65 3a 44 61 74 61 4f 62 6a 65 63 74 5f   :nie:DataObject_
|   2016: 6e 69 65 3a 69 6e 74 65 72 70 72 65 74 65 64 41   nie:interpretedA
|   2032: 73 22 20 28 49 44 20 49 4e 54 45 47 45 52 20 4e   s. (ID INTEGER N
|   2048: 4f 54 20 4e 55 4c 4c 2c 20 22 6e 69 65 3a 69 6e   OT NULL, .nie:in
|   2064: 74 65 72 70 72 65 74 65 64 41 73 22 20 49 4e 54   terpretedAs. INT
|   2080: 45 47 45 52 20 4e 4f 54 20 4e 55 4c 4c 29 81 38   EGER NOT NULL).8
|   2096: 0f 07 17 4d 4d 01 81 63 74 61 62 6c 65 6e 69 65   ...MM..ctablenie
|   2112: 3a 44 61 74 61 4f 62 6a 65 63 74 5f 6e 69 65 3a   :DataObject_nie:
|   2128: 69 6e 74 65 72 70 72 65 74 65 64 41 73 6e 69 65   interpretedAsnie
|   2144: 3a 44 61 74 61 4f 62 6a 65 63 74 5f 6e 69 65 3a   :DataObject_nie:
|   2160: 69 6e 74 65 72 70 72 65 74 65 64 41 73 12 43 52   interpretedAs.CR
|   2176: 45 41 54 45 20 54 41 42 4c 45 20 22 6e 69 65 3a   EATE TABLE .nie:
|   2192: 44 61 74 61 4f 62 6a 65 63 74 5f 6e 69 65 3a 69   DataObject_nie:i
|   2208: 6e 74 65 72 70 72 65 74 65 64 41 73 22 20 28 49   nterpretedAs. (I
|   2224: 44 20 49 4e 54 45 47 45 52 20 4e 4f 54 20 4e 55   D INTEGER NOT NU
|   2240: 4c 4c 2c 20 22 6e 69 65 3a 69 6e 74 65 72 70 72   LL, .nie:interpr
|   2256: 65 74 65 64 41 73 22 20 49 4e 54 45 47 45 52 20   etedAs. INTEGER 
|   2272: 4e 4f 54 20 4e 55 4c 4c 29 82 68 0e 07 17 35 35   NOT NULL).h...55
|   2288: 01 84 73 74 61 62 6c 65 46 3a 6e 66 6f 3a 46 69   ..stableF:nfo:Fi
|   2304: 6c 65 44 61 74 61 4f 62 6a 65 63 74 46 3a 6e 66   leDataObjectF:nf
|   2320: 6f 3a 46 69 6c 65 44 61 74 61 4f 62 6a 65 63 74   o:FileDataObject
|   2336: 0f 43 52 45 41 54 45 20 54 41 42 4c 45 20 22 46   .CREATE TABLE .F
|   2352: 3a 6e 66 6f 3a 46 69 6c 65 44 61 74 61 4f 62 6a   :nfo:FileDataObj
|   2368: 65 63 74 22 20 28 49 44 20 49 4e 54 45 47 45 52   ect. (ID INTEGER
|   2384: 20 4e 4f 54 20 4e 55 4c 4c 20 50 52 49 4d 41 52    NOT NULL PRIMAR
|   2400: 59 20 4b 45 59 2c 20 22 6e 66 6f 3a 66 69 6c 65   Y KEY, .nfo:file
|   2416: 4c 61 73 74 41 63 63 65 73 73 65 64 22 20 49 4e   LastAccessed. IN
|   2432: 54 45 47 45 52 2c 20 22 6e 66 6f 3a 66 69 6c 65   TEGER, .nfo:file
|   2448: 43 72 65 61 74 65 64 22 20 49 4e 54 45 47 45 52   Created. INTEGER
|   2464: 2c 20 22 6e 66 6f 3a 66 69 6c 65 53 69 7a 65 22   , .nfo:fileSize.
|   2480: 20 49 4e 54 45 47 45 52 2c 20 22 6e 66 6f 3a 70    INTEGER, .nfo:p
|   2496: 65 72 6d 69 73 73 69 6f 6e 73 22 20 54 45 58 54   ermissions. TEXT
|   2512: 2c 20 22 6e 66 6f 3a 66 69 6c 65 4e 61 6d 65 22   , .nfo:fileName.
|   2528: 20 54 45 58 54 2c 20 22 6e 66 6f 3a 68 61 73 48    TEXT, .nfo:hasH
|   2544: 61 73 68 22 20 49 4e 54 45 47 45 52 2c 20 22 6e   ash. INTEGER, .n
|   2560: 66 6f 3a 66 69 6c 65 4f 77 6e 65 72 22 20 49 4e   fo:fileOwner. IN
|   2576: 54 45 47 45 52 2c 20 22 6e 66 6f 3a 66 69 6c 65   TEGER, .nfo:file
|   2592: 4c 61 73 74 4d 6f 64 69 66 69 65 64 22 20 49 4e   LastModified. IN
|   2608: 54 45 47 45 52 2c 20 22 74 72 61 63 6b 65 72 3a   TEGER, .tracker:
|   2624: 65 78 74 72 61 63 74 6f 72 48 61 73 68 22 20 54   extractorHash. T
|   2640: 45 58 54 29 00 00 02 8b 17 35 35 01 84 73 74 61   EXT).....55..sta
|   2656: 62 6c 65 45 3a 6e 66 6f 3a 46 69 6c 65 44 61 74   bleE:nfo:FileDat
|   2672: 61 4f 62 6a 65 63 74 45 3a 6e 66 6f 3a 46 69 6c   aObjectE:nfo:Fil
|   2688: 65 44 61 74 61 4f 62 6a 65 63 74 0e 43 52 45 41   eDataObject.CREA
|   2704: 54 45 20 54 41 42 4c 45 20 22 45 3a 6e 66 6f 3a   TE TABLE .E:nfo:
|   2720: 46 69 6c 65 44 61 74 61 4f 62 6a 65 63 74 22 20   FileDataObject. 
|   2736: 28 49 44 20 49 4e 54 45 47 45 52 20 4e 4f 54 20   (ID INTEGER NOT 
|   2752: 4e 55 4c 4c 20 50 52 49 4d 41 52 59 20 4b 45 59   NULL PRIMARY KEY
|   2768: 2c 20 22 6e 66 6f 3a 66 69 6c 65 4c 61 73 74 41   , .nfo:fileLastA
|   2784: 63 63 65 73 73 65 64 22 20 49 4e 54 45 47 45 52   ccessed. INTEGER
|   2800: 2c 20 22 6e 66 6f 3a 66 69 6c 65 43 72 65 61 74   , .nfo:fileCreat
|   2816: 65 64 22 20 49 4e 54 45 47 45 52 2c 20 22 6e 66   ed. INTEGER, .nf
|   2832: 6f 3a 66 69 6c 65 53 69 7a 65 22 20 49 4e 54 45   o:fileSize. INTE
|   2848: 47 45 52 2c 20 22 6e 66 6f 3a 70 65 72 6d 69 73   GER, .nfo:permis
|   2864: 73 69 6f 6e 73 22 20 54 45 58 54 2c 20 22 6e 66   sions. TEXT, .nf
|   2880: 6f 3a 66 69 6c 65 4e 61 6d 65 22 20 54 45 58 54   o:fileName. TEXT
|   2896: 2c 20 22 6e 66 6f 3a 68 61 73 48 61 73 68 22 20   , .nfo:hasHash. 
|   2912: 49 4e 54 45 47 45 52 2c 20 22 6e 66 6f 3a 66 69   INTEGER, .nfo:fi
|   2928: 6c 65 4f 77 6e 65 72 22 20 49 4e 54 45 47 45 52   leOwner. INTEGER
|   2944: 2c 20 22 6e 66 6f 3a 66 69 6c 65 4c 61 73 74 4d   , .nfo:fileLastM
|   2960: 6f 64 69 66 69 65 64 22 20 49 4e 54 45 47 45 52   odified. INTEGER
|   2976: 2c 20 22 74 72 61 63 6b 65 72 3a 65 78 74 72 61   , .tracker:extra
|   2992: 63 74 6f 72 48 61 73 68 22 20 54 45 58 54 29 82   ctorHash. TEXT).
|   3008: 68 0c 07 17 35 35 01 84 73 74 61 62 6c 65 44 3a   h...55..stableD:
|   3024: 6e 66 6f 3a 46 69 6c 65 44 61 74 61 4f 62 6a 65   nfo:FileDataObje
|   3040: 63 74 44 3a 6e 66 6f 3a 46 69 6c 65 44 61 74 61   ctD:nfo:FileData
|   3056: 4f 62 6a 65 63 74 0d 43 52 45 41 54 45 20 54 41   Object.CREATE TA
|   3072: 42 4c 45 20 22 44 3a 6e 66 6f 3a 46 69 6c 65 44   BLE .D:nfo:FileD
|   3088: 61 74 61 4f 62 6a 65 63 74 22 20 28 49 44 20 49   ataObject. (ID I
|   3104: 4e 54 45 47 45 52 20 4e 4f 54 20 4e 55 4c 4c 20   NTEGER NOT NULL 
|   3120: 50 52 49 4d 41 52 59 20 4b 45 59 2c 20 22 6e 66   PRIMARY KEY, .nf
|   3136: 6f 3a 66 69 6c 65 4c 61 73 74 41 63 63 65 73 73   o:fileLastAccess
|   3152: 65 64 22 20 49 4e 54 45 47 45 52 2c 20 22 6e 66   ed. INTEGER, .nf
|   3168: 6f 3a 66 69 6c 65 43 72 65 61 74 65 64 22 20 49   o:fileCreated. I
|   3184: 4e 54 45 47 45 52 2c 20 22 6e 66 6f 3a 66 69 6c   NTEGER, .nfo:fil
|   3200: 65 53 69 7a 65 22 20 49 4e 54 45 47 45 52 2c 20   eSize. INTEGER, 
|   3216: 22 6e 66 6f 3a 70 65 72 6d 69 73 73 69 6f 6e 73   .nfo:permissions
|   3232: 22 20 54 45 58 54 2c 20 22 6e 66 6f 3a 66 69 6c   . TEXT, .nfo:fil
|   3248: 65 4e 61 6d 65 22 20 54 45 58 54 2c 20 22 6e 66   eName. TEXT, .nf
|   3264: 6f 3a 68 61 73 48 61 73 68 22 20 49 4e 54 45 47   o:hasHash. INTEG
|   3280: 45 52 2c 20 22 6e 66 06 18 06 00 00 00 00 00 86   ER, .nf.........
|   3296: 1e 17 07 17 3d 3d 01 8b 4f 74 61 62 6c 65 41 3a   ....==..OtableA:
|   3312: 6e 69 65 3a 49 6e 66 6f 72 6d 61 74 69 6f 6e 45   nie:InformationE
|   3328: 6c 65 6d 65 6e 74 41 3a 6e 69 65 3a 49 6e 66 6f   lementA:nie:Info
|   3344: 72 6d 61 74 69 6f 6e 45 6c 65 6d 65 6e 74 1a 43   rmationElement.C
|   3360: 52 45 41 54 45 20 54 41 42 4c 45 20 22 41 3a 6e   REATE TABLE .A:n
|   3376: 69 65 3a 49 6e 66 6f 72 6d 61 74 69 6f 6e 45 6c   ie:InformationEl
|   3392: 65 6d 65 6e 74 22 20 28 49 44 20 49 4e 54 45 47   ement. (ID INTEG
|   3408: 45 52 20 4e 4f 54 20 4e 55 4c 4c 20 50 52 49 4d   ER NOT NULL PRIM
|   3424: 41 52 59 20 4b 45 59 2c 20 22 6e 69 65 3a 74 69   ARY KEY, .nie:ti
|   3440: 74 6c 65 22 20 54 45 58 54 2c 20 22 6e 69 65 3a   tle. TEXT, .nie:
|   3456: 63 6f 6e 74 65 6e 74 4c 61 73 74 4d 6f 64 69 66   contentLastModif
|   3472: 69 65 64 22 20 49 4e 54 45 47 45 52 2c 20 22 6e   ied. INTEGER, .n
|   3488: 69 65 3a 73 75 62 6a 65 63 74 22 20 54 45 58 54   ie:subject. TEXT
|   3504: 2c 20 22 6e 69 65 3a 6d 69 6d 65 54 79 70 65 22   , .nie:mimeType.
|   3520: 20 54 45 58 54 2c 20 22 6e 69 65 3a 6c 61 6e 67    TEXT, .nie:lang
|   3536: 75 61 67 65 22 20 54 45 58 54 2c 20 22 6e 69 65   uage. TEXT, .nie
|   3552: 3a 70 6c 61 69 6e 54 65 78 74 43 6f 6e 74 65 6e   :plainTextConten
|   3568: 74 22 20 54 45 58 54 2c 20 22 6e 69 65 3a 67 65   t. TEXT, .nie:ge
|   3584: 6e 65 72 61 74 6f 72 22 20 54 45 58 54 2c 20 22   nerator. TEXT, .
|   3600: 6e 69 65 3a 64 65 73 63 72 69 70 74 69 6f 6e 22   nie:description.
|   3616: 20 54 45 58 54 2c 20 22 6e 69 65 3a 64 69 73 63    TEXT, .nie:disc
|   3632: 6c 61 69 6d 65 72 22 20 54 45 58 54 2c 20 22 6e   laimer. TEXT, .n
|   3648: 69 65 3a 64 65 70 65 6e 64 73 22 20 49 4e 54 45   ie:depends. INTE
|   3664: 47 45 52 2c 20 22 6e 69 65 3a 6c 69 6e 6b 73 22   GER, .nie:links.
|   3680: 20 49 4e 54 45 47 45 52 2c 20 22 6e 69 65 3a 63    INTEGER, .nie:c
|   3696: 6f 6d 6d 65 6e 74 22 20 54 45 58 54 2c 20 22 6e   omment. TEXT, .n
|   3712: 69 65 3a 76 65 72 73 69 6f 6e 22 20 54 45 58 54   ie:version. TEXT
|   3728: 2c 20 22 6e 69 65 3a 63 6f 6e 74 65 6e 74 43 72   , .nie:contentCr
|   3744: 65 61 74 65 64 22 20 49 4e 54 45 47 45 52 2c 20   eated. INTEGER, 
|   3760: 22 6e 69 65 3a 63 6f 6e 74 65 6e 74 41 63 63 65   .nie:contentAcce
|   3776: 73 73 65 64 22 20 49 4e 54 45 47 45 52 2c 20 22   ssed. INTEGER, .
|   3792: 6e 69 65 3a 69 64 65 6e 74 69 66 69 65 72 22 20   nie:identifier. 
|   3808: 54 45 58 54 2c 20 22 6e 69 65 3a 6c 69 63 65 6e   TEXT, .nie:licen
|   3824: 73 65 54 79 70 65 22 20 54 45 58 54 2c 20 22 6e   seType. TEXT, .n
|   3840: 69 65 3a 63 68 61 72 61 63 74 65 72 53 65 74 22   ie:characterSet.
|   3856: 20 54 45 58 54 2c 20 22 6e 69 65 3a 63 6f 6e 74    TEXT, .nie:cont
|   3872: 65 6e 74 53 69 7a 65 22 20 49 4e 54 45 47 45 52   entSize. INTEGER
|   3888: 2c 20 22 6e 69 65 3a 72 6f 6f 74 45 6c 65 6d 65   , .nie:rootEleme
|   3904: 6e 74 4f 66 22 20 49 4e 54 45 47 45 52 2c 20 22   ntOf. INTEGER, .
|   3920: 6e 69 65 3a 75 73 61 67 65 43 6f 75 6e 74 65 72   nie:usageCounter
|   3936: 22 20 49 4e 54 45 47 45 52 2c 20 22 6e 63 6f 3a   . INTEGER, .nco:
|   3952: 70 75 62 6c 69 73 68 65 72 22 20 49 4e 54 45 47   publisher. INTEG
|   3968: 45 52 2c 20 22 6e 66 6f 3a 69 73 43 6f 6e 74 65   ER, .nfo:isConte
|   3984: 6e 74 45 6e 63 72 79 70 74 65 64 22 20 49 4e 54   ntEncrypted. INT
|   4000: 45 47 45 52 2c 20 22 6e 66 6f 3a 69 73 42 6f 6f   EGER, .nfo:isBoo
|   4016: 74 61 62 6c 65 22 20 49 4e 54 45 47 45 52 2c 20   table. INTEGER, 
|   4032: 22 73 6c 6f 3a 6c 6f 63 61 74 69 6f 6e 22 20 49   .slo:location. I
|   4048: 4e 54 45 47 45 52 2c 20 22 6f 73 69 6e 66 6f 3a   NTEGER, .osinfo:
|   4064: 69 64 22 20 54 45 58 54 2c 20 22 6f 73 69 6e 66   id. TEXT, .osinf
|   4080: 6f 3a 6d 65 64 69 61 49 64 22 20 54 45 58 54 29   o:mediaId. TEXT)
| page 18 offset 69632
|      0: 0d 00 00 00 00 10 00 00 00 00 00 00 00 00 00 00   ................
| page 19 offset 73728
|      0: 0d 00 00 00 00 10 00 00 00 00 00 00 00 00 00 00   ................
| page 20 offset 77824
|      0: 0d 00 00 00 00 10 00 00 00 00 00 00 00 00 00 00   ................
| page 21 offset 81920
|      0: 0d 00 00 00 00 10 00 00 00 00 00 00 00 00 00 00   ................
| page 22 offset 86016
|      0: 0d 00 00 00 00 10 00 00 00 00 00 00 00 00 00 00   ................
| page 23 offset 90112
|      0: 0d 00 00 00 00 10 00 00 00 00 00 00 00 00 00 00   ................
| page 24 offset 94208
|      0: 0d 00 00 00 00 10 00 00 00 00 00 00 00 00 00 00   ................
| page 25 offset 98304
|      0: 0d 00 00 00 00 10 00 00 00 00 00 00 00 00 00 00   ................
| page 26 offset 102400
|      0: 0d 00 00 00 00 10 00 00 00 00 00 00 00 00 00 00   ................
| page 27 offset 106496
|      0: 0d 00 00 00 00 10 00 00 00 00 00 00 00 00 00 00   ................
| page 28 offset 110592
|      0: 0d 00 00 00 05 00 5b 00 09 be 06 9d 03 7c 00 5b   ......[......|.[
|     16: 0c df 00 53 00 00 00 00 00 00 00 00 00 00 00 00   ...S............
|     80: 00 00 00 00 00 00 08 00 00 00 00 86 1e 1b 07 17   ................
|     96: 3d 3d 01 8b 4f 74 61 62 6c 65 45 3a 6e 69 65 3a   ==..OtableE:nie:
|    112: 49 6e 66 6f 72 6d 61 74 69 6f 6e 45 6c 65 6d 65   InformationEleme
|    128: 6e 74 45 3a 6e 69 65 3a 49 6e 66 6f 72 6d 61 74   ntE:nie:Informat
|    144: 69 6f 6e 45 6c 65 6d 65 6e 74 1f 43 52 45 41 54   ionElement.CREAT
|    160: 45 20 54 41 42 4c 45 20 22 45 3a 6e 69 65 3a 49   E TABLE .E:nie:I
|    176: 6e 66 6f 72 6d 61 74 69 6f 6e 45 6c 65 6d 65 6e   nformationElemen
|    192: 74 22 20 28 49 44 20 49 4e 54 45 47 45 52 20 4e   t. (ID INTEGER N
|    208: 4f 54 20 4e 55 4c 4c 20 50 52 49 4d 41 52 59 20   OT NULL PRIMARY 
|    224: 4b 45 59 2c 20 22 6e 69 65 3a 74 69 74 6c 65 22   KEY, .nie:title.
|    240: 20 54 45 58 54 2c 20 22 6e 69 65 3a 63 6f 6e 74    TEXT, .nie:cont
|    256: 65 6e 74 4c 61 73 74 4d 6f 64 69 66 69 65 64 22   entLastModified.
|    272: 20 49 4e 54 45 47 45 52 2c 20 22 6e 69 65 3a 73    INTEGER, .nie:s
|    288: 75 62 6a 65 63 74 22 20 54 45 58 54 2c 20 22 6e   ubject. TEXT, .n
|    304: 69 65 3a 6d 69 6d 65 54 79 70 65 22 20 54 45 58   ie:mimeType. TEX
|    320: 54 2c 20 22 6e 69 65 3a 6c 61 6e 67 75 61 67 65   T, .nie:language
|    336: 22 20 54 45 58 54 2c 20 22 6e 69 65 3a 70 6c 61   . TEXT, .nie:pla
|    352: 69 6e 54 65 78 74 43 6f 6e 74 65 6e 74 22 20 54   inTextContent. T
|    368: 45 58 54 2c 20 22 6e 69 65 3a 67 65 6e 65 72 61   EXT, .nie:genera
|    384: 74 6f 72 22 20 54 45 58 54 2c 20 22 6e 69 65 3a   tor. TEXT, .nie:
|    400: 64 65 73 63 72 69 70 74 69 6f 6e 22 20 54 45 58   description. TEX
|    416: 54 2c 20 22 6e 69 65 3a 64 69 73 63 6c 61 69 6d   T, .nie:disclaim
|    432: 65 72 22 20 54 45 58 54 2c 20 22 6e 69 65 3a 64   er. TEXT, .nie:d
|    448: 65 70 65 6e 64 73 22 20 49 4e 54 45 47 45 52 2c   epends. INTEGER,
|    464: 20 22 6e 69 65 3a 6c 69 6e 6b 73 22 20 49 4e 54    .nie:links. INT
|    480: 45 47 45 52 2c 20 22 6e 69 65 3a 63 6f 6d 6d 65   EGER, .nie:comme
|    496: 6e 74 22 20 54 45 58 54 2c 20 22 6e 69 65 3a 76   nt. TEXT, .nie:v
|    512: 65 72 73 69 6f 6e 22 20 54 45 58 54 2c 20 22 6e   ersion. TEXT, .n
|    528: 69 65 3a 63 6f 6e 74 65 6e 74 43 72 65 61 74 65   ie:contentCreate
|    544: 64 22 20 49 4e 54 45 47 45 52 2c 20 22 6e 69 65   d. INTEGER, .nie
|    560: 3a 63 6f 6e 74 65 6e 74 41 63 63 65 73 73 65 64   :contentAccessed
|    576: 22 20 49 4e 54 45 47 45 52 2c 20 22 6e 69 65 3a   . INTEGER, .nie:
|    592: 69 64 65 6e 74 69 66 69 65 72 22 20 54 45 58 54   identifier. TEXT
|    608: 2c 20 22 6e 69 65 3a 6c 69 63 65 6e 73 65 54 79   , .nie:licenseTy
|    624: 70 65 22 20 54 45 58 54 2c 20 22 6e 69 65 3a 63   pe. TEXT, .nie:c
|    640: 68 61 72 61 63 74 65 72 53 65 74 22 20 54 45 58   haracterSet. TEX
|    656: 54 2c 20 22 6e 69 65 3a 63 6f 6e 74 65 6e 74 53   T, .nie:contentS
|    672: 69 7a 65 22 20 49 4e 54 45 47 45 52 2c 20 22 6e   ize. INTEGER, .n
|    688: 69 65 3a 72 6f 6f 74 45 6c 65 6d 65 6e 74 4f 66   ie:rootElementOf
|    704: 22 20 49 4e 54 45 47 45 52 2c 20 22 6e 69 65 3a   . INTEGER, .nie:
|    720: 75 73 61 67 65 43 6f 75 6e 74 65 72 22 20 49 4e   usageCounter. IN
|    736: 54 45 47 45 52 2c 20 22 6e 63 6f 3a 70 75 62 6c   TEGER, .nco:publ
|    752: 69 73 68 65 72 22 20 49 4e 54 45 47 45 52 2c 20   isher. INTEGER, 
|    768: 22 6e 66 6f 3a 69 73 43 6f 6e 74 65 6e 74 45 6e   .nfo:isContentEn
|    784: 63 72 79 70 74 65 64 22 20 49 4e 54 45 47 45 52   crypted. INTEGER
|    800: 2c 20 22 6e 66 6f 3a 69 73 42 6f 6f 74 61 62 6c   , .nfo:isBootabl
|    816: 65 22 20 49 4e 54 45 47 45 52 2c 20 22 73 6c 6f   e. INTEGER, .slo
|    832: 3a 6c 6f 63 61 74 69 6f 6e 22 20 49 4e 54 45 47   :location. INTEG
|    848: 45 52 2c 20 22 6f 73 69 6e 66 6f 3a 69 64 22 20   ER, .osinfo:id. 
|    864: 54 45 58 54 2c 20 22 6f 73 69 6e 66 6f 3a 6d 65   TEXT, .osinfo:me
|    880: 64 69 61 49 64 22 20 54 45 58 54 29 86 1e 1a 07   diaId. TEXT)....
|    896: 17 3d 3d 01 8b 4f 74 61 62 6c 65 44 3a 6e 69 65   .==..OtableD:nie
|    912: 3a 49 6e 66 6f 72 6d 61 74 69 6f 6e 45 6c 65 6d   :InformationElem
|    928: 65 6e 74 44 3a 6e 69 65 3a 49 6e 66 6f 72 6d 61   entD:nie:Informa
|    944: 74 69 6f 6e 45 6c 65 6d 65 6e 74 1e 43 52 45 41   tionElement.CREA
|    960: 54 45 20 54 41 42 4c 45 20 22 44 3a 6e 69 65 3a   TE TABLE .D:nie:
|    976: 49 6e 66 6f 72 6d 61 74 69 6f 6e 45 6c 65 6d 65   InformationEleme
|    992: 6e 74 22 20 28 49 44 20 49 4e 54 45 47 45 52 20   nt. (ID INTEGER 
|   1008: 4e 4f 54 20 4e 55 4c 4c 20 50 52 49 4d 41 52 59   NOT NULL PRIMARY
|   1024: 20 4b 45 59 2c 20 22 6e 69 65 3a 74 69 74 6c 65    KEY, .nie:title
|   1040: 22 20 54 45 58 54 2c 20 22 6e 69 65 3a 63 6f 6e   . TEXT, .nie:con
|   1056: 74 65 6e 74 4c 61 73 74 4d 6f 64 69 66 69 65 64   tentLastModified
|   1072: 22 20 49 4e 54 45 47 45 52 2c 20 22 6e 69 65 3a   . INTEGER, .nie:
|   1088: 73 75 62 6a 65 63 74 22 20 54 45 58 54 2c 20 22   subject. TEXT, .
|   1104: 6e 69 65 3a 6d 69 6d 65 54 79 70 65 22 20 54 45   nie:mimeType. TE
|   1120: 58 54 2c 20 22 6e 69 65 3a 6c 61 6e 67 75 61 67   XT, .nie:languag
|   1136: 65 22 20 54 45 58 54 2c 20 22 6e 69 65 3a 70 6c   e. TEXT, .nie:pl
|   1152: 61 69 6e 54 65 78 74 43 6f 6e 74 65 6e 74 22 20   ainTextContent. 
|   1168: 54 45 58 54 2c 20 22 6e 69 65 3a 67 65 6e 65 72   TEXT, .nie:gener
|   1184: 61 74 6f 72 22 20 54 45 58 54 2c 20 22 6e 69 65   ator. TEXT, .nie
|   1200: 3a 64 65 73 63 72 69 70 74 69 6f 6e 22 20 54 45   :description. TE
|   1216: 58 54 2c 20 22 6e 69 65 3a 64 69 73 63 6c 61 69   XT, .nie:disclai
|   1232: 6d 65 72 22 20 54 45 58 54 2c 20 22 6e 69 65 3a   mer. TEXT, .nie:
|   1248: 64 65 70 65 6e 64 73 22 20 49 4e 54 45 47 45 52   depends. INTEGER
|   1264: 2c 20 22 6e 69 65 3a 6c 69 6e 6b 73 22 20 49 4e   , .nie:links. IN
|   1280: 54 45 47 45 52 2c 20 22 6e 69 65 3a 63 6f 6d 6d   TEGER, .nie:comm
|   1296: 65 6e 74 22 20 54 45 58 54 2c 20 22 6e 69 65 3a   ent. TEXT, .nie:
|   1312: 76 65 72 73 69 6f 6e 22 20 54 45 58 54 2c 20 22   version. TEXT, .
|   1328: 6e 69 65 3a 63 6f 6e 74 65 6e 74 43 72 65 61 74   nie:contentCreat
|   1344: 65 64 22 20 49 4e 54 45 47 45 52 2c 20 22 6e 69   ed. INTEGER, .ni
|   1360: 65 3a 63 6f 6e 74 65 6e 74 41 63 63 65 73 73 65   e:contentAccesse
|   1376: 64 22 20 49 4e 54 45 47 45 52 2c 20 22 6e 69 65   d. INTEGER, .nie
|   1392: 3a 69 64 65 6e 74 69 66 69 65 72 22 20 54 45 58   :identifier. TEX
|   1408: 54 2c 20 22 6e 69 65 3a 6c 69 63 65 6e 73 65 54   T, .nie:licenseT
|   1424: 79 70 65 22 20 54 45 58 54 2c 20 22 6e 69 65 3a   ype. TEXT, .nie:
|   1440: 63 68 61 72 61 63 74 65 72 53 65 74 22 20 54 45   characterSet. TE
|   1456: 58 54 2c 20 22 6e 69 65 3a 63 6f 6e 74 65 6e 74   XT, .nie:content
|   1472: 53 69 7a 65 22 20 49 4e 54 45 47 45 52 2c 20 22   Size. INTEGER, .
|   1488: 6e 69 65 3a 72 6f 6f 74 45 6c 65 6d 65 6e 74 4f   nie:rootElementO
|   1504: 66 22 20 49 4e 54 45 47 45 52 2c 20 22 6e 69 65   f. INTEGER, .nie
|   1520: 3a 75 73 61 67 65 43 6f 75 6e 74 65 72 22 20 49   :usageCounter. I
|   1536: 4e 54 45 47 45 52 2c 20 22 6e 63 6f 3a 70 75 62   NTEGER, .nco:pub
|   1552: 6c 69 73 68 65 72 22 20 49 4e 54 45 47 45 52 2c   lisher. INTEGER,
|   1568: 20 22 6e 66 6f 3a 69 73 43 6f 6e 74 65 6e 74 45    .nfo:isContentE
|   1584: 6e 63 72 79 70 74 65 64 22 20 49 4e 54 45 47 45   ncrypted. INTEGE
|   1600: 52 2c 20 22 6e 66 6f 3a 69 73 42 6f 6f 74 61 62   R, .nfo:isBootab
|   1616: 6c 65 22 20 49 4e 54 45 47 45 52 2c 20 22 73 6c   le. INTEGER, .sl
|   1632: 6f 3a 6c 6f 63 61 74 69 6f 6e 22 20 49 4e 54 45   o:location. INTE
|   1648: 47 45 52 2c 20 22 6f 73 69 6e 66 6f 3a 69 64 22   GER, .osinfo:id.
|   1664: 20 54 45 58 54 2c 20 22 6f 73 69 6e 66 6f 3a 6d    TEXT, .osinfo:m
|   1680: 65 64 69 61 49 64 22 20 54 45 58 54 29 86 1e 19   ediaId. TEXT)...
|   1696: 07 17 3d 3d 01 8b 4f 74 61 62 6c 65 43 3a 6e 69   ..==..OtableC:ni
|   1712: 65 3a 49 6e 66 6f 72 6d 61 74 69 6f 6e 45 6c 65   e:InformationEle
|   1728: 6d 65 6e 74 43 3a 6e 69 65 3a 49 6e 66 6f 72 6d   mentC:nie:Inform
|   1744: 61 74 69 6f 6e 45 6c 65 6d 65 6e 74 1d 43 52 45   ationElement.CRE
|   1760: 41 54 45 20 54 41 42 4c 45 20 22 43 3a 6e 69 65   ATE TABLE .C:nie
|   1776: 3a 49 6e 66 6f 72 6d 61 74 69 6f 6e 45 6c 65 6d   :InformationElem
|   1792: 65 6e 74 22 20 28 49 44 20 49 4e 54 45 47 45 52   ent. (ID INTEGER
|   1808: 20 4e 4f 54 20 4e 55 4c 4c 20 50 52 49 4d 41 52    NOT NULL PRIMAR
|   1824: 59 20 4b 45 59 2c 20 22 6e 69 65 3a 74 69 74 6c   Y KEY, .nie:titl
|   1840: 65 22 20 54 45 58 54 2c 20 22 6e 69 65 3a 63 6f   e. TEXT, .nie:co
|   1856: 6e 74 65 6e 74 4c 61 73 74 4d 6f 64 69 66 69 65   ntentLastModifie
|   1872: 64 22 20 49 4e 54 45 47 45 52 2c 20 22 6e 69 65   d. INTEGER, .nie
|   1888: 3a 73 75 62 6a 65 63 74 22 20 54 45 58 54 2c 20   :subject. TEXT, 
|   1904: 22 6e 69 65 3a 6d 69 6d 65 54 79 70 65 22 20 54   .nie:mimeType. T
|   1920: 45 58 54 2c 20 22 6e 69 65 3a 6c 61 6e 67 75 61   EXT, .nie:langua
|   1936: 67 65 22 20 54 45 58 54 2c 20 22 6e 69 65 3a 70   ge. TEXT, .nie:p
|   1952: 6c 61 69 6e 54 65 78 74 43 6f 6e 74 65 6e 74 22   lainTextContent.
|   1968: 20 54 45 58 54 2c 20 22 6e 69 65 3a 67 65 6e 65    TEXT, .nie:gene
|   1984: 72 61 74 6f 72 22 20 54 45 58 54 2c 20 22 6e 69   rator. TEXT, .ni
|   2000: 65 3a 64 65 73 63 72 69 70 74 69 6f 6e 22 20 54   e:description. T
|   2016: 45 58 54 2c 20 22 6e 69 65 3a 64 69 73 63 6c 61   EXT, .nie:discla
|   2032: 69 6d 65 72 22 20 54 45 58 54 2c 20 22 6e 69 65   imer. TEXT, .nie
|   2048: 3a 64 65 70 65 6e 64 73 22 20 49 4e 54 45 47 45   :depends. INTEGE
|   2064: 52 2c 20 22 6e 69 65 3a 6c 69 6e 6b 73 22 20 49   R, .nie:links. I
|   2080: 4e 54 45 47 45 52 2c 20 22 6e 69 65 3a 63 6f 6d   NTEGER, .nie:com
|   2096: 6d 65 6e 74 22 20 54 45 58 54 2c 20 22 6e 69 65   ment. TEXT, .nie
|   2112: 3a 76 65 72 73 69 6f 6e 22 20 54 45 58 54 2c 20   :version. TEXT, 
|   2128: 22 6e 69 65 3a 63 6f 6e 74 65 6e 74 43 72 65 61   .nie:contentCrea
|   2144: 74 65 64 22 20 49 4e 54 45 47 45 52 2c 20 22 6e   ted. INTEGER, .n
|   2160: 69 65 3a 63 6f 6e 74 65 6e 74 41 63 63 65 73 73   ie:contentAccess
|   2176: 65 64 22 20 49 4e 54 45 47 45 52 2c 20 22 6e 69   ed. INTEGER, .ni
|   2192: 65 3a 69 64 65 6e 74 69 66 69 65 72 22 20 54 45   e:identifier. TE
|   2208: 58 54 2c 20 22 6e 69 65 3a 6c 69 63 65 6e 73 65   XT, .nie:license
|   2224: 54 79 70 65 22 20 54 45 58 54 2c 20 22 6e 69 65   Type. TEXT, .nie
|   2240: 3a 63 68 61 72 61 63 74 65 72 53 65 74 22 20 54   :characterSet. T
|   2256: 45 58 54 2c 20 22 6e 69 65 3a 63 6f 6e 74 65 6e   EXT, .nie:conten
|   2272: 74 53 69 7a 65 22 20 49 4e 54 45 47 45 52 2c 20   tSize. INTEGER, 
|   2288: 22 6e 69 65 3a 72 6f 6f 74 45 6c 65 6d 65 6e 74   .nie:rootElement
|   2304: 4f 66 22 20 49 4e 54 45 47 45 52 2c 20 22 6e 69   Of. INTEGER, .ni
|   2320: 65 3a 75 73 61 67 65 43 6f 75 6e 74 65 72 22 20   e:usageCounter. 
|   2336: 49 4e 54 45 47 45 52 2c 20 22 6e 63 6f 3a 70 75   INTEGER, .nco:pu
|   2352: 62 6c 69 73 68 65 72 22 20 49 4e 54 45 47 45 52   blisher. INTEGER
|   2368: 2c 20 22 6e 66 6f 3a 69 73 43 6f 6e 74 65 6e 74   , .nfo:isContent
|   2384: 45 6e 63 72 79 70 74 65 64 22 20 49 4e 54 45 47   Encrypted. INTEG
|   2400: 45 52 2c 20 22 6e 66 6f 3a 69 73 42 6f 6f 74 61   ER, .nfo:isBoota
|   2416: 62 6c 65 22 20 49 4e 54 45 47 45 52 2c 20 22 73   ble. INTEGER, .s
|   2432: 6c 6f 3a 6c 6f 63 61 74 69 6f 6e 22 20 49 4e 54   lo:location. INT
|   2448: 45 47 45 52 2c 20 22 6f 73 69 6e 66 6f 3a 69 64   EGER, .osinfo:id
|   2464: 22 20 54 45 58 54 2c 20 22 6f 73 69 6e 66 6f 3a   . TEXT, .osinfo:
|   2480: 6d 65 64 69 61 49 64 22 20 54 45 58 54 29 86 1e   mediaId. TEXT)..
|   2496: 18 07 17 3d 3d 01 8b 4f 74 61 62 6c 65 42 3a 6e   ...==..OtableB:n
|   2512: 69 65 3a 49 6e 66 6f 72 6d 61 74 69 6f 6e 45 6c   ie:InformationEl
|   2528: 65 6d 65 6e 74 42 3a 6e 69 65 3a 49 6e 66 6f 72   ementB:nie:Infor
|   2544: 6d 61 74 69 6f 6e 45 6c 65 6d 65 6e 74 1b 43 52   mationElement.CR
|   2560: 45 41 54 45 20 54 41 42 4c 45 20 22 42 3a 6e 69   EATE TABLE .B:ni
|   2576: 65 3a 49 6e 66 6f 72 6d 61 74 69 6f 6e 45 6c 65   e:InformationEle
|   2592: 6d 65 6e 74 22 20 28 49 44 20 49 4e 54 45 47 45   ment. (ID INTEGE
|   2608: 52 20 4e 4f 54 20 4e 55 4c 4c 20 50 52 49 4d 41   R NOT NULL PRIMA
|   2624: 52 59 20 4b 45 59 2c 20 22 6e 69 65 3a 74 69 74   RY KEY, .nie:tit
|   2640: 6c 65 22 20 54 45 58 54 2c 20 22 6e 69 65 3a 63   le. TEXT, .nie:c
|   2656: 6f 6e 74 65 6e 74 4c 61 73 74 4d 6f 64 69 66 69   ontentLastModifi
|   2672: 65 64 22 20 49 4e 54 45 47 45 52 2c 20 22 6e 69   ed. INTEGER, .ni
|   2688: 65 3a 73 75 62 6a 65 63 74 22 20 54 45 58 54 2c   e:subject. TEXT,
|   2704: 20 22 6e 69 65 3a 6d 69 6d 65 54 79 70 65 22 20    .nie:mimeType. 
|   2720: 54 45 58 54 2c 20 22 6e 69 65 3a 6c 61 6e 67 75   TEXT, .nie:langu
|   2736: 61 67 65 22 20 54 45 58 54 2c 20 22 6e 69 65 3a   age. TEXT, .nie:
|   2752: 70 6c 61 69 6e 54 65 78 74 43 6f 6e 74 65 6e 74   plainTextContent
|   2768: 22 20 54 45 58 54 2c 20 22 6e 69 65 3a 67 65 6e   . TEXT, .nie:gen
|   2784: 65 72 61 74 6f 72 22 20 54 45 58 54 2c 20 22 6e   erator. TEXT, .n
|   2800: 69 65 3a 64 65 73 63 72 69 70 74 69 6f 6e 22 20   ie:description. 
|   2816: 54 45 58 54 2c 20 22 6e 69 65 3a 64 69 73 63 6c   TEXT, .nie:discl
|   2832: 61 69 6d 65 72 22 20 54 45 58 54 2c 20 22 6e 69   aimer. TEXT, .ni
|   2848: 65 3a 64 65 70 65 6e 64 73 22 20 49 4e 54 45 47   e:depends. INTEG
|   2864: 45 52 2c 20 22 6e 69 65 3a 6c 69 6e 6b 73 22 20   ER, .nie:links. 
|   2880: 49 4e 54 45 47 45 52 2c 20 22 6e 69 65 3a 63 6f   INTEGER, .nie:co
|   2896: 6d 6d 65 6e 74 22 20 54 45 58 54 2c 20 22 6e 69   mment. TEXT, .ni
|   2912: 65 3a 76 65 72 73 69 6f 6e 22 20 54 45 58 54 2c   e:version. TEXT,
|   2928: 20 22 6e 69 65 3a 63 6f 6e 74 65 6e 74 43 72 65    .nie:contentCre
|   2944: 61 74 65 64 22 20 49 4e 54 45 47 45 52 2c 20 22   ated. INTEGER, .
|   2960: 6e 69 65 3a 63 6f 6e 74 65 6e 74 41 63 63 65 73   nie:contentAcces
|   2976: 73 65 64 22 20 49 4e 54 45 47 45 52 2c 20 22 6e   sed. INTEGER, .n
|   2992: 69 65 3a 69 64 65 6e 74 69 66 69 65 72 22 20 54   ie:identifier. T
|   3008: 45 58 54 2c 20 22 6e 69 65 3a 6c 69 63 65 6e 73   EXT, .nie:licens
|   3024: 65 54 79 70 65 22 20 54 45 58 54 2c 20 22 6e 69   eType. TEXT, .ni
|   3040: 65 3a 63 68 61 72 61 63 74 65 72 53 65 74 22 20   e:characterSet. 
|   3056: 54 45 58 54 2c 20 22 6e 69 65 3a 63 6f 6e 74 65   TEXT, .nie:conte
|   3072: 6e 74 53 69 7a 65 22 20 49 4e 54 45 47 45 52 2c   ntSize. INTEGER,
|   3088: 20 22 6e 69 65 3a 72 6f 6f 74 45 6c 65 6d 65 6e    .nie:rootElemen
|   3104: 74 4f 66 22 20 49 4e 54 45 47 45 52 2c 20 22 6e   tOf. INTEGER, .n
|   3120: 69 65 3a 75 73 61 67 65 43 6f 75 6e 74 65 72 22   ie:usageCounter.
|   3136: 20 49 4e 54 45 47 45 52 2c 20 22 6e 63 6f 3a 70    INTEGER, .nco:p
|   3152: 75 62 6c 69 73 68 65 72 22 20 49 4e 54 45 47 45   ublisher. INTEGE
|   3168: 52 2c 20 22 6e 66 6f 3a 69 73 43 6f 6e 74 65 6e   R, .nfo:isConten
|   3184: 74 45 6e 63 72 79 70 74 65 64 22 20 49 4e 54 45   tEncrypted. INTE
|   3200: 47 45 52 2c 20 22 6e 66 6f 3a 69 73 42 6f 6f 74   GER, .nfo:isBoot
|   3216: 61 62 6c 65 22 20 49 4e 54 45 47 45 52 2c 20 22   able. INTEGER, .
|   3232: 73 6c 6f 3a 6c 6f 63 61 74 69 6f 6e 22 20 49 4e   slo:location. IN
|   3248: 54 45 47 45 52 2c 20 22 6f 73 69 6e 66 6f 3a 69   TEGER, .osinfo:i
|   3264: 64 22 20 54 45 58 54 2c 20 22 6f 73 69 6e 66 6f   d. TEXT, .osinfo
|   3280: 3a 6d 65 64 69 61 49 64 22 20 54 45 58 54 29 86   :mediaId. TEXT).
|   3296: 1e 1c 07 17 3d 3d 01 8b 4f 74 61 62 6c 65 46 3a   ....==..OtableF:
|   3312: 6e 69 65 3a 49 6e 66 6f 72 6d 61 74 69 6f 6e 45   nie:InformationE
|   3328: 6c 65 6d 65 6e 74 46 3a 6e 69 65 3a 49 6e 66 6f   lementF:nie:Info
|   3344: 72 6d 61 74 69 6f 6e 45 6c 65 6d 65 6e 74 20 43   rmationElement C
|   3360: 52 45 41 54 45 20 54 41 42 4c 45 20 22 46 3a 6e   REATE TABLE .F:n
|   3376: 69 65 3a 49 6e 66 6f 72 6d 61 74 69 6f 6e 45 6c   ie:InformationEl
|   3392: 65 6d 65 6e 74 22 20 28 49 44 20 49 4e 54 45 47   ement. (ID INTEG
|   3408: 45 52 20 4e 4f 54 20 4e 55 4c 4c 20 50 52 49 4d   ER NOT NULL PRIM
|   3424: 41 52 59 20 4b 45 59 2c 20 22 6e 69 65 3a 74 69   ARY KEY, .nie:ti
|   3440: 74 6c 65 22 20 54 45 58 54 2c 20 22 6e 69 65 3a   tle. TEXT, .nie:
|   3456: 63 6f 6e 74 65 6e 74 4c 61 73 74 4d 6f 64 69 66   contentLastModif
|   3472: 69 65 64 22 20 49 4e 54 45 47 45 52 2c 20 22 6e   ied. INTEGER, .n
|   3488: 69 65 3a 73 75 62 6a 65 63 74 22 20 54 45 58 54   ie:subject. TEXT
|   3504: 2c 20 22 6e 69 65 3a 6d 69 6d 65 54 79 70 65 22   , .nie:mimeType.
|   3520: 20 54 45 58 54 2c 20 22 6e 69 65 3a 6c 61 6e 67    TEXT, .nie:lang
|   3536: 75 61 67 65 22 20 54 45 58 54 2c 20 22 6e 69 65   uage. TEXT, .nie
|   3552: 3a 70 6c 61 69 6e 54 65 78 74 43 6f 6e 74 65 6e   :plainTextConten
|   3568: 74 22 20 54 45 58 54 2c 20 22 6e 69 65 3a 67 65   t. TEXT, .nie:ge
|   3584: 6e 65 72 61 74 6f 72 22 20 54 45 58 54 2c 20 22   nerator. TEXT, .
|   3600: 6e 69 65 3a 64 65 73 63 72 69 70 74 69 6f 6e 22   nie:description.
|   3616: 20 54 45 58 54 2c 20 22 6e 69 65 3a 64 69 73 63    TEXT, .nie:disc
|   3632: 6c 61 69 6d 65 72 22 20 54 45 58 54 2c 20 22 6e   laimer. TEXT, .n
|   3648: 69 65 3a 64 65 70 65 6e 64 73 22 20 49 4e 54 45   ie:depends. INTE
|   3664: 47 45 52 2c 20 22 6e 69 65 3a 6c 69 6e 6b 73 22   GER, .nie:links.
|   3680: 20 49 4e 54 45 47 45 52 2c 20 22 6e 69 65 3a 63    INTEGER, .nie:c
|   3696: 6f 6d 6d 65 6e 74 22 20 54 45 58 54 2c 20 22 6e   omment. TEXT, .n
|   3712: 69 65 3a 76 65 72 73 69 6f 6e 22 20 54 45 58 54   ie:version. TEXT
|   3728: 2c 20 22 6e 69 65 3a 63 6f 6e 74 65 6e 74 43 72   , .nie:contentCr
|   3744: 65 61 74 65 64 22 20 49 4e 54 45 47 45 52 2c 20   eated. INTEGER, 
|   3760: 22 6e 69 65 3a 63 6f 6e 74 65 6e 74 41 63 63 65   .nie:contentAcce
|   3776: 73 73 65 64 22 20 49 4e 54 45 47 45 52 2c 20 22   ssed. INTEGER, .
|   3792: 6e 69 65 3a 69 64 65 6e 74 69 66 69 65 72 22 20   nie:identifier. 
|   3808: 54 45 58 54 2c 20 22 6e 69 65 3a 6c 69 63 65 6e   TEXT, .nie:licen
|   3824: 73 65 54 79 70 65 22 20 54 45 58 54 2c 20 22 6e   seType. TEXT, .n
|   3840: 69 65 3a 63 68 61 72 61 63 74 65 72 53 65 74 22   ie:characterSet.
|   3856: 20 54 45 58 54 2c 20 22 6e 69 65 3a 63 6f 6e 74    TEXT, .nie:cont
|   3872: 65 6e 74 53 69 7a 65 22 20 49 4e 54 45 47 45 52   entSize. INTEGER
|   3888: 2c 20 22 6e 69 65 3a 72 6f 6f 74 45 6c 65 6d 65   , .nie:rootEleme
|   3904: 6e 74 4f 66 22 20 49 4e 54 45 47 45 52 2c 20 22   ntOf. INTEGER, .
|   3920: 6e 69 65 3a 75 73 61 67 65 43 6f 75 6e 74 65 72   nie:usageCounter
|   3936: 22 20 49 4e 54 45 47 45 52 2c 20 22 6e 63 6f 3a   . INTEGER, .nco:
|   3952: 70 75 62 6c 69 73 68 65 72 22 20 49 4e 54 45 47   publisher. INTEG
|   3968: 45 52 2c 20 22 6e 66 6f 3a 69 73 43 6f 6e 74 65   ER, .nfo:isConte
|   3984: 6e 74 45 6e 63 72 79 70 74 65 64 22 20 49 4e 54   ntEncrypted. INT
|   4000: 45 47 45 52 2c 20 22 6e 66 6f 3a 69 73 42 6f 6f   EGER, .nfo:isBoo
|   4016: 74 61 62 6c 65 22 20 49 4e 54 45 47 45 52 2c 20   table. INTEGER, 
|   4032: 22 73 6c 6f 3a 6c 6f 63 61 74 69 6f 6e 22 20 49   .slo:location. I
|   4048: 4e 54 45 47 45 52 2c 20 22 6f 73 69 6e 66 6f 3a   NTEGER, .osinfo:
|   4064: 69 64 22 20 54 45 58 54 2c 20 22 6f 73 69 6e 66   id. TEXT, .osinf
|   4080: 6f 3a 6d 65 64 69 61 49 64 22 20 54 45 58 54 29   o:mediaId. TEXT)
| page 29 offset 114688
|      0: 0d 00 00 00 00 10 00 00 00 00 00 00 00 00 00 00   ................
| page 30 offset 118784
|      0: 0d 00 00 00 00 10 00 00 00 00 00 00 00 00 00 00   ................
| page 31 offset 122880
|      0: 0d 00 00 00 00 10 00 00 00 00 00 00 00 00 00 00   ................
| page 32 offset 126976
|      0: 0d 00 00 00 00 10 00 00 00 00 00 00 00 00 00 00   ................
| end select008.txt.db
.testctrl prng_seed 1 db
.testctrl internal_functions
WITH
 "unionGraph_tracker:IndexedFolder"(ID, "tracker:unmountDate","tracker:isRemovable","tracker:isOptical","tracker:available", graph) AS
 (SELECT ID, "tracker:unmountDate","tracker:isRemovable","tracker:isOptical","tracker:available", 0 AS graph FROM "tracker:IndexedFolder"
  UNION ALL SELECT ID, "tracker:unmountDate","tracker:isRemovable","tracker:isOptical","tracker:available", 585 AS graph FROM "A:tracker:IndexedFolder"
  UNION ALL SELECT ID, "tracker:unmountDate","tracker:isRemovable","tracker:isOptical","tracker:available", 584 AS graph FROM "B:tracker:IndexedFolder"
  UNION ALL SELECT ID, "tracker:unmountDate","tracker:isRemovable","tracker:isOptical","tracker:available", 586 AS graph FROM "C:tracker:IndexedFolder"
  UNION ALL SELECT ID, "tracker:unmountDate","tracker:isRemovable","tracker:isOptical","tracker:available", 587 AS graph FROM "D:tracker:IndexedFolder"
  UNION ALL SELECT ID, "tracker:unmountDate","tracker:isRemovable","tracker:isOptical","tracker:available", 583 AS graph FROM "E:tracker:IndexedFolder"
  UNION ALL SELECT ID, "tracker:unmountDate","tracker:isRemovable","tracker:isOptical","tracker:available", 588 AS graph FROM "F:tracker:IndexedFolder" ) ,

 "unionGraph_nfo:FileDataObject"(ID, "nfo:fileLastAccessed","nfo:fileCreated","nfo:fileSize","nfo:permissions","nfo:fileName","nfo:hasHash","nfo:fileOwner","nfo:fileLastModified","tracker:extractorHash", graph) AS
 (SELECT ID, "nfo:fileLastAccessed","nfo:fileCreated","nfo:fileSize","nfo:permissions","nfo:fileName","nfo:hasHash","nfo:fileOwner","nfo:fileLastModified","tracker:extractorHash", 0 AS graph FROM "nfo:FileDataObject"
  UNION ALL SELECT ID, "nfo:fileLastAccessed","nfo:fileCreated","nfo:fileSize","nfo:permissions","nfo:fileName","nfo:hasHash","nfo:fileOwner","nfo:fileLastModified","tracker:extractorHash", 585 AS graph FROM "A:nfo:FileDataObject"
  UNION ALL SELECT ID, "nfo:fileLastAccessed","nfo:fileCreated","nfo:fileSize","nfo:permissions","nfo:fileName","nfo:hasHash","nfo:fileOwner","nfo:fileLastModified","tracker:extractorHash", 584 AS graph FROM "B:nfo:FileDataObject"
  UNION ALL SELECT ID, "nfo:fileLastAccessed","nfo:fileCreated","nfo:fileSize","nfo:permissions","nfo:fileName","nfo:hasHash","nfo:fileOwner","nfo:fileLastModified","tracker:extractorHash", 586 AS graph FROM "C:nfo:FileDataObject"
  UNION ALL SELECT ID, "nfo:fileLastAccessed","nfo:fileCreated","nfo:fileSize","nfo:permissions","nfo:fileName","nfo:hasHash","nfo:fileOwner","nfo:fileLastModified","tracker:extractorHash", 587 AS graph FROM "D:nfo:FileDataObject"
  UNION ALL SELECT ID, "nfo:fileLastAccessed","nfo:fileCreated","nfo:fileSize","nfo:permissions","nfo:fileName","nfo:hasHash","nfo:fileOwner","nfo:fileLastModified","tracker:extractorHash", 583 AS graph FROM "E:nfo:FileDataObject"
  UNION ALL SELECT ID, "nfo:fileLastAccessed","nfo:fileCreated","nfo:fileSize","nfo:permissions","nfo:fileName","nfo:hasHash","nfo:fileOwner","nfo:fileLastModified","tracker:extractorHash", 588 AS graph FROM "F:nfo:FileDataObject" ) ,

 "unionGraph_nie:DataObject_nie:interpretedAs"(ID, "nie:interpretedAs", graph) AS
 (SELECT ID, "nie:interpretedAs", 0 AS graph FROM "nie:DataObject_nie:interpretedAs"
  UNION ALL SELECT ID, "nie:interpretedAs", 585 AS graph FROM "A:nie:DataObject_nie:interpretedAs"
  UNION ALL SELECT ID, "nie:interpretedAs", 584 AS graph FROM "B:nie:DataObject_nie:interpretedAs"
  UNION ALL SELECT ID, "nie:interpretedAs", 586 AS graph FROM "C:nie:DataObject_nie:interpretedAs"
  UNION ALL SELECT ID, "nie:interpretedAs", 587 AS graph FROM "D:nie:DataObject_nie:interpretedAs"
  UNION ALL SELECT ID, "nie:interpretedAs", 583 AS graph FROM "E:nie:DataObject_nie:interpretedAs"
  UNION ALL SELECT ID, "nie:interpretedAs", 588 AS graph FROM "F:nie:DataObject_nie:interpretedAs" ) ,

 "unionGraph_nie:InformationElement"(ID, "nie:title","nie:contentLastModified","nie:subject","nie:mimeType","nie:language","nie:plainTextContent","nie:generator","nie:description","nie:disclaimer","nie:depends","nie:links","nie:comment","nie:version","nie:contentCreated","nie:contentAccessed","nie:identifier","nie:licenseType","nie:characterSet","nie:contentSize","nie:rootElementOf","nie:usageCounter","nco:publisher","nfo:isContentEncrypted","nfo:isBootable","slo:location","osinfo:id","osinfo:mediaId", graph) AS
 (SELECT ID, "nie:title","nie:contentLastModified","nie:subject","nie:mimeType","nie:language","nie:plainTextContent","nie:generator","nie:description","nie:disclaimer","nie:depends","nie:links","nie:comment","nie:version","nie:contentCreated","nie:contentAccessed","nie:identifier","nie:licenseType","nie:characterSet","nie:contentSize","nie:rootElementOf","nie:usageCounter","nco:publisher","nfo:isContentEncrypted","nfo:isBootable","slo:location","osinfo:id","osinfo:mediaId", 0 AS graph FROM "nie:InformationElement"
  UNION ALL SELECT ID, "nie:title","nie:contentLastModified","nie:subject","nie:mimeType","nie:language","nie:plainTextContent","nie:generator","nie:description","nie:disclaimer","nie:depends","nie:links","nie:comment","nie:version","nie:contentCreated","nie:contentAccessed","nie:identifier","nie:licenseType","nie:characterSet","nie:contentSize","nie:rootElementOf","nie:usageCounter","nco:publisher","nfo:isContentEncrypted","nfo:isBootable","slo:location","osinfo:id","osinfo:mediaId", 585 AS graph FROM "A:nie:InformationElement"
  UNION ALL SELECT ID, "nie:title","nie:contentLastModified","nie:subject","nie:mimeType","nie:language","nie:plainTextContent","nie:generator","nie:description","nie:disclaimer","nie:depends","nie:links","nie:comment","nie:version","nie:contentCreated","nie:contentAccessed","nie:identifier","nie:licenseType","nie:characterSet","nie:contentSize","nie:rootElementOf","nie:usageCounter","nco:publisher","nfo:isContentEncrypted","nfo:isBootable","slo:location","osinfo:id","osinfo:mediaId", 584 AS graph FROM "B:nie:InformationElement"
  UNION ALL SELECT ID, "nie:title","nie:contentLastModified","nie:subject","nie:mimeType","nie:language","nie:plainTextContent","nie:generator","nie:description","nie:disclaimer","nie:depends","nie:links","nie:comment","nie:version","nie:contentCreated","nie:contentAccessed","nie:identifier","nie:licenseType","nie:characterSet","nie:contentSize","nie:rootElementOf","nie:usageCounter","nco:publisher","nfo:isContentEncrypted","nfo:isBootable","slo:location","osinfo:id","osinfo:mediaId", 586 AS graph FROM "C:nie:InformationElement"
  UNION ALL SELECT ID, "nie:title","nie:contentLastModified","nie:subject","nie:mimeType","nie:language","nie:plainTextContent","nie:generator","nie:description","nie:disclaimer","nie:depends","nie:links","nie:comment","nie:version","nie:contentCreated","nie:contentAccessed","nie:identifier","nie:licenseType","nie:characterSet","nie:contentSize","nie:rootElementOf","nie:usageCounter","nco:publisher","nfo:isContentEncrypted","nfo:isBootable","slo:location","osinfo:id","osinfo:mediaId", 587 AS graph FROM "D:nie:InformationElement"
  UNION ALL SELECT ID, "nie:title","nie:contentLastModified","nie:subject","nie:mimeType","nie:language","nie:plainTextContent","nie:generator","nie:description","nie:disclaimer","nie:depends","nie:links","nie:comment","nie:version","nie:contentCreated","nie:contentAccessed","nie:identifier","nie:licenseType","nie:characterSet","nie:contentSize","nie:rootElementOf","nie:usageCounter","nco:publisher","nfo:isContentEncrypted","nfo:isBootable","slo:location","osinfo:id","osinfo:mediaId", 583 AS graph FROM "E:nie:InformationElement"
  UNION ALL SELECT ID, "nie:title","nie:contentLastModified","nie:subject","nie:mimeType","nie:language","nie:plainTextContent","nie:generator","nie:description","nie:disclaimer","nie:depends","nie:links","nie:comment","nie:version","nie:contentCreated","nie:contentAccessed","nie:identifier","nie:licenseType","nie:characterSet","nie:contentSize","nie:rootElementOf","nie:usageCounter","nco:publisher","nfo:isContentEncrypted","nfo:isBootable","slo:location","osinfo:id","osinfo:mediaId", 588 AS graph FROM "F:nie:InformationElement" ) ,

 "p1_nie:interpretedAs" (ID, value, graph, ID_type, value_type) AS
 (SELECT ID, "nie:interpretedAs", graph, 7, 7 FROM "unionGraph_nie:DataObject_nie:interpretedAs") ,

 "p2_nie:rootElementOf" (ID, value, graph, ID_type, value_type) AS
 (SELECT ID, "nie:rootElementOf", graph, 7, 7 FROM "unionGraph_nie:InformationElement") ,

 "p3_seq" (ID, value, graph, ID_type, value_type) AS
 (SELECT a.ID, b.value, b.graph, a.ID_type, b.value_type FROM "p1_nie:interpretedAs" AS a, "p2_nie:rootElementOf" AS b WHERE a.value = b.ID)

SELECT "v_f"
FROM (SELECT "p3_seq5"."ID_type" AS "v_f:type" , "p3_seq5"."value_type" AS "v_v:type" , "nfo:FileDataObject4"."ID" AS "v_f" , "tracker:IndexedFolder1"."ID" AS "v_v"
      FROM (SELECT * FROM "unionGraph_tracker:IndexedFolder" ) AS "tracker:IndexedFolder1" ,
           (SELECT * FROM "unionGraph_tracker:IndexedFolder" ) AS "tracker:IndexedFolder2" ,
           (SELECT * FROM "unionGraph_tracker:IndexedFolder" ) AS "tracker:IndexedFolder3" ,
           (SELECT * FROM "unionGraph_nfo:FileDataObject" ) AS "nfo:FileDataObject4" ,
           "p3_seq" AS "p3_seq5"
      WHERE "nfo:FileDataObject4"."ID" = "p3_seq5"."ID"
        AND "tracker:IndexedFolder1"."ID" = "tracker:IndexedFolder2"."ID"
        AND "tracker:IndexedFolder2"."ID" = "tracker:IndexedFolder3"."ID"
        AND "tracker:IndexedFolder3"."ID" = "p3_seq5"."value"
        AND "tracker:IndexedFolder2"."tracker:isRemovable" = 1
        AND "tracker:IndexedFolder3"."tracker:available" = 1 );

