.open --hexdb
| size 28672 pagesize 4096 filename select005.txt.db
| page 1 offset 0
|      0: 53 51 4c 69 74 65 20 66 6f 72 6d 61 74 20 33 00   SQLite format 3.
|     16: 10 00 01 01 00 40 20 20 00 00 00 00 00 00 00 07   .....@  ........
|     32: 00 00 00 00 00 00 00 00 00 00 00 0a 00 00 00 04   ................
|     48: 00 00 00 00 00 00 00 00 00 00 00 01 00 00 00 00   ................
|     96: 00 00 00 00 0d 00 00 00 09 0c c7 00 0f ba 0f 74   ...............t
|    112: 0f 2e 0f 08 0e c2 0e 7c 0d f8 0d 97 0c c7 00 00   .......|........
|   3264: 00 00 00 00 00 00 00 81 4d 09 07 1b 1f 11 08 82   ........M.......
|   3280: 75 74 72 69 67 67 65 72 74 33 5f 69 6e 73 65 72   utriggert3_inser
|   3296: 74 74 33 43 52 45 41 54 45 20 54 52 49 47 47 45   tt3CREATE TRIGGE
|   3312: 52 20 74 33 5f 69 6e 73 65 72 74 20 49 4e 53 54   R t3_insert INST
|   3328: 45 41 44 20 4f 46 20 49 4e 53 45 52 54 20 4f 4e   EAD OF INSERT ON
|   3344: 20 74 33 20 42 45 47 49 4e 0a 20 20 20 20 49 4e    t3 BEGIN.    IN
|   3360: 53 45 52 54 20 49 4e 54 4f 20 74 33 5f 61 20 53   SERT INTO t3_a S
|   3376: 45 4c 45 43 54 20 6e 65 77 2e 6b 2c 20 6e 65 77   ELECT new.k, new
|   3392: 2e 76 20 57 48 45 52 45 20 28 6e 65 77 2e 6b 25   .v WHERE (new.k%
|   3408: 32 29 3d 3d 30 3b 0a 20 20 20 20 49 4e 53 45 52   2)==0;.    INSER
|   3424: 54 20 49 4e 54 4f 20 74 33 5f 62 20 53 45 4c 45   T INTO t3_b SELE
|   3440: 43 54 20 6e 65 77 2e 6b 2c 20 6e 65 77 2e 76 20   CT new.k, new.v 
|   3456: 57 48 45 52 45 20 28 6e 65 77 2e 6b 25 32 29 3d   WHERE (new.k%2)=
|   3472: 3d 31 3b 0a 45 4e 44 5f 08 07 15 11 11 08 81 2d   =1;.END_.......-
|   3488: 76 69 65 77 74 33 74 33 43 52 45 41 54 45 20 56   viewt3t3CREATE V
|   3504: 49 45 57 20 74 33 20 41 53 20 0a 20 20 20 20 53   IEW t3 AS .    S
|   3520: 45 4c 45 43 54 20 2a 20 46 52 4f 4d 20 74 33 5f   ELECT * FROM t3_
|   3536: 61 20 0a 20 20 20 20 55 4e 49 4f 4e 20 41 4c 4c   a .    UNION ALL
|   3552: 20 0a 20 20 20 20 53 45 4c 45 43 54 20 2a 20 46    .    SELECT * F
|   3568: 52 4f 4d 20 74 33 5f 62 81 01 07 07 15 11 11 08   ROM t3_b........
|   3584: 81 71 76 69 65 77 74 31 74 31 43 52 45 41 54 45   .qviewt1t1CREATE
|   3600: 20 56 49 45 57 20 74 31 20 41 53 20 0a 20 20 53    VIEW t1 AS .  S
|   3616: 45 4c 45 43 54 20 61 2c 20 62 20 46 52 4f 4d 20   ELECT a, b FROM 
|   3632: 74 31 5f 61 20 20 20 55 4e 49 4f 4e 20 41 4c 4c   t1_a   UNION ALL
|   3648: 0a 20 20 53 45 4c 45 43 54 20 63 2c 20 64 20 46   .  SELECT c, d F
|   3664: 52 4f 4d 20 74 31 5f 62 20 20 20 55 4e 49 4f 4e   ROM t1_b   UNION
|   3680: 20 41 4c 4c 0a 20 20 53 45 4c 45 43 54 20 65 2c    ALL.  SELECT e,
|   3696: 20 66 20 46 52 4f 4d 20 74 31 5f 63 44 06 06 17    f FROM t1_cD...
|   3712: 15 15 01 6d 74 61 62 6c 65 74 33 5f 62 74 33 5f   ...mtablet3_bt3_
|   3728: 62 07 43 52 45 41 54 45 20 54 41 42 4c 45 20 74   b.CREATE TABLE t
|   3744: 33 5f 62 28 6b 20 49 4e 54 45 47 45 52 20 50 52   3_b(k INTEGER PR
|   3760: 49 4d 41 52 59 20 4b 45 59 2c 20 76 20 54 45 58   IMARY KEY, v TEX
|   3776: 54 29 44 05 06 17 15 15 01 6d 74 61 62 6c 65 74   T)D......mtablet
|   3792: 33 5f 61 74 33 5f 61 06 43 52 45 41 54 45 20 54   3_at3_a.CREATE T
|   3808: 41 42 4c 45 20 74 33 5f 61 28 6b 20 49 4e 54 45   ABLE t3_a(k INTE
|   3824: 47 45 52 20 50 52 49 4d 41 52 59 20 4b 45 59 2c   GER PRIMARY KEY,
|   3840: 20 76 20 54 45 58 54 29 24 04 06 17 11 11 01 35    v TEXT)$......5
|   3856: 74 61 62 6c 65 74 32 74 32 05 43 52 45 41 54 45   tablet2t2.CREATE
|   3872: 20 54 41 42 4c 45 20 74 32 28 6b 2c 76 29 44 03    TABLE t2(k,v)D.
|   3888: 06 17 15 15 01 6d 74 61 62 6c 65 74 31 5f 63 74   .....mtablet1_ct
|   3904: 31 5f 63 04 43 52 45 41 54 45 20 54 41 42 4c 45   1_c.CREATE TABLE
|   3920: 20 74 31 5f 63 28 65 20 49 4e 54 45 47 45 52 20    t1_c(e INTEGER 
|   3936: 50 52 49 4d 41 52 59 20 4b 45 59 2c 20 66 20 54   PRIMARY KEY, f T
|   3952: 45 58 54 29 44 02 06 17 15 15 01 6d 74 61 62 6c   EXT)D......mtabl
|   3968: 65 74 31 5f 62 74 31 5f 62 03 43 52 45 41 54 45   et1_bt1_b.CREATE
|   3984: 20 54 41 42 4c 45 20 74 31 5f 62 28 63 20 49 4e    TABLE t1_b(c IN
|   4000: 54 45 47 45 52 20 50 52 49 4d 41 52 59 20 4b 45   TEGER PRIMARY KE
|   4016: 59 2c 20 64 20 54 45 58 54 29 44 01 06 17 15 15   Y, d TEXT)D.....
|   4032: 01 6d 74 61 62 6c 65 74 31 5f 61 74 31 5f 61 02   .mtablet1_at1_a.
|   4048: 43 52 45 41 54 45 20 54 41 42 4c 45 20 74 31 5f   CREATE TABLE t1_
|   4064: 61 28 61 20 49 4e 54 45 47 45 52 20 50 52 49 4d   a(a INTEGER PRIM
|   4080: 41 52 59 20 4b 45 59 2c 20 62 20 54 45 58 54 29   ARY KEY, b TEXT)
| page 2 offset 4096
|      0: 0d 00 00 00 02 0f ef 00 0f f8 0f ef 00 00 00 00   ................
|   4064: 00 00 00 00 00 00 00 00 00 00 00 00 00 00 00 07   ................
|   4080: 04 03 00 15 66 6f 75 72 06 01 03 00 13 6f 6e 65   ....four.....one
| page 3 offset 8192
|      0: 0d 00 00 00 02 0f ef 00 0f f8 0f ef 00 00 00 00   ................
|   4064: 00 00 00 00 00 00 00 00 00 00 00 00 00 00 00 07   ................
|   4080: 05 03 00 15 66 69 76 65 06 02 03 00 13 74 77 6f   ....five.....two
| page 4 offset 12288
|      0: 0d 00 00 00 02 0f ee 00 0f f6 0f ee 00 00 00 00   ................
|   4064: 00 00 00 00 00 00 00 00 00 00 00 00 00 00 06 06   ................
|   4080: 03 00 13 73 69 78 08 03 03 00 17 74 68 72 65 65   ...six.....three
| page 5 offset 16384
|      0: 0d 00 00 00 04 0f e0 00 0f f9 0f f1 0f e8 0f e0   ................
|   4064: 06 04 03 01 11 02 69 69 07 03 03 01 13 03 69 69   ......ii......ii
|   4080: 69 06 02 03 01 11 04 69 76 05 01 03 01 0f 05 76   i......iv......v
| page 6 offset 20480
|      0: 0d 00 00 00 02 0f f2 00 0f f9 0f f2 00 00 00 00   ................
|   4080: 00 00 05 04 03 00 11 69 76 05 02 03 00 11 69 69   .......iv.....ii
| page 7 offset 24576
|      0: 0d 00 00 00 02 0f f2 00 0f f8 0f f2 00 00 00 00   ................
|   4080: 00 00 04 05 03 00 0f 76 06 03 03 00 13 69 69 69   .......v.....iii
| end select005.txt.db
.testctrl prng_seed 1 db
.testctrl internal_functions
SELECT * FROM t2 ORDER BY k;
SELECT * FROM t3 ORDER BY k;
SELECT * FROM t1 LEFT JOIN t2 ON (a=k);
SELECT * FROM t1, t2 WHERE a=k;
SELECT * FROM t1 LEFT JOIN t3 ON (a=k);
SELECT * FROM t1, t3 WHERE a=k;

