.open --hexdb
| size 32768 pagesize 4096 filename skipscan002.txt.db
| page 1 offset 0
|      0: 53 51 4c 69 74 65 20 66 6f 72 6d 61 74 20 33 00   SQLite format 3.
|     16: 10 00 01 01 00 40 20 20 00 00 00 00 00 00 00 08   .....@  ........
|     32: 00 00 00 00 00 00 00 00 00 00 00 08 00 00 00 04   ................
|     48: 00 00 00 00 00 00 00 00 00 00 00 01 00 00 00 00   ................
|     96: 00 00 00 00 0d 00 00 00 07 0e 5d 00 0f c2 0f 84   ..........].....
|    112: 0f 46 0e f9 0e c5 0e 91 0e 5d 00 00 00 00 00 00   .F.......]......
|   3664: 00 00 00 00 00 00 00 00 00 00 00 00 00 32 07 06   .............2..
|   3680: 17 17 11 01 4b 69 6e 64 65 78 74 33 61 62 63 74   ....Kindext3abct
|   3696: 33 08 43 52 45 41 54 45 20 49 4e 44 45 58 20 74   3.CREATE INDEX t
|   3712: 33 61 62 63 20 4f 4e 20 74 33 28 61 2c 62 2c 63   3abc ON t3(a,b,c
|   3728: 29 32 06 06 17 17 11 01 4b 69 6e 64 65 78 74 32   )2......Kindext2
|   3744: 61 62 63 74 32 07 43 52 45 41 54 45 20 49 4e 44   abct2.CREATE IND
|   3760: 45 58 20 74 32 61 62 63 20 4f 4e 20 74 32 28 61   EX t2abc ON t2(a
|   3776: 2c 62 2c 63 29 32 05 06 17 17 11 01 4b 69 6e 64   ,b,c)2......Kind
|   3792: 65 78 74 31 61 62 63 74 31 06 43 52 45 41 54 45   ext1abct1.CREATE
|   3808: 20 49 4e 44 45 58 20 74 31 61 62 63 20 4f 4e 20    INDEX t1abc ON 
|   3824: 74 31 28 61 2c 62 2c 63 29 4b 04 06 17 25 25 01   t1(a,b,c)K...%%.
|   3840: 5b 74 61 62 6c 65 73 71 6c 69 74 65 5f 73 74 61   [tablesqlite_sta
|   3856: 74 31 73 71 6c 69 74 65 5f 73 74 61 74 31 05 43   t1sqlite_stat1.C
|   3872: 52 45 41 54 45 20 54 41 42 4c 45 20 73 71 6c 69   REATE TABLE sqli
|   3888: 74 65 5f 73 74 61 74 31 28 74 62 6c 2c 69 64 78   te_stat1(tbl,idx
|   3904: 2c 73 74 61 74 29 3c 03 06 17 11 11 01 65 74 61   ,stat)<......eta
|   3920: 62 6c 65 74 33 74 33 04 43 52 45 41 54 45 20 54   blet3t3.CREATE T
|   3936: 41 42 4c 45 20 74 33 28 61 20 54 45 58 54 2c 20   ABLE t3(a TEXT, 
|   3952: 62 20 49 4e 54 2c 20 63 20 49 4e 54 2c 20 64 20   b INT, c INT, d 
|   3968: 49 4e 54 29 3c 02 06 17 11 11 01 65 74 61 62 6c   INT)<......etabl
|   3984: 65 74 32 74 32 03 43 52 45 41 54 45 20 54 41 42   et2t2.CREATE TAB
|   4000: 4c 45 20 74 32 28 61 20 54 45 58 54 2c 20 62 20   LE t2(a TEXT, b 
|   4016: 49 4e 54 2c 20 63 20 49 4e 54 2c 20 64 20 49 4e   INT, c INT, d IN
|   4032: 54 29 3c 01 06 17 11 11 01 65 74 61 62 6c 65 74   T)<......etablet
|   4048: 31 74 31 02 43 52 45 41 54 45 20 54 41 42 4c 45   1t1.CREATE TABLE
|   4064: 20 74 31 28 61 20 54 45 58 54 2c 20 62 20 49 4e    t1(a TEXT, b IN
|   4080: 54 2c 20 63 20 49 4e 54 2c 20 64 20 49 4e 54 29   T, c INT, d INT)
| page 2 offset 4096
|      0: 0d 00 00 00 07 0f a0 00 0f f3 0f e5 0f d7 0f c9   ................
|     16: 0f bb 0f ad 0f a0 00 00 00 00 00 00 00 00 00 00   ................
|   4000: 0b 07 05 13 01 01 01 62 63 64 64 06 0b 0c 06 05   .......bcdd.....
|   4016: 13 02 01 01 64 65 66 01 59 09 0a 0c 05 05 13 02   ....def.Y.......
|   4032: 01 01 64 65 66 02 37 08 09 0c 04 05 13 02 01 01   ..def.7.........
|   4048: 61 62 63 01 59 07 08 0c 03 05 13 02 01 01 61 62   abc.Y.........ab
|   4064: 63 00 ea 06 07 0c 02 05 13 02 01 01 61 62 63 00   c...........abc.
|   4080: ea 05 06 0b 01 05 13 01 01 01 61 62 63 7b 04 05   ..........abc...
| page 3 offset 8192
|      0: 0d 00 00 00 07 0f a0 00 0f f3 0f e5 0f d7 0f c9   ................
|     16: 0f bb 0f ad 0f a0 00 00 00 00 00 00 00 00 00 00   ................
|   4000: 0b 07 05 13 01 01 01 62 63 64 64 06 0b 0c 06 05   .......bcdd.....
|   4016: 13 02 01 01 64 65 66 01 59 09 0a 0c 05 05 13 02   ....def.Y.......
|   4032: 01 01 64 65 66 02 37 08 09 0c 04 05 13 02 01 01   ..def.7.........
|   4048: 61 62 63 01 59 07 08 0c 03 05 13 02 01 01 61 62   abc.Y.........ab
|   4064: 63 00 ea 06 07 0c 02 05 13 02 01 01 61 62 63 00   c...........abc.
|   4080: ea 05 06 0b 01 05 13 01 01 01 61 62 63 7b 04 05   ..........abc...
| page 4 offset 12288
|      0: 0d 00 00 00 07 0f a0 00 0f f3 0f e5 0f d7 0f c9   ................
|     16: 0f bb 0f ad 0f a0 00 00 00 00 00 00 00 00 00 00   ................
|   4000: 0b 07 05 13 01 01 01 62 63 64 64 06 0b 0c 06 05   .......bcdd.....
|   4016: 13 02 01 01 64 65 66 01 59 09 0a 0c 05 05 13 02   ....def.Y.......
|   4032: 01 01 64 65 66 02 37 08 09 0c 04 05 13 02 01 01   ..def.7.........
|   4048: 61 62 63 01 59 07 08 0c 03 05 13 02 01 01 61 62   abc.Y.........ab
|   4064: 63 00 ea 06 07 0c 02 05 13 02 01 01 61 62 63 00   c...........abc.
|   4080: ea 05 06 0b 01 05 13 01 01 01 61 62 63 7b 04 05   ..........abc...
| page 5 offset 16384
|      0: 0d 00 00 00 03 0f 5c 00 0f d2 0f a1 0f 5c 00 00   ................
|   3920: 00 00 00 00 00 00 00 00 00 00 00 00 43 03 04 11   ............C...
|   3936: 17 7d 74 33 74 33 61 62 63 31 30 30 30 30 20 35   ..t3t3abc10000 5
|   3952: 30 30 30 20 32 30 30 30 20 31 30 20 73 7a 3d 30   000 2000 10 sz=0
|   3968: 30 30 30 30 30 30 20 75 6e 6f 72 64 65 72 65 64   000000 unordered
|   3984: 20 6e 6f 73 6b 69 70 73 63 61 6e 20 6f 74 68 65    noskipscan othe
|   4000: 72 2f 02 04 11 17 55 74 32 74 32 61 62 63 31 30   r/....Ut2t2abc10
|   4016: 30 30 30 20 35 30 30 30 20 32 30 30 30 20 31 30   000 5000 2000 10
|   4032: 20 6e 6f 73 6b 69 70 73 63 61 6e 20 73 7a 3d 39    noskipscan sz=9
|   4048: 39 39 2c 01 04 11 17 4f 74 31 74 31 61 62 63 31   99,....Ot1t1abc1
|   4064: 30 30 30 30 20 35 30 30 30 20 32 30 30 30 20 31   0000 5000 2000 1
|   4080: 30 20 75 6e 6f 72 64 65 72 65 64 20 73 7a 3d 39   0 unordered sz=9
| page 6 offset 20480
|      0: 0a 00 00 00 07 0f a8 00 0f f5 0f e8 0f db 0f ce   ................
|     16: 0f c2 0f b5 0f a8 00 00 00 00 00 00 00 00 00 00   ................
|   4000: 00 00 00 00 00 00 00 00 0c 05 13 02 01 01 64 65   ..............de
|   4016: 66 02 37 08 05 0c 05 13 02 01 01 64 65 66 01 59   f.7........def.Y
|   4032: 09 06 0b 05 13 01 01 01 62 63 64 64 06 07 0c 05   ........bcdd....
|   4048: 13 02 01 01 61 62 63 01 59 07 04 0c 05 13 02 01   ....abc.Y.......
|   4064: 01 61 62 63 00 ea 06 03 0c 05 13 02 01 01 61 62   .abc..........ab
|   4080: 63 00 ea 05 02 0a 05 13 01 01 09 61 62 63 7b 04   c..........abc..
| page 7 offset 24576
|      0: 0a 00 00 00 07 0f a8 00 0f f5 0f e8 0f db 0f ce   ................
|     16: 0f c2 0f b5 0f a8 00 00 00 00 00 00 00 00 00 00   ................
|   4000: 00 00 00 00 00 00 00 00 0c 05 13 02 01 01 64 65   ..............de
|   4016: 66 02 37 08 05 0c 05 13 02 01 01 64 65 66 01 59   f.7........def.Y
|   4032: 09 06 0b 05 13 01 01 01 62 63 64 64 06 07 0c 05   ........bcdd....
|   4048: 13 02 01 01 61 62 63 01 59 07 04 0c 05 13 02 01   ....abc.Y.......
|   4064: 01 61 62 63 00 ea 06 03 0c 05 13 02 01 01 61 62   .abc..........ab
|   4080: 63 00 ea 05 02 0a 05 13 01 01 09 61 62 63 7b 04   c..........abc..
| page 8 offset 28672
|      0: 0a 00 00 00 07 0f a8 00 0f f5 0f e8 0f db 0f ce   ................
|     16: 0f c2 0f b5 0f a8 00 00 00 00 00 00 00 00 00 00   ................
|   4000: 00 00 00 00 00 00 00 00 0c 05 13 02 01 01 64 65   ..............de
|   4016: 66 02 37 08 05 0c 05 13 02 01 01 64 65 66 01 59   f.7........def.Y
|   4032: 09 06 0b 05 13 01 01 01 62 63 64 64 06 07 0c 05   ........bcdd....
|   4048: 13 02 01 01 61 62 63 01 59 07 04 0c 05 13 02 01   ....abc.Y.......
|   4064: 01 61 62 63 00 ea 06 03 0c 05 13 02 01 01 61 62   .abc..........ab
|   4080: 63 00 ea 05 02 0a 05 13 01 01 09 61 62 63 7b 04   c..........abc..
| end skipscan002.txt.db
.testctrl prng_seed 1 db
.testctrl internal_functions
SELECT a,b,c,d,'|' FROM t1 WHERE d<>99 AND b=345 ORDER BY a DESC;
SELECT a,b,c,d,'|' FROM t1 WHERE c=6 ORDER BY a, b, c;
SELECT a,b,c,d,'|' FROM t1 WHERE b IN (234, 345) AND c BETWEEN 6 AND 7
ORDER BY a, b;
SELECT a,b,c,d,'|' FROM t3 WHERE d<>99 AND b=345 ORDER BY a DESC;
SELECT a,b,c,d,'|' FROM t3 WHERE c=6 ORDER BY a, b, c;
SELECT a,b,c,d,'|' FROM t3 WHERE b IN (234, 345) AND c BETWEEN 6 AND 7
ORDER BY a, b;
SELECT a,b,c,d,'|' FROM t2 WHERE d<>99 AND b=345 ORDER BY a DESC;
SELECT a,b,c,d,'|' FROM t2 WHERE c=6 ORDER BY a, b, c;
SELECT a,b,c,d,'|' FROM t2 WHERE b IN (234, 345) AND c BETWEEN 6 AND 7
ORDER BY a, b;

