.open --hexdb
| size 16384 pagesize 4096 filename skipscan001.txt.db
| page 1 offset 0
|      0: 53 51 4c 69 74 65 20 66 6f 72 6d 61 74 20 33 00   SQLite format 3.
|     16: 10 00 01 01 00 40 20 20 00 00 00 00 00 00 00 04   .....@  ........
|     32: 00 00 00 00 00 00 00 00 00 00 00 04 00 00 00 04   ................
|     48: 00 00 00 00 00 00 00 00 00 00 00 01 00 00 00 00   ................
|     96: 00 00 00 00 0d 00 00 00 03 0f 41 00 0f c2 0f 75   ..........A....u
|    112: 0f 41 00 00 00 00 00 00 00 00 00 00 00 00 00 00   .A..............
|   3904: 00 32 03 06 17 17 11 01 4b 69 6e 64 65 78 74 31   .2......Kindext1
|   3920: 61 62 63 74 31 04 43 52 45 41 54 45 20 49 4e 44   abct1.CREATE IND
|   3936: 45 58 20 74 31 61 62 63 20 4f 4e 20 74 31 28 61   EX t1abc ON t1(a
|   3952: 2c 62 2c 63 29 4b 02 06 17 25 25 01 5b 74 61 62   ,b,c)K...%%.[tab
|   3968: 6c 65 73 71 6c 69 74 65 5f 73 74 61 74 31 73 71   lesqlite_stat1sq
|   3984: 6c 69 74 65 5f 73 74 61 74 31 03 43 52 45 41 54   lite_stat1.CREAT
|   4000: 45 20 54 41 42 4c 45 20 73 71 6c 69 74 65 5f 73   E TABLE sqlite_s
|   4016: 74 61 74 31 28 74 62 6c 2c 69 64 78 2c 73 74 61   tat1(tbl,idx,sta
|   4032: 74 29 3c 01 06 17 11 11 01 65 74 61 62 6c 65 74   t)<......etablet
|   4048: 31 74 31 02 43 52 45 41 54 45 20 54 41 42 4c 45   1t1.CREATE TABLE
|   4064: 20 74 31 28 61 20 54 45 58 54 2c 20 62 20 49 4e    t1(a TEXT, b IN
|   4080: 54 2c 20 63 20 49 4e 54 2c 20 64 20 49 4e 54 29   T, c INT, d INT)
| page 2 offset 4096
|      0: 0d 00 00 00 07 0f a0 00 0f f3 0f e5 0f d7 0f c9   ................
|     16: 0f bb 0f ad 0f a0 00 00 00 00 00 00 00 00 00 00   ................
|   4000: 0b 07 05 13 01 01 01 62 63 64 64 06 0b 0c 06 05   .......bcdd.....
|   4016: 13 02 01 01 64 65 66 01 59 09 0a 0c 05 05 13 02   ....def.Y.......
|   4032: 01 01 64 65 66 02 37 08 09 0c 04 05 13 02 01 01   ..def.7.........
|   4048: 61 62 63 01 59 07 08 0c 03 05 13 02 01 01 61 62   abc.Y.........ab
|   4064: 63 00 ea 06 07 0c 02 05 13 02 01 01 61 62 63 00   c...........abc.
|   4080: ea 05 06 0b 01 05 13 01 01 01 61 62 63 7b 04 05   ..........abc...
| page 3 offset 8192
|      0: 0d 00 00 00 01 0f e1 00 0f e1 00 00 00 00 00 00   ................
|   4064: 00 1d 01 04 11 17 31 74 31 74 31 61 62 63 31 30   ......1t1t1abc10
|   4080: 30 30 30 20 35 30 30 30 20 32 30 30 30 20 31 30   000 5000 2000 10
| page 4 offset 12288
|      0: 0a 00 00 00 07 0f a8 00 0f f5 0f e8 0f db 0f ce   ................
|     16: 0f c2 0f b5 0f a8 00 00 00 00 00 00 00 00 00 00   ................
|   4000: 00 00 00 00 00 00 00 00 0c 05 13 02 01 01 64 65   ..............de
|   4016: 66 02 37 08 05 0c 05 13 02 01 01 64 65 66 01 59   f.7........def.Y
|   4032: 09 06 0b 05 13 01 01 01 62 63 64 64 06 07 0c 05   ........bcdd....
|   4048: 13 02 01 01 61 62 63 01 59 07 04 0c 05 13 02 01   ....abc.Y.......
|   4064: 01 61 62 63 00 ea 06 03 0c 05 13 02 01 01 61 62   .abc..........ab
|   4080: 63 00 ea 05 02 0a 05 13 01 01 09 61 62 63 7b 04   c..........abc..
| end skipscan001.txt.db
.testctrl prng_seed 1 db
.testctrl internal_functions
SELECT a,b,c,d,'|' FROM t1 WHERE d<>99 AND b=345 ORDER BY a DESC;
SELECT a,b,c,d,'|' FROM t1 WHERE c=6 ORDER BY a, b, c;
SELECT a,b,c,d,'|' FROM t1 WHERE b IN (234, 345) AND c BETWEEN 6 AND 7
ORDER BY a, b;

