.open --hexdb
| size 8192 pagesize 4096 filename trigger002.txt.db
| page 1 offset 0
|      0: 53 51 4c 69 74 65 20 66 6f 72 6d 61 74 20 33 00   SQLite format 3.
|     16: 10 00 01 01 00 40 20 20 00 00 00 00 00 00 00 02   .....@  ........
|     32: 00 00 00 00 00 00 00 00 00 00 00 03 00 00 00 04   ................
|     48: 00 00 00 00 00 00 00 00 00 00 00 01 00 00 00 00   ................
|     96: 00 00 00 00 0d 00 00 00 03 0e e8 00 0f da 0f 61   ...............a
|    112: 0e e8 00 00 00 00 00 00 00 00 00 00 00 00 00 00   ................
|   3808: 00 00 00 00 00 00 00 00 77 03 07 1b 11 11 08 81   ........w.......
|   3824: 57 74 72 69 67 67 65 72 72 32 74 31 43 52 45 41   Wtriggerr2t1CREA
|   3840: 54 45 20 54 52 49 47 47 45 52 20 72 32 20 61 66   TE TRIGGER r2 af
|   3856: 74 65 72 20 75 70 64 61 74 65 20 6f 6e 20 74 31   ter update on t1
|   3872: 20 66 6f 72 20 65 61 63 68 20 72 6f 77 20 62 65    for each row be
|   3888: 67 69 6e 0a 20 20 20 20 20 20 64 65 6c 65 74 65   gin.      delete
|   3904: 20 66 72 6f 6d 20 74 31 20 57 48 45 52 45 20 61    from t1 WHERE a
|   3920: 3d 6f 6c 64 2e 61 2b 32 3b 0a 20 20 20 20 65 6e   =old.a+2;.    en
|   3936: 64 77 02 07 1b 11 11 08 81 57 74 72 69 67 67 65   dw.......Wtrigge
|   3952: 72 72 31 74 31 43 52 45 41 54 45 20 54 52 49 47   rr1t1CREATE TRIG
|   3968: 47 45 52 20 72 31 20 61 66 74 65 72 20 64 65 6c   GER r1 after del
|   3984: 65 74 65 20 6f 6e 20 74 31 20 66 6f 72 20 65 61   ete on t1 for ea
|   4000: 63 68 20 72 6f 77 20 62 65 67 69 6e 0a 20 20 20   ch row begin.   
|   4016: 20 20 20 64 65 6c 65 74 65 20 66 72 6f 6d 20 74      delete from t
|   4032: 31 20 57 48 45 52 45 20 61 3d 6f 6c 64 2e 61 2b   1 WHERE a=old.a+
|   4048: 32 3b 0a 20 20 20 20 65 6e 64 24 01 06 17 11 11   2;.    end$.....
|   4064: 01 35 74 61 62 6c 65 74 31 74 31 02 43 52 45 41   .5tablet1t1.CREA
|   4080: 54 45 20 54 41 42 4c 45 20 74 31 28 61 2c 62 29   TE TABLE t1(a,b)
| page 2 offset 4096
|      0: 0d 00 00 00 04 0f e5 00 0f fa 0f f3 0f ec 0f e5   ................
|   4064: 00 00 00 00 00 05 04 03 01 0f 04 64 05 03 03 01   ...........d....
|   4080: 0f 03 63 05 02 03 01 0f 02 62 04 01 03 09 0f 61   ..c......b.....a
| end trigger002.txt.db
.testctrl prng_seed 1 db
.testctrl internal_functions
delete from t1 where a=1 OR a=3;
update t1 set b='x-' || b where a=1 OR a=3;

