.open --hexdb
| size 28672 pagesize 4096 filename trigger004.txt.db
| page 1 offset 0
|      0: 53 51 4c 69 74 65 20 66 6f 72 6d 61 74 20 33 00   SQLite format 3.
|     16: 10 00 01 01 00 40 20 20 00 00 00 00 00 00 00 07   .....@  ........
|     32: 00 00 00 00 00 00 00 00 00 00 00 08 00 00 00 04   ................
|     48: 00 00 00 00 00 00 00 00 00 00 00 01 00 00 00 00   ................
|     96: 00 00 00 00 0d 00 00 00 08 0d 84 00 0f a5 0f 63   ...............c
|    112: 0f 30 0e db 0e 80 0e 3e 0e 0b 0d 84 00 00 00 00   .0.....>........
|   3456: 00 00 00 00 81 04 08 07 1b 15 11 08 81 6d 74 72   .............mtr
|   3472: 69 67 67 65 72 74 32 72 31 74 32 43 52 45 41 54   iggert2r1t2CREAT
|   3488: 45 20 54 52 49 47 47 45 52 20 74 32 72 31 20 41   E TRIGGER t2r1 A
|   3504: 46 54 45 52 20 44 45 4c 45 54 45 20 4f 4e 20 74   FTER DELETE ON t
|   3520: 32 20 42 45 47 49 4e 0a 20 20 49 4e 53 45 52 54   2 BEGIN.  INSERT
|   3536: 20 49 4e 54 4f 20 74 32 28 61 2c 62 2c 63 2c 64    INTO t2(a,b,c,d
|   3552: 29 20 56 41 4c 55 45 53 28 6f 6c 64 2e 61 2b 31   ) VALUES(old.a+1
|   3568: 30 30 30 2c 6f 6c 64 2e 62 2c 6f 6c 64 2e 63 2c   000,old.b,old.c,
|   3584: 6f 6c 64 2e 64 29 3b 0a 45 4e 44 31 07 06 17 13   old.d);.END1....
|   3600: 11 01 4d 69 6e 64 65 78 74 32 64 74 32 07 43 52   ..Mindext2dt2.CR
|   3616: 45 41 54 45 20 55 4e 49 51 55 45 20 49 4e 44 45   EATE UNIQUE INDE
|   3632: 58 20 74 32 64 20 4f 4e 20 74 32 28 64 29 40 06   X t2d ON t2(d)@.
|   3648: 06 17 17 11 01 67 69 6e 64 65 78 74 32 62 70 69   .....gindext2bpi
|   3664: 74 32 06 43 52 45 41 54 45 20 55 4e 49 51 55 45   t2.CREATE UNIQUE
|   3680: 20 49 4e 44 45 58 20 74 32 62 70 69 20 4f 4e 20    INDEX t2bpi ON 
|   3696: 74 32 28 62 29 20 57 48 45 52 45 20 63 3c 3d 64   t2(b) WHERE c<=d
|   3712: 59 05 07 17 11 11 01 81 1d 74 61 62 6c 65 74 32   Y........tablet2
|   3728: 74 32 05 43 52 45 41 54 45 20 54 41 42 4c 45 20   t2.CREATE TABLE 
|   3744: 74 32 28 61 20 49 4e 54 45 47 45 52 20 50 52 49   t2(a INTEGER PRI
|   3760: 4d 41 52 59 20 4b 45 59 2c 20 62 20 49 4e 54 2c   MARY KEY, b INT,
|   3776: 20 63 20 49 4e 54 2c 20 64 20 49 4e 54 29 57 49    c INT, d INT)WI
|   3792: 54 48 4f 55 54 20 52 4f 57 49 44 53 04 07 1b 15   THOUT ROWIDS....
|   3808: 11 08 81 0b 74 72 69 67 67 65 72 74 31 72 31 74   ....triggert1r1t
|   3824: 31 43 52 45 41 54 45 20 54 52 49 47 47 45 52 20   1CREATE TRIGGER 
|   3840: 74 31 72 31 20 41 46 54 45 52 20 44 45 4c 45 54   t1r1 AFTER DELET
|   3856: 45 20 4f 4e 20 74 31 20 42 45 47 49 4e 0a 20 20   E ON t1 BEGIN.  
|   3872: 53 45 4c 45 43 54 20 27 68 69 27 3b 0a 45 4e 44   SELECT 'hi';.END
|   3888: 31 03 06 17 13 11 01 4d 69 6e 64 65 78 74 31 64   1......Mindext1d
|   3904: 74 31 04 43 52 45 41 54 45 20 55 4e 49 51 55 45   t1.CREATE UNIQUE
|   3920: 20 49 4e 44 45 58 20 74 31 64 20 4f 4e 20 74 31    INDEX t1d ON t1
|   3936: 28 64 29 40 02 06 17 17 11 01 67 69 6e 64 65 78   (d)@......gindex
|   3952: 74 31 62 70 69 74 31 03 43 52 45 41 54 45 20 55   t1bpit1.CREATE U
|   3968: 4e 49 51 55 45 20 49 4e 44 45 58 20 74 31 62 70   NIQUE INDEX t1bp
|   3984: 69 20 4f 4e 20 74 31 28 62 29 20 57 48 45 52 45   i ON t1(b) WHERE
|   4000: 20 63 3c 3d 64 59 01 07 17 11 11 01 81 1d 74 61    c<=dY........ta
|   4016: 62 6c 65 74 31 74 31 02 43 52 45 41 54 45 20 54   blet1t1.CREATE T
|   4032: 41 42 4c 45 20 74 31 28 61 20 49 4e 54 45 47 45   ABLE t1(a INTEGE
|   4048: 52 20 50 52 49 4d 41 52 59 20 4b 45 59 2c 20 62   R PRIMARY KEY, b
|   4064: 20 49 4e 54 2c 20 63 20 49 4e 54 2c 20 64 20 49    INT, c INT, d I
|   4080: 4e 54 29 57 49 54 48 4f 55 54 20 52 4f 57 49 44   NT)WITHOUT ROWID
| page 2 offset 4096
|      0: 0a 00 00 00 03 0f e7 00 0f fa 0f f1 0f e7 00 00   ................
|   4064: 00 00 00 00 00 00 00 09 05 01 01 01 01 03 04 05   ................
|   4080: 06 08 05 01 09 01 01 02 03 02 05 05 09 09 09 09   ................
| page 3 offset 8192
|      0: 0a 00 00 00 02 0f f6 00 0f fc 0f f6 00 00 00 00   ................
|   4080: 00 00 00 00 00 00 05 03 01 01 04 03 03 03 09 09   ................
| page 4 offset 12288
|      0: 0a 00 00 00 03 0f f0 00 0f fc 0f f6 0f f0 00 00   ................
|   4080: 05 03 01 01 06 03 05 03 01 01 02 02 03 03 09 09   ................
| page 5 offset 16384
|      0: 0a 00 00 00 03 0f e7 00 0f fa 0f f1 0f e7 00 00   ................
|   4064: 00 00 00 00 00 00 00 09 05 01 01 01 01 03 04 05   ................
|   4080: 06 08 05 01 09 01 01 02 03 02 05 05 09 09 09 09   ................
| page 6 offset 20480
|      0: 0a 00 00 00 02 0f f6 00 0f fc 0f f6 00 00 00 00   ................
|   4080: 00 00 00 00 00 00 05 03 01 01 04 03 03 03 09 09   ................
| page 7 offset 24576
|      0: 0a 00 00 00 03 0f f0 00 0f fc 0f f6 0f f0 00 00   ................
|   4080: 05 03 01 01 06 03 05 03 01 01 02 02 03 03 09 09   ................
| end trigger004.txt.db
.testctrl prng_seed 1 db
.testctrl internal_functions
PRAGMA recursive_triggers=ON;
REPLACE INTO t1(a,b,c,d) VALUES(4,4,8,9);
REPLACE INTO t1(a,b,c,d) VALUES(5,1,11,2);
REPLACE INTO t2(a,b,c,d) VALUES(4,4,8,9);
REPLACE INTO t2(a,b,c,d) VALUES(5,1,11,2);

