.open --hexdb
| size 36864 pagesize 4096 filename trigger001.txt.db
| page 1 offset 0
|      0: 53 51 4c 69 74 65 20 66 6f 72 6d 61 74 20 33 00   SQLite format 3.
|     16: 10 00 01 01 00 40 20 20 00 00 00 00 00 00 00 09   .....@  ........
|     32: 00 00 00 00 00 00 00 00 00 00 00 09 00 00 00 04   ................
|     48: 00 00 00 00 00 00 00 00 00 00 00 01 00 00 00 00   ................
|     96: 00 00 00 00 0d 0f 2c 00 0b 0d 20 00 0f d7 0f a1   ......,... .....
|    112: 0f 34 0e aa 0f 07 0e e2 0e 20 0d e5 0d b2 0d 88   .4....... ......
|    128: 0d 20 00 00 00 00 00 00 00 00 00 00 00 00 00 00   . ..............
|   3360: 66 0b 07 1b 15 11 08 81 31 74 72 69 67 67 65 72   f.......1trigger
|   3376: 74 32 72 31 74 32 43 52 45 41 54 45 20 54 52 49   t2r1t2CREATE TRI
|   3392: 47 47 45 52 20 74 32 72 31 20 41 46 54 45 52 20   GGER t2r1 AFTER 
|   3408: 44 45 4c 45 54 45 20 4f 4e 20 74 32 20 42 45 47   DELETE ON t2 BEG
|   3424: 49 4e 0a 20 20 49 4e 53 45 52 54 20 49 4e 54 4f   IN.  INSERT INTO
|   3440: 20 66 69 72 65 20 56 41 4c 55 45 53 28 6f 6c 64    fire VALUES(old
|   3456: 2e 61 29 3b 0a 45 4e 44 28 0a 06 17 15 15 01 35   .a);.END(......5
|   3472: 74 61 62 6c 65 66 69 72 65 66 69 72 65 09 43 52   tablefirefire.CR
|   3488: 45 41 54 45 20 54 41 42 4c 45 20 66 69 72 65 28   EATE TABLE fire(
|   3504: 78 29 31 09 06 17 13 11 01 4d 69 6e 64 65 78 74   x)1......Mindext
|   3520: 32 62 74 32 08 43 52 45 41 54 45 20 55 4e 49 51   2bt2.CREATE UNIQ
|   3536: 55 45 20 49 4e 44 45 58 20 74 32 62 20 4f 4e 20   UE INDEX t2b ON 
|   3552: 74 32 28 62 29 39 08 06 17 11 11 01 5f 74 61 62   t2(b)9......_tab
|   3568: 6c 65 74 32 74 32 07 43 52 45 41 54 45 20 54 41   let2t2.CREATE TA
|   3584: 42 4c 45 20 74 32 28 61 20 49 4e 54 45 47 45 52   BLE t2(a INTEGER
|   3600: 20 50 52 49 4d 41 52 59 20 4b 45 59 2c 20 62 29    PRIMARY KEY, b)
|   3616: 81 07 07 07 1b 15 11 08 81 73 74 72 69 67 67 65   .........strigge
|   3632: 72 74 31 72 31 74 31 43 52 45 41 54 45 20 54 52   rt1r1t1CREATE TR
|   3648: 49 47 47 45 52 20 74 31 72 31 20 41 46 54 45 52   IGGER t1r1 AFTER
|   3664: 20 44 45 4c 45 54 45 20 4f 4e 20 74 31 20 57 48    DELETE ON t1 WH
|   3680: 45 4e 20 4f 4c 44 2e 63 3c 3e 33 20 42 45 47 49   EN OLD.c<>3 BEGI
|   3696: 4e 0a 20 20 49 4e 53 45 52 54 20 49 4e 54 4f 20   N.  INSERT INTO 
|   3712: 74 31 28 72 6f 77 69 64 2c 61 2c 62 2c 63 29 20   t1(rowid,a,b,c) 
|   3728: 56 41 4c 55 45 53 28 31 30 30 2c 31 30 30 2c 31   VALUES(100,100,1
|   3744: 30 30 2c 33 29 3b 0a 45 4e 44 36 04 06 17 11 11   00,3);.END6.....
|   3760: 01 59 74 61 62 6c 65 74 31 74 31 04 43 52 45 41   .Ytablet1t1.CREA
|   3776: 54 45 20 54 41 42 4c 45 20 74 31 28 61 2c 20 62   TE TABLE t1(a, b
|   3792: 20 55 4e 49 51 55 45 2c 20 63 20 55 4e 49 51 55    UNIQUE, c UNIQU
|   3808: 45 29 23 06 06 17 37 11 01 00 69 6e 64 65 78 73   E)#...7...indexs
|   3824: 71 6c 69 74 65 5f 61 75 74 6f 69 6e 64 65 78 5f   qlite_autoindex_
|   3840: 74 31 5f 32 74 31 06 23 05 06 17 37 11 01 00 69   t1_2t1.#...7...i
|   3856: 6e 64 65 78 73 71 6c 69 74 65 5f 61 75 74 6f 69   ndexsqlite_autoi
|   3872: 6e 64 65 78 5f 74 31 5f 31 74 31 05 00 00 00 08   ndex_t1_1t1.....
|   3888: 00 00 00 00 6b 03 07 1b 15 11 08 81 3b 74 72 69   ....k.......;tri
|   3904: 67 67 65 72 74 30 72 31 74 30 43 52 45 41 54 45   ggert0r1t0CREATE
|   3920: 20 54 52 49 47 47 45 52 20 74 30 72 31 20 42 45    TRIGGER t0r1 BE
|   3936: 46 4f 52 45 20 44 45 4c 45 54 45 20 4f 4e 20 74   FORE DELETE ON t
|   3952: 30 0a 20 20 42 45 47 49 4e 20 49 4e 53 45 52 54   0.  BEGIN INSERT
|   3968: 20 49 4e 54 4f 20 74 30 28 61 61 2c 62 62 29 20    INTO t0(aa,bb) 
|   3984: 56 41 4c 55 45 53 28 39 39 2c 31 29 3b 0a 45 4e   VALUES(99,1);.EN
|   4000: 44 34 02 06 17 15 11 01 51 69 6e 64 65 78 74 30   D4......Qindext0
|   4016: 62 62 74 30 03 43 52 45 41 54 45 20 55 4e 49 51   bbt0.CREATE UNIQ
|   4032: 55 45 20 49 4e 44 45 58 20 74 30 62 62 20 4f 4e   UE INDEX t0bb ON
|   4048: 20 74 30 28 62 62 29 27 01 06 17 11 11 01 3b 74    t0(bb)'......;t
|   4064: 61 62 6c 65 74 30 74 30 02 43 52 45 41 54 45 20   ablet0t0.CREATE 
|   4080: 54 41 42 4c 45 20 74 30 28 61 61 2c 20 62 62 29   TABLE t0(aa, bb)
| page 2 offset 4096
|      0: 0d 00 00 00 01 0f f9 00 0f f9 00 00 00 00 00 00   ................
|   4080: 00 00 00 00 00 00 00 00 00 05 01 03 01 01 0a 14   ................
| page 3 offset 8192
|      0: 0a 00 00 00 01 0f fb 00 0f fb 00 00 00 00 00 00   ................
|   4080: 00 00 00 00 00 00 00 00 00 00 00 04 03 01 09 14   ................
| page 4 offset 12288
|      0: 0d 00 00 00 04 0f df 00 0f fa 0f f1 0f e8 0f df   ................
|   4048: 00 00 00 00 00 00 00 00 00 00 00 00 00 00 00 07   ................
|   4064: 04 04 01 01 01 04 04 04 07 03 04 01 01 01 03 03   ................
|   4080: 03 07 02 04 01 01 01 02 02 02 04 01 04 09 09 09   ................
| page 5 offset 16384
|      0: 0a 00 00 00 04 0f ea 00 0f fc 0f f6 0f f0 0f ea   ................
|   4064: 00 00 00 00 00 00 00 00 00 00 05 03 01 01 04 04   ................
|   4080: 05 03 01 01 03 03 05 03 01 01 02 02 03 03 09 09   ................
| page 6 offset 20480
|      0: 0a 00 00 00 04 0f ea 00 0f fc 0f f6 0f f0 0f ea   ................
|   4064: 00 00 00 00 00 00 00 00 00 00 05 03 01 01 04 04   ................
|   4080: 05 03 01 01 03 03 05 03 01 01 02 02 03 03 09 09   ................
| page 7 offset 24576
|      0: 0d 00 00 00 04 0f e9 00 0f fb 0f f5 0f ef 0f e9   ................
|   4064: 00 00 00 00 00 00 00 00 00 04 04 03 00 01 04 04   ................
|   4080: 03 03 00 01 03 04 02 03 00 01 02 03 01 03 00 09   ................
| page 8 offset 28672
|      0: 0a 00 00 00 04 0f ea 00 0f fc 0f f6 0f f0 0f ea   ................
|   4064: 00 00 00 00 00 00 00 00 00 00 05 03 01 01 04 04   ................
|   4080: 05 03 01 01 03 03 05 03 01 01 02 02 03 03 09 09   ................
| page 9 offset 32768
|      0: 0d 00 00 00 00 10 00 00 00 00 00 00 00 00 00 00   ................
| end trigger001.txt.db
.testctrl prng_seed 1 db
.testctrl internal_functions
PRAGMA recursive_triggers=ON;
REPLACE INTO t0(aa,bb) VALUES(30,20);
REPLACE INTO t1(rowid,a,b,c) VALUES(200,1,2,3);
UPDATE OR REPLACE t2 SET a=4, b=3 WHERE a=1;
DELETE FROM t2;
DELETE FROM fire;
INSERT INTO t2(a,b) VALUES(1,1),(2,2),(3,3),(4,4);
UPDATE OR REPLACE t2 SET a=1, b=3 WHERE a=1;

