.open --hexdb
| size 24576 pagesize 4096 filename updatefrom001.txt.db
| page 1 offset 0
|      0: 53 51 4c 69 74 65 20 66 6f 72 6d 61 74 20 33 00   SQLite format 3.
|     16: 10 00 01 01 00 40 20 20 00 00 00 00 00 00 00 06   .....@  ........
|     32: 00 00 00 00 00 00 00 00 00 00 00 05 00 00 00 04   ................
|     48: 00 00 00 00 00 00 00 00 00 00 00 01 00 00 00 00   ................
|     96: 00 00 00 00 0d 00 00 00 05 0e 99 00 0f a3 0f 61   ...............a
|    112: 0f 19 0e d9 0e 99 00 00 00 00 00 00 00 00 00 00   ................
|   3728: 00 00 00 00 00 00 00 00 00 3e 05 06 17 11 11 01   .........>......
|   3744: 69 74 61 62 6c 65 74 35 74 35 06 43 52 45 41 54   itablet5t5.CREAT
|   3760: 45 20 54 41 42 4c 45 20 74 35 28 75 20 49 4e 54   E TABLE t5(u INT
|   3776: 45 47 45 52 20 50 52 49 4d 41 52 59 20 4b 45 59   EGER PRIMARY KEY
|   3792: 2c 20 76 20 54 45 58 54 29 3e 04 06 17 11 11 01   , v TEXT)>......
|   3808: 69 74 61 62 6c 65 74 34 74 34 05 43 52 45 41 54   itablet4t4.CREAT
|   3824: 45 20 54 41 42 4c 45 20 74 34 28 78 20 49 4e 54   E TABLE t4(x INT
|   3840: 45 47 45 52 20 50 52 49 4d 41 52 59 20 4b 45 59   EGER PRIMARY KEY
|   3856: 2c 20 79 20 54 45 58 54 29 46 03 06 17 11 11 01   , y TEXT)F......
|   3872: 79 74 61 62 6c 65 74 33 74 33 04 43 52 45 41 54   ytablet3t3.CREAT
|   3888: 45 20 54 41 42 4c 45 20 74 33 28 61 20 49 4e 54   E TABLE t3(a INT
|   3904: 45 47 45 52 20 50 52 49 4d 41 52 59 20 4b 45 59   EGER PRIMARY KEY
|   3920: 2c 20 62 20 54 45 58 54 2c 20 63 20 54 45 58 54   , b TEXT, c TEXT
|   3936: 29 40 02 06 17 11 11 01 6d 74 61 62 6c 65 74 32   )@......mtablet2
|   3952: 74 32 03 43 52 45 41 54 45 20 54 41 42 4c 45 20   t2.CREATE TABLE 
|   3968: 74 32 28 61 20 49 4e 54 45 47 45 52 2c 20 62 20   t2(a INTEGER, b 
|   3984: 49 4e 54 45 47 45 52 2c 20 63 20 49 4e 54 45 47   INTEGER, c INTEG
|   4000: 45 52 29 5b 01 07 17 11 11 01 81 21 74 61 62 6c   ER)[.......!tabl
|   4016: 65 74 31 74 31 02 43 52 45 41 54 45 20 54 41 42   et1t1.CREATE TAB
|   4032: 4c 45 20 74 31 28 61 20 49 4e 54 45 47 45 52 20   LE t1(a INTEGER 
|   4048: 50 52 49 4d 41 52 59 20 4b 45 59 2c 20 62 20 49   PRIMARY KEY, b I
|   4064: 4e 54 45 47 45 52 2c 20 63 20 49 4e 54 45 47 45   NTEGER, c INTEGE
|   4080: 52 29 20 57 49 54 48 4f 55 54 20 52 4f 57 49 44   R) WITHOUT ROWID
| page 2 offset 4096
|      0: 0a 00 00 00 03 0f e9 00 0f f9 0f f1 0f e9 00 00   ................
|   4064: 00 00 00 00 00 00 00 00 00 07 04 01 01 01 07 08   ................
|   4080: 09 07 04 01 01 01 04 05 06 06 04 09 01 01 02 03   ................
| page 3 offset 8192
|      0: 0d 00 00 00 02 0f ec 00 0f f7 0f ec 00 00 00 00   ................
|   4064: 00 00 00 00 00 00 00 00 00 00 00 00 09 02 04 01   ................
|   4080: 02 02 07 02 bc 1b 58 07 01 04 09 01 02 64 03 e8   ......X......d..
| page 4 offset 12288
|      0: 0d 00 00 00 04 0f ca 00 0f f4 0f e8 0f d8 0f ca   ................
|   4032: 00 00 00 00 00 00 00 00 00 00 0c 04 04 00 15 15   ................
|   4048: 66 6f 75 72 46 4f 55 52 0e 03 04 00 17 17 74 68   fourFOUR......th
|   4064: 72 65 65 54 48 52 45 45 0a 02 04 00 13 13 74 77   reeTHREE......tw
|   4080: 6f 54 57 4f 0a 01 04 00 13 13 6f 6e 65 4f 4e 45   oTWO......oneONE
| page 5 offset 16384
|      0: 0d 00 00 00 03 0f eb 00 0f fa 0f f3 0f eb 00 00   ................
|   4064: 00 00 00 00 00 00 00 00 00 00 00 06 03 03 00 13   ................
|   4080: 69 69 69 05 02 03 00 11 69 69 04 01 03 00 0f 69   iii.....ii.....i
| page 6 offset 20480
|      0: 0d 00 00 00 03 0f eb 00 0f fa 0f f3 0f eb 00 00   ................
|   4064: 00 00 00 00 00 00 00 00 00 00 00 06 04 03 00 13   ................
|   4080: 49 49 49 05 03 03 00 11 49 49 04 01 03 00 0f 49   III.....II.....I
| end updatefrom001.txt.db
.testctrl prng_seed 1 db
.testctrl internal_functions
UPDATE t1 SET b = t2.b, c = t2.c FROM t2 WHERE t2.a = t1.a;
UPDATE t3 SET b=y, c=v FROM t4 LEFT JOIN t5 ON (x=u) WHERE x=a;

