.open --hexdb
| size 28672 pagesize 4096 filename update001.txt.db
| page 1 offset 0
|      0: 53 51 4c 69 74 65 20 66 6f 72 6d 61 74 20 33 00   SQLite format 3.
|     16: 10 00 01 01 00 40 20 20 00 00 00 00 00 00 00 07   .....@  ........
|     32: 00 00 00 00 00 00 00 00 00 00 00 06 00 00 00 04   ................
|     48: 00 00 00 00 00 00 00 00 00 00 00 01 00 00 00 00   ................
|     96: 00 00 00 00 0d 00 00 00 06 0e 60 00 0f a6 0f 45   ..........`....E
|    112: 0f 12 0e e3 0e ad 0e 60 00 00 00 00 00 00 00 00   .......`........
|   3680: 4b 06 06 17 25 25 01 5b 74 61 62 6c 65 73 71 6c   K...%%.[tablesql
|   3696: 69 74 65 5f 73 74 61 74 31 73 71 6c 69 74 65 5f   ite_stat1sqlite_
|   3712: 73 74 61 74 31 07 43 52 45 41 54 45 20 54 41 42   stat1.CREATE TAB
|   3728: 4c 45 20 73 71 6c 69 74 65 5f 73 74 61 74 31 28   LE sqlite_stat1(
|   3744: 74 62 6c 2c 69 64 78 2c 73 74 61 74 29 34 05 06   tbl,idx,stat)4..
|   3760: 17 13 11 01 53 69 6e 64 65 78 63 31 63 63 31 06   ....Sindexc1cc1.
|   3776: 43 52 45 41 54 45 20 55 4e 49 51 55 45 20 49 4e   CREATE UNIQUE IN
|   3792: 44 45 58 20 63 31 63 20 4f 4e 20 63 31 28 63 2c   DEX c1c ON c1(c,
|   3808: 20 62 29 2d 04 06 17 13 11 01 45 69 6e 64 65 78    b)-......Eindex
|   3824: 63 31 64 63 31 05 43 52 45 41 54 45 20 49 4e 44   c1dc1.CREATE IND
|   3840: 45 58 20 63 31 64 20 4f 4e 20 63 31 28 64 2c 20   EX c1d ON c1(d, 
|   3856: 62 29 31 03 06 17 13 11 01 4d 69 6e 64 65 78 62   b)1......Mindexb
|   3872: 31 63 62 31 04 43 52 45 41 54 45 20 55 4e 49 51   1cb1.CREATE UNIQ
|   3888: 55 45 20 49 4e 44 45 58 20 62 31 63 20 4f 4e 20   UE INDEX b1c ON 
|   3904: 62 31 28 63 29 5f 02 07 17 11 11 01 81 29 74 61   b1(c)_.......)ta
|   3920: 62 6c 65 63 31 63 31 03 43 52 45 41 54 45 20 54   blec1c1.CREATE T
|   3936: 41 42 4c 45 20 63 31 28 61 20 49 4e 54 20 50 52   ABLE c1(a INT PR
|   3952: 49 4d 41 52 59 20 4b 45 59 2c 20 62 20 54 45 58   IMARY KEY, b TEX
|   3968: 54 2c 20 63 20 49 4e 54 2c 20 64 20 49 4e 54 29   T, c INT, d INT)
|   3984: 20 53 54 52 49 43 54 2c 20 57 49 54 48 4f 55 54    STRICT, WITHOUT
|   4000: 20 52 4f 57 49 44 58 01 07 17 11 11 01 81 1b 74    ROWIDX........t
|   4016: 61 62 6c 65 62 31 62 31 02 43 52 45 41 54 45 20   ableb1b1.CREATE 
|   4032: 54 41 42 4c 45 20 62 31 28 61 20 49 4e 54 20 50   TABLE b1(a INT P
|   4048: 52 49 4d 41 52 59 20 4b 45 59 2c 20 62 20 54 45   RIMARY KEY, b TE
|   4064: 58 54 2c 20 63 20 49 4e 54 29 20 53 54 52 49 43   XT, c INT) STRIC
|   4080: 54 2c 20 57 49 54 48 4f 55 54 20 52 4f 57 49 44   T, WITHOUT ROWID
| page 2 offset 4096
|      0: 0a 00 00 00 07 0f ca 00 0f fa 0f f2 0f ea 0f e2   ................
|     16: 0f da 0f d2 0f ca 00 00 00 00 00 00 00 00 00 00   ................
|   4032: 00 00 00 00 00 00 00 00 00 00 07 04 01 0f 01 07   ................
|   4048: 67 07 07 04 01 0f 01 06 66 06 07 04 01 0f 01 05   g.......f.......
|   4064: 65 05 07 04 01 0f 01 04 64 04 07 04 01 0f 01 03   e.......d.......
|   4080: 63 03 07 04 01 0f 01 02 62 0f 05 04 09 0f 09 61   c.......b......a
| page 3 offset 8192
|      0: 0a 00 00 00 07 0f bd 00 0f f9 0f ef 0f e5 0f db   ................
|     16: 0f d1 0f c7 0f bd 00 00 00 00 00 00 00 00 00 00   ................
|   4016: 00 00 00 00 00 00 00 00 00 00 00 00 00 09 05 01   ................
|   4032: 0f 01 01 07 61 07 07 09 05 01 0f 01 01 06 61 06   ....a.........a.
|   4048: 06 09 05 01 0f 01 01 05 61 05 05 09 05 01 0f 01   ........a.......
|   4064: 01 04 61 04 04 09 05 01 0f 01 01 03 61 03 03 09   ..a.........a...
|   4080: 05 01 0f 01 01 02 61 0f 02 06 05 09 0f 09 09 61   ......a........a
| page 4 offset 12288
|      0: 0a 00 00 00 07 0f d8 00 0f fc 0f f0 0f ea 0f e4   ................
|     16: 0f de 0f d8 0f f6 00 00 00 00 00 00 00 00 00 00   ................
|   4048: 00 00 00 00 00 00 00 00 05 03 01 01 07 07 05 03   ................
|   4064: 01 01 06 06 05 03 01 01 05 05 05 03 01 01 04 04   ................
|   4080: 05 03 01 01 03 03 05 03 01 01 0f 02 03 03 09 09   ................
| page 5 offset 16384
|      0: 0a 00 00 00 07 0f ca 00 0f fa 0f f2 0f ea 0f e2   ................
|     16: 0f da 0f d2 0f ca 00 00 00 00 00 00 00 00 00 00   ................
|   4032: 00 00 00 00 00 00 00 00 00 00 07 04 01 0f 01 07   ................
|   4048: 61 07 07 04 01 0f 01 06 61 06 07 04 01 0f 01 05   a.......a.......
|   4064: 61 05 07 04 01 0f 01 04 61 04 07 04 01 0f 01 03   a.......a.......
|   4080: 61 03 07 04 01 0f 01 02 61 02 05 04 09 0f 09 61   a.......a......a
| page 6 offset 20480
|      0: 0a 00 00 00 07 0f ca 00 0f fa 0f ea 0f e2 0f da   ................
|     16: 0f d2 0f ca 0f f2 00 00 00 00 00 00 00 00 00 00   ................
|   4032: 00 00 00 00 00 00 00 00 00 00 07 04 01 0f 01 07   ................
|   4048: 61 07 07 04 01 0f 01 06 61 06 07 04 01 0f 01 05   a.......a.......
|   4064: 61 05 07 04 01 0f 01 04 61 04 07 04 01 0f 01 03   a.......a.......
|   4080: 61 03 07 04 01 0f 01 0f 61 02 05 04 09 0f 09 61   a.......a......a
| page 7 offset 24576
|      0: 0d 00 00 00 05 0f b8 00 0f f0 0f e0 0f d3 0f c5   ................
|     16: 0f b8 00 00 00 00 00 00 00 00 00 00 00 00 00 00   ................
|   4016: 00 00 00 00 00 00 00 00 0b 05 04 11 11 13 62 31   ..............b1
|   4032: 62 31 37 20 31 0c 04 04 11 13 13 62 31 62 31 63   b17 1......b1b1c
|   4048: 37 20 31 0b 03 04 11 11 13 63 31 63 31 37 20 31   7 1......c1c17 1
|   4064: 0e 02 04 11 13 17 63 31 63 31 64 37 20 31 20 31   ......c1c1d7 1 1
|   4080: 0e 01 04 11 13 17 63 31 63 31 63 37 20 31 20 31   ......c1c1c7 1 1
| end update001.txt.db
.testctrl prng_seed 1 db
.testctrl internal_functions
UPDATE OR REPLACE b1 SET c=c+10 WHERE a BETWEEN 4 AND 7;
SELECT * FROM b1 ORDER BY a;
PRAGMA count_changes(1);
UPDATE OR REPLACE c1 SET c=c+10 WHERE d BETWEEN 4 AND 7;
SELECT * FROM c1 ORDER BY a;
ANALYZE main;
ANALYZE main.c1;
SELECT * FROM sqlite_stat1;

