.open --hexdb
| size 12288 pagesize 4096 filename upsert005.txt.db
| page 1 offset 0
|      0: 53 51 4c 69 74 65 20 66 6f 72 6d 61 74 20 33 00   SQLite format 3.
|     16: 10 00 01 01 00 40 20 20 00 00 00 00 00 00 00 03   .....@  ........
|     32: 00 00 00 00 00 00 00 00 00 00 00 02 00 00 00 04   ................
|     48: 00 00 00 00 00 00 00 00 00 00 00 01 00 00 00 00   ................
|     96: 00 00 00 00 0d 00 00 00 02 0f 99 00 0f c8 0f 99   ................
|   3984: 00 00 00 00 00 00 00 00 00 2d 02 06 17 11 11 01   .........-......
|   4000: 47 74 61 62 6c 65 74 32 74 32 03 43 52 45 41 54   Gtablet2t2.CREAT
|   4016: 45 20 54 41 42 4c 45 20 74 32 28 62 20 49 4e 54   E TABLE t2(b INT
|   4032: 2c 20 63 20 49 4e 54 29 36 01 06 17 11 11 01 59   , c INT)6......Y
|   4048: 74 61 62 6c 65 74 31 74 31 02 43 52 45 41 54 45   tablet1t1.CREATE
|   4064: 20 54 41 42 4c 45 20 74 31 28 61 20 49 4e 54 45    TABLE t1(a INTE
|   4080: 47 45 52 20 50 52 49 4d 41 52 59 20 4b 45 59 29   GER PRIMARY KEY)
| page 2 offset 4096
|      0: 0d 00 00 00 04 0f f0 00 0f fc 0f f8 0f f4 0f f0   ................
|   4080: 02 09 02 00 02 04 02 00 02 02 02 00 02 01 02 00   ................
| page 3 offset 8192
|      0: 0d 00 00 00 03 0f eb 00 0f f9 0f f2 0f eb 00 00   ................
|   4064: 00 00 00 00 00 00 00 00 00 00 00 05 03 03 01 01   ................
|   4080: 05 63 05 02 03 01 01 04 19 05 01 03 01 01 03 07   .c..............
| end upsert005.txt.db
.testctrl prng_seed 1 db
.testctrl internal_functions
UPDATE t1 SET a=a+c FROM t2 WHERE t1.a=t2.b RETURNING t1.a, t2.b;
UPDATE t1 SET a=a+c FROM t2 WHERE t1.a=t2.b RETURNING t2.*;

