.open --hexdb
| size 32768 pagesize 4096 filename upsert001.txt.db
| page 1 offset 0
|      0: 53 51 4c 69 74 65 20 66 6f 72 6d 61 74 20 33 00   SQLite format 3.
|     16: 10 00 01 01 00 40 20 20 00 00 00 00 00 00 00 08   .....@  ........
|     32: 00 00 00 00 00 00 00 00 00 00 00 07 00 00 00 04   ................
|     48: 00 00 00 00 00 00 00 00 00 00 00 01 00 00 00 00   ................
|     96: 00 00 00 00 0d 00 00 00 07 0e 5e 00 0f bc 0f 89   ..........^.....
|    112: 0f 56 0f 23 0e c4 0e 91 0e 5e 00 00 00 00 00 00   .V.#.....^......
|   3664: 00 00 00 00 00 00 00 00 00 00 00 00 00 00 31 07   ..............1.
|   3680: 06 17 13 11 01 4d 69 6e 64 65 78 74 32 65 74 32   .....Mindext2et2
|   3696: 08 43 52 45 41 54 45 20 55 4e 49 51 55 45 20 49   .CREATE UNIQUE I
|   3712: 4e 44 45 58 20 74 32 65 20 4f 4e 20 74 32 28 65   NDEX t2e ON t2(e
|   3728: 29 31 06 06 17 13 11 01 4d 69 6e 64 65 78 74 32   )1......Mindext2
|   3744: 61 74 32 07 43 52 45 41 54 45 20 55 4e 49 51 55   at2.CREATE UNIQU
|   3760: 45 20 49 4e 44 45 58 20 74 32 61 20 4f 4e 20 74   E INDEX t2a ON t
|   3776: 32 28 61 29 5d 05 07 17 11 11 01 81 25 74 61 62   2(a)].......%tab
|   3792: 6c 65 74 32 74 32 06 43 52 45 41 54 45 20 54 41   let2t2.CREATE TA
|   3808: 42 4c 45 20 74 32 28 61 20 49 4e 54 2c 20 62 20   BLE t2(a INT, b 
|   3824: 49 4e 54 20 50 52 49 4d 41 52 59 20 4b 45 59 2c   INT PRIMARY KEY,
|   3840: 20 63 20 49 4e 54 2c 20 64 20 49 4e 54 2c 20 65    c INT, d INT, e
|   3856: 20 49 4e 54 29 20 57 49 54 48 4f 55 54 20 52 4f    INT) WITHOUT RO
|   3872: 57 49 44 31 04 06 17 13 11 01 4d 69 6e 64 65 78   WID1......Mindex
|   3888: 74 31 65 74 31 05 43 52 45 41 54 45 20 55 4e 49   t1et1.CREATE UNI
|   3904: 51 55 45 20 49 4e 44 45 58 20 74 31 65 20 4f 4e   QUE INDEX t1e ON
|   3920: 20 74 31 28 65 29 31 03 06 17 13 11 01 4d 69 6e    t1(e)1......Min
|   3936: 64 65 78 74 31 62 74 31 04 43 52 45 41 54 45 20   dext1bt1.CREATE 
|   3952: 55 4e 49 51 55 45 20 49 4e 44 45 58 20 74 31 62   UNIQUE INDEX t1b
|   3968: 20 4f 4e 20 74 31 28 62 29 31 02 06 17 13 11 01    ON t1(b)1......
|   3984: 4d 69 6e 64 65 78 74 31 61 74 31 03 43 52 45 41   Mindext1at1.CREA
|   4000: 54 45 20 55 4e 49 51 55 45 20 49 4e 44 45 58 20   TE UNIQUE INDEX 
|   4016: 74 31 61 20 4f 4e 20 74 31 28 61 29 42 01 06 17   t1a ON t1(a)B...
|   4032: 11 11 01 71 74 61 62 6c 65 74 31 74 31 02 43 52   ...qtablet1t1.CR
|   4048: 45 41 54 45 20 54 41 42 4c 45 20 74 31 28 61 20   EATE TABLE t1(a 
|   4064: 49 4e 54 2c 20 62 20 49 4e 54 2c 20 63 20 49 4e   INT, b INT, c IN
|   4080: 54 2c 20 64 20 49 4e 54 2c 20 65 20 49 4e 54 29   T, d INT, e INT)
| page 2 offset 4096
|      0: 0d 00 00 00 00 10 00 00 00 00 00 00 00 00 00 00   ................
| page 3 offset 8192
|      0: 0a 00 00 00 00 10 00 00 00 00 00 00 00 00 00 00   ................
| page 4 offset 12288
|      0: 0a 00 00 00 00 10 00 00 00 00 00 00 00 00 00 00   ................
| page 5 offset 16384
|      0: 0a 00 00 00 00 10 00 00 00 00 00 00 00 00 00 00   ................
| page 6 offset 20480
|      0: 0a 00 00 00 00 10 00 00 00 00 00 00 00 00 00 00   ................
| page 7 offset 24576
|      0: 0a 00 00 00 00 10 00 00 00 00 00 00 00 00 00 00   ................
| page 8 offset 28672
|      0: 0a 00 00 00 00 10 00 00 00 00 00 00 00 00 00 00   ................
| end upsert001.txt.db
.testctrl prng_seed 1 db
.testctrl internal_functions
INSERT INTO t1(a,b,c,d,e) VALUES(1,2,3,4,5);
INSERT INTO t1(a,b,c,d,e) VALUES(1,2,33,44,5)
ON CONFLICT(e) DO UPDATE SET c=excluded.c;
DELETE FROM t1;
INSERT INTO t1(a,b,c,d,e) VALUES(1,2,3,4,5);
INSERT INTO t1(a,b,c,d,e) VALUES(1,2,33,44,5)
ON CONFLICT(a) DO UPDATE SET c=excluded.c;
INSERT INTO t2(a,b,c,d,e) VALUES(1,2,3,4,5);
INSERT INTO t2(a,b,c,d,e) VALUES(1,2,33,44,5)
ON CONFLICT(e) DO UPDATE SET c=excluded.c;
DELETE FROM t2;
INSERT INTO t2(a,b,c,d,e) VALUES(1,2,3,4,5);
INSERT INTO t2(a,b,c,d,e) VALUES(1,2,33,44,5)
ON CONFLICT(a) DO UPDATE SET c=excluded.c;

