.open --hexdb
| size 16384 pagesize 4096 filename wangke001.txt.db
| page 1 offset 0
|      0: 53 51 4c 69 74 65 20 66 6f 72 6d 61 74 20 33 00   SQLite format 3.
|     16: 10 00 01 01 00 40 20 20 00 00 00 00 00 00 00 04   .....@  ........
|     32: 00 00 00 00 00 00 00 00 00 00 00 03 00 00 00 04   ................
|     48: 00 00 00 00 00 00 00 00 00 00 00 01 00 00 00 00   ................
|     96: 00 00 00 00 0d 00 00 00 03 0f 85 00 0f d9 0f af   ................
|    112: 0f 85 00 00 00 00 00 00 00 00 00 00 00 00 00 00   ................
|   3968: 00 00 00 00 00 28 03 06 17 11 11 01 3d 69 6e 64   .....(......=ind
|   3984: 65 78 69 31 74 31 04 43 52 45 41 54 45 20 49 4e   exi1t1.CREATE IN
|   4000: 44 45 58 20 69 31 20 4f 4e 20 74 31 28 61 29 28   DEX i1 ON t1(a)(
|   4016: 02 06 17 11 11 01 3d 74 61 62 6c 65 74 32 74 32   ......=tablet2t2
|   4032: 03 43 52 45 41 54 45 20 54 41 42 4c 45 20 74 32   .CREATE TABLE t2
|   4048: 28 63 2c 20 64 2c 20 65 29 25 01 06 17 11 11 01   (c, d, e)%......
|   4064: 37 74 61 62 6c 65 74 31 74 31 02 43 52 45 41 54   7tablet1t1.CREAT
|   4080: 45 20 54 41 42 4c 45 20 74 31 28 61 2c 20 62 29   E TABLE t1(a, b)
| page 2 offset 4096
|      0: 0d 00 00 00 01 0f f9 00 0f f9 00 00 00 00 00 00   ................
|   4080: 00 00 00 00 00 00 00 00 00 05 01 03 01 01 0b 05   ................
| page 3 offset 8192
|      0: 0d 00 00 00 02 0f ee 00 0f f7 0f ee 00 00 00 00   ................
|   4064: 00 00 00 00 00 00 00 00 00 00 00 00 00 00 07 02   ................
|   4080: 04 01 01 01 0b 0c 0d 07 01 04 01 01 01 07 02 05   ................
| page 4 offset 12288
|      0: 0a 00 00 00 01 0f fb 00 0f fb 00 00 00 00 00 00   ................
|   4080: 00 00 00 00 00 00 00 00 00 00 00 04 03 01 09 0b   ................
| end wangke001.txt.db
.testctrl prng_seed 1 db
.testctrl internal_functions
SELECT c FROM t2 LEFT JOIN t1 INDEXED BY i1 ON likely(a=c) 
 WHERE (b=5 AND c=12)
    OR (a=11 AND c=11)
ORDER BY c;
SELECT c FROM t2 LEFT JOIN t1 INDEXED BY i1 ON likely(a=c) 
 WHERE (c=12 AND b=5)
    OR (c=11 AND a=11)
ORDER BY c;

