.open --hexdb
| size 16384 pagesize 4096 filename where001.txt.db
| page 1 offset 0
|      0: 53 51 4c 69 74 65 20 66 6f 72 6d 61 74 20 33 00   SQLite format 3.
|     16: 10 00 01 01 00 40 20 20 00 00 00 00 00 00 00 04   .....@  ........
|     32: 00 00 00 00 00 00 00 00 00 00 00 04 00 00 00 04   ................
|     48: 00 00 00 00 00 00 00 00 00 00 00 01 00 00 00 00   ................
|     96: 00 00 00 00 0d 00 00 00 03 0f 46 00 0f c3 0f 7e   ..........F....~
|    112: 0f 46 00 00 00 00 00 00 00 00 00 00 00 00 00 00   .F..............
|   3904: 00 00 00 00 00 00 36 03 06 17 11 11 01 59 74 61   ......6......Yta
|   3920: 62 6c 65 78 32 78 32 04 43 52 45 41 54 45 20 54   blex2x2.CREATE T
|   3936: 41 42 4c 45 20 78 32 28 78 20 49 4e 54 45 47 45   ABLE x2(x INTEGE
|   3952: 52 20 50 52 49 4d 41 52 59 20 4b 45 59 29 43 02   R PRIMARY KEY)C.
|   3968: 06 17 11 11 01 73 74 61 62 6c 65 78 31 78 31 03   .....stablex1x1.
|   3984: 43 52 45 41 54 45 20 54 41 42 4c 45 20 78 31 28   CREATE TABLE x1(
|   4000: 61 20 49 4e 54 45 47 45 52 20 50 52 49 4d 41 52   a INTEGER PRIMAR
|   4016: 59 20 4b 45 59 2c 20 62 20 44 45 46 41 55 4c 54   Y KEY, b DEFAULT
|   4032: 20 31 29 3b 01 06 17 11 11 01 63 74 61 62 6c 65    1);......ctable
|   4048: 74 31 74 31 02 43 52 45 41 54 45 20 54 41 42 4c   t1t1.CREATE TABL
|   4064: 45 20 74 31 28 77 20 69 6e 74 2c 20 78 20 69 6e   E t1(w int, x in
|   4080: 74 2c 20 79 20 69 6e 74 2c 20 7a 20 69 6e 74 29   t, y int, z int)
| page 2 offset 4096
|      0: 0d 00 00 00 64 0b 04 00 0f f7 0f ed 0f e3 0f d8   ....d...........
|     16: 0f cd 0f c2 0f b7 0f ac 0f a1 0f 96 0f 89 0f 7c   ...............|
|     32: 0f 6f 0f 62 0f 55 0f 48 0f 3b 0f 2e 0f 21 0f 14   .o.b.U.H.;...!..
|     48: 0f 07 0e fa 0e ed 0e e0 0e d3 0e c6 0e b9 0e ac   ................
|     64: 0e 9f 0e 92 0e 85 0e 78 0e 6b 0e 5e 0e 51 0e 44   .......x.k.^.Q.D
|     80: 0e 37 0e 2a 0e 1d 0e 10 0e 03 0d f6 0d e9 0d dc   .7.*............
|     96: 0d cf 0d c2 0d b5 0d a8 0d 9b 0d 8e 0d 81 0d 74   ...............t
|    112: 0d 67 0d 5a 0d 4d 0d 40 0d 33 0d 26 0d 19 0d 0c   .g.Z.M.@.3.&....
|    128: 0c ff 0c f2 0c e5 0c d8 0c cb 0c be 0c b1 0c a4   ................
|    144: 0c 97 0c 8a 0c 7d 0c 70 0c 63 0c 56 0c 49 0c 3c   .......p.c.V.I.<
|    160: 0c 2f 0c 22 0c 15 0c 08 0b fb 0b ee 0b e1 0b d4   ./..............
|    176: 0b c7 0b ba 0b ad 0b a0 0b 93 0b 86 0b 79 0b 6c   .............y.l
|    192: 0b 5f 0b 52 0b 45 0b 38 0b 2b 0b 1e 0b 11 0b 04   ._.R.E.8.+......
|   2816: 00 00 00 00 0b 64 05 01 01 02 02 64 06 27 d9 27   .....d.....d.'.'
|   2832: df 0b 63 05 01 01 02 02 63 06 27 10 27 16 0b 62   ..c.....c.'.'..b
|   2848: 05 01 01 02 02 62 06 26 49 26 4f 0b 61 05 01 01   .....b.&I&O.a...
|   2864: 02 02 61 06 25 84 25 8a 0b 60 05 01 01 02 02 60   ..a.%.%..`.....`
|   2880: 06 24 c1 24 c7 0b 5f 05 01 01 02 02 5f 06 24 00   .$.$.._....._.$.
|   2896: 24 06 0b 5e 05 01 01 02 02 5e 06 23 41 23 47 0b   $..^.....^.#A#G.
|   2912: 5d 05 01 01 02 02 5d 06 22 84 22 8a 0b 5c 05 01   ].....].........
|   2928: 01 02 02 5c 06 21 c9 21 cf 0b 5b 05 01 01 02 02   .....!.!..[.....
|   2944: 5b 06 21 10 21 16 0b 5a 05 01 01 02 02 5a 06 20   [.!.!..Z.....Z. 
|   2960: 59 20 5f 0b 59 05 01 01 02 02 59 06 1f a4 1f aa   Y _.Y.....Y.....
|   2976: 0b 58 05 01 01 02 02 58 06 1e f1 1e f7 0b 57 05   .X.....X......W.
|   2992: 01 01 02 02 57 06 1e 40 1e 46 0b 56 05 01 01 02   ....W..@.F.V....
|   3008: 02 56 06 1d 91 1d 97 0b 55 05 01 01 02 02 55 06   .V......U.....U.
|   3024: 1c e4 1c ea 0b 54 05 01 01 02 02 54 06 1c 39 1c   .....T.....T..9.
|   3040: 3f 0b 53 05 01 01 02 02 53 06 1b 90 1b 96 0b 52   ?.S.....S......R
|   3056: 05 01 01 02 02 52 06 1a e9 1a ef 0b 51 05 01 01   .....R......Q...
|   3072: 02 02 51 06 1a 44 1a 4a 0b 50 05 01 01 02 02 50   ..Q..D.J.P.....P
|   3088: 06 19 a1 19 a7 0b 4f 05 01 01 02 02 4f 06 19 00   ......O.....O...
|   3104: 19 06 0b 4e 05 01 01 02 02 4e 06 18 61 18 67 0b   ...N.....N..a.g.
|   3120: 4d 05 01 01 02 02 4d 06 17 c4 17 ca 0b 4c 05 01   M.....M......L..
|   3136: 01 02 02 4c 06 17 29 17 2f 0b 4b 05 01 01 02 02   ...L..)./.K.....
|   3152: 4b 06 16 90 16 96 0b 4a 05 01 01 02 02 4a 06 15   K......J.....J..
|   3168: f9 15 ff 0b 49 05 01 01 02 02 49 06 15 64 15 6a   ....I.....I..d.j
|   3184: 0b 48 05 01 01 02 02 48 06 14 d1 14 d7 0b 47 05   .H.....H......G.
|   3200: 01 01 02 02 47 06 14 40 14 46 0b 46 05 01 01 02   ....G..@.F.F....
|   3216: 02 46 06 13 b1 13 b7 0b 45 05 01 01 02 02 45 06   .F......E.....E.
|   3232: 13 24 13 2a 0b 44 05 01 01 02 02 44 06 12 99 12   .$.*.D.....D....
|   3248: 9f 0b 43 05 01 01 02 02 43 06 12 10 12 16 0b 42   ..C.....C......B
|   3264: 05 01 01 02 02 42 06 11 89 11 8f 0b 41 05 01 01   .....B......A...
|   3280: 02 02 41 06 11 04 11 0a 0b 40 05 01 01 02 02 40   ..A......@.....@
|   3296: 06 10 81 10 87 0b 3f 05 01 01 02 02 3f 05 10 00   ......?.....?...
|   3312: 10 05 0b 3e 05 01 01 02 02 3e 05 0f 81 0f 86 0b   ...>.....>......
|   3328: 3d 05 01 01 02 02 3d 05 0f 04 0f 09 0b 3c 05 01   =.....=......<..
|   3344: 01 02 02 3c 05 0e 89 0e 8e 0b 3b 05 01 01 02 02   ...<......;.....
|   3360: 3b 05 0e 10 0e 15 0b 3a 05 01 01 02 02 3a 05 0d   ;......:.....:..
|   3376: 99 0d 9e 0b 39 05 01 01 02 02 39 05 0d 24 0d 29   ....9.....9..$.)
|   3392: 0b 38 05 01 01 02 02 38 05 0c b1 0c b6 0b 37 05   .8.....8......7.
|   3408: 01 01 02 02 37 05 0c 40 0c 45 0b 36 05 01 01 02   ....7..@.E.6....
|   3424: 02 36 05 0b d1 0b d6 0b 35 05 01 01 02 02 35 05   .6......5.....5.
|   3440: 0b 64 0b 69 0b 34 05 01 01 02 02 34 05 0a f9 0a   .d.i.4.....4....
|   3456: fe 0b 33 05 01 01 02 02 33 05 0a 90 0a 95 0b 32   ..3.....3......2
|   3472: 05 01 01 02 02 32 05 0a 29 0a 2e 0b 31 05 01 01   .....2..)...1...
|   3488: 02 02 31 05 09 c4 09 c9 0b 30 05 01 01 02 02 30   ..1......0.....0
|   3504: 05 09 61 09 66 0b 2f 05 01 01 02 02 2f 05 09 00   ..a.f./...../...
|   3520: 09 05 0b 2e 05 01 01 02 02 2e 05 08 a1 08 a6 0b   ................
|   3536: 2d 05 01 01 02 02 2d 05 08 44 08 49 0b 2c 05 01   -.....-..D.I.,..
|   3552: 01 02 02 2c 05 07 e9 07 ee 0b 2b 05 01 01 02 02   ...,......+.....
|   3568: 2b 05 07 90 07 95 0b 2a 05 01 01 02 02 2a 05 07   +......*.....*..
|   3584: 39 07 3e 0b 29 05 01 01 02 02 29 05 06 e4 06 e9   9.>.).....).....
|   3600: 0b 28 05 01 01 02 02 28 05 06 91 06 96 0b 27 05   .(.....(......'.
|   3616: 01 01 02 02 27 05 06 40 06 45 0b 26 05 01 01 02   ....'..@.E.&....
|   3632: 02 26 05 05 f1 05 f6 0b 25 05 01 01 02 02 25 05   .&......%.....%.
|   3648: 05 a4 05 a9 0b 24 05 01 01 02 02 24 05 05 59 05   .....$.....$..Y.
|   3664: 5e 0b 23 05 01 01 02 02 23 05 05 10 05 15 0b 22   ^.#.....#.......
|   3680: 05 01 01 02 02 22 05 04 c9 04 ce 0b 21 05 01 01   ............!...
|   3696: 02 02 21 05 04 84 04 89 0b 20 05 01 01 02 02 20   ..!...... ..... 
|   3712: 05 04 41 04 46 0b 1f 05 01 01 02 02 1f 04 04 00   ..A.F...........
|   3728: 04 04 0b 1e 05 01 01 02 02 1e 04 03 c1 03 c5 0b   ................
|   3744: 1d 05 01 01 02 02 1d 04 03 84 03 88 0b 1c 05 01   ................
|   3760: 01 02 02 1c 04 03 49 03 4d 0b 1b 05 01 01 02 02   ......I.M.......
|   3776: 1b 04 03 10 03 14 0b 1a 05 01 01 02 02 1a 04 02   ................
|   3792: d9 02 dd 0b 19 05 01 01 02 02 19 04 02 a4 02 a8   ................
|   3808: 0b 18 05 01 01 02 02 18 04 02 71 02 75 0b 17 05   ..........q.u...
|   3824: 01 01 02 02 17 04 02 40 02 44 0b 16 05 01 01 02   .......@.D......
|   3840: 02 16 04 02 11 02 15 0b 15 05 01 01 02 02 15 04   ................
|   3856: 01 e4 01 e8 0b 14 05 01 01 02 02 14 04 01 b9 01   ................
|   3872: bd 0b 13 05 01 01 02 02 13 04 01 90 01 94 0b 12   ................
|   3888: 05 01 01 02 02 12 04 01 69 01 6d 0b 11 05 01 01   ........i.m.....
|   3904: 02 02 11 04 01 44 01 48 0b 10 05 01 01 02 02 10   .....D.H........
|   3920: 04 01 21 01 25 0b 0f 05 01 01 02 02 0f 03 01 00   ..!.%...........
|   3936: 01 03 0b 0e 05 01 01 02 02 0e 03 00 e1 00 e4 0b   ................
|   3952: 0d 05 01 01 02 02 0d 03 00 c4 00 c7 0b 0c 05 01   ................
|   3968: 01 02 02 0c 03 00 a9 00 ac 0b 0b 05 01 01 02 02   ................
|   3984: 0b 03 00 90 00 93 09 0a 05 01 01 01 01 0a 03 79   ...............y
|   4000: 7c 09 09 05 01 01 01 01 09 03 64 67 09 08 05 01   |.........dg....
|   4016: 01 01 01 08 03 51 54 09 07 05 01 01 01 01 07 02   .....QT.........
|   4032: 40 42 09 06 05 01 01 01 01 06 02 31 33 09 05 05   @B.........13...
|   4048: 01 01 01 01 05 02 24 26 09 04 05 01 01 01 01 04   ......$&........
|   4064: 02 19 1b 08 03 05 01 09 01 01 03 10 11 08 02 05   ................
|   4080: 01 09 01 01 02 09 0a 07 01 05 09 08 01 01 04 04   ................
| page 3 offset 8192
|      0: 0d 00 00 00 32 0f 06 00 0f fb 0f f6 0f f1 0f ec   ....2...........
|     16: 0f e7 0f e2 0f dd 0f d8 0f d3 0f ce 0f c9 0f c4   ................
|     32: 0f bf 0f ba 0f b5 0f b0 0f ab 0f a6 0f a1 0f 9c   ................
|     48: 0f 97 0f 92 0f 8d 0f 88 0f 83 0f 7e 0f 79 0f 74   ...........~.y.t
|     64: 0f 6f 0f 6a 0f 65 0f 60 0f 5b 0f 56 0f 51 0f 4c   .o.j.e.`.[.V.Q.L
|     80: 0f 47 0f 42 0f 3d 0f 38 0f 33 0f 2e 0f 29 0f 24   .G.B.=.8.3...).$
|     96: 0f 1f 0f 1a 0f 15 0f 10 0f 0b 0f 06 00 00 00 00   ................
|   3840: 00 00 00 00 00 00 03 32 03 00 09 03 31 03 00 09   .......2....1...
|   3856: 03 30 03 00 09 03 2f 03 00 09 03 2e 03 00 09 03   .0..../.........
|   3872: 2d 03 00 09 03 2c 03 00 09 03 2b 03 00 09 03 2a   -....,....+....*
|   3888: 03 00 09 03 29 03 00 09 03 28 03 00 09 03 27 03   ....)....(....'.
|   3904: 00 09 03 26 03 00 09 03 25 03 00 09 03 24 03 00   ...&....%....$..
|   3920: 09 03 23 03 00 09 03 22 03 00 09 03 21 03 00 09   ..#.........!...
|   3936: 03 20 03 00 09 03 1f 03 00 09 03 1e 03 00 09 03   . ..............
|   3952: 1d 03 00 09 03 1c 03 00 09 03 1b 03 00 09 03 1a   ................
|   3968: 03 00 09 03 19 03 00 09 03 18 03 00 09 03 17 03   ................
|   3984: 00 09 03 16 03 00 09 03 15 03 00 09 03 14 03 00   ................
|   4000: 09 03 13 03 00 09 03 12 03 00 09 03 11 03 00 09   ................
|   4016: 03 10 03 00 09 03 0f 03 00 09 03 0e 03 00 09 03   ................
|   4032: 0d 03 00 09 03 0c 03 00 09 03 0b 03 00 09 03 0a   ................
|   4048: 03 00 09 03 09 03 00 09 03 08 03 00 09 03 07 03   ................
|   4064: 00 09 03 06 03 00 09 03 05 03 00 09 03 04 03 00   ................
|   4080: 09 03 03 03 00 09 03 02 03 00 09 03 01 03 00 09   ................
| page 4 offset 12288
|      0: 0d 00 00 00 01 0f fc 00 0f fc 00 00 00 00 00 00   ................
|   4080: 00 00 00 00 00 00 00 00 00 00 00 00 02 01 02 00   ................
| end where001.txt.db
.testctrl prng_seed 1 db
.testctrl internal_functions
CREATE UNIQUE INDEX i1w ON t1(w);
CREATE INDEX i1xy ON t1(x,y);
CREATE INDEX i1zyx ON t1(z,y,x);
SELECT * FROM t1 WHERE z IN (10207,10006) AND y IN (10000,10201)
AND x>0 AND x<10
ORDER BY w;
SELECT * FROM t1 WHERE z IN (SELECT 10207 UNION SELECT 10006)
AND y IN (SELECT 10000 UNION SELECT 10201)
AND x>0 AND x<10
ORDER BY w;
SELECT * FROM t1
WHERE x IN (1,2,3,4,5,6,7,8)
AND y IN (10000,10001,10002,10003,10004,10005)
ORDER BY x DESC;

