.open --hexdb
| size 32768 pagesize 4096 filename where003.txt.db
| page 1 offset 0
|      0: 53 51 4c 69 74 65 20 66 6f 72 6d 61 74 20 33 00   SQLite format 3.
|     16: 10 00 01 01 00 40 20 20 00 00 00 00 00 00 00 08   .....@  ........
|     32: 00 00 00 00 00 00 00 00 00 00 00 05 00 00 00 04   ................
|     48: 00 00 00 00 00 00 00 00 00 00 00 01 00 00 00 00   ................
|     96: 00 00 00 00 0d 0f f8 00 07 0e a1 00 0f 8d 0f d3   ................
|    112: 0f 26 0f 68 0e f9 0e c5 0e a1 00 00 00 00 00 00   .&.h............
|   3744: 00 22 07 06 17 11 11 01 31 74 61 62 6c 65 74 37   ........1tablet7
|   3760: 74 37 08 43 52 45 41 54 45 20 54 41 42 4c 45 20   t7.CREATE TABLE 
|   3776: 74 37 28 69 29 32 06 06 17 15 11 01 4d 69 6e 64   t7(i)2......Mind
|   3792: 65 78 74 38 5f 69 74 38 07 43 52 45 41 54 45 20   ext8_it8.CREATE 
|   3808: 49 4e 44 45 58 20 74 38 5f 69 20 4f 4e 20 74 38   INDEX t8_i ON t8
|   3824: 28 61 2c 20 62 2c 20 63 29 2b 05 06 17 11 11 01   (a, b, c)+......
|   3840: 43 74 61 62 6c 65 74 38 74 38 06 43 52 45 41 54   Ctablet8t8.CREAT
|   3856: 45 20 54 41 42 4c 45 20 74 38 28 61 2c 20 62 2c   E TABLE t8(a, b,
|   3872: 20 63 2c 20 64 29 40 03 06 17 11 11 01 6d 74 61    c, d)@......mta
|   3888: 62 6c 65 74 35 74 35 04 43 52 45 41 54 45 20 54   blet5t5.CREATE T
|   3904: 41 42 4c 45 20 74 35 28 61 2c 62 2c 63 2c 64 2c   ABLE t5(a,b,c,d,
|   3920: 65 2c 66 2c 55 4e 49 51 55 45 28 61 2c 62 2c 63   e,f,UNIQUE(a,b,c
|   3936: 2c 64 2c 65 2c 66 29 29 23 04 06 17 37 11 01 00   ,d,e,f))#...7...
|   3952: 69 6e 64 65 78 73 71 6c 69 74 65 5f 61 75 74 6f   indexsqlite_auto
|   3968: 69 6e 64 65 78 5f 74 35 5f 31 74 35 05 44 01 06   index_t5_1t5.D..
|   3984: 17 11 11 01 75 74 61 62 6c 65 74 34 74 34 02 43   ....utablet4t4.C
|   4000: 52 45 41 54 45 20 54 41 42 4c 45 20 74 34 28 78   REATE TABLE t4(x
|   4016: 2c 79 2c 7a 2c 50 52 49 4d 41 52 59 20 4b 45 59   ,y,z,PRIMARY KEY
|   4032: 28 27 78 27 20 41 53 43 2c 20 22 79 22 20 41 53   ('x' ASC, .y. AS
|   4048: 43 29 29 23 02 06 17 37 11 01 00 69 6e 64 65 78   C))#...7...index
|   4064: 73 71 6c 69 74 65 5f 61 75 74 6f 69 6e 64 65 78   sqlite_autoindex
|   4080: 5f 74 34 5f 31 74 34 03 00 00 00 08 00 00 00 00   _t4_1t4.........
| page 2 offset 4096
|      0: 0d 00 00 00 00 10 00 00 00 00 00 00 00 00 00 00   ................
| page 3 offset 8192
|      0: 0a 00 00 00 00 10 00 00 00 00 00 00 00 00 00 00   ................
| page 4 offset 12288
|      0: 0d 00 00 00 04 0f c6 00 0f f5 0f e5 0f d6 0f c6   ................
|   4032: 00 00 00 00 00 00 0e 04 07 01 01 01 01 01 02 02   ................
|   4048: 03 04 05 06 5b a0 0d 03 07 09 01 01 01 01 02 02   ....[...........
|   4064: 03 04 05 30 39 0e 02 07 01 01 01 01 01 02 02 02   ...09...........
|   4080: 02 02 02 56 ce 09 01 07 09 09 09 09 09 02 2b 67   ...V..........+g
| page 5 offset 16384
|      0: 0a 00 00 00 04 0f c3 00 0f f5 0f d4 0f e4 0f c3   ................
|   4032: 00 00 00 10 08 01 01 01 01 01 02 01 02 03 04 05   ................
|   4048: 06 5b a0 04 0f 08 09 01 01 01 01 02 01 02 03 04   .[..............
|   4064: 05 30 39 03 10 08 01 01 01 01 01 02 01 02 02 02   .09.............
|   4080: 02 02 56 ce 02 0a 08 09 09 09 09 09 02 09 2b 67   ..V...........+g
| page 6 offset 20480
|      0: 0d 00 00 00 00 10 00 00 00 00 00 00 00 00 00 00   ................
| page 7 offset 24576
|      0: 0a 00 00 00 00 10 00 00 00 00 00 00 00 00 00 00   ................
| page 8 offset 28672
|      0: 0d 00 00 00 40 0e c1 00 0f fc 0f f7 0f f2 0f ed   ....@...........
|     16: 0f e8 0f e3 0f de 0f d9 0f d4 0f cf 0f ca 0f c5   ................
|     32: 0f c0 0f bb 0f b6 0f b1 0f ac 0f a7 0f a2 0f 9d   ................
|     48: 0f 98 0f 93 0f 8e 0f 89 0f 84 0f 7f 0f 7a 0f 75   .............z.u
|     64: 0f 70 0f 6b 0f 66 0f 61 0f 5c 0f 57 0f 52 0f 4d   .p.k.f.a...W.R.M
|     80: 0f 48 0f 43 0f 3e 0f 39 0f 34 0f 2f 0f 2a 0f 25   .H.C.>.9.4./.*.%
|     96: 0f 20 0f 1b 0f 16 0f 11 0f 0c 0f 07 0f 02 0e fd   . ..............
|    112: 0e f8 0e f3 0e ee 0e e9 0e e4 0e df 0e da 0e d5   ................
|    128: 0e d0 0e cb 0e c6 0e c1 00 00 00 00 00 00 00 00   ................
|   3776: 00 03 40 02 01 40 03 3f 02 01 20 03 3e 02 01 20   ..@..@.?.. .>.. 
|   3792: 03 3d 02 01 10 03 3c 02 01 20 03 3b 02 01 10 03   .=....<.. .;....
|   3808: 3a 02 01 10 03 39 02 01 08 03 38 02 01 20 03 37   :....9....8.. .7
|   3824: 02 01 10 03 36 02 01 10 03 35 02 01 08 03 34 02   ....6....5....4.
|   3840: 01 10 03 33 02 01 08 03 32 02 01 08 03 31 02 01   ...3....2....1..
|   3856: 04 03 30 02 01 20 03 2f 02 01 10 03 2e 02 01 10   ..0.. ./........
|   3872: 03 2d 02 01 08 03 2c 02 01 10 03 2b 02 01 08 03   .-....,....+....
|   3888: 2a 02 01 08 03 29 02 01 04 03 28 02 01 10 03 27   *....)....(....'
|   3904: 02 01 08 03 26 02 01 08 03 25 02 01 04 03 24 02   ....&....%....$.
|   3920: 01 08 03 23 02 01 04 03 22 02 01 04 03 21 02 01   ...#.........!..
|   3936: 02 03 20 02 01 20 03 1f 02 01 10 03 1e 02 01 10   .. .. ..........
|   3952: 03 1d 02 01 08 03 1c 02 01 10 03 1b 02 01 08 03   ................
|   3968: 1a 02 01 08 03 19 02 01 04 03 18 02 01 10 03 17   ................
|   3984: 02 01 08 03 16 02 01 08 03 15 02 01 04 03 14 02   ................
|   4000: 01 08 03 13 02 01 04 03 12 02 01 04 03 11 02 01   ................
|   4016: 02 03 10 02 01 10 03 0f 02 01 08 03 0e 02 01 08   ................
|   4032: 03 0d 02 01 04 03 0c 02 01 08 03 0b 02 01 04 03   ................
|   4048: 0a 02 01 04 03 09 02 01 02 03 08 02 01 08 03 07   ................
|   4064: 02 01 04 03 06 02 01 04 03 05 02 01 02 03 04 02   ................
|   4080: 01 04 03 03 02 01 02 03 02 02 01 02 02 01 02 09   ................
| end where003.txt.db
.testctrl prng_seed 1 db
.testctrl internal_functions
SELECT rowid FROM t4 WHERE x IN (1,9,2,5) AND y IN (1,3,NULL,2) AND z!=13;
SELECT rowid FROM t5
WHERE a IN (1,9,2) AND b=2 AND c IN (1,2,3,4) AND d>0;
SELECT sum((
SELECT d FROM t8 WHERE a = i AND b = i AND c < NULL
)) FROM t7;

