.open --hexdb
| size 40960 pagesize 4096 filename where002.txt.db
| page 1 offset 0
|      0: 53 51 4c 69 74 65 20 66 6f 72 6d 61 74 20 33 00   SQLite format 3.
|     16: 10 00 01 01 00 40 20 20 00 00 00 00 00 00 00 0a   .....@  ........
|     32: 00 00 00 00 00 00 00 00 00 00 00 09 00 00 00 04   ................
|     48: 00 00 00 00 00 00 00 00 00 00 00 01 00 00 00 00   ................
|     96: 00 00 00 00 0d 00 00 00 09 0e 3f 00 0f d9 0f b2   ..........?.....
|    112: 0f 8b 0f 5d 0f 2f 0e ed 0e b9 0e 8c 0e 3f 00 00   ...]./.......?..
|   3632: 00 00 00 00 00 00 00 00 00 00 00 00 00 00 00 4b   ...............K
|   3648: 09 06 17 25 25 01 5b 74 61 62 6c 65 73 71 6c 69   ...%%.[tablesqli
|   3664: 74 65 5f 73 74 61 74 31 73 71 6c 69 74 65 5f 73   te_stat1sqlite_s
|   3680: 74 61 74 31 0a 43 52 45 41 54 45 20 54 41 42 4c   tat1.CREATE TABL
|   3696: 45 20 73 71 6c 69 74 65 5f 73 74 61 74 31 28 74   E sqlite_stat1(t
|   3712: 62 6c 2c 69 64 78 2c 73 74 61 74 29 2b 08 06 17   bl,idx,stat)+...
|   3728: 15 15 01 3b 74 61 62 6c 65 74 33 30 32 74 33 30   ...;tablet302t30
|   3744: 32 09 43 52 45 41 54 45 20 54 41 42 4c 45 20 74   2.CREATE TABLE t
|   3760: 33 30 32 28 78 2c 20 79 29 32 07 06 17 17 15 01   302(x, y)2......
|   3776: 47 69 6e 64 65 78 74 33 30 31 63 74 33 30 31 08   Gindext301ct301.
|   3792: 43 52 45 41 54 45 20 49 4e 44 45 58 20 74 33 30   CREATE INDEX t30
|   3808: 31 63 20 4f 4e 20 74 33 30 31 28 63 29 40 06 06   1c ON t301(c)@..
|   3824: 17 15 15 01 65 74 61 62 6c 65 74 33 30 31 74 33   ....etablet301t3
|   3840: 30 31 07 43 52 45 41 54 45 20 54 41 42 4c 45 20   01.CREATE TABLE 
|   3856: 74 33 30 31 28 61 20 49 4e 54 45 47 45 52 20 50   t301(a INTEGER P
|   3872: 52 49 4d 41 52 59 20 4b 45 59 2c 62 2c 63 29 2c   RIMARY KEY,b,c),
|   3888: 05 06 17 15 11 01 41 69 6e 64 65 78 74 33 69 31   ......Aindext3i1
|   3904: 74 33 06 43 52 45 41 54 45 20 49 4e 44 45 58 20   t3.CREATE INDEX 
|   3920: 74 33 69 31 20 4f 4e 20 74 33 28 78 29 2c 04 06   t3i1 ON t3(x),..
|   3936: 17 15 11 01 41 69 6e 64 65 78 74 32 69 31 74 32   ....Aindext2i1t2
|   3952: 05 43 52 45 41 54 45 20 49 4e 44 45 58 20 74 32   .CREATE INDEX t2
|   3968: 69 31 20 4f 4e 20 74 32 28 70 29 25 03 06 17 11   i1 ON t2(p)%....
|   3984: 11 01 37 74 61 62 6c 65 74 33 74 33 04 43 52 45   ..7tablet3t3.CRE
|   4000: 41 54 45 20 54 41 42 4c 45 20 74 33 28 78 2c 20   ATE TABLE t3(x, 
|   4016: 79 29 25 02 06 17 11 11 01 37 74 61 62 6c 65 74   y)%......7tablet
|   4032: 32 74 32 03 43 52 45 41 54 45 20 54 41 42 4c 45   2t2.CREATE TABLE
|   4048: 20 74 32 28 70 2c 20 71 29 25 01 06 17 11 11 01    t2(p, q)%......
|   4064: 37 74 61 62 6c 65 74 31 74 31 02 43 52 45 41 54   7tablet1t1.CREAT
|   4080: 45 20 54 41 42 4c 45 20 74 31 28 61 2c 20 62 29   E TABLE t1(a, b)
| page 2 offset 4096
|      0: 0d 00 00 00 03 0f e1 00 0f f7 0f ed 0f e1 00 00   ................
|   4064: 00 0a 03 03 02 17 01 4d 74 68 72 65 65 08 02 03   .......Mthree...
|   4080: 02 13 00 de 74 77 6f 07 01 03 01 13 6f 6f 6e 65   ....two.....oone
| page 3 offset 8192
|      0: 0d 00 00 00 03 0f ea 00 0f fa 0f f2 0f ea 00 00   ................
|   4064: 00 00 00 00 00 00 00 00 00 00 06 03 03 01 02 04   ................
|   4080: 01 bc 06 02 03 01 02 02 00 de 04 01 03 09 01 6f   ...............o
| page 4 offset 12288
|      0: 0d 00 00 00 01 0f f5 00 0f f5 00 00 00 00 00 00   ................
|   4080: 00 00 00 00 00 09 01 03 02 15 03 e7 6e 69 6e 65   ............nine
| page 5 offset 16384
|      0: 0a 00 00 00 03 0f f0 00 0f fc 0f f6 0f f0 00 00   ................
|   4080: 05 03 01 01 04 03 05 03 01 01 02 02 03 03 09 09   ................
| page 6 offset 20480
|      0: 0a 00 00 00 01 0f fa 00 0f fa 00 00 00 00 00 00   ................
|   4080: 00 00 00 00 00 00 00 00 00 00 05 03 02 09 03 e7   ................
| page 7 offset 24576
|      0: 0d 00 00 00 02 0f f0 00 0f f8 0f f0 00 00 00 00   ................
|   4080: 06 02 04 00 01 01 02 03 06 01 04 00 01 01 02 03   ................
| page 8 offset 28672
|      0: 0a 00 00 00 02 0f f5 00 0f fb 0f f5 00 00 00 00   ................
|   4080: 00 00 00 00 00 05 03 01 01 03 02 04 03 01 09 03   ................
| page 9 offset 32768
|      0: 0d 00 00 00 01 0f f9 00 0f f9 00 00 00 00 00 00   ................
|   4080: 00 00 00 00 00 00 00 00 00 05 01 03 01 01 04 05   ................
| page 10 offset 36864
|      0: 0d 00 00 00 05 0f bc 00 0f f5 0f e3 0f d4 0f c5   ................
|     16: 0f bc 00 00 00 00 00 00 00 00 00 00 00 00 00 00   ................
|   4016: 00 00 00 00 00 00 00 00 00 00 00 00 07 05 04 11   ................
|   4032: 00 0f 74 31 33 0d 04 04 11 15 13 74 32 74 32 69   ..t13......t2t2i
|   4048: 31 33 20 31 0d 03 04 11 15 13 74 33 74 33 69 31   13 1......t3t3i1
|   4064: 31 20 31 10 02 04 15 17 13 74 33 30 31 74 33 30   1 1......t301t30
|   4080: 31 63 32 20 32 09 01 04 15 00 0f 74 33 30 32 31   1c2 2......t3021
| end where002.txt.db
.testctrl prng_seed 1 db
.testctrl internal_functions
SELECT * FROM t1, t2 LEFT JOIN t3 ON q=x WHERE p=2 AND a=q;
SELECT * FROM t302, t301 WHERE t302.x=5 AND t301.a=t302.y;

