.open --hexdb
| size 20480 pagesize 4096 filename where004.txt.db
| page 1 offset 0
|      0: 53 51 4c 69 74 65 20 66 6f 72 6d 61 74 20 33 00   SQLite format 3.
|     16: 10 00 01 01 00 40 20 20 00 00 00 00 00 00 00 05   .....@  ........
|     32: 00 00 00 00 00 00 00 00 00 00 00 02 00 00 00 04   ................
|     48: 00 00 00 00 00 00 00 00 00 00 00 01 00 00 00 00   ................
|     96: 00 00 00 00 0d 0f f8 00 04 0f 47 00 0f a8 0f d3   ..........G.....
|    112: 0f 47 0f 83 00 00 00 00 00 00 00 00 00 00 00 00   .G..............
|   3904: 00 00 00 00 00 00 00 3a 03 06 17 11 11 01 61 74   .......:......at
|   3920: 61 62 6c 65 74 35 74 35 04 43 52 45 41 54 45 20   ablet5t5.CREATE 
|   3936: 54 41 42 4c 45 20 74 35 28 61 2c 20 62 2c 20 63   TABLE t5(a, b, c
|   3952: 2c 20 50 52 49 4d 41 52 59 20 4b 45 59 28 61 2c   , PRIMARY KEY(a,
|   3968: 62 29 29 23 04 06 17 37 11 01 00 69 6e 64 65 78   b))#...7...index
|   3984: 73 71 6c 69 74 65 5f 61 75 74 6f 69 6e 64 65 78   sqlite_autoindex
|   4000: 5f 74 35 5f 31 74 35 05 29 01 06 17 11 11 01 3f   _t5_1t5.)......?
|   4016: 74 61 62 6c 65 74 34 74 34 02 43 52 45 41 54 45   tablet4t4.CREATE
|   4032: 20 54 41 42 4c 45 20 74 34 28 78 20 55 4e 49 51    TABLE t4(x UNIQ
|   4048: 55 45 29 23 02 06 17 37 11 01 00 69 6e 64 65 78   UE)#...7...index
|   4064: 73 71 6c 69 74 65 5f 61 75 74 6f 69 6e 64 65 78   sqlite_autoindex
|   4080: 5f 74 34 5f 31 74 34 03 00 00 00 08 00 00 00 00   _t4_1t4.........
| page 2 offset 4096
|      0: 0d 00 00 00 03 0f eb 00 0f f9 0f f2 0f eb 00 00   ................
|   4064: 00 00 00 00 00 00 00 00 00 00 00 05 03 02 13 67   ...............g
|   4080: 68 69 05 02 02 13 64 65 66 05 01 02 13 61 62 63   hi....def....abc
| page 3 offset 8192
|      0: 0a 00 00 00 03 0f e9 00 0f f9 0f f1 0f e9 00 00   ................
|   4064: 00 00 00 00 00 00 00 00 00 07 03 13 01 67 68 69   .............ghi
|   4080: 03 07 03 13 01 64 65 66 02 06 03 13 09 61 62 63   .....def.....abc
| page 4 offset 12288
|      0: 0d 00 00 00 02 0f e5 00 0f f3 0f e5 00 00 00 00   ................
|   4064: 00 00 00 00 00 0c 02 04 13 13 02 64 65 66 67 68   ...........defgh
|   4080: 69 01 c8 0b 01 04 13 13 01 61 62 63 64 65 66 7b   i........abcdef.
| page 5 offset 16384
|      0: 0a 00 00 00 02 0f e9 00 0f f5 0f e9 00 00 00 00   ................
|   4064: 00 00 00 00 00 00 00 00 00 0b 04 13 13 01 64 65   ..............de
|   4080: 66 67 68 69 02 0a 04 13 13 09 61 62 63 64 65 66   fghi......abcdef
| end where004.txt.db
.testctrl prng_seed 1 db
.testctrl internal_functions
CREATE TABLE t6 AS
SELECT t4a.x, t4b.x, t5.c, t6.v
FROM t4 AS t4a
INNER JOIN t4 AS t4b
LEFT JOIN t5 ON t5.a=t4a.x AND t5.b=t4b.x
LEFT JOIN (SELECT 1 AS v) AS t6 ON t4a.x=t4b.x
ORDER BY 1, 2, 3;

