.open --hexdb
| size 12288 pagesize 4096 filename winfunc002.txt.db
| page 1 offset 0
|      0: 53 51 4c 69 74 65 20 66 6f 72 6d 61 74 20 33 00   SQLite format 3.
|     16: 10 00 01 01 00 40 20 20 00 00 00 00 00 00 00 03   .....@  ........
|     32: 00 00 00 00 00 00 00 00 00 00 00 02 00 00 00 04   ................
|     48: 00 00 00 00 00 00 00 00 00 00 00 01 00 00 00 00   ................
|     96: 00 00 00 00 0d 00 00 00 02 0f 69 00 0f ac 0f 69   ..........i....i
|   3936: 00 00 00 00 00 00 00 00 00 41 02 06 17 11 11 01   .........A......
|   3952: 6f 74 61 62 6c 65 74 32 74 32 03 43 52 45 41 54   otablet2t2.CREAT
|   3968: 45 20 54 41 42 4c 45 20 74 32 28 61 20 49 4e 54   E TABLE t2(a INT
|   3984: 45 47 45 52 20 50 52 49 4d 41 52 59 20 4b 45 59   EGER PRIMARY KEY
|   4000: 2c 20 62 20 49 4e 54 45 47 45 52 29 52 01 07 17   , b INTEGER)R...
|   4016: 11 11 01 81 0f 74 61 62 6c 65 74 31 74 31 02 43   .....tablet1t1.C
|   4032: 52 45 41 54 45 20 54 41 42 4c 45 20 74 31 28 61   REATE TABLE t1(a
|   4048: 20 49 4e 54 45 47 45 52 20 50 52 49 4d 41 52 59    INTEGER PRIMARY
|   4064: 20 4b 45 59 2c 20 62 20 54 45 58 54 2c 20 63 20    KEY, b TEXT, c 
|   4080: 54 45 58 54 2c 20 64 20 49 4e 54 45 47 45 52 29   TEXT, d INTEGER)
| page 2 offset 4096
|      0: 0d 00 00 00 06 0f a6 00 0f f3 0f e4 0f d4 0f c4   ................
|     16: 0f b5 0f a6 00 00 00 00 00 00 00 00 00 00 00 00   ................
|   4000: 00 00 00 00 00 00 0d 06 05 00 15 13 01 65 76 65   .............eve
|   4016: 6e 73 69 78 06 0d 05 05 00 13 15 01 6f 64 64 66   nsix........oddf
|   4032: 69 76 65 05 0e 04 05 00 15 15 01 65 76 65 6e 66   ive........evenf
|   4048: 6f 75 72 04 0e 03 05 00 13 17 01 6f 64 64 74 68   our........oddth
|   4064: 72 65 65 03 0d 02 05 00 15 13 01 65 76 65 6e 74   ree........event
|   4080: 77 6f 02 0b 01 05 00 13 13 09 6f 64 64 6f 6e 65   wo........oddone
| page 3 offset 8192
|      0: 0d 00 00 00 c8 0b 0a 00 0f fb 0f f5 0f ef 0f e9   ................
|     16: 0f e3 0f dd 0f d7 0f d1 0f cb 0f c5 0f bf 0f b9   ................
|     32: 0f b3 0f ad 0f a7 0f a1 0f 9b 0f 95 0f 8f 0f 89   ................
|     48: 0f 83 0f 7d 0f 77 0f 71 0f 6b 0f 65 0f 5f 0f 59   .....w.q.k.e._.Y
|     64: 0f 53 0f 4d 0f 47 0f 41 0f 3b 0f 35 0f 2f 0f 29   .S.M.G.A.;.5./.)
|     80: 0f 23 0f 1d 0f 17 0f 11 0f 0b 0f 05 0e ff 0e f9   .#..............
|     96: 0e f3 0e ed 0e e7 0e e1 0e db 0e d5 0e cf 0e c9   ................
|    112: 0e c3 0e bd 0e b7 0e b1 0e ab 0e a5 0e 9f 0e 99   ................
|    128: 0e 93 0e 8d 0e 87 0e 82 0e 7c 0e 76 0e 70 0e 6a   .........|.v.p.j
|    144: 0e 64 0e 5e 0e 58 0e 52 0e 4c 0e 46 0e 40 0e 3a   .d.^.X.R.L.F.@.:
|    160: 0e 34 0e 2e 0e 28 0e 22 0e 1c 0e 16 0e 10 0e 0a   .4...(..........
|    176: 0e 04 0d fe 0d f8 0d f2 0d ec 0d e6 0d e0 0d da   ................
|    192: 0d d4 0d ce 0d c8 0d c2 0d bc 0d b6 0d b0 0d aa   ................
|    208: 0d a5 0d 9f 0d 99 0d 93 0d 8d 0d 87 0d 81 0d 7b   ................
|    224: 0d 75 0d 6f 0d 69 0d 63 0d 5d 0d 57 0d 51 0d 4b   .u.o.i.c.].W.Q.K
|    240: 0d 45 0d 3f 0d 39 0d 33 0d 2d 0d 27 0d 21 0d 1b   .E.?.9.3.-.'.!..
|    256: 0d 15 0d 0f 0d 09 0d 02 0c fb 0c f4 0c ed 0c e6   ................
|    272: 0c df 0c d8 0c d1 0c ca 0c c3 0c bc 0c b5 0c ae   ................
|    288: 0c a7 0c a0 0c 99 0c 92 0c 8b 0c 84 0c 7d 0c 76   ...............v
|    304: 0c 6f 0c 68 0c 61 0c 5a 0c 53 0c 4c 0c 45 0c 3e   .o.h.a.Z.S.L.E.>
|    320: 0c 37 0c 30 0c 29 0c 22 0c 1b 0c 14 0c 0d 0c 06   .7.0.)..........
|    336: 0b ff 0b f8 0b f1 0b ea 0b e3 0b dc 0b d5 0b ce   ................
|    352: 0b c7 0b c0 0b b9 0b b2 0b ab 0b a4 0b 9d 0b 96   ................
|    368: 0b 8f 0b 88 0b 81 0b 7a 0b 73 0b 6c 0b 65 0b 5e   .......z.s.l.e.^
|    384: 0b 57 0b 50 0b 49 0b 42 0b 3b 0b 34 0b 2d 0b 26   .W.P.I.B.;.4.-.&
|    400: 0b 1f 0b 18 0b 11 0b 0a 00 00 00 00 00 00 00 00   ................
|   2816: 00 00 00 00 00 00 00 00 00 00 04 81 48 03 00 01   ............H...
|   2832: 07 04 81 47 03 00 01 11 04 81 46 03 00 01 52 04   ...G......F...R.
|   2848: 81 45 03 00 01 1b 04 81 44 03 00 01 53 04 81 43   .E......D...S..C
|   2864: 03 00 01 22 04 81 42 03 00 01 26 04 81 41 03 00   ......B...&..A..
|   2880: 01 1e 04 81 40 03 00 01 3a 04 81 3f 03 00 01 2c   ....@...:..?...,
|   2896: 04 81 3e 03 00 01 27 04 81 3d 03 00 01 15 04 81   ..>...'..=......
|   2912: 3c 03 00 01 21 04 81 3b 03 00 01 54 04 81 3a 03   <...!..;...T..:.
|   2928: 00 01 0a 04 81 39 03 00 01 54 04 81 38 03 00 01   .....9...T..8...
|   2944: 32 04 81 37 03 00 01 1e 04 81 36 03 00 01 34 04   2..7......6...4.
|   2960: 81 35 03 00 01 3a 04 81 34 03 00 01 45 04 81 33   .5...:..4...E..3
|   2976: 03 00 01 5f 04 81 32 03 00 01 03 04 81 31 03 00   ..._..2......1..
|   2992: 01 63 04 81 30 03 00 01 24 04 81 2f 03 00 01 22   .c..0...$../....
|   3008: 04 81 2e 03 00 01 0f 04 81 2d 03 00 01 21 04 81   .........-...!..
|   3024: 2c 03 00 01 5b 04 81 2b 03 00 01 24 04 81 2a 03   ,...[..+...$..*.
|   3040: 00 01 5b 04 81 29 03 00 01 3e 04 81 28 03 00 01   ..[..)...>..(...
|   3056: 0e 04 81 27 03 00 01 0c 04 81 26 03 00 01 0d 04   ...'......&.....
|   3072: 81 25 03 00 01 25 04 81 24 03 00 01 17 04 81 23   .%...%..$......#
|   3088: 03 00 01 09 04 81 22 03 00 01 51 04 81 21 03 00   ..........Q..!..
|   3104: 01 40 04 81 20 03 00 01 4b 04 81 1f 03 00 01 5d   .@.. ...K......]
|   3120: 04 81 1e 03 00 01 21 04 81 1d 03 00 01 42 04 81   ......!......B..
|   3136: 1c 03 00 01 48 04 81 1b 03 00 01 48 04 81 1a 03   ....H......H....
|   3152: 00 01 09 04 81 19 03 00 01 2f 04 81 18 03 00 01   ........./......
|   3168: 3a 04 81 17 03 00 01 24 04 81 16 03 00 01 5a 04   :......$......Z.
|   3184: 81 15 03 00 01 50 04 81 14 03 00 01 2f 04 81 13   .....P....../...
|   3200: 03 00 01 1a 04 81 12 03 00 01 1a 04 81 11 03 00   ................
|   3216: 01 27 04 81 10 03 00 01 13 04 81 0f 03 00 01 3b   .'.............;
|   3232: 04 81 0e 03 00 01 46 04 81 0d 03 00 01 1d 04 81   ......F.........
|   3248: 0c 03 00 01 4a 04 81 0b 03 00 01 39 04 81 0a 03   ....J......9....
|   3264: 00 01 55 04 81 09 03 00 01 07 04 81 08 03 00 01   ..U.............
|   3280: 02 04 81 07 03 00 01 2c 04 81 06 03 00 01 4d 04   .......,......M.
|   3296: 81 05 03 00 01 4b 04 81 04 03 00 01 37 04 81 03   .....K......7...
|   3312: 03 00 01 3c 04 81 02 03 00 01 60 04 81 01 03 00   ...<......`.....
|   3328: 01 3b 04 81 00 03 00 01 5a 04 7f 03 00 01 22 04   .;......Z.......
|   3344: 7e 03 00 01 31 04 7d 03 00 01 0b 04 7c 03 00 01   ~...1.......|...
|   3360: 08 04 7b 03 00 01 22 04 7a 03 00 01 58 04 79 03   ........z...X.y.
|   3376: 00 01 4f 04 78 03 00 01 49 04 77 03 00 01 16 04   ..O.x...I.w.....
|   3392: 76 03 00 01 5f 04 75 03 00 01 0f 04 74 03 00 01   v..._.u.....t...
|   3408: 1f 04 73 03 00 01 1f 04 72 03 00 01 14 04 71 03   ..s.....r.....q.
|   3424: 00 01 08 04 70 03 00 01 0c 04 6f 03 00 01 29 04   ....p.....o...).
|   3440: 6e 03 00 01 57 04 6d 03 00 01 33 04 6c 03 00 01   n...W.m...3.l...
|   3456: 0b 04 6b 03 00 01 49 04 6a 03 00 01 05 04 69 03   ..k...I.j.....i.
|   3472: 00 01 23 04 68 03 00 01 41 04 67 03 00 01 4a 04   ..#.h...A.g...J.
|   3488: 66 03 00 01 15 03 65 03 00 09 04 64 03 00 01 62   f.....e....d...b
|   3504: 04 63 03 00 01 60 04 62 03 00 01 3a 04 61 03 00   .c...`.b...:.a..
|   3520: 01 0d 04 60 03 00 01 41 04 5f 03 00 01 5f 04 5e   ...`...A._..._.^
|   3536: 03 00 01 49 04 5d 03 00 01 3d 04 5c 03 00 01 09   ...I.]...=......
|   3552: 04 5b 03 00 01 29 04 5a 03 00 01 48 04 59 03 00   .[...).Z...H.Y..
|   3568: 01 54 04 58 03 00 01 50 04 57 03 00 01 25 04 56   .T.X...P.W...%.V
|   3584: 03 00 01 57 04 55 03 00 01 02 04 54 03 00 01 3f   ...W.U.....T...?
|   3600: 04 53 03 00 01 35 04 52 03 00 01 1d 04 51 03 00   .S...5.R.....Q..
|   3616: 01 21 04 50 03 00 01 4e 04 4f 03 00 01 1e 04 4e   .!.P...N.O.....N
|   3632: 03 00 01 2a 04 4d 03 00 01 5e 04 4c 03 00 01 04   ...*.M...^.L....
|   3648: 04 4b 03 00 01 51 04 4a 03 00 01 4c 04 49 03 00   .K...Q.J...L.I..
|   3664: 01 62 04 48 03 00 01 59 04 47 03 00 01 24 04 46   .b.H...Y.G...$.F
|   3680: 03 00 01 4b 04 45 03 00 01 10 04 44 03 00 01 38   ...K.E.....D...8
|   3696: 04 43 03 00 01 2b 04 42 03 00 01 28 04 41 03 00   .C...+.B...(.A..
|   3712: 01 38 03 40 03 00 09 04 3f 03 00 01 2f 04 3e 03   .8.@....?.../.>.
|   3728: 00 01 19 04 3d 03 00 01 59 04 3c 03 00 01 1c 04   ....=...Y.<.....
|   3744: 3b 03 00 01 0f 04 3a 03 00 01 37 04 39 03 00 01   ;.....:...7.9...
|   3760: 5a 04 38 03 00 01 16 04 37 03 00 01 5b 04 36 03   Z.8.....7...[.6.
|   3776: 00 01 03 04 35 03 00 01 38 04 34 03 00 01 20 04   ....5...8.4... .
|   3792: 33 03 00 01 0c 04 32 03 00 01 3b 04 31 03 00 01   3.....2...;.1...
|   3808: 2b 04 30 03 00 01 55 04 2f 03 00 01 18 04 2e 03   +.0...U./.......
|   3824: 00 01 55 04 2d 03 00 01 5b 04 2c 03 00 01 3d 04   ..U.-...[.,...=.
|   3840: 2b 03 00 01 4a 04 2a 03 00 01 56 04 29 03 00 01   +...J.*...V.)...
|   3856: 07 04 28 03 00 01 2f 04 27 03 00 01 23 04 26 03   ..(.../.'...#.&.
|   3872: 00 01 41 04 25 03 00 01 5d 04 24 03 00 01 10 04   ..A.%...].$.....
|   3888: 23 03 00 01 10 04 22 03 00 01 17 04 21 03 00 01   #...........!...
|   3904: 4d 04 20 03 00 01 54 04 1f 03 00 01 5d 04 1e 03   M. ...T.....]...
|   3920: 00 01 1d 04 1d 03 00 01 43 04 1c 03 00 01 08 04   ........C.......
|   3936: 1b 03 00 01 61 04 1a 03 00 01 36 04 19 03 00 01   ....a.....6.....
|   3952: 4e 04 18 03 00 01 2e 04 17 03 00 01 1b 04 16 03   N...............
|   3968: 00 01 61 04 15 03 00 01 63 04 14 03 00 01 06 04   ..a.....c.......
|   3984: 13 03 00 01 2e 04 12 03 00 01 5b 04 11 03 00 01   ..........[.....
|   4000: 3e 04 10 03 00 01 27 04 0f 03 00 01 44 04 0e 03   >.....'.....D...
|   4016: 00 01 26 04 0d 03 00 01 3b 04 0c 03 00 01 60 04   ..&.....;.....`.
|   4032: 0b 03 00 01 51 04 0a 03 00 01 59 04 09 03 00 01   ....Q.....Y.....
|   4048: 02 04 08 03 00 01 21 04 07 03 00 01 1a 04 06 03   ......!.........
|   4064: 00 01 63 04 05 03 00 01 17 04 04 03 00 01 4a 04   ..c...........J.
|   4080: 03 03 00 01 29 04 02 03 00 01 4a 03 01 03 00 08   ....).....J.....
| end winfunc002.txt.db
.testctrl prng_seed 1 db
.testctrl internal_functions
CREATE INDEX x1 ON t1(b);
CREATE INDEX x2 ON t1(c,b);
CREATE INDEX x3 ON t2(b);
SELECT a, sum(d) OVER (
PARTITION BY b ORDER BY d
RANGE BETWEEN CURRENT ROW AND UNBOUNDED FOLLOWING
) FROM t1;
SELECT a, sum(b) OVER (
PARTITION BY (b%10)
ORDER BY b
RANGE BETWEEN UNBOUNDED PRECEDING AND CURRENT ROW
) FROM t2 ORDER BY a;
WITH c(i)AS(VALUES(5)UNIoN SELECT 0)SELECT min(1)-i fROM c;

