.open --hexdb
| size 24576 pagesize 4096 filename winfunc006.txt.db
| page 1 offset 0
|      0: 53 51 4c 69 74 65 20 66 6f 72 6d 61 74 20 33 00   SQLite format 3.
|     16: 10 00 01 01 00 40 20 20 00 00 00 00 00 00 00 06   .....@  ........
|     32: 00 00 00 00 00 00 00 00 00 00 00 06 00 00 00 04   ................
|     48: 00 00 00 00 00 00 00 00 00 00 00 01 00 00 00 00   ................
|     96: 00 00 00 00 0d 00 00 00 05 0e ce 00 0f a2 0f 4e   ...............N
|    112: 0f 24 0e f8 0e ce 00 00 00 00 00 00 00 00 00 00   .$..............
|   3776: 00 00 00 00 00 00 00 00 00 00 00 00 00 00 28 05   ..............(.
|   3792: 06 17 11 11 01 3d 69 6e 64 65 78 78 33 74 32 06   .....=indexx3t2.
|   3808: 43 52 45 41 54 45 20 49 4e 44 45 58 20 78 33 20   CREATE INDEX x3 
|   3824: 4f 4e 20 74 32 28 62 29 2a 04 06 17 11 11 01 41   ON t2(b)*......A
|   3840: 69 6e 64 65 78 78 32 74 31 05 43 52 45 41 54 45   indexx2t1.CREATE
|   3856: 20 49 4e 44 45 58 20 78 32 20 4f 4e 20 74 31 28    INDEX x2 ON t1(
|   3872: 63 2c 62 29 28 03 06 17 11 11 01 3d 69 6e 64 65   c,b)(......=inde
|   3888: 78 78 31 74 31 04 43 52 45 41 54 45 20 49 4e 44   xx1t1.CREATE IND
|   3904: 45 58 20 78 31 20 4f 4e 20 74 31 28 62 29 52 02   EX x1 ON t1(b)R.
|   3920: 07 17 11 11 01 81 0f 74 61 62 6c 65 74 32 74 32   .......tablet2t2
|   3936: 03 43 52 45 41 54 45 20 54 41 42 4c 45 20 74 32   .CREATE TABLE t2
|   3952: 28 61 20 49 4e 54 2c 20 62 20 49 4e 54 45 47 45   (a INT, b INTEGE
|   3968: 52 2c 20 50 52 49 4d 41 52 59 20 4b 45 59 28 61   R, PRIMARY KEY(a
|   3984: 2c 62 29 29 20 57 49 54 48 4f 55 54 20 52 4f 57   ,b)) WITHOUT ROW
|   4000: 49 44 5c 01 07 17 11 11 01 81 23 74 61 62 6c 65   ID........#table
|   4016: 74 31 74 31 02 43 52 45 41 54 45 20 54 41 42 4c   t1t1.CREATE TABL
|   4032: 45 20 74 31 28 61 20 49 4e 54 20 50 52 49 4d 41   E t1(a INT PRIMA
|   4048: 52 59 20 4b 45 59 2c 20 62 20 54 45 58 54 2c 20   RY KEY, b TEXT, 
|   4064: 63 20 54 45 58 54 2c 20 64 20 49 4e 54 45 47 45   c TEXT, d INTEGE
|   4080: 52 29 20 57 49 54 48 4f 55 54 20 52 4f 57 49 44   R) WITHOUT ROWID
| page 2 offset 4096
|      0: 0a 00 00 00 06 0f a7 00 0f f4 0f e5 0f d5 0f c5   ................
|     16: 0f b6 0f a7 00 00 00 00 00 00 00 00 00 00 00 00   ................
|   4000: 00 00 00 00 00 00 00 0e 05 01 15 13 01 06 65 76   ..............ev
|   4016: 65 6e 73 69 78 06 0e 05 01 13 15 01 05 6f 64 64   ensix........odd
|   4032: 66 69 76 65 05 0f 05 01 15 15 01 04 65 76 65 6e   five........even
|   4048: 66 6f 75 72 04 0f 05 01 13 17 01 03 6f 64 64 74   four........oddt
|   4064: 68 72 65 65 03 0e 05 01 15 13 01 02 65 76 65 6e   hree........even
|   4080: 74 77 6f 02 0b 05 09 13 13 09 6f 64 64 6f 6e 65   two.......oddone
| page 3 offset 8192
|      0: 0a 00 00 00 c8 0b 0b 00 0f fc 0f f6 0f f0 0f ea   ................
|     16: 0f e4 0f de 0f d8 0f d2 0f cc 0f c6 0f c0 0f ba   ................
|     32: 0f b4 0f ae 0f a8 0f a2 0f 9c 0f 96 0f 90 0f 8a   ................
|     48: 0f 84 0f 7e 0f 78 0f 72 0f 6c 0f 66 0f 60 0f 5a   ...~.x.r.l.f.`.Z
|     64: 0f 54 0f 4e 0f 48 0f 42 0f 3c 0f 36 0f 30 0f 2a   .T.N.H.B.<.6.0.*
|     80: 0f 24 0f 1e 0f 18 0f 12 0f 0c 0f 06 0f 00 0e fa   .$..............
|     96: 0e f4 0e ee 0e e8 0e e2 0e dc 0e d6 0e d0 0e ca   ................
|    112: 0e c4 0e be 0e b8 0e b2 0e ac 0e a6 0e a0 0e 9a   ................
|    128: 0e 94 0e 8e 0e 88 0e 83 0e 7d 0e 77 0e 71 0e 6b   ...........w.q.k
|    144: 0e 65 0e 5f 0e 59 0e 53 0e 4d 0e 47 0e 41 0e 3b   .e._.Y.S.M.G.A.;
|    160: 0e 35 0e 2f 0e 29 0e 23 0e 1d 0e 17 0e 11 0e 0b   .5./.).#........
|    176: 0e 05 0d ff 0d f9 0d f3 0d ed 0d e7 0d e1 0d db   ................
|    192: 0d d5 0d cf 0d c9 0d c3 0d bd 0d b7 0d b1 0d ab   ................
|    208: 0d a6 0d a0 0d 9a 0d 94 0d 8e 0d 88 0d 82 0d 7c   ...............|
|    224: 0d 76 0d 70 0d 6a 0d 64 0d 5e 0d 58 0d 52 0d 4c   .v.p.j.d.^.X.R.L
|    240: 0d 46 0d 40 0d 3a 0d 34 0d 2e 0d 28 0d 22 0d 1c   .F.@.:.4...(....
|    256: 0d 16 0d 10 0d 0a 0d 03 0c fc 0c f5 0c ee 0c e7   ................
|    272: 0c e0 0c d9 0c d2 0c cb 0c c4 0c bd 0c b6 0c af   ................
|    288: 0c a8 0c a1 0c 9a 0c 93 0c 8c 0c 85 0c 7e 0c 77   .............~.w
|    304: 0c 70 0c 69 0c 62 0c 5b 0c 54 0c 4d 0c 46 0c 3f   .p.i.b.[.T.M.F.?
|    320: 0c 38 0c 31 0c 2a 0c 23 0c 1c 0c 15 0c 0e 0c 07   .8.1.*.#........
|    336: 0c 00 0b f9 0b f2 0b eb 0b e4 0b dd 0b d6 0b cf   ................
|    352: 0b c8 0b c1 0b ba 0b b3 0b ac 0b a5 0b 9e 0b 97   ................
|    368: 0b 90 0b 89 0b 82 0b 7b 0b 74 0b 6d 0b 66 0b 5f   .........t.m.f._
|    384: 0b 58 0b 51 0b 4a 0b 43 0b 3c 0b 35 0b 2e 0b 27   .X.Q.J.C.<.5...'
|    400: 0b 20 0b 19 0b 12 0b 0b 00 00 00 00 00 00 00 00   . ..............
|   2816: 00 00 00 00 00 00 00 00 00 00 00 06 03 02 01 00   ................
|   2832: c8 07 06 03 02 01 00 c7 11 06 03 02 01 00 c6 52   ...............R
|   2848: 06 03 02 01 00 c5 1b 06 03 02 01 00 c4 53 06 03   .............S..
|   2864: 02 01 00 c3 22 06 03 02 01 00 c2 26 06 03 02 01   ...........&....
|   2880: 00 c1 1e 06 03 02 01 00 c0 3a 06 03 02 01 00 bf   .........:......
|   2896: 2c 06 03 02 01 00 be 27 06 03 02 01 00 bd 15 06   ,......'........
|   2912: 03 02 01 00 bc 21 06 03 02 01 00 bb 54 06 03 02   .....!......T...
|   2928: 01 00 ba 0a 06 03 02 01 00 b9 54 06 03 02 01 00   ..........T.....
|   2944: b8 32 06 03 02 01 00 b7 1e 06 03 02 01 00 b6 34   .2.............4
|   2960: 06 03 02 01 00 b5 3a 06 03 02 01 00 b4 45 06 03   ......:......E..
|   2976: 02 01 00 b3 5f 06 03 02 01 00 b2 03 06 03 02 01   ...._...........
|   2992: 00 b1 63 06 03 02 01 00 b0 24 06 03 02 01 00 af   ..c......$......
|   3008: 22 06 03 02 01 00 ae 0f 06 03 02 01 00 ad 21 06   ..............!.
|   3024: 03 02 01 00 ac 5b 06 03 02 01 00 ab 24 06 03 02   .....[......$...
|   3040: 01 00 aa 5b 06 03 02 01 00 a9 3e 06 03 02 01 00   ...[......>.....
|   3056: a8 0e 06 03 02 01 00 a7 0c 06 03 02 01 00 a6 0d   ................
|   3072: 06 03 02 01 00 a5 25 06 03 02 01 00 a4 17 06 03   ......%.........
|   3088: 02 01 00 a3 09 06 03 02 01 00 a2 51 06 03 02 01   ...........Q....
|   3104: 00 a1 40 06 03 02 01 00 a0 4b 06 03 02 01 00 9f   ..@......K......
|   3120: 5d 06 03 02 01 00 9e 21 06 03 02 01 00 9d 42 06   ]......!......B.
|   3136: 03 02 01 00 9c 48 06 03 02 01 00 9b 48 06 03 02   .....H......H...
|   3152: 01 00 9a 09 06 03 02 01 00 99 2f 06 03 02 01 00   ........../.....
|   3168: 98 3a 06 03 02 01 00 97 24 06 03 02 01 00 96 5a   .:......$......Z
|   3184: 06 03 02 01 00 95 50 06 03 02 01 00 94 2f 06 03   ......P....../..
|   3200: 02 01 00 93 1a 06 03 02 01 00 92 1a 06 03 02 01   ................
|   3216: 00 91 27 06 03 02 01 00 90 13 06 03 02 01 00 8f   ..'.............
|   3232: 3b 06 03 02 01 00 8e 46 06 03 02 01 00 8d 1d 06   ;......F........
|   3248: 03 02 01 00 8c 4a 06 03 02 01 00 8b 39 06 03 02   .....J......9...
|   3264: 01 00 8a 55 06 03 02 01 00 89 07 06 03 02 01 00   ...U............
|   3280: 88 02 06 03 02 01 00 87 2c 06 03 02 01 00 86 4d   ........,......M
|   3296: 06 03 02 01 00 85 4b 06 03 02 01 00 84 37 06 03   ......K......7..
|   3312: 02 01 00 83 3c 06 03 02 01 00 82 60 06 03 02 01   ....<......`....
|   3328: 00 81 3b 06 03 02 01 00 80 5a 05 03 01 01 7f 22   ..;......Z......
|   3344: 05 03 01 01 7e 31 05 03 01 01 7d 0b 05 03 01 01   ....~1..........
|   3360: 7c 08 05 03 01 01 7b 22 05 03 01 01 7a 58 05 03   |...........zX..
|   3376: 01 01 79 4f 05 03 01 01 78 49 05 03 01 01 77 16   ..yO....xI....w.
|   3392: 05 03 01 01 76 5f 05 03 01 01 75 0f 05 03 01 01   ....v_....u.....
|   3408: 74 1f 05 03 01 01 73 1f 05 03 01 01 72 14 05 03   t.....s.....r...
|   3424: 01 01 71 08 05 03 01 01 70 0c 05 03 01 01 6f 29   ..q.....p.....o)
|   3440: 05 03 01 01 6e 57 05 03 01 01 6d 33 05 03 01 01   ....nW....m3....
|   3456: 6c 0b 05 03 01 01 6b 49 05 03 01 01 6a 05 05 03   l.....kI....j...
|   3472: 01 01 69 23 05 03 01 01 68 41 05 03 01 01 67 4a   ..i#....hA....gJ
|   3488: 05 03 01 01 66 15 04 03 01 09 65 05 03 01 01 64   ....f.....e....d
|   3504: 62 05 03 01 01 63 60 05 03 01 01 62 3a 05 03 01   b....c`....b:...
|   3520: 01 61 0d 05 03 01 01 60 41 05 03 01 01 5f 5f 05   .a.....`A....__.
|   3536: 03 01 01 5e 49 05 03 01 01 5d 3d 05 03 01 01 5c   ...^I....]=.....
|   3552: 09 05 03 01 01 5b 29 05 03 01 01 5a 48 05 03 01   .....[)....ZH...
|   3568: 01 59 54 05 03 01 01 58 50 05 03 01 01 57 25 05   .YT....XP....W%.
|   3584: 03 01 01 56 57 05 03 01 01 55 02 05 03 01 01 54   ...VW....U.....T
|   3600: 3f 05 03 01 01 53 35 05 03 01 01 52 1d 05 03 01   ?....S5....R....
|   3616: 01 51 21 05 03 01 01 50 4e 05 03 01 01 4f 1e 05   .Q!....PN....O..
|   3632: 03 01 01 4e 2a 05 03 01 01 4d 5e 05 03 01 01 4c   ...N*....M^....L
|   3648: 04 05 03 01 01 4b 51 05 03 01 01 4a 4c 05 03 01   .....KQ....JL...
|   3664: 01 49 62 05 03 01 01 48 59 05 03 01 01 47 24 05   .Ib....HY....G$.
|   3680: 03 01 01 46 4b 05 03 01 01 45 10 05 03 01 01 44   ...FK....E.....D
|   3696: 38 05 03 01 01 43 2b 05 03 01 01 42 28 05 03 01   8....C+....B(...
|   3712: 01 41 38 04 03 01 09 40 05 03 01 01 3f 2f 05 03   .A8....@....?/..
|   3728: 01 01 3e 19 05 03 01 01 3d 59 05 03 01 01 3c 1c   ..>.....=Y....<.
|   3744: 05 03 01 01 3b 0f 05 03 01 01 3a 37 05 03 01 01   ....;.....:7....
|   3760: 39 5a 05 03 01 01 38 16 05 03 01 01 37 5b 05 03   9Z....8.....7[..
|   3776: 01 01 36 03 05 03 01 01 35 38 05 03 01 01 34 20   ..6.....58....4 
|   3792: 05 03 01 01 33 0c 05 03 01 01 32 3b 05 03 01 01   ....3.....2;....
|   3808: 31 2b 05 03 01 01 30 55 05 03 01 01 2f 18 05 03   1+....0U..../...
|   3824: 01 01 2e 55 05 03 01 01 2d 5b 05 03 01 01 2c 3d   ...U....-[....,=
|   3840: 05 03 01 01 2b 4a 05 03 01 01 2a 56 05 03 01 01   ....+J....*V....
|   3856: 29 07 05 03 01 01 28 2f 05 03 01 01 27 23 05 03   ).....(/....'#..
|   3872: 01 01 26 41 05 03 01 01 25 5d 05 03 01 01 24 10   ..&A....%]....$.
|   3888: 05 03 01 01 23 10 05 03 01 01 22 17 05 03 01 01   ....#...........
|   3904: 21 4d 05 03 01 01 20 54 05 03 01 01 1f 5d 05 03   !M.... T.....]..
|   3920: 01 01 1e 1d 05 03 01 01 1d 43 05 03 01 01 1c 08   .........C......
|   3936: 05 03 01 01 1b 61 05 03 01 01 1a 36 05 03 01 01   .....a.....6....
|   3952: 19 4e 05 03 01 01 18 2e 05 03 01 01 17 1b 05 03   .N..............
|   3968: 01 01 16 61 05 03 01 01 15 63 05 03 01 01 14 06   ...a.....c......
|   3984: 05 03 01 01 13 2e 05 03 01 01 12 5b 05 03 01 01   ...........[....
|   4000: 11 3e 05 03 01 01 10 27 05 03 01 01 0f 44 05 03   .>.....'.....D..
|   4016: 01 01 0e 26 05 03 01 01 0d 3b 05 03 01 01 0c 60   ...&.....;.....`
|   4032: 05 03 01 01 0b 51 05 03 01 01 0a 59 05 03 01 01   .....Q.....Y....
|   4048: 09 02 05 03 01 01 08 21 05 03 01 01 07 1a 05 03   .......!........
|   4064: 01 01 06 63 05 03 01 01 05 17 05 03 01 01 04 4a   ...c...........J
|   4080: 05 03 01 01 03 29 05 03 01 01 02 4a 03 03 09 08   .....).....J....
| page 4 offset 12288
|      0: 0a 00 00 00 06 0f ce 00 0f f7 0f ee 0f e5 0f de   ................
|     16: 0f d6 0f ce 00 00 00 00 00 00 00 00 00 00 00 00   ................
|   4032: 00 00 00 00 00 00 00 00 00 00 00 00 00 00 07 03   ................
|   4048: 13 01 6f 64 64 05 07 03 13 01 6f 64 64 03 06 03   ..odd.....odd...
|   4064: 13 09 6f 64 64 08 03 15 01 65 76 65 6e 06 08 03   ..odd....even...
|   4080: 15 01 65 76 65 6e 04 08 03 15 01 65 76 65 6e 02   ..even.....even.
| page 5 offset 16384
|      0: 0a 00 00 00 06 0f b2 00 0f f3 0f e5 0f da 0f cd   ................
|     16: 0f bf 0f b2 00 00 00 00 00 00 00 00 00 00 00 00   ................
|   4016: 00 00 0c 04 13 15 01 74 77 6f 65 76 65 6e 02 0d   .......twoeven..
|   4032: 04 17 13 01 74 68 72 65 65 6f 64 64 03 0c 04 13   ....threeodd....
|   4048: 15 01 73 69 78 65 76 65 6e 06 0a 04 13 13 09 6f   ..sixeven......o
|   4064: 6e 65 6f 64 64 0d 04 15 15 01 66 6f 75 72 65 76   neodd.....fourev
|   4080: 65 6e 04 0c 04 15 13 01 66 69 76 65 6f 64 64 05   en......fiveodd.
| page 6 offset 20480
|      0: 0a 00 00 00 c8 0b 0b 00 0f fc 0f f7 0f f2 0f ec   ................
|     16: 0f e6 0f df 0f d9 0f d2 0f cc 0f c6 0f c0 0f ba   ................
|     32: 0f b3 0f ac 0f a6 0f a0 0f 9a 0f 94 0f 8d 0f 86   ................
|     48: 0f 7f 0f 79 0f 73 0f 6d 0f 67 0f 60 0f 5a 0f 53   ...y.s.m.g.`.Z.S
|     64: 0f 4c 0f 46 0f 40 0f 39 0f 33 0f 2d 0f 27 0f 20   .L.F.@.9.3.-.'. 
|     80: 0f 19 0f 13 0f 0d 0f 06 0f 00 0e fa 0e f4 0e ee   ................
|     96: 0e e7 0e e1 0e db 0e d5 0e ce 0e c7 0e c1 0e ba   ................
|    112: 0e b4 0e ae 0e a8 0e a1 0e 9b 0e 94 0e 8d 0e 87   ................
|    128: 0e 81 0e 7b 0e 75 0e 6f 0e 68 0e 61 0e 5a 0e 54   .....u.o.h.a.Z.T
|    144: 0e 4e 0e 47 0e 40 0e 3a 0e 34 0e 2e 0e 27 0e 20   .N.G.@.:.4...'. 
|    160: 0e 19 0e 13 0e 0c 0e 06 0d ff 0d f9 0d f2 0d eb   ................
|    176: 0d e5 0d df 0d d9 0d d3 0d cd 0d c7 0d c1 0d ba   ................
|    192: 0d b3 0d ad 0d a7 0d a1 0d 9b 0d 94 0d 8d 0d 87   ................
|    208: 0d 80 0d 7a 0d 73 0d 6d 0d 67 0d 61 0d 5a 0d 54   ...z.s.m.g.a.Z.T
|    224: 0d 4e 0d 48 0d 41 0d 3b 0d 34 0d 2d 0d 26 0d 20   .N.H.A.;.4.-.&. 
|    240: 0d 1a 0d 13 0d 0c 0d 05 0c ff 0c f9 0c f3 0c ec   ................
|    256: 0c e6 0c df 0c d9 0c d3 0c cd 0c c6 0c c0 0c ba   ................
|    272: 0c b3 0c ac 0c a6 0c 9f 0c 98 0c 92 0c 8c 0c 86   ................
|    288: 0c 80 0c 7a 0c 74 0c 6e 0c 67 0c 61 0c 5a 0c 53   ...z.t.n.g.a.Z.S
|    304: 0c 4d 0c 47 0c 40 0c 3a 0c 34 0c 2e 0c 28 0c 21   .M.G.@.:.4...(.!
|    320: 0c 1b 0c 15 0c 0e 0c 07 0c 00 0b fa 0b f4 0b ed   ................
|    336: 0b e6 0b e0 0b da 0b d3 0b cd 0b c7 0b c1 0b bb   ................
|    352: 0b b5 0b af 0b a9 0b a3 0b 9c 0b 95 0b 8f 0b 89   ................
|    368: 0b 83 0b 7c 0b 75 0b 6f 0b 69 0b 62 0b 5c 0b 56   ...|.u.o.i.b...V
|    384: 0b 50 0b 49 0b 43 0b 3d 0b 36 0b 30 0b 2a 0b 24   .P.I.C.=.6.0.*.$
|    400: 0b 1e 0b 18 0b 12 0b 0b 00 00 00 00 00 00 00 00   ................
|   2816: 00 00 00 00 00 00 00 00 00 00 00 06 03 01 02 63   ...............c
|   2832: 00 b1 05 03 01 01 63 15 05 03 01 01 63 06 05 03   ......c.....c...
|   2848: 01 01 62 64 05 03 01 01 62 49 05 03 01 01 61 1b   ..bd....bI....a.
|   2864: 05 03 01 01 61 16 06 03 01 02 60 00 82 05 03 01   ....a.....`.....
|   2880: 01 60 63 05 03 01 01 60 0c 06 03 01 02 5f 00 b3   .`c....`....._..
|   2896: 05 03 01 01 5f 76 05 03 01 01 5f 5f 05 03 01 01   ...._v....__....
|   2912: 5e 4d 06 03 01 02 5d 00 9f 05 03 01 01 5d 25 05   ^M....]......]%.
|   2928: 03 01 01 5d 1f 06 03 01 02 5b 00 ac 06 03 01 02   ...].....[......
|   2944: 5b 00 aa 05 03 01 01 5b 37 05 03 01 01 5b 2d 05   [......[7....[-.
|   2960: 03 01 01 5b 12 06 03 01 02 5a 00 96 06 03 01 02   ...[.....Z......
|   2976: 5a 00 80 05 03 01 01 5a 39 05 03 01 01 59 48 05   Z......Z9....YH.
|   2992: 03 01 01 59 3d 05 03 01 01 59 0a 05 03 01 01 58   ...Y=....Y.....X
|   3008: 7a 05 03 01 01 57 6e 05 03 01 01 57 56 05 03 01   z....Wn....WV...
|   3024: 01 56 2a 06 03 01 02 55 00 8a 05 03 01 01 55 30   .V*....U......U0
|   3040: 05 03 01 01 55 2e 06 03 01 02 54 00 bb 06 03 01   ....U.....T.....
|   3056: 02 54 00 b9 05 03 01 01 54 59 05 03 01 01 54 20   .T......TY....T 
|   3072: 06 03 01 02 53 00 c4 06 03 01 02 52 00 c6 06 03   ....S......R....
|   3088: 01 02 51 00 a2 05 03 01 01 51 4b 05 03 01 01 51   ..Q......QK....Q
|   3104: 0b 06 03 01 02 50 00 95 05 03 01 01 50 58 05 03   .....P......PX..
|   3120: 01 01 4f 79 05 03 01 01 4e 50 05 03 01 01 4e 19   ..Oy....NP....N.
|   3136: 06 03 01 02 4d 00 86 05 03 01 01 4d 21 05 03 01   ....M......M!...
|   3152: 01 4c 4a 06 03 01 02 4b 00 a0 06 03 01 02 4b 00   .LJ....K......K.
|   3168: 85 05 03 01 01 4b 46 06 03 01 02 4a 00 8c 05 03   .....KF....J....
|   3184: 01 01 4a 67 05 03 01 01 4a 2b 05 03 01 01 4a 04   ..Jg....J+....J.
|   3200: 05 03 01 01 4a 02 05 03 01 01 49 78 05 03 01 01   ....J.....Ix....
|   3216: 49 6b 05 03 01 01 49 5e 06 03 01 02 48 00 9c 06   Ik....I^....H...
|   3232: 03 01 02 48 00 9b 05 03 01 01 48 5a 06 03 01 02   ...H......HZ....
|   3248: 46 00 8e 06 03 01 02 45 00 b4 05 03 01 01 44 0f   F......E......D.
|   3264: 05 03 01 01 43 1d 06 03 01 02 42 00 9d 05 03 01   ....C.....B.....
|   3280: 01 41 68 05 03 01 01 41 60 05 03 01 01 41 26 06   .Ah....A`....A&.
|   3296: 03 01 02 40 00 a1 05 03 01 01 3f 54 06 03 01 02   ...@......?T....
|   3312: 3e 00 a9 05 03 01 01 3e 11 05 03 01 01 3d 5d 05   >......>.....=].
|   3328: 03 01 01 3d 2c 06 03 01 02 3c 00 83 06 03 01 02   ...=,....<......
|   3344: 3b 00 8f 06 03 01 02 3b 00 81 05 03 01 01 3b 32   ;......;......;2
|   3360: 05 03 01 01 3b 0d 06 03 01 02 3a 00 c0 06 03 01   ....;.....:.....
|   3376: 02 3a 00 b5 06 03 01 02 3a 00 98 05 03 01 01 3a   .:......:......:
|   3392: 62 06 03 01 02 39 00 8b 05 03 01 01 38 44 05 03   b....9......8D..
|   3408: 01 01 38 41 05 03 01 01 38 35 06 03 01 02 37 00   ..8A....85....7.
|   3424: 84 05 03 01 01 37 3a 05 03 01 01 36 1a 05 03 01   .....7:....6....
|   3440: 01 35 53 06 03 01 02 34 00 b6 05 03 01 01 33 6d   .5S....4......3m
|   3456: 06 03 01 02 32 00 b8 05 03 01 01 31 7e 06 03 01   ....2......1~...
|   3472: 02 2f 00 99 06 03 01 02 2f 00 94 05 03 01 01 2f   ./....../....../
|   3488: 3f 05 03 01 01 2f 28 05 03 01 01 2e 18 05 03 01   ?..../(.........
|   3504: 01 2e 13 06 03 01 02 2c 00 bf 06 03 01 02 2c 00   .......,......,.
|   3520: 87 05 03 01 01 2b 43 05 03 01 01 2b 31 05 03 01   .....+C....+1...
|   3536: 01 2a 4e 05 03 01 01 29 6f 05 03 01 01 29 5b 05   .*N....)o....)[.
|   3552: 03 01 01 29 03 05 03 01 01 28 42 06 03 01 02 27   ...).....(B....'
|   3568: 00 be 06 03 01 02 27 00 91 05 03 01 01 27 10 06   ......'......'..
|   3584: 03 01 02 26 00 c2 05 03 01 01 26 0e 06 03 01 02   ...&......&.....
|   3600: 25 00 a5 05 03 01 01 25 57 06 03 01 02 24 00 b0   %......%W....$..
|   3616: 06 03 01 02 24 00 ab 06 03 01 02 24 00 97 05 03   ....$......$....
|   3632: 01 01 24 47 05 03 01 01 23 69 05 03 01 01 23 27   ..$G....#i....#'
|   3648: 06 03 01 02 22 00 c3 06 03 01 02 22 00 af 05 03   ................
|   3664: 01 01 22 7f 05 03 01 01 22 7b 06 03 01 02 21 00   ..............!.
|   3680: bc 06 03 01 02 21 00 ad 06 03 01 02 21 00 9e 05   .....!......!...
|   3696: 03 01 01 21 51 05 03 01 01 21 08 05 03 01 01 20   ...!Q....!..... 
|   3712: 34 05 03 01 01 1f 74 05 03 01 01 1f 73 06 03 01   4.....t.....s...
|   3728: 02 1e 00 c1 06 03 01 02 1e 00 b7 05 03 01 01 1e   ................
|   3744: 4f 06 03 01 02 1d 00 8d 05 03 01 01 1d 52 05 03   O............R..
|   3760: 01 01 1d 1e 05 03 01 01 1c 3c 06 03 01 02 1b 00   .........<......
|   3776: c5 05 03 01 01 1b 17 06 03 01 02 1a 00 93 06 03   ................
|   3792: 01 02 1a 00 92 05 03 01 01 1a 07 05 03 01 01 19   ................
|   3808: 3e 05 03 01 01 18 2f 06 03 01 02 17 00 a4 05 03   >...../.........
|   3824: 01 01 17 22 05 03 01 01 17 05 05 03 01 01 16 77   ...............w
|   3840: 05 03 01 01 16 38 06 03 01 02 15 00 bd 05 03 01   .....8..........
|   3856: 01 15 66 05 03 01 01 14 72 06 03 01 02 13 00 90   ..f.....r.......
|   3872: 06 03 01 02 11 00 c7 05 03 01 01 10 45 05 03 01   ............E...
|   3888: 01 10 24 05 03 01 01 10 23 06 03 01 02 0f 00 ae   ..$.....#.......
|   3904: 05 03 01 01 0f 75 05 03 01 01 0f 3b 06 03 01 02   .....u.....;....
|   3920: 0e 00 a8 06 03 01 02 0d 00 a6 05 03 01 01 0d 61   ...............a
|   3936: 06 03 01 02 0c 00 a7 05 03 01 01 0c 70 05 03 01   ............p...
|   3952: 01 0c 33 05 03 01 01 0b 7d 05 03 01 01 0b 6c 06   ..3...........l.
|   3968: 03 01 02 0a 00 ba 06 03 01 02 09 00 a3 06 03 01   ................
|   3984: 02 09 00 9a 05 03 01 01 09 5c 05 03 01 01 08 7c   ...............|
|   4000: 05 03 01 01 08 71 05 03 01 01 08 1c 06 03 01 02   .....q..........
|   4016: 07 00 c8 06 03 01 02 07 00 89 05 03 01 01 07 29   ...............)
|   4032: 05 03 01 01 06 14 05 03 01 01 05 6a 05 03 01 01   ...........j....
|   4048: 04 4c 06 03 01 02 03 00 b2 05 03 01 01 03 36 06   .L............6.
|   4064: 03 01 02 02 00 88 05 03 01 01 02 55 05 03 01 01   ...........U....
|   4080: 02 09 04 03 09 01 65 04 03 09 01 40 03 03 08 09   ......e....@....
| end winfunc006.txt.db
.testctrl prng_seed 1 db
.testctrl internal_functions
SELECT a,min(d)OVER w1,first_value(d)OVER w1,last_value(d)OVER w1,
nth_value(d,2)OVER w1
FROM t1
WINDOW
w1 AS
(PARTITION BY b ORDER BY d
ROWS BETWEEN 2 PRECEDING AND 1 FOLLOWING);

