.open --hexdb
| size 20480 pagesize 4096 filename winfunc015.txt.db
| page 1 offset 0
|      0: 53 51 4c 69 74 65 20 66 6f 72 6d 61 74 20 33 00   SQLite format 3.
|     16: 10 00 01 01 00 40 20 20 00 00 00 00 00 00 00 05   .....@  ........
|     32: 00 00 00 00 00 00 00 00 00 00 00 04 00 00 00 04   ................
|     48: 00 00 00 00 00 00 00 00 00 00 00 01 00 00 00 00   ................
|     96: 00 00 00 00 0d 00 00 00 04 0f 5c 00 0f d8 0f ac   ................
|    112: 0f 80 0f 5c 00 00 00 00 00 00 00 00 00 00 00 00   ................
|   3920: 00 00 00 00 00 00 00 00 00 00 00 00 22 04 06 17   ................
|   3936: 11 11 01 31 74 61 62 6c 65 74 32 74 32 05 43 52   ...1tablet2t2.CR
|   3952: 45 41 54 45 20 54 41 42 4c 45 20 74 32 28 64 29   EATE TABLE t2(d)
|   3968: 2a 03 06 17 13 11 01 3f 69 6e 64 65 78 74 31 62   *......?indext1b
|   3984: 74 31 04 43 52 45 41 54 45 20 49 4e 44 45 58 20   t1.CREATE INDEX 
|   4000: 74 31 62 20 4f 4e 20 74 31 28 62 29 2a 02 06 17   t1b ON t1(b)*...
|   4016: 13 11 01 3f 69 6e 64 65 78 74 31 61 74 31 03 43   ...?indext1at1.C
|   4032: 52 45 41 54 45 20 49 4e 44 45 58 20 74 31 61 20   REATE INDEX t1a 
|   4048: 4f 4e 20 74 31 28 61 29 26 01 06 17 11 11 01 39   ON t1(a)&......9
|   4064: 74 61 62 6c 65 74 31 74 31 02 43 52 45 41 54 45   tablet1t1.CREATE
|   4080: 20 54 41 42 4c 45 20 74 31 28 61 2c 62 2c 63 29    TABLE t1(a,b,c)
| page 2 offset 4096
|      0: 0d 00 00 00 3f 0d d3 00 0f fa 0f f3 0f eb 0f e3   ....?...........
|     16: 0f da 0f d1 0f c8 0f c0 0f b7 0f ae 0f a5 0f 9c   ................
|     32: 0f 93 0f 8a 0f 81 0f 79 0f 70 0f 67 0f 5e 0f 55   .......y.p.g.^.U
|     48: 0f 4c 0f 43 0f 3a 0f 31 0f 28 0f 1f 0f 16 0f 0d   .L.C.:.1.(......
|     64: 0f 04 0e fb 0e f2 0e ea 0e e1 0e d8 0e cf 0e c6   ................
|     80: 0e bd 0e b4 0e ab 0e a2 0e 99 0e 90 0e 87 0e 7e   ...............~
|     96: 0e 75 0e 6c 0e 63 0e 5a 0e 51 0e 48 0e 3f 0e 36   .u.l.c.Z.Q.H.?.6
|    112: 0e 2d 0e 24 0e 1b 0e 12 0e 09 0e 00 0d f7 0d ee   .-.$............
|    128: 0d e5 0d dc 0d d3 00 00 00 00 00 00 00 00 00 00   ................
|   3536: 00 00 00 07 3f 04 01 01 01 05 3f 20 07 3e 04 01   ....?.....? .>..
|   3552: 01 01 05 3e 1f 07 3d 04 01 01 01 05 3d 1e 07 3c   ...>..=.....=..<
|   3568: 04 01 01 01 05 3c 1d 07 3b 04 01 01 01 05 3b 1c   .....<..;.....;.
|   3584: 07 3a 04 01 01 01 05 3a 1b 07 39 04 01 01 01 05   .:.....:..9.....
|   3600: 39 1a 07 38 04 01 01 01 05 38 19 07 37 04 01 01   9..8.....8..7...
|   3616: 01 05 37 18 07 36 04 01 01 01 05 36 17 07 35 04   ..7..6.....6..5.
|   3632: 01 01 01 05 35 16 07 34 04 01 01 01 05 34 15 07   ....5..4.....4..
|   3648: 33 04 01 01 01 05 33 14 07 32 04 01 01 01 05 32   3.....3..2.....2
|   3664: 13 07 31 04 01 01 01 05 31 12 07 30 04 01 01 01   ..1.....1..0....
|   3680: 05 30 11 07 2f 04 01 01 01 05 2f 10 07 2e 04 01   .0../...../.....
|   3696: 01 01 05 2e 0f 07 2d 04 01 01 01 05 2d 0e 07 2c   ......-.....-..,
|   3712: 04 01 01 01 05 2c 0d 07 2b 04 01 01 01 05 2b 0c   .....,..+.....+.
|   3728: 07 2a 04 01 01 01 05 2a 0b 07 29 04 01 01 01 05   .*.....*..).....
|   3744: 29 0a 07 28 04 01 01 01 05 28 09 07 27 04 01 01   )..(.....(..'...
|   3760: 01 05 27 08 07 26 04 01 01 01 05 26 07 07 25 04   ..'..&.....&..%.
|   3776: 01 01 01 05 25 06 07 24 04 01 01 01 05 24 05 07   ....%..$.....$..
|   3792: 23 04 01 01 01 05 23 04 07 22 04 01 01 01 05 22   #.....#.........
|   3808: 03 07 21 04 01 01 01 05 21 02 06 20 04 01 01 09   ..!.....!.. ....
|   3824: 05 20 07 1f 04 01 01 01 04 1f 10 07 1e 04 01 01   . ..............
|   3840: 01 04 1e 0f 07 1d 04 01 01 01 04 1d 0e 07 1c 04   ................
|   3856: 01 01 01 04 1c 0d 07 1b 04 01 01 01 04 1b 0c 07   ................
|   3872: 1a 04 01 01 01 04 1a 0b 07 19 04 01 01 01 04 19   ................
|   3888: 0a 07 18 04 01 01 01 04 18 09 07 17 04 01 01 01   ................
|   3904: 04 17 08 07 16 04 01 01 01 04 16 07 07 15 04 01   ................
|   3920: 01 01 04 15 06 07 14 04 01 01 01 04 14 05 07 13   ................
|   3936: 04 01 01 01 04 13 04 07 12 04 01 01 01 04 12 03   ................
|   3952: 07 11 04 01 01 01 04 11 02 06 10 04 01 01 09 04   ................
|   3968: 10 07 0f 04 01 01 01 03 0f 08 07 0e 04 01 01 01   ................
|   3984: 03 0e 07 07 0d 04 01 01 01 03 0d 06 07 0c 04 01   ................
|   4000: 01 01 03 0c 05 07 0b 04 01 01 01 03 0b 04 07 0a   ................
|   4016: 04 01 01 01 03 0a 03 07 09 04 01 01 01 03 09 02   ................
|   4032: 06 08 04 01 01 09 03 08 07 07 04 01 01 01 02 07   ................
|   4048: 04 07 06 04 01 01 01 02 06 03 07 05 04 01 01 01   ................
|   4064: 02 05 02 06 04 04 01 01 09 02 04 06 03 04 09 01   ................
|   4080: 01 03 02 05 02 04 09 01 09 02 04 01 04 08 09 09   ................
| page 3 offset 8192
|      0: 0a 00 00 00 3f 0e 8a 00 0f fc 0f f7 0f f2 0f ec   ....?...........
|     16: 0f e6 0f e0 0f da 0f d4 0f ce 0f c8 0f c2 0f bc   ................
|     32: 0f b6 0f b0 0f aa 0f a4 0f 9e 0f 98 0f 92 0f 8c   ................
|     48: 0f 86 0f 80 0f 7a 0f 74 0f 6e 0f 68 0f 62 0f 5c   .....z.t.n.h.b..
|     64: 0f 56 0f 50 0f 4a 0f 44 0f 3e 0f 38 0f 32 0f 2c   .V.P.J.D.>.8.2.,
|     80: 0f 26 0f 20 0f 1a 0f 14 0f 0e 0f 08 0f 02 0e fc   .&. ............
|     96: 0e f6 0e f0 0e ea 0e e4 0e de 0e d8 0e d2 0e cc   ................
|    112: 0e c6 0e c0 0e ba 0e b4 0e ae 0e a8 0e a2 0e 9c   ................
|    128: 0e 96 0e 90 0e 8a 00 00 00 00 00 00 00 00 00 00   ................
|   3712: 00 00 00 00 00 00 00 00 00 00 05 03 01 01 05 3f   ...............?
|   3728: 05 03 01 01 05 3e 05 03 01 01 05 3d 05 03 01 01   .....>.....=....
|   3744: 05 3c 05 03 01 01 05 3b 05 03 01 01 05 3a 05 03   .<.....;.....:..
|   3760: 01 01 05 39 05 03 01 01 05 38 05 03 01 01 05 37   ...9.....8.....7
|   3776: 05 03 01 01 05 36 05 03 01 01 05 35 05 03 01 01   .....6.....5....
|   3792: 05 34 05 03 01 01 05 33 05 03 01 01 05 32 05 03   .4.....3.....2..
|   3808: 01 01 05 31 05 03 01 01 05 30 05 03 01 01 05 2f   ...1.....0...../
|   3824: 05 03 01 01 05 2e 05 03 01 01 05 2d 05 03 01 01   ...........-....
|   3840: 05 2c 05 03 01 01 05 2b 05 03 01 01 05 2a 05 03   .,.....+.....*..
|   3856: 01 01 05 29 05 03 01 01 05 28 05 03 01 01 05 27   ...).....(.....'
|   3872: 05 03 01 01 05 26 05 03 01 01 05 25 05 03 01 01   .....&.....%....
|   3888: 05 24 05 03 01 01 05 23 05 03 01 01 05 22 05 03   .$.....#........
|   3904: 01 01 05 21 05 03 01 01 05 20 05 03 01 01 04 1f   ...!..... ......
|   3920: 05 03 01 01 04 1e 05 03 01 01 04 1d 05 03 01 01   ................
|   3936: 04 1c 05 03 01 01 04 1b 05 03 01 01 04 1a 05 03   ................
|   3952: 01 01 04 19 05 03 01 01 04 18 05 03 01 01 04 17   ................
|   3968: 05 03 01 01 04 16 05 03 01 01 04 15 05 03 01 01   ................
|   3984: 04 14 05 03 01 01 04 13 05 03 01 01 04 12 05 03   ................
|   4000: 01 01 04 11 05 03 01 01 04 10 05 03 01 01 03 0f   ................
|   4016: 05 03 01 01 03 0e 05 03 01 01 03 0d 05 03 01 01   ................
|   4032: 03 0c 05 03 01 01 03 0b 05 03 01 01 03 0a 05 03   ................
|   4048: 01 01 03 09 05 03 01 01 03 08 05 03 01 01 02 07   ................
|   4064: 05 03 01 01 02 06 05 03 01 01 02 05 05 03 01 01   ................
|   4080: 02 04 04 03 09 01 03 04 03 09 01 02 03 03 08 09   ................
| page 4 offset 12288
|      0: 0a 00 00 00 3f 0e 88 00 0f fc 0f f6 0f f0 0f ea   ....?...........
|     16: 0f e4 0f de 0f d8 0f d2 0f cc 0f c6 0f c0 0f ba   ................
|     32: 0f b4 0f ae 0f a8 0f a2 0f 9c 0f 96 0f 90 0f 8a   ................
|     48: 0f 84 0f 7e 0f 78 0f 72 0f 6c 0f 66 0f 60 0f 5a   ...~.x.r.l.f.`.Z
|     64: 0f 54 0f 4e 0f 48 0f 42 0f 3c 0f 36 0f 30 0f 2a   .T.N.H.B.<.6.0.*
|     80: 0f 24 0f 1e 0f 18 0f 12 0f 0c 0f 06 0f 00 0e fa   .$..............
|     96: 0e f4 0e ee 0e e8 0e e2 0e dc 0e d6 0e d0 0e ca   ................
|    112: 0e c4 0e be 0e b8 0e b2 0e ac 0e a6 0e a0 0e 9a   ................
|    128: 0e 94 0e 8e 0e 88 00 00 00 00 00 00 00 00 00 00   ................
|   3712: 00 00 00 00 00 00 00 00 05 03 01 01 3f 3f 05 03   ............??..
|   3728: 01 01 3e 3e 05 03 01 01 3d 3d 05 03 01 01 3c 3c   ..>>....==....<<
|   3744: 05 03 01 01 3b 3b 05 03 01 01 3a 3a 05 03 01 01   ....;;....::....
|   3760: 39 39 05 03 01 01 38 38 05 03 01 01 37 37 05 03   99....88....77..
|   3776: 01 01 36 36 05 03 01 01 35 35 05 03 01 01 34 34   ..66....55....44
|   3792: 05 03 01 01 33 33 05 03 01 01 32 32 05 03 01 01   ....33....22....
|   3808: 31 31 05 03 01 01 30 30 05 03 01 01 2f 2f 05 03   11....00....//..
|   3824: 01 01 2e 2e 05 03 01 01 2d 2d 05 03 01 01 2c 2c   ........--....,,
|   3840: 05 03 01 01 2b 2b 05 03 01 01 2a 2a 05 03 01 01   ....++....**....
|   3856: 29 29 05 03 01 01 28 28 05 03 01 01 27 27 05 03   ))....((....''..
|   3872: 01 01 26 26 05 03 01 01 25 25 05 03 01 01 24 24   ..&&....%%....$$
|   3888: 05 03 01 01 23 23 05 03 01 01 22 22 05 03 01 01   ....##..........
|   3904: 21 21 05 03 01 01 20 20 05 03 01 01 1f 1f 05 03   !!....  ........
|   3920: 01 01 1e 1e 05 03 01 01 1d 1d 05 03 01 01 1c 1c   ................
|   3936: 05 03 01 01 1b 1b 05 03 01 01 1a 1a 05 03 01 01   ................
|   3952: 19 19 05 03 01 01 18 18 05 03 01 01 17 17 05 03   ................
|   3968: 01 01 16 16 05 03 01 01 15 15 05 03 01 01 14 14   ................
|   3984: 05 03 01 01 13 13 05 03 01 01 12 12 05 03 01 01   ................
|   4000: 11 11 05 03 01 01 10 10 05 03 01 01 0f 0f 05 03   ................
|   4016: 01 01 0e 0e 05 03 01 01 0d 0d 05 03 01 01 0c 0c   ................
|   4032: 05 03 01 01 0b 0b 05 03 01 01 0a 0a 05 03 01 01   ................
|   4048: 09 09 05 03 01 01 08 08 05 03 01 01 07 07 05 03   ................
|   4064: 01 01 06 06 05 03 01 01 05 05 05 03 01 01 04 04   ................
|   4080: 05 03 01 01 03 03 05 03 01 01 02 02 03 03 09 09   ................
| page 5 offset 16384
|      0: 0d 00 00 00 01 0f fb 00 0f fb 00 00 00 00 00 00   ................
|   4080: 00 00 00 00 00 00 00 00 00 00 00 03 01 02 0f 58   ...............X
| end winfunc015.txt.db
.testctrl prng_seed 1 db
.testctrl internal_functions
SELECT * FROM t2, (SELECT a, b, count(*) OVER (PARTITION BY a) AS cx FROM t1)
 WHERE a=4 AND b+1=cx+1;
SELECT EXISTS(SELECT 1 FROM t1 ORDER BY sum(a) OVER ()) FROM t1;

