.open --hexdb
| size 16384 pagesize 4096 filename winfunc014.txt.db
| page 1 offset 0
|      0: 53 51 4c 69 74 65 20 66 6f 72 6d 61 74 20 33 00   SQLite format 3.
|     16: 10 00 01 01 00 40 20 20 00 00 00 00 00 00 00 04   .....@  ........
|     32: 00 00 00 00 00 00 00 00 00 00 00 02 00 00 00 04   ................
|     48: 00 00 00 00 00 00 00 00 00 00 00 01 00 00 00 00   ................
|     96: 00 00 00 00 0d 0f d4 00 03 0f 81 00 0f dc 0f 81   ................
|    112: 0f af 00 00 00 00 00 00 00 00 00 00 00 00 00 00   ................
|   3968: 00 2c 02 06 17 11 11 01 45 74 61 62 6c 65 74 31   .,......Etablet1
|   3984: 74 31 03 43 52 45 41 54 45 20 54 41 42 4c 45 20   t1.CREATE TABLE 
|   4000: 74 31 28 61 2c 20 62 20 55 4e 49 51 55 45 29 23   t1(a, b UNIQUE)#
|   4016: 03 06 17 37 11 01 00 69 6e 64 65 78 73 71 6c 69   ...7...indexsqli
|   4032: 74 65 5f 61 75 74 6f 69 6e 64 65 78 5f 74 31 5f   te_autoindex_t1_
|   4048: 31 74 31 04 00 00 00 08 00 00 00 00 22 01 06 17   1t1.............
|   4064: 11 11 01 31 74 61 62 6c 65 74 30 74 30 02 43 52   ...1tablet0t0.CR
|   4080: 45 41 54 45 20 54 41 42 4c 45 20 74 30 28 61 29   EATE TABLE t0(a)
| page 2 offset 4096
|      0: 0d 00 00 00 01 0f fc 00 0f fc 00 00 00 00 00 00   ................
|   4080: 00 00 00 00 00 00 00 00 00 00 00 00 02 01 02 09   ................
| page 3 offset 8192
|      0: 0d 00 00 00 01 0f f9 00 0f f9 00 00 00 00 00 00   ................
|   4080: 00 00 00 00 00 00 00 00 00 05 01 03 01 01 02 03   ................
| page 4 offset 12288
|      0: 0a 00 00 00 01 0f fb 00 0f fb 00 00 00 00 00 00   ................
|   4080: 00 00 00 00 00 00 00 00 00 00 00 04 03 01 09 03   ................
| end winfunc014.txt.db
.testctrl prng_seed 1 db
.testctrl internal_functions
SELECT count(*) FROM t0, t1 WHERE (SELECT avg(1) FILTER(WHERE t1.b));
SELECT count(*), avg(1) FILTER(WHERE t1.b) FROM t0, t1;

