.open --hexdb
| size 28672 pagesize 4096 filename with005.txt.db
| page 1 offset 0
|      0: 53 51 4c 69 74 65 20 66 6f 72 6d 61 74 20 33 00   SQLite format 3.
|     16: 10 00 01 01 00 40 20 20 00 00 00 00 00 00 00 07   .....@  ........
|     32: 00 00 00 00 00 00 00 00 00 00 00 06 00 00 00 04   ................
|     48: 00 00 00 00 00 00 00 00 00 00 00 01 00 00 00 00   ................
|     96: 00 00 00 00 0d 00 00 00 06 0e bc 00 0f cd 0f 9a   ................
|    112: 0f 67 0f 34 0e fa 0e bc 00 00 00 00 00 00 00 00   .g.4............
|   3760: 00 00 00 00 00 00 00 00 00 00 00 00 3c 06 06 17   ............<...
|   3776: 19 17 01 57 69 6e 64 65 78 6c 69 6e 6b 42 78 6c   ...WindexlinkBxl
|   3792: 69 6e 6b 42 07 43 52 45 41 54 45 20 49 4e 44 45   inkB.CREATE INDE
|   3808: 58 20 6c 69 6e 6b 42 78 20 4f 4e 20 6c 69 6e 6b   X linkBx ON link
|   3824: 42 28 62 62 31 2c 62 62 32 29 38 05 06 17 19 17   B(bb1,bb2)8.....
|   3840: 01 4f 69 6e 64 65 78 6c 69 6e 6b 41 78 6c 69 6e   .OindexlinkAxlin
|   3856: 6b 41 06 43 52 45 41 54 45 20 49 4e 44 45 58 20   kA.CREATE INDEX 
|   3872: 6c 69 6e 6b 41 78 20 4f 4e 20 6c 69 6e 6b 41 28   linkAx ON linkA(
|   3888: 61 61 31 29 31 04 06 17 17 17 01 43 74 61 62 6c   aa1)1......Ctabl
|   3904: 65 6c 69 6e 6b 44 6c 69 6e 6b 44 05 43 52 45 41   elinkDlinkD.CREA
|   3920: 54 45 20 54 41 42 4c 45 20 6c 69 6e 6b 44 28 64   TE TABLE linkD(d
|   3936: 64 31 2c 64 64 32 29 31 03 06 17 17 17 01 43 74   d1,dd2)1......Ct
|   3952: 61 62 6c 65 6c 69 6e 6b 43 6c 69 6e 6b 43 04 43   ablelinkClinkC.C
|   3968: 52 45 41 54 45 20 54 41 42 4c 45 20 6c 69 6e 6b   REATE TABLE link
|   3984: 43 28 63 63 31 2c 63 63 32 29 31 02 06 17 17 17   C(cc1,cc2)1.....
|   4000: 01 43 74 61 62 6c 65 6c 69 6e 6b 42 6c 69 6e 6b   .CtablelinkBlink
|   4016: 42 03 43 52 45 41 54 45 20 54 41 42 4c 45 20 6c   B.CREATE TABLE l
|   4032: 69 6e 6b 42 28 62 62 31 2c 62 62 32 29 31 01 06   inkB(bb1,bb2)1..
|   4048: 17 17 17 01 43 74 61 62 6c 65 6c 69 6e 6b 41 6c   ....CtablelinkAl
|   4064: 69 6e 6b 41 02 43 52 45 41 54 45 20 54 41 42 4c   inkA.CREATE TABL
|   4080: 45 20 6c 69 6e 6b 41 28 61 61 31 2c 61 61 32 29   E linkA(aa1,aa2)
| page 2 offset 4096
|      0: 0d 00 00 00 03 0f ec 00 0f fa 0f f3 0f ec 00 00   ................
|   4064: 00 00 00 00 00 00 00 00 00 00 00 00 05 03 03 01   ................
|   4080: 01 09 0b 05 02 03 01 01 05 07 04 01 03 09 01 03   ................
| page 3 offset 8192
|      0: 0d 00 00 00 03 0f eb 00 0f f9 0f f2 0f eb 00 00   ................
|   4064: 00 00 00 00 00 00 00 00 00 00 00 05 03 03 01 01   ................
|   4080: 03 05 05 02 03 01 01 0b 0d 05 01 03 01 01 07 09   ................
| page 4 offset 12288
|      0: 0d 00 00 00 03 0f ec 00 0f fa 0f f3 0f ec 00 00   ................
|   4064: 00 00 00 00 00 00 00 00 00 00 00 00 05 03 03 01   ................
|   4080: 01 06 08 05 02 03 01 01 02 04 04 01 03 09 01 02   ................
| page 5 offset 16384
|      0: 0d 00 00 00 02 0f f2 00 0f f9 0f f2 00 00 00 00   ................
|   4080: 00 00 05 02 03 01 01 64 6e 05 01 03 01 01 04 06   .......dn.......
| page 6 offset 20480
|      0: 0a 00 00 00 03 0f f0 00 0f fc 0f f6 0f f0 00 00   ................
|   4080: 05 03 01 01 09 03 05 03 01 01 05 02 03 03 09 09   ................
| page 7 offset 24576
|      0: 0a 00 00 00 03 0f e9 00 0f f8 0f f1 0f e9 00 00   ................
|   4064: 00 00 00 00 00 00 00 00 00 07 04 01 01 01 0b 0d   ................
|   4080: 02 06 04 01 01 09 07 09 07 04 01 01 01 03 05 03   ................
| end with005.txt.db
.testctrl prng_seed 1 db
.testctrl internal_functions
WITH RECURSIVE closure(x) AS (
  SELECT 1 AS x
  UNION ALL
  SELECT aa2 FROM linkA JOIN closure ON x=aa1
  UNION ALL
  SELECT bb2 FROM linkB JOIN closure ON x=bb1
  UNION ALL
  SELECT cc2 FROM linkC JOIN closure ON x=cc1
  UNION ALL
  SELECT dd2 FROM linkD JOIN closure ON x=dd1
  ORDER BY x LIMIT 100
)
SELECT x FROM closure

