.open --hexdb
| size 8192 pagesize 4096 filename with011.txt.db
| page 1 offset 0
|      0: 53 51 4c 69 74 65 20 66 6f 72 6d 61 74 20 33 00   SQLite format 3.
|     16: 10 00 01 01 00 40 20 20 00 00 00 00 00 00 00 02   .....@  ........
|     32: 00 00 00 00 00 00 00 00 00 00 00 02 00 00 00 04   ................
|     48: 00 00 00 00 00 00 00 00 00 00 00 01 00 00 00 00   ................
|     96: 00 00 00 00 0d 00 00 00 02 0f 9d 00 0f d1 0f 9d   ................
|   3984: 00 00 00 00 00 00 00 00 00 00 00 00 00 32 02 06   .............2..
|   4000: 15 11 11 08 55 76 69 65 77 74 32 74 32 43 52 45   ....Uviewt2t2CRE
|   4016: 41 54 45 20 56 49 45 57 20 74 32 20 41 53 20 53   ATE VIEW t2 AS S
|   4032: 45 4c 45 43 54 20 61 2c 62 20 46 52 4f 4d 20 74   ELECT a,b FROM t
|   4048: 31 2d 01 06 17 11 11 01 47 74 61 62 6c 65 74 31   1-......Gtablet1
|   4064: 74 31 02 43 52 45 41 54 45 20 54 41 42 4c 45 20   t1.CREATE TABLE 
|   4080: 74 31 28 61 20 49 4e 54 2c 20 62 20 49 4e 54 29   t1(a INT, b INT)
| page 2 offset 4096
|      0: 0d 00 00 00 01 0f fa 00 0f fa 00 00 00 00 00 00   ................
|   4080: 00 00 00 00 00 00 00 00 00 00 04 01 03 09 01 02   ................
| end with011.txt.db
.testctrl prng_seed 1 db
.testctrl internal_functions
WITH t1(a,b) AS (VALUES(3,4)) SELECT a,b FROM t2;
CREATE TABLE t3 AS WITH t1(a,b) AS (VALUES(3,4)) SELECT a,b FROM t2;
SELECT * FROM t3;

