.open --hexdb
| size 8192 pagesize 4096 filename with002.txt.db
| page 1 offset 0
|      0: 53 51 4c 69 74 65 20 66 6f 72 6d 61 74 20 33 00   SQLite format 3.
|     16: 10 00 01 01 00 40 20 20 00 00 00 00 00 00 00 02   .....@  ........
|     32: 00 00 00 00 00 00 00 00 00 00 00 02 00 00 00 04   ................
|     48: 00 00 00 00 00 00 00 00 00 00 00 01 00 00 00 00   ................
|     96: 00 00 00 00 0d 00 00 00 02 0f 56 00 0f b7 0f 56   ..........V....V
|   3920: 00 00 00 00 00 00 5f 02 07 15 11 11 08 81 2d 76   ......_.......-v
|   3936: 69 65 77 74 32 74 32 43 52 45 41 54 45 20 56 49   iewt2t2CREATE VI
|   3952: 45 57 20 74 32 20 41 53 0a 57 49 54 48 20 74 34   EW t2 AS.WITH t4
|   3968: 28 4e 61 6d 65 29 20 41 53 20 28 56 41 4c 55 45   (Name) AS (VALUE
|   3984: 53 20 28 27 41 27 29 2c 28 27 42 27 29 29 0a 53   S ('A'),('B')).S
|   4000: 45 4c 45 43 54 20 4e 61 6d 65 20 4e 61 6d 65 20   ELECT Name Name 
|   4016: 46 52 4f 4d 20 74 34 47 01 06 17 11 11 01 7b 74   FROM t4G.......t
|   4032: 61 62 6c 65 74 31 74 31 02 43 52 45 41 54 45 20   ablet1t1.CREATE 
|   4048: 54 41 42 4c 45 20 74 31 28 69 64 20 49 4e 54 45   TABLE t1(id INTE
|   4064: 47 45 52 20 4e 55 4c 4c 20 50 52 49 4d 41 52 59   GER NULL PRIMARY
|   4080: 20 4b 45 59 2c 20 6e 61 6d 65 20 54 65 78 74 29    KEY, name Text)
| page 2 offset 4096
|      0: 0d 00 00 00 05 0f ce 00 0f f7 0f ed 0f e2 0f d8   ................
|     16: 0f ce 00 00 00 00 00 00 00 00 00 00 00 00 00 00   ................
|   4032: 00 00 00 00 00 00 00 00 00 00 00 00 00 00 08 05   ................
|   4048: 03 00 17 73 6d 69 74 68 08 04 03 00 17 68 69 6d   ...smith.....him
|   4064: 65 72 09 03 03 00 19 6a 69 6e 67 6c 65 08 02 03   er.....jingle...
|   4080: 00 17 6a 61 6d 65 73 07 01 03 00 15 6a 6f 68 6e   ..james.....john
| end with002.txt.db
.testctrl prng_seed 1 db
.testctrl internal_functions
CREATE VIEW t3 AS
WITH t4(Att, Val, Act) AS (VALUES
('C', 'D', 'E'),
('F', 'G', 'H'))
SELECT D.Id Id, P.Name Protocol, T.Att Att, T.Val Val, T.Act Act
FROM t1 D CROSS JOIN t2 P CROSS JOIN t4 T;
SELECT * FROM t3;

