.open --hexdb
| size 12288 pagesize 4096 filename yongheng014.txt.db
| page 1 offset 0
|      0: 53 51 4c 69 74 65 20 66 6f 72 6d 61 74 20 33 00   SQLite format 3.
|     16: 10 00 01 01 00 40 20 20 00 00 00 00 00 00 00 03   .....@  ........
|     32: 00 00 00 00 00 00 00 00 00 00 00 01 00 00 00 04   ................
|     48: 00 00 00 00 00 00 00 00 00 00 00 01 00 00 00 00   ................
|     96: 00 00 00 00 0d 0f f8 00 02 0f 7f 00 0f 7f 0f d3   ................
|   3952: 00 00 00 00 00 00 00 00 00 00 00 00 00 00 00 52   ...............R
|   3968: 01 07 17 11 11 01 81 0f 74 61 62 6c 65 74 31 74   ........tablet1t
|   3984: 31 02 43 52 45 41 54 45 20 54 41 42 4c 45 20 74   1.CREATE TABLE t
|   4000: 31 20 28 0a 20 20 61 20 49 4e 54 45 47 45 52 20   1 (.  a INTEGER 
|   4016: 50 52 49 4d 41 52 59 20 4b 45 59 2c 0a 20 20 62   PRIMARY KEY,.  b
|   4032: 20 41 53 28 27 78 79 7a 27 29 20 55 4e 49 51 55    AS('xyz') UNIQU
|   4048: 45 0a 29 23 02 06 17 37 11 01 00 69 6e 64 65 78   E.)#...7...index
|   4064: 73 71 6c 69 74 65 5f 61 75 74 6f 69 6e 64 65 78   sqlite_autoindex
|   4080: 5f 74 31 5f 31 74 31 03 00 00 00 08 00 00 00 00   _t1_1t1.........
| page 2 offset 4096
|      0: 0d 00 00 00 01 0f fc 00 0f fc 00 00 00 00 00 00   ................
|   4080: 00 00 00 00 00 00 00 00 00 00 00 00 02 0a 02 00   ................
| page 3 offset 8192
|      0: 0a 00 00 00 01 0f f8 00 0f f8 00 00 00 00 00 00   ................
|   4080: 00 00 00 00 00 00 00 00 07 03 13 01 78 79 7a 0a   ............xyz.
| end yongheng014.txt.db
.testctrl prng_seed 1 db
.testctrl internal_functions
SELECT * FROM t1 JOIN t1 USING(a,b) WHERE 0 OR a=10;
SELECT * FROM t1 JOIN t1 USING(a,b) WHERE ((SELECT t1.a FROM t1 AS x GROUP BY b) AND b=0) OR a=10;

