.open --hexdb
| size 32768 pagesize 4096 filename yongheng019.txt.db
| page 1 offset 0
|      0: 53 51 4c 69 74 65 20 66 6f 72 6d 61 74 20 33 00   SQLite format 3.
|     16: 10 00 01 01 00 40 20 20 00 00 00 00 00 00 00 08   .....@  ........
|     32: 00 00 00 00 00 00 00 00 00 00 00 08 00 00 00 04   ................
|     48: 00 00 00 00 00 00 00 00 00 00 00 01 00 00 00 00   ................
|     96: 00 00 00 00 0d 00 00 00 08 0e 08 00 0f c3 0f 6c   ...............l
|    112: 0f 19 0e b9 0e 86 0e 5e 0e 38 0e 08 00 00 00 00   .......^.8......
|   3584: 00 00 00 00 00 00 00 00 2e 08 06 17 15 11 01 45   ...............E
|   3600: 69 6e 64 65 78 74 33 62 63 74 33 08 43 52 45 41   indext3bct3.CREA
|   3616: 54 45 20 49 4e 44 45 58 20 74 33 62 63 20 4f 4e   TE INDEX t3bc ON
|   3632: 20 74 33 28 63 2c 62 29 24 07 06 17 11 11 01 35    t3(c,b)$......5
|   3648: 74 61 62 6c 65 74 34 74 34 07 43 52 45 41 54 45   tablet4t4.CREATE
|   3664: 20 54 41 42 4c 45 20 74 34 28 64 2c 65 29 26 06    TABLE t4(d,e)&.
|   3680: 06 17 11 11 01 39 74 61 62 6c 65 74 33 74 33 06   .....9tablet3t3.
|   3696: 43 52 45 41 54 45 20 54 41 42 4c 45 20 74 33 28   CREATE TABLE t3(
|   3712: 61 2c 62 2c 63 29 31 05 06 17 11 11 01 4f 74 61   a,b,c)1......Ota
|   3728: 62 6c 65 74 32 74 32 05 43 52 45 41 54 45 20 54   blet2t2.CREATE T
|   3744: 41 42 4c 45 20 74 32 28 64 20 49 4e 54 45 47 45   ABLE t2(d INTEGE
|   3760: 52 2c 20 65 20 49 4e 54 29 5e 04 07 17 1f 1f 01   R, e INT)^......
|   3776: 81 0b 74 61 62 6c 65 74 31 5f 70 61 72 65 6e 74   ..tablet1_parent
|   3792: 74 31 5f 70 61 72 65 6e 74 04 43 52 45 41 54 45   t1_parent.CREATE
|   3808: 20 54 41 42 4c 45 20 22 74 31 5f 70 61 72 65 6e    TABLE .t1_paren
|   3824: 74 22 28 6e 6f 64 65 6e 6f 20 49 4e 54 45 47 45   t.(nodeno INTEGE
|   3840: 52 20 50 52 49 4d 41 52 59 20 4b 45 59 2c 70 61   R PRIMARY KEY,pa
|   3856: 72 65 6e 74 6e 6f 64 65 29 51 03 06 17 1b 1b 01   rentnode)Q......
|   3872: 7b 74 61 62 6c 65 74 31 5f 6e 6f 64 65 74 31 5f   .tablet1_nodet1_
|   3888: 6e 6f 64 65 03 43 52 45 41 54 45 20 54 41 42 4c   node.CREATE TABL
|   3904: 45 20 22 74 31 5f 6e 6f 64 65 22 28 6e 6f 64 65   E .t1_node.(node
|   3920: 6e 6f 20 49 4e 54 45 47 45 52 20 50 52 49 4d 41   no INTEGER PRIMA
|   3936: 52 59 20 4b 45 59 2c 64 61 74 61 29 55 02 06 17   RY KEY,data)U...
|   3952: 1d 1d 01 7f 74 61 62 6c 65 74 31 5f 72 6f 77 69   ....tablet1_rowi
|   3968: 64 74 31 5f 72 6f 77 69 64 02 43 52 45 41 54 45   dt1_rowid.CREATE
|   3984: 20 54 41 42 4c 45 20 22 74 31 5f 72 6f 77 69 64    TABLE .t1_rowid
|   4000: 22 28 72 6f 77 69 64 20 49 4e 54 45 47 45 52 20   .(rowid INTEGER 
|   4016: 50 52 49 4d 41 52 59 20 4b 45 59 2c 6e 6f 64 65   PRIMARY KEY,node
|   4032: 6e 6f 29 3b 01 06 17 11 11 08 65 74 61 62 6c 65   no);......etable
|   4048: 74 31 74 31 43 52 45 41 54 45 20 56 49 52 54 55   t1t1CREATE VIRTU
|   4064: 41 4c 20 54 41 42 4c 45 20 74 31 20 55 53 49 4e   AL TABLE t1 USIN
|   4080: 47 20 72 74 72 65 65 28 61 2c 20 62 2c 20 63 29   G rtree(a, b, c)
| page 2 offset 4096
|      0: 0d 00 00 00 00 10 00 00 00 00 00 00 00 00 00 00   ................
| page 3 offset 8192
|      0: 0d 00 00 00 01 0c c5 00 0c c5 00 00 00 00 00 00   ................
|   3264: 00 00 00 00 00 86 38 01 04 00 8c 74 00 00 00 00   ......8....t....
| page 4 offset 12288
|      0: 0d 00 00 00 00 10 00 00 00 00 00 00 00 00 00 00   ................
| page 5 offset 16384
|      0: 0d 00 00 00 01 0f fb 00 0f fb 00 00 00 00 00 00   ................
|   4080: 00 00 00 00 00 00 00 00 00 00 00 03 01 03 00 09   ................
| page 6 offset 20480
|      0: 0d 00 00 00 01 0f fa 00 0f fa 00 00 00 00 00 00   ................
|   4080: 00 00 00 00 00 00 00 00 00 00 04 01 04 00 00 00   ................
| page 7 offset 24576
|      0: 0d 00 00 00 01 0f fb 00 0f fb 00 00 00 00 00 00   ................
|   4080: 00 00 00 00 00 00 00 00 00 00 00 03 01 03 00 09   ................
| page 8 offset 28672
|      0: 0a 00 00 00 01 0f fb 00 0f fb 00 00 00 00 00 00   ................
|   4080: 00 00 00 00 00 00 00 00 00 00 00 04 04 00 00 09   ................
| end yongheng019.txt.db
.testctrl prng_seed 1 db
.testctrl internal_functions
SELECT * FROM t2 LEFT JOIN t1 ON c IN (SELECT d) AND b IN (10,10,10);
SELECT * FROM t4 LEFT JOIN t3 ON c = d AND b IN (10,10,10);

