.open --hexdb
| size 12288 pagesize 4096 filename yongheng007.txt.db
| page 1 offset 0
|      0: 53 51 4c 69 74 65 20 66 6f 72 6d 61 74 20 33 00   SQLite format 3.
|     16: 10 00 01 01 00 40 20 20 00 00 00 00 00 00 00 03   .....@  ........
|     32: 00 00 00 00 00 00 00 00 00 00 00 02 00 00 00 04   ................
|     48: 00 00 00 00 00 00 00 00 00 00 00 01 00 00 00 00   ................
|     96: 00 00 00 00 0d 00 00 00 02 0f 95 00 0f c6 0f 95   ................
|   3984: 00 00 00 00 00 2f 02 06 17 15 11 01 47 69 6e 64   ...../......Gind
|   4000: 65 78 74 31 78 31 74 31 03 43 52 45 41 54 45 20   ext1x1t1.CREATE 
|   4016: 49 4e 44 45 58 20 74 31 78 31 20 4f 4e 20 74 31   INDEX t1x1 ON t1
|   4032: 28 61 2b 32 35 29 38 01 06 17 11 11 01 5d 74 61   (a+25)8......]ta
|   4048: 62 6c 65 74 31 74 31 02 43 52 45 41 54 45 20 54   blet1t1.CREATE T
|   4064: 41 42 4c 45 20 74 31 28 61 20 49 4e 54 45 47 45   ABLE t1(a INTEGE
|   4080: 52 20 50 52 49 4d 41 52 59 20 4b 45 59 2c 62 29   R PRIMARY KEY,b)
| page 2 offset 4096
|      0: 0d 00 00 00 1e 0f 25 00 0f fb 0f f4 0f ed 0f e6   ......%.........
|     16: 0f df 0f d8 0f d1 0f ca 0f c3 0f bc 0f b5 0f ae   ................
|     32: 0f a7 0f a0 0f 99 0f 92 0f 8b 0f 84 0f 7d 0f 75   ...............u
|     48: 0f 6d 0f 65 0f 5d 0f 55 0f 4d 0f 45 0f 3d 0f 35   .m.e.].U.M.E.=.5
|     64: 0f 2d 0f 25 00 00 00 00 00 00 00 00 00 00 00 00   .-.%............
|   3872: 00 00 00 00 00 05 81 4b 03 00 02 0d 62 05 81 44   .......K....b..D
|   3888: 03 00 02 08 be 05 81 3d 03 00 02 04 1a 05 81 36   .......=.......6
|   3904: 03 00 02 13 a9 05 81 2f 03 00 02 0f 05 05 81 28   ......./.......(
|   3920: 03 00 02 0a 61 05 81 21 03 00 02 05 bd 05 81 1a   ....a..!........
|   3936: 03 00 02 01 19 05 81 13 03 00 02 10 a8 05 81 0c   ................
|   3952: 03 00 02 0c 04 05 81 05 03 00 02 07 60 05 7e 03   ............`.~.
|   3968: 00 02 02 bc 05 77 03 00 02 12 4b 05 70 03 00 02   .....w....K.p...
|   3984: 0d a7 05 69 03 00 02 09 03 05 62 03 00 02 04 5f   ...i......b...._
|   4000: 05 5b 03 00 02 13 ee 05 54 03 00 02 0f 4a 05 4d   .[......T....J.M
|   4016: 03 00 02 0a a6 05 46 03 00 02 06 02 05 3f 03 00   ......F......?..
|   4032: 02 01 5e 05 38 03 00 02 10 ed 05 31 03 00 02 0c   ..^.8......1....
|   4048: 49 05 2a 03 00 02 07 a5 05 23 03 00 02 03 01 05   I.*......#......
|   4064: 1c 03 00 02 12 90 05 15 03 00 02 0d ec 05 0e 03   ................
|   4080: 00 02 09 48 05 07 03 00 02 04 a4 03 00 03 00 08   ...H............
| page 3 offset 8192
|      0: 0a 00 00 00 1e 0f 33 00 0f fb 0f f5 0f ef 0f e9   ......3.........
|     16: 0f e3 0f dd 0f d7 0f d1 0f cb 0f c5 0f bf 0f b9   ................
|     32: 0f b3 0f ad 0f a7 0f a0 0f 99 0f 92 0f 8b 0f 83   ................
|     48: 0f 7b 0f 73 0f 6b 0f 63 0f 5b 0f 53 0f 4b 0f 43   ...s.k.c.[.S.K.C
|     64: 0f 3b 0f 33 00 00 00 00 00 00 00 00 00 00 00 00   .;.3............
|   3888: 00 00 00 07 03 02 02 00 e4 00 cb 07 03 02 02 00   ................
|   3904: dd 00 c4 07 03 02 02 00 d6 00 bd 07 03 02 02 00   ................
|   3920: cf 00 b6 07 03 02 02 00 c8 00 af 07 03 02 02 00   ................
|   3936: c1 00 a8 07 03 02 02 00 ba 00 a1 07 03 02 02 00   ................
|   3952: b3 00 9a 07 03 02 02 00 ac 00 93 07 03 02 02 00   ................
|   3968: a5 00 8c 07 03 02 02 00 9e 00 85 06 03 02 01 00   ................
|   3984: 97 7e 06 03 02 01 00 90 77 06 03 02 01 00 89 70   .~......w......p
|   4000: 06 03 02 01 00 82 69 05 03 01 01 7b 62 05 03 01   ......i.....b...
|   4016: 01 74 5b 05 03 01 01 6d 54 05 03 01 01 66 4d 05   .t[....mT....fM.
|   4032: 03 01 01 5f 46 05 03 01 01 58 3f 05 03 01 01 51   ..._F....X?....Q
|   4048: 38 05 03 01 01 4a 31 05 03 01 01 43 2a 05 03 01   8....J1....C*...
|   4064: 01 3c 23 05 03 01 01 35 1c 05 03 01 01 2e 15 05   .<#....5........
|   4080: 03 01 01 27 0e 05 03 01 01 20 07 04 03 01 08 19   ...'..... ......
| end yongheng007.txt.db
.testctrl prng_seed 1 db
.testctrl internal_functions
UPDATE t1 SET b=1 WHERE a+25=102;
SELECT * FROM t1;

