.open --hexdb
| size 8192 pagesize 4096 filename yongheng022.txt.db
| page 1 offset 0
|      0: 53 51 4c 69 74 65 20 66 6f 72 6d 61 74 20 33 00   SQLite format 3.
|     16: 10 00 01 01 00 40 20 20 00 00 00 00 00 00 00 02   .....@  ........
|     32: 00 00 00 00 00 00 00 00 00 00 00 02 00 00 00 04   ................
|     48: 00 00 00 00 00 00 00 00 00 00 00 01 00 00 00 00   ................
|     96: 00 00 00 00 0d 00 00 00 02 0f 61 00 0f 89 0f 61   ..........a....a
|   3936: 00 26 02 06 17 11 11 01 39 74 61 62 6c 65 74 33   .&......9tablet3
|   3952: 74 33 02 43 52 45 41 54 45 20 54 41 42 4c 45 20   t3.CREATE TABLE 
|   3968: 74 33 28 63 2c 64 2c 65 29 75 01 07 15 11 11 08   t3(c,d,e)u......
|   3984: 81 59 76 69 65 77 74 31 74 31 43 52 45 41 54 45   .Yviewt1t1CREATE
|   4000: 20 56 49 45 57 20 74 31 28 61 29 20 41 53 0a 20    VIEW t1(a) AS. 
|   4016: 20 20 57 49 54 48 20 74 32 28 62 29 20 41 53 20     WITH t2(b) AS 
|   4032: 28 53 45 4c 45 43 54 20 32 33 34 29 0a 20 20 20   (SELECT 234).   
|   4048: 53 45 4c 45 43 54 20 28 53 45 4c 45 43 54 20 6d   SELECT (SELECT m
|   4064: 69 6e 28 62 29 20 4f 56 45 52 28 29 29 20 46 52   in(b) OVER()) FR
|   4080: 4f 4d 20 74 32 20 47 52 4f 55 50 20 42 59 20 62   OM t2 GROUP BY b
| page 2 offset 4096
|      0: 0d 00 00 00 01 0f f7 00 0f f7 00 00 00 00 00 00   ................
|   4080: 00 00 00 00 00 00 00 07 01 04 09 13 00 61 62 63   .............abc
| end yongheng022.txt.db
.testctrl prng_seed 1 db
.testctrl internal_functions
SELECT * FROM t1 AS z1 JOIN t1 AS z2 USING(a)
 WHERE abs(z1.a)=z2.a AND z1.a=234;
SELECT * FROM t1 AS z1 JOIN t1 AS z2 USING(a)
 WHERE +(z1.a)=z2.a AND z1.a=234;

