.open --hexdb
| size 16384 pagesize 4096 filename yongheng006.txt.db
| page 1 offset 0
|      0: 53 51 4c 69 74 65 20 66 6f 72 6d 61 74 20 33 00   SQLite format 3.
|     16: 10 00 01 01 00 40 20 20 00 00 00 00 00 00 00 04   .....@  ........
|     32: 00 00 00 00 00 00 00 00 00 00 00 02 00 00 00 04   ................
|     48: 00 00 00 00 00 00 00 00 00 00 00 01 00 00 00 00   ................
|     96: 00 00 00 00 0d 0f d0 00 03 0f 65 00 0f d8 0f 65   ..........e....e
|    112: 0f ab 00 00 00 00 00 00 00 00 00 00 00 00 00 00   ................
|   3936: 00 00 00 00 00 44 02 06 17 11 11 01 75 74 61 62   .....D......utab
|   3952: 6c 65 74 31 74 31 03 43 52 45 41 54 45 20 54 41   let1t1.CREATE TA
|   3968: 42 4c 45 20 74 31 28 61 20 54 45 58 54 2c 62 20   BLE t1(a TEXT,b 
|   3984: 49 4e 54 45 47 45 52 20 50 52 49 4d 41 52 59 20   INTEGER PRIMARY 
|   4000: 4b 45 59 20 55 4e 49 51 55 45 29 23 03 06 17 37   KEY UNIQUE)#...7
|   4016: 11 01 00 69 6e 64 65 78 73 71 6c 69 74 65 5f 61   ...indexsqlite_a
|   4032: 75 74 6f 69 6e 64 65 78 5f 74 31 5f 31 74 31 04   utoindex_t1_1t1.
|   4048: 00 00 00 08 00 00 00 00 26 01 06 17 11 11 01 39   ........&......9
|   4064: 74 61 62 6c 65 74 32 74 32 02 43 52 45 41 54 45   tablet2t2.CREATE
|   4080: 20 54 41 42 4c 45 20 74 32 28 61 2c 62 2c 63 29    TABLE t2(a,b,c)
| page 2 offset 4096
|      0: 0d 00 00 00 00 10 00 00 00 00 00 00 00 00 00 00   ................
| page 3 offset 8192
|      0: 0d 00 00 00 01 0f fa 00 0f fa 00 00 00 00 00 00   ................
|   4080: 00 00 00 00 00 00 00 00 00 00 04 02 03 0f 00 31   ...............1
| page 4 offset 12288
|      0: 0a 00 00 00 01 0f fa 00 0f fa 00 00 00 00 00 00   ................
|   4080: 00 00 00 00 00 00 00 00 00 00 05 03 01 01 02 02   ................
| end yongheng006.txt.db
.testctrl prng_seed 1 db
.testctrl internal_functions
UPDATE t1 SET a = quote(b) WHERE b>=2;

