.open --hexdb
| size 16384 pagesize 4096 filename yongheng021.txt.db
| page 1 offset 0
|      0: 53 51 4c 69 74 65 20 66 6f 72 6d 61 74 20 33 00   SQLite format 3.
|     16: 10 00 01 01 00 40 20 20 00 00 00 00 00 00 00 04   .....@  ........
|     32: 00 00 00 00 00 00 00 00 00 00 00 03 00 00 00 04   ................
|     48: 00 00 00 00 00 00 00 00 00 00 00 01 00 00 00 00   ................
|     96: 00 00 00 00 0d 00 00 00 03 0f 84 00 0f dc 0f b5   ................
|    112: 0f 84 00 00 00 00 00 00 00 00 00 00 00 00 00 00   ................
|   3968: 00 00 00 00 2f 03 06 17 15 11 01 47 69 6e 64 65   ..../......Ginde
|   3984: 78 74 32 64 63 74 32 04 43 52 45 41 54 45 20 49   xt2dct2.CREATE I
|   4000: 4e 44 45 58 20 74 32 64 63 20 4f 4e 20 74 32 28   NDEX t2dc ON t2(
|   4016: 64 2c 20 63 29 25 02 06 17 11 11 01 37 74 61 62   d, c)%......7tab
|   4032: 6c 65 74 32 74 32 03 43 52 45 41 54 45 20 54 41   let2t2.CREATE TA
|   4048: 42 4c 45 20 74 32 28 63 2c 20 64 29 22 01 06 17   BLE t2(c, d)....
|   4064: 11 11 01 31 74 61 62 6c 65 74 31 74 31 02 43 52   ...1tablet1t1.CR
|   4080: 45 41 54 45 20 54 41 42 4c 45 20 74 31 28 78 29   EATE TABLE t1(x)
| page 2 offset 4096
|      0: 0d 00 00 00 03 0f f2 00 0f fb 0f f7 0f f2 00 00   ................
|   4080: 00 00 03 03 02 0f 59 02 02 02 00 03 01 02 0f 58   ......Y........X
| page 3 offset 8192
|      0: 0d 00 00 00 05 0f de 00 0f f9 0f f3 0f ec 0f e5   ................
|     16: 0f de 00 00 00 00 00 00 00 00 00 00 00 00 00 00   ................
|   4048: 00 00 00 00 00 00 00 00 00 00 00 00 00 00 05 05   ................
|   4064: 03 01 0f 04 58 05 04 03 01 0f 03 58 05 03 03 01   ....X......X....
|   4080: 0f 07 58 04 02 03 00 0f 58 05 01 03 01 0f 05 58   ..X.....X......X
| page 4 offset 12288
|      0: 0a 00 00 00 05 0f da 00 0f f2 0f e2 0f da 0f f9   ................
|     16: 0f ea 00 00 00 00 00 00 00 00 00 00 00 00 00 00   ................
|   4048: 00 00 00 00 00 00 00 00 00 00 07 04 0f 01 01 58   ...............X
|   4064: 04 05 07 04 0f 01 01 58 03 04 07 04 0f 01 01 58   .......X.......X
|   4080: 07 03 06 04 0f 00 01 58 02 06 04 0f 01 09 58 05   .......X......X.
| end yongheng021.txt.db
.testctrl prng_seed 1 db
.testctrl internal_functions
SELECT c FROM t1 LEFT JOIN t2 ON d=NULL ORDER BY d NULLS LAST, c NULLS LAST;
SELECT c FROM t1 LEFT JOIN t2 ON d=x ORDER BY d NULLS LAST, c NULLS LAST;

