.open --hexdb
| size 8192 pagesize 4096 filename yongheng005.txt.db
| page 1 offset 0
|      0: 53 51 4c 69 74 65 20 66 6f 72 6d 61 74 20 33 00   SQLite format 3.
|     16: 10 00 01 01 00 40 20 20 00 00 00 00 00 00 00 02   .....@  ........
|     32: 00 00 00 00 00 00 00 00 00 00 00 02 00 00 00 04   ................
|     48: 00 00 00 00 00 00 00 00 00 00 00 01 00 00 00 00   ................
|     96: 00 00 00 00 0d 00 00 00 02 0f 76 00 0f d8 0f 76   ..........v....v
|   3952: 00 00 00 00 00 00 60 02 07 15 11 11 08 81 2f 76   ......`......./v
|   3968: 69 65 77 74 31 74 31 43 52 45 41 54 45 20 56 49   iewt1t1CREATE VI
|   3984: 45 57 20 74 31 28 61 2c 62 29 20 41 53 20 57 49   EW t1(a,b) AS WI
|   4000: 54 48 20 61 61 61 20 41 53 20 28 53 45 4c 45 43   TH aaa AS (SELEC
|   4016: 54 20 2a 20 46 52 4f 4d 20 74 31 29 20 53 45 4c   T * FROM t1) SEL
|   4032: 45 43 54 20 62 20 46 52 4f 4d 20 74 31 20 4f 52   ECT b FROM t1 OR
|   4048: 44 45 52 20 42 59 20 31 26 01 06 17 11 11 01 39   DER BY 1&......9
|   4064: 74 61 62 6c 65 74 32 74 32 02 43 52 45 41 54 45   tablet2t2.CREATE
|   4080: 20 54 41 42 4c 45 20 74 32 28 61 2c 62 2c 63 29    TABLE t2(a,b,c)
| page 2 offset 4096
|      0: 0d 00 00 00 00 10 00 00 00 00 00 00 00 00 00 00   ................
| end yongheng005.txt.db
.testctrl prng_seed 1 db
.testctrl internal_functions
DROP TABLE IF EXISTS t1;CREATE VIEW t1(a,b) AS WITH aaa AS (SELECT * FROM t1) SELECT b FROM t1 ORDER BY 1;
WITH aaa AS (SELECT * FROM t1)SELECT a, rank()OVER(ORDER BY a DESC) FROM t1;

