.open --hexdb
| size 16384 pagesize 4096 filename yongheng004.txt.db
| page 1 offset 0
|      0: 53 51 4c 69 74 65 20 66 6f 72 6d 61 74 20 33 00   SQLite format 3.
|     16: 10 00 01 01 00 40 20 20 00 00 00 00 00 00 00 04   .....@  ........
|     32: 00 00 00 00 00 00 00 00 00 00 00 03 00 00 00 04   ................
|     48: 00 00 00 00 00 00 00 00 00 00 00 01 00 00 00 00   ................
|     96: 00 00 00 00 0d 00 00 00 03 0f 58 00 0f d8 0f b1   ..........X.....
|    112: 0f 58 00 00 00 00 00 00 00 00 00 00 00 00 00 00   .X..............
|   3920: 00 00 00 00 00 00 00 00 57 03 07 17 11 11 01 81   ........W.......
|   3936: 19 69 6e 64 65 78 69 31 74 31 04 43 52 45 41 54   .indexi1t1.CREAT
|   3952: 45 20 49 4e 44 45 58 20 69 31 20 4f 4e 20 74 31   E INDEX i1 ON t1
|   3968: 28 61 2c 61 2c 61 2c 61 2c 61 2c 61 2c 61 2c 61   (a,a,a,a,a,a,a,a
|   3984: 2c 61 2c 61 2c 61 2c 61 2c 61 2c 61 29 20 57 48   ,a,a,a,a,a,a) WH
|   4000: 45 52 45 20 61 20 49 53 20 4e 4f 54 20 4e 55 4c   ERE a IS NOT NUL
|   4016: 4c 25 02 06 17 11 11 01 37 74 61 62 6c 65 74 31   L%......7tablet1
|   4032: 74 31 03 43 52 45 41 54 45 20 54 41 42 4c 45 20   t1.CREATE TABLE 
|   4048: 74 31 20 28 20 61 20 29 26 01 06 17 11 11 01 39   t1 ( a )&......9
|   4064: 74 61 62 6c 65 74 32 74 32 02 43 52 45 41 54 45   tablet2t2.CREATE
|   4080: 20 54 41 42 4c 45 20 74 32 28 61 2c 62 2c 63 29    TABLE t2(a,b,c)
| page 2 offset 4096
|      0: 0d 00 00 00 00 10 00 00 00 00 00 00 00 00 00 00   ................
| page 3 offset 8192
|      0: 0d 00 00 00 04 0f ec 00 0f fb 0f f6 0f f1 0f ec   ................
|   4064: 00 00 00 00 00 00 00 00 00 00 00 00 03 04 02 01   ................
|   4080: 07 03 03 02 01 0a 03 02 02 01 02 03 01 02 01 05   ................
| page 4 offset 12288
|      0: 0a 00 00 00 04 0f 81 00 0f e0 0f c1 0f a1 0f 81   ................
|   3968: 00 1f 10 01 01 01 01 01 01 01 01 01 01 01 01 01   ................
|   3984: 01 01 0a 0a 0a 0a 0a 0a 0a 0a 0a 0a 0a 0a 0a 0a   ................
|   4000: 03 1f 10 01 01 01 01 01 01 01 01 01 01 01 01 01   ................
|   4016: 01 01 07 07 07 07 07 07 07 07 07 07 07 07 07 07   ................
|   4032: 04 1e 10 01 01 01 01 01 01 01 01 01 01 01 01 01   ................
|   4048: 01 09 05 05 05 05 05 05 05 05 05 05 05 05 05 05   ................
|   4064: 1f 10 01 01 01 01 01 01 01 01 01 01 01 01 01 01   ................
|   4080: 01 02 02 02 02 02 02 02 02 02 02 02 02 02 02 02   ................
| end yongheng004.txt.db
.testctrl prng_seed 1 db
.testctrl internal_functions
UPDATE t1 SET a = a + 10 WHERE ( a = 1 OR a = 2 ) AND a IS NOT NULL OR a=10 ;
SELECT * FROM t1;

