.open --hexdb
| size 12288 pagesize 4096 filename yongheng015.txt.db
| page 1 offset 0
|      0: 53 51 4c 69 74 65 20 66 6f 72 6d 61 74 20 33 00   SQLite format 3.
|     16: 10 00 01 01 00 40 20 20 00 00 00 00 00 00 00 03   .....@  ........
|     32: 00 00 00 00 00 00 00 00 00 00 00 01 00 00 00 04   ................
|     48: 00 00 00 00 00 00 00 00 00 00 00 01 00 00 00 00   ................
|     96: 00 00 00 00 0d 0f f8 00 02 0f 86 00 0f 86 0f d3   ................
|   3968: 00 00 00 00 00 00 4b 01 07 17 11 11 01 81 01 74   ......K........t
|   3984: 61 62 6c 65 74 31 74 31 02 43 52 45 41 54 45 20   ablet1t1.CREATE 
|   4000: 54 41 42 4c 45 20 74 31 28 61 20 49 4e 54 45 47   TABLE t1(a INTEG
|   4016: 45 52 20 50 52 49 4d 41 52 59 20 4b 45 59 2c 20   ER PRIMARY KEY, 
|   4032: 62 20 41 53 28 61 2b 31 2e 30 29 20 55 4e 49 51   b AS(a+1.0) UNIQ
|   4048: 55 45 29 23 02 06 17 37 11 01 00 69 6e 64 65 78   UE)#...7...index
|   4064: 73 71 6c 69 74 65 5f 61 75 74 6f 69 6e 64 65 78   sqlite_autoindex
|   4080: 5f 74 31 5f 31 74 31 03 00 00 00 08 00 00 00 00   _t1_1t1.........
| page 2 offset 4096
|      0: 0d 00 00 00 06 0f e8 00 0f fc 0f f8 0f f4 0f f0   ................
|     16: 0f ec 0f e8 00 00 00 00 00 00 00 00 00 00 00 00   ................
|   4064: 00 00 00 00 00 00 00 00 02 0b 02 00 02 07 02 00   ................
|   4080: 02 05 02 00 02 03 02 00 02 02 02 00 02 01 02 00   ................
| page 3 offset 8192
|      0: 0a 00 00 00 06 0f b3 00 0f f4 0f e7 0f da 0f cd   ................
|     16: 0f c0 0f b3 00 00 00 00 00 00 00 00 00 00 00 00   ................
|   4016: 00 00 00 0c 03 07 01 40 28 00 00 00 00 00 00 0b   .......@(.......
|   4032: 0c 03 07 01 40 20 00 00 00 00 00 00 07 0c 03 07   ....@ ..........
|   4048: 01 40 18 00 00 00 00 00 00 05 0c 03 07 01 40 10   .@............@.
|   4064: 00 00 00 00 00 00 03 0c 03 07 01 40 08 00 00 00   ...........@....
|   4080: 00 00 00 02 0b 03 07 09 40 00 00 00 00 00 00 00   ........@.......
| end yongheng015.txt.db
.testctrl prng_seed 1 db
.testctrl internal_functions
SELECT a FROM t1 NATURAL JOIN t1 WHERE a IN (SELECT b FROM t1 ORDER BY b);
SELECT * FROM t1 WHERE (SELECT a FROM t1 NATURAL JOIN t1 WHERE a IN (SELECT b FROM t1 ORDER BY b));

