.open --hexdb
| size 16384 pagesize 4096 filename yongheng002.txt.db
| page 1 offset 0
|      0: 53 51 4c 69 74 65 20 66 6f 72 6d 61 74 20 33 00   SQLite format 3.
|     16: 10 00 01 01 00 40 20 20 00 00 00 00 00 00 00 04   .....@  ........
|     32: 00 00 00 00 00 00 00 00 00 00 00 03 00 00 00 04   ................
|     48: 00 00 00 00 00 00 00 00 00 00 00 01 00 00 00 00   ................
|     96: 00 00 00 00 0d 00 00 00 03 0f 69 00 0f dc 0f a4   ..........i.....
|    112: 0f 69 00 00 00 00 00 00 00 00 00 00 00 00 00 00   .i..............
|   3936: 00 00 00 00 00 00 00 00 00 39 03 06 17 11 11 01   .........9......
|   3952: 5f 74 61 62 6c 65 74 33 74 33 04 43 52 45 41 54   _tablet3t3.CREAT
|   3968: 45 20 54 41 42 4c 45 20 74 33 28 62 20 49 4e 54   E TABLE t3(b INT
|   3984: 45 47 45 52 20 50 52 49 4d 41 52 59 20 4b 45 59   EGER PRIMARY KEY
|   4000: 2c 20 63 29 36 02 06 17 11 11 01 59 74 61 62 6c   , c)6......Ytabl
|   4016: 65 74 31 74 31 03 43 52 45 41 54 45 20 54 41 42   et1t1.CREATE TAB
|   4032: 4c 45 20 74 31 28 61 20 49 4e 54 45 47 45 52 20   LE t1(a INTEGER 
|   4048: 50 52 49 4d 41 52 59 20 4b 45 59 29 22 01 06 17   PRIMARY KEY)....
|   4064: 11 11 01 31 74 61 62 6c 65 74 32 74 32 02 43 52   ...1tablet2t2.CR
|   4080: 45 41 54 45 20 54 41 42 4c 45 20 74 32 28 61 29   EATE TABLE t2(a)
| page 2 offset 4096
|      0: 0d 00 00 00 00 10 00 00 00 00 00 00 00 00 00 00   ................
| page 3 offset 8192
|      0: 0d 00 00 00 00 10 00 00 00 00 00 00 00 00 00 00   ................
| page 4 offset 12288
|      0: 0d 00 00 00 00 10 00 00 00 00 00 00 00 00 00 00   ................
| end yongheng002.txt.db
.testctrl prng_seed 1 db
.testctrl internal_functions
DROP TABLE IF EXISTS t4;CREATE VIRTUAL TABLE t4 USING rtree(a,b,c);
SELECT * FROM t4 WHERE a=b AND b=10 AND a=0;
SELECT * FROM t1 JOIN t3 ON t1.a=t3.b LEFT JOIN t4 ON t4.a=0 OR t4.b=10
WHERE t4.c=t4.b AND t4.b=10;

