.open --hexdb
| size 12288 pagesize 4096 filename yongheng012.txt.db
| page 1 offset 0
|      0: 53 51 4c 69 74 65 20 66 6f 72 6d 61 74 20 33 00   SQLite format 3.
|     16: 10 00 01 01 00 40 20 20 00 00 00 00 00 00 00 03   .....@  ........
|     32: 00 00 00 00 00 00 00 00 00 00 00 03 00 00 00 04   ................
|     48: 00 00 00 00 00 00 00 00 00 00 00 01 00 00 00 00   ................
|     96: 00 00 00 00 0d 00 00 00 03 0f 3b 00 0f dc 0f b8   ..........;.....
|    112: 0f 3b 00 00 00 00 00 00 00 00 00 00 00 00 00 00   .;..............
|   3888: 00 00 00 00 00 00 00 00 00 00 00 7b 03 07 1b 0f   ................
|   3904: 11 08 81 61 74 72 69 67 67 65 72 78 74 31 43 52   ...atriggerxt1CR
|   3920: 45 41 54 45 20 54 52 49 47 47 45 52 20 78 20 41   EATE TRIGGER x A
|   3936: 46 54 45 52 20 49 4e 53 45 52 54 20 4f 4e 20 74   FTER INSERT ON t
|   3952: 31 0a 20 20 57 48 45 4e 20 28 53 45 4c 45 43 54   1.  WHEN (SELECT
|   3968: 20 2a 20 46 52 4f 4d 20 74 31 20 4a 4f 49 4e 20    * FROM t1 JOIN 
|   3984: 74 32 20 55 53 49 4e 47 28 62 29 29 20 41 4e 44   t2 USING(b)) AND
|   4000: 20 30 0a 42 45 47 49 4e 0a 20 20 53 45 4c 45 43    0.BEGIN.  SELEC
|   4016: 54 20 31 3b 0a 45 4e 44 22 02 06 17 11 11 01 31   T 1;.END.......1
|   4032: 74 61 62 6c 65 74 33 74 33 03 43 52 45 41 54 45   tablet3t3.CREATE
|   4048: 20 54 41 42 4c 45 20 74 33 28 62 29 22 01 06 17    TABLE t3(b)....
|   4064: 11 11 01 31 74 61 62 6c 65 74 31 74 31 02 43 52   ...1tablet1t1.CR
|   4080: 45 41 54 45 20 54 41 42 4c 45 20 74 31 28 61 29   EATE TABLE t1(a)
| page 2 offset 4096
|      0: 0d 00 00 00 00 10 00 00 00 00 00 00 00 00 00 00   ................
| page 3 offset 8192
|      0: 0d 00 00 00 00 10 00 00 00 00 00 00 00 00 00 00   ................
| end yongheng012.txt.db
.testctrl prng_seed 1 db
.testctrl internal_functions
ALTER TABLE t3 RENAME TO t4;

