.open --hexdb
| size 8192 pagesize 4096 filename yongheng023.txt.db
| page 1 offset 0
|      0: 53 51 4c 69 74 65 20 66 6f 72 6d 61 74 20 33 00   SQLite format 3.
|     16: 10 00 01 01 00 40 20 20 00 00 00 00 00 00 00 02   .....@  ........
|     32: 00 00 00 00 00 00 00 00 00 00 00 01 00 00 00 04   ................
|     48: 00 00 00 00 00 00 00 00 00 00 00 01 00 00 00 00   ................
|     96: 00 00 00 00 0d 00 00 00 01 0f df 00 0f df 00 00   ................
|   4048: 00 00 00 00 00 00 00 00 00 00 00 00 00 00 00 1f   ................
|   4064: 01 06 17 0f 0f 01 2f 74 61 62 6c 65 61 61 02 43   ....../tableaa.C
|   4080: 52 45 41 54 45 20 54 41 42 4c 45 20 61 28 62 29   REATE TABLE a(b)
| page 2 offset 4096
|      0: 0d 00 00 00 6b 0d db 00 0f fc 0f f8 0f f3 0f ee   ....k...........
|     16: 0f e9 0f e4 0f df 0f da 0f d5 0f d0 0f cb 0f c6   ................
|     32: 0f c1 0f bc 0f b7 0f b2 0f ad 0f a8 0f a3 0f 9e   ................
|     48: 0f 99 0f 94 0f 8f 0f 8a 0f 85 0f 80 0f 7b 0f 76   ...............v
|     64: 0f 71 0f 6c 0f 67 0f 62 0f 5d 0f 58 0f 53 0f 4e   .q.l.g.b.].X.S.N
|     80: 0f 49 0f 44 0f 3f 0f 3a 0f 35 0f 30 0f 2b 0f 26   .I.D.?.:.5.0.+.&
|     96: 0f 21 0f 1c 0f 17 0f 12 0f 0d 0f 08 0f 03 0e fe   .!..............
|    112: 0e f9 0e f4 0e ef 0e ea 0e e5 0e e0 0e db 0e d6   ................
|    128: 0e d1 0e cc 0e c7 0e c2 0e bd 0e b8 0e b3 0e ae   ................
|    144: 0e a9 0e a4 0e 9f 0e 9a 0e 95 0e 90 0e 8b 0e 86   ................
|    160: 0e 81 0e 7c 0e 77 0e 72 0e 6d 0e 68 0e 63 0e 5e   ...|.w.r.m.h.c.^
|    176: 0e 59 0e 54 0e 4f 0e 4a 0e 45 0e 40 0e 3b 0e 36   .Y.T.O.J.E.@.;.6
|    192: 0e 31 0e 2c 0e 27 0e 22 0e 1d 0e 18 0e 13 0e 0e   .1.,.'..........
|    208: 0e 09 0e 05 0e 00 0d ee 0d e8 0d e4 0d db 00 00   ................
|   3536: 00 00 00 00 00 00 00 00 00 00 00 07 6b 02 17 62   ............k..b
|   3552: 6f 6e 6b 6f 02 6a 02 00 04 69 02 10 34 6a 10 68   onko.j...i..4j.h
|   3568: 02 29 74 68 69 73 20 69 73 20 61 20 74 65 73 74   .)this is a test
|   3584: 03 67 02 01 63 02 66 02 08 03 65 02 01 64 03 64   .g..c.f...e..d.d
|   3600: 02 01 63 03 63 02 01 62 03 62 02 01 61 03 61 02   ..c.c..b.b..a.a.
|   3616: 01 60 03 60 02 01 5f 03 5f 02 01 5e 03 5e 02 01   .`.`.._._..^.^..
|   3632: 5d 03 5d 02 01 5c 03 5c 02 01 5b 03 5b 02 01 5a   ].].......[.[..Z
|   3648: 03 5a 02 01 59 03 59 02 01 58 03 58 02 01 57 03   .Z..Y.Y..X.X..W.
|   3664: 57 02 01 56 03 56 02 01 55 03 55 02 01 54 03 54   W..V.V..U.U..T.T
|   3680: 02 01 53 03 53 02 01 52 03 52 02 01 51 03 51 02   ..S.S..R.R..Q.Q.
|   3696: 01 50 03 50 02 01 4f 03 4f 02 01 4e 03 4e 02 01   .P.P..O.O..N.N..
|   3712: 4d 03 4d 02 01 4c 03 4c 02 01 4b 03 4b 02 01 4a   M.M..L.L..K.K..J
|   3728: 03 4a 02 01 49 03 49 02 01 48 03 48 02 01 47 03   .J..I.I..H.H..G.
|   3744: 47 02 01 46 03 46 02 01 45 03 45 02 01 44 03 44   G..F.F..E.E..D.D
|   3760: 02 01 43 03 43 02 01 42 03 42 02 01 41 03 41 02   ..C.C..B.B..A.A.
|   3776: 01 40 03 40 02 01 3f 03 3f 02 01 3e 03 3e 02 01   .@.@..?.?..>.>..
|   3792: 3d 03 3d 02 01 3c 03 3c 02 01 3b 03 3b 02 01 3a   =.=..<.<..;.;..:
|   3808: 03 3a 02 01 39 03 39 02 01 38 03 38 02 01 37 03   .:..9.9..8.8..7.
|   3824: 37 02 01 36 03 36 02 01 35 03 35 02 01 34 03 34   7..6.6..5.5..4.4
|   3840: 02 01 33 03 33 02 01 32 03 32 02 01 31 03 31 02   ..3.3..2.2..1.1.
|   3856: 01 30 03 30 02 01 2f 03 2f 02 01 2e 03 2e 02 01   .0.0.././.......
|   3872: 2d 03 2d 02 01 2c 03 2c 02 01 2b 03 2b 02 01 2a   -.-..,.,..+.+..*
|   3888: 03 2a 02 01 29 03 29 02 01 28 03 28 02 01 27 03   .*..).)..(.(..'.
|   3904: 27 02 01 26 03 26 02 01 25 03 25 02 01 24 03 24   '..&.&..%.%..$.$
|   3920: 02 01 23 03 23 02 01 22 03 22 02 01 21 03 21 02   ..#.#.......!.!.
|   3936: 01 20 03 20 02 01 1f 03 1f 02 01 1e 03 1e 02 01   . . ............
|   3952: 1d 03 1d 02 01 1c 03 1c 02 01 1b 03 1b 02 01 1a   ................
|   3968: 03 1a 02 01 19 03 19 02 01 18 03 18 02 01 17 03   ................
|   3984: 17 02 01 16 03 16 02 01 15 03 15 02 01 14 03 14   ................
|   4000: 02 01 13 03 13 02 01 12 03 12 02 01 11 03 11 02   ................
|   4016: 01 10 03 10 02 01 0f 03 0f 02 01 0e 03 0e 02 01   ................
|   4032: 0d 03 0d 02 01 0c 03 0c 02 01 0b 03 0b 02 01 0a   ................
|   4048: 03 0a 02 01 09 03 09 02 01 08 03 08 02 01 07 03   ................
|   4064: 07 02 01 06 03 06 02 01 05 03 05 02 01 04 03 04   ................
|   4080: 02 01 03 03 03 02 01 02 02 02 02 09 02 01 02 08   ................
| end yongheng023.txt.db
.testctrl prng_seed 1 db
.testctrl internal_functions
SELECT (SELECT b FROM a GROUP BY b
HAVING (SELECT COUNT()OVER() + lead(b)OVER(ORDER BY sum(DISTINCT b) + b))
) FROM a UNION SELECT 99 ORDER BY 1;
SELECT(SELECT b FROM a GROUP BY b HAVING(NULL AND b IN((SELECT COUNT() OVER(ORDER BY b) = lead(b) OVER(ORDER BY 3.100000 * sum(DISTINCT CASE WHEN b LIKE 'SM PACK' THEN b * b ELSE 0 END) / b))))) FROM a EXCEPT SELECT b FROM a ORDER BY b, b, b;

