.open --hexdb
| size 12288 pagesize 4096 filename yongheng001.txt.db
| page 1 offset 0
|      0: 53 51 4c 69 74 65 20 66 6f 72 6d 61 74 20 33 00   SQLite format 3.
|     16: 10 00 01 01 00 40 20 20 00 00 00 00 00 00 00 03   .....@  ........
|     32: 00 00 00 00 00 00 00 00 00 00 00 02 00 00 00 04   ................
|     48: 00 00 00 00 00 00 00 00 00 00 00 01 00 00 00 00   ................
|     96: 00 00 00 00 0d 00 00 00 02 0f 90 00 0f c8 0f 90   ................
|   3984: 36 02 06 17 11 11 01 59 74 61 62 6c 65 74 31 74   6......Ytablet1t
|   4000: 31 03 43 52 45 41 54 45 20 54 41 42 4c 45 20 74   1.CREATE TABLE t
|   4016: 31 28 61 20 49 4e 54 45 47 45 52 20 50 52 49 4d   1(a INTEGER PRIM
|   4032: 41 52 59 20 4b 45 59 29 36 01 06 17 11 11 01 59   ARY KEY)6......Y
|   4048: 74 61 62 6c 65 74 32 74 32 02 43 52 45 41 54 45   tablet2t2.CREATE
|   4064: 20 54 41 42 4c 45 20 74 32 28 61 20 49 4e 54 45    TABLE t2(a INTE
|   4080: 47 45 52 20 50 52 49 4d 41 52 59 20 4b 45 59 29   GER PRIMARY KEY)
| page 2 offset 4096
|      0: 0d 00 00 00 00 10 00 00 00 00 00 00 00 00 00 00   ................
| page 3 offset 8192
|      0: 0d 00 00 00 01 0f fc 00 0f fc 00 00 00 00 00 00   ................
|   4080: 00 00 00 00 00 00 00 00 00 00 00 00 02 0a 02 00   ................
| end yongheng001.txt.db
.testctrl prng_seed 1 db
.testctrl internal_functions
SELECT*FROM t1 AS x, t1 AS y WHERE x.a=y.a AND x.a IN(SELECT DISTINCT a FROM t1 ORDER BY a);

