.open --hexdb
| size 20480 pagesize 4096 filename yongheng003.txt.db
| page 1 offset 0
|      0: 53 51 4c 69 74 65 20 66 6f 72 6d 61 74 20 33 00   SQLite format 3.
|     16: 10 00 01 01 00 40 20 20 00 00 00 00 00 00 00 05   .....@  ........
|     32: 00 00 00 00 00 00 00 00 00 00 00 03 00 00 00 04   ................
|     48: 00 00 00 00 00 00 00 00 00 00 00 01 00 00 00 00   ................
|     96: 00 00 00 00 0d 0f f8 00 04 0f 46 00 0f 9e 0f d3   ..........F.....
|    112: 0f 76 0f 46 00 00 00 00 00 00 00 00 00 00 00 00   .v.F............
|   3904: 00 00 00 00 00 00 2e 04 06 17 15 11 01 45 69 6e   .............Ein
|   3920: 64 65 78 74 31 78 31 74 31 05 43 52 45 41 54 45   dext1x1t1.CREATE
|   3936: 20 49 4e 44 45 58 20 74 31 78 31 20 4f 4e 20 74    INDEX t1x1 ON t
|   3952: 31 28 61 2c 61 29 26 03 06 17 11 11 01 39 74 61   1(a,a)&......9ta
|   3968: 62 6c 65 74 32 74 32 04 43 52 45 41 54 45 20 54   blet2t2.CREATE T
|   3984: 41 42 4c 45 20 74 32 28 62 20 49 4e 54 29 33 01   ABLE t2(b INT)3.
|   4000: 06 17 11 11 01 53 74 61 62 6c 65 74 31 74 31 02   .....Stablet1t1.
|   4016: 43 52 45 41 54 45 20 54 41 42 4c 45 20 74 31 28   CREATE TABLE t1(
|   4032: 61 20 54 45 58 54 20 50 52 49 4d 41 52 59 20 4b   a TEXT PRIMARY K
|   4048: 45 59 29 23 02 06 17 37 11 01 00 69 6e 64 65 78   EY)#...7...index
|   4064: 73 71 6c 69 74 65 5f 61 75 74 6f 69 6e 64 65 78   sqlite_autoindex
|   4080: 5f 74 31 5f 31 74 31 03 00 00 00 08 00 00 00 00   _t1_1t1.........
| page 2 offset 4096
|      0: 0d 00 00 00 00 10 00 00 00 00 00 00 00 00 00 00   ................
| page 3 offset 8192
|      0: 0a 00 00 00 00 10 00 00 00 00 00 00 00 00 00 00   ................
| page 4 offset 12288
|      0: 0d 00 00 00 00 10 00 00 00 00 00 00 00 00 00 00   ................
| page 5 offset 16384
|      0: 0a 00 00 00 00 10 00 00 00 00 00 00 00 00 00 00   ................
| end yongheng003.txt.db
.testctrl prng_seed 1 db
.testctrl internal_functions
SELECT * FROM t2 LEFT JOIN t1 ON a=0 WHERE (a='x' OR a='y') AND a IS NOT NULL;

