.open --hexdb
| size 8192 pagesize 4096 filename yongheng017.txt.db
| page 1 offset 0
|      0: 53 51 4c 69 74 65 20 66 6f 72 6d 61 74 20 33 00   SQLite format 3.
|     16: 10 00 01 01 00 40 20 20 00 00 00 00 00 00 00 02   .....@  ........
|     32: 00 00 00 00 00 00 00 00 00 00 00 02 00 00 00 04   ................
|     48: 00 00 00 00 00 00 00 00 00 00 00 01 00 00 00 00   ................
|     96: 00 00 00 00 0d 00 00 00 02 0f 2a 00 0f dc 0f 2a   ..........*....*
|   3872: 00 00 00 00 00 00 00 00 00 00 81 2f 02 07 1b 11   .........../....
|   3888: 11 08 82 47 74 72 69 67 67 65 72 72 31 74 31 43   ...Gtriggerr1t1C
|   3904: 52 45 41 54 45 20 54 52 49 47 47 45 52 20 72 31   REATE TRIGGER r1
|   3920: 20 41 46 54 45 52 20 49 4e 53 45 52 54 20 4f 4e    AFTER INSERT ON
|   3936: 20 74 31 20 42 45 47 49 4e 20 0a 20 20 49 4e 53    t1 BEGIN .  INS
|   3952: 45 52 54 20 49 4e 54 4f 20 74 31 20 0a 20 20 20   ERT INTO t1 .   
|   3968: 20 20 53 45 4c 45 43 54 20 28 53 45 4c 45 43 54     SELECT (SELECT
|   3984: 20 69 66 6e 75 6c 6c 28 63 6f 75 6e 74 28 28 53    ifnull(count((S
|   4000: 45 4c 45 43 54 20 61 20 46 52 4f 4d 20 74 31 29   ELECT a FROM t1)
|   4016: 29 2c 31 30 29 20 29 0a 20 20 20 20 20 20 20 46   ),10) ).       F
|   4032: 52 4f 4d 20 74 31 0a 20 20 20 20 20 20 47 52 4f   ROM t1.      GRO
|   4048: 55 50 20 42 59 20 61 3b 0a 45 4e 44 22 01 06 17   UP BY a;.END....
|   4064: 11 11 01 31 74 61 62 6c 65 74 31 74 31 02 43 52   ...1tablet1t1.CR
|   4080: 45 41 54 45 20 54 41 42 4c 45 20 74 31 28 61 29   EATE TABLE t1(a)
| page 2 offset 4096
|      0: 0d 00 00 00 01 0f fb 00 0f fb 00 00 00 00 00 00   ................
|   4080: 00 00 00 00 00 00 00 00 00 00 00 03 01 02 01 0a   ................
| end yongheng017.txt.db
.testctrl prng_seed 1 db
.testctrl internal_functions
WITH RECURSIVE c(x) AS (VALUES(1) UNION ALL SELECT x+1 FROM c wHERE x<10)
INSERT INTO t1(a) SELECT x FROM c;
SELECT count(*) FROM t1;

