.open --hexdb
| size 12288 pagesize 4096 filename yongheng016.txt.db
| page 1 offset 0
|      0: 53 51 4c 69 74 65 20 66 6f 72 6d 61 74 20 33 00   SQLite format 3.
|     16: 10 00 01 01 00 40 20 20 00 00 00 00 00 00 00 03   .....@  ........
|     32: 00 00 00 00 00 00 00 00 00 00 00 01 00 00 00 04   ................
|     48: 00 00 00 00 00 00 00 00 00 00 00 01 00 00 00 00   ................
|     96: 00 00 00 00 0d 0f f8 00 02 0f 9b 00 0f 9b 0f d3   ................
|   3984: 00 00 00 00 00 00 00 00 00 00 00 36 01 06 17 11   ...........6....
|   4000: 11 01 59 74 61 62 6c 65 74 31 74 31 02 43 52 45   ..Ytablet1t1.CRE
|   4016: 41 54 45 20 54 41 42 4c 45 20 74 31 20 28 61 20   ATE TABLE t1 (a 
|   4032: 44 4f 55 42 4c 45 20 50 52 49 4d 41 52 59 20 4b   DOUBLE PRIMARY K
|   4048: 45 59 29 23 02 06 17 37 11 01 00 69 6e 64 65 78   EY)#...7...index
|   4064: 73 71 6c 69 74 65 5f 61 75 74 6f 69 6e 64 65 78   sqlite_autoindex
|   4080: 5f 74 31 5f 31 74 31 03 00 00 00 08 00 00 00 00   _t1_1t1.........
| page 2 offset 4096
|      0: 0d 00 00 00 01 0f fb 00 0f fb 00 00 00 00 00 00   ................
|   4080: 00 00 00 00 00 00 00 00 00 00 00 03 01 02 01 0a   ................
| page 3 offset 8192
|      0: 0a 00 00 00 01 0f fb 00 0f fb 00 00 00 00 00 00   ................
|   4080: 00 00 00 00 00 00 00 00 00 00 00 04 03 01 09 0a   ................
| end yongheng016.txt.db
.testctrl prng_seed 1 db
.testctrl internal_functions
SELECT * FROM t1 NATURAL JOIN t1 WHERE a=1 OR ((SELECT sum(a)OVER(ORDER BY a)) AND a<=10);

