.open --hexdb
| size 8192 pagesize 4096 filename yongheng011.txt.db
| page 1 offset 0
|      0: 53 51 4c 69 74 65 20 66 6f 72 6d 61 74 20 33 00   SQLite format 3.
|     16: 10 00 01 01 00 40 20 20 00 00 00 00 00 00 00 02   .....@  ........
|     32: 00 00 00 00 00 00 00 00 00 00 00 02 00 00 00 04   ................
|     48: 00 00 00 00 00 00 00 00 00 00 00 01 00 00 00 00   ................
|     96: 00 00 00 00 0d 00 00 00 02 0f 6b 00 0f c7 0f 6b   ..........k....k
|   3936: 00 00 00 00 00 00 00 00 00 00 00 5a 02 07 15 11   ...........Z....
|   3952: 11 08 81 23 76 69 65 77 74 32 74 32 43 52 45 41   ...#viewt2t2CREA
|   3968: 54 45 20 56 49 45 57 20 74 32 28 63 29 20 41 53   TE VIEW t2(c) AS
|   3984: 20 53 45 4c 45 43 54 20 73 75 6d 28 62 29 4f 56    SELECT sum(b)OV
|   4000: 45 52 28 29 20 46 52 4f 4d 20 74 31 20 55 4e 49   ER() FROM t1 UNI
|   4016: 4f 4e 20 41 4c 4c 20 53 45 4c 45 43 54 20 62 20   ON ALL SELECT b 
|   4032: 46 52 4f 4d 20 74 31 37 01 06 17 11 11 01 5b 74   FROM t17......[t
|   4048: 61 62 6c 65 74 31 74 31 02 43 52 45 41 54 45 20   ablet1t1.CREATE 
|   4064: 54 41 42 4c 45 20 74 31 28 61 20 56 41 52 43 48   TABLE t1(a VARCH
|   4080: 41 52 28 32 30 29 2c 20 62 20 46 4c 4f 41 54 29   AR(20), b FLOAT)
| page 2 offset 4096
|      0: 0d 00 00 00 05 0f 95 00 0f f9 0f bb 0f b2 0f 9d   ................
|     16: 0f 95 00 00 00 00 00 00 00 00 00 00 00 00 00 00   ................
|   3984: 00 00 00 00 00 06 05 03 11 01 32 39 0a 13 04 03   ..........29....
|   4000: 21 05 31 39 39 34 2d 30 31 2d 30 31 00 00 ff ff   !.1994-01-01....
|   4016: ff ff 07 03 03 13 01 31 2e 31 0a 3c 02 03 7d 01   .......1.1.<....
|   4032: 62 62 62 62 62 62 62 62 61 61 61 61 61 61 61 61   bbbbbbbbaaaaaaaa
|   4048: 61 61 61 61 61 61 61 61 61 61 61 61 62 62 62 62   aaaaaaaaaaaabbbb
|   4064: 62 62 62 62 61 61 61 61 61 61 61 61 61 61 61 61   bbbbaaaaaaaaaaaa
|   4080: 61 61 61 61 61 61 61 61 0a 05 01 03 0f 01 31 0a   aaaaaaaa......1.
| end yongheng011.txt.db
.testctrl prng_seed 1 db
.testctrl internal_functions
SELECT (SELECT c FROM t2 WHERE 10=c),* FROM t2 WHERE c>10;

