.open --hexdb
| size 12288 pagesize 4096 filename yuliang003.txt.db
| page 1 offset 0
|      0: 53 51 4c 69 74 65 20 66 6f 72 6d 61 74 20 33 00   SQLite format 3.
|     16: 10 00 01 01 00 40 20 20 00 00 00 00 00 00 00 03   .....@  ........
|     32: 00 00 00 00 00 00 00 00 00 00 00 02 00 00 00 04   ................
|     48: 00 00 00 00 00 00 00 00 00 00 00 01 00 00 00 00   ................
|     96: 00 00 00 00 0d 00 00 00 02 0f aa 00 0f da 0f aa   ................
|   4000: 00 00 00 00 00 00 00 00 00 00 2e 02 06 17 15 11   ................
|   4016: 01 45 69 6e 64 65 78 74 31 62 61 74 31 03 43 52   .Eindext1bat1.CR
|   4032: 45 41 54 45 20 49 4e 44 45 58 20 74 31 62 61 20   EATE INDEX t1ba 
|   4048: 4f 4e 20 74 31 28 62 2c 61 29 24 01 06 17 11 11   ON t1(b,a)$.....
|   4064: 01 35 74 61 62 6c 65 74 31 74 31 02 43 52 45 41   .5tablet1t1.CREA
|   4080: 54 45 20 54 41 42 4c 45 20 74 31 28 61 2c 62 29   TE TABLE t1(a,b)
| page 2 offset 4096
|      0: 0d 00 00 00 06 0f 9a 00 0f fa 0f ec 0f e0 0f db   ................
|     16: 0f c6 0f 9a 00 00 00 00 00 00 00 00 00 00 00 00   ................
|   3984: 00 00 00 00 00 00 00 00 00 00 2a 06 03 01 58 f5   ..........*...X.
|   4032: 00 00 00 00 00 00 13 05 03 07 1d 40 12 cc cc cc   ...........@....
|   4048: cc cc cd 62 6c 61 63 6b 6f 75 74 03 04 03 00 00   ...blackout.....
|   4064: 0a 03 03 00 1b 63 68 69 6d 6e 65 79 0c 02 03 17   .....chimney....
|   4080: 15 64 65 6c 74 61 65 63 68 6f 04 01 03 09 01 02   .deltaecho......
| page 3 offset 8192
|      0: 0a 00 00 00 06 0f 95 00 0f d8 0f fa 0f c2 0f de   ................
|     16: 0f eb 0f 95 00 00 00 00 00 00 00 00 00 00 00 00   ................
|   3984: 00 00 00 00 00 2c 04 58 01 01 00 00 00 00 00 00   .....,.X........
|   4032: f5 06 15 04 1d 07 01 62 6c 61 63 6b 6f 75 74 40   .......blackout@
|   4048: 12 cc cc cc cc cc cd 05 05 04 00 00 01 04 0c 04   ................
|   4064: 1b 00 01 63 68 69 6d 6e 65 79 03 0e 04 15 17 01   ...chimney......
|   4080: 65 63 68 6f 64 65 6c 74 61 02 05 04 01 09 09 02   echodelta.......
| end yuliang003.txt.db
.testctrl prng_seed 1 db
.testctrl internal_functions
SELECT * FROM t1 WHERE b = (SELECT b FROM t1 ORDER BY lead(b) OVER () AND sum(a));

