.open --hexdb
| size 8192 pagesize 4096 filename yuliang002.txt.db
| page 1 offset 0
|      0: 53 51 4c 69 74 65 20 66 6f 72 6d 61 74 20 33 00   SQLite format 3.
|     16: 10 00 01 01 00 40 20 20 00 00 00 00 00 00 00 02   .....@  ........
|     32: 00 00 00 00 00 00 00 00 00 00 00 02 00 00 00 04   ................
|     48: 00 00 00 00 00 00 00 00 00 00 00 01 00 00 00 00   ................
|     96: 00 00 00 00 0d 00 00 00 02 0f 57 00 0f dc 0f 57   ..........W....W
|   3920: 00 00 00 00 00 00 00 81 02 02 07 15 11 11 08 81   ................
|   3936: 73 76 69 65 77 76 32 76 32 43 52 45 41 54 45 20   sviewv2v2CREATE 
|   3952: 56 49 45 57 20 76 32 28 63 29 20 41 53 20 57 49   VIEW v2(c) AS WI
|   3968: 54 48 20 78 20 41 53 20 28 57 49 54 48 20 79 20   TH x AS (WITH y 
|   3984: 41 53 20 28 57 49 54 48 20 7a 20 41 53 28 53 45   AS (WITH z AS(SE
|   4000: 4c 45 43 54 20 2a 20 46 52 4f 4d 20 74 31 29 20   LECT * FROM t1) 
|   4016: 53 45 4c 45 43 54 20 2a 20 46 52 4f 4d 20 76 32   SELECT * FROM v2
|   4032: 29 20 53 45 4c 45 43 54 20 61 29 20 53 45 4c 45   ) SELECT a) SELE
|   4048: 43 54 20 2a 20 66 72 6f 6d 20 74 31 22 01 06 17   CT * from t1....
|   4064: 11 11 01 31 74 61 62 6c 65 74 31 74 31 02 43 52   ...1tablet1t1.CR
|   4080: 45 41 54 45 20 54 41 42 4c 45 20 74 31 28 61 29   EATE TABLE t1(a)
| page 2 offset 4096
|      0: 0d 00 00 00 00 10 00 00 00 00 00 00 00 00 00 00   ................
| end yuliang002.txt.db
.testctrl prng_seed 1 db
.testctrl internal_functions
CREATE VIEW v3(c) AS WITH x AS (WITH y AS (WITH z AS(SELECT * FROM t1) SELECT * FROM v3) SELECT a) SELECT * from t1;
ALTER TABLE t1 RENAME COLUMN a TO b;

